:02000002B0004C
:1040000000400B0030B70B00000006000C0005025A
:0840100004011F0C0000000078
:04401800C0A60B0033
:1040200009480A49884208B505D0094A824202D0A7
:10403000121A06F00BFA0748074A0021121A06F076
:104040002DFA014808BD00BFA8D9032084B60B0093
:104050002CDA032030DA0320F4E7032070B5074E92
:10406000074C05F0FFFAA41BA4080025A54200D1C7
:1040700070BD56F8043B98470135F7E75CB60B0076
:1040800080B60B0000F094BC08B500F0C5FCBDE89C
:10409000084005F09FBA02F0F9BC02F0F7BC02F04C
:1040A000FDBC0078B0FA80F040097047012303702E
:1040B0007047704710B50446043004F0CFFA20462C
:1040C00010BD10B504463C3004F0C8FA04F12800D5
:1040D00004F0C4FA204604F0C1FA204610BD10B521
:1040E0000446006808B102F0D9FC204610BD38B57E
:1040F0000446006928B185680C2105F0BAFB284602
:10410000F8E7204638BD10B504463AB903689B6805
:1041100098472046BDE8104004F08DB9D2B204F0B3
:10412000A0F9F6E770B505460C46164642B9036895
:10413000C9B29B6898472846BDE8704004F07BB937
:1041400000290ADA0A2A08D12D2104F06BF961420C
:10415000F2B2284604F085F9EDE72146F8E708B504
:104160000021022002F0A2FBBDE8084002F076B96F
:1041700038B584690A4B036005467CB16368013B2E
:1041800063605BB9236820469B689847A368013B3E
:10419000A3601BB923682046DB689847284638BDD2
:1041A000A0B20B000EB403B503AB012153F8042BEE
:1041B000019304F074F902B05DF804EB03B07047AA
:1041C000002340681A46194602F008BC00234068E4
:1041D0001A46194602F00ABC002340681A4602F04B
:1041E000DDBB00224068114602F0F0BB10B5074C61
:1041F0000749204604F0ABFA5023A36304F12800DA
:104200000449BDE8104004F0A2BA00BF50E003200A
:10421000D4A60B00E0A60B0038B50C46054605F009
:10422000FBFA182103F080FF05F0F6FA036829462F
:104230009B68984705F0F0FA036821469B68984709
:1042400005F0EAFABDE8384003F075BF10B5044642
:1042500005F0E2FA182103F067FF05F0DDFA0368C4
:1042600021469B68984705F0D7FA03F064FF05F0F4
:10427000D3FA0122182103F050FF05F0CDFA0368AC
:10428000BDE810405B69184708B52120FFF7DEFF45
:104290002620FFF7DBFF3120FFF7D8FF5721202032
:1042A000FFF7BAFF09212120FFF7B6FF40212220A6
:1042B000FFF7B2FF00212320FFF7AEFF08212420E3
:1042C000FFF7AAFF10213220FFF7A6FF00213320BD
:1042D000FFF7A2FFBDE808402A213020FFF79CBF6E
:1042E00070B52A4E2A4C2B4D05F06AFA042231464D
:1042F000642002F0E3F805F063FA27490422002065
:1043000002F0DCF805F05CFA04222146C82002F035
:10431000D5F805F055FA294604224FF4FA7002F058
:10432000CDF823684FF47A7293FBF2F3236005F023
:1043300023F832681949FFF735FF05F01DF82268A8
:104340001749FFF72FFF05F017F82A681549FFF7FF
:1043500029FF3368013304BF4FF4FA7333602368D5
:10436000013304BF0F2323602B68013304BF0523EF
:104370002B60094B1B68013306D104F0FDFFBDE83B
:104380007040094904F063B870BD00BF40E00320ED
:1043900044E00320E0E0032094DA0320E2A60B00CF
:1043A000F8A60B000EA70B0025A70B00074B084A29
:1043B0001B684FF47A7043431068064A93FBF0F38E
:1043C00010688342CCBF002001207047E0E003204A
:1043D00040E00320E4E0032010B500210446022061
:1043E00002F064FA02F042F8204610BD30B50446EF
:1043F00089B06548644DFFF7E3FE63480021FFF78D
:10440000EBFE2846FFF7EDFE18B9642002F08EFBA4
:10441000F7E75D48FFF7E5FEA8B904F0ADFF0490AB
:10442000FFF79DFE04F0A8FF584904F010F804A817
:10443000FFF7D2FF5648214604F0D8F95248FFF75B
:10444000C5FE09B030BD04F097FF0490FFF787FE6A
:1044500004F092FF4F4903F0FAFF04A8FFF7BCFFF6
:104460004D494B4804F00FFAE8B904F085FF03907A
:10447000FFF775FE04F080FF4849054604A804F0E4
:1044800038F9434904A804F0D3F90168284603F039
:10449000DEFF04A804F0E2F803A8FFF79DFF3C4903
:1044A000204604F0A3F9A1683D4D0139204604F0EF
:1044B00050FA3C4904A804F01CF9214604A804F071
:1044C000B7F9394904F0C0F90146384804F025F934
:1044D00004A804F0C3F804F04FFF0490FFF73FFE78
:1044E000334B344900932A46334B344801F0ECFCFB
:1044F00004A8FFF771FF04F03FFF0490FFF72FFEC1
:1045000004F03AFF2B682E49194403F0A0FF04A8D9
:10451000FFF762FF04F030FF0390FFF720FE04F086
:104520002BFF2849044604A804F0E3F8291D04A839
:1045300004F07EF90168204603F089FF04A804F026
:104540008DF803A8FFF748FF04F016FF0390FFF76C
:1045500006FE04F011FF1C49044604A804F0C9F843
:10456000124904A804F064F90168204603F06FFFC3
:1045700004A804F073F803A8FFF72EFF06490448C7
:1045800004F0E5F85AE700BFC0E7032054A70B008A
:10459000B0E003207EA70B008CAA0B009DA70B00A8
:1045A0009CE00320B0A70B00BAA70B008CE003200F
:1045B000BDA70B0050E00320ACD903209CDA0320F8
:1045C000C2A70B00CEA70B00CBA70B002DE9F04F25
:1045D000DFF81CA13C4C8DB0DAF800304FF47A7251
:1045E00053433A4A126893FBF2F32268934267DC22
:1045F000374FDFF800913868DFF8FC80DFF8FCB057
:1046000001F00CFF334B00252268AA4235DD194624
:1046100004A804F06EF8304B0A221968684604F0CA
:10462000A8F8694604A804F003F9594604F00CF907
:1046300019F8011B04F01DF9284904F005F90A22B4
:1046400058F8041B064608A804F0A6F808A9304646
:1046500004F0EEF8224904F0F7F80146214804F08E
:10466000C5F808A803F0FAFF684603F0F7FF04A8AE
:1046700003F0F4FF0135174BC6E700231949236007
:1046800004A804F059F8184D1849164804F05FF8CA
:10469000386801F0CBFE286801F0C0FE04A908A824
:1046A00004F04AF808A8FFF7A1FE08A803F0D6FF17
:1046B000286801F0BBFEFFF7E7FD04A803F0CEFF7A
:1046C00001F09CFE88E700BFF8E5032040E00320EE
:1046D00030E00320D5A70B0094DA0320E9A70B00F4
:1046E000F8A70B0020E0032048E003208CAA0B0071
:1046F00044E00320F8E40320F8E00320DEA70B00E9
:1047000037B500220121032002F0D8F8012107204B
:1047100005F018F82A4D0021072005F024F80021A3
:10472000022005F00FF82B7D9BB103232B722B6821
:10473000DB686BB39A88012A06D09B68F9E79B680F
:1047400033B39A88012AFAD19A89022AF7D1012231
:104750009A731C48182101F0F2FA80B94FF47A706C
:1047600002F0E4F904F008FE0190FFF7F8FC04F011
:1047700003FE154903F06BFE01A8FFF72DFEFFF7BE
:1047800083FD1249124803B0BDE8304001F088BDF6
:104790001049102005F06FF8044670B11022002176
:1047A00005F07CFE2A690C4B2360A26001230222E3
:1047B000A380A281A3732C61CBE72875C9E700BF52
:1047C000C8E00320B8DE0320FBA70B0080EE360014
:1047D00015E603209CB30B001000030007B50B4B3C
:1047E00000221A6004F0C8FD0190FFF7B8FC04F045
:1047F000C3FD074903F02BFE01A8FFF7EDFD0121E2
:10480000072003B05DF804EB04F0ADBF8CDA0320A1
:10481000CAA80B0007B504F0AFFD0190FFF79FFC9D
:1048200004F0AAFD064903F012FE01A8FFF7D4FD2B
:104830000021072003B05DF804EB04F094BF00BF33
:1048400017A80B001FB504F097FD0190FFF787FC38
:1048500004F092FD0F49104C03F0F9FD01A8FFF799
:10486000BBFD642002F062F9206801F0D7FD01A8C9
:104870000A4904F0B5F8019808B102F00FF9084BA5
:1048800000221A60FFF700FD206804B0BDE8104068
:1048900001F0CCBD24A80B0048E00320C8E00320B1
:1048A000E4E0032030B53D483C4D87B0FFF788FC7D
:1048B0003A480021FFF790FC44F620642846FFF7B1
:1048C00090FC98B994B1642002F030F904F054FDE2
:1048D000643C0290FFF743FC04F04EFD0A2221469F
:1048E000FFF720FC02A8FFF777FDE7E72B48FFF76B
:1048F00078FC002845D004F03FFD0290FFF72FFC24
:1049000004F03AFD264903F0A2FD02A8FFF764FD7A
:1049100002F01CF802F022F80028FBD002F01EF88A
:1049200010B1002002F022F81E4C02F017F848B136
:10493000002002F023F828B101F0B0FD206001F062
:10494000FDFFF2E704F018FD0190FFF708FC04F00A
:1049500013FD044604F019FCC317024602A804F034
:10496000BBFB029A10492046FFF71CFC02A803F08B
:1049700075FE01A8FFF730FD0848FFF727FC07B0D8
:1049800030BD04F0F9FC0290FFF7E9FB04F0F4FC01
:10499000064903F05CFD02A8ECE700BFC0E7032076
:1049A0004AA80B00D0E7032067A80B007BA80B00E8
:1049B00037B5144C144D04F0DFFC4FF4165104F0DD
:1049C000CFFCFFF79DFEFFF711FCFFF789FCFFF717
:1049D00069FF204601F01AFD284601F017FD284620
:1049E00001F024FD204601F021FD00234FF48062F8
:1049F000CDE900320549064B0648022201F0F6FCDB
:104A000003B030BD30E0032048E00320B1A80B0024
:104A1000CD450B004CE003202DE9F04F2DED028B2E
:104A2000C54EC64897B001F055FC35783DB1012D13
:104A300000F0BF8017B0BDEC028BBDE8F08F04F032
:104A40009BFC0D90FFF78BFB04F096FCBC4903F038
:104A5000FEFC0DA8FFF7C0FC02F0A0FC02F0ECFC8D
:104A600002F09CFCB74A01460DA803F08FF90DA88F
:104A700002F07DFD02F092FCB34A01460DA803F05E
:104A800085F90DA802F073FD0DA802F0F0FAAF4908
:104A900003A802F0F1F903A908A802F0EDF908A8AB
:104AA00002F030FA044608A8002C3AD102F046FA87
:104AB0000094ADF80A0002230DF10A0203210DA8AB
:104AC00002F0CAFA02F06AFC00220DA902F0D4FC3E
:104AD00002F064FC9E49002203F05BF802F05EFCE9
:104AE0009C49002203F036F841F2883402F056FC6B
:104AF00002F0D5FC00B9DCB902F050FC02F0CFFCAA
:104B0000954C40BB207004F037FC0890FFF727FB62
:104B100004F032FC914903F09AFC08A8FFF75CFC12
:104B200028E002F00DFA0095024610230721C6E79F
:104B300004F022FC0A3C0890FFF711FB04F01CFC77
:104B40000A222146FFF7EEFA08A8FFF745FC0A20E3
:104B500001F0ECFFCAE704F00FFC0890FFF7FFFA42
:104B600004F00AFC7E4903F072FC08A8FFF734FC4D
:104B7000012323707B4D237883B104F0FDFB089063
:104B8000FFF7EDFA04F0F8FB294603F060FC08A8F3
:104B9000FFF722FC642001F0C9FFECE702F0FEFB06
:104BA00002F006FF02F0FAFB02F06BFD0123337006
:104BB00040E704F0E1FB6C4C0D90FFF7D0FA04F0F5
:104BC000DBFB6A49DFF8D8B1DFF8D891684FDFF82E
:104BD000D8A1DFF8D88103F03AFC0DA8FFF7FCFB61
:104BE000204600F0CBFF634BD4ED037AD4ED048A6A
:104BF00094ED058A1A78CBED007AC9ED008A87ED2D
:104C0000008A002A40F0E0809AED007A5A4C5B4D11
:104C1000266877EEC77AF0EEE77A17EE900A05F08D
:104C2000A7F843A3D3E9002305F08AFB002878D135
:104C3000D8ED007A78EEE78AF0EEE87A17EE900A7F
:104C400005F096F83AA3D3E9002305F079FB002894
:104C500067D14B4BD3ED007A38EE678AF0EEC87A15
:104C600017EE900A05F084F831A3D3E9002305F08C
:104C700067FB002855D1A855354415F8013C002B99
:104C800000F09680256804F080FA3E4B43F825003A
:104C900004F072FB0D90FFF762FA04F06DFB2268DE
:104CA0003949FFF77FFA0DA8FFF796FB2368013318
:104CB000236004F061FB354C0D90FFF750FA04F0CF
:104CC0005BFB334903F0C3FB0DA8FFF785FB2068AE
:104CD00001F0A4FB012001F029FF206801F0A6FBF0
:104CE00004F04AFB0D90FFF73AFA04F045FB29491E
:104CF00003F0ADFB0DA8FFF76FFBDBF80030204A97
:104D0000CAF80030D9F80030C8F800303B681360AA
:104D1000214B186817B0BDEC028BBDE8F04F01F0D5
:104D200005BF0123AB551D4B00221A60AAE700BF47
:104D30009A9999999999A93F98DA032015E6032041
:104D4000BEA80B00FCE50320C0E0032040DA0320EE
:104D5000DD470B0015480B0090DA0320D4A80B00A8
:104D6000C6A80B0008A90B00B8DE032068A90B0039
:104D700020E60320A8D90320F8E50320F8E4032067
:104D80003CE00320F8E0032019A90B0030E00320E9
:104D90002DA90B004AA90B0040E00320E4E003200A
:104DA00018E603201CE6032034E0032038E003204B
:104DB0000B4A136801331360FFF7F8FA00283FF439
:104DC00061AFFFF73FFD5DE700221A7004F0D4FAEF
:104DD0000D90FFF7C4F904F0CFFA024988E700BF4D
:104DE000E4E0032072A90B002DE9F04FC14E95B00D
:104DF00005460C46C048C14903F0A9FC3368082B9E
:104E000000F23181DFE813F0A301EB00CA00AF002C
:104E10008D006B004900240009002C446F1EB64D24
:104E2000023CBC4200F0AA8304F0A6FA0190FFF70E
:104E300096F904F0A1FA17F8011F0A22FFF763F9A7
:104E400001A8FFF7C9FA3978284603F0D3FCE8E750
:104E50002C446F1EDFF8A082A94D023CBC4200F03A
:104E6000628304F089FA0190FFF779F904F084FA7B
:104E70000A2217F8011FFFF746F901A8FFF7ACFA5D
:104E800039789D4803F0B6FCD8F8000005F0A8FA80
:104E90004FF47A7358432860E0E72C446F1EDFF824
:104EA0005882984D023CA74200F0008304F064FA57
:104EB0000190FFF754F904F05FFA0A2217F8011F76
:104EC000FFF721F901A8FFF787FA39788A4803F03C
:104ED00091FCD8F8000005F083FA2860E3E72C4441
:104EE0006F1EDFF81482884D023CA74200F0538207
:104EF00004F042FA0190FFF732F904F03DFA0A2279
:104F000017F8011FFFF7FFF801A8FFF765FA3978D6
:104F1000794803F06FFCD8F8000005F061FA2860CA
:104F2000E3E72C446F1EDFF8D081784D023CBC4291
:104F300000F0EF8104F020FA0190FFF710F904F07F
:104F40001BFA0A2217F8011FFFF7DDF801A8FFF787
:104F500043FA3978684803F04DFCD8F8000005F0B2
:104F60003FFA2860E3E72C446F1E634D023CBC42CD
:104F700000F0958104F000FA0190FFF7F0F804F0DA
:104F8000FBF917F8011F0A22FFF7BDF801A8FFF788
:104F900023FA3978284603F02DFCE8E72C446F1EED
:104FA000DFF88881544D023CA74200F0108104F0E4
:104FB000E3F90190FFF7D3F804F0DEF917F8011FC9
:104FC0000A22FFF7A0F801A8FFF706FA3978284669
:104FD00003F010FC2946404603F09FFBE4E76F1EF8
:104FE000DFF83C812544444C023DBD4241D017F8D6
:104FF000011F204603F0FEFB2146404603F08DFBD7
:1050000004F0BAF90190FFF7AAF804F0B5F939787D
:105010000A22FFF778F801A8FFF7DEF9E5E73C4B35
:105020003C48382202FB0131043103F090FB04F0CC
:10503000A3F90190FFF793F804F09EF9A1680A2202
:10504000054603F00EFA284603F0F5F901A8FFF72C
:10505000C3F930493048002202F0CEF82F4900222F
:105060002D4802F0CEF833680133336015B0BDE847
:10507000F08F04F081F92A4D0190FFF770F804F0E9
:105080007BF9296803F0E3F904F076F9A9680A22AC
:10509000044603F0E6F9204603F0CDF901A8FFF736
:1050A0009BF91649284603F0EEFB044600283FD042
:1050B00003233360154C04F083FB214604220020B7
:1050C00001F0FCF917491448002202F09AF821680F
:1050D0004C1C0BD00A2201A803F04BFB0E48002207
:1050E00001A902F089F801A803F0B8FA0E490022DC
:1050F000B6E700BF8CDA03207CDA03208CAA0B0011
:1051000044E0032040E00320E0E0032094DA0320A1
:10511000F8DE0320E4DE0320FCE50320C2A90B0037
:10512000E8E0032007AA0B001AAA0B0010E00320F6
:10513000BD49284603F0A7FB0246002845D0BB48DE
:10514000234640682246214601F078FC3460B84985
:10515000B848DFF850A3B84DB84CDFF8D882DFF874
:105160004893002202F04DF8B549B048052204F0FA
:1051700063F90027CAF80000DAF800100139B942D3
:105180007FF74DAF2946204603F0E1FA04F0F4F82A
:105190000190FEF7E4FF04F0EFF8A1680A228346CD
:1051A00003F05FF9584603F046F901A8FFF714F938
:1051B00000222146404602F01FF8002249464046A0
:1051C00002F01FF801373835D6E79E4948E704F06A
:1051D000D3F89D4C0190FEF7C2FF04F0CDF8216892
:1051E00003F035F904F0C8F8A16805460A2203F077
:1051F00038F9284603F01FF901A8FFF7EDF8934BA3
:105200002568D3F80080B8F1000F44D0404605F07F
:105210008DF90746002D40D0284605F087F9044651
:105220003822002106A805F039F94C23CDE90138D0
:105230007E48059403238DF81830002301AA1946EF
:105240004068CDE9037501F0F1FB04F095F800909A
:10525000FEF785FF04F090F87D49044601A803F0AD
:1052600048FA7A4901A803F0E3FA7A4903F0ECFA24
:10527000754903F0DDFA784903F0E6FA0168204643
:1052800003F0E5F801A803F0E9F96846FFF7A4F890
:1052900072490022E4E64746BCE72C46C0E7704965
:1052A000704803F0F0FA00283FF404AF5F4C00228E
:1052B0006068114601F0B2FB00283FF4FBAE2046C7
:1052C000FEF77EFF00212046FEF786FF0022606881
:1052D000114601F06BFB78B104F04EF8624903F01F
:1052E000B6F800245148FEF771FF64B15F49514898
:1052F000002201F086FFDDE62046FEF772FF04463D
:105300000028E9D0EEE75A494A48224601F079FFE1
:105310001CE75849534803F0B6FA044698B904F01C
:105320004FFA55490422204601F0D0F804F024F841
:105330000190FEF714FF04F01FF8504903F087F8BE
:1053400001A8FFF749F804F03BFA04224A4900207B
:1053500001F0B4F804F010F82B684949194403F03F
:1053600076F848493348002201F04BFF464B1B6852
:1053700001330DD0454B0A22196801A803F0F9F951
:105380002C48002201A901F037FF01A803F066F9BB
:105390003F49002264E63749324803F074FAA0B965
:1053A00004F00EFA394904224FF4FA7001F08EF835
:1053B00003F0E2FF0190FEF7D2FE03F0DDFF354976
:1053C00003F045F801A8FFF707F804F0F9F9042203
:1053D0002E492D4C4FF4FA7001F070F803F0CCFF19
:1053E0002B682D49194403F032F804F0E9F904223E
:1053F0002146642001F062F828490E48002201F09D
:1054000000FF2168481C0BD00A2201A803F0B1F963
:105410000848002201A901F0EFFE01A803F01EF9DF
:105420001F4900221CE600BF40AA0B00C0E7032072
:1054300080A90B00FCE50320FCDE0320E4DE032052
:10544000F8DE032046AA0B0010E00320E8E003206A
:1054500060AA0B007EAA0B008AAA0B008DAA0B0083
:10546000C1AA0B007CDA0320C6AA0B00CEAA0B004F
:10547000D8AA0B008CAA0B0094DA0320F8AA0B0020
:1054800005AB0B000CAB0B0040E00320E0E0032079
:1054900039AB0B0081AB0B009EAB0B00B5AB0B0027
:1054A000E6AB0B00F4DE0320BFA90B00644965489E
:1054B00003F0E9F930B104F083F963490422642070
:1054C00000F0FCFF04F07CF9604C5F49042264208A
:1054D00000F0FCFF04F074F95B490422642000F042
:1054E000EDFF04F06DF904222146C82000F0E6FF2C
:1054F00000225749574801F084FE23685A1C0FD0F8
:105500000A224FF47A7101A893FBF1F103F031F90B
:105510005048002201A901F06FFE01A803F09EF897
:105520004D4900229CE54649464803F0ACF930B1AC
:1055300004F046F945490422C82000F0BFFF04F0FA
:105540003FF942490422C82000F0C0FF04F038F9B6
:105550003E490422C82000F0B1FF03F00DFF019086
:10556000FEF7FDFD03F008FF29680A22FEF7DAFDC9
:1055700001A8FEF731FF3949002271E53849314869
:10558000384C03F080F900B3002201A901208DF806
:10559000042001F09BF9012323700024224601A975
:1055A00001208DF8044001F091F92F48FEF708FE24
:1055B00021462D482C4CFEF70FFE2046FEF711FE2B
:1055C00048B9642001F0B2FAF7E72378002BE4D160
:1055D00003F002FA47E52448FEF703FE68B903F03A
:1055E000CBFE0190FEF7BBFD03F0C6FE1F4902F0A3
:1055F0002EFF01A8FEF7F0FEEAE703F0BDFE0190E2
:10560000FEF7ADFD03F0B8FE194902F020FF01A836
:10561000FEF7E2FE17490F48002201F0F2FD01F00B
:1056200095F901F09BF930B1134C00F037FF206081
:1056300001F084F9F9E7642001F078FAF1E700BF9E
:105640008CAA0B007CDA032040E0032044E0032016
:105650003BAC0B00FCE503206CAC0B00BDAC0B00BD
:10566000F3AC0B0014E60320C0E703207BA80B007B
:10567000F7AC0B0017AD0B00D0E70320F0B51646D2
:1056800091B00022C0E9002204460D460BAF194636
:1056900006A801F0F1FB1699384601F0EDFB3378CE
:1056A0008DF81430189B0293179B2046CDE90073A8
:1056B00005AA06AB294602F0F3F9204611B0F0BD69
:1056C00010B52C21044604F0D4F8204610BD00008B
:1056D00070B56E4D6E4BAB60002490B0C5E90044D0
:1056E000032001F0CBF86B4A6B49284604F0BCF864
:1056F0002146012001F0D2F868496948694D02F05D
:10570000F8FF644A6849664804F0AEF863496748A0
:1057100002F0EFFF5F4A6449644804F0A5F85F496E
:10572000634802F0E6FF5B4A5F49614804F09CF879
:105730005A49604802F0DDFF564A5B495D4804F073
:1057400093F856495C4802F0D4FF524A56495A48E9
:1057500004F08AF85149594802F0CBFF4D4A5249AA
:10576000564804F081F856484A4A56490461031DD8
:105770000360554B436001230375C0E9024404F004
:1057800073F85249524801F05BFC5249524801F00B
:1057900057FC5249524801F053FC524800F033FB89
:1057A0003C4A51494F4804F05FF83C494F4802F0E9
:1057B000A0FF4F4802F0FCFC38494E4802F099FF28
:1057C00036494D4802F095FF324A4C49474804F0AB
:1057D0004BF832494A4802F08CFF2E4A49494A4860
:1057E00004F042F805243826281D3422002104F054
:1057F00055FE013C45F8386BF6D12849434802F084
:1058000078FF244A2849414804F02EF8404800F027
:10581000A7F8204A3F493E4804F026F810233049B3
:105820008DF8143006A801F027FB29490BA801F0D8
:1058300023FB0BAB009305AA06ABCDE90144364927
:105840003648FFF71BFF134A3549344804F00CF87B
:10585000042321498DF8143006A801F00DFB1C49E2
:105860000BA801F009FB2F4B01930BAB009305AA8A
:105870002D49029406AB2D48FFF700FF054A284941
:105880002A4810B0BDE8704003F0EEBF34DA0320C0
:105890000000FFFF30DA0320DF400B008CAA0B0072
:1058A00020E00320F8DE03205D860B0004E60320E1
:1058B000E8E0032010E00320B0E003207CDA0320BE
:1058C000C8E00320EF400B00100003002CAD0B00DC
:1058D00040DA032051AD0B0054DA032076AD0B0003
:1058E00068DA03209CDA032071410B0050E00320AA
:1058F00060E0032078E003208CE00320C3400B002D
:10590000A0E00320B5400B009CE00320E4DE032070
:10591000B8DE0320B3400B009BAD0B00FCE5032079
:105920006F750B00E94D0B009EAD0B00C0E003202E
:105930007047000038B50C4605462022002104F1CE
:10594000080004F0ABFD0B220449204604F0F6FDEC
:105950000123E360AA69C4E9042338BD10A80B0041
:10596000064A02604FF0FF3282614277C283FF2213
:1059700080F8202008224262704700BFD0AD0B00A3
:1059800013B50B4C2178BFF35B8F11F001010BD1E4
:1059900020460191FEF785FB019928B1054802F0E8
:1059A000C9FD2046FEF782FB024802B010BD00BFD1
:1059B00024E6032028E6032008B5FFF7E1FF0121D4
:1059C00002F0D6FDFFF7DCFF0549012202F00EFED2
:1059D000FFF7D6FFBDE80840002102F0DDBD00BFA3
:1059E00020A107002DE9F04190F920300133054650
:1059F0000F4606D1FFF7C4FF3946BDE8F04102F07B
:105A000027BE002407264FF0010895F92000002149
:105A100080B203F0A8FE95F91E0008FA06F139409D
:105A200080B203F0A0FE95F92000012180B203F0BE
:105A30009AFE95F91F00640080B2E4B203F0ACFE58
:105A400008B144F00104013EDFD22046BDE8F081F8
:105A500070B590F91D30013304460E46154616D137
:105A600003F0DAFE217F02F05BFB03F0D5FE036852
:105A700031469B68984703F0CFFE036829469B6830
:105A8000984703F0C9FEBDE8704002F054BB90F99E
:105A90002030013301D1FFF78FFF94F91D00002161
:105AA00080B203F060FE06F07F012046FFF79AFF08
:105AB00029462046FFF796FF94F91D000121BDE815
:105AC000704080B203F04FBE38B590F91D300133FD
:105AD00004460D461DD103F09FFE94F91C1002F000
:105AE00023FB03F099FE036829469B68984703F05F
:105AF00093FE02F020FB03F08FFE217F012202F0D3
:105B00000CFB03F089FE03685B699847C5B2284621
:105B100038BD90F92030013301D1FFF74DFF94F9E2
:105B20001D00002180B203F01EFE45F080012046DA
:105B3000FFF758FF00212046FFF754FF054694F970
:105B40001D00012180B203F00EFEE0E708B523211D
:105B5000FFF7BAFFC0F3011008BD38B50D4620218C
:105B60000446FFF7B1FF00F00F0343EA0512204699
:105B7000D2B2BDE838402021FFF76ABF38B590F9AE
:105B80001D300133044677D103F046FE94F91C1012
:105B90005D4D02F0C9FA03F03FFE0368A8219B683F
:105BA000984703F039FE02F0C6FA03F035FE217F74
:105BB000062202F0B2FA03F02FFE03685B699847F1
:105BC000E08003F029FE03685B699847E38805EAF3
:105BD00000201843E08003F01FFE03685B699847CC
:105BE000208103F019FE03685B699847238905EA61
:105BF00000201843208103F00FFE03685B6998477B
:105C0000608103F009FE03685B69984705EA00209C
:105C10006589284360812046FFF798FF032869D0F3
:105C200002286AD001286BD0002843F6FC7318BF05
:105C3000012307EE903AB4F9063007EE103AF8EE79
:105C4000E77AB8EEC77AB4F90830C7EE276A07EEEC
:105C5000103AB8EEC77AC4ED036AC7EE276AB4F902
:105C60000A3007EE103AB8EEC77AC4ED046AC7EE00
:105C7000276AC4ED056A38BD90F92030013301D19F
:105C8000FFF79AFE94F91D00002180B203F06BFD2E
:105C9000E8212046FFF7A6FEFF212046FFF7A2FEDF
:105CA000FF21E0802046FFF79DFEE38843EA0020C5
:105CB000E080FF212046FFF795FEFF21208120464E
:105CC000FFF790FE238943EA00202081FF21204630
:105CD000FFF788FEFF2160812046FFF783FE63897E
:105CE00043EA0020608194F91D00012180B203F095
:105CF0003AFD90E74FF400639BE74FF4805398E739
:105D000041F6FE7395E700BF00FFFF0070B50C463B
:105D1000054620220021201D04F0C0FB242323601F
:105D2000AB69636001262846A660FFF727FFEB6892
:105D300063612B69A3616B69E361304670BD10B587
:105D40000446017790F91D00421C23D103F064FD45
:105D500002F0B4F90F212046FFF7B6FE33283DD1FB
:105D6000072220212046FFF773FE07212046FFF778
:105D7000F4FE882223212046FFF76AFE102222210A
:105D80002046FFF765FE204680221F21FFF760FEB8
:105D9000012010BD012180B203F0E5FC94F91D0043
:105DA000012180B203F0CEFC94F92000431C04D101
:105DB000FFF7E6FD02F0C8FBCCE7012180B203F05B
:105DC000C1FC94F91E00012180B203F0BBFC94F9E0
:105DD0001F00002180B203F0B5FCBBE70020D8E72C
:105DE00070B50C1E064615460BDA0A2A09D12D217C
:105DF00002F018FB6142EAB23046BDE8704002F0A2
:105E000030BB2146F7E710B5044603F043F92046BE
:105E100010BD0000F8B50F4F054614460E4602F0BF
:105E2000FDFA3946284602F0F9FA2146284602F0E2
:105E30000EFB03F0A1FA314602F0F0FA03F09CFAEF
:105E4000394602F0EBFA03F097FA2146BDE8F84034
:105E500002F0FDBA3DAA0B00F8B5144F04461546F2
:105E60000E4602F0DBFA3946204602F0D7FA0A2243
:105E700029462046FFF7B4FF204602F0DCFA03F083
:105E80007BFA314602F0CAFA03F076FA394602F09C
:105E9000C5FA03F071FA294604460A22FFF7A0FF6B
:105EA0002046BDE8F84002F0C6BA00BF3DAA0B008C
:105EB00010B50C4602F0CBFA03F05EFA2146BDE8BD
:105EC000104002F0C4BA00002DE9F04F0E4691B028
:105ED0001F464FF0FF331360044600213046DDF8C3
:105EE0006890904602F0CFFCD6F838E00346C0B97F
:105EF000BEF1000F14BF72465022316892B22046A4
:105F000002F0C8FE051E18BF0125EDB903F034FAF2
:105F1000BE4902F09CFA204611B0BDE8F04F03F0F4
:105F20006FB8BB4B0A9306F1140CBCE80F000BAD25
:105F30000FC5DCF800302B701FFA8EF200230AA97F
:105F4000204602F087FFDDE70021304602F09BFC8F
:105F500000285DD103F010FAAE4902F05FFA03F0B9
:105F60000BFA316802F05AFA03F006FAAA4902F075
:105F700055FA03F001FA0A22B16B8246FFF730FFAF
:105F8000504602F058FA4946204602F047FAA34923
:105F9000204602F043FAB16A204602F03FFAA049D7
:105FA000204602F03BFA03F0E7F99E4902F04FFA6F
:105FB00003F0E2F9494602F031FA03F0DDF99749BE
:105FC00002F02CFA03F0D8F9B16A02F027FA03F0D4
:105FD000D3F9934902F022FA9349944A2046FFF7F5
:105FE00019FF0021304602F04EFC20B9326890497A
:105FF0002046FFF70FFF06F13C0A0021504602F051
:1060000042FC88B9726C8B492046FFF725FF12E0ED
:1060100003F0B2F9884902F001FA03F0ADF906F194
:10602000100102F002FA9FE78449484604F06CFA36
:1060300002460028E7D05FB1396849B17A68204646
:106040001AB1FFF7E7FE0837F6E7FFF731FFFAE787
:10605000204602F0F0F9204602F07CFD0021504677
:1060600002F011FC40B9F16B204602F0F0F903F0A8
:1060700083F9F16B02F0EBF903F07EF904F11C0AED
:106080006F4902F0E4F94FF480620021504604F0B9
:1060900005FA00F003FA009000F000FA00260190E3
:1060A000204602F053FF814678B103F065F9654957
:1060B00002F0B4F903F060F949460A22FFF790FEB6
:1060C00003F05AF9604902F0C2F94FF0000B204684
:1060D00002F03CFF20B3204602F022FDC7B203F0DD
:1060E0004BF9394602F09EF900F0D8F940F2FE3340
:1060F0009E42009003D80AF806700136E7E740F2A6
:10610000FF339E42F9D1002384F81B34204602F06D
:1061100077FF03F031F94D4902F099F9AB46ECE70E
:10612000A3191877B9F1000F04D003F025F94849F5
:1061300002F074F900F0B2F9009BA0EB0309BBF187
:10614000000F06D141F28833994502D8C82000F0EB
:10615000EDFC204602F01CFE41F2883300284CD0B2
:1061600099454CD8BBF1000F9AD003F005F9394995
:1061700002F054F903F000F9054600F08FF9019B95
:106180000A22C11A284602F06CF903F0F5F83249E8
:1061900002F05DF9204602F033FF514602A802F0FA
:1061A000A8FA0C23092202A906A802F091FB03F029
:1061B000E3F82A4902F032F903F0DEF8069902F01A
:1061C00046F927490AA802F094FA0AA902A802F09F
:1061D0007BFB04460AA802F041FA631C46D103F097
:1061E000CBF8204902F033F906A802F037FA02A8EA
:1061F00002F034FA11B0BDE8F08F9945B5D903F03B
:10620000BBF8194902F023F9AFE700BF5FAE0B00FE
:10621000E8B10B00E4AD0B00DCA70B003EAA0B00BD
:106220001FAE0B002BAE0B0054AE0B004EAE0B009E
:106230007EAE0B0083AE0B0000AE0B00BDA70B00C3
:1062400092AE0B00B3AE0B00DFAE0B00E7AE0B005F
:106250001CAF0B0077AF0B009CAF0B00A1AF0B0086
:10626000BBAF0B00C0AF0B0042AF0B0008F1040541
:106270000A49284602F06BFA221D02A90AA802F078
:1062800047FB0AA9284602F0B1FA0AA802F0E6F98B
:10629000069804F0A5F8C8F80000A5E78CAA0B0042
:1062A00038B50B4C0125C4F80855084603F03EFDEF
:1062B00005A3D3E9002303F0B3FD04F04BF82560F8
:1062C000C4F8040538BD00BFFCA9F1D24D624040BE
:1062D00000000140024B034AC3F80026704700BF8C
:1062E000000001403546526E08B5024B1B689B68A2
:1062F000019308BD7802030008B5024B1B68DB68F8
:10630000019308BD7802030008B5024B1B681B6DA2
:10631000019308BD7802030008B5024B1B689B6D12
:10632000019308BD7802030008B5024B1B681B6E81
:10633000019308BD7802030008B5034B1B68D3F82E
:106340009830019308BD00007802030008B5034BA4
:106350001B68D3F8A830019308BD00007802030041
:1063600008B5034B1B68D3F8B430019308BD000097
:106370007802030008B5034B1B68D3F8D8300193AB
:1063800008BD00007802030008B5034B1B68D3F872
:10639000DC30019308BD00007802030008B5034B10
:1063A0001B68D3F8EC30019308BD000078020300AD
:1063B00008B5034B1B68D3F8F030019308BD00000B
:1063C0007802030008B5034B1B68D3F80031019332
:1063D00008BD00007802030008B5034B1B68D3F822
:1063E0000431019308BD00007802030008B5024B98
:1063F0001B685B68019308BD4802030008B5024BA7
:106400001B68DB68019308BD4802030008B5024B16
:106410001B681B6B019308BD4802030008B5024BC3
:106420001B689B6B019308BD4802030008B5024B33
:106430001B681B6C019308BD4802030008B5024BA2
:106440001B685B6C019308BD4802030008B5024B52
:106450001B689B6C019308BD4802030008B5024B02
:106460001B68DB6C019308BD4802030008B5024BB2
:106470001B685B6D019308BD4802030008B5024B21
:106480001B685B68019308BD1802030008B5024B46
:106490001B68DB68019308BD1802030008B5024BB6
:1064A0001B685B69019308BD1802030008B5024B25
:1064B0001B689B6A019308BD1802030008B5024BD4
:1064C0001B685B6C019308BD1802030008B5024B02
:1064D0001B689B6C019308BD1802030008B5024BB2
:1064E0001B689B6D019308BD1802030008B5024BA1
:1064F0001B685B6E019308BD1802030008B5024BD0
:106500001B689B68019308BD2C02030008B5024B71
:106510001B68DB68019308BD2C02030008B5024B21
:106520001B681B69019308BD2C02030008B5024BD0
:106530001B685B69019308BD2C02030008B5024B80
:106540001B68DB68019308BD2802030008B5024BF5
:106550001B689B69019308BD2802030008B5024B24
:106560001B68DB69019308BD2802030008B5024BD4
:106570001B681B6A019308BD2802030008B5024B83
:106580001B685B6A019308BD2802030008B5024B33
:106590001B689B6A019308BD2802030008B5024BE3
:1065A0001B68DB6A019308BD2802030008B5024B93
:1065B0001B681B6B019308BD2802030008B5024B42
:1065C0001B685B6B019308BD2802030008B5024BF2
:1065D0001B681B6C019308BD2802030008B5024B21
:1065E0001B681B6D019308BD2802030008B5024B10
:1065F0001B685B69019308BD6C02030008B5024B80
:106600001B685B69019308BD6402030008B5024B77
:106610001B681B6A019308BD6402030008B5024BA6
:106620001B689B6A019308BD6402030008B5024B16
:106630001B689B68019308BD6802030008B5024B04
:106640001B68DB68019308BD6802030008B5024BB4
:106650001B689B69019308BD3802030008B5024B13
:106660001B68DB69019308BD3802030008B5024BC3
:106670001B681B6A019308BD3802030008B5024B72
:106680001B689B6A019308BD3802030008B5024BE2
:106690001B681B6B019308BD3802030008B5024B51
:1066A0001B689B6B019308BD3802030008B5024BC1
:1066B0001B681B68019308BD3002030008B5024B3C
:1066C0001B689B68019308BD3002030008B5024BAC
:1066D0001B68DB68019308BD3002030008B5024B5C
:1066E0001B681B69019308BD3002030008B5024B0B
:1066F0001B685B69019308BD3002030008B5024BBB
:106700001B68DB69019308BD3002030008B5024B2A
:106710001B681B6A019308BD3002030008B5024BD9
:106720001B685B6A019308BD3002030008B5024B89
:106730001B681B6C019308BD3002030008B5024BB7
:106740001B685B6C019308BD3002030008B5024B67
:106750001B681B68019308BD3C02030008B5024B8F
:106760001B68DB68019308BD3C02030008B5024BBF
:106770001B681B69019308BD3C02030008B5024B6E
:106780001B685B69019308BD3C02030008B5024B1E
:106790001B689B69019308BD3C02030008B5024BCE
:1067A0001B68DB69019308BD3C02030008B5024B7E
:1067B0001B681B6A019308BD3C02030008B5024B2D
:1067C0001B689B6A019308BD3C02030008B5024B9D
:1067D0001B681B68019308BD4C02030008B5024BFF
:1067E0001B685B68019308BD4C02030008B5024BAF
:1067F0001B681B69019308BD4C02030008B5024BDE
:106800001B685B69019308BD4C02030008B5024B8D
:106810001B689B69019308BD4C02030008B5024B3D
:106820001B68DB69019308BD4C02030008B5024BED
:106830001B681B6A019308BD4C02030008B5024B9C
:106840001B681B6E019308BD7402030008B5024B60
:106850001B685B6B019308BD6002030008B5024B27
:106860001B681B6D019308BD6002030008B5024B55
:106870001B681B68019308BD2002030008B5024B8A
:106880001B685B68019308BD2002030008B5024B3A
:106890001B685B69019308BD2002030008B5024B29
:1068A0001B68DB6A019308BD2002030008B5024B98
:1068B0001B685B6B019308BD2002030008B5024B07
:1068C0001B689B6B019308BD2002030008B5024BB7
:1068D0001B68DB6B019308BD2002030008B5024B67
:1068E0001B689B6D019308BD2002030008B5034B94
:1068F0001B68D3F88830019308BD00002002030014
:1069000008B5034B1B68D3F89430019308BD000011
:106910002002030008B5034B1B68D3F8A83001938D
:1069200008BD00002002030008B5034B1B68D3F824
:10693000AC30019308BD00002002030008B5024BF3
:106940001B689B68019308BD4402030008B5024B15
:106950001B68DB68019308BD4402030008B5024BC5
:106960001B685B69019308BD4402030008B5024B34
:106970001B68DB6A019308BD4402030008B5024BA3
:106980001B681B6B019308BD4402030008B5024B52
:106990001B68DB6B019308BD4402030008B5024B82
:1069A0001B685B68019308BD4002030008B5024BF9
:1069B0001B689B68019308BD4002030008B5024BA9
:1069C0001B68DB68019308BD4002030008B5024B59
:1069D0001B681B69019308BD4002030008B5024B08
:1069E0001B685B69019308BD4002030008B5024BB8
:1069F0001B689B69019308BD4002030008B5024B68
:106A00001B68DB69019308BD4002030008B5024B17
:106A10001B681B6A019308BD4002030008B5024BC6
:106A20001B685B6A019308BD4002030008B5024B76
:106A30001B689B6A019308BD4002030008B5024B26
:106A40001B68DB6A019308BD4002030008B5024BD6
:106A50001B681B6B019308BD4002030008B5024B85
:106A60001B685B6B019308BD4002030008B5024B35
:106A70001B681B6C019308BD4002030008B5024B64
:106A80001B685B6C019308BD4002030008B5024B14
:106A90001B681B68019308BD1C02030008B5024B6C
:106AA0001B685B68019308BD1C02030008B5024B1C
:106AB0001B689B68019308BD1C02030008B5024BCC
:106AC0001B681B69019308BD1C02030008B5024B3B
:106AD0001B685B6A019308BD1C02030008B5024BEA
:106AE0001B68DB6A019308BD1C02030008B5024B5A
:106AF0001B68DB6B019308BD1C02030008B5024B49
:106B00001B681B6C019308BD1C02030008B5024BF7
:106B10001B685B6C019308BD1C02030008B5024BA7
:106B20001B68DB6C019308BD1C0203000021FFF70A
:106B3000ADBE70477047704770470000064B9942E2
:106B400010B500F10C0405D0084602F09BFE0028A9
:106B500008BF0024204610BD3CB10B00064B9942F3
:106B600010B500F10C0405D0084602F08BFE002899
:106B700008BF0024204610BD3CB10B00064B9942D3
:106B800010B500F10C0405D0084602F07BFE002889
:106B900008BF0024204610BD3CB10B0010B5682191
:106BA000044602F066FE204610BD10B528210446BA
:106BB00002F05FFE204610BD10B53021044602F001
:106BC00058FE204610BD682102F053BE282102F075
:106BD00050BE302102F04DBE10B50446006808B129
:106BE000FFF734FC204610BDF0B50025EC1C8C42AC
:106BF0000DD86E1C445D875D974205D12644B14295
:106C000005D31D60601CF0BD01342544EEE7002073
:106C1000F9E72DE9F34704469DF828701E4689469A
:106C200001AB90460A46016AFFF7DEFF256AB31CF6
:106C30000FBB00B35F193F1A1F2F18D8DDF804905F
:106C400009F1020AA5EB090206EB0A03121A4844ED
:106C5000211892B2E01803F007FC731C04F8093005
:106C60003246414604EB0A0003F0F0FB2762206A3B
:106C700002B0BDE8F0872B441F2BF8D8731C635576
:106C8000A81C25442062324685F8019041462044E4
:106C900003F0DCFB236A33442362E8E7024A002165
:106CA0000A20FFF7D3BD00BF8D640B0003460846E2
:106CB0001B68D3E90021104730B40D4611461A462F
:106CC000036809682868D3E90043A44630BC6047DC
:106CD000012A38B5044602D10B68236003E0022A7A
:106CE00003D0032A0DD0002038BD08200D68FDF721
:106CF000D2F903460028F0D095E8030083E80300AA
:106D0000EBE700680028EED0082102F0B2FDEAE7C8
:106D1000012A38B5044602D10B68236003E0022A39
:106D200003D0032A0DD0002038BD08200D68FDF7E0
:106D3000B2F903460028F0D095E8030083E8030089
:106D4000EBE700680028EED0082102F092FDEAE7A8
:106D500010B58368044613B10322014698472046C4
:106D600010BD10B504465830FFF7F2FF04F148009B
:106D7000BDE8104001F072BC10B54368013B044609
:106D8000436063B903689B689847A368013BA360AD
:106D90002BB923682046DB68BDE81040184710BDBA
:106DA000A0F13003DAB2092A01D818467047A0F1E1
:106DB0006103052B01D857387047A0F14103052B1B
:106DC00094BF37384FF0FF307047000010B50023F4
:106DD0000370044B04461868FFF740FB012323703F
:106DE000204610BD38E6032010B5037804461BB1D9
:106DF000024B1868FFF73AFB204610BD38E6032027
:106E000082B00346086849686A4603C26A4603CAF4
:106E100018601846596002B0704708B582798B79BE
:106E20009A4206D1062203F001FBB0FA80F0400935
:106E300008BD0020FCE74FF0FF3303608380002093
:106E4000704708B50246002101604160FFF7F3FF7B
:106E50009171104608BD000010B501230361054B78
:106E6000024603F1100153F8044B42F8044B8B42E5
:106E7000F9D110BD4AB10B0010B50B69036101F1E6
:106E80001002034651F8044B43F8044B9142F9D1E8
:106E900010BD10B50B460446B1B1012A01F1100234
:106EA0000AD1014653F8040B41F8040B9342F9D17F
:106EB00001232361204610BD411E12F8010D01F887
:106EC000010F9A42F9D1F3E7102203F0E7FAF1E754
:106ED00038B5044615461A46FFF7DBFFA581204664
:106EE00038BD000008B5026922B98089003818BF92
:106EF000012008BD0249102203F098FAF6E700BF0E
:106F00006AB10B000069704738B50C4614220021A5
:106F1000054603F0C3FA23691BB9A3892B802846D1
:106F200038BD01232B7421462B4604F1100251F881
:106F3000040B43F8040B9142F9D1F0E780897047C4
:106F4000704708B502690B699A4206D1102203F016
:106F50006DFAB0FA80F0400908BD0020FCE700009F
:106F600001232DE9F3410361344B0C4606460246EA
:106F700003F1100153F8040B42F8040B8B42F9D1D2
:106F800044B32421204603F0ECFA04284FF0000516
:106F900023D1ADF8045001AFA51C063415F8020C3E
:106FA000FFF7FEFEB0F1000812DB15F8010CFFF749
:106FB000F7FE00280CDB023540EA0810A54207F86E
:106FC000010BEBD19DF8053033739DF804307373DA
:106FD0000023336102B0BDE8F0814FF01008242196
:106FE000204603F0BEFAA84207D8424600213046A8
:106FF00002B0BDE8F04103F051BAB8F1000FE9D09A
:10700000605DFFF7CDFE030615D4000108F1FF38DF
:10701000C7B206F808702421204603F0A2FA013511
:10702000A84208D9605DFFF7BBFE40B20028A4BFAC
:10703000384306F808000135D1E700BF4AB10B001C
:1070400013B504460191FFF707FF20460199FFF7AA
:1070500087FF204602B010BD30B49DF808501AB129
:10706000029530BCFFF7D5BD006A30BC70471FB534
:1070700004461F22002103F011FA0023236200932B
:10708000062201238DF80F2019460DF10F0220462C
:10709000FFF7E2FF204604B010BD73B50A460E4666
:1070A00001AB016A0446FFF79FFD054678B10198E0
:1070B000226A4119121A2144521B204403F0C6F9D6
:1070C000206A401B206231462046FFF7E6FF02B0EF
:1070D00070BD000038B54FF6FF73002504464380AD
:1070E0000E22294605700571063003F0D7F904F128
:1070F0001400FFF7B1FE04F12800FFF7ADFE0449CC
:1071000004F13C0001F0F5FA6565204638BD00BF8A
:107110008CAA0B0010B5D0E9063203EBC2029342F1
:10712000184606D0046824888C4203F10803F6D17F
:1071300010BD0020FCE70000F0B5064685B01F46F4
:107140000D46002950D0002A4ED004682378F42A36
:1071500028BFF42243B32379980709D5A089039265
:107160000023FFF7FDF80028039A03DA05B0F0BD0D
:107170006FF0770034682379D90609D5012F07D03D
:10718000A0890023294605B0BDE8F040FFF71AB9F1
:107190009B06EBD5022FE9D0A0890023294605B034
:1071A000BDE8F040FFF718B960884FF6FF718842DC
:1071B0001CD021794E0701D5012F04D10B0709D42A
:1071C0006FF07700D2E7A189009313462A46FFF7B4
:1071D000DBF8CBE7022FF3D00023A18900931346FD
:1071E0002A46FFF7C7F8C1E70248BFE76FF0D100B2
:1071F000BCE700BFF2FEFFFF13468A680968FFF78D
:107200009BBF37B50C460546F4212046019203F09A
:10721000A8F9019B02462146284603B0BDE830404C
:10722000FFF78ABF2DE9F0410026066007462820B7
:107230000C46FCF730FF051E05F10C080FD00123AA
:10724000C5E90133084B2B604046FFF705FE0FCC24
:107250002E6285F8246046460FC623683360C7E96E
:1072600000853846BDE8F0810CB10B0070B50025F3
:10727000056006463020FCF70EFF044688B1012366
:10728000C0E90133094B03604FF6FF7383810E3071
:10729000FFF7D7FDC4E90655C4E90855C4E90A5506
:1072A000A57574600C343460304670BD28B10B0095
:1072B00013B5044601A8FFF789FD23681C884FF623
:1072C000FF73E41A01A818BF0124FFF78DFD2046C3
:1072D00002B010BD37B50D46044601A8FFF776FD94
:1072E0002A68D2F802302360D2F80630636001A821
:1072F000FFF77AFD204603B030BD30B5054687B0B4
:107300000C4601A8FFF762FD2A68236812881B88D3
:107310009A420DD1294602A8FFF7DCFF214604A8B6
:10732000FFF7D8FF04A902A8FFF777FD044600B9CC
:10733000002401A8FFF758FD204607B030BD00002B
:1073400010B504465420FCF7A6FE014660B10023A8
:10735000C0E90033C0E90233C0E90433C0E90633B1
:107360000362C362C363C364216019B9094A0A2076
:10737000FFF76CFA0020FEF7B7FF20B1054A0021A5
:107380000A20FFF763FA216803480022FFF710F88C
:10739000204610BD8D640B00B5770B0010B50B4C6B
:1073A0002378BFF35B8FDB070ED42046FCF779FE12
:1073B00050B10748FFF7C4FF2046FCF777FE054AA7
:1073C0000549034802F050FA014810BD30E6032099
:1073D0003CE6032030DA0320D9750B0030B5036892
:1073E000093B012B8DB004460D4611D8FFF7D6FF9F
:1073F000A1880068FFF78EFE034658B92022CDE928
:1074000004200B4A00920B4904AA3220FFF726FA07
:107410000DB030BD6A6D002AFAD0D4E9032105F120
:107420004C00CDE90312AC6D04AA03A9A047EFE715
:1074300019B00B00F2AF0B0008B50020FEF754FFA7
:1074400000EAE07008BD084611B90A46FEF75CBFC5
:10745000096A0022FAE707B5084629B90A4603B0C7
:107460005DF804EBFEF758BF01210190FFF715FE10
:1074700001980022016AF2E738B504461546FFF785
:10748000E2FF00280ADB29462046FFF7E4FF002838
:1074900004DBBDE838400020FEF746BF38BD036876
:1074A000D8690028D4BF00200120704738B50023D8
:1074B0000446836008200D46FCF7EDFD18B12B68EB
:1074C00003606B684360034BE360034B2060A36081
:1074D000204638BDB96C0B00116D0B0038B5002388
:1074E0000446836008200D46FCF7D5FD18B12B68D3
:1074F00003606B684360034BE360034B2060A36051
:10750000204638BDAD6C0B00D16C0B000B680360DE
:1075100013B15A6801325A60704710B551F8043BF4
:10752000044640F8043BFFF7F1FF23680BB9FFF76F
:10753000B5FB204610BD10B551F8043B044640F899
:10754000043BFFF7E3FF204610BD10B551F8043BA4
:10755000044640F8043BFFF7D9FF204610BD10B5A4
:107560000446006808B1FFF707FC204610BD10B5BF
:1075700004460430FFF7F3FF204610BD70B5D0E994
:107580000053044605EBC306AE4204D0281DFFF7A6
:10759000E6FF0835F8E72068FFF780FA204670BD5F
:1075A00070B5D0E90053044605EBC306AE4204D0E3
:1075B000281DFFF7D4FF0835F8E72068FFF76EFABB
:1075C000204670BD10B504462430FFF7E9FF04F1F2
:1075D0001800FFF7D3FF10BDF8B50468064624B3C2
:1075E00004F14400FFF7B4FB04F13400FFF7B0FBF3
:1075F00004F12400FFF7ACFBD4E9065305EBC30705
:10760000AF4204D0281DFFF7AAFF0835F8E7A069AC
:10761000FFF744FA04F10C00FFF7C2FF2046FFF722
:10762000ADFF5421204602F024F93046F8BD13B5D1
:107630000023D1E90042C1E90033036800930460EC
:107640004368426001A80193FFF789FF02B010BDB3
:10765000826810B50AB902F012F9BDE81040C3689B
:10766000184770B5D0E90053044605EBC306AE4297
:1076700004D0281DFFF773FF0835F8E70023636087
:1076800070BD13B504460020FEF736FE00280ADB65
:1076900001A8FFF79BFB20681830FFF7E2FF01A865
:1076A000FFF7A2FB002002B010BD8842F8B50446E7
:1076B0000D46164614D9904213D2A2F10806751A47
:1076C000A1F108072C44B74218D01CB1314620461E
:1076D000FFF73BFF301DFFF742FF083E083CF2E793
:1076E0000CD0B5420AD01CB129462046FFF72DFF29
:1076F000281DFFF734FF08350834F2E7F8BDF7B569
:10770000044646686846FFF720FFD4E901739F42AC
:1077100012DB0137002F29DDF800FFF7B7F9054626
:10772000F0B1D4E9001201EBC202FFF7BEFF2068FE
:10773000FFF7B4F92560A7602368626803EBC6060B
:1077400003EBC202314606F10800FFF7AEFF1EB19F
:1077500069463046FFF7F9FE63680133636001252F
:1077600001A8FFF7FCFE284603B0F0BD0025DEE7C8
:10777000F8B5D0E9004305460F4604EBC306A64220
:1077800005D039462046FFF7B8FD08B114B9F8BD59
:107790000834F4E7201DFFF7E2FED5E9003204F1DA
:1077A000080103EBC2022046FFF77FFF6B68013B35
:1077B0006B60ECE72DE9F04105468EB003A80C465E
:1077C000FFF704FB2E68042E6DD007D8032E2AD0B5
:1077D00003A8FFF709FB0EB0BDE8F081A6F10C038A
:1077E000042BF5D8A9892046FFF794FC074600280A
:1077F000EED0E36C002BEBD01022002107A802F0A2
:107800004DFE0D2E06978DF81C6002D0102E40F014
:1078100092806B68099306230893236D06A904F1EF
:1078200044009847D4E704A8FFF720FD049BAA89E9
:107830001A806968049808310230FFF7E1FA04A958
:1078400006A8FFF782FE06A904F11800FFF757FF0C
:10785000054607A8FFF783FE202306938DB93E4B0C
:107860003E49009332202B4606AA0795FEF7F6FF05
:10787000049B29461888FEF75FFD05A8FFF76FFEF9
:10788000A6E7374A009200233449079306AA01204D
:10789000FEF7E4FFE36A002BEFD004A904F1240013
:1078A000FFF7D6FEE9E7A9892046FFF733FC064635
:1078B00000288DD00568D5E906324FF6FF71298082
:1078C00003EBC2029A4203D053F8080B4180F9E758
:1078D000D5E9037307EBC308B84504D0381DFFF79B
:1078E0003EFE0837F8E700232B61D5E9067307EB66
:1078F000C308B84504D0381DFFF731FE0837F8E754
:107900000023EB61AB72E36B23B1314604F1340029
:10791000FFF79EFE00232022CDE90623114A0092A4
:107920000E4906AA0120FEF799FF314604F118001E
:10793000FFF71EFF4CE70F2E7FF46FAF6B680993C4
:107940002B7A03F00102C3F340038DF829308DF840
:107950002820082360E700BF31B00B00F2AF0B0016
:1079600057B00B0074B00B0013B50446FFF7A0FC32
:10797000D0B1236800211888FEF7DEFC002811DB57
:1079800001A8FFF723FAFFF709FD00682146183028
:10799000FFF7EEFE23684FF6FF721A8001A8FFF78B
:1079A00023FA002002B010BD6FF0D100FAE700000A
:1079B0002DE9F341044601A8FFF708FA2368104EA9
:1079C000D3E906454FF0000804EBC5050127AC429A
:1079D0000ED03068FEF74AFD20468DF80480FFF790
:1079E000C3FF3068FEF73AFD08348DF80470EEE707
:1079F00001A8FFF7F9F9002002B0BDE8F08100BF4F
:107A000038E6032013B50B460246D0E900016C4668
:107A100084E8030093E8030082E8030094E803008D
:107A200083E8030002B010BD38B505460C46FFF7E9
:107A3000E9FFAB68A268AA60A360EB68E268EA604D
:107A4000E36038BD70B50E468CB0044601921D4609
:107A5000FFF740FB33780199237104F13C0000F0FB
:107A600076FE04F14C06CDB1109B029502A904A844
:107A70000393FFF71BFD002308A904A80A93FFF74F
:107A8000D3FF314608A8FFF7CFFF08A8FFF760F93A
:107A900004A8FFF75DF920460CB070BD0695EAE733
:107AA0002DE9F04F89B01D46DDE9124380468A4634
:107AB0009346149903930022682002910692FCF7E2
:107AC000EAFA061E06F10C091CD001223746C6E967
:107AD0000122174A47F8202B02999BF80020039BAC
:107AE0008DF814200091524605A94846FFF7AAFFD9
:107AF0000FCD0FC72B683B600FCC06F134050FC5C7
:107B000023682B6006A94046CDE90696FFF78FFD56
:107B100007A8FFF724FDD8F8001031B9054A0A205C
:107B200009B0BDE8F04FFEF791BE09B0BDE8F08F97
:107B3000F0B00B008D640B0038B505460C46FFF71E
:107B400061FFAB68A268AA60A360EB68E268EA60C4
:107B5000E36038BD10B504688AB03434B9B1CDE9FA
:107B6000001202A86946FFF7B9FC002306A902A883
:107B70000893FFF7E1FF214606A8FFF7DDFF06A8FF
:107B8000FFF7E6F802A8FFF7E3F80AB010BD04918A
:107B9000EBE710B504688AB02434B9B1CDE900121E
:107BA00002A86946FFF79AFC002306A902A80893D9
:107BB000FFF7C2FF214606A8FFF7BEFF06A8FFF7A2
:107BC000C7F802A8FFF7C4F80AB010BD0491EBE7AC
:107BD0008842F8B504460D46164614D9904213D291
:107BE000A2F10806751AA1F108072C44B74218D073
:107BF0001CB131462046FFF79EFC301DFFF7AFFC5D
:107C0000083E083CF2E70CD0B5420AD01CB1294628
:107C10002046FFF790FC281DFFF7A1FC083508342B
:107C2000F2E7F8BD70B50E1E054611DDF000FEF757
:107C30002DFF044658B1D5E9001201EBC202FFF74F
:107C4000C7FF2868FEF72AFF2C60AE60012070BDD8
:107C50000024F6E773B5044645686846FFF76BFCF9
:107C6000D4E90113994210DA2368626803EBC50571
:107C700003EBC202294605F10800FFF7A9FF8DB901
:107C8000636801336360012606E001312046FFF797
:107C9000C9FF06460028E7D101A8FFF760FC30467F
:107CA00002B070BD69462846FFF745FCE8E7884208
:107CB000F8B504460D46164614D9904213D2A2F1E7
:107CC0000806751AA1F108072C44B74218D01CB158
:107CD00031462046FFF721FC301DFFF740FC083EEF
:107CE000083CF2E70CD0B5420AD01CB12946204628
:107CF000FFF713FC281DFFF732FC08350834F2E7C4
:107D0000F8BD70B50E1E054611DDF000FEF7BEFE93
:107D1000044658B1D5E9001201EBC202FFF7C7FFD4
:107D20002868FEF7BBFE2C60AE60012070BD002409
:107D3000F6E773B5044645686846FFF7EEFBD4E9FD
:107D40000113994210DA2368626803EBC50503EB5F
:107D5000C202294605F10800FFF7A9FF8DB9636843
:107D600001336360012606E001312046FFF7C9FFB9
:107D700006460028E7D101A8FFF7F1FB304602B024
:107D800070BD69462846FFF7C8FBE8E72DE9F04FCC
:107D90001746A1B080460AA80E46FFF717F83C68C0
:107DA000237953B939464046FFF7B7FB0AA8FFF7D6
:107DB0001BF8404621B0BDE8F08F3368D3E9035388
:107DC00005EBC303039304F1280A04F1140B039B8E
:107DD0009D4221D0D5F80090584609F11401FFF7D3
:107DE000B0F8B8B109F128015046FFF7AAF888B1F8
:107DF0002368D9F80020534033F47F430AD120226E
:107E0000CDE915235E4A009215AA5E493220FEF79D
:107E100025FDC7E70835DAE75046FFF763F860B994
:107E20005949012215A815ADFFF733F80FCDD446F7
:107E3000ACE80F002B68CCF800303368D3E900536E
:107E400005EBC30B5D45A94651466ED055F8080BAE
:107E5000FFF777F80028F5D004F1140A5046FFF731
:107E600041F888B9494B48491A88013292B21A80C0
:107E700015A8012315ADFFF72BF80FCDD446ACE8BC
:107E80000F002B68CCF80030414B159328220021BD
:107E900016A802F003FB514604A8FFF735F804AB1F
:107EA00018AA0DF1200C18685968154603C5083347
:107EB00063452A46F7D11868286023798DF8583031
:107EC000D9F800309B8AADF87430E36B1793314BCF
:107ED0000022A11D15A8CDE91E34FEF75FFA002887
:107EE0007FF460AF01232370346839460C340DA849
:107EF000FFF713FB20460DA9FFF71BFF04460EA852
:107F0000FFF72DFB002C7FF44DAF2023CDE90D347E
:107F1000214B00930DAA234677E739464046FFF7E9
:107F2000FCFA0CA8FFF71BFB40E70BA8FFF77AF958
:107F3000514615A8FEF7E8FF0B9A0023143215A945
:107F40000120FEF703FA0028E7D135680BA90DA838
:107F5000FFF7F1FA28460DA9FFF77CFE05460EA8AB
:107F6000FFF7FDFA002DD8D032685368126803F18C
:107F70000053013B0CA802EBC309FFF7F0FA6BE7D3
:107F800093B00B00F2AF0B005AB10B0034E60320A4
:107F900003002C00DD730B00BEB00B0010B5064CC7
:107FA000002320462360FEF749FA2046034A04498D
:107FB000BDE8104001F058BC38E6032030DA032059
:107FC000D96B0B00002240681146FEF71FBD00224E
:107FD00040681146FEF742BD40680022FEF736BDFC
:107FE0004068002281F00101FEF708BD00234068CF
:107FF0001A461946FEF7FABC002340681A4619468D
:10800000FEF7ECBC002240681146FEF7DFBC002200
:1080100040681146FEF7CABC406800220221FEF704
:10802000CDBC002340681A46FEF7B8BC024B0322C1
:108030005A60024A1A60704740E6032084B10B0080
:108040007047F8B5064615460C468F18BC4206D058
:10805000336814F8011B9B6830469847F6E72846BA
:10806000F8BD007C0022FEF781BA007C0021FEF7FB
:1080700085BA007C0021FEF789BA007C0021FEF75A
:108080008DBA007C0021FEF791BA10B51421044688
:1080900001F0EFFB204610BD10B54FF47A73044693
:1080A00008460021C4E90113034B236020741146E4
:1080B000FEF78CFA204610BDC0B10B000023007CF7
:1080C0001A461946FEF73ABA7FB500221423CDE9C5
:1080D0000122ADF804300B788DF808304B6803931B
:1080E000CB680493007C0B7A059301A9FEF776FA1E
:1080F00007B05DF804FB1FB5003B8DF800104FF092
:108100006401039118BF0123694601928DF808307C
:10811000FFF7DAFF05B05DF804FB0123FFF7EBBFC3
:10812000007C0022FEF712BAC9B2FFF7F9BF007C4B
:108130000022FEF713BA0121FFF7F9BF704710B50F
:108140001821044601F095FB204610BDF0B5037DD3
:10815000062B8DB00E4600F104074FF0000412D03C
:1081600000F1080515F8011D0A22304600F079F9E2
:10817000AF42044419D0002CF4D02E21304600F038
:1081800051F90444EEE72F236A4639460A208DF858
:108190000040FEF733FA684602F0C8F93368024639
:1081A000DB68694630469847044620460DB0F0BD6E
:1081B00010B5054B0446112240F8043B002102F0A3
:1081C0006DF9204610BD00BFE8B10B000346074A19
:1081D00010B543F8042B01F1100251F8044B43F899
:1081E000044B9142F9D10A781A7010BDE8B10B0026
:1081F000037D042B04D14068003818BF012070476C
:10820000062B07D143683BB983682BB9C3681BB9F8
:108210000069F1E7002070470120704710B59DF814
:10822000084044EA032343EA024242EA016104238C
:108230004160037510BD000007B5064B0360CB78A5
:1082400000938B784A780978FFF7E8FF03B05DF870
:1082500004FB00BFE8B10B00014B024A1A607047F3
:1082600048E60320F4B10B00002340681A46FEF7ED
:1082700095BB406800220221FEF7A0BB00224068A7
:108280001146FEF793BB002240681146FEF79EBBE5
:10829000002340681A461946FEF7A0BB0023406839
:1082A0001A461946FEF7A2BB40680021FEF7DEBB66
:1082B00040680021FEF7E2BB4068002281F0010126
:1082C000FEF79CBB40680022FEF7C0BB002240685E
:1082D0001146FEF7C3BB002240681146FEF796BB6D
:1082E0002DE9F04395B014460D460746FFF760FFB1
:1082F00000211C220DA8009102F0D0F840230C931D
:1083000020466B460CAA0021FEF798F90446002887
:108310004BD1024601216868FEF758FB02218046D6
:1083200022466868FEF752FB009E81462146002ED9
:108330003BD0002939D17368022B03D00A2B11D00E
:10834000F669F4E7B8F1000FFAD0716906A80431B4
:1083500007ADFFF771FF0FCD3C1D0FC42B682370D5
:108360004146EDE7B9F1000FEAD07469102201A887
:1083700002F094F806238DF8143001AD04F10803DF
:108380001834186859682A4603C20833A3421546B0
:10839000F7D101A906A807ADFFF718FF0FCD3C1DC7
:1083A0000FC42B6823704946CAE70098FEF73EF9D0
:1083B000384615B0BDE8F083024B034A1A6000222C
:1083C0005A6070474CE6032000B20B00F8B5064631
:1083D0000D468F180024BD420CD0336815F8011BE0
:1083E0009B6830469847031E01DB1C44F3E7002CD2
:1083F00008BF1C462046F8BD13B50446084659B1CF
:10840000019102F093F823680199DB680246204647
:1084100002B0BDE81040184702B010BD08B5FFF724
:10842000EBFF08BD03689B6818470A680B46126893
:1084300001461846104738B50D210546FFF7F2FFF3
:108440000A2104462846FFF7EDFF204438BD38B521
:108450000546FFF7D1FF04462846FFF7ECFF20440E
:1084600038BD30B58BB00023012A8DF8243098BF79
:108470000A2209AC0D46B1FBF2F101FB125303F0E5
:10848000FF03092B94BF30333733DBB2AA4204F821
:10849000013DEFD92146FFF7AFFF0BB030BD2DE90D
:1084A000F04186B000AF05460E46381D1421144633
:1084B0003B60FEF70BFB13280ED8391D2846FFF74B
:1084C0009BFF04461EB12846FFF7B5FF0444204633
:1084D0001837BD46BDE8F08100F1080323F007031B
:1084E000E846ADEB030D2246411C3B686846FEF7AB
:1084F000EDFA69462846FFF77FFF0446C546E1E7E7
:1085000010B50446FEF724FC204610BD0348044A7B
:1085100004490023836001F0A7B900BF54E603209B
:1085200030DA032001850B000021FEF707B9002196
:10853000FEF7FCB810B5044608462170FEF7DEF8D9
:1085400000236360204610BD13B504460078FFF792
:10855000EEFF58B9207801904FF6FF71FEF7A6F8AC
:10856000019802B0BDE81040FFF7DEBF02B010BDB9
:1085700013B5044600780191FFF7D9FF019948B976
:1085800020780190FEF79AF8019802B0BDE81040FB
:10859000FFF7CABF02B010BD13B5044600780191C1
:1085A000FFF7C5FF019948B920780190FEF78EF8D2
:1085B000019802B0BDE81040FFF7B6BF02B010BD91
:1085C000400830B51860002418688842E5B206D922
:1085D0000134082C02D040081860F5E70725024B4B
:1085E0005B5D137030BD00BF34B20B002DE9F0416C
:1085F00088B000230446007802930E461746FFF722
:1086000096FF054600BB94F800800146142203A89B
:1086100001F044FF0B232A4603A94046ADF80C3075
:10862000FEF77CF804988DF8075002AB0DF10702B5
:1086300007FB06F1FFF7C4FF20789DF80710FEF74F
:108640004DF82078FFF770FF029808B0BDE8F08180
:1086500008B50078FEF74AF8C0B208BD10B5044668
:108660000068FEF71BFA204610BD10B504460068EE
:1086700008B1FEF713FA0023C4E90133236010BDEB
:1086800038B504460D4600680131FEF70FFA10B107
:10869000C4E90005012038BD10B50368044623B1C4
:1086A00043688B4201D3012010BD2046FFF7E8FF4D
:1086B0000028F9D0A368002BF5D122681370F2E7E7
:1086C00037B50D46114601920446FFF7E5FF019AC2
:1086D00028B92046FFF7C9FF204603B030BDA2608D
:1086E0002946206801F0B2FE2268A3680021D15417
:1086F000F2E7002313B5C0E9003304468360037337
:1087000041B10846019101F011FF0199024620464E
:10871000FFF7D6FF204602B010BD884210B50446D0
:1087200005D00B682BB18A681946FFF7C9FF2046B0
:1087300010BDFFF79AFFFAE710B500230446C0E921
:10874000003383600373FFF7E8FF204610BD13B5C5
:10875000044659B10846019101F0E8FE019902462C
:108760002046FFF7ADFF204602B010BDFFF77DFFAA
:10877000F9E710B504468AB00023C4E90033A360CA
:108780002373084601A900F0EDFE01A92046FFF77A
:10879000DEFF20460AB010BD10B504468AB00023A3
:1087A000C4E90033A3602373084601A900F071FEF9
:1087B00001A92046FFF7CBFF20460AB010BD70B5D7
:1087C00005460E4609B9002070BD6AB1846814449C
:1087D0002146FFF761FF0028F5D02868AB683146D5
:1087E000184401F09BFEAC600120EDE78A6809683F
:1087F000FFF7E5BF07B500238DF80410012201A99A
:108800008DF80530FFF7DBFF03B05DF804FB13B50F
:108810000A220446084601A900F0A4FE01A801F0BE
:1088200085FE01A902462046FFF7C9FF02B010BD30
:1088300010B58A6809680446FFF7C1FF10B92046E1
:10884000FFF713FF204610BD13B5044629B9204693
:10885000FFF70BFF204602B010BD0846019101F062
:1088600065FE019902462046FFF7A9FF0028EED0D9
:10887000F0E710B50446FFF7CAFF10B92046FFF72E
:10888000F4FE204610BD08B582683AB921B10878D7
:10889000B0FA80F0400900E0012008BD006809B985
:1088A0000078F5E701F030FEF2E710B583689342F7
:1088B00007D904680968A01801F05FFE08B1001B21
:1088C00010BD4FF0FF30FBE70022FFF7EEBF0000C6
:1088D000F8B59A420F461D460C4988BF1346144608
:1088E000064684BF2C461D46FFF703FFBB68A34224
:1088F0000AD33968AB4294BFC4EB0302C4EB050250
:1089000021443046FFF7DCFE3046F8BD8CAA0B0050
:1089100010B504468B68FFF7DBFF204610BD38B565
:1089200004460846A3688B4211D982B111448B4298
:1089300038BF1A1A2568991A1318A1600A1AE9187B
:10894000284401F091FD2268A3680021D1542046FB
:1089500038BD8268521AFFF7E2BF10B504460068BE
:1089600018B1FEF79BF80023236010BD38B50C4604
:108970000546FFF7F2FF54B12088FEF787F828601C
:1089800028B122882146BDE8384001F05FBD38BDDE
:1089900038B5B1F904308380D1F80630C0F806301C
:1089A0004B8943810C460546FFF7D7FF236813B177
:1089B0002B600023236038BD07B50B46002102461B
:1089C000009101208C21FDF7AFFF03B05DF804FB9F
:1089D00001460020FFF7F0BF0020FFF7F9BF0000BD
:1089E000F0B52B4D0B7D04468BB00846AF1D002B18
:1089F00036D00B681B79002B32D0264B0493002213
:108A000002A90430CDE90222FDF784FFDDF80E3023
:108A1000C5F8063000B2BDF81230ADF80C00A880E1
:108A20000299BB802846FFF7A1FF02A8FFF795FF38
:108A300000232360A380A37123814FF6FF7363811A
:108A4000B5F90430A380D5F80630C4F80630BB88E9
:108A5000296863812046FFF789FF20460BB0F0BDEF
:108A600000262023CDE902360B4B009302AA3346A1
:108A70000A493220FDF7F2FE064B054802964FF6F2
:108A8000F26202A9CDE90323FFF782FFCDE700BF21
:108A900064E603200000FFFF43B20B003CB20B0072
:108AA00010B5094B094C02221A600020084BA36044
:108AB000C4E90000FDF7E2FE2046064A0649BDE88B
:108AC000104000F0D1BE00BF70E6032064E6032032
:108AD0000000FFFF30DA0320DF400B0013B503680E
:108AE0008DF80710DC6B01224FF0FF330DF1070109
:108AF000A04702B010BD10B40368DC6B4FF0FF3329
:108B0000A4465DF8044B604713B5134602688DF820
:108B10000710D46B0DF107010122A04702B010BD70
:108B200010B54369B3F88620B3F884309A420446FE
:108B300008D06369B3F88420511CA3F8841013444F
:108B4000187910BD03681B6998470028F1D14FF0D0
:108B5000FF30F6E7704743691868C043C00F70479D
:108B600070470000064B994210B500F10C0405D087
:108B7000084600F087FE002808BF0024204610BDEC
:108B80003CB10B0010B5AC21044600F072FE20464B
:108B900010BDAC2100F06DBE2DE9F0414FF0000892
:108BA00086B01C46C0F8048005460E46174641466E
:108BB000102202A801F072FC631C09D04FF47A73F2
:108BC000B4FBF3F203FB1244CDE902285C430494A6
:108BD000686910230093006802AB41F2050240F679
:108BE000FF71FDF733FD002807DAFDF77FFF03680B
:108BF0006B60002006B0BDE8F08168690023006862
:108C00003A463146FDF742FD031EEEDB1846F1E71A
:108C100038B584690A4B036005467CB16368013B43
:108C200063605BB9236820469B689847A368013B53
:108C3000A3601BB923682046DB689847284638BDE7
:108C4000A0B20B0010B50446FFF7E2FF20461C213E
:108C500000F00FFE204610BD30B587B0044601ADD0
:108C60006846FFF7E9FA0FCD04340FC42B68237070
:108C700007B030BD70B54D69054B04468C3544F8DE
:108C8000043B06460FCD0FC42B682370304670BDE1
:108C9000E8B10B002DE9F0439846036893B00D4608
:108CA0000024DB6A06461746984728466B4622464C
:108CB00021460094FDF7C2FC0546002863D1009BC5
:108CC000002B4BD05B69002B48D006A8FFF770FA49
:108CD000009B5C696378022B04D1211D06A8FFF775
:108CE000BBFF26E00A2B24D11122294601A801F05E
:108CF000D5FBA368002B38D004F108030DF1040C58
:108D0000183418685968624603C20833A34294466F
:108D1000F7D1062301A90CA88DF81430FFF756FAF5
:108D20000DF1340CBCE80F0007AC0FC4DCF80030C8
:108D3000237006A8FFF75CFA80B1336807ADD3F85B
:108D40002090124B0C930FCD0DAC0FC42B682370E9
:108D50003A4643460CA93046C84705460098FDF7F9
:108D600065FC284613B0BDE8F083E368002BC3D14F
:108D70004FF6FF70D4F81090FDF748FC8145BBD149
:108D800004F11401AAE72546E8E700BFE8B10B00AB
:108D900038B543691A68002A054610DAB3F8862008
:108DA000B3F884309A420AD103681B699847044695
:108DB00028B92B682846DB6A9847204638BD012031
:108DC000FCE710B54369B3F88620B3F884309A42C3
:108DD000044605D06369B3F884201344187910BDA4
:108DE00003681B6998470028F4D14FF0FF30F6E77D
:108DF000F8B543691746B3F88620B3F884309A4231
:108E000005460E4616D06969B1F88430B1F886403F
:108E1000E41ABC4228BF3C4604332246194430467B
:108E200001F014FB6A69B2F884302344A2F884305C
:108E30002046F8BD03681B6998470028E3D14FF02E
:108E4000FF34F5E742690023A2F884304269A2F8B2
:108E5000863070472DE9F0411F4603680C46DB6AF7
:108E60008AB0054616469847237DD5F81480042B12
:108E70000CBF02200A2006220121FDF70FFCC8F8D2
:108E800000006B691B68002B08DA2B682846DB6A38
:108E90000024984720460AB0BDE8F0812846FFF735
:108EA000D1FFB7B1002303A9F8B20393ADF8103096
:108EB000FDF79CFB0028E8D1686906230093006851
:108EC00003AB41F20B0240F6FF71FDF7BFFB002838
:108ED000DBD11C22002103A801F0E0FA237D042B42
:108EE0001DD14FF407733046ADF80C30FDF796FBFB
:108EF000ADF80E006068FDF789FB04906B691C22D9
:108F0000186803A9FDF7B2FB0028BED104340FCCCA
:108F10006D698C350FC523682B700124BAE740F6C4
:108F20001C233046ADF80C30FDF778FB05AEADF8EC
:108F30000E00231D04F1140718685968324603C255
:108F40000833BB421646F7D1D8E7000030B5426976
:108F5000B2F886308BB004462BB1B2F884209A4226
:108F600001D1FFF76FFF61690868002818DBB1F8CD
:108F700086507F2D14D804310823C5F1800229447E
:108F8000FDF77CFB002813DD6369B3F886200AB97E
:108F9000A3F884206369B3F886201044A3F8860000
:108FA0006369B3F88600B3F88430C01A0BB030BDE3
:108FB000FDF79CFD03680B2BF2D0FDF797FD0368CE
:108FC0000B2BEDD020230025CDE90235FDF78EFDDA
:108FD00003680193084B0949009302AA2B463220EB
:108FE000FDF73CFC63691868FDF738FB63694FF0D7
:108FF000FF321A60D4E700BF6AB20B003CB20B002C
:1090000010B5436904461868002801DBFDF726FB0C
:1090100063694FF0FF321A606069112200218C30C1
:1090200001F03CFA2046BDE81040FFF70BBF10B539
:10903000002304460160C0F884308830FFF7B8F898
:10904000204610BD73B500234FF47A72C0E9013297
:109050000E4A0361026043610446AC200191FBF7B4
:109060001AF8051E05F10C0608D00123C5E90133E5
:10907000074B01992B603046FFF7D9FF2046C4E922
:109080000565FFF7DFFE02B070BD00BFA0B20B00A8
:1090900084B20B0010B54FF0FF310446FFF7D2FF4A
:1090A000204610BD10B504460068002801DBFDF71E
:1090B000D5FA204610BD0C30FFF7F4BF08B50020EC
:1090C000FDF75CFC28B1FDF749FC80F00100C0B25F
:1090D00008BD0120FCE7000030B593B0CDE90023C6
:1090E000194B0446D3E90010019B521843EB0003CF
:1090F0001648D0E90010521843EB0003CDE90023D5
:1091000024220DEB0200002101F0C8F9002509A975
:109110006846FDF703FD1622294603A8029501F0D3
:10912000BDF902A909A801F035F902A801F0FEF97C
:1091300012AB184402A900F8415C2046FFF7D9FAA7
:10914000204613B030BD00BF80E6032078E6032040
:1091500010B50020FDF7C2F90446A0B9FDF786FB63
:10916000012810D12046FDF7B9FB60B9FFF7A6FF33
:1091700010B9FDF7E3FBF9E7FFF7A0FFBDE81040EA
:109180000020FDF7ABB9204610BD1FB5FFF7E0FF8B
:1091900010220021684601F081F900216846FDF7A0
:1091A000A5F9009805B05DF804FB0000024B1A68B1
:1091B000024B1A60704700BFC4D9032074E6032035
:1091C00070474174704708B5007CFDF7F7FA20EA54
:1091D000E07008BD08B5007CFDF7C8FA20EAE07031
:1091E00008BD08B5007CFDF7D1FA40EAE07008BD83
:1091F00008B5007CFDF7C2FA40EAE07008BD007CCB
:10920000FDF7CCBA37B5457C04462DB1207C03B0C0
:10921000BDE83040FDF7A2BA007C0191FDF7CEFA1F
:1092200000280199F2DC284603B030BD10B51421A6
:10923000044600F01EFB204610BD000010B54FF0A4
:10924000000C0446084611464FF47A72C4E901C284
:10925000044A22600122207462741A46FDF776FAED
:10926000204610BD08B30B0013B50E4C2178BFF398
:109270005B8F11F0010112D120460191FAF711FF25
:10928000019960B1084A094B0948FFF7D7FF20460A
:10929000FAF70CFF074A0849054800F0E5FA0448C8
:1092A00002B010BD88E603208CE6032010E70320FF
:1092B00094E7032030DA0320C1910B00417470471A
:1092C000704708B50021007CFDF7A0FA40EAE07085
:1092D00008BD08B50121007CFDF798FA40EAE0706E
:1092E00008BD08B5007CFDF789FA20EAE07008BDEA
:1092F00008B5007CFDF77AFA20EAE07008BD13B5E6
:109300000446007C0191FDF779FA0028019901DCFF
:10931000607C20B1207CFDF781FA20EAE07002B089
:1093200010BD007CFDF782BA10B51421044600F090
:10933000A0FA204610BD000010B54FF47A73044621
:1093400008460021C4E90113044B23600123207463
:1093500063741146FDF73AFA204610BD38B30B008E
:10936000007C0022FDF73ABA10B514220446002111
:1093700001F094F8204610BD10B5104C88B003A839
:10938000FFF7F2FF2178BFF35B8F11F0010111D1DC
:1093900020460191FAF785FE019958B103AA0848C1
:1093A000FFF7CAFF2046FAF781FE064A064904483D
:1093B00000F05AFA024808B010BD00BFA8E7032029
:1093C000ACE7032030DA0320C1920B0030B5D1E9BD
:1093D0000132934210DA0D685A1C4A600446382262
:1093E00002FB03550FCC0FC50FCC0FC50FCC0FC51B
:1093F00094E8030085E8030030BD00224068114670
:10940000FDF704BB002240681146FDF727BB40680A
:109410000022FDF71BBB4068002281F00101FDF72F
:10942000EDBA002240681146FDF7C0BA406800223C
:109430000221FDF7C3BA00001FB5002301910648C1
:10944000029301A90392FDF7F9F9039B9842A8BF83
:10945000184605B05DF804FBCD930B00024B0422C7
:109460005A60024A1A607047C0E7032068B30B00D5
:1094700010B5044601F05AF80138231820468342FB
:1094800006D90278197800F8011B03F80129F6E7DC
:1094900010BD2DE9F041931E8CB0222B4FF000033C
:1094A0000D4614468DF82C3027D900282ADA2E468E
:1094B0002D2306F8013B40420A240DF12B074FF003
:1094C00001082246014601A800F09CFF029B01987A
:1094D000092BCCBF3722302252FA83F307F8013927
:1094E00008F101080028ECD14246791C304600F012
:1094F000ADFF28460CB0BDE8F0810A2AD5D018B1DE
:109500002E46DAE70A24FAE730238DF82B302E4670
:109510000DF12A074FF00208E6E770B50C46911EE0
:1095200022291DD8254630B9234430229D4210D22D
:1095300005F8012BFAE7B0FBF2F602FB1600C1B208
:10954000092894BF30315731C9B205F8011B3046A4
:10955000E9E7002320462B70FFF78AFF204670BD05
:109560000020FCE738B5031E0C4615460EDAB3F1B1
:10957000004F4FF02D0214BF5842184601230A70C5
:109580002A461944FFF7C9FF204638BD0123F9E7F1
:10959000014B1860704700BFC8D9032008B50B4BBA
:1095A00043B1FFF7E9FE03681B699847002801DD16
:1095B000AFF30080064B43B1FFF756FE03681B690B
:1095C0009847002801DDAFF3008008BD00000000CF
:1095D0000000000008B5FFF7E1FFFCF75FFF014B5B
:1095E000186008BDD0E703200548064A064908B5BB
:1095F000121A00F02BFF054B054A1A6008BD00BF88
:1096000000F4032004F4032080B60B0000F40320D0
:109610001E1C279A07B5002300931A466FF07701A6
:10962000FDF76EF903B05DF804FB000007B5438851
:109630000A2B08D0502B0BD1094B1B684BB103B040
:109640005DF804EB1847FFF7E5FF03B05DF804FB96
:10965000002300931A466FF07701FDF751F9F4E704
:10966000CCE7032010B512480021FDF74FFA114B4B
:109670001A68114B9A42114B0CBF012200221A703A
:1096800001D0FFF7B1FFFCF7F9FE044600F00EFF32
:109690000B4B13B12046AFF3008000210848FDF7C3
:1096A00075F9BDE8104007480021FDF71FB900BF5C
:1096B00091950B0000F403201E1C279AC8E7032095
:1096C000000000002D960B00232813B502D90020BE
:1096D00002B010BDA0F10B03022B1AD8174C217851
:1096E000BFF35B8F11F001010BD120460191FAF716
:1096F000D8FC019928B11248FEF71CFF2046FAF762
:10970000D5FC0F4B1878FDF701F80028DFD10120B8
:10971000DEE7012809D800F07FF80021007CFCF783
:109720004DFF80F00100C0B2D2E709380128EED821
:10973000FFF79AFD007CFDF739F8F2E724E60320F5
:1097400028E60320232838B504460D460AD8FF2909
:1097500008D0FFF7B9FF28B129462046BDE83840B8
:10976000FCF7CCBE38BD38B504460D46FCF7CEFE3E
:10977000FF2810D0062804D84D2323FA00F0C30791
:1097800009D42046FFF7A0FF28B129462046BDE8AE
:109790003840FCF7C3BE38BD10B50446FCF7B6FE32
:1097A000031FDBB2012B08D92046FFF78DFF20B144
:1097B0002046BDE81040FCF7B9BE002010BD0000F7
:1097C00010B5084C2378BFF35B8FDB0708D4204625
:1097D000FAF767FC20B1FCF769FE2046FAF766FC51
:1097E000014810BDD4E70320D8E7032038B5202571
:1097F000142304460360856005610649284600F08D
:109800003CF804496060284600F037F8E0602046E4
:1098100038BD00BF9CB30B0030B50F4D2978BFF3A6
:109820005B8F11F0010487B013D12846FAF739FC99
:1098300078B101A8FFF7DAFF01AA21460748FEF731
:109840002BFC2846FAF732FC054A0649034800F08B
:109850000BF8024807B030BDDCE70320E0E7032047
:1098600030DA032041800B000B460146184600F019
:10987000BBBDFAF714BCFAF70EBCFAF70EBC08B57C
:10988000FDF72CF9014900F0F9B800BFB8B30B009F
:109890007FB500241023CDE90234036815469E6984
:1098A00012686B46CDE90044B0479DF8043003F0E0
:1098B0000603062B03BF009B2B600120204604B04B
:1098C00070BD0098904214BF012006207047000030
:1098D00010B5034B0360044600F0CDF8204610BDE0
:1098E000F8B30B0010B50446FFF7F2FF204608213D
:1098F000FFF7BFFF204610BD2DE9F0411F46DDE90F
:109900000834DDF8188098450646154607D10799B2
:1099100000F0B4F818B165710020BDE8F081394657
:10992000304600F0ABF80028F6D00123C4F80080E0
:109930002571A371F0E738B515461C4600F09EF876
:1099400020B10823E36006232560237138BD73B579
:1099500005460C4601921E4600F090F850B9032EC1
:1099600008D82368019A5B692946204602B0BDE801
:109970007040184702B070BD10B5034B0360044639
:10998000FFF7A6FF204610BD58B40B0010B50446E3
:10999000FFF7F2FF20460C21FFF76BFF204610BDBA
:1099A000F7B5089F974205460E4614460AD0A868A8
:1099B00002680897156A31462246AC4603B0BDE8F6
:1099C000F04060471946019300F058F8019B0028C9
:1099D000EDD0062003B0F0BD2DE9F14F0D4619463C
:1099E000DDE90A4BDDE90CA681461746984600F0F2
:1099F00045F890B1002D3460377109DB61198A4553
:109A00000CBF06210121B171002001B0BDE8F08F2B
:109A10000235F9D10123B371F6E7544506D1594611
:109A2000484600F02BF808B17771EDE7D9F8080047
:109A30000368CDE90CA6CDE90A4BDC693A464346FA
:109A40002946A44601B0BDE8F04F60472DE9F0413A
:109A500007460C4615461E46FFF76DFF48B9B86825
:109A600003689F692A4633462146BC46BDE8F0415B
:109A70006047BDE8F081704700207047814208B51B
:109A80000ED0406803782A2B0CD049680B782A2B1B
:109A900008BF013100F038FDB0FA80F0400908BD80
:109AA0000120FCE70020FAE781F0004102E000BF5E
:109AB00083F0004330B54FEA41044FEA430594EA8E
:109AC000050F08BF90EA020F1FBF54EA000C55EAC9
:109AD000020C7FEA645C7FEA655C00F0E2804FEA9A
