:02000002B0004C
:1040000000400B0010AA0B00000006000C00050287
:0840100004011F0C0000000078
:04401800649B0B009A
:1040200009480A49884208B505D0094A824202D0A7
:10403000121A05F05DFC0748074A0021121A05F024
:104040007FFC014808BD00BFD8D9032064A90B003C
:104050005CDA032060DA0320F4E7032070B5074E32
:10406000074C04F085FFA41BA4080025A54200D13D
:1040700070BD56F8043B98470135F7E734A90B00AB
:1040800058A90B0000F0C2BA08B500F021FBBDE84A
:10409000084004F025BF02F00BBA02F009BA02F0A2
:1040A0000FBA0078B0FA80F040097047012303701E
:1040B0007047704710B50446043003F0E1FF204616
:1040C00010BD10B504463C3003F0DAFF04F12800BF
:1040D00003F0D6FF204603F0D3FF204610BD10B5F5
:1040E0000446006808B102F0EBF9204610BD10B597
:1040F00004463AB903689B6898472046BDE81040DB
:1041000003F0ABBED2B203F0BEFEF6E708B5002165
:10411000022002F0EFF8BDE8084001F0BBBE00004D
:1041200038B584690A4B036005467CB16368013B7E
:1041300063605BB9236820469B689847A368013B8E
:10414000A3601BB923682046DB689847284638BD22
:1041500078A50B000EB403B503AB012153F8042B73
:10416000019303F0AEFE02B05DF804EB03B07047BC
:10417000002340681A46194602F04AB900234068F5
:104180001A46194602F04CB9002340681A4602F05C
:104190001FB900224068114602F032B910B5074C31
:1041A0000749204603F0E5FF5023A36304F12800EC
:1041B0000449BDE8104003F0DCBF00BF7CE00320F1
:1041C000789B0B00849B0B0038B5204D204C04F0ED
:1041D0007DFF04222946642001F08CFE04F076FF66
:1041E0001C490422002001F085FE04F06FFF2146E7
:1041F0000422C82001F07EFE23684FF47A7293FBFC
:10420000F2F3236004F03EFD2A681349FFF7A2FF92
:1042100004F038FD22681149FFF79CFF2B68013339
:1042200004BF4FF4FA732B602368013304BF0F23DC
:104230002360084B1B68013306D104F023FDBDE861
:104240003840074903F015BE38BD00BF70E00320B9
:1042500074E00320C4DA0320869B0B009C9B0B00B8
:10426000B29B0B0010B500210446022002F042F878
:1042700001F018FE204610BD30B5044689B0424812
:10428000414DFFF775FF40480021FFF77DFF2846AD
:10429000FFF77FFF18B9642002F05AF9F7E73A48B0
:1042A000FFF777FF88B904F0EDFC0490FFF72EFFCD
:1042B00004F0E8FC354903F0DCFD04A8FFF7D2FF69
:1042C0003148FFF75BFF09B030BD04F0DBFC049020
:1042D000FFF71CFF04F0D6FC2D492E4D03F0C9FD5D
:1042E00004A8FFF7BFFFA1682046013904F043F896
:1042F000294904A803F00FFF214604A803F0AAFFF0
:10430000264903F0B3FF0146254803F018FF04A82F
:1043100003F0B6FE234B2449244800932A46244B3D
:1043200001F012FB04F0AEFC0390FFF7EFFE04F087
:10433000A9FC2B681F49194403F09BFD04F0A2FC63
:104340001D49044604A803F0E6FE291D04A803F055
:1043500081FF0168204603F08CFD04A803F090FE65
:1043600004F090FC1549044604A803F0D4FE0C495F
:1043700004A803F06FFF0168204603F07AFD04A84B
:1043800003F07EFE03A899E7C0E70320E19B0B0042
:104390000B9C0B00C8E003202A9C0B00349C0B00F4
:1043A000B8E00320379C0B007CE00320CCDA03202C
:1043B000DCD903203C9C0B00489C0B00459C0B0067
:1043C0002DE9F04FDFF80081364E8DB0D8F800307F
:1043D0004FF47A725343344A126893FBF2F3326813
:1043E00093425CDC3148DFF8E490314FDFF8E0B015
:1043F000DFF8E0A001F02EFD2E4B00243268A2422F
:1044000035DD194604A803F086FE0A22DBF8001009
:10441000684603F0C0FE694604A803F01BFF51463E
:1044200003F024FF19F8011B03F035FF224903F0C4
:104430001DFF0A2257F8041B054608A803F0BEFE1C
:1044400008A9284603F006FF1C4903F00FFF0146A8
:104450001B4803F0DDFE08A803F012FE684603F0D7
:104460000FFE04A803F00CFE0134124BC6E71449FA
:1044700004A803F073FE1349114803F07AFE0B48B9
:1044800001F0F0FC04A908A803F068FE08A8FFF7F3
:10449000F3FE08A803F0F4FD04A803F0F1FD01F019
:1044A000C9FC93E7F4E5032070E0032060E00320FB
:1044B000F4E003204F9C0B00639C0B00729C0B00EC
:1044C00050E003206D9E0B0074E00320F4E4032011
:1044D000C4DA0320589C0B0007B5002201210320F9
:1044E00001F010FF0121072004F0B2FD0021072098
:1044F00004F0BFFD0C48182101F061F980B94FF4B8
:104500007A7002F025F804F0BDFB0190FFF7FEFD84
:1045100004F0B8FB054903F0ACFC01A8FFF7A2FECC
:1045200003B05DF804FB00BFE8DE0320759C0B00C0
:1045300010B5314886B0FFF71BFE2F480021FFF76A
:1045400023FE2D48FFF725FE2B48FFF722FE00280B
:1045500045D004F097FB0290FFF7D8FD04F092FBE2
:10456000264903F086FC02A8FFF77CFE01F008FF55
:1045700001F00EFF0028FBD001F00AFF10B100206F
:1045800001F00EFF1E4C01F003FF48B1002001F0C6
:104590000FFF28B101F09EFC206001F0E9FEF2E778
:1045A00004F070FB0190FFF7B1FD04F06BFB0446D3
:1045B00004F06DFAC317024602A804F00FFA029A3B
:1045C00010492046FFF7C6FD02A803F059FD01A8D7
:1045D000FFF748FE0848FFF7D1FD06B010BD04F014
:1045E00051FB0290FFF792FD04F04CFB064903F0EB
:1045F00040FC02A8ECE700BFC0E70320919C0B0041
:10460000D0E70320AE9C0B00C29C0B0007B504F062
:1046100039FB4FF4165104F025FB04F033FB04F092
:1046200025FB0028F9D0FFF757FFFFF7B7FDFFF78D
:10463000CBFDFFF77DFF084801F004FC00234FF499
:104640008062CDE900320549054B0648022201F09F
:10465000E9FB03B05DF804FB60E00320F89C0B006D
:10466000C1430B0078E0032007B50B4B00221A6012
:1046700004F008FB0190FFF749FD04F003FB074934
:1046800003F0F7FB01A8FFF7EDFD0121072003B0C0
:104690005DF804EB04F0EDBCBCDA03201E9D0B00BA
:1046A00007B504F0EFFA0190FFF730FD04F0EAFAE5
:1046B000064903F0DEFB01A8FFF7D4FD0021072027
:1046C00003B05DF804EB04F0D4BC00BF059D0B0003
:1046D0002DE9F04F2DED028BAF4E357897B03DB1FF
:1046E000012D00F0CB8017B0BDEC028BBDE8F08F40
:1046F00004F0C8FA0D90FFF709FD04F0C3FAA749CA
:1047000003F0B7FB0DA8FFF7ADFD02F059FB02F077
:10471000A5FB02F055FBA24A01460DA803F048F89C
:104720000DA802F036FC02F04BFB9E4A01460DA894
:1047300003F03EF80DA802F02CFC0DA802F0A9F938
:10474000994903A802F0AAF803A908A802F0A6F85C
:1047500008A802F0E9F8044608A8002C3AD102F0B3
:10476000FFF80094ADF80A0002230DF10A020321BC
:104770000DA802F083F902F023FB00220DA902F03C
:104780008DFB02F01DFB8949002202F014FF02F0AC
:1047900017FB8749002202F0EFFE41F2883402F055
:1047A0000FFB02F08EFB00B9DCB902F009FB02F04E
:1047B00088FB804CA0BB207004F064FA0890FFF7DF
:1047C000A5FC04F05FFA7C4903F053FB08A8FFF74F
:1047D00049FD34E002F0C6F8009502461023072197
:1047E000C6E704F04FFA0890FFF790FC04F04AFA8D
:1047F0000A3C002C054611DA2D2103F025FB61420D
:104800000A22284603F03FFB284603F026FB08A8AF
:10481000FFF728FD0A2001F09BFEC0E72146EFE7E5
:1048200004F030FA0890FFF771FC04F02BFA6349AA
:1048300003F01FFB08A8FFF715FD01232370604D4F
:10484000237883B104F01EFA0890FFF75FFC04F0B0
:1048500019FA294603F00DFB08A8FFF703FD6420B1
:1048600001F076FEECE702F0ABFA02F0B3FD02F0E5
:10487000A7FA02F018FC0123337034E704F002FABF
:10488000504C0D90FFF742FC04F0FCF94E49DFF864
:104890005CB1DFF85C914D4FDFF858A1DFF858812B
:1048A0004B4E03F0E6FA0DA8FFF7DCFC204600F0C3
:1048B000A5FE484BD4ED037AD4ED048A94ED058A25
:1048C0001A78CBED007AC9ED008A87ED008A002ABC
:1048D00059D19AED007A404C77EEC77A2568F0EE10
:1048E000E77A17EE900A04F0C7FE29A3D3E9002364
:1048F00004F098FF002842D1D8ED007A78EEE78ADC
:10490000F0EEE87A17EE900A04F0B6FE20A3D3E9A1
:10491000002304F087FF90BBD6ED007A38EE678A5B
:10492000F0EEC87A17EE900A04F0A6FE18A3D3E9B9
:10493000002304F077FF10BB284B585504F0A7F86C
:10494000274B43F82500236826480133236001F0F4
:1049500081FA244801F086FADBF80030CAF800300A
:10496000D9F80030C8F800303B6833601E4B186837
:1049700017B0BDEC028BBDE8F04F01F0E9BD174A5E
:1049800001235355DAE700221A70E5E7AFF3008000
:104990009A9999999999A93FC8DA0320129D0B0019
:1049A000F8E50320DCE0032070DA032069460B0001
:1049B000A1460B00C0DA0320289D0B001A9D0B00B6
:1049C0005C9D0B00E8DE03206D9D0B001CE60320C0
:1049D0006CE00320D8D90320F4E50320F4E403209D
:1049E000F4E0032060E0032070E0032014E60320DD
:1049F00018E6032064E0032068E003202DE9F04F6F
:104A0000AF4D95B007460C46AE48AF4903F0B1FB39
:104A10002B68072B00F20E81DFE813F07D01C80040
:104A2000A7008C006A004800230008003C447E1E5A
:104A3000A44F023CA64200F00B8304F023F901903E
:104A4000FFF764FB04F01EF916F8011F0A22FFF7B6
:104A50004EFB01A8FFF706FC3178384603F0DCFB7B
:104A6000E8E73C447E1EDFF85C82984F023CA64299
:104A700000F07D8204F006F90190FFF747FB04F097
:104A800001F90A2216F8011FFFF731FB01A8FFF711
:104A9000E9FB31788B4803F0BFFBD8F8000004F045
:104AA000F1FE4FF47A7358433860E0E73C447E1ED1
:104AB000DFF81082864F023CA64200F01B8204F011
:104AC000E1F80190FFF722FB04F0DCF80A2216F867
:104AD000011FFFF70CFB01A8FFF7C4FB31787948F1
:104AE00003F09AFBD8F8000004F0CCFE3860E3E74E
:104AF0003C447E1EDFF8CC81764F023CB44200F08D
:104B0000B28104F0BFF80190FFF700FB04F0BAF89F
:104B10000A2216F8011FFFF7EAFA01A8FFF7A2FB25
:104B20003178684803F078FBD8F8000004F0AAFE5A
:104B30003860E3E73C447E1E624F023CA64200F030
:104B4000A08004F09FF80190FFF7E0FA04F09AF8D3
:104B500016F8011F0A22FFF7CAFA01A8FFF782FB25
:104B60003178384603F058FBE8E73C447E1EDFF816
:104B70008481544F023CA64200F00D8104F082F87B
:104B80000190FFF7C3FA04F07DF816F8011F0A221E
:104B9000FFF7ADFA01A8FFF765FB3178384603F05F
:104BA0003BFB3946404603F0CAFAE4E73C447E1E2C
:104BB000DFF83481434F023CB44241D016F8011F64
:104BC000384603F029FB3946404603F0B8FA04F0B2
:104BD00059F80190FFF79AFA04F054F831780A2254
:104BE000FFF785FA01A8FFF73DFBE5E73A4B3B48A5
:104BF000382202FB0131043103F0BBFA04F042F821
:104C00000190FFF783FA04F03DF8A1680A220646F6
:104C100003F039F9304603F020F901A8FFF722FB31
:104C20002E492F48002201F0F9FF2E4900222C487E
:104C300001F0F9FF2B6801332B6015B0BDE8F08F50
:104C400004F020F8284E0190FFF760FA04F01AF8FB
:104C5000316803F00EF904F015F8B1680A22044631
:104C600003F011F9204603F0F8F801A8FFF7FAFA6B
:104C70001549304603F019FB044600283CD00323B5
:104C80002B60144C04F022FA21460422002001F08B
:104C900031F916491248002201F0C5FF21684C1C69
:104CA0000BD00A2201A803F076FA0D48002201A9D0
:104CB00001F0B4FF01A803F0E3F90D490022B6E7C3
:104CC000BCDA0320ACDA03206D9E0B0074E00320F5
:104CD00070E00320C4DA032028DF032014DF032060
:104CE000F8E50320A39D0B00E4E00320E89D0B0002
:104CF000FB9D0B0040E00320B949304603F0D5FA94
:104D00000246002845D0B74823464068224621463F
:104D100001F0A6FB2C60B449B448DFF82CA3B44ED4
:104D2000B44CDFF8C882DFF82493002201F07BFF47
:104D3000B149AC48052204F005F80027CAF8000084
:104D4000DAF800100139B9427FF750AF31462046FA
:104D500003F00FFA03F096FF0190FFF7D7F903F085
:104D600091FFA1680A22834603F08DF8584603F0AC
:104D700074F801A8FFF776FA00222146404601F0B8
:104D80004DFF00224946404601F04DFF01373836BD
:104D9000D6E79A494BE703F075FF994C0190FFF76E
:104DA000B5F903F06FFF216803F063F803F06AFFC1
:104DB000A16806460A2203F066F8304603F04DF873
:104DC00001A8FFF74FFA8F4B2668D3F80080B8F19F
:104DD000000F44D0404604F0FBFD0746002E40D0B3
:104DE000304604F0F5FD04463822002106A804F000
:104DF000A7FD4C23CDE901387A48059403238DF8AB
:104E00001830002301AA19464068CDE9037601F065
:104E10001FFB03F037FF0090FFF778F903F032FF34
:104E20007949044601A803F076F9764901A803F010
:104E300011FA764903F01AFA714903F00BFA744932
:104E400003F014FA0168204603F013F801A803F0F8
:104E500017F96846FFF706FA6E490022E7E647466B
:104E6000BCE73446C0E76C496C4803F01EFA0446C0
:104E700098B904F02BF96A490422204601F042F85F
:104E800003F000FF0190FFF741F903F0FBFE6549D5
:104E900002F0EFFF01A8FFF7E5F904F017F904228B
:104EA0005F49614C002001F025F803F0EBFE3B6800
:104EB0005E49194402F0DDFF04F008F9042221469E
:104EC000642001F017F85A494848002201F0ABFE6F
:104ED0002168481C0BD00A2201A803F05CF9434862
:104EE000002201A901F09AFE01A803F0C9F8514976
:104EF00000229CE64849494803F0D7F930B104F054
:104F0000E5F849490422642000F0F4FF04F0DEF8DB
:104F1000494C45490422642000F0F4FF04F0D6F81F
:104F200041490422642000F0E5FF04F0CFF8042298
:104F30002146C82000F0DEFF002240492B4801F046
:104F400072FE23685A1C0FD00A224FF47A7101A80E
:104F500093FBF1F103F01FF92448002201A901F0AD
:104F60005DFE01A803F08CF8354900225FE62A496E
:104F70002A4803F09AF930B104F0A8F82E49042227
:104F8000C82000F0B7FF04F0A1F82B490422C82084
:104F900000F0B8FF04F09AF827490422C82000F076
:104FA000A9FF03F06FFE0190FFF7B0F803F06AFE6F
:104FB0003C68002C064610DA2D2102F045FF6142C4
:104FC0000A22304602F05FFF304602F046FF01A899
:104FD000FFF748F91B49002229E62146F0E700BF08
:104FE000219E0B00C0E70320779D0B00F8E503200E
:104FF0002CDF032014DF032028DF0320279E0B0073
:1050000040E00320E4E00320419E0B005F9E0B0084
:105010006B9E0B006E9E0B006D9E0B00ACDA0320A6
:10502000C4DA0320A29E0B0070E00320AF9E0B00A9
:10503000B69E0B00E79E0B0074E003203C9F0B0024
:105040006D9F0B00BE9F0B0024DF0320A09D0B0073
:1050500030493148314C03F028F900B3002201A94E
:1050600001208DF8042001F055F90123237000245C
:10507000224601A901208DF8044001F04BF928488F
:10508000FFF776F821462648254CFFF77DF82046A5
:10509000FFF77FF848B9642001F05AFAF7E7237860
:1050A000002BE4D103F07BF9C4E51D48FFF771F84C
:1050B00068B903F0E7FD0190FFF728F803F0E2FD7F
:1050C000184902F0D6FE01A8FFF7CCF8EAE703F092
:1050D000D9FD0190FFF71AF803F0D4FD124902F050
:1050E000C8FE01A8FFF7BEF810491148002201F0E0
:1050F0009AFD01F045F901F04BF930B10D4C00F08B
:10510000E9FE206001F034F9F9E7642001F020FAAB
:10511000F1E700BFF49F0B00ACDA032010E6032098
:10512000C0E70320C29C0B00F89F0B0018A00B00E7
:10513000F8E50320D0E70320F0B5164691B0002231
:10514000C0E9002204460D460BAF194606A801F03F
:10515000A5FB1699384601F0A1FB33788DF8143081
:10516000189B0293179B2046CDE9007305AA06AB56
:10517000294602F0A7F9204611B0F0BD10B52C2148
:10518000044603F0FCFF204610BD000070B5634CE0
:10519000634BA360002590B0C4E90055032001F0E3
:1051A00091F8604A6049204603F0E4FF2946012057
:1051B00001F098F85D485E4D00F065FB594A5D4985
:1051C0005A4803F0D7FF5C495C4802F0A4FF5C48F2
:1051D00002F000FD58495B4802F09DFF56495A48CD
:1051E00002F099FF4F4A5949544803F0C3FF52490E
:1051F000574802F090FF4B4A5649574803F0BAFF10
:1052000005243826281D3422002104F099FB013C96
:1052100045F8386BF6D14849504802F07CFF414AC6
:105220004F494E4803F0A6FF43494E4802F073FF32
:105230003C4A4B494B4803F09DFF3F494A4802F026
:105240006AFF384A4649484803F094FF3A494748BC
:1052500002F061FF334A4249444803F08BFF36496C
:10526000434802F058FF2F4A3D49414803F082FF6E
:105270003149404802F04FFF2A4A39493D4803F07E
:1052800079FF3D4800F0ACF8264A3C493A4803F023
:1052900071FF3B493B4801F0E5FB3B493B4801F0CE
:1052A000E1FB3B493B4801F0DDFB102339498DF818
:1052B000143006A801F0F2FA32490BA801F0EEFA18
:1052C0000BAB009305AA06ABCDE901443249334844
:1052D000FFF732FF134A3249304803F04BFF0423F3
:1052E0002A498DF8143006A801F0D8FA25490BA8F0
:1052F00001F0D4FA2B4B01930BAB009305AA2A497A
:10530000029406AB2948FFF717FF064A24492748AD
:1053100010B0BDE8704003F02DBF00BF64DA032079
:105320000000FFFF60DA0320DF400B00CCDA03202F
:1053300028DF032021410B006D9E0B007CE0032041
:105340008CE00320A4E00320B8E00320C3400B005E
:10535000CCE00320B5400B00C8E0032014DF03209D
:1053600081800B0050E0032000E60320E4E00320EE
:1053700040E00320ACDA0320E8DE0320B3400B005A
:105380002DA00B0070DA032052A00B0084DA03205A
:1053900077A00B0098DA03209CA00B00F8E503200F
:1053A000936F0B00FD490B009FA00B00DCE0032076
:1053B0007047000038B50C4605462022002104F154
:1053C000080004F0BDFA0B220449204604F008FB53
:1053D0000123E360AA69C4E9042338BD8A9C0B0059
:1053E000064A02604FF0FF3282614277C283FF2299
:1053F00080F8202008224262704700BFD0A00B0036
:1054000013B50B4C2178BFF35B8F11F001010BD169
:1054100020460191FEF745FE019928B1054802F0AA
:105420009BFD2046FEF742FE024802B010BD00BFC1
:1054300020E6032024E6032008B5FFF7E1FF012161
:1054400002F0A8FDFFF7DCFF0549012202F0E0FDB4
:10545000FFF7D6FFBDE80840002102F0AFBD00BF56
:1054600020A107002DE9F04190F9203001330546D5
:105470000F4606D1FFF7C4FF3946BDE8F04102F000
:10548000F9BD002407264FF0010895F920000021FE
:1054900080B203F0EEFD95F91E0008FA06F13940DE
:1054A00080B203F0E6FD95F92000012180B203F0FF
:1054B000E0FD95F91F00640080B2E4B203F0F2FD54
:1054C00008B144F00104013EDFD22046BDE8F0817E
:1054D00070B590F91D30013304460E46154616D1BD
:1054E00003F020FE217F02F02DFB03F01BFE03687A
:1054F00031469B68984703F015FE036829469B6870
:10550000984703F00FFEBDE8704002F026BB90F90B
:105510002030013301D1FFF78FFF94F91D000021E6
:1055200080B203F0A6FD06F07F012046FFF79AFF48
:1055300029462046FFF796FF94F91D000121BDE89A
:10554000704080B203F095BD38B590F91D3001333D
:1055500004460D461DD103F0E5FD94F91C1002F040
:10556000F5FA03F0DFFD036829469B68984703F0CE
:10557000D9FD02F0F2FA03F0D5FD217F012202F0FD
:10558000DEFA03F0CFFD03685B699847C5B2284691
:1055900038BD90F92030013301D1FFF74DFF94F968
:1055A0001D00002180B203F064FD45F0800120461B
:1055B000FFF758FF00212046FFF754FF054694F9F6
:1055C0001D00012180B203F054FDE0E708B523215E
:1055D000FFF7BAFFC0F3011008BD38B50D46202112
:1055E0000446FFF7B1FF00F00F0343EA051220461F
:1055F000D2B2BDE838402021FFF76ABF38B590F934
:105600001D300133044677D103F08CFD94F91C1052
:105610005D4D02F09BFA03F085FD0368A8219B68AD
:10562000984703F07FFD02F098FA03F07BFD217F9D
:10563000062202F084FA03F075FD03685B6998475F
:10564000E08003F06FFD03685B699847E38805EA33
:1056500000201843E08003F065FD03685B6998470C
:10566000208103F05FFD03685B699847238905EAA1
:1056700000201843208103F055FD03685B699847BB
:10568000608103F04FFD03685B69984705EA0020DD
:105690006589284360812046FFF798FF032869D079
:1056A00002286AD001286BD0002843F6FC7318BF8B
:1056B000012307EE903AB4F9063007EE103AF8EEFF
:1056C000E77AB8EEC77AB4F90830C7EE276A07EE72
:1056D000103AB8EEC77AC4ED036AC7EE276AB4F988
:1056E0000A3007EE103AB8EEC77AC4ED046AC7EE86
:1056F000276AC4ED056A38BD90F92030013301D125
:10570000FFF79AFE94F91D00002180B203F0B1FC6E
:10571000E8212046FFF7A6FEFF212046FFF7A2FE64
:10572000FF21E0802046FFF79DFEE38843EA00204A
:10573000E080FF212046FFF795FEFF2120812046D3
:10574000FFF790FE238943EA00202081FF212046B5
:10575000FFF788FEFF2160812046FFF783FE638903
:1057600043EA0020608194F91D00012180B203F01A
:1057700080FC90E74FF400639BE74FF4805398E779
:1057800041F6FE7395E700BF00FFFF0070B50C46C1
:10579000054620220021201D04F0D2F82423236096
:1057A000AB69636001262846A660FFF727FFEB6818
:1057B00063612B69A3616B69E361304670BD10B50D
:1057C0000446017790F91D00421C23D103F0AAFC86
:1057D00002F086F90F212046FFF7B6FE33283DD1AF
:1057E000072220212046FFF773FE07212046FFF7FE
:1057F000F4FE882223212046FFF76AFE1022222190
:105800002046FFF765FE204680221F21FFF760FE3D
:10581000012010BD012180B203F02BFC94F91D0082
:10582000012180B203F014FC94F92000431C04D140
:10583000FFF7E6FD02F09AFBCCE7012180B203F00E
:1058400007FC94F91E00012180B203F001FC94F9D9
:105850001F00002180B203F0FBFBBBE70020D8E76C
:1058600070B50C1E064615460BDA0A2A09D12D2101
:1058700002F0EAFA6142EAB23046BDE8704002F056
:1058800002BB2146F7E710B5044603F085F8204631
:1058900010BD0000F8B50F4F054614460E4602F045
:1058A000CFFA3946284602F0CBFA2146284602F0C4
:1058B000E0FA03F0E7F9314602F0C2FA03F0E2F948
:1058C000394602F0BDFA03F0DDF92146BDE8F840A3
:1058D00002F0CFBA1E9E0B00F8B5144F04461546D1
:1058E0000E4602F0ADFA3946204602F0A9FA0A2225
:1058F00029462046FFF7B4FF204602F0AEFA03F037
:10590000C1F9314602F09CFA03F0BCF9394602F0C5
:1059100097FA03F0B7F9294604460A22FFF7A0FFD9
:105920002046BDE8F84002F098BA00BF1E9E0B006A
:1059300010B50C4602F09DFA03F0A4F92146BDE82B
:10594000104002F096BA00002DE9F04F0E4691B0DB
:105950001F464FF0FF331360044600213046DDF848
:105960006890904602F0A1FCD6F838E00346C0B932
:10597000BEF1000F14BF72465022316892B2204629
:1059800002F00AFE051E18BF0125EDB903F07AF9F1
:10599000BE4902F06EFA204611B0BDE8F04F02F0A9
:1059A000B1BFBB4B0A9306F1140CBCE80F000BAD62
:1059B0000FC5DCF800302B701FFA8EF200230AA905
:1059C000204602F0C9FEDDE70021304602F06DFC02
:1059D00000285DD103F056F9AE4902F031FA03F028
:1059E00051F9316802F02CFA03F04CF9AA4902F09F
:1059F00027FA03F047F90A22B16B8246FFF730FF1E
:105A0000504602F02AFA4946204602F019FAA34904
:105A1000204602F015FAB16A204602F011FAA049B8
:105A2000204602F00DFA03F02DF99E4902F021FA0A
:105A300003F028F9494602F003FA03F023F99749E5
:105A400002F0FEF903F01EF9B16A02F0F9F903F071
:105A500019F9934902F0F4F99349944A2046FFF763
:105A600019FF0021304602F020FC20B9326890492D
:105A70002046FFF70FFF06F13C0A0021504602F0D6
:105A800014FC88B9726C8B492046FFF725FF12E0A1
:105A900003F0F8F8884902F0D3F903F0F3F806F1BF
:105AA000100102F0D4F99FE78449484603F07EFFD5
:105AB00002460028E7D05FB1396849B17A682046CC
:105AC0001AB1FFF7E7FE0837F6E7FFF731FFFAE70D
:105AD000204602F0C2F9204602F0BEFC00215046EA
:105AE00002F0E3FB40B9F16B204602F0C2F903F08B
:105AF000C9F8F16B02F0BDF903F0C4F804F11C0A17
:105B00006F4902F0B6F94FF480620021504603F06D
:105B100017FF00F0DFF9009000F0DCF9002601909B
:105B2000204602F095FE814678B103F0ABF8654956
:105B300002F086F903F0A6F849460A22FFF790FE24
:105B400003F0A0F8604902F094F94FF0000B2046F2
:105B500002F07EFE20B3204602F064FCC7B203F0E0
:105B600091F8394602F070F900F0B4F940F2FE33D2
:105B70009E42009003D80AF806700136E7E740F22B
:105B8000FF339E42F9D1002384F81B34204602F0F3
:105B9000B9FE03F077F84D4902F06BF9AB46ECE73C
:105BA000A3191877B9F1000F04D003F06BF8484936
:105BB00002F046F900F08EF9009BA0EB0309BBF15F
:105BC000000F06D141F28833994502D8C82000F071
:105BD000BFFC204602F05EFD41F2883300284CD025
:105BE00099454CD8BBF1000F9AD003F04BF83949D6
:105BF00002F026F903F046F8054600F06BF9019B28
:105C00000A22C11A284602F03EF903F03BF8324955
:105C100002F02FF9204602F075FE514602A802F06C
:105C20007AFA0C23092202A906A802F063FB03F00A
:105C300029F82A4902F004F903F024F8069902F041
:105C400018F927490AA802F066FA0AA902A802F080
:105C50004DFB04460AA802F013FA631C46D103F078
:105C600011F8204902F005F906A802F009FA02A885
:105C700002F006FA11B0BDE8F08F9945B5D903F0EE
:105C800001F8194902F0F5F8AFE700BF5FA10B007A
:105C9000E8A40B00E4A00B00569C0B001F9E0B0019
:105CA0001FA10B002BA10B0054A10B004EA10B0058
:105CB0007EA10B0083A10B0000A10B00379C0B0001
:105CC00092A10B00B3A10B00DFA10B00E7A10B0019
:105CD0001CA20B0077A20B009CA20B00A1A20B0040
:105CE000BBA20B00C0A20B0042A20B0008F10405EE
:105CF0000A49284602F03DFA221D02A90AA802F02C
:105D000019FB0AA9284602F083FA0AA802F0B8F99A
:105D1000069803F0B7FDC8F80000A5E76D9E0B00DC
:105D200008B5024B1B689B68019308BD780203000D
:105D300008B5024B1B68DB68019308BD78020300BD
:105D400008B5024B1B681B6D019308BD7802030068
:105D500008B5024B1B689B6D019308BD78020300D8
:105D600008B5024B1B681B6E019308BD7802030047
:105D700008B5034B1B68D3F89830019308BD0000A9
:105D80007802030008B5034B1B68D3F8A8300193D1
:105D900008BD00007802030008B5034B1B68D3F868
:105DA000B430019308BD00007802030008B5034B2E
:105DB0001B68D3F8D830019308BD000078020300B7
:105DC00008B5034B1B68D3F8DC30019308BD000015
:105DD0007802030008B5034B1B68D3F8EC3001933D
:105DE00008BD00007802030008B5034B1B68D3F818
:105DF000F030019308BD00007802030008B5034BA2
:105E00001B68D3F80031019308BD0000780203003D
:105E100008B5034B1B68D3F80431019308BD00009B
:105E20007802030008B5024B1B685B68019308BD4C
:105E30004802030008B5024B1B68DB68019308BDEC
:105E40004802030008B5024B1B681B6B019308BD99
:105E50004802030008B5024B1B689B6B019308BD09
:105E60004802030008B5024B1B681B6C019308BD78
:105E70004802030008B5024B1B685B6C019308BD28
:105E80004802030008B5024B1B689B6C019308BDD8
:105E90004802030008B5024B1B68DB6C019308BD88
:105EA0004802030008B5024B1B685B6D019308BDF7
:105EB0004802030008B5024B1B685B68019308BDEC
:105EC0001802030008B5024B1B68DB68019308BD8C
:105ED0001802030008B5024B1B685B69019308BDFB
:105EE0001802030008B5024B1B689B6A019308BDAA
:105EF0001802030008B5024B1B685B6C019308BDD8
:105F00001802030008B5024B1B689B6C019308BD87
:105F10001802030008B5024B1B689B6D019308BD76
:105F20001802030008B5024B1B685B6E019308BDA5
:105F30001802030008B5024B1B689B68019308BD5B
:105F40002C02030008B5024B1B68DB68019308BDF7
:105F50002C02030008B5024B1B681B69019308BDA6
:105F60002C02030008B5024B1B685B69019308BD56
:105F70002C02030008B5024B1B68DB68019308BDC7
:105F80002802030008B5024B1B689B69019308BDFA
:105F90002802030008B5024B1B68DB69019308BDAA
:105FA0002802030008B5024B1B681B6A019308BD59
:105FB0002802030008B5024B1B685B6A019308BD09
:105FC0002802030008B5024B1B689B6A019308BDB9
:105FD0002802030008B5024B1B68DB6A019308BD69
:105FE0002802030008B5024B1B681B6B019308BD18
:105FF0002802030008B5024B1B685B6B019308BDC8
:106000002802030008B5024B1B681B6C019308BDF6
:106010002802030008B5024B1B681B6D019308BDE5
:106020002802030008B5024B1B685B69019308BD99
:106030006C02030008B5024B1B685B69019308BD45
:106040006402030008B5024B1B681B6A019308BD7C
:106050006402030008B5024B1B689B6A019308BDEC
:106060006402030008B5024B1B689B68019308BDDE
:106070006802030008B5024B1B68DB68019308BD8A
:106080006802030008B5024B1B689B69019308BDB9
:106090003802030008B5024B1B68DB69019308BD99
:1060A0003802030008B5024B1B681B6A019308BD48
:1060B0003802030008B5024B1B689B6A019308BDB8
:1060C0003802030008B5024B1B681B6B019308BD27
:1060D0003802030008B5024B1B689B6B019308BD97
:1060E0003802030008B5024B1B681B68019308BD0A
:1060F0003002030008B5024B1B689B68019308BD82
:106100003002030008B5024B1B68DB68019308BD31
:106110003002030008B5024B1B681B69019308BDE0
:106120003002030008B5024B1B685B69019308BD90
:106130003002030008B5024B1B68DB69019308BD00
:106140003002030008B5024B1B681B6A019308BDAF
:106150003002030008B5024B1B685B6A019308BD5F
:106160003002030008B5024B1B681B6C019308BD8D
:106170003002030008B5024B1B685B6C019308BD3D
:106180003002030008B5024B1B681B68019308BD71
:106190003C02030008B5024B1B68DB68019308BD95
:1061A0003C02030008B5024B1B681B69019308BD44
:1061B0003C02030008B5024B1B685B69019308BDF4
:1061C0003C02030008B5024B1B689B69019308BDA4
:1061D0003C02030008B5024B1B68DB69019308BD54
:1061E0003C02030008B5024B1B681B6A019308BD03
:1061F0003C02030008B5024B1B689B6A019308BD73
:106200003C02030008B5024B1B681B68019308BDE4
:106210004C02030008B5024B1B685B68019308BD84
:106220004C02030008B5024B1B681B69019308BDB3
:106230004C02030008B5024B1B685B69019308BD63
:106240004C02030008B5024B1B689B69019308BD13
:106250004C02030008B5024B1B68DB69019308BDC3
:106260004C02030008B5024B1B681B6A019308BD72
:106270004C02030008B5024B1B689B6A019308BDE2
:106280004C02030008B5024B1B681B6E019308BD4E
:106290007402030008B5024B1B685B6B019308BDD9
:1062A0006002030008B5024B1B681B6D019308BD1B
:1062B0006002030008B5024B1B681B68019308BD10
:1062C0002002030008B5024B1B685B68019308BD00
:1062D0002002030008B5024B1B685B69019308BDEF
:1062E0002002030008B5024B1B68DB6A019308BD5E
:1062F0002002030008B5024B1B685B6B019308BDCD
:106300002002030008B5024B1B689B6B019308BD7C
:106310002002030008B5024B1B68DB6B019308BD2C
:106320002002030008B5024B1B689B6D019308BD5A
:106330002002030008B5034B1B68D3F88830019393
:1063400008BD00002002030008B5034B1B68D3F80A
:106350009430019308BD00002002030008B5034BF0
:106360001B68D3F8AC30019308BD00002002030085
:1063700008B5024B1B689B68019308BD44020300EB
:1063800008B5024B1B68DB68019308BD440203009B
:1063900008B5024B1B685B69019308BD440203000A
:1063A00008B5024B1B68DB6A019308BD4402030079
:1063B00008B5024B1B681B6B019308BD4402030028
:1063C00008B5024B1B68DB6B019308BD4402030058
:1063D00008B5024B1B685B68019308BD40020300CF
:1063E00008B5024B1B689B68019308BD400203007F
:1063F00008B5024B1B68DB68019308BD400203002F
:1064000008B5024B1B681B69019308BD40020300DD
:1064100008B5024B1B685B69019308BD400203008D
:1064200008B5024B1B689B69019308BD400203003D
:1064300008B5024B1B68DB69019308BD40020300ED
:1064400008B5024B1B681B6A019308BD400203009C
:1064500008B5024B1B689B6A019308BD400203000C
:1064600008B5024B1B68DB6A019308BD40020300BC
:1064700008B5024B1B681B6B019308BD400203006B
:1064800008B5024B1B685B6B019308BD400203001B
:1064900008B5024B1B681B6C019308BD400203004A
:1064A00008B5024B1B685B6C019308BD40020300FA
:1064B00008B5024B1B681B68019308BD1C02030052
:1064C00008B5024B1B685B68019308BD1C02030002
:1064D00008B5024B1B689B68019308BD1C020300B2
:1064E00008B5024B1B681B69019308BD1C02030021
:1064F00008B5024B1B685B6A019308BD1C020300D0
:1065000008B5024B1B68DB6A019308BD1C0203003F
:1065100008B5024B1B68DB6B019308BD1C0203002E
:1065200008B5024B1B681B6C019308BD1C020300DD
:1065300008B5024B1B685B6C019308BD1C0203008D
:1065400008B5024B1B68DB6C019308BD1C020300FD
:106550000021FFF7BFBE70477047704770470000CB
:10656000064B994210B500F10C0405D0084602F024
:106570000DFE002808BF0024204610BD3CA40B00DF
:10658000064B994210B500F10C0405D0084602F004
:10659000FDFD002808BF0024204610BD3CA40B00D0
:1065A000064B994210B500F10C0405D0084602F0E4
:1065B000EDFD002808BF0024204610BD3CA40B00C0
:1065C00010B56821044602F0DAFD204610BD10B572
:1065D0002821044602F0D3FD204610BD10B530211D
:1065E000044602F0CCFD204610BD682102F0C7BD74
:1065F000282102F0C4BD302102F0C1BD10B504460F
:10660000006808B1FFF73EFC204610BDF0B500253C
:10661000EC1C8C420DD86E1C445D875D974205D101
:106620002644B14205D31D60601CF0BD01342544F1
:10663000EEE70020F9E72DE9F34704469DF82870BE
:106640001E46894601AB90460A46016AFFF7DEFF07
:10665000256AB31C0FBB00B35F193F1A1F2F18D850
:10666000DDF8049009F1020AA5EB090206EB0A0322
:10667000121A4844211892B2E01803F047F9731C2B
:1066800004F809303246414604EB0A0003F030F9C1
:106690002762206A02B0BDE8F0872B441F2BF8D890
:1066A000731C6355A81C25442062324685F801906E
:1066B0004146204403F01CF9236A33442362E8E78F
:1066C000024A00210A20FFF7E5BD00BFC55E0B00AE
:1066D000034608461B68D3E90021104730B40D4635
:1066E00011461A46036809682868D3E90043A4469E
:1066F00030BC6047012A38B5044602D10B682360DC
:1067000003E0022A03D0032A0DD0002038BD082060
:106710000D68FDF7C0FC03460028F0D095E80300A3
:1067200083E80300EBE700680028EED0082102F0C0
:1067300026FDEAE7012A38B5044602D10B6823603A
:1067400003E0022A03D0032A0DD0002038BD082020
:106750000D68FDF7A0FC03460028F0D095E8030083
:1067600083E80300EBE700680028EED0082102F080
:1067700006FDEAE710B58368044613B1032201461B
:106780009847204610BD10B504465830FFF7F2FF79
:1067900004F14800BDE8104001F072BC10B5436838
:1067A000013B0446436063B903689B689847A3684C
:1067B000013BA3602BB923682046DB68BDE810408D
:1067C000184710BDA0F13003DAB2092A01D81846E3
:1067D0007047A0F16103052B01D857387047A0F12D
:1067E0004103052B94BF37384FF0FF30704700004E
:1067F00010B500230370044B04461868FFF74AFBEA
:1068000001232370204610BD34E6032010B5037821
:1068100004461BB1024B1868FFF744FB204610BD2D
:1068200034E6032082B00346086849686A4603C21A
:106830006A4603CA18601846596002B0704708B526
:1068400082798B799A4206D1062203F041F8B0FA98
:1068500080F0400908BD0020FCE74FF0FF330360E3
:1068600083800020704708B5024600210160416026
:10687000FFF7F3FF9171104608BD000010B501232A
:106880000361054B024603F1100153F8044B42F833
:10689000044B8B42F9D110BD4AA40B0010B50B6913
:1068A000036101F11002034651F8044B43F8044B15
:1068B0009142F9D110BD10B50B460446B1B1012A81
:1068C00001F110020AD1014653F8040B41F8040B00
:1068D0009342F9D101232361204610BD411E12F8D5
:1068E000010D01F8010F9A42F9D1F3E7102203F0EC
:1068F00027F8F1E738B5044615461A46FFF7DBFFDF
:10690000A581204638BD000008B5026922B98089FA
:10691000003818BF012008BD0249102202F0D8FF3C
:10692000F6E700BF6AA40B000069704738B50C4653
:1069300014220021054603F003F823691BB9A3893B
:106940002B80284638BD01232B7421462B4604F1A9
:10695000100251F8040B43F8040B9142F9D1F0E70F
:1069600080897047704708B502690B699A4206D161
:10697000102202F0ADFFB0FA80F0400908BD0020FF
:10698000FCE7000001232DE9F3410361344B0C4681
:106990000646024603F1100153F8040B42F8040BBB
:1069A0008B42F9D144B32421204603F02CF804286B
:1069B0004FF0000523D1ADF8045001AFA51C0634FB
:1069C00015F8020CFFF7FEFEB0F1000812DB15F817
:1069D000010CFFF7F7FE00280CDB023540EA081037
:1069E000A54207F8010BEBD19DF8053033739DF8F4
:1069F000043073730023336102B0BDE8F0814FF0BF
:106A000010082421204602F0FEFFA84207D8424683
:106A10000021304602B0BDE8F04102F091BFB8F16C
:106A2000000FE9D0605DFFF7CDFE030615D400012D
:106A300008F1FF38C7B206F808702421204602F09A
:106A4000E2FF0135A84208D9605DFFF7BBFE40B206
:106A50000028A4BF384306F808000135D1E700BF7D
:106A60004AA40B0013B504460191FFF707FF204627
:106A70000199FFF787FF204602B010BD30B49DF8A2
:106A800008501AB1029530BCFFF7D5BD006A30BC82
:106A900070471FB504461F22002102F051FF00235A
:106AA00023620093062201238DF80F2019460DF171
:106AB0000F022046FFF7E2FF204604B010BD73B579
:106AC0000A460E4601AB016A0446FFF79FFD0546E4
:106AD00078B10198226A4119121A2144521B2044AC
:106AE00002F006FF206A401B206231462046FFF775
:106AF000E6FF02B070BD000038B54FF6FF73002509
:106B0000044643800E22294605700571063002F0C6
:106B100017FF04F11400FFF7B1FE04F12800FFF79E
:106B2000ADFE044904F13C0001F0F5FA656520462C
:106B300038BD00BF6D9E0B0010B5D0E9063203EBE7
:106B4000C2029342184606D0046824888C4203F19E
:106B50000803F6D110BD0020FCE70000F0B50646A2
:106B600085B01F460D46002950D0002A4ED004683B
:106B70002378F42A28BFF42243B32379980709D550
:106B8000A08903920023FFF707F90028039A03DA8C
:106B900005B0F0BD6FF0770034682379D90609D5C8
:106BA000012F07D0A0890023294605B0BDE8F04099
:106BB000FFF724B99B06EBD5022FE9D0A08900236B
:106BC000294605B0BDE8F040FFF722B960884FF6CE
:106BD000FF7188421CD021794E0701D5012F04D1C5
:106BE0000B0709D46FF07700D2E7A1890093134611
:106BF0002A46FFF7E5F8CBE7022FF3D00023A1895F
:106C0000009313462A46FFF7D1F8C1E70248BFE7D1
:106C10006FF0D100BCE700BFF2FEFFFF13468A68A9
:106C20000968FFF79BBF37B50C460546F42120469F
:106C3000019202F0E8FE019B02462146284603B07D
:106C4000BDE83040FFF78ABF2DE9F041002606601D
:106C5000074628200C46FDF71EFA051E05F10C0814
:106C60000FD00123C5E90133084B2B604046FFF7E5
:106C700005FE0FCC2E6285F8246046460FC62368B9
:106C80003360C7E900853846BDE8F0810CA40B00ED
:106C900070B50025056006463020FDF7FCF9044676
:106CA00088B10123C0E90133094B03604FF6FF733C
:106CB00083810E30FFF7D7FDC4E90655C4E90855B6
:106CC000C4E90A55A57574600C343460304670BD53
:106CD00028A40B0013B5044601A8FFF789FD23681B
:106CE0001C884FF6FF73E41A01A818BF0124FFF7B0
:106CF0008DFD204602B010BD37B50D46044601A8F3
:106D0000FFF776FD2A68D2F802302360D2F8063009
:106D1000636001A8FFF77AFD204603B030BD30B5AF
:106D2000054687B00C4601A8FFF762FD2A68236874
:106D300012881B889A420DD1294602A8FFF7DCFF72
:106D4000214604A8FFF7D8FF04A902A8FFF777FDA2
:106D5000044600B9002401A8FFF758FD204607B0FB
:106D600030BD000010B504465420FDF794F90146EB
:106D700060B10023C0E90033C0E90233C0E9043345
:106D8000C0E906330362C362C363C364216019B9F7
:106D9000094A0A20FFF77EFA0020FEF7C1FF20B162
:106DA000054A00210A20FFF775FA216803480022EE
:106DB000FFF71AF8204610BDC55E0B00D9710B0015
:106DC00010B50B4C2378BFF35B8FDB070ED4204646
:106DD000FDF767F950B10748FFF7C4FF2046FDF7FC
:106DE00065F9054A0549034802F0C4F9014810BD98
:106DF0002CE6032038E6032060DA0320FD6F0B0049
:106E000030B50368093B012B8DB004460D4611D8FF
:106E1000FFF7D6FFA1880068FFF78EFE034658B93A
:106E20002022CDE904200B4A00920B4904AA32200B
:106E3000FFF738FA0DB030BD6A6D002AFAD0D4E9F8
:106E4000032105F14C00CDE90312AC6D04AA03A99E
:106E5000A047EFE719A30B00F2A20B0008B5002032
:106E6000FEF75EFF00EAE07008BD084611B90A4669
:106E7000FEF766BF096A0022FAE707B5084629B996
:106E80000A4603B05DF804EBFEF762BF01210190F2
:106E9000FFF715FE01980022016AF2E738B50446B3
:106EA0001546FFF7E2FF00280ADB29462046FFF7D8
:106EB000E4FF002804DBBDE838400020FEF750BFA7
:106EC00038BD0368D8690028D4BF0020012070476E
:106ED00038B500230446836008200D46FDF7DBF833
:106EE00018B12B6803606B684360034BE360034B8E
:106EF0002060A360204638BDDD660B0035670B00BF
:106F000038B500230446836008200D46FDF7C3F81A
:106F100018B12B6803606B684360034BE360034B5D
:106F20002060A360204638BDD1660B00F5660B00DB
:106F30000B68036013B15A6801325A60704710B58C
:106F400051F8043B044640F8043BFFF7F1FF236887
:106F50000BB9FFF7B5FB204610BD10B551F8043B47
:106F6000044640F8043BFFF7E3FF204610BD10B590
:106F700051F8043B044640F8043BFFF7D9FF204694
:106F800010BD10B50446006808B1FFF707FC2046A5
:106F900010BD10B504460430FFF7F3FF204610BDC6
:106FA00070B5D0E90053044605EBC306AE4204D0E9
:106FB000281DFFF7E6FF0835F8E72068FFF780FA9D
:106FC000204670BD70B5D0E90053044605EBC306FA
:106FD000AE4204D0281DFFF7D4FF0835F8E720683B
:106FE000FFF76EFA204670BD10B504462430FFF757
:106FF000E9FF04F11800FFF7D3FF10BDF8B50468EE
:10700000064624B304F14400FFF7B4FB04F1340056
:10701000FFF7B0FB04F12400FFF7ACFBD4E9065303
:1070200005EBC307AF4204D0281DFFF7AAFF0835C0
:10703000F8E7A069FFF744FA04F10C00FFF7C2FF7C
:107040002046FFF7ADFF5421204602F098F8304665
:10705000F8BD13B50023D1E90042C1E9003303684C
:10706000009304604368426001A80193FFF789FF21
:1070700002B010BD826810B50AB902F084F8BDE80C
:107080001040C368184770B5D0E90053044605EBBB
:10709000C306AE4204D0281DFFF773FF0835F8E79A
:1070A0000023636070BD13B504460020FEF740FE68
:1070B00000280ADB01A8FFF79BFB20681830FFF7C8
:1070C000E2FF01A8FFF7A2FB002002B010BD88423A
:1070D000F8B504460D46164614D9904213D2A2F1D3
:1070E0000806751AA1F108072C44B74218D01CB144
:1070F00031462046FFF73BFF301DFFF742FF083EB9
:10710000083CF2E70CD0B5420AD01CB12946204613
:10711000FFF72DFF281DFFF734FF08350834F2E78D
:10712000F8BDF7B5044646686846FFF720FFD4E986
:1071300001739F4212DB0137002F29DDF800FFF7B2
:10714000B7F90546F0B1D4E9001201EBC202FFF72E
:10715000BEFF2068FFF7B4F92560A7602368626866
:1071600003EBC60603EBC202314606F10800FFF747
:10717000AEFF1EB169463046FFF7F9FE6368013382
:107180006360012501A8FFF7FCFE284603B0F0BDAF
:107190000025DEE7F8B5D0E9004305460F4604EBCD
:1071A000C306A64205D039462046FFF7B8FD08B110
:1071B00014B9F8BD0834F4E7201DFFF7E2FED5E965
:1071C000003204F1080103EBC2022046FFF77FFF03
:1071D0006B68013B6B60ECE72DE9F04105468EB032
:1071E00003A80C46FFF704FB2E68042E6DD007D8C9
:1071F000032E2AD003A8FFF709FB0EB0BDE8F081EB
:10720000A6F10C03042BF5D8A9892046FFF794FCBE
:1072100007460028EED0E36C002BEBD010220021B3
:1072200007A802F08DFB0D2E06978DF81C6002D08A
:10723000102E40F092806B68099306230893236D0B
:1072400006A904F144009847D4E704A8FFF720FDFD
:10725000049BAA891A806968049808310230FFF7F4
:10726000E1FA04A906A8FFF782FE06A904F11800B6
:10727000FFF757FF054607A8FFF783FE2023069375
:107280008DB93E4B3E49009332202B4606AA079506
:10729000FFF708F8049B29461888FEF769FD05A842
:1072A000FFF76FFEA6E7374A0092002334490793A1
:1072B00006AA0120FEF7F6FFE36A002BEFD004A92F
:1072C00004F12400FFF7D6FEE9E7A9892046FFF77D
:1072D00033FC064600288DD00568D5E906324FF606
:1072E000FF71298003EBC2029A4203D053F8080BC6
:1072F0004180F9E7D5E9037307EBC308B84504D02B
:10730000381DFFF73EFE0837F8E700232B61D5E96B
:10731000067307EBC308B84504D0381DFFF731FEEC
:107320000837F8E70023EB61AB72E36B23B131461A
:1073300004F13400FFF79EFE00232022CDE906234E
:10734000114A00920E4906AA0120FEF7ABFF314612
:1073500004F11800FFF71EFF4CE70F2E7FF46FAF0C
:107360006B6809932B7A03F00102C3F340038DF895
:1073700029308DF82820082360E700BF31A30B00D7
:10738000F2A20B0057A30B0074A30B0013B5044625
:10739000FFF7A0FCD0B1236800211888FEF7E8FCB5
:1073A000002811DB01A8FFF723FAFFF709FD0068A9
:1073B00021461830FFF7EEFE23684FF6FF721A8061
:1073C00001A8FFF723FA002002B010BD6FF0D10032
:1073D000FAE700002DE9F341044601A8FFF708FA97
:1073E0002368104ED3E906454FF0000804EBC505AD
:1073F0000127AC420ED03068FEF754FD20468DF8D0
:107400000480FFF7C3FF3068FEF744FD08348DF8B1
:107410000470EEE701A8FFF7F9F9002002B0BDE81B
:10742000F08100BF34E6032013B50B460246D0E9D5
:1074300000016C4684E8030093E8030082E803003F
:1074400094E8030083E8030002B010BD38B5054698
:107450000C46FFF7E9FFAB68A268AA60A360EB687F
:10746000E268EA60E36038BD70B50E468CB0044651
:1074700001921D46FFF740FB33780199237104F117
:107480003C0000F076FE04F14C06CDB1109B029555
:1074900002A904A80393FFF71BFD002308A904A871
:1074A0000A93FFF7D3FF314608A8FFF7CFFF08A8DC
:1074B000FFF760F904A8FFF75DF920460CB070BD36
:1074C0000695EAE72DE9F04F89B01D46DDE9124344
:1074D00080468A46934614990393002268200291BD
:1074E0000692FCF7D8FD061E06F10C091CD00122FD
:1074F0003746C6E90122174A47F8202B02999BF824
:107500000020039B8DF814200091524605A948469F
:10751000FFF7AAFF0FCD0FC72B683B600FCC06F11A
:1075200034050FC523682B6006A94046CDE90696B1
:10753000FFF78FFD07A8FFF724FDD8F8001031B939
:10754000054A0A2009B0BDE8F04FFEF7A3BE09B016
:10755000BDE8F08FF0A30B00C55E0B0038B5054603
:107560000C46FFF761FFAB68A268AA60A360EB68F6
:10757000E268EA60E36038BD10B504688AB034346C
:10758000B9B1CDE9001202A86946FFF7B9FC0023A2
:1075900006A902A80893FFF7E1FF214606A8FFF716
:1075A000DDFF06A8FFF7E6F802A8FFF7E3F80AB048
:1075B00010BD0491EBE710B504688AB02434B9B16A
:1075C000CDE9001202A86946FFF79AFC002306A93C
:1075D00002A80893FFF7C2FF214606A8FFF7BEFFE7
:1075E00006A8FFF7C7F802A8FFF7C4F80AB010BD55
:1075F0000491EBE78842F8B504460D46164614D9C7
:10760000904213D2A2F10806751AA1F108072C4482
:10761000B74218D01CB131462046FFF79EFC301D02
:10762000FFF7AFFC083E083CF2E70CD0B5420AD0A9
:107630001CB129462046FFF790FC281DFFF7A1FC4E
:1076400008350834F2E7F8BD70B50E1E054611DDA9
:10765000F000FEF72DFF044658B1D5E9001201EB0A
:10766000C202FFF7C7FF2868FEF72AFF2C60AE6052
:10767000012070BD0024F6E773B5044645686846EE
:10768000FFF76BFCD4E90113994210DA23686268B2
:1076900003EBC50503EBC202294605F10800FFF71D
:1076A000A9FF8DB9636801336360012606E00131EB
:1076B0002046FFF7C9FF06460028E7D101A8FFF7DB
:1076C00060FC304602B070BD69462846FFF745FCB5
:1076D000E8E78842F8B504460D46164614D99042AC
:1076E00013D2A2F10806751AA1F108072C44B7427B
:1076F00018D01CB131462046FFF721FC301DFFF7A2
:1077000040FC083E083CF2E70CD0B5420AD01CB160
:1077100029462046FFF713FC281DFFF732FC0835E9
:107720000834F2E7F8BD70B50E1E054611DDF00015
:10773000FEF7BEFE044658B1D5E9001201EBC202C5
:10774000FFF7C7FF2868FEF7BBFE2C60AE60012084
:1077500070BD0024F6E773B5044645686846FFF738
:10776000EEFBD4E90113994210DA2368626803EB57
:10777000C50503EBC202294605F10800FFF7A9FF82
:107780008DB9636801336360012606E0013120464C
:10779000FFF7C9FF06460028E7D101A8FFF7F1FB74
:1077A000304602B070BD69462846FFF7C8FBE8E7DF
:1077B0002DE9F04F1746A1B080460AA80E46FFF704
:1077C00017F83C68237953B939464046FFF7B7FBB1
:1077D0000AA8FFF71BF8404621B0BDE8F08F3368D8
:1077E000D3E9035305EBC303039304F1280A04F11F
:1077F000140B039B9D4221D0D5F80090584609F107
:107800001401FFF7B0F8B8B109F128015046FFF7AD
:10781000AAF888B12368D9F80020534033F47F4395
:107820000AD12022CDE915235E4A009215AA5E49AD
:107830003220FEF737FDC7E70835DAE75046FFF795
:1078400063F860B95949012215A815ADFFF733F85F
:107850000FCDD446ACE80F002B68CCF8003033686D
:10786000D3E9005305EBC30B5D45A94651466ED0E5
:1078700055F8080BFFF777F80028F5D004F1140A43
:107880005046FFF741F888B9494B48491A880132F8
:1078900092B21A8015A8012315ADFFF72BF80FCD72
:1078A000D446ACE80F002B68CCF80030414B159360
:1078B0002822002116A802F043F8514604A8FFF739
:1078C00035F804AB18AA0DF1200C18685968154654
:1078D00003C5083363452A46F7D118682860237921
:1078E0008DF85830D9F800309B8AADF87430E36BCE
:1078F0001793314B0022A11D15A8CDE91E34FEF7C8
:1079000069FA00287FF460AF012323703468394698
:107910000C340DA8FFF713FB20460DA9FFF71BFF42
:1079200004460EA8FFF72DFB002C7FF44DAF20235B
:10793000CDE90D34214B00930DAA234677E7394654
:107940004046FFF7FCFA0CA8FFF71BFB40E70BA82B
:10795000FFF77AF9514615A8FEF7E8FF0B9A0023C6
:10796000143215A90120FEF70DFA0028E7D1356879
:107970000BA90DA8FFF7F1FA28460DA9FFF77CFE29
:1079800005460EA8FFF7FDFA002DD8D032685368DF
:10799000126803F10053013B0CA802EBC309FFF787
:1079A000F0FA6BE793A30B00F2A20B005AA40B00B2
:1079B00030E6032003002C00016E0B00BEA30B0079
:1079C00010B5064C002320462360FEF753FA2046EC
:1079D000034A0449BDE8104001F0CCBB34E6032063
:1079E00060DA0320FD650B00002240681146FEF7B7
:1079F00027BD002240681146FEF742BD40680022C4
:107A0000FEF736BD4068002281F00101FEF710BD8F
:107A1000002340681A461946FEF702BD002340685D
:107A20001A461946FEF7F4BC002240681146FEF7DC
:107A3000E7BC002240681146FEF7D2BC4068002235
:107A40000221FEF7D5BC002340681A46FEF7C0BCF1
:107A5000024B03225A60024A1A6070473CE6032038
:107A600084A40B007047F8B5064615460C468F18DF
:107A7000BC4206D0336814F8011B9B683046984717
:107A8000F6E72846F8BD007C0022FEF78BBA007CA2
:107A90000021FEF78FBA007C0021FEF793BA007C2C
:107AA0000021FEF797BA007C0021FEF79BBA10B5C3
:107AB0001421044601F063FB204610BD10B54FF4BD
:107AC0007A73044608460021C4E90113034B23607E
:107AD00020741146FEF796FA204610BDC0A40B0094
:107AE0000023007C1A461946FEF744BA7FB50022EF
:107AF0001423CDE90122ADF804300B788DF808305D
:107B00004B680393CB680493007C0B7A059301A91F
:107B1000FEF780FA07B05DF804FB1FB5003B8DF857
:107B200000104FF06401039118BF012369460192D0
:107B30008DF80830FFF7DAFF05B05DF804FB01238C
:107B4000FFF7EBBF007C0022FEF71CBAC9B2FFF7BB
:107B5000F9BF007C0022FEF71DBA0121FFF7F9BF33
:107B6000704710B51821044601F009FB204610BDEE
:107B7000F0B5037D062B8DB00E4600F104074FF0E3
:107B8000000412D000F1080515F8011D0A22304644
:107B900000F079F9AF42044419D0002CF4D02E2122
:107BA000304600F051F90444EEE72F236A46394687
:107BB0000A208DF80040FEF73DFA684601F008FF04
:107BC00033680246DB6869463046984704462046DB
:107BD0000DB0F0BD10B5054B0446112240F8043B32
:107BE000002101F0ADFE204610BD00BFE8A40B004F
:107BF0000346074A10B543F8042B01F1100251F86F
:107C0000044B43F8044B9142F9D10A781A7010BD25
:107C1000E8A40B00037D042B04D14068003818BF92
:107C200001207047062B07D143683BB983682BB905
:107C3000C3681BB90069F1E7002070470120704755
:107C400010B59DF8084044EA032343EA024242EAA1
:107C5000016104234160037510BD000007B5064BA8
:107C60000360CB7800938B784A780978FFF7E8FFB8
:107C700003B05DF804FB00BFE8A40B00014B024A0F
:107C80001A60704744E60320F4A40B000023406808
:107C90001A46FEF79DBB406800220221FEF7A8BBF2
:107CA000002240681146FEF79BBB00224068114647
:107CB000FEF7A6BB002340681A461946FEF7A8BB8C
:107CC000002340681A461946FEF7AABB4068002107
:107CD000FEF7DEBB40680021FEF7E2BB40680022F1
:107CE00081F00101FEF7A4BB40680022FEF7C0BB93
:107CF000002240681146FEF7C3BB002240681146CF
:107D0000FEF79EBB2DE9F04395B014460D4607469D
:107D1000FFF760FF00211C220DA8009101F010FE6A
:107D200040230C9320466B460CAA0021FEF7A2F9D3
:107D3000044600284BD1024601216868FEF760FB2B
:107D40000221804622466868FEF75AFB009E814663
:107D50002146002E3BD0002939D17368022B03D075
:107D60000A2B11D0F669F4E7B8F1000FFAD0716967
:107D700006A8043107ADFFF771FF0FCD3C1D0FC4FE
:107D80002B6823704146EDE7B9F1000FEAD0746922
:107D9000102201A801F0D4FD06238DF8143001ADA6
:107DA00004F108031834186859682A4603C20833D6
:107DB000A3421546F7D101A906A807ADFFF718FFA2
:107DC0000FCD3C1D0FC42B6823704946CAE70098AD
:107DD000FEF748F9384615B0BDE8F083024B034A78
:107DE0001A6000225A60704748E6032000A50B0085
:107DF000F8B506460D468F180024BD420CD03368F6
:107E000015F8011B9B6830469847031E01DB1C4494
:107E1000F3E7002C08BF1C462046F8BD13B5044606
:107E2000084659B1019101F0D3FD23680199DB683F
:107E30000246204602B0BDE81040184702B010BD0F
:107E400008B5FFF7EBFF08BD03689B6818470A6891
:107E50000B46126801461846104738B50D210546F5
:107E6000FFF7F2FF0A2104462846FFF7EDFF204402
:107E700038BD38B50546FFF7D1FF04462846FFF761
:107E8000ECFF204438BD30B58BB00023012A8DF8BB
:107E9000243098BF0A2209AC0D46B1FBF2F101FB78
:107EA000125303F0FF03092B94BF30333733DBB297
:107EB000AA4204F8013DEFD92146FFF7AFFF0BB00E
:107EC00030BD2DE9F04186B000AF05460E46381DA5
:107ED000142114463B60FEF70BFB13280ED8391D06
:107EE0002846FFF79BFF04461EB12846FFF7B5FF63
:107EF000044420461837BD46BDE8F08100F1080370
:107F000023F00703E846ADEB030D2246411C3B6816
:107F10006846FEF7EDFA69462846FFF77FFF0446FC
:107F2000C546E1E710B50446FEF724FC204610BD27
:107F30000348044A04490023836001F01BB900BFD1
:107F400050E6032060DA0320257F0B000021FEF7B6
:107F500011B90021FEF706B910B504460846217094
:107F6000FEF7E8F800236360204610BD13B5044611
:107F70000078FFF7EEFF58B9207801904FF6FF71B7
:107F8000FEF7B0F8019802B0BDE81040FFF7DEBF81
:107F900002B010BD13B5044600780191FFF7D9FF78
:107FA000019948B920780190FEF7A4F8019802B031
:107FB000BDE81040FFF7CABF02B010BD13B50446BC
:107FC00000780191FFF7C5FF019948B92078019029
:107FD000FEF798F8019802B0BDE81040FFF7B6BF71
:107FE00002B010BD400830B51860002418688842FF
:107FF000E5B206D90134082C02D040081860F5E734
:108000000725024B5B5D137030BD00BF34A50B002C
:108010002DE9F04188B000230446007802930E4613
:108020001746FFF796FF054600BB94F8008001460F
:10803000142203A801F084FC0B232A4603A940461E
:10804000ADF80C30FEF786F804988DF8075002ABB7
:108050000DF1070207FB06F1FFF7C4FF20789DF83A
:108060000710FEF757F82078FFF770FF029808B066
:10807000BDE8F08108B50078FEF754F8C0B208BD3D
:1080800010B504460068FEF71BFA204610BD10B577
:108090000446006808B1FEF713FA0023C4E901336F
:1080A000236010BD38B504460D4600680131FEF767
:1080B0000FFA10B1C4E90005012038BD10B50368FE
:1080C000044623B143688B4201D3012010BD2046F2
:1080D000FFF7E8FF0028F9D0A368002BF5D122684C
:1080E0001370F2E737B50D46114601920446FFF7CB
:1080F000E5FF019A28B92046FFF7C9FF204603B0E3
:1081000030BDA2602946206801F0F2FB2268A36816
:108110000021D154F2E7002313B5C0E9003304462F
:108120008360037341B10846019101F051FC01994C
:1081300002462046FFF7D6FF204602B010BD884217
:1081400010B5044605D00B682BB18A681946FFF7B5
:10815000C9FF204610BDFFF79AFFFAE710B50023CC
:108160000446C0E9003383600373FFF7E8FF20464D
:1081700010BD13B5044659B10846019101F028FC21
:10818000019902462046FFF7ADFF204602B010BD20
:10819000FFF77DFFF9E710B504468AB00023C4E974
:1081A0000033A3602373084601A900F061FE01A912
:1081B0002046FFF7DEFF20460AB010BD10B504468A
:1081C0008AB00023C4E90033A3602373084601A9E1
:1081D00000F0E5FD01A92046FFF7CBFF20460AB0DD
:1081E00010BD70B505460E4609B9002070BD6AB1D4
:1081F000846814442146FFF761FF0028F5D0286801
:10820000AB683146184401F0DBFBAC600120EDE7C0
:108210008A680968FFF7E5BF07B500238DF80410E9
:10822000012201A98DF80530FFF7DBFF03B05DF8EF
:1082300004FB13B50A220446084601A900F018FE03
:1082400001A801F0C5FB01A902462046FFF7C9FFBE
:1082500002B010BD10B58A6809680446FFF7C1FF77
:1082600010B92046FFF713FF204610BD13B5044692
:1082700029B92046FFF70BFF204602B010BD084683
:10828000019101F0A5FB019902462046FFF7A9FFE5
:108290000028EED0F0E710B50446FFF7CAFF10B98A
:1082A0002046FFF7F4FE204610BD08B582683AB9B3
:1082B00021B10878B0FA80F0400900E0012008BD43
:1082C000006809B90078F5E701F070FBF2E710B536
:1082D0008368934207D904680968A01801F09FFBDE
:1082E00008B1001B10BD4FF0FF30FBE70022FFF785
:1082F000EEBF0000F8B59A420F461D460C4988BFF4
:1083000013461446064684BF2C461D46FFF703FF5E
:10831000BB68A3420AD33968AB4294BFC4EB0302E3
:10832000C4EB050221443046FFF7DCFE3046F8BDC1
:108330006D9E0B0010B504468B68FFF7DBFF2046EF
:1083400010BD38B504460846A3688B4211D982B1E6
:1083500011448B4238BF1A1A2568991A1318A16064
:108360000A1AE918284401F0D1FA2268A36800210A
:10837000D154204638BD8268521AFFF7E2BF07B5D4
:108380000B4600210246009101208C21FDF7E6FFFB
:1083900003B05DF804FB01460020FFF7F0BF0020AA
:1083A000FFF7F9BF10B5094B094C02221A600020F3
:1083B000084BA360C4E90000FDF784FF2046064A8D
:1083C0000649BDE8104000F0D5BE00BF6CE60320B2
:1083D00060E603200000FFFF60DA0320DF400B00AF
:1083E00013B503688DF80710DC6B01224FF0FF33E3
:1083F0000DF10701A04702B010BD10B40368DC6B9B
:108400004FF0FF33A4465DF8044B604713B51346A5
:1084100002688DF80710D46B0DF107010122A04707
:1084200002B010BD10B54369B3F88620B3F88430AC
:108430009A42044608D06369B3F88420511CA3F81B
:1084400084101344187910BD03681B6998470028ED
:10845000F1D14FF0FF30F6E7704743691868C04329
:10846000C00F704770470000064B994210B500F1ED
:108470000C0405D0084600F089FE002808BF00243F
:10848000204610BD3CA40B0010B5AC21044600F002
:1084900076FE204610BDAC2100F071BE2DE9F04102
:1084A0004FF0000886B01C46C0F8048005460E4612
:1084B00017464146102202A801F042FA631C09D077
:1084C0004FF47A73B4FBF3F203FB1244CDE90228B4
:1084D0005C430494686910230093006802AB41F286
:1084E000050240F6FF71FDF7CDFD002807DAFEF723
:1084F0000FF803686B60002006B0BDE8F081686982
:10850000002300683A463146FDF7DCFD031EEEDB32
:108510001846F1E738B584690A4B036005467CB11B
:108520006368013B63605BB9236820469B6898479A
:10853000A368013BA3601BB923682046DB6898470A
:10854000284638BD78A50B0010B50446FFF7E2FFBA
:1085500020461C2100F013FE204610BD30B587B028
:10856000044601AD6846FFF779FB0FCD04340FC414
:108570002B68237007B030BD70B54D69054B0446BC
:108580008C3544F8043B06460FCD0FC42B6823708E
:10859000304670BDE8A40B002DE9F043984603680F
:1085A00093B00D460024DB6A0646174698472846D6
:1085B0006B46224621460094FDF75CFD05460028E7
:1085C00063D1009B002B4BD05B69002B48D006A8E1
:1085D000FFF700FB009B5C696378022B04D1211D2F
:1085E00006A8FFF7BBFF26E00A2B24D1112229465B
:1085F00001A801F0A5F9A368002B38D004F1080305
:108600000DF1040C183418685968624603C2083327
:10861000A3429446F7D1062301A90CA88DF8143083
:10862000FFF7E6FA0DF1340CBCE80F0007AC0FC4FD
:10863000DCF80030237006A8FFF7ECFA80B133684D
:1086400007ADD3F82090124B0C930FCD0DAC0FC497
:108650002B6823703A4643460CA93046C847054666
:108660000098FDF7FFFC284613B0BDE8F083E368EF
:10867000002BC3D14FF6FF70D4F81090FDF7E2FC49
:108680008145BBD104F11401AAE72546E8E700BF04
:10869000E8A40B0038B543691A68002A054610DAC9
:1086A000B3F88620B3F884309A420AD103681B6974
:1086B0009847044628B92B682846DB6A9847204625
:1086C00038BD0120FCE710B54369B3F88620B3F844
:1086D00084309A42044605D06369B3F88420134479
:1086E000187910BD03681B6998470028F4D14FF032
:1086F000FF30F6E7F8B543691746B3F88620B3F8BC
:1087000084309A4205460E4616D06969B1F8843025
:10871000B1F88640E41ABC4228BF3C4604332246E6
:108720001944304601F0E4F86A69B2F88430234411
:10873000A2F884302046F8BD03681B6998470028DA
:10874000E3D14FF0FF34F5E742690023A2F884300B
:108750004269A2F8863070472DE9F0411F46036850
:108760000C46DB6A8AB0054616469847237DD5F845
:108770001480042B0CBF02200A2006220121FDF7E1
:10878000A9FCC8F800006B691B68002B08DA2B688D
:108790002846DB6A0024984720460AB0BDE8F081ED
:1087A0002846FFF7D1FFB7B1002303A9F8B203931E
:1087B000ADF81030FDF736FC0028E8D168690623D3
:1087C0000093006803AB41F20B0240F6FF71FDF726
:1087D00059FC0028DBD11C22002103A801F0B0F8CD
:1087E000237D042B1DD14FF407733046ADF80C30B8
:1087F000FDF730FCADF80E006068FDF723FC049037
:108800006B691C22186803A9FDF74CFC0028BED137
:1088100004340FCC6D698C350FC523682B7001248F
:10882000BAE740F61C233046ADF80C30FDF712FCD9
:1088300005AEADF80E00231D04F114071868596841
:10884000324603C20833BB421646F7D1D8E70000D0
:1088500030B54269B2F886308BB004462BB1B2F81D
:1088600084209A4201D1FFF76FFF616908680028F0
:1088700018DBB1F886507F2D14D804310823C5F1D8
:1088800080022944FDF716FC002813DD6369B3F864
:1088900086200AB9A3F884206369B3F886201044BF
:1088A000A3F886006369B3F88600B3F88430C01A71
:1088B0000BB030BDFDF72CFE03680B2BF2D0FDF79B
:1088C00027FE03680B2BEDD020230025CDE90235D0
:1088D000FDF71EFE03680193084B0949009302AAA5
:1088E0002B463220FDF7DEFC63691868FDF7D2FBEA
:1088F00063694FF0FF321A60D4E700BF43A50B0055
:108900003CA50B0010B5436904461868002801DB3C
:10891000FDF7C0FB63694FF0FF321A6060691122F6
:1089200000218C3001F00CF82046BDE81040FFF724
:108930000BBF10B5002304460160C0F884308830B6
:10894000FFF748F9204610BD73B500234FF47A7243
:10895000C0E901320E4A0361026043610446AC2063
:108960000191FBF798FB051E05F10C0608D00123C9
:10897000C5E90133074B01992B603046FFF7D9FF5A
:108980002046C4E90565FFF7DFFE02B070BD00BFF9
:1089900078A50B005CA50B0010B54FF0FF31044625
:1089A000FFF7D2FF204610BD10B50446006800282E
:1089B00001DBFDF76FFB204610BD0C30FFF7F4BF65
:1089C00008B50020FDF7F4FC28B1FDF7E1FC80F0CC
:1089D0000100C0B208BD0120FCE7000030B593B033
:1089E000CDE90023194B0446D3E90010019B52182E
:1089F00043EB00031648D0E90010521843EB000384
:108A0000CDE9002324220DEB0200002100F098FFA5
:108A1000002509A96846FDF793FD1622294603A8FB
:108A2000029500F08DFF02A909A800F005FF02A839
:108A300000F0CEFF12AB184402A900F8415C2046BA
:108A4000FFF769FB204613B030BD00BF80E603206E
:108A500078E6032010B50020FDF75CFA0446A0B9C3
:108A6000FDF728FC012810D12046FDF75BFC60B91A
:108A7000FFF7A6FF10B9FDF77BFCF9E7FFF7A0FFB2
:108A8000BDE810400020FDF745BA204610BD1FB5D7
:108A9000FFF7E0FF10220021684600F051FF00219F
:108AA0006846FDF73FFA009805B05DF804FB00004A
:108AB000024B1A68024B1A60704700BFF4D90320BA
:108AC00070E6032070474174704708B5007CFDF7DD
:108AD00091FB20EAE07008BD08B5007CFDF762FB61
:108AE00020EAE07008BD08B5007CFDF76BFB40EAAA
:108AF000E07008BD08B5007CFDF75CFB40EAE07063
:108B000008BD007CFDF766BB37B5457C04462DB13A
:108B1000207C03B0BDE83040FDF73CBB007C0191F8
:108B2000FDF768FB00280199F2DC284603B030BD50
:108B300010B51421044600F022FB204610BD0000B1
:108B400010B54FF0000C0446084611464FF47A72F7
:108B5000C4E901C2044A22600122207462741A46E8
:108B6000FDF710FB204610BDE0A50B0013B50E4C21
:108B70002178BFF35B8F11F0010112D120460191E2
:108B8000FBF78FFA019960B1084A094B0948FFF7D2
:108B9000D7FF2046FBF78AFA074A0849054800F044
:108BA000E9FA044802B010BD88E603208CE60320F1
:108BB00010E7032094E7032060DA0320C58A0B0046
:108BC00041747047704708B50021007CFDF73AFBFF
:108BD00040EAE07008BD08B50121007CFDF732FBDA
:108BE00040EAE07008BD08B5007CFDF723FB20EAF1
:108BF000E07008BD08B5007CFDF714FB20EAE070CA
:108C000008BD13B50446007C0191FDF713FB002855
:108C1000019901DC607C20B1207CFDF71BFB20EA80
:108C2000E07002B010BD007CFDF71CBB10B5142134
:108C3000044600F0A4FA204610BD000010B54FF421
:108C40007A73044608460021C4E90113044B2360EB
:108C50000123207463741146FDF7D4FA204610BD39
:108C600010A60B00007C0022FDF7D4BA007CFDF7B3
:108C700001BB10B514220446002100F061FE20461D
:108C800010BD000010B5104C88B003A8FFF7F1FF2D
:108C90002178BFF35B8F11F0010111D120460191C2
:108CA000FBF7FFF9019958B103AA0848FFF7C6FF7F
:108CB0002046FBF7FBF9064A0649044800F05AFA39
:108CC000024808B010BD00BFA8E70320ACE70320AE
:108CD00060DA0320C58B0B0030B5D1E90132934235
:108CE00010DA0D685A1C4A600446382202FB03550C
:108CF0000FCC0FC50FCC0FC50FCC0FC594E80300E8
:108D000085E8030030BD002240681146FDF798BB9E
:108D1000002240681146FDF7B3BB40680022FDF712
:108D2000A7BB4068002281F00101FDF781BB002252
:108D300040681146FDF754BB406800220221FDF750
:108D400057BB00001FB5002301910648029301A9FB
:108D50000392FDF797FA039B9842A8BF184605B007
:108D60005DF804FBD98C0B00024B04225A60024AC6
:108D70001A607047C0E7032040A60B0010B50446F8
:108D800000F026FE013823182046834206D90278D7
:108D9000197800F8011B03F80129F6E710BD2DE949
:108DA000F041931E8CB0222B4FF000030D46144669
:108DB0008DF82C3027D900282ADA2E462D2306F8E4
:108DC000013B40420A240DF12B074FF001082246D7
:108DD000014601A800F068FD029B0198092BCCBF59
:108DE0003722302252FA83F307F8013908F10108DB
:108DF0000028ECD14246791C304600F079FD284627
:108E00000CB0BDE8F0810A2AD5D018B12E46DAE7B9
:108E10000A24FAE730238DF82B302E460DF12A076D
:108E20004FF00208E6E770B50C46911E22291DD8C6
:108E3000254630B9234430229D4210D205F8012B3B
:108E4000FAE7B0FBF2F602FB1600C1B2092894BFA4
:108E500030315731C9B205F8011B3046E9E700232C
:108E600020462B70FFF78AFF204670BD0020FCE7EC
:108E700038B5031E0C4615460EDAB3F1004F4FF01D
:108E80002D0214BF5842184601230A702A4619447D
:108E9000FFF7C9FF204638BD0123F9E7014B1860F1
:108EA000704700BFF8D9032008B50B4B43B1FFF75B
:108EB000E9FE03681B699847002801DDAFF30080D5
:108EC000064B43B1FFF752FE03681B699847002821
:108ED00001DDAFF3008008BD0000000000000000CD
:108EE00008B5FFF7E1FFFCF7F5FF014B186008BD7F
:108EF000D0E703200548064A064908B5121A00F0D3
:108F0000F7FC054B054A1A6008BD00BF00F40320BA
:108F100004F4032060A90B0000F403201E1C279A10
:108F200007B5002300931A466FF07701FDF70CFA9E
:108F300003B05DF804FB000007B543880A2B08D096
:108F4000502B0BD1094B1B684BB103B05DF804EB00
:108F50001847FFF7E5FF03B05DF804FB002300931B
:108F60001A466FF07701FDF7EFF9F4E7CCE703203D
:108F700010B512480021FDF7DBFA114B1A68114BAE
:108F80009A42114B0CBF012200221A7001D0FFF748
:108F9000B1FFFCF78FFF044600F0DAFC0B4B13B176
:108FA0002046AFF3008000210848FDF709FABDE82C
:108FB000104007480021FDF7BDB900BF9D8E0B0092
:108FC00000F403201E1C279AC8E7032000000000BD
:108FD000398F0B00232813B502D9002002B010BD31
:108FE000A0F10B03022B1AD8174C2178BFF35B8F2B
:108FF00011F001010BD120460191FBF752F80199C4
:1090000028B11248FEF7A8FF2046FBF74FF80F4B98
:109010001878FDF797F80028DFD10120DEE7012856
:1090200009D800F07FF80021007CFCF7E3FF80F016
:109030000100C0B2D2E709380128EED8FFF796FD4B
:10904000007CFDF7CFF8F2E720E6032024E60320BA
:10905000232838B504460D460AD8FF2908D0FFF763
:10906000B9FF28B129462046BDE83840FCF762BF69
:1090700038BD38B504460D46FCF764FFFF2810D014
:10908000062804D84D2323FA00F0C30709D420464C
:10909000FFF7A0FF28B129462046BDE83840FCF77D
:1090A00059BF38BD10B50446FCF74CFF031FDBB2B7
:1090B000012B08D92046FFF78DFF20B12046BDE8DF
:1090C0001040FCF74FBF002010BD000010B5084C49
:1090D0002378BFF35B8FDB0708D42046FAF7E1FF64
:1090E00020B1FCF7FFFE2046FAF7E0FF014810BD73
:1090F000D4E70320D8E7032038B5202514230446FD
:109100000360856005610649284600F03AF8044985
:109110006060284600F035F8E060204638BD00BFAA
:1091200074A60B0030B50F4D2978BFF35B8F11F09B
:10913000010487B013D12846FAF7B3FF78B101A82C
:10914000FFF7DAFF01AA21460748FEF7B7FC2846D9
:10915000FAF7ACFF054A0649034800F00BF802484D
:1091600007B030BDDCE70320E0E7032060DA03202E
:10917000657A0B000B460146184600F087BBFAF7EC
:109180008EBFFAF78ABF08B5FDF7BAF9014900F0BA
:10919000F9B800BF90A60B007FB500241023CDE9DD
:1091A0000234036815469E6912686B46CDE9004497
:1091B000B0479DF8043003F00603062B03BF009B65
:1091C0002B600120204604B070BD0098904214BF6F
:1091D000012006207047000010B5034B03600446D1
:1091E00000F0CDF8204610BDD0A60B0010B5044607
:1091F000FFF7F2FF20460821FFF7C1FF204610BD10
:109200002DE9F0411F46DDE90834DDF81880984566
:109210000646154607D1079900F0B4F818B16571F4
:109220000020BDE8F0813946304600F0ABF8002858
:10923000F6D00123C4F800802571A371F0E738B59A
:1092400015461C4600F09EF820B10823E360062373
:109250002560237138BD73B505460C4601921E4644
:1092600000F090F850B9032E08D82368019A5B6982
:109270002946204602B0BDE87040184702B070BDD4
:1092800010B5034B03600446FFF7A6FF204610BD50
:1092900030A70B0010B50446FFF7F2FF20460C2163
:1092A000FFF76DFF204610BDF7B5089F97420546B2
:1092B0000E4614460AD0A86802680897156A314617
:1092C0002246AC4603B0BDE8F04060471946019322
:1092D00000F058F8019B0028EDD0062003B0F0BD47
:1092E0002DE9F14F0D461946DDE90A4BDDE90CA6E3
:1092F00081461746984600F045F890B1002D34603D
:10930000377109DB61198A450CBF06210121B17152
:10931000002001B0BDE8F08F0235F9D10123B3710F
:10932000F6E7544506D15946484600F02BF808B1F7
:109330007771EDE7D9F808000368CDE90CA6CDE90F
:109340000A4BDC693A4643462946A44601B0BDE8CB
:10935000F04F60472DE9F04107460C4615461E4682
:10936000FFF76DFF48B9B86803689F692A4633461E
:109370002146BC46BDE8F0416047BDE8F08170473A
:1093800000207047814208B50ED0406803782A2B30
:109390000CD049680B782A2B08BF013100F006FB7E
:1093A000B0FA80F0400908BD0120FCE70020FAE790
:1093B00081F0004102E000BF83F0004330B54FEA86
:1093C00041044FEA430594EA050F08BF90EA020FF3
:1093D0001FBF54EA000C55EA020C7FEA645C7FEA86
:1093E000655C00F0E2804FEA5454D4EB5555B8BFA9
:1093F0006D420CDD2C4480EA020281EA030382EA1A
:10940000000083EA010180EA020281EA0303362DAB
:1094100088BF30BD11F0004F4FEA01314FF4801C7E
:109420004CEA113102D0404261EB410113F0004F90
:109430004FEA03334CEA133302D0524263EB430347
:1094400094EA050F00F0A780A4F10104D5F1200EE5
:109450000DDB02FA0EFC22FA05F2801841F1000140
:1094600003FA0EF2801843FA05F359410EE0A5F114
:1094700020050EF1200E012A03FA0EFC28BF4CF045
:10948000020C43FA05F3C01851EBE37101F00045FB
:1094900007D54FF0000EDCF1000C7EEB00006EEB08
:1094A0000101B1F5801F1BD3B1F5001F0CD3490892
:1094B0005FEA30004FEA3C0C04F101044FEA4452E9
:1094C00012F5800F80F09A80BCF1004F08BF5FEA70
:1094D000500C50F1000041EB045141EA050130BD50
:1094E0005FEA4C0C404141EB0101013C28BFB1F562
:1094F000801FE9D291F0000F04BF01460020B1FAAD
:1095000081F308BF2033A3F10B03B3F120020CDA7F
:109510000C3208DD02F1140CC2F10C0201FA0CF05D
:1095200021FA02F10CE002F11402D8BFC2F1200CC2
:1095300001FA02F120FA0CFCDCBF41EA0C01904078
:10954000E41AA2BF01EB0451294330BD6FEA0404C1
:109550001F3C1CDA0C340EDC04F11404C4F12002AC
:1095600020FA04F001FA02F340EA030021FA04F3BE
:1095700045EA030130BDC4F10C04C4F1200220FA15
:1095800002F001FA04F340EA0300294630BD21FA53
:1095900004F0294630BD94F0000F83F4801306BF19
:1095A00081F480110134013D4EE77FEA645C18BF0D
:1095B0007FEA655C29D094EA050F08BF90EA020FA4
:1095C00005D054EA000C04BF1946104630BD91EA9C
:1095D000030F1EBF0021002030BD5FEA545C05D19F
:1095E0004000494128BF41F0004130BD14F58004DE
:1095F0003CBF01F5801130BD01F0004545F0FE4152
:1096000041F470014FF0000030BD7FEA645C1ABF86
:10961000194610467FEA655C1CBF0B46024650EABD
:10962000013406BF52EA033591EA030F41F40021E9
:1096300030BD00BF90F0000F04BF0021704730B56F
:109640004FF4806404F132044FF000054FF0000144
:1096500050E700BF90F0000F04BF0021704730B505
:109660004FF4806404F1320410F0004548BF4042DA
:109670004FF000013EE700BF42004FEAE2014FEA2F
:1096800031014FEA02701FBF12F07F4393F07F4F0A
:1096900081F06051704732F07F4208BF704793F00D
:1096A0007F4F04BF41F40021704730B54FF4607420
:1096B00001F0004521F000411CE700BF50EA010223
:1096C00008BF704730B54FF000050AE050EA0102CC
:1096D00008BF704730B511F0004502D5404261EB3C
:1096E00041014FF4806404F132045FEA915C3FF47D
:1096F000D8AE4FF003025FEADC0C18BF03325FEA1A
:10970000DC0C18BF033202EBDC02C2F1200300FACA
:1097100003FC20FA02F001FA03FE40EA0E0021FAEF
:1097200002F11444BDE600BF4FF0FF3C06E000BF6D
:109730004FF0010C02E000BF4FF0010C4DF804CDDA
:109740004FEA410C7FEA6C5C4FEA430C18BF7FEA9A
:109750006C5C1BD001B050EA410C0CBF52EA430CC8
:1097600091EA030F02BF90EA020F0020704710F148
:10977000000F91EA030F58BF994208BF90422CBFD7
:10978000D8176FEAE37040F0010070474FEA410CD0
:109790007FEA6C5C02D150EA013C07D14FEA430CEE
:1097A0007FEA6C5CD6D152EA033CD3D05DF8040B5F
:1097B000704700BF8446104662468C461946634691
:1097C00000E000BF01B5FFF7B7FF002848BF10F168
:1097D000000F01BD4DF808EDFFF7F4FF0CBF0120AD
:1097E00000205DF808FB00BF4DF808EDFFF7EAFF29
:1097F00034BF012000205DF808FB00BF4DF808EDE4
:10980000FFF7E0FF94BF012000205DF808FB00BFD8
:109810004DF808EDFFF7CEFF94BF012000205DF862
:1098200008FB00BF4DF808EDFFF7C4FF34BF01206F
:1098300000205DF808FB00BF10B50C4641690369C4
:10984000826986B001F26C710491016803914168EC
:10985000029181680191C1680091074903EB4303BC
:109860000B44064902EB42020A4420460449FCF735
:1098700037FE204606B010BD9EA70B0089A70B003F
:1098800069A70B000A22002100F062B910B5054C4F
:1098900013462CB10A4601460220AFF3008010BDEA
:1098A0002046FCE700000000002910B591FBF2F40F
:1098B00002FB141306DB002B01DA01349B1AC0E90A
:1098C000004310BD002BC4BF04F1FF349B18F6E722
:1098D00010B501390244904201D1002005E003781F
:1098E00011F8014FA34201D0181B10BD0130F2E75F
:1098F0000A44914200F1FF3300D1704710B511F8CE
:10990000014B03F8014F9142F9D110BD884210B5C7
:1099100001EB020402D98442234607D8431EA14228
:1099200008D011F8012B03F8012FF8E70244014693
:109930008A4200D110BD13F8014D02F8014DF7E73E
:1099400002440346934200D1704703F8011BF9E734
:1099500038B5104B1D68AB6B0446B3B91820FCF743
:10996000A7FD0246A86320B90B4B0C484221FCF727
:10997000D7FD0B490B4BC0E900130B4B83600B2346
:10998000838100210120C2E90401AB6B00221C612C
:109990005A6138BDF8D90320C2A70B00D9A70B0024
:1099A0000E33CDAB34126DE6ECDE050010F8012B62
:1099B00011F8013B012A28BF9A42F7D0D01A70470C
:1099C000034611F8012B03F8012B002AF9D1704747
:1099D000034613F8012B002AFBD1181A01387047EF
:1099E00010B50139034632B111F8014F03F8014BAC
:1099F000013A002CF7D11A440021934200D110BD46
:109A000003F8011BF9E710B5024601448A421346E8
:109A100003D01C780132002CF8D1181A10BD0A7836
:109A200070B56AB970BD9A4209D10C46054614F862
:109A3000013F002BF6D015F8016F9E42F7D00130A0
:109A40000378002BEFD11846ECE70000012B2DE93D
:109A5000F04701D0242B06D9FCF75AFD16230360EA
:109A60000020BDE8F087DFF8E4C00D462E4615F86B
:109A7000014B14F80C7017F00807F7D12D2C32D1D8
:109A80002C780127B51C002B5BD0102B09D1302C72
:109A900007D12C7804F0DF04582C4DD16C781023BA
:109AA000023507F1004808F1FF384FF0000CB8FB11
:109AB000F3F9664603FB198AA4F1300EBEF1090FD3
:109AC00016D87446A34224DDBCF1000F1EDBB1455D
:109AD0001CD301D1A24519DB06FB03464FF0010C54
