:02000002B0004C
:1040000000400B00C0B00B00000006000C000502D1
:0840100004011F0C0000000078
:0440180028A10B00D0
:1040200009480A49884208B505D0094A824202D0A7
:10403000121A05F03FFF0748074A0021121A05F03F
:1040400061FF014808BD00BFA8D9032014B00B00D0
:104050002CDA032030DA0320F4E7032070B5074E92
:10406000074C05F065FAA41BA4080025A54200D161
:1040700070BD56F8043B98470135F7E7ECAF0B00ED
:1040800010B00B0000F08ABC08B500F0BDFCBDE824
:10409000084005F005BA02F05BBC02F059BC02F022
:1040A0005FBC0078B0FA80F04009704701230370CC
:1040B0007047704710B50446043004F031FA2046CA
:1040C00010BD10B504463C3004F02AFA04F1280073
:1040D00004F026FA204604F023FA204610BD10B55D
:1040E0000446006808B102F03BFC204610BD38B51C
:1040F0000446006928B185680C2105F020FB28469C
:10410000F8E7204638BD10B504463AB903689B6805
:1041100098472046BDE8104004F0EFB8D2B204F052
:1041200002F9F6E770B505460C46164642B9036833
:10413000C9B29B6898472846BDE8704004F0DDB8D6
:1041400000290ADA0A2A08D12D2104F0CDF86142AB
:10415000F2B2284604F0E7F8EDE72146F8E708B5A3
:104160000021022002F004FBBDE8084002F0D0B8B4
:1041700038B584690A4B036005467CB16368013B2E
:1041800063605BB9236820469B689847A368013B3E
:10419000A3601BB923682046DB689847284638BDD2
:1041A00030AC0B000EB403B503AB012153F8042B64
:1041B000019304F0D6F802B05DF804EB03B0704749
:1041C000002340681A46194602F06ABB0023406883
:1041D0001A46194602F06CBB002340681A4602F0EA
:1041E0003FBB00224068114602F052BB10B5074C9D
:1041F0000749204604F00DFA5023A36304F1280078
:104200000449BDE8104004F004BA00BF50E00320A8
:104210003CA10B0048A10B0038B50C46054605F043
:1042200061FA182103F0E2FE05F05CFA0368294602
:104230009B68984705F056FA036821469B689847A3
:1042400005F050FABDE8384003F0D7BE10B504467B
:1042500005F048FA182103F0C9FE05F043FA036897
:1042600021469B68984705F03DFA03F0C6FE05F02D
:1042700039FA0122182103F0B2FE05F033FA03687F
:10428000BDE810405B69184708B52120FFF7DEFF45
:104290002620FFF7DBFF3120FFF7D8FF5721202032
:1042A000FFF7BAFF09212120FFF7B6FF40212220A6
:1042B000FFF7B2FF00212320FFF7AEFF08212420E3
:1042C000FFF7AAFF10213220FFF7A6FF00213320BD
:1042D000FFF7A2FFBDE808402A213020FFF79CBF6E
:1042E00038B5274D274C05F0D1F904222946642022
:1042F00002F03EF805F0CAF923490422002002F03A
:1043000037F805F0C3F904222146C82002F030F83E
:1043100005F0BCF91D4904224FF4967002F028F80C
:1043200023684FF47A7293FBF2F3236004F08AFF60
:104330002A681749FFF736FF04F084FF2268154901
:10434000FFF730FF2B68013304BF4FF4FA732B6083
:104350002368013304BF0F2323600C4B1A6801321A
:1043600004BF05221A60084B1B68013306D104F014
:1043700069FFBDE83840084903F0CBBF38BD00BF36
:1043800040E0032044E0032094DA0320E0E003202F
:104390004AA10B0060A10B0076A10B00074B084A55
:1043A0001B684FF47A7043431068064A93FBF0F39E
:1043B00010688342CCBF002001207047E0E003205A
:1043C00040E00320E4E0032010B500210446022071
:1043D00002F0CEF901F0A4FF204610BD30B504462E
:1043E00089B06548644DFFF7EBFE63480021FFF795
:1043F000F3FE2846FFF7F5FE18B9642002F0F8FA3C
:10440000F7E75D48FFF7EDFEA8B904F01BFF049045
:10441000FFF7A5FE04F016FF584903F07AFF04A841
:10442000FFF7D2FF5648214604F042F95248FFF701
:10443000CDFE09B030BD04F005FF0490FFF78FFEFC
:1044400004F000FF4F4903F064FF04A8FFF7BCFF2E
:104450004D494B4804F079F9E8B904F0F3FE0390B4
:10446000FFF77DFE04F0EEFE4849054604A804F07F
:10447000A2F8434904A804F03DF90168284603F076
:1044800048FF04A804F04CF803A8FFF79DFF3C493F
:10449000204604F00DF9A1683D4D0139204604F095
:1044A000BAF93C4904A804F086F8214604A804F0AF
:1044B00021F9394904F02AF90146384804F08FF807
:1044C00004A804F02DF804F0BDFE0490FFF747FEA9
:1044D000334B344900932A46334B344801F072FC85
:1044E00004A8FFF771FF04F0ADFE0490FFF737FE5C
:1044F00004F0A8FE2B682E49194403F00AFF04A813
:10450000FFF762FF04F09EFE0390FFF728FE04F021
:1045100099FE2849044604A804F04DF8291D04A872
:1045200004F0E8F80168204603F0F3FE04A803F065
:10453000F7FF03A8FFF748FF04F084FE0390FFF79E
:104540000EFE04F07FFE1C49044604A804F033F874
:10455000124904A804F0CEF80168204603F0D9FE01
:1045600004A803F0DDFF03A8FFF72EFF0649044867
:1045700004F04FF85AE700BFC0E70320A5A10B00E5
:10458000B0E00320CFA10B00C7A40B00EEA10B00ED
:104590009CE0032001A20B000BA20B008CE0032087
:1045A0000EA20B0050E00320ACD903209CDA0320BC
:1045B00013A20B001FA20B001CA20B002DE9F04F51
:1045C000DFF81CA13C4C8DB0DAF800304FF47A7261
:1045D00053433A4A126893FBF2F32268934267DC32
:1045E000374FDFF800913868DFF8FC80DFF8FCB067
:1045F00001F06EFE334B00252268AA4235DD1946D4
:1046000004A803F0D8FF304B0A221968684604F06A
:1046100012F8694604A804F06DF8594604F076F8DB
:1046200019F8011B04F087F8284904F06FF80A22F2
:1046300058F8041B064608A804F010F808A93046EC
:1046400004F058F8224904F061F80146214804F0CA
:104650002FF808A803F064FF684603F061FF04A880
:1046600003F05EFF0135174BC6E7002319492360AD
:1046700004A803F0C3FF184D1849164803F0C9FFFA
:10468000386801F02DFE286801F022FE04A908A870
:1046900003F0B4FF08A8FFF7A1FE08A803F040FF4D
:1046A000286801F01DFEFFF7EFFD04A803F038FFB6
:1046B00001F0FEFD88E700BFF8E5032040E003209D
:1046C00030E0032026A20B0094DA03203AA20B006C
:1046D00049A20B0020E0032048E00320C7A40B0000
:1046E00044E00320F8E40320F8E003202FA20B00AD
:1046F00037B500220121032002F042F801210720F2
:1047000004F086FF2B4D0021072004F092FF0021CA
:10471000022004F07DFF2B7D9BB102232B722B68BE
:10472000DB687BB39A88012A06D09B68F9E79B680F
:1047300043B39A88012AFAD19A89022AF7D1012231
:104740009A7304F07FFD04F071FD0028F9D01A4837
:10475000182101F072FA80B94FF47A7002F048F92A
:1047600004F070FD0190FFF7FAFC04F06BFD1349B3
:1047700003F0CFFD01A8FFF727FE03B0BDE83040EE
:10478000FFF782BD0E49102004F0DBFF044670B134
:104790001022002105F0B6FB2A690A4B2360A260B3
:1047A00001230222A380A281A3732C61C9E728758B
:1047B000C7E700BFC8E00320B8DE03204CA20B000F
:1047C0002CAD0B001000030007B50B4B00221A6044
:1047D00004F038FD0190FFF7C2FC04F033FD0749F7
:1047E00003F097FD01A8FFF7EFFD0121072003B0BB
:1047F0005DF804EB04F01DBF8CDA03201BA30B0053
:1048000007B504F01FFD0190FFF7A9FC04F01AFDA5
:10481000064903F07EFD01A8FFF7D6FD0021072021
:1048200003B05DF804EB04F004BF00BF68A20B0006
:104830001FB504F007FD0190FFF791FC04F002FDA5
:104840000F49104C03F065FD01A8FFF7BDFD642082
:1048500002F0CEF8206801F03BFD01A80A4904F0FF
:1048600021F8019808B102F07BF8084B00221A6089
:10487000FFF70AFD206804B0BDE8104001F030BD2C
:1048800075A20B0048E00320C8E00320E4E0032009
:1048900030B53D483C4D87B0FFF792FC3A480021C7
:1048A000FFF79AFC44F620642846FFF79AFC98B973
:1048B00094B1642002F09CF804F0C4FC643C0290C3
:1048C000FFF74DFC04F0BEFC0A222146FFF72AFC4C
:1048D00002A8FFF779FDE7E72B48FFF782FC0028E5
:1048E00045D004F0AFFC0290FFF739FC04F0AAFCBD
:1048F000264903F00EFD02A8FFF766FD01F088FFD0
:1049000001F08EFF0028FBD001F08AFF10B10020DB
:1049100001F08EFF1E4C01F083FF48B1002001F032
:104920008FFF28B101F014FD206001F069FFF2E76C
:1049300004F088FC0190FFF712FC04F083FC0446AD
:1049400004F085FBC317024602A804F027FB029A75
:1049500010492046FFF726FC02A803F0E1FD01A85C
:10496000FFF732FD0848FFF731FC07B030BD04F017
:1049700069FC0290FFF7F3FB04F064FC064903F0C6
:10498000C8FC02A8ECE700BFC0E703209BA20B0015
:10499000D0E70320B8A20B00CCA20B0037B5144C13
:1049A000144D04F04FFC4FF4165104F03BFCFFF79C
:1049B0009FFEFFF71BFCFFF793FCFFF769FF204604
:1049C00001F07EFC284601F07BFC284601F088FCC3
:1049D000204601F085FC00234FF48062CDE90032CF
:1049E0000549064B0648022201F05AFC03B030BDCF
:1049F00030E0032048E0032002A30B00BD450B007C
:104A00004CE00320000000002DE9F04F2DED028B5B
:104A1000C34E357897B03DB1012D00F0BF8017B07F
:104A2000BDEC028BBDE8F08F04F00CFC0D90FFF79D
:104A300096FB04F007FCBB4903F06BFC0DA8FFF7E5
:104A4000C3FC02F00DFC02F059FC02F009FCB64A6E
:104A500001460DA803F0FCF80DA802F0EAFC02F0F4
:104A6000FFFBB24A01460DA803F0F2F80DA802F0D0
:104A7000E0FC0DA802F05DFAAD4903A802F05EF972
:104A800003A908A802F05AF908A802F09DF9044603
:104A900008A8002C3AD102F0B3F90094ADF80A004E
:104AA00002230DF10A0203210DA802F037FA02F0E9
:104AB000D7FB00220DA902F041FC02F0D1FB9D4979
:104AC000002202F0C8FF02F0CBFB9B49002202F05B
:104AD000A3FF41F2883402F0C3FB02F042FC00B9AC
:104AE000DCB902F0BDFB02F03CFC944C40BB2070F2
:104AF00004F0A8FB0890FFF732FB04F0A3FB9049F9
:104B000003F007FC08A8FFF75FFC28E002F07AF941
:104B10000095024610230721C6E704F093FB0A3CE8
:104B20000890FFF71CFB04F08DFB0A222146FFF7DB
:104B3000F9FA08A8FFF748FC0A2001F059FFCAE774
:104B400004F080FB0890FFF70AFB04F07BFB7D4933
:104B500003F0DFFB08A8FFF737FC012323707A4D31
:104B6000237883B104F06EFB0890FFF7F8FA04F0A5
:104B700069FB294603F0CDFB08A8FFF725FC64205C
:104B800001F036FFECE702F06BFB02F073FE02F07F
:104B900067FB02F0D8FC0123337040E704F052FBBE
:104BA0006A4C0D90FFF7DBFA04F04CFB6849DFF824
:104BB000D4B1DFF8D491674FDFF8D0A1DFF8D0810E
:104BC00003F0A7FB0DA8FFF7FFFB204600F054FF02
:104BD000614BD4ED037AD4ED048A94ED058A1A78FA
:104BE000CBED007AC9ED008A87ED008A002A40F0FB
:104BF000DD809AED007A594C594D266877EEC77AD8
:104C0000F0EEE77A17EE900A05F018F842A3D3E920
:104C1000002305F0E9F8002878D1D8ED007A78EE85
:104C2000E78AF0EEE87A17EE900A05F007F83AA363
:104C3000D3E9002305F0D8F8002867D1494BD3ED1C
:104C4000007A38EE678AF0EEC87A17EE900A04F020
:104C5000F5FF31A3D3E9002305F0C6F8002855D1AC
:104C6000A855354415F8013C002B00F093802568C9
:104C700004F0EDF93C4B43F8250004F0E3FA0D9005
:104C8000FFF76DFA04F0DEFA22683849FFF78AFA76
:104C90000DA8FFF799FB23680133236004F0D2FAD3
:104CA000334C0D90FFF75BFA04F0CCFA314903F076
:104CB00030FB0DA8FFF788FB206801F009FB0120FD
:104CC00001F096FE206801F00BFB04F0BBFA0D909A
:104CD000FFF745FA04F0B6FA274903F01AFB0DA8CE
:104CE000FFF772FBDBF800301E4ACAF80030D9F833
:104CF0000030C8F800303B681360204B186817B0CC
:104D0000BDEC028BBDE8F04F01F072BE0123AB5544
:104D10001B4B00221A60AAE79A9999999999A93F81
:104D200098DA03200FA30B00FCE50320C0E003206A
:104D300040DA0320C9470B0001480B0090DA03203A
:104D400025A30B0017A30B0059A30B00B8DE03200B
:104D5000B9A30B0020E60320A8D90320F8E503201F
:104D6000F8E403203CE00320F8E003206AA30B00F2
:104D700030E003207EA30B009BA30B0040E0032048
:104D8000E4E0032018E603201CE6032034E00320BF
:104D900038E003200B4A136801331360FFF7FEFA73
:104DA00000283FF464AFFFF743FD60E700221A706C
:104DB00004F048FA0D90FFF7D2F904F043FA0249E3
:104DC0008BE700BFE4E00320C3A30B002DE9F04F05
:104DD000AF4D95B007460C46AE48AF4903F019FCFD
:104DE0002B68072B00F20E81DFE813F07D01C8006D
:104DF000A7008C006A004800230008003C447E1E87
:104E0000A44F023CB44200F03E8304F01BFA019030
:104E1000FFF7A5F904F016FA16F8011F0A22FFF7AA
:104E200072F901A8FFF7D0FA3178384603F044FC54
:104E3000E8E73C447E1EDFF85C82984F023CA642C5
:104E400000F0F68204F0FEF90190FFF788F904F013
:104E5000F9F90A2216F8011FFFF755F901A8FFF723
:104E6000B3FA31788B4803F027FCD8F8000004F03F
:104E7000EBFF4FF47A7358433860E0E73C447E1E02
:104E8000DFF81082864F023CA64200F0558204F003
:104E9000D9F90190FFF763F904F0D4F90A2216F862
:104EA000011FFFF730F901A8FFF78EFA3178794832
:104EB00003F002FCD8F8000004F0C6FF3860E3E716
:104EC0003C447E1EDFF8CC81764F023CA64200F0C7
:104ED000EC8104F0B7F90190FFF741F904F0B2F961
:104EE0000A2216F8011FFFF70EF901A8FFF76CFA66
:104EF0003178684803F0E0FBD8F8000004F0A4FF24
:104F00003860E3E73C447E1E624F023CA64200F05C
:104F1000928104F097F90190FFF721F904F092F9DA
:104F200016F8011F0A22FFF7EEF801A8FFF74CFA66
:104F30003178384603F0C0FBE8E73C447E1EDFF8DA
:104F40008481544F023CA64200F00D8104F07AF9AE
:104F50000190FFF704F904F075F916F8011F0A2211
:104F6000FFF7D1F801A8FFF72FFA3178384603F0A0
:104F7000A3FB3946404603F032FBE4E73C447E1E87
:104F8000DFF83481434F023CB44241D016F8011F90
:104F9000384603F091FB3946404603F020FB04F00D
:104FA00051F90190FFF7DBF804F04CF931780A224F
:104FB000FFF7A9F801A8FFF707FAE5E73A4B3B48E6
:104FC000382202FB0131043103F023FB04F03AF9EB
:104FD0000190FFF7C4F804F035F9A1680A220646EB
:104FE00003F0A1F9304603F088F901A8FFF7ECF9C6
:104FF0002E492F48002202F061F82E4900222C4849
:1050000002F061F82B6801332B6015B0BDE8F08F1A
:1050100004F018F9284E0190FFF7A1F804F012F9F6
:10502000316803F076F904F00DF9B1680A220446FC
:1050300003F079F9204603F060F901A8FFF7C4F9FD
:105040001549304603F081FB044600283CD0032379
:105050002B60144C04F01AFB21460422002001F0BE
:1050600087F916491248002202F02DF821684C1CDD
:105070000BD00A2201A803F0DEFA0D48002201A994
:1050800002F01CF801A803F04BFA0D490022B6E724
:105090008CDA03207CDA0320C7A40B0044E0032051
:1050A00040E0032094DA0320F8DE0320E4DE03204E
:1050B000FCE50320FDA30B00E8E0032042A40B0065
:1050C00055A40B0010E00320BA49304603F03DFB25
:1050D0000246002845D0B84823464068224621466B
:1050E00001F00EFC2C60B549B548DFF83CA3B54E85
:1050F000B54CDFF8CC82DFF83493002201F0E3FFF7
:10510000B249AD48052204F0FDF80027CAF80000B6
:10511000DAF800100139B9427FF750AF3146204626
:1051200003F077FA04F08EF80190FFF718F804F016
:1051300089F8A1680A22834603F0F5F8584603F07F
:10514000DCF801A8FFF740F900222146404601F0B3
:10515000B5FF00224946404601F0B5FF0137383619
:10516000D6E79B494BE704F06DF89A4C0190FEF7A7
:10517000F6FF04F067F8216803F0CBF804F062F85A
:10518000A16806460A2203F0CEF8304603F0B5F8CF
:1051900001A8FFF719F9904B2668D3F80080B8F101
:1051A000000F44D0404604F0F5FE0746002E40D0E4
:1051B000304604F0EFFE04463822002106A804F031
:1051C000A1FE4C23CDE901387B48059403238DF8DB
:1051D0001830002301AA19464068CDE9037601F092
:1051E00087FB04F02FF80090FEF7B9FF04F02AF8CF
:1051F0007A49044601A803F0DEF9774901A803F0D3
:1052000079FA774903F082FA724903F073FA754923
:1052100003F07CFA0168204603F07BF801A803F054
:105220007FF96846FFF7D0F86F490022E7E6474666
:10523000BCE73446C0E76D496D4803F086FA0028A4
:105240003FF407AF5C4C00226068114601F048FB58
:1052500000283FF4FEAE2046FEF7B2FF00212046B4
:10526000FEF7BAFF00226068114601F001FB78B139
:1052700003F0E8FF5F4903F04CF800244E48FEF7C6
:10528000A5FF64B15C494E48002201F01CFFE0E636
:105290002046FEF7A6FF04460028E9D0EEE757496E
:1052A0004748224601F00FFF1CE75549504803F0DC
:1052B0004CFA044698B904F0E9F952490422204610
:1052C00001F05EF803F0BEFF0190FEF748FF03F027
:1052D000B9FF4D4903F01DF801A8FFF775F804F078
:1052E000D5F904224749494C002001F041F803F068
:1052F000A9FF3B684649194403F00BF804F0C6F9CE
:1053000004222146642001F033F842492C4800224F
:1053100001F0D9FE2168481C0BD00A2201A803F035
:105320008AF92748002201A901F0C8FE01A803F06C
:10533000F7F83949002262E631492D4803F005FAB1
:1053400030B104F0A3F931490422642001F010F8CF
:1053500004F09CF9314C2D490422642001F010F82E
:1053600004F094F929490422642001F001F804F0C2
:105370008DF904222146C82000F0FAFF00222849B6
:105380000F4801F0A0FE23685A1C0FD00A224FF4E8
:105390007A7101A893FBF1F103F04DF9084800225E
:1053A00001A901F08BFE01A803F0BAF81D49002203
:1053B00025E600BF7BA40B00C0E70320D1A30B00B0
:1053C000FCE50320FCDE0320E4DE0320F8DE0320FE
:1053D00081A40B0010E00320E8E003209BA40B0055
:1053E000B9A40B00C5A40B00C8A40B00FCA40B00BF
:1053F0007CDA032001A50B0009A50B0013A50B0007
:10540000C7A40B0094DA032033A50B0040E003206F
:1054100040A50B0047A50B0078A50B0044E0032036
:10542000CDA50B00FEA50B00F4DE0320FAA30B00B4
:105430004549464803F089F930B104F027F9444959
:105440000422C82000F094FF04F020F9404904220F
:10545000C82000F095FF04F019F93D490422C82046
:1054600000F086FF03F0EEFE0190FEF778FE03F0F9
:10547000E9FE39680A22FEF755FE01A8FEF7A4FFEF
:1054800034490022BBE534493048344C03F05DF91F
:1054900000B3002201A901208DF8042001F078F961
:1054A000012323700024224601A901208DF8044025
:1054B00001F06EF92A48FEF783FE21462848284C61
:1054C000FEF78AFE2046FEF78CFE48B9642001F004
:1054D0008FFAF7E72378002BE4D103F0DFF991E5A9
:1054E0001F48FEF77EFE68B903F0ACFE0190FEF7A0
:1054F00036FE03F0A7FE1B4902F00BFF01A8FEF7E2
:1055000063FFEAE703F09EFE0190FEF728FE03F03A
:1055100099FE154902F0FDFE01A8FEF755FF13495B
:105520001348002201F0CFFD01F072F901F078F983
:1055300030B1104C00F00CFF206001F061F9F9E788
:10554000642001F055FAF1E7C7A40B007CDA0320D0
:1055500044E003204FA60B0085A60B0014E60320B1
:10556000C0E70320CCA20B0089A60B00A9A60B0064
:10557000FCE50320D0E70320F0B5164691B00022E9
:10558000C0E9002204460D460BAF194606A801F0FB
:10559000D5FB1699384601F0D1FB33788DF81430DD
:1055A000189B0293179B2046CDE9007305AA06AB12
:1055B000294602F0D7F9204611B0F0BD10B52C21D4
:1055C000044604F0BCF8204610BD000070B56E4DD6
:1055D0006E4BAB60002490B0C5E90044032001F09D
:1055E000AFF86B4A6B49284604F0A4F82146012025
:1055F00001F0B6F868496948694D02F0DCFF644A79
:105600006849664804F096F86349674802F0D3FF9A
:105610005F4A6449644804F08DF85F49634802F0CA
:10562000CAFF5B4A5F49614804F084F85A49604800
:1056300002F0C1FF564A5B495D4804F07BF85649C9
:105640005C4802F0B8FF524A56495A4804F072F8D2
:105650005149594802F0AFFF4D4A5249564804F0AB
:1056600069F856484A4A56490461031D0360554B80
:10567000436001230375C0E9024404F05BF852491A
:10568000524801F03FFC5249524801F03BFC52495C
:10569000524801F037FC524800F033FB3C4A514974
:1056A0004F4804F047F83C494F4802F084FF4F4808
:1056B00002F0E0FC38494E4802F07DFF36494D4883
:1056C00002F079FF324A4C49474804F033F8324936
:1056D0004A4802F070FF2E4A49494A4804F02AF825
:1056E00005243826281D3422002104F00BFC013C3F
:1056F00045F8386BF6D12849434802F05CFF244A4C
:105700002849414804F016F8404800F0A7F8204A1C
:105710003F493E4804F00EF8102330498DF814300C
:1057200006A801F00BFB29490BA801F007FB0BAB06
:10573000009305AA06ABCDE9014436493648FFF788
:105740001BFF134A3549344803F0F4FF0423214971
:105750008DF8143006A801F0F1FA1C490BA801F0ED
:10576000EDFA2F4B01930BAB009305AA2D49029440
:1057700006AB2D48FFF700FF054A28492A4810B01C
:10578000BDE8704003F0D6BF34DA03200000FFFF0D
:1057900030DA0320DF400B00C7A40B0020E0032019
:1057A000F8DE032021850B0004E60320E8E0032057
:1057B00010E00320B0E003207CDA0320C8E00320DF
:1057C000EF400B0010000300BEA60B0040DA0320E0
:1057D000E3A60B0054DA032008A70B0068DA0320C5
:1057E0009CDA032071410B0050E0032060E00320AD
:1057F00078E003208CE00320C3400B00A0E00320EE
:10580000B5400B009CE00320E4DE0320B8DE03205B
:10581000B3400B002DA70B00FCE5032033740B00F5
:10582000CD4D0B0030A70B00C0E0032070470000F7
:1058300038B50C4605462022002104F1080004F08A
:1058400061FB0B220449204604F0ACFB0123E3601A
:10585000AA69C4E9042338BD61A20B00064A0260AC
:105860004FF0FF3282614277C283FF2280F820200E
:1058700008224262704700BF60A70B0013B50B4CB3
:105880002178BFF35B8F11F001010BD1204601910C
:10589000FEF707FC019928B1054802F0ADFD20464E
:1058A000FEF704FC024802B010BD00BF24E603204E
:1058B00028E6032008B5FFF7E1FF012102F0BAFD59
:1058C000FFF7DCFF0549012202F0F2FDFFF7D6FFEA
:1058D000BDE80840002102F0C1BD00BF20A10700C3
:1058E0002DE9F04190F92030013305460F4606D1ED
:1058F000FFF7C4FF3946BDE8F04102F00BBE0024BB
:1059000007264FF0010895F92000002180B203F02E
:1059100090FE95F91E0008FA06F1394080B203F0B6
:1059200088FE95F92000012180B203F082FE95F9EE
:105930001F00640080B2E4B203F094FE08B144F0AA
:105940000104013EDFD22046BDE8F08170B590F938
:105950001D30013304460E46154616D103F0C2FE33
:10596000217F02F03FFB03F0BDFE036831469B68D8
:10597000984703F0B7FE036829469B68984703F0F1
:10598000B1FEBDE8704002F038BB90F92030013321
:1059900001D1FFF78FFF94F91D00002180B203F0C1
:1059A00048FE06F07F012046FFF79AFF2946204671
:1059B000FFF796FF94F91D000121BDE8704080B209
:1059C00003F037BE38B590F91D30013304460D465B
:1059D0001DD103F087FE94F91C1002F007FB03F0C1
:1059E00081FE036829469B68984703F07BFE02F01E
:1059F00004FB03F077FE217F012202F0F0FA03F0AE
:105A000071FE03685B699847C5B2284638BD90F9B6
:105A10002030013301D1FFF74DFF94F91D00002123
:105A200080B203F006FE45F080012046FFF758FFE4
:105A300000212046FFF754FF054694F91D0001217F
:105A400080B203F0F6FDE0E708B52321FFF7BAFFC7
:105A5000C0F3011008BD38B50D4620210446FFF7FC
:105A6000B1FF00F00F0343EA05122046D2B2BDE8B1
:105A700038402021FFF76ABF38B590F91D30013357
:105A8000044677D103F02EFE94F91C105D4D02F010
:105A9000ADFA03F027FE0368A8219B68984703F03E
:105AA00021FE02F0AAFA03F01DFE217F062202F079
:105AB00096FA03F017FE03685B699847E08003F0ED
:105AC00011FE03685B699847E38805EA00201843E4
:105AD000E08003F007FE03685B699847208103F0CC
:105AE00001FE03685B699847238905EA0020184393
:105AF000208103F0F7FD03685B699847608103F03C
:105B0000F1FD03685B69984705EA00206589284331
:105B100060812046FFF798FF032869D002286AD0E9
:105B200001286BD0002843F6FC7318BF012307EE51
:105B3000903AB4F9063007EE103AF8EEE77AB8EE8C
:105B4000C77AB4F90830C7EE276A07EE103AB8EE04
:105B5000C77AC4ED036AC7EE276AB4F90A3007EEC4
:105B6000103AB8EEC77AC4ED046AC7EE276AC4EDEE
:105B7000056A38BD90F92030013301D1FFF79AFE54
:105B800094F91D00002180B203F053FDE821204666
:105B9000FFF7A6FEFF212046FFF7A2FEFF21E080CF
:105BA0002046FFF79DFEE38843EA0020E080FF21C6
:105BB0002046FFF795FEFF2120812046FFF790FE4B
:105BC000238943EA00202081FF212046FFF788FE39
:105BD000FF2160812046FFF783FE638943EA0020AE
:105BE000608194F91D00012180B203F022FD90E74D
:105BF0004FF400639BE74FF4805398E741F6FE7340
:105C000095E700BF00FFFF0070B50C460546202257
:105C10000021201D04F076F924232360AB69636022
:105C200001262846A660FFF727FFEB6863612B6912
:105C3000A3616B69E361304670BD10B5044601771E
:105C400090F91D00421C23D103F04CFD02F098F99D
:105C50000F212046FFF7B6FE33283DD10722202131
:105C60002046FFF773FE07212046FFF7F4FE882247
:105C700023212046FFF76AFE102222212046FFF74B
:105C800065FE204680221F21FFF760FE012010BD27
:105C9000012180B203F0CDFC94F91D00012180B2F6
:105CA00003F0B6FC94F92000431C04D1FFF7E6FD95
:105CB00002F0ACFBCCE7012180B203F0A9FC94F91F
:105CC0001E00012180B203F0A3FC94F91F00002103
:105CD00080B203F09DFCBBE70020D8E770B50C1E36
:105CE000064615460BDA0A2A09D12D2102F0FCFAE4
:105CF0006142EAB23046BDE8704002F014BB214672
:105D0000F7E710B5044603F027F9204610BD000060
:105D1000F8B50F4F054614460E4602F0E1FA394633
:105D2000284602F0DDFA2146284602F0F2FA03F096
:105D300089FA314602F0D4FA03F084FA394602F0C7
:105D4000CFFA03F07FFA2146BDE8F84002F0E1BA4D
:105D500078A40B00F8B5144F044615460E4602F021
:105D6000BFFA3946204602F0BBFA0A2229462046ED
:105D7000FFF7B4FF204602F0C0FA03F063FA3146A1
:105D800002F0AEFA03F05EFA394602F0A9FA03F027
:105D900059FA294604460A22FFF7A0FF2046BDE82B
:105DA000F84002F0AABA00BF78A40B0010B50C4668
:105DB00002F0AFFA03F046FA2146BDE8104002F0C7
:105DC000A8BA00002DE9F04F0E4691B01F464FF0E3
:105DD000FF331360044600213046DDF8689090469A
:105DE00002F0B3FCD6F838E00346C0B9BEF1000FAC
:105DF00014BF72465022316892B2204602F0ACFEC7
:105E0000051E18BF0125EDB903F01CFABE4902F0CA
:105E100080FA204611B0BDE8F04F03F053B8BB4BF9
:105E20000A9306F1140CBCE80F000BAD0FC5DCF8AB
:105E300000302B701FFA8EF200230AA9204602F0D0
:105E40006BFFDDE70021304602F07FFC00285DD1CA
:105E500003F0F8F9AE4902F043FA03F0F3F93168C0
:105E600002F03EFA03F0EEF9AA4902F039FA03F023
:105E7000E9F90A22B16B8246FFF730FF504602F083
:105E80003CFA4946204602F02BFAA349204602F08C
:105E900027FAB16A204602F023FAA049204602F010
:105EA0001FFA03F0CFF99E4902F033FA03F0CAF962
:105EB000494602F015FA03F0C5F9974902F010FAC5
:105EC00003F0C0F9B16A02F00BFA03F0BBF9934991
:105ED00002F006FA9349944A2046FFF719FF002181
:105EE000304602F032FC20B9326890492046FFF774
:105EF0000FFF06F13C0A0021504602F026FC88B94B
:105F0000726C8B492046FFF725FF12E003F09AF9E7
:105F1000884902F0E5F903F095F906F1100102F065
:105F2000E6F99FE78449484604F022F80246002833
:105F3000E7D05FB1396849B17A6820461AB1FFF7F6
:105F4000E7FE0837F6E7FFF731FFFAE7204602F0F1
:105F5000D4F9204602F060FD0021504602F0F5FB26
:105F600040B9F16B204602F0D4F903F06BF9F16B04
:105F700002F0CFF903F066F904F11C0A6F4902F050
:105F8000C8F94FF480620021504603F0BBFF00F0D7
:105F9000DFF9009000F0DCF900260190204602F0C5
:105FA00037FF814678B103F04DF9654902F098F961
:105FB00003F048F949460A22FFF790FE03F042F940
:105FC000604902F0A6F94FF0000B204602F020FFD6
:105FD00020B3204602F006FDC7B203F033F939467C
:105FE00002F082F900F0B4F940F2FE339E420090D4
:105FF00003D80AF806700136E7E740F2FF339E4205
:10600000F9D1002384F81B34204602F05BFF03F033
:1060100019F94D4902F07DF9AB46ECE7A319187761
:10602000B9F1000F04D003F00DF9484902F058F916
:1060300000F08EF9009BA0EB0309BBF1000F06D125
:1060400041F28833994502D8C82000F0D1FC20469F
:1060500002F000FE41F2883300284CD099454CD81C
:10606000BBF1000F9AD003F0EDF8394902F038F98E
:1060700003F0E8F8054600F06BF9019B0A22C11A0B
:10608000284602F050F903F0DDF8324902F041F9F8
:10609000204602F017FF514602A802F08CFA0C23AA
:1060A000092202A906A802F075FB03F0CBF82A49E1
:1060B00002F016F903F0C6F8069902F02AF927490A
:1060C0000AA802F078FA0AA902A802F05FFB0446C7
:1060D0000AA802F025FA631C46D103F0B3F8204960
:1060E00002F017F906A802F01BFA02A802F018FA4B
:1060F00011B0BDE8F08F9945B5D903F0A3F819495F
:1061000002F007F9AFE700BFEFA70B0078AB0B0079
:1061100074A70B002DA20B0079A40B00AFA70B00F6
:10612000BBA70B00E4A70B00DEA70B000EA80B001B
:1061300013A80B0090A70B000EA20B0022A80B00C7
:1061400043A80B006FA80B0077A80B00ACA80B00AE
:1061500007A90B002CA90B0031A90B004BA90B00C0
:1061600050A90B00D2A80B0008F104050A492846E3
:1061700002F04FFA221D02A90AA802F02BFB0AA97D
:10618000284602F095FA0AA802F0CAF9069803F028
:106190005BFEC8F80000A5E7C7A40B0008B5024BDA
:1061A0001B689B68019308BD7802030008B5024B89
:1061B0001B68DB68019308BD7802030008B5024B39
:1061C0001B681B6D019308BD7802030008B5024BE4
:1061D0001B689B6D019308BD7802030008B5024B54
:1061E0001B681B6E019308BD7802030008B5034BC2
:1061F0001B68D3F89830019308BD000078020300B3
:1062000008B5034B1B68D3F8A830019308BD000004
:106210007802030008B5034B1B68D3F8B430019330
:1062200008BD00007802030008B5034B1B68D3F8D3
:10623000D830019308BD00007802030008B5034B75
:106240001B68D3F8DC30019308BD0000780203001E
:1062500008B5034B1B68D3F8EC30019308BD000070
:106260007802030008B5034B1B68D3F8F0300193A4
:1062700008BD00007802030008B5034B1B68D3F883
:106280000031019308BD00007802030008B5034BFC
:106290001B68D3F80431019308BD000078020300A5
:1062A00008B5024B1B685B68019308BD48020300F8
:1062B00008B5024B1B68DB68019308BD4802030068
:1062C00008B5024B1B681B6B019308BD4802030015
:1062D00008B5024B1B689B6B019308BD4802030085
:1062E00008B5024B1B681B6C019308BD48020300F4
:1062F00008B5024B1B685B6C019308BD48020300A4
:1063000008B5024B1B689B6C019308BD4802030053
:1063100008B5024B1B68DB6C019308BD4802030003
:1063200008B5024B1B685B6D019308BD4802030072
:1063300008B5024B1B685B68019308BD1802030097
:1063400008B5024B1B68DB68019308BD1802030007
:1063500008B5024B1B685B69019308BD1802030076
:1063600008B5024B1B689B6A019308BD1802030025
:1063700008B5024B1B685B6C019308BD1802030053
:1063800008B5024B1B689B6C019308BD1802030003
:1063900008B5024B1B689B6D019308BD18020300F2
:1063A00008B5024B1B685B6E019308BD1802030021
:1063B00008B5024B1B689B68019308BD2C020300C3
:1063C00008B5024B1B68DB68019308BD2C02030073
:1063D00008B5024B1B681B69019308BD2C02030022
:1063E00008B5024B1B685B69019308BD2C020300D2
:1063F00008B5024B1B68DB68019308BD2802030047
:1064000008B5024B1B689B69019308BD2802030075
:1064100008B5024B1B68DB69019308BD2802030025
:1064200008B5024B1B681B6A019308BD28020300D4
:1064300008B5024B1B685B6A019308BD2802030084
:1064400008B5024B1B689B6A019308BD2802030034
:1064500008B5024B1B68DB6A019308BD28020300E4
:1064600008B5024B1B681B6B019308BD2802030093
:1064700008B5024B1B685B6B019308BD2802030043
:1064800008B5024B1B681B6C019308BD2802030072
:1064900008B5024B1B681B6D019308BD2802030061
:1064A00008B5024B1B685B69019308BD6C020300D1
:1064B00008B5024B1B685B69019308BD64020300C9
:1064C00008B5024B1B681B6A019308BD64020300F8
:1064D00008B5024B1B689B6A019308BD6402030068
:1064E00008B5024B1B689B68019308BD6802030056
:1064F00008B5024B1B68DB68019308BD6802030006
:1065000008B5024B1B689B69019308BD3802030064
:1065100008B5024B1B68DB69019308BD3802030014
:1065200008B5024B1B681B6A019308BD38020300C3
:1065300008B5024B1B689B6A019308BD3802030033
:1065400008B5024B1B681B6B019308BD38020300A2
:1065500008B5024B1B689B6B019308BD3802030012
:1065600008B5024B1B681B68019308BD300203008D
:1065700008B5024B1B689B68019308BD30020300FD
:1065800008B5024B1B68DB68019308BD30020300AD
:1065900008B5024B1B681B69019308BD300203005C
:1065A00008B5024B1B685B69019308BD300203000C
:1065B00008B5024B1B68DB69019308BD300203007C
:1065C00008B5024B1B681B6A019308BD300203002B
:1065D00008B5024B1B685B6A019308BD30020300DB
:1065E00008B5024B1B681B6C019308BD3002030009
:1065F00008B5024B1B685B6C019308BD30020300B9
:1066000008B5024B1B681B68019308BD3C020300E0
:1066100008B5024B1B68DB68019308BD3C02030010
:1066200008B5024B1B681B69019308BD3C020300BF
:1066300008B5024B1B685B69019308BD3C0203006F
:1066400008B5024B1B689B69019308BD3C0203001F
:1066500008B5024B1B68DB69019308BD3C020300CF
:1066600008B5024B1B681B6A019308BD3C0203007E
:1066700008B5024B1B689B6A019308BD3C020300EE
:1066800008B5024B1B681B68019308BD4C02030050
:1066900008B5024B1B685B68019308BD4C02030000
:1066A00008B5024B1B681B69019308BD4C0203002F
:1066B00008B5024B1B685B69019308BD4C020300DF
:1066C00008B5024B1B689B69019308BD4C0203008F
:1066D00008B5024B1B68DB69019308BD4C0203003F
:1066E00008B5024B1B681B6A019308BD4C020300EE
:1066F00008B5024B1B689B6A019308BD4C0203005E
:1067000008B5024B1B681B6E019308BD74020300A1
:1067100008B5024B1B685B6B019308BD6002030068
:1067200008B5024B1B681B6D019308BD6002030096
:1067300008B5024B1B681B68019308BD20020300CB
:1067400008B5024B1B685B68019308BD200203007B
:1067500008B5024B1B685B69019308BD200203006A
:1067600008B5024B1B68DB6A019308BD20020300D9
:1067700008B5024B1B685B6B019308BD2002030048
:1067800008B5024B1B689B6B019308BD20020300F8
:1067900008B5024B1B68DB6B019308BD20020300A8
:1067A00008B5024B1B689B6D019308BD20020300D6
:1067B00008B5034B1B68D3F88830019308BD00006F
:1067C0002002030008B5034B1B68D3F894300193F3
:1067D00008BD00002002030008B5034B1B68D3F876
:1067E000A830019308BD00002002030008B5034B48
:1067F0001B68D3F8AC30019308BD000020020300F1
:1068000008B5024B1B689B68019308BD4402030056
:1068100008B5024B1B68DB68019308BD4402030006
:1068200008B5024B1B685B69019308BD4402030075
:1068300008B5024B1B68DB6A019308BD44020300E4
:1068400008B5024B1B681B6B019308BD4402030093
:1068500008B5024B1B68DB6B019308BD44020300C3
:1068600008B5024B1B685B68019308BD400203003A
:1068700008B5024B1B689B68019308BD40020300EA
:1068800008B5024B1B68DB68019308BD400203009A
:1068900008B5024B1B681B69019308BD4002030049
:1068A00008B5024B1B685B69019308BD40020300F9
:1068B00008B5024B1B689B69019308BD40020300A9
:1068C00008B5024B1B68DB69019308BD4002030059
:1068D00008B5024B1B681B6A019308BD4002030008
:1068E00008B5024B1B685B6A019308BD40020300B8
:1068F00008B5024B1B689B6A019308BD4002030068
:1069000008B5024B1B68DB6A019308BD4002030017
:1069100008B5024B1B681B6B019308BD40020300C6
:1069200008B5024B1B685B6B019308BD4002030076
:1069300008B5024B1B681B6C019308BD40020300A5
:1069400008B5024B1B685B6C019308BD4002030055
:1069500008B5024B1B681B68019308BD1C020300AD
:1069600008B5024B1B685B68019308BD1C0203005D
:1069700008B5024B1B689B68019308BD1C0203000D
:1069800008B5024B1B681B69019308BD1C0203007C
:1069900008B5024B1B685B6A019308BD1C0203002B
:1069A00008B5024B1B68DB6A019308BD1C0203009B
:1069B00008B5024B1B68DB6B019308BD1C0203008A
:1069C00008B5024B1B681B6C019308BD1C02030039
:1069D00008B5024B1B685B6C019308BD1C020300E9
:1069E00008B5024B1B68DB6C019308BD1C02030059
:1069F0000021FFF7ADBE7047704770477047000039
:106A0000064B994210B500F10C0405D0084602F07F
:106A10009FFE002808BF0024204610BDCCAA0B0012
:106A2000064B994210B500F10C0405D0084602F05F
:106A30008FFE002808BF0024204610BDCCAA0B0002
:106A4000064B994210B500F10C0405D0084602F03F
:106A50007FFE002808BF0024204610BDCCAA0B00F2
:106A600010B56821044602F06AFE204610BD10B53C
:106A70002821044602F063FE204610BD10B53021E7
:106A8000044602F05CFE204610BD682102F057BEAD
:106A9000282102F054BE302102F051BE10B5044648
:106AA000006808B1FFF72CFC204610BDF0B50025AA
:106AB000EC1C8C420DD86E1C445D875D974205D15D
:106AC0002644B14205D31D60601CF0BD013425444D
:106AD000EEE70020F9E72DE9F34704469DF828701A
:106AE0001E46894601AB90460A46016AFFF7DEFF63
:106AF000256AB31C0FBB00B35F193F1A1F2F18D8AC
:106B0000DDF8049009F1020AA5EB090206EB0A037D
:106B1000121A4844211892B2E01803F0D9F9731CF4
:106B200004F809303246414604EB0A0003F0C2F98A
:106B30002762206A02B0BDE8F0872B441F2BF8D8EB
:106B4000731C6355A81C25442062324685F80190C9
:106B50004146204403F0AEF9236A33442362E8E758
:106B6000024A00210A20FFF7D3BD00BF41630B009A
:106B7000034608461B68D3E90021104730B40D4690
:106B800011461A46036809682868D3E90043A446F9
:106B900030BC6047012A38B5044602D10B68236037
:106BA00003E0022A03D0032A0DD0002038BD0820BC
:106BB0000D68FDF770FA03460028F0D095E8030051
:106BC00083E80300EBE700680028EED0082102F01C
:106BD000B6FDEAE7012A38B5044602D10B68236006
:106BE00003E0022A03D0032A0DD0002038BD08207C
:106BF0000D68FDF750FA03460028F0D095E8030031
:106C000083E80300EBE700680028EED0082102F0DB
:106C100096FDEAE710B58368044613B103220146E6
:106C20009847204610BD10B504465830FFF7F2FFD4
:106C300004F14800BDE8104001F072BC10B5436893
:106C4000013B0446436063B903689B689847A368A7
:106C5000013BA3602BB923682046DB68BDE81040E8
:106C6000184710BDA0F13003DAB2092A01D818463E
:106C70007047A0F16103052B01D857387047A0F188
:106C80004103052B94BF37384FF0FF3070470000A9
:106C900010B500230370044B04461868FFF738FB57
:106CA00001232370204610BD38E6032010B5037879
:106CB00004461BB1024B1868FFF732FB204610BD9B
:106CC00038E6032082B00346086849686A4603C272
:106CD0006A4603CA18601846596002B0704708B582
:106CE00082798B799A4206D1062203F0D3F8B0FA62
:106CF00080F0400908BD0020FCE74FF0FF3303603F
:106D000083800020704708B5024600210160416081
:106D1000FFF7F3FF9171104608BD000010B5012385
:106D20000361054B024603F1100153F8044B42F88E
:106D3000044B8B42F9D110BDDAAA0B0010B50B69D8
:106D4000036101F11002034651F8044B43F8044B70
:106D50009142F9D110BD10B50B460446B1B1012ADC
:106D600001F110020AD1014653F8040B41F8040B5B
:106D70009342F9D101232361204610BD411E12F830
:106D8000010D01F8010F9A42F9D1F3E7102203F047
:106D9000B9F8F1E738B5044615461A46FFF7DBFFA8
:106DA000A581204638BD000008B5026922B9808956
:106DB000003818BF012008BD0249102203F06AF80C
:106DC000F6E700BFFAAA0B000069704738B50C4619
:106DD00014220021054603F095F823691BB9A38905
:106DE0002B80284638BD01232B7421462B4604F105
:106DF000100251F8040B43F8040B9142F9D1F0E76B
:106E000080897047704708B502690B699A4206D1BC
:106E1000102203F03FF8B0FA80F0400908BD0020CE
:106E2000FCE7000001232DE9F3410361344B0C46DC
:106E30000646024603F1100153F8040B42F8040B16
:106E40008B42F9D144B32421204603F0BEF8042834
:106E50004FF0000523D1ADF8045001AFA51C063456
:106E600015F8020CFFF7FEFEB0F1000812DB15F872
:106E7000010CFFF7F7FE00280CDB023540EA081092
:106E8000A54207F8010BEBD19DF8053033739DF84F
:106E9000043073730023336102B0BDE8F0814FF01A
:106EA00010082421204603F090F8A84207D8424653
:106EB0000021304602B0BDE8F04103F023B8B8F13C
:106EC000000FE9D0605DFFF7CDFE030615D4000189
:106ED00008F1FF38C7B206F808702421204603F0F5
:106EE00074F80135A84208D9605DFFF7BBFE40B2D7
:106EF0000028A4BF384306F808000135D1E700BFD9
:106F0000DAAA0B0013B504460191FFF707FF2046EC
:106F10000199FFF787FF204602B010BD30B49DF8FD
:106F200008501AB1029530BCFFF7D5BD006A30BCDD
:106F300070471FB504461F22002102F0E3FF002323
:106F400023620093062201238DF80F2019460DF1CC
:106F50000F022046FFF7E2FF204604B010BD73B5D4
:106F60000A460E4601AB016A0446FFF79FFD05463F
:106F700078B10198226A4119121A2144521B204407
:106F800002F098FF206A401B206231462046FFF73E
:106F9000E6FF02B070BD000038B54FF6FF73002564
:106FA000044643800E22294605700571063002F022
:106FB000A9FF04F11400FFF7B1FE04F12800FFF768
:106FC000ADFE044904F13C0001F0F5FA6565204688
:106FD00038BD00BFC7A40B0010B5D0E9063203EBE3
:106FE000C2029342184606D0046824888C4203F1FA
:106FF0000803F6D110BD0020FCE70000F0B50646FE
:1070000085B01F460D46002950D0002A4ED0046896
:107010002378F42A28BFF42243B32379980709D5AB
:10702000A08903920023FFF7F5F80028039A03DAFA
:1070300005B0F0BD6FF0770034682379D90609D523
:10704000012F07D0A0890023294605B0BDE8F040F4
:10705000FFF712B99B06EBD5022FE9D0A0890023D8
:10706000294605B0BDE8F040FFF710B960884FF63B
:10707000FF7188421CD021794E0701D5012F04D120
:107080000B0709D46FF07700D2E7A189009313466C
:107090002A46FFF7D3F8CBE7022FF3D00023A189CC
:1070A000009313462A46FFF7BFF8C1E70248BFE73F
:1070B0006FF0D100BCE700BFF2FEFFFF13468A6805
:1070C0000968FFF79BBF37B50C460546F4212046FB
:1070D000019202F07AFF019B02462146284603B046
:1070E000BDE83040FFF78ABF2DE9F0410026066079
:1070F000074628200C46FCF7CEFF051E05F10C08BC
:107100000FD00123C5E90133084B2B604046FFF740
:1071100005FE0FCC2E6285F8246046460FC6236814
:107120003360C7E900853846BDE8F0819CAA0B00B2
:1071300070B50025056006463020FCF7ACFF04461C
:1071400088B10123C0E90133094B03604FF6FF7397
:1071500083810E30FFF7D7FDC4E90655C4E9085511
:10716000C4E90A55A57574600C343460304670BDAE
:10717000B8AA0B0013B5044601A8FFF789FD2368E0
:107180001C884FF6FF73E41A01A818BF0124FFF70B
:107190008DFD204602B010BD37B50D46044601A84E
:1071A000FFF776FD2A68D2F802302360D2F8063065
:1071B000636001A8FFF77AFD204603B030BD30B50B
:1071C000054687B00C4601A8FFF762FD2A682368D0
:1071D00012881B889A420DD1294602A8FFF7DCFFCE
:1071E000214604A8FFF7D8FF04A902A8FFF777FDFE
:1071F000044600B9002401A8FFF758FD204607B057
:1072000030BD000010B504465420FCF744FF014691
:1072100060B10023C0E90033C0E90233C0E90433A0
:10722000C0E906330362C362C363C364216019B952
:10723000094A0A20FFF76CFA0020FEF7AFFF20B1E1
:10724000054A00210A20FFF763FA2168034800225B
:10725000FFF708F8204610BD41630B0079760B005C
:1072600010B50B4C2378BFF35B8FDB070ED42046A1
:10727000FCF717FF50B10748FFF7C4FF2046FCF7A3
:1072800015FF054A0549034802F054FA014810BDAC
:1072900030E603203CE6032030DA03209D740B0027
:1072A00030B50368093B012B8DB004460D4611D85B
:1072B000FFF7D6FFA1880068FFF78EFE034658B996
:1072C0002022CDE904200B4A00920B4904AA322067
:1072D000FFF726FA0DB030BD6A6D002AFAD0D4E966
:1072E000032105F14C00CDE90312AC6D04AA03A9FA
:1072F000A047EFE7A9A90B0082A90B0008B5002061
:10730000FEF74CFF00EAE07008BD084611B90A46D6
:10731000FEF754BF096A0022FAE707B5084629B903
:107320000A4603B05DF804EBFEF750BF012101905F
:10733000FFF715FE01980022016AF2E738B504460E
:107340001546FFF7E2FF00280ADB29462046FFF733
:10735000E4FF002804DBBDE838400020FEF73EBF14
:1073600038BD0368D8690028D4BF002001207047C9
:1073700038B500230446836008200D46FCF78BFED9
:1073800018B12B6803606B684360034BE360034BE9
:107390002060A360204638BD7D6B0B00D56B0B00D1
:1073A00038B500230446836008200D46FCF773FEC1
:1073B00018B12B6803606B684360034BE360034BB9
:1073C0002060A360204638BD716B0B00956B0B00ED
:1073D0000B68036013B15A6801325A60704710B5E8
:1073E00051F8043B044640F8043BFFF7F1FF2368E3
:1073F0000BB9FFF7B5FB204610BD10B551F8043BA3
:10740000044640F8043BFFF7E3FF204610BD10B5EB
:1074100051F8043B044640F8043BFFF7D9FF2046EF
:1074200010BD10B50446006808B1FFF707FC204600
:1074300010BD10B504460430FFF7F3FF204610BD21
:1074400070B5D0E90053044605EBC306AE4204D044
:10745000281DFFF7E6FF0835F8E72068FFF780FAF8
:10746000204670BD70B5D0E90053044605EBC30655
:10747000AE4204D0281DFFF7D4FF0835F8E7206896
:10748000FFF76EFA204670BD10B504462430FFF7B2
:10749000E9FF04F11800FFF7D3FF10BDF8B5046849
:1074A000064624B304F14400FFF7B4FB04F13400B2
:1074B000FFF7B0FB04F12400FFF7ACFBD4E906535F
:1074C00005EBC307AF4204D0281DFFF7AAFF08351C
:1074D000F8E7A069FFF744FA04F10C00FFF7C2FFD8
:1074E0002046FFF7ADFF5421204602F028F9304630
:1074F000F8BD13B50023D1E90042C1E900330368A8
:10750000009304604368426001A80193FFF789FF7C
:1075100002B010BD826810B50AB902F016F9BDE8D4
:107520001040C368184770B5D0E90053044605EB16
:10753000C306AE4204D0281DFFF773FF0835F8E7F5
:107540000023636070BD13B504460020FEF72EFED5
:1075500000280ADB01A8FFF79BFB20681830FFF723
:10756000E2FF01A8FFF7A2FB002002B010BD884295
:10757000F8B504460D46164614D9904213D2A2F12E
:107580000806751AA1F108072C44B74218D01CB19F
:1075900031462046FFF73BFF301DFFF742FF083E14
:1075A000083CF2E70CD0B5420AD01CB1294620466F
:1075B000FFF72DFF281DFFF734FF08350834F2E7E9
:1075C000F8BDF7B5044646686846FFF720FFD4E9E2
:1075D00001739F4212DB0137002F29DDF800FFF70E
:1075E000B7F90546F0B1D4E9001201EBC202FFF78A
:1075F000BEFF2068FFF7B4F92560A76023686268C2
:1076000003EBC60603EBC202314606F10800FFF7A2
:10761000AEFF1EB169463046FFF7F9FE63680133DD
:107620006360012501A8FFF7FCFE284603B0F0BD0A
:107630000025DEE7F8B5D0E9004305460F4604EB28
:10764000C306A64205D039462046FFF7B8FD08B16B
:1076500014B9F8BD0834F4E7201DFFF7E2FED5E9C0
:10766000003204F1080103EBC2022046FFF77FFF5E
:107670006B68013B6B60ECE72DE9F04105468EB08D
:1076800003A80C46FFF704FB2E68042E6DD007D824
:10769000032E2AD003A8FFF709FB0EB0BDE8F08146
:1076A000A6F10C03042BF5D8A9892046FFF794FC1A
:1076B00007460028EED0E36C002BEBD0102200210F
:1076C00007A802F01FFC0D2E06978DF81C6002D053
:1076D000102E40F092806B68099306230893236D67
:1076E00006A904F144009847D4E704A8FFF720FD59
:1076F000049BAA891A806968049808310230FFF750
:10770000E1FA04A906A8FFF782FE06A904F1180011
:10771000FFF757FF054607A8FFF783FE20230693D0
:107720008DB93E4B3E49009332202B4606AA079561
:10773000FEF7F6FF049B29461888FEF757FD05A8BB
:10774000FFF76FFEA6E7374A0092002334490793FC
:1077500006AA0120FEF7E4FFE36A002BEFD004A99C
:1077600004F12400FFF7D6FEE9E7A9892046FFF7D8
:1077700033FC064600288DD00568D5E906324FF661
:10778000FF71298003EBC2029A4203D053F8080B21
:107790004180F9E7D5E9037307EBC308B84504D086
:1077A000381DFFF73EFE0837F8E700232B61D5E9C7
:1077B000067307EBC308B84504D0381DFFF731FE48
:1077C0000837F8E70023EB61AB72E36B23B1314676
:1077D00004F13400FFF79EFE00232022CDE90623AA
:1077E000114A00920E4906AA0120FEF799FF314680
:1077F00004F11800FFF71EFF4CE70F2E7FF46FAF68
:107800006B6809932B7A03F00102C3F340038DF8F0
:1078100029308DF82820082360E700BFC1A90B009C
:1078200082A90B00E7A90B0004AA0B0013B50446BC
:10783000FFF7A0FCD0B1236800211888FEF7D6FC22
:10784000002811DB01A8FFF723FAFFF709FD006804
:1078500021461830FFF7EEFE23684FF6FF721A80BC
:1078600001A8FFF723FA002002B010BD6FF0D1008D
:10787000FAE700002DE9F341044601A8FFF708FAF2
:107880002368104ED3E906454FF0000804EBC50508
:107890000127AC420ED03068FEF742FD20468DF83D
:1078A0000480FFF7C3FF3068FEF732FD08348DF81F
:1078B0000470EEE701A8FFF7F9F9002002B0BDE877
:1078C000F08100BF38E6032013B50B460246D0E92D
:1078D00000016C4684E8030093E8030082E803009B
:1078E00094E8030083E8030002B010BD38B50546F4
:1078F0000C46FFF7E9FFAB68A268AA60A360EB68DB
:10790000E268EA60E36038BD70B50E468CB00446AC
:1079100001921D46FFF740FB33780199237104F172
:107920003C0000F076FE04F14C06CDB1109B0295B0
:1079300002A904A80393FFF71BFD002308A904A8CC
:107940000A93FFF7D3FF314608A8FFF7CFFF08A837
:10795000FFF760F904A8FFF75DF920460CB070BD91
:107960000695EAE72DE9F04F89B01D46DDE912439F
:1079700080468A4693461499039300226820029118
:107980000692FCF788FB061E06F10C091CD00122AA
:107990003746C6E90122174A47F8202B02999BF87F
:1079A0000020039B8DF814200091524605A94846FB
:1079B000FFF7AAFF0FCD0FC72B683B600FCC06F176
:1079C00034050FC523682B6006A94046CDE906960D
:1079D000FFF78FFD07A8FFF724FDD8F8001031B995
:1079E000054A0A2009B0BDE8F04FFEF791BE09B084
:1079F000BDE8F08F80AA0B0041630B0038B5054647
:107A00000C46FFF761FFAB68A268AA60A360EB6851
:107A1000E268EA60E36038BD10B504688AB03434C7
:107A2000B9B1CDE9001202A86946FFF7B9FC0023FD
:107A300006A902A80893FFF7E1FF214606A8FFF771
:107A4000DDFF06A8FFF7E6F802A8FFF7E3F80AB0A3
:107A500010BD0491EBE710B504688AB02434B9B1C5
:107A6000CDE9001202A86946FFF79AFC002306A997
:107A700002A80893FFF7C2FF214606A8FFF7BEFF42
:107A800006A8FFF7C7F802A8FFF7C4F80AB010BDB0
:107A90000491EBE78842F8B504460D46164614D922
:107AA000904213D2A2F10806751AA1F108072C44DE
:107AB000B74218D01CB131462046FFF79EFC301D5E
:107AC000FFF7AFFC083E083CF2E70CD0B5420AD005
:107AD0001CB129462046FFF790FC281DFFF7A1FCAA
:107AE00008350834F2E7F8BD70B50E1E054611DD05
:107AF000F000FEF72DFF044658B1D5E9001201EB66
:107B0000C202FFF7C7FF2868FEF72AFF2C60AE60AD
:107B1000012070BD0024F6E773B504464568684649
:107B2000FFF76BFCD4E90113994210DA236862680D
:107B300003EBC50503EBC202294605F10800FFF778
:107B4000A9FF8DB9636801336360012606E0013146
:107B50002046FFF7C9FF06460028E7D101A8FFF736
:107B600060FC304602B070BD69462846FFF745FC10
:107B7000E8E78842F8B504460D46164614D9904207
:107B800013D2A2F10806751AA1F108072C44B742D6
:107B900018D01CB131462046FFF721FC301DFFF7FD
:107BA00040FC083E083CF2E70CD0B5420AD01CB1BC
:107BB00029462046FFF713FC281DFFF732FC083545
:107BC0000834F2E7F8BD70B50E1E054611DDF00071
:107BD000FEF7BEFE044658B1D5E9001201EBC20221
:107BE000FFF7C7FF2868FEF7BBFE2C60AE600120E0
:107BF00070BD0024F6E773B5044645686846FFF794
:107C0000EEFBD4E90113994210DA2368626803EBB2
:107C1000C50503EBC202294605F10800FFF7A9FFDD
:107C20008DB9636801336360012606E001312046A7
:107C3000FFF7C9FF06460028E7D101A8FFF7F1FBCF
:107C4000304602B070BD69462846FFF7C8FBE8E73A
:107C50002DE9F04F1746A1B080460AA80E46FFF75F
:107C600017F83C68237953B939464046FFF7B7FB0C
:107C70000AA8FFF71BF8404621B0BDE8F08F336833
:107C8000D3E9035305EBC303039304F1280A04F17A
:107C9000140B039B9D4221D0D5F80090584609F162
:107CA0001401FFF7B0F8B8B109F128015046FFF709
:107CB000AAF888B12368D9F80020534033F47F43F1
:107CC0000AD12022CDE915235E4A009215AA5E4909
:107CD0003220FEF725FDC7E70835DAE75046FFF703
:107CE00063F860B95949012215A815ADFFF733F8BB
:107CF0000FCDD446ACE80F002B68CCF800303368C9
:107D0000D3E9005305EBC30B5D45A94651466ED040
:107D100055F8080BFFF777F80028F5D004F1140A9E
:107D20005046FFF741F888B9494B48491A88013253
:107D300092B21A8015A8012315ADFFF72BF80FCDCD
:107D4000D446ACE80F002B68CCF80030414B1593BB
:107D50002822002116A802F0D5F8514604A8FFF702
:107D600035F804AB18AA0DF1200C186859681546AF
:107D700003C5083363452A46F7D11868286023797C
:107D80008DF85830D9F800309B8AADF87430E36B29
:107D90001793314B0022A11D15A8CDE91E34FEF723
:107DA00057FA00287FF460AF012323703468394606
:107DB0000C340DA8FFF713FB20460DA9FFF71BFF9E
:107DC00004460EA8FFF72DFB002C7FF44DAF2023B7
:107DD000CDE90D34214B00930DAA234677E73946B0
:107DE0004046FFF7FCFA0CA8FFF71BFB40E70BA887
:107DF000FFF77AF9514615A8FEF7E8FF0B9A002322
:107E0000143215A90120FEF7FBF90028E7D13568E7
:107E10000BA90DA8FFF7F1FA28460DA9FFF77CFE84
:107E200005460EA8FFF7FDFA002DD8D0326853683A
:107E3000126803F10053013B0CA802EBC309FFF7E2
:107E4000F0FA6BE723AA0B0082A90B00EAAA0B0049
:107E500034E6032003002C00A1720B004EAA0B0095
:107E600010B5064C002320462360FEF741FA204659
:107E7000034A0449BDE8104001F05CBC38E6032029
:107E800030DA03209D6A0B00002240681146FEF79D
:107E90001FBD002240681146FEF742BD4068002227
:107EA000FEF736BD4068002281F00101FEF708BDF3
:107EB000002340681A461946FEF7FABC00234068C2
:107EC0001A461946FEF7ECBC002240681146FEF740
:107ED000DFBC002240681146FEF7CABC40680022A1
:107EE0000221FEF7CDBC002340681A46FEF7B8BC5D
:107EF000024B03225A60024A1A60704740E6032090
:107F000014AB0B007047F8B5064615460C468F18A3
:107F1000BC4206D0336814F8011B9B683046984772
:107F2000F6E72846F8BD007C0022FEF779BA007C0F
:107F30000021FEF77DBA007C0021FEF781BA007CAB
:107F40000021FEF785BA007C0021FEF789BA10B542
:107F50001421044601F0F3FB204610BD10B54FF488
:107F60007A73044608460021C4E90113034B2360D9
:107F700020741146FEF784FA204610BD50AB0B006A
:107F80000023007C1A461946FEF732BA7FB500225C
:107F90001423CDE90122ADF804300B788DF80830B8
:107FA0004B680393CB680493007C0B7A059301A97B
:107FB000FEF76EFA07B05DF804FB1FB5003B8DF8C5
:107FC00000104FF06401039118BF0123694601922C
:107FD0008DF80830FFF7DAFF05B05DF804FB0123E8
:107FE000FFF7EBBF007C0022FEF70ABAC9B2FFF729
:107FF000F9BF007C0022FEF70BBA0121FFF7F9BFA1
:10800000704710B51821044601F099FB204610BDB9
:10801000F0B5037D062B8DB00E4600F104074FF03E
:10802000000412D000F1080515F8011D0A2230469F
:1080300000F079F9AF42044419D0002CF4D02E217D
:10804000304600F051F90444EEE72F236A463946E2
:108050000A208DF80040FEF72BFA684601F09AFFDF
:1080600033680246DB686946304698470446204636
:108070000DB0F0BD10B5054B0446112240F8043B8D
:10808000002101F03FFF204610BD00BF78AB0B0080
:108090000346074A10B543F8042B01F1100251F8CA
:1080A000044B43F8044B9142F9D10A781A7010BD81
:1080B00078AB0B00037D042B04D14068003818BF57
:1080C00001207047062B07D143683BB983682BB961
:1080D000C3681BB90069F1E70020704701207047B1
:1080E00010B59DF8084044EA032343EA024242EAFD
:1080F000016104234160037510BD000007B5064B04
:108100000360CB7800938B784A780978FFF7E8FF13
:1081100003B05DF804FB00BF78AB0B00014B024AD3
:108120001A60704748E6032084AB0B0000234068C8
:108130001A46FEF795BB406800220221FEF7A0BB5D
:10814000002240681146FEF793BB002240681146AA
:10815000FEF79EBB002340681A461946FEF7A0BBF7
:10816000002340681A461946FEF7A2BB406800216A
:10817000FEF7DEBB40680021FEF7E2BB406800224C
:1081800081F00101FEF79CBB40680022FEF7C0BBF6
:10819000002240681146FEF7C3BB0022406811462A
:1081A000FEF796BB2DE9F04395B014460D46074601
:1081B000FFF760FF00211C220DA8009101F0A2FE34
:1081C00040230C9320466B460CAA0021FEF790F941
:1081D000044600284BD1024601216868FEF758FB8F
:1081E0000221804622466868FEF752FB009E8146C7
:1081F0002146002E3BD0002939D17368022B03D0D1
:108200000A2B11D0F669F4E7B8F1000FFAD07169C2
:1082100006A8043107ADFFF771FF0FCD3C1D0FC459
:108220002B6823704146EDE7B9F1000FEAD074697D
:10823000102201A801F066FE06238DF8143001AD6E
:1082400004F108031834186859682A4603C2083331
:10825000A3421546F7D101A906A807ADFFF718FFFD
:108260000FCD3C1D0FC42B6823704946CAE7009808
:10827000FEF736F9384615B0BDE8F083024B034AE5
:108280001A6000225A6070474CE6032090AB0B0046
:10829000F8B506460D468F180024BD420CD0336851
:1082A00015F8011B9B6830469847031E01DB1C44F0
:1082B000F3E7002C08BF1C462046F8BD13B5044662
:1082C000084659B1019101F065FE23680199DB6808
:1082D0000246204602B0BDE81040184702B010BD6B
:1082E00008B5FFF7EBFF08BD03689B6818470A68ED
:1082F0000B46126801461846104738B50D21054651
:10830000FFF7F2FF0A2104462846FFF7EDFF20445D
:1083100038BD38B50546FFF7D1FF04462846FFF7BC
:10832000ECFF204438BD30B58BB00023012A8DF816
:10833000243098BF0A2209AC0D46B1FBF2F101FBD3
:10834000125303F0FF03092B94BF30333733DBB2F2
:10835000AA4204F8013DEFD92146FFF7AFFF0BB069
:1083600030BD2DE9F04186B000AF05460E46381D00
:10837000142114463B60FEF70BFB13280ED8391D61
:108380002846FFF79BFF04461EB12846FFF7B5FFBE
:10839000044420461837BD46BDE8F08100F10803CB
:1083A00023F00703E846ADEB030D2246411C3B6872
:1083B0006846FEF7EDFA69462846FFF77FFF044658
:1083C000C546E1E710B50446FEF724FC204610BD83
:1083D0000348044A04490023836001F0ABB900BF9D
:1083E00054E6032030DA0320C5830B000021FEF79A
:1083F000FFB80021FEF7F4B810B504460846217016
:10840000FEF7D6F800236360204610BD13B504467E
:108410000078FFF7EEFF58B9207801904FF6FF7112
:10842000FEF79EF8019802B0BDE81040FFF7DEBFEE
:1084300002B010BD13B5044600780191FFF7D9FFD3
:10844000019948B920780190FEF792F8019802B09E
:10845000BDE81040FFF7CABF02B010BD13B5044617
:1084600000780191FFF7C5FF019948B92078019084
:10847000FEF786F8019802B0BDE81040FFF7B6BFDE
:1084800002B010BD400830B518600024186888425A
:10849000E5B206D90134082C02D040081860F5E78F
:1084A0000725024B5B5D137030BD00BFC4AB0B00F2
:1084B0002DE9F04188B000230446007802930E466F
:1084C0001746FFF796FF054600BB94F8008001466B
:1084D000142203A801F016FD0B232A4603A94046E7
:1084E000ADF80C30FEF774F804988DF8075002AB25
:1084F0000DF1070207FB06F1FFF7C4FF20789DF896
:108500000710FEF745F82078FFF770FF029808B0D3
:10851000BDE8F08108B50078FEF742F8C0B208BDAA
:1085200010B504460068FEF71BFA204610BD10B5D2
:108530000446006808B1FEF713FA0023C4E90133CA
:10854000236010BD38B504460D4600680131FEF7C2
:108550000FFA10B1C4E90005012038BD10B5036859
:10856000044623B143688B4201D3012010BD20464D
:10857000FFF7E8FF0028F9D0A368002BF5D12268A7
:108580001370F2E737B50D46114601920446FFF726
:10859000E5FF019A28B92046FFF7C9FF204603B03E
:1085A00030BDA2602946206801F084FC2268A368DF
:1085B0000021D154F2E7002313B5C0E9003304468B
:1085C0008360037341B10846019101F0E3FC019916
:1085D00002462046FFF7D6FF204602B010BD884273
:1085E00010B5044605D00B682BB18A681946FFF711
:1085F000C9FF204610BDFFF79AFFFAE710B5002328
:108600000446C0E9003383600373FFF7E8FF2046A8
:1086100010BD13B5044659B10846019101F0BAFCEA
:10862000019902462046FFF7ADFF204602B010BD7B
:10863000FFF77DFFF9E710B504468AB00023C4E9CF
:108640000033A3602373084601A900F0F1FE01A9DD
:108650002046FFF7DEFF20460AB010BD10B50446E5
:108660008AB00023C4E90033A3602373084601A93C
:1086700000F075FE01A92046FFF7CBFF20460AB0A7
:1086800010BD70B505460E4609B9002070BD6AB12F
:10869000846814442146FFF761FF0028F5D028685C
:1086A000AB683146184401F06DFCAC600120EDE789
:1086B0008A680968FFF7E5BF07B500238DF8041045
:1086C000012201A98DF80530FFF7DBFF03B05DF84B
:1086D00004FB13B50A220446084601A900F0A8FECF
:1086E00001A801F057FC01A902462046FFF7C9FF87
:1086F00002B010BD10B58A6809680446FFF7C1FFD3
:1087000010B92046FFF713FF204610BD13B50446ED
:1087100029B92046FFF70BFF204602B010BD0846DE
:10872000019101F037FC019902462046FFF7A9FFAD
:108730000028EED0F0E710B50446FFF7CAFF10B9E5
:108740002046FFF7F4FE204610BD08B582683AB90E
:1087500021B10878B0FA80F0400900E0012008BD9E
:10876000006809B90078F5E701F002FCF2E710B5FE
:108770008368934207D904680968A01801F031FCA6
:1087800008B1001B10BD4FF0FF30FBE70022FFF7E0
:10879000EEBF0000F8B59A420F461D460C4988BF4F
:1087A00013461446064684BF2C461D46FFF703FFBA
:1087B000BB68A3420AD33968AB4294BFC4EB03023F
:1087C000C4EB050221443046FFF7DCFE3046F8BD1D
:1087D000C7A40B0010B504468B68FFF7DBFF2046EB
:1087E00010BD38B504460846A3688B4211D982B142
:1087F00011448B4238BF1A1A2568991A1318A160C0
:108800000A1AE918284401F063FB2268A3680021D2
:10881000D154204638BD8268521AFFF7E2BF10B526
:108820000446006818B1FEF79BF80023236010BDD2
:1088300038B50C460546FFF7F2FF54B12088FEF725
:1088400087F8286028B122882146BDE8384001F029
:1088500031BB38BD38B5B1F904308380D1F806306A
:10886000C0F806304B8943810C460546FFF7D7FF19
:10887000236813B12B600023236038BD07B50B4676
:1088800000210246009101208C21FDF7AFFF03B0CB
:108890005DF804FB01460020FFF7F0BF0020FFF762
:1088A000F9BF0000F0B52B4D0B7D04468BB0084698
:1088B000AF1D002B36D00B681B79002B32D0264B16
:1088C0000493002202A90430CDE90222FDF784FFBF
:1088D000DDF80E30C5F8063000B2BDF81230ADF844
:1088E0000C00A8800299BB802846FFF7A1FF02A8D0
:1088F000FFF795FF00232360A380A37123814FF628
:10890000FF736381B5F90430A380D5F80630C4F84D
:108910000630BB88296863812046FFF789FF20461F
:108920000BB0F0BD00262023CDE902360B4B00939F
:1089300002AA33460A493220FDF7F2FE064B0548EB
:1089400002964FF6F26202A9CDE90323FFF782FFF8
:10895000CDE700BF64E603200000FFFFD3AB0B00B0
:10896000CCAB0B0010B5094B094C02221A60002059
:10897000084BA360C4E90000FDF7E2FE2046064A6A
:108980000649BDE8104000F0D5BE00BF70E60320E8
:1089900064E603200000FFFF30DA0320DF400B0015
:1089A00013B503688DF80710DC6B01224FF0FF331D
:1089B0000DF10701A04702B010BD10B40368DC6BD5
:1089C0004FF0FF33A4465DF8044B604713B51346E0
:1089D00002688DF80710D46B0DF107010122A04742
:1089E00002B010BD10B54369B3F88620B3F88430E7
:1089F0009A42044608D06369B3F88420511CA3F856
:108A000084101344187910BD03681B699847002827
:108A1000F1D14FF0FF30F6E7704743691868C04363
:108A2000C00F704770470000064B994210B500F127
:108A30000C0405D0084600F08BFE002808BF002477
:108A4000204610BDCCAA0B0010B5AC21044600F0A6
:108A500076FE204610BDAC2100F071BE2DE9F0413C
:108A60004FF0000886B01C46C0F8048005460E464C
:108A700017464146102202A801F044FA631C09D0AF
:108A80004FF47A73B4FBF3F203FB1244CDE90228EE
:108A90005C430494686910230093006802AB41F2C0
:108AA000050240F6FF71FDF72BFD002807DAFDF700
:108AB0007FFF03686B60002006B0BDE8F081686945
:108AC000002300683A463146FDF73AFD031EEEDB0F
:108AD0001846F1E738B584690A4B036005467CB156
:108AE0006368013B63605BB9236820469B689847D5
:108AF000A368013BA3601BB923682046DB68984745
:108B0000284638BD30AC0B0010B50446FFF7E2FF35
:108B100020461C2100F013FE204610BD30B587B062
:108B2000044601AD6846FFF7E9FA0FCD04340FC4DF
:108B30002B68237007B030BD70B54D69054B0446F6
:108B40008C3544F8043B06460FCD0FC42B682370C8
:108B5000304670BD78AB0B002DE9F04398460368B2
:108B600093B00D460024DB6A064617469847284610
:108B70006B46224621460094FDF7BAFC05460028C4
:108B800063D1009B002B4BD05B69002B48D006A81B
:108B9000FFF770FA009B5C696378022B04D1211DFA
:108BA00006A8FFF7BBFF26E00A2B24D11122294695
:108BB00001A801F0A7F9A368002B38D004F108033D
:108BC0000DF1040C183418685968624603C2083362
:108BD000A3429446F7D1062301A90CA88DF81430BE
:108BE000FFF756FA0DF1340CBCE80F0007AC0FC4C8
:108BF000DCF80030237006A8FFF75CFA80B1336818
:108C000007ADD3F82090124B0C930FCD0DAC0FC4D1
:108C10002B6823703A4643460CA93046C8470546A0
:108C20000098FDF75DFC284613B0BDE8F083E368CB
:108C3000002BC3D14FF6FF70D4F81090FDF740FC25
:108C40008145BBD104F11401AAE72546E8E700BF3E
:108C500078AB0B0038B543691A68002A054610DA6C
:108C6000B3F88620B3F884309A420AD103681B69AE
:108C70009847044628B92B682846DB6A984720465F
:108C800038BD0120FCE710B54369B3F88620B3F87E
:108C900084309A42044605D06369B3F884201344B3
:108CA000187910BD03681B6998470028F4D14FF06C
:108CB000FF30F6E7F8B543691746B3F88620B3F8F6
:108CC00084309A4205460E4616D06969B1F8843060
:108CD000B1F88640E41ABC4228BF3C460433224621
:108CE0001944304601F0E6F86A69B2F8843023444A
:108CF000A2F884302046F8BD03681B699847002815
:108D0000E3D14FF0FF34F5E742690023A2F8843045
:108D10004269A2F8863070472DE9F0411F4603688A
:108D20000C46DB6A8AB0054616469847237DD5F87F
:108D30001480042B0CBF02200A2006220121FDF71B
:108D400007FCC8F800006B691B68002B08DA2B6869
:108D50002846DB6A0024984720460AB0BDE8F08127
:108D60002846FFF7D1FFB7B1002303A9F8B2039358
:108D7000ADF81030FDF794FB0028E8D168690623B0
:108D80000093006803AB41F20B0240F6FF71FDF760
:108D9000B7FB0028DBD11C22002103A801F0B2F8A8
:108DA000237D042B1DD14FF407733046ADF80C30F2
:108DB000FDF78EFBADF80E006068FDF781FB0490B7
:108DC0006B691C22186803A9FDF7AAFB0028BED115
:108DD00004340FCC6D698C350FC523682B700124CA
:108DE000BAE740F61C233046ADF80C30FDF770FBB7
:108DF00005AEADF80E00231D04F11407186859687C
:108E0000324603C20833BB421646F7D1D8E700000A
:108E100030B54269B2F886308BB004462BB1B2F857
:108E200084209A4201D1FFF76FFF6169086800282A
:108E300018DBB1F886507F2D14D804310823C5F112
:108E400080022944FDF774FB002813DD6369B3F841
:108E500086200AB9A3F884206369B3F886201044F9
:108E6000A3F886006369B3F88600B3F88430C01AAB
:108E70000BB030BDFDF79CFD03680B2BF2D0FDF766
:108E800097FD03680B2BEDD020230025CDE902359B
:108E9000FDF78EFD03680193084B0949009302AA70
:108EA0002B463220FDF73CFC63691868FDF730FB68
:108EB00063694FF0FF321A60D4E700BFFAAB0B00D2
:108EC000CCAB0B0010B5436904461868002801DBE1
:108ED000FDF71EFB63694FF0FF321A6060691122D3
:108EE00000218C3001F00EF82046BDE81040FFF75D
:108EF0000BBF10B5002304460160C0F884308830F1
:108F0000FFF7B8F8204610BD73B500234FF47A720E
:108F1000C0E901320E4A0361026043610446AC209D
:108F20000191FBF7B8F8051E05F10C0608D00123E6
:108F3000C5E90133074B01992B603046FFF7D9FF94
:108F40002046C4E90565FFF7DFFE02B070BD00BF33
:108F500030AC0B0014AC0B0010B54FF0FF310446E1
:108F6000FFF7D2FF204610BD10B504460068002868
:108F700001DBFDF7CDFA204610BD0C30FFF7F4BF42
:108F800008B50020FDF75CFC28B1FDF749FC80F036
:108F90000100C0B208BD0120FCE7000030B593B06D
:108FA000CDE90023194B0446D3E90010019B521868
:108FB00043EB00031648D0E90010521843EB0003BE
:108FC000CDE9002324220DEB0200002100F09AFFDE
:108FD000002509A96846FDF703FD1622294603A8C6
:108FE000029500F08FFF02A909A800F007FF02A870
:108FF00000F0D0FF12AB184402A900F8415C2046F3
:10900000FFF7D9FA204613B030BD00BF80E6032039
:1090100078E6032010B50020FDF7BAF90446A0B9A0
:10902000FDF786FB012810D12046FDF7B9FB60B99A
:10903000FFF7A6FF10B9FDF7E3FBF9E7FFF7A0FF85
:10904000BDE810400020FDF7A3B9204610BD1FB5B4
:10905000FFF7E0FF10220021684600F053FF0021D7
:109060006846FDF79DF9009805B05DF804FB000027
:10907000024B1A68024B1A60704700BFC4D9032024
:1090800074E6032070474174704708B5007CFDF713
:10909000EFFA20EAE07008BD08B5007CFDF7C0FAE1
:1090A00020EAE07008BD08B5007CFDF7C9FA40EA87
:1090B000E07008BD08B5007CFDF7BAFA40EAE07040
:1090C00008BD007CFDF7C4BA37B5457C04462DB118
:1090D000207C03B0BDE83040FDF79ABA007C0191D6
:1090E000FDF7C6FA00280199F2DC284603B030BD2E
:1090F00010B51421044600F022FB204610BD0000EC
:1091000010B54FF0000C0446084611464FF47A7231
:10911000C4E901C2044A22600122207462741A4622
:10912000FDF76EFA204610BD98AC0B0013B50E4C3F
:109130002178BFF35B8F11F0010112D1204601911C
:10914000FAF7AFFF019960B1084A094B0948FFF7E8
:10915000D7FF2046FAF7AAFF074A0849054800F05A
:10916000E9FA044802B010BD88E603208CE603202B
:1091700010E7032094E7032030DA032085900B00EA
:1091800041747047704708B50021007CFDF798FADC
:1091900040EAE07008BD08B50121007CFDF790FAB7
:1091A00040EAE07008BD08B5007CFDF781FA20EACE
:1091B000E07008BD08B5007CFDF772FA20EAE070A7
:1091C00008BD13B50446007C0191FDF771FA002833
:1091D000019901DC607C20B1207CFDF779FA20EA5E
:1091E000E07002B010BD007CFDF77ABA10B5142112
:1091F000044600F0A4FA204610BD000010B54FF45C
:109200007A73044608460021C4E90113044B236025
:109210000123207463741146FDF732FA204610BD15
:10922000C8AC0B00007C0022FDF732BA007CFDF7D1
:109230005FBA10B514220446002100F063FE2046F8
:1092400010BD000010B5104C88B003A8FFF7F1FF67
:109250002178BFF35B8F11F0010111D120460191FC
:10926000FAF71FFF019958B103AA0848FFF7C6FF94
:109270002046FAF71BFF064A0649044800F05AFA4E
:10928000024808B010BD00BFA8E70320ACE70320E8
:1092900030DA032085910B0030B5D1E901329342D9
:1092A00010DA0D685A1C4A600446382202FB035546
:1092B0000FCC0FC50FCC0FC50FCC0FC594E8030022
:1092C00085E8030030BD002240681146FDF700BB71
:1092D000002240681146FDF723BB40680022FDF7DD
:1092E00017BB4068002281F00101FDF7E9BA0022B6
:1092F00040681146FDF7BCBA406800220221FDF724
:10930000BFBA00001FB5002301910648029301A9CE
:109310000392FDF7F5F9039B9842A8BF184605B0E4
:109320005DF804FB99920B00024B04225A60024A3A
:109330001A607047C0E70320F8AC0B0010B5044674
:1093400000F028FE013823182046834206D902780F
:10935000197800F8011B03F80129F6E710BD2DE983
:10936000F041931E8CB0222B4FF000030D461446A3
:109370008DF82C3027D900282ADA2E462D2306F81E
:10938000013B40420A240DF12B074FF00108224611
:10939000014601A800F06AFD029B0198092BCCBF91
:1093A0003722302252FA83F307F8013908F1010815
:1093B0000028ECD14246791C304600F07BFD28465F
:1093C0000CB0BDE8F0810A2AD5D018B12E46DAE7F4
:1093D0000A24FAE730238DF82B302E460DF12A07A8
:1093E0004FF00208E6E770B50C46911E22291DD801
:1093F000254630B9234430229D4210D205F8012B76
:10940000FAE7B0FBF2F602FB1600C1B2092894BFDE
:1094100030315731C9B205F8011B3046E9E7002366
:1094200020462B70FFF78AFF204670BD0020FCE726
:1094300038B5031E0C4615460EDAB3F1004F4FF057
:109440002D0214BF5842184601230A702A461944B7
:10945000FFF7C9FF204638BD0123F9E7014B18602B
:10946000704700BFC8D9032008B50B4B43B1FFF7C5
:10947000E9FE03681B699847002801DDAFF300800F
:10948000064B43B1FFF752FE03681B69984700285B
:1094900001DDAFF3008008BD000000000000000007
:1094A00008B5FFF7E1FFFCF753FF014B186008BD5B
:1094B000D0E703200548064A064908B5121A00F00D
:1094C000F9FC054B054A1A6008BD00BF00F40320F3
:1094D00004F4032010B00B0000F403201E1C279A94
:1094E00007B5002300931A466FF07701FDF76AF97C
:1094F00003B05DF804FB000007B543880A2B08D0D1
:10950000502B0BD1094B1B684BB103B05DF804EB3A
:109510001847FFF7E5FF03B05DF804FB0023009355
:109520001A466FF07701FDF74DF9F4E7CCE7032019
:1095300010B512480021FDF74BFA114B1A68114B78
:109540009A42114B0CBF012200221A7001D0FFF782
:10955000B1FFFCF7EDFE044600F0DCFC0B4B13B151
:109560002046AFF3008000210848FDF771F9BDE8FF
:10957000104007480021FDF71BB900BF5D940B00A8
:1095800000F403201E1C279AC8E7032000000000F7
:10959000F9940B00232813B502D9002002B010BDA6
:1095A000A0F10B03022B1AD8174C2178BFF35B8F65
:1095B00011F001010BD120460191FAF772FD0199DA
:1095C00028B11248FEF718FF2046FAF76FFD0F4B3F
:1095D0001878FCF7F5FF0028DFD10120DEE701282D
:1095E00009D800F07FF80021007CFCF741FF80F0F3
:1095F0000100C0B2D2E709380128EED8FFF796FD86
:10960000007CFDF72DF8F2E724E6032028E603208E
:10961000232838B504460D460AD8FF2908D0FFF79D
:10962000B9FF28B129462046BDE83840FCF7C0BE46
:1096300038BD38B504460D46FCF7C2FEFF2810D0F1
:10964000062804D84D2323FA00F0C30709D4204686
:10965000FFF7A0FF28B129462046BDE83840FCF7B7
:10966000B7BE38BD10B50446FCF7AAFE031FDBB237
:10967000012B08D92046FFF78DFF20B12046BDE819
:109680001040FCF7ADBE002010BD000010B5084C26
:109690002378BFF35B8FDB0708D42046FAF701FD80
:1096A00020B1FCF75DFE2046FAF700FD014810BD31
:1096B000D4E70320D8E7032038B520251423044637
:1096C0000360856005610649284600F03CF80449BE
:1096D0006060284600F037F8E060204638BD00BFE3
:1096E0002CAD0B0030B50F4D2978BFF35B8F11F017
:1096F000010487B013D12846FAF7D3FC78B101A84A
:10970000FFF7DAFF01AA21460748FEF727FC2846A3
:10971000FAF7CCFC054A0649034800F00BF802486A
:1097200007B030BDDCE70320E0E7032030DA032098
:10973000057F0B000B460146184600F089BBFAF77F
:10974000AEBCFAF7A8BCFAF7A8BC08B5FDF728F933
:10975000014900F0F9B800BF48AD0B007FB5002407
:109760001023CDE90234036815469E6912686B46E2
:10977000CDE90044B0479DF8043003F00603062B02
:1097800003BF009B2B600120204604B070BD0098F1
:10979000904214BF012006207047000010B5034B13
:1097A0000360044600F0CDF8204610BD88AD0B00E4
:1097B00010B50446FFF7F2FF20460821FFF7BFFF70
:1097C000204610BD2DE9F0411F46DDE90834DDF8E3
:1097D000188098450646154607D1079900F0B4F859
:1097E00018B165710020BDE8F0813946304600F0BF
:1097F000ABF80028F6D00123C4F800802571A371CE
:10980000F0E738B515461C4600F09EF820B1082355
:10981000E36006232560237138BD73B505460C4609
:1098200001921E4600F090F850B9032E08D8236824
:10983000019A5B692946204602B0BDE8704018478E
:1098400002B070BD10B5034B03600446FFF7A6FFDE
:10985000204610BDE8AD0B0010B50446FFF7F2FF3F
:1098600020460C21FFF76BFF204610BDF7B5089F7F
:10987000974205460E4614460AD0A8680268089723
:10988000156A31462246AC4603B0BDE8F040604759
:109890001946019300F058F8019B0028EDD00620EE
:1098A00003B0F0BD2DE9F14F0D461946DDE90A4B35
:1098B000DDE90CA681461746984600F045F890B1C0
:1098C000002D3460377109DB61198A450CBF062110
:1098D0000121B171002001B0BDE8F08F0235F9D14E
:1098E0000123B371F6E7544506D15946484600F0C6
:1098F0002BF808B17771EDE7D9F808000368CDE9D6
:109900000CA6CDE90A4BDC693A4643462946A446F3
:1099100001B0BDE8F04F60472DE9F04107460C4625
:1099200015461E46FFF76DFF48B9B86803689F6982
:109930002A4633462146BC46BDE8F0416047BDE8B3
:10994000F081704700207047814208B50ED0406812
:1099500003782A2B0CD049680B782A2B08BF0131D9
:1099600000F006FBB0FA80F0400908BD0120FCE7DA
:109970000020FAE781F0004102E000BF83F00043DD
:1099800030B54FEA41044FEA430594EA050F08BF9A
:1099900090EA020F1FBF54EA000C55EA020C7FEA5E
:1099A000645C7FEA655C00F0E2804FEA5454D4EBDB
:1099B0005555B8BF6D420CDD2C4480EA020281EAA5
:1099C000030382EA000083EA010180EA020281EADD
:1099D0000303362D88BF30BD11F0004F4FEA01312F
:1099E0004FF4801C4CEA113102D0404261EB41013E
:1099F00013F0004F4FEA03334CEA133302D05242C4
:109A000063EB430394EA050F00F0A780A4F101047F
:109A1000D5F1200E0DDB02FA0EFC22FA05F28018B9
:109A200041F1000103FA0EF2801843FA05F359419F
:109A30000EE0A5F120050EF1200E012A03FA0EFC1E
:109A400028BF4CF0020C43FA05F3C01851EBE37148
:109A500001F0004507D54FF0000EDCF1000C7EEB65
:109A600000006EEB0101B1F5801F1BD3B1F5001FA3
:109A70000CD349085FEA30004FEA3C0C04F10104C2
:109A80004FEA445212F5800F80F09A80BCF1004FEB
:109A900008BF5FEA500C50F1000041EB045141EA6D
:109AA000050130BD5FEA4C0C404141EB0101013C36
:109AB00028BFB1F5801FE9D291F0000F04BF014625
:109AC0000020B1FA81F308BF2033A3F10B03B3F1F7
:109AD00020020CDA0C3208DD02F1140CC2F10C0287
