:02000002B0004C
:1040000000400B00B0AF0B00000006000C000502E2
:0840100004011F0C0000000078
:0440180018A00B00E1
:1040200009480A49884208B505D0094A824202D0A7
:10403000121A05F0B7FE0748074A0021121A05F0C8
:10404000D9FE014808BD00BFA8D9032004AF0B006A
:104050002CDA032030DA0320F4E7032070B5074E92
:10406000074C05F0DDF9A41BA4080025A54200D1EA
:1040700070BD56F8043B98470135F7E7DCAE0B00FE
:1040800000AF0B0000F016BC08B500F041FCBDE825
:10409000084005F07DB902F0D7BB02F0D5BB02F0B5
:1040A000DBBB0078B0FA80F0400970470123037051
:1040B0007047704710B50446043004F0ADF920464F
:1040C00010BD10B504463C3004F0A6F904F12800F8
:1040D00004F0A2F9204604F09FF9204610BD10B567
:1040E0000446006808B102F0B7FB204610BD38B5A1
:1040F0000446006928B185680C2105F098FA284625
:10410000F8E7204638BD10B504463AB903689B6805
:1041100098472046BDE8104004F06BB8D2B204F0D6
:104120007EF8F6E770B505460C46164642B90368B8
:10413000C9B29B6898472846BDE8704004F059B85A
:1041400000290ADA0A2A08D12D2104F049F861422F
:10415000F2B2284604F063F8EDE72146F8E708B527
:104160000021022002F080FABDE8084002F054B8B5
:1041700038B584690A4B036005467CB16368013B2E
:1041800063605BB9236820469B689847A368013B3E
:10419000A3601BB923682046DB689847284638BDD2
:1041A00020AB0B000EB403B503AB012153F8042B75
:1041B000019304F052F802B05DF804EB03B07047CD
:1041C000002340681A46194602F0E6BA0023406808
:1041D0001A46194602F0E8BA002340681A4602F06F
:1041E000BBBA00224068114602F0CEBA10B5074CA7
:1041F0000749204604F089F95023A36304F12800FD
:104200000449BDE8104004F080B900BF50E003202D
:104210002CA00B0038A00B0038B5274D274C05F01B
:10422000ADF904222946642002F026F805F0A6F92B
:1042300023490422002002F01FF805F09FF9042210
:104240002146C82002F018F805F098F91D4904220B
:104250004FF4967002F010F823684FF47A7293FBD3
:10426000F2F3236004F066FF2A681749FFF79AFF0C
:1042700004F060FF22681549FFF794FF2B680133B3
:1042800004BF4FF4FA732B602368013304BF0F237C
:1042900023600C4B1A68013204BF0A221A60084BD3
:1042A0001B68013306D104F045FFBDE838400849DA
:1042B00003F0ABBF38BD00BF40E0032044E0032063
:1042C00094DA0320E0E003203AA00B0050A00B009A
:1042D00066A00B00074B084A1B684FF47A704343F3
:1042E0001068064A93FBF0F310688342CCBF0020AD
:1042F00001207047E0E0032040E00320E4E00320D9
:1043000010B500210446022002F0AEF901F08CFF46
:10431000204610BD30B5044689B06548644DFFF7AE
:104320004FFF63480021FFF757FF2846FFF759FF6B
:1043300018B9642002F0D8FAF7E75D48FFF751FF9B
:10434000A8B904F0F7FE0490FFF709FF04F0F2FEAD
:10435000584903F05AFF04A8FFF7D2FF56482146F8
:1043600004F022F95248FFF731FF09B030BD04F0E4
:10437000E1FE0490FFF7F3FE04F0DCFE4F4903F08A
:1043800044FF04A8FFF7BCFF4D494B4804F059F91E
:10439000E8B904F0CFFE0390FFF7E1FE04F0CAFE97
:1043A0004849054604A804F082F8434904A804F0EB
:1043B0001DF90168284603F028FF04A804F02CF832
:1043C00003A8FFF79DFF3C49204604F0EDF8A168E3
:1043D0003D4D0139204604F09AF93C4904A804F007
:1043E00066F8214604A804F001F9394904F00AF9F5
:1043F0000146384804F06FF804A804F00DF804F002
:1044000099FE0490FFF7ABFE334B344900932A46E4
:10441000334B344801F05AFC04A8FFF771FF04F055
:1044200089FE0490FFF79BFE04F084FE2B682E4962
:10443000194403F0EAFE04A8FFF762FF04F07AFED5
:104440000390FFF78CFE04F075FE2849044604A88B
:1044500004F02DF8291D04A804F0C8F801682046CE
:1044600003F0D3FE04A803F0D7FF03A8FFF748FF2B
:1044700004F060FE0390FFF772FE04F05BFE1C493F
:10448000044604A804F013F8124904A804F0AEF896
:104490000168204603F0B9FE04A803F0BDFF03A89D
:1044A000FFF72EFF0649044804F02FF85AE700BF33
:1044B000C0E7032095A00B00B0E00320BFA00B00D5
:1044C000B7A30B00DEA00B009CE00320F1A00B00C3
:1044D000FBA00B008CE00320FEA00B0050E00320AB
:1044E000ACD903209CDA032003A10B000FA10B0021
:1044F0000CA10B002DE9F04FDFF818A13B4C8DB05B
:10450000DAF800304FF47A725343394A126893FB59
:10451000F2F32268934265DC364FDFF8FC9038688E
:10452000DFF8F880DFF8F8B001F056FE324B0025D6
:104530002268AA4235DD194604A803F0B8FF2F4BC4
:104540000A221968684603F0F2FF694604A804F0DD
:104550004DF8594604F056F819F8011B04F067F8B5
:10456000274904F04FF80A2258F8041B064608A809
:1045700003F0F0FF08A9304604F038F8214904F0B0
:1045800041F80146204804F00FF808A803F044FF62
:10459000684603F041FF04A803F03EFF0135164BC7
:1045A000C6E700231849236004A803F0A3FF174DB2
:1045B0001749154803F0A9FF386801F015FE28686F
:1045C00001F00AFE04A908A803F094FF08A8FFF769
:1045D000A1FE08A803F020FF286801F005FE04A84A
:1045E00003F01AFF01F0E8FD8AE700BFF8E50320B9
:1045F00040E0032030E0032016A10B0094DA0320F2
:104600002AA10B0039A10B0020E0032048E0032081
:10461000B7A30B0044E00320F8E40320F8E00320F4
:104620001FA10B0037B500220121032002F024F85E
:104630000121072004F064FF264D0021072004F02B
:1046400070FF0021022004F05BFF2B7D93B1022359
:104650002B722B68DB682BB39A88012A06D09B68E3
:10466000F9E79B68F3B19A88012AFAD19A89022A5C
:10467000F7D19A731848182101F063FA80B94FF402
:104680007A7002F031F904F055FD0190FFF767FDF3
:1046900004F050FD114903F0B8FD01A8FFF730FE0A
:1046A00003B030BD0E49102004F0C3FF044670B1C2
:1046B0001022002105F09EFB0A4B23600123A380FA
:1046C0002B69A3600223A381A3732C61D2E7287511
:1046D000D0E700BFC8E00320B8DE03203CA10B00F8
:1046E0001CAC0B001000030007B50B4B00221A6036
:1046F00004F020FD0190FFF732FD04F01BFD074997
:1047000003F083FD01A8FFF7FBFD0121072003B0A3
:104710005DF804EB04F005BF8CDA03200BA20B005C
:1047200007B504F007FD0190FFF719FD04F002FD45
:10473000064903F06AFD01A8FFF7E2FD002107200A
:1047400003B05DF804EB04F0ECBE00BF58A10B0011
:104750001FB504F0EFFC104C0190FFF700FD04F0D2
:10476000E9FC0E4903F051FD01A8FFF7C9FD2068DF
:1047700001F032FD01A80A4904F010F8019808B1CF
:1047800002F06AF8074B206800221A6004B0BDE806
:10479000104001F029BD00BF48E0032065A10B00D7
:1047A000C8E00320E4E0032030B53D483C4D87B02D
:1047B000FFF706FD3A480021FFF70EFD44F620649E
:1047C0002846FFF70EFD98B994B1642002F08CF8EA
:1047D00004F0B0FC643C0290FFF7C1FC04F0AAFCBA
:1047E0000A222146FFF79EFC02A8FFF789FDE7E7B2
:1047F0002B48FFF7F6FC002845D004F09BFC029004
:10480000FFF7ADFC04F096FC264903F0FEFC02A87D
:10481000FFF776FD01F078FF01F07EFF0028FBD066
:1048200001F07AFF10B1002001F07EFF1E4C01F074
:1048300073FF48B1002001F07FFF28B101F00CFDAB
:10484000206001F059FFF2E704F074FC0190FFF7DB
:1048500086FC04F06FFC044604F075FBC3170246A7
:1048600002A804F017FB029A10492046FFF79AFCB1
:1048700002A803F0D1FD01A8FFF742FD0848FFF7A9
:10488000A5FC07B030BD04F055FC0290FFF767FCB3
:1048900004F050FC064903F0B8FC02A8ECE700BFA6
:1048A000C0E703208BA10B00D0E70320A8A10B00D9
:1048B000BCA10B0013B5114C04F03CFC4FF4165195
:1048C00004F02CFCFFF7AEFEFFF790FCFFF7A4FC12
:1048D000FFF76AFF204601F077FC204601F084FCD8
:1048E00000234FF48062CDE900320549054B0648AC
:1048F000022201F059FC02B010BD00BF30E00320DD
:10490000F2A10B00F5440B004CE003200000000076
:104910002DE9F04F2DED028BC34E357897B03DB1A8
:10492000012D00F0BF8017B0BDEC028BBDE8F08F09
:1049300004F000FC0D90FFF712FC04F0FBFBBB49F8
:1049400003F063FC0DA8FFF7DBFC02F005FC02F0AE
:1049500051FC02F001FCB64A01460DA803F0F4F840
:104960000DA802F0E2FC02F0F7FBB24A01460DA8E6
:1049700003F0EAF80DA802F0D8FC0DA802F055FAF1
:10498000AD4903A802F056F903A908A802F052F9AC
:1049900008A802F095F9044608A8002C3AD102F0C4
:1049A000ABF90094ADF80A0002230DF10A020321CD
:1049B0000DA802F02FFA02F0CFFB00220DA902F0A1
:1049C00039FC02F0C9FB9D49002202F0C0FF02F051
:1049D000C3FB9B49002202F09BFF41F2883402F0A6
:1049E000BBFB02F03AFC00B9DCB902F0B5FB02F007
:1049F00034FC944C40BB207004F09CFB0890FFF703
:104A0000AEFB04F097FB904903F0FFFB08A8FFF70B
:104A100077FC28E002F072F9009502461023072186
:104A2000C6E704F087FB0A3C0890FFF798FB04F008
:104A300081FB0A222146FFF775FB08A8FFF760FCFF
:104A40000A2001F051FFCAE704F074FB0890FFF759
:104A500086FB04F06FFB7D4903F0D7FB08A8FFF746
:104A60004FFC012323707A4D237883B104F062FB5D
:104A70000890FFF774FB04F05DFB294603F0C5FBCB
:104A800008A8FFF73DFC642001F02EFFECE702F0E0
:104A900063FB02F06BFE02F05FFB02F0D0FC01232F
:104AA000337040E704F046FB6A4C0D90FFF757FB6C
:104AB00004F040FB6849DFF8D4B1DFF8D491674FC8
:104AC000DFF8D0A1DFF8D08103F09FFB0DA8FFF73E
:104AD00017FC204600F054FF614BD4ED037AD4ED6F
:104AE000048A94ED058A1A78CBED007AC9ED008A24
:104AF00087ED008A002A40F0DD809AED007A594C5B
:104B0000594D266877EEC77AF0EEE77A17EE900AED
:104B100005F00CF842A3D3E9002305F0DDF80028E6
:104B200078D1D8ED007A78EEE78AF0EEE87A17EEE1
:104B3000900A04F0FBFF3AA3D3E9002305F0CCF878
:104B4000002867D1494BD3ED007A38EE678AF0EE42
:104B5000C87A17EE900A04F0E9FF31A3D3E90023E5
:104B600005F0BAF8002855D1A855354415F8013C90
:104B7000002B00F09380256804F0E5F93C4B43F8E6
:104B8000250004F0D7FA0D90FFF7E9FA04F0D2FA05
:104B900022683849FFF706FB0DA8FFF7B1FB236831
:104BA0000133236004F0C6FA334C0D90FFF7D7FAB7
:104BB00004F0C0FA314903F028FB0DA8FFF7A0FB71
:104BC000206801F009FB012001F08EFE206801F051
:104BD0000BFB04F0AFFA0D90FFF7C1FA04F0AAFA4C
:104BE000274903F012FB0DA8FFF78AFBDBF8003022
:104BF0001E4ACAF80030D9F80030C8F800303B68C7
:104C00001360204B186817B0BDEC028BBDE8F04F65
:104C100001F06ABE0123AB551B4B00221A60AAE7C4
:104C20009A9999999999A93F98DA0320FFA10B00C5
:104C3000FCE50320C0E0032040DA0320E9460B0036
:104C400021470B0090DA032015A20B0007A20B00EE
:104C500049A20B00B8DE0320A9A20B0020E6032026
:104C6000A8D90320F8E50320F8E403203CE0032062
:104C7000F8E003205AA20B0030E003206EA20B00E4
:104C80008BA20B0040E00320E4E0032018E60320A1
:104C90001CE6032034E0032038E003200B4A1368AD
:104CA00001331360FFF716FB00283FF464AFFFF7F2
:104CB0004FFD60E700221A7004F03CFA0D90FFF7F8
:104CC0004EFA04F037FA02498BE700BFE4E0032014
:104CD000B3A20B002DE9F04FAF4D95B007460C463F
:104CE000AE48AF4903F011FC2B68072B00F20E8190
:104CF000DFE813F07D01C800A7008C006A004800BF
:104D0000230008003C447E1EA44F023CB44200F045
:104D10003E8304F00FFA0190FFF721FA04F00AFA3B
:104D200016F8011F0A22FFF7EEF901A8FFF7E8FACB
:104D30003178384603F03CFCE8E73C447E1EDFF85F
:104D40005C82984F023CA64200F0F68204F0F2F931
:104D50000190FFF704FA04F0EDF90A2216F8011F9A
:104D6000FFF7D1F901A8FFF7CBFA31788B4803F0B0
:104D70001FFCD8F8000004F0DFFF4FF47A735843AB
:104D80003860E0E73C447E1EDFF81082864F023C2C
:104D9000A64200F0558204F0CDF90190FFF7DFF94B
:104DA00004F0C8F90A2216F8011FFFF7ACF901A8B0
:104DB000FFF7A6FA3178794803F0FAFBD8F800003B
:104DC00004F0BAFF3860E3E73C447E1EDFF8CC8194
:104DD000764F023CA64200F0EC8104F0ABF9019062
:104DE000FFF7BDF904F0A6F90A2216F8011FFFF734
:104DF0008AF901A8FFF784FA3178684803F0D8FBF4
:104E0000D8F8000004F098FF3860E3E73C447E1EC9
:104E1000624F023CA64200F0928104F08BF90190AF
:104E2000FFF79DF904F086F916F8011F0A22FFF733
:104E30006AF901A8FFF764FA3178384603F0B8FB45
:104E4000E8E73C447E1EDFF88481544F023CA642D2
:104E500000F00D8104F06EF90190FFF780F904F085
:104E600069F916F8011F0A22FFF74DF901A8FFF7AB
:104E700047FA3178384603F09BFB3946404603F049
:104E80002AFBE4E73C447E1EDFF83481434F023CBA
:104E9000B44241D016F8011F384603F089FB394669
:104EA000404603F018FB04F045F90190FFF757F96D
:104EB00004F040F931780A22FFF725F901A8FFF73D
:104EC0001FFAE5E73A4B3B48382202FB0131043137
:104ED00003F01BFB04F02EF90190FFF740F904F0FA
:104EE00029F9A1680A22064603F099F9304603F031
:104EF00080F901A8FFF704FA2E492F48002202F09A
:104F000059F82E4900222C4802F059F82B68013339
:104F10002B6015B0BDE8F08F04F00CF9284E01901D
:104F2000FFF71DF904F006F9316803F06EF904F09B
:104F300001F9B1680A22044603F071F9204603F032
:104F400058F901A8FFF7DCF91549304603F079FB61
:104F5000044600283CD003232B60144C04F00EFBC5
:104F600021460422002001F087F916491248002248
:104F700002F025F821684C1C0BD00A2201A803F08E
:104F8000D6FA0D48002201A902F014F801A803F096
:104F900043FA0D490022B6E78CDA03207CDA0320BD
:104FA000B7A30B0044E0032040E0032094DA032081
:104FB000F8DE0320E4DE0320FCE50320EDA20B0075
:104FC000E8E0032032A30B0045A30B0010E0032010
:104FD000BA49304603F035FB0246002845D0B848B0
:104FE000234640682246214601F006FC2C60B54964
:104FF000B548DFF83CA3B54EB54CDFF8CC82DFF8FE
:105000003493002201F0DBFFB249AD48052204F0E1
:10501000F1F80027CAF80000DAF800100139B942A7
:105020007FF750AF3146204603F06FFA04F082F864
:105030000190FFF794F804F07DF8A1680A228346F6
:1050400003F0EDF8584603F0D4F801A8FFF758F93B
:1050500000222146404601F0ADFF0022494640466D
:1050600001F0ADFF01373836D6E79B494BE704F036
:1050700061F89A4C0190FFF772F804F05BF8216830
:1050800003F0C3F804F056F8A16806460A2203F0BC
:10509000C6F8304603F0ADF801A8FFF731F9904BA0
:1050A0002668D3F80080B8F1000F44D0404604F0E1
:1050B000E9FE0746002E40D0304604F0E3FE0446E9
:1050C0003822002106A804F095FE4C23CDE90138D2
:1050D0007B48059403238DF81830002301AA194654
:1050E0004068CDE9037601F07FFB04F023F80090DF
:1050F000FFF735F804F01EF87A49044601A803F0DA
:10510000D6F9774901A803F071FA774903F07AFAE2
:10511000724903F06BFA754903F074FA016820468E
:1051200003F073F801A803F077F96846FFF7E8F891
:105130006F490022E7E64746BCE73446C0E76D49C1
:105140006D4803F07EFA00283FF407AF5C4C002264
:105150006068114601F040FB00283FF4FEAE204697
:10516000FFF72EF800212046FFF736F8002260688E
:10517000114601F0F9FA78B103F0DCFF5F4903F062
:1051800044F800244E48FFF721F864B15C494E48CA
:10519000002201F014FFE0E62046FFF722F8044663
:1051A0000028E9D0EEE757494748224601F007FFBB
:1051B0001CE75549504803F044FA044698B904F0F6
:1051C000DDF952490422204601F05EF803F0B2FFF7
:1051D0000190FEF7C4FF03F0ADFF4D4903F015F851
:1051E00001A8FFF78DF804F0C9F904224749494C9A
:1051F000002001F041F803F09DFF3B684649194447
:1052000003F003F804F0BAF904222146642001F007
:1052100033F842492C48002201F0D1FE2168481C95
:105220000BD00A2201A803F082F92748002201A925
:1052300001F0C0FE01A803F0EFF83949002262E650
:1052400031492D4803F0FDF930B104F097F93149A7
:105250000422642001F010F804F090F9314C2D493B
:105260000422642001F010F804F088F9294904228E
:10527000642001F001F804F081F904222146C820DD
:1052800000F0FAFF002228490F4801F098FE236839
:105290005A1C0FD00A224FF47A7101A893FBF1F146
:1052A00003F045F90848002201A901F083FE01A896
:1052B00003F0B2F81D49002225E600BF6BA30B00E6
:1052C000C0E70320C1A20B00FCE50320FCDE0320A5
:1052D000E4DE0320F8DE032071A30B0010E00320BE
:1052E000E8E003208BA30B00A9A30B00B5A30B00E0
:1052F000B8A30B00ECA30B007CDA0320F1A30B0096
:10530000F9A30B0003A40B00B7A30B0094DA03204E
:1053100023A40B0040E0032030A40B0037A40B00B3
:1053200068A40B0044E00320BDA40B00EEA40B0016
:10533000F4DE0320EAA20B004549464803F081F958
:1053400030B104F01BF944490422C82000F094FF56
:1053500004F014F940490422C82000F095FF04F03D
:105360000DF93D490422C82000F086FF03F0E2FE5B
:105370000190FEF7F4FE03F0DDFE39680A22FEF725
:10538000D1FE01A8FEF7BCFF34490022BBE5344939
:105390003048344C03F055F900B3002201A9012034
:1053A0008DF8042001F070F90123237000242246B7
:1053B00001A901208DF8044001F066F92A48FEF7A2
:1053C000FFFE21462848284CFEF706FF2046FEF740
:1053D00008FF48B9642001F087FAF7E72378002B2B
:1053E000E4D103F0D7F991E51F48FEF7FAFE68B95A
:1053F00003F0A0FE0190FEF7B2FE03F09BFE1B49F6
:1054000002F003FF01A8FEF77BFFEAE703F092FE3C
:105410000190FEF7A4FE03F08DFE154902F0F5FEA3
:1054200001A8FEF76DFF13491348002201F0C7FDE4
:1054300001F06AF901F070F930B1104C00F00CFF86
:10544000206001F059F9F9E7642001F04DFAF1E725
:10545000B7A30B007CDA032044E003203FA50B0038
:1054600075A50B0014E60320C0E70320BCA10B00C8
:1054700079A50B0099A50B00FCE50320D0E70320DC
:10548000F0B5164691B00022C0E9002204460D4650
:105490000BAF194606A801F0CDFB1699384601F06E
:1054A000C9FB33788DF81430189B0293179B204664
:1054B000CDE9007305AA06AB294602F0CFF92046D4
:1054C00011B0F0BD10B52C21044604F0B0F8204610
:1054D00010BD000070B56E4D6E4BAB60002490B0F7
:1054E000C5E90044032001F0A7F86B4A6B49284640
:1054F00004F098F82146012001F0AEF868496948A7
:10550000694D02F0D4FF644A6849664804F08AF89D
:105510006349674802F0CBFF5F4A6449644804F07E
:1055200081F85F49634802F0C2FF5B4A5F49614806
:1055300004F078F85A49604802F0B9FF564A5B49CE
:105540005D4804F06FF856495C4802F0B0FF524ADB
:1055500056495A4804F066F85149594802F0A7FFE5
:105560004D4A5249564804F05DF856484A4A564951
:105570000461031D0360554B436001230375C0E9BB
:10558000024404F04FF85249524801F037FC5249A6
:10559000524801F033FC5249524801F02FFC524866
:1055A00000F033FB3C4A51494F4804F03BF83C497A
:1055B0004F4802F07CFF4F4802F0D8FC38494E4873
:1055C00002F075FF36494D4802F071FF324A4C49EE
:1055D000474804F027F832494A4802F068FF2E4A4B
:1055E00049494A4804F01EF805243826281D34226B
:1055F000002104F0FFFB013C45F8386BF6D1284947
:10560000434802F054FF244A2849414804F00AF86C
:10561000404800F0A7F8204A3F493E4804F002F80D
:10562000102330498DF8143006A801F003FB2949F6
:105630000BA801F0FFFA0BAB009305AA06ABCDE96E
:10564000014436493648FFF71BFF134A35493448B1
:1056500003F0E8FF042321498DF8143006A801F077
:10566000E9FA1C490BA801F0E5FA2F4B01930BABAB
:10567000009305AA2D49029406AB2D48FFF700FFC1
:10568000054A28492A4810B0BDE8704003F0CABF57
:1056900034DA03200000FFFF30DA0320DF400B0084
:1056A000B7A30B0020E00320F8DE032019840B00D1
:1056B00004E60320E8E0032010E00320B0E003202C
:1056C0007CDA0320C8E00320EF400B001000030049
:1056D000AEA50B0040DA0320D3A50B0054DA03205B
:1056E000F8A50B0068DA03209CDA032071410B0057
:1056F00050E0032060E0032078E003208CE00320EA
:10570000C3400B00A0E00320B5400B009CE0032049
:10571000E4DE0320B8DE0320B3400B001DA60B001F
:10572000FCE503202B730B00D54C0B0020A60B00CF
:10573000C0E003207047000038B50C460546202223
:10574000002104F1080004F055FB0B220449204617
:1057500004F0A0FB0123E360AA69C4E9042338BD77
:1057600051A10B00064A02604FF0FF32826142777E
:10577000C283FF2280F8202008224262704700BFC7
:1057800050A60B0013B50B4C2178BFF35B8F11F0C3
:1057900001010BD120460191FEF783FC019928B14C
:1057A000054802F0A5FD2046FEF780FC024802B045
:1057B00010BD00BF24E6032028E6032008B5FFF74C
:1057C000E1FF012102F0B2FDFFF7DCFF05490122F4
:1057D00002F0EAFDFFF7D6FFBDE80840002102F025
:1057E000B9BD00BF20A107002DE9F04190F920309C
:1057F000013305460F4606D1FFF7C4FF3946BDE821
:10580000F04102F003BE002407264FF0010895F98D
:105810002000002180B203F084FE95F91E0008FAF2
:1058200006F1394080B203F07CFE95F92000012199
:1058300080B203F076FE95F91F00640080B2E4B2F6
:1058400003F088FE08B144F00104013EDFD2204697
:10585000BDE8F08170B590F91D30013304460E4665
:10586000154616D103F0B6FE217F02F037FB03F098
:10587000B1FE036831469B68984703F0ABFE0368AE
:1058800029469B68984703F0A5FEBDE8704002F0EA
:1058900030BB90F92030013301D1FFF78FFF94F92D
:1058A0001D00002180B203F03CFE06F07F0120467F
:1058B000FFF79AFF29462046FFF796FF94F91D004F
:1058C0000121BDE8704080B203F02BBE38B590F9DD
:1058D0001D30013304460D461DD103F07BFE94F9C3
:1058E0001C1002F0FFFA03F075FE036829469B685E
:1058F000984703F06FFE02F0FCFA03F06BFE217F85
:10590000012202F0E8FA03F065FE03685B6998473C
:10591000C5B2284638BD90F92030013301D1FFF7D8
:105920004DFF94F91D00002180B203F0FAFD45F00F
:1059300080012046FFF758FF00212046FFF754FF63
:10594000054694F91D00012180B203F0EAFDE0E76D
:1059500008B52321FFF7BAFFC0F3011008BD38B521
:105960000D4620210446FFF7B1FF00F00F0343EA84
:1059700005122046D2B2BDE838402021FFF76ABFA9
:1059800038B590F91D300133044677D103F022FE7B
:1059900094F91C105D4D02F0A5FA03F01BFE03689C
:1059A000A8219B68984703F015FE02F0A2FA03F0C5
:1059B00011FE217F062202F08EFA03F00BFE03682F
:1059C0005B699847E08003F005FE03685B699847D0
:1059D000E38805EA00201843E08003F0FBFD03683C
:1059E0005B699847208103F0F5FD03685B69984780
:1059F000238905EA00201843208103F0EBFD0368AA
:105A00005B699847608103F0E5FD03685B6998472F
:105A100005EA00206589284360812046FFF798FF4A
:105A2000032869D002286AD001286BD0002843F6E9
:105A3000FC7318BF012307EE903AB4F9063007EE65
:105A4000103AF8EEE77AB8EEC77AB4F90830C7EE44
:105A5000276A07EE103AB8EEC77AC4ED036AC7EEBC
:105A6000276AB4F90A3007EE103AB8EEC77AC4EDE7
:105A7000046AC7EE276AC4ED056A38BD90F9203084
:105A8000013301D1FFF79AFE94F91D00002180B285
:105A900003F047FDE8212046FFF7A6FEFF21204640
:105AA000FFF7A2FEFF21E0802046FFF79DFEE3887E
:105AB00043EA0020E080FF212046FFF795FEFF210A
:105AC00020812046FFF790FE238943EA00202081B1
:105AD000FF212046FFF788FEFF2160812046FFF767
:105AE00083FE638943EA0020608194F91D0001214F
:105AF00080B203F016FD90E74FF400639BE74FF48C
:105B0000805398E741F6FE7395E700BF00FFFF0062
:105B100070B50C46054620220021201D04F06AF9CC
:105B200024232360AB69636001262846A660FFF743
:105B300027FFEB6863612B69A3616B69E361304602
:105B400070BD10B50446017790F91D00421C23D1A9
:105B500003F040FD02F090F90F212046FFF7B6FE5A
:105B600033283DD1072220212046FFF773FE07216D
:105B70002046FFF7F4FE882223212046FFF76AFE25
:105B8000102222212046FFF765FE204680221F2199
:105B9000FFF760FE012010BD012180B203F0C1FCBF
:105BA00094F91D00012180B203F0AAFC94F92000B1
:105BB000431C04D1FFF7E6FD02F0A4FBCCE7012172
:105BC00080B203F09DFC94F91E00012180B203F025
:105BD00097FC94F91F00002180B203F091FCBBE711
:105BE0000020D8E770B50C1E064615460BDA0A2AC7
:105BF00009D12D2102F0F4FA6142EAB23046BDE843
:105C0000704002F00CBB2146F7E710B5044603F0E4
:105C10001FF9204610BD0000F8B50F4F0546144689
:105C20000E4602F0D9FA3946284602F0D5FA214646
:105C3000284602F0EAFA03F07DFA314602F0CCFA87
:105C400003F078FA394602F0C7FA03F073FA2146F6
:105C5000BDE8F84002F0D9BA68A30B00F8B5144FBC
:105C6000044615460E4602F0B7FA3946204602F0C1
:105C7000B3FA0A2229462046FFF7B4FF204602F075
:105C8000B8FA03F057FA314602F0A6FA03F052FAD6
:105C9000394602F0A1FA03F04DFA294604460A22D9
:105CA000FFF7A0FF2046BDE8F84002F0A2BA00BF0F
:105CB00068A30B0010B50C4602F0A7FA03F03AFAFD
:105CC0002146BDE8104002F0A0BA00002DE9F04FD7
:105CD0000E4691B01F464FF0FF331360044600217B
:105CE0003046DDF86890904602F0ABFCD6F838E01C
:105CF0000346C0B9BEF1000F14BF7246502231688E
:105D000092B2204602F0A4FE051E18BF0125EDB98F
:105D100003F010FABE4902F078FA204611B0BDE84F
:105D2000F04F03F04BB8BB4B0A9306F1140CBCE8E0
:105D30000F000BAD0FC5DCF800302B701FFA8EF290
:105D400000230AA9204602F063FFDDE70021304668
:105D500002F077FC00285DD103F0ECF9AE4902F0C7
:105D60003BFA03F0E7F9316802F036FA03F0E2F9A2
:105D7000AA4902F031FA03F0DDF90A22B16B82463A
:105D8000FFF730FF504602F034FA4946204602F051
:105D900023FAA349204602F01FFAB16A204602F016
:105DA0001BFAA049204602F017FA03F0C3F99E49F6
:105DB00002F02BFA03F0BEF9494602F00DFA03F0A7
:105DC000B9F9974902F008FA03F0B4F9B16A02F0A0
:105DD00003FA03F0AFF9934902F0FEF99349944AAC
:105DE0002046FFF719FF0021304602F02AFC20B9B7
:105DF000326890492046FFF70FFF06F13C0A002168
:105E0000504602F01EFC88B9726C8B492046FFF7A1
:105E100025FF12E003F08EF9884902F0DDF903F066
:105E200089F906F1100102F0DEF99FE7844948463E
:105E300004F016F802460028E7D05FB1396849B18E
:105E40007A6820461AB1FFF7E7FE0837F6E7FFF752
:105E500031FFFAE7204602F0CCF9204602F058FD67
:105E60000021504602F0EDFB40B9F16B204602F0F4
:105E7000CCF903F05FF9F16B02F0C7F903F05AF9BE
:105E800004F11C0A6F4902F0C0F94FF4806200214E
:105E9000504603F0AFFF00F0DFF9009000F0DCF9AE
:105EA00000260190204602F02FFF814678B103F0D2
:105EB00041F9654902F090F903F03CF949460A229C
:105EC000FFF790FE03F036F9604902F09EF94FF0BB
:105ED000000B204602F018FF20B3204602F0FEFC23
:105EE000C7B203F027F9394602F07AF900F0B4F9A5
:105EF00040F2FE339E42009003D80AF80670013645
:105F0000E7E740F2FF339E42F9D1002384F81B34C7
:105F1000204602F053FF03F00DF94D4902F075F9E8
:105F2000AB46ECE7A3191877B9F1000F04D003F0E2
:105F300001F9484902F050F900F08EF9009BA0EBFE
:105F40000309BBF1000F06D141F28833994502D80D
:105F5000C82000F0C9FC204602F0F8FD41F2883369
:105F600000284CD099454CD8BBF1000F9AD003F0D3
:105F7000E1F8394902F030F903F0DCF8054600F0A9
:105F80006BF9019B0A22C11A284602F048F903F076
:105F9000D1F8324902F039F9204602F00FFF51469C
:105FA00002A802F084FA0C23092202A906A802F032
:105FB0006DFB03F0BFF82A4902F00EF903F0BAF8BE
:105FC000069902F022F927490AA802F070FA0AA9F4
:105FD00002A802F057FB04460AA802F01DFA631C4F
:105FE00046D103F0A7F8204902F00FF906A802F005
:105FF00013FA02A802F010FA11B0BDE8F08F99452B
:10600000B5D903F097F8194902F0FFF8AFE700BFE0
:10601000DFA60B0068AA0B0064A60B001DA10B00F5
:1060200069A30B009FA60B00ABA60B00D4A60B0028
:10603000CEA60B00FEA60B0003A70B0080A60B004C
:10604000FEA00B0012A70B0033A70B005FA70B00ED
:1060500067A70B009CA70B00F7A70B001CA80B0061
:1060600021A80B003BA80B0040A80B00C2A70B0007
:1060700008F104050A49284602F047FA221D02A940
:106080000AA802F023FB0AA9284602F08DFA0AA802
:1060900002F0C2F9069803F04FFEC8F80000A5E729
:1060A000B7A30B0008B5024B1B689B68019308BDA2
:1060B0007802030008B5024B1B68DB68019308BD3A
:1060C0007802030008B5024B1B681B6D019308BDE5
:1060D0007802030008B5024B1B689B6D019308BD55
:1060E0007802030008B5024B1B681B6E019308BDC4
:1060F0007802030008B5034B1B68D3F8983001936E
:1061000008BD00007802030008B5034B1B68D3F8F4
:10611000A830019308BD00007802030008B5034BC6
:106120001B68D3F8B430019308BD00007802030067
:1061300008B5034B1B68D3F8D830019308BD0000A5
:106140007802030008B5034B1B68D3F8DC300193D9
:1061500008BD00007802030008B5034B1B68D3F8A4
:10616000EC30019308BD00007802030008B5034B32
:106170001B68D3F8F030019308BD000078020300DB
:1061800008B5034B1B68D3F80031019308BD00002C
:106190007802030008B5034B1B68D3F80431019360
:1061A00008BD00007802030008B5024B1B685B685D
:1061B000019308BD4802030008B5024B1B68DB6869
:1061C000019308BD4802030008B5024B1B681B6B16
:1061D000019308BD4802030008B5024B1B689B6B86
:1061E000019308BD4802030008B5024B1B681B6CF5
:1061F000019308BD4802030008B5024B1B685B6CA5
:10620000019308BD4802030008B5024B1B689B6C54
:10621000019308BD4802030008B5024B1B68DB6C04
:10622000019308BD4802030008B5024B1B685B6D73
:10623000019308BD4802030008B5024B1B685B6868
:10624000019308BD1802030008B5024B1B68DB6808
:10625000019308BD1802030008B5024B1B685B6977
:10626000019308BD1802030008B5024B1B689B6A26
:10627000019308BD1802030008B5024B1B685B6C54
:10628000019308BD1802030008B5024B1B689B6C04
:10629000019308BD1802030008B5024B1B689B6DF3
:1062A000019308BD1802030008B5024B1B685B6E22
:1062B000019308BD1802030008B5024B1B689B68D8
:1062C000019308BD2C02030008B5024B1B68DB6874
:1062D000019308BD2C02030008B5024B1B681B6923
:1062E000019308BD2C02030008B5024B1B685B69D3
:1062F000019308BD2C02030008B5024B1B68DB6844
:10630000019308BD2802030008B5024B1B689B6976
:10631000019308BD2802030008B5024B1B68DB6926
:10632000019308BD2802030008B5024B1B681B6AD5
:10633000019308BD2802030008B5024B1B685B6A85
:10634000019308BD2802030008B5024B1B689B6A35
:10635000019308BD2802030008B5024B1B68DB6AE5
:10636000019308BD2802030008B5024B1B681B6B94
:10637000019308BD2802030008B5024B1B685B6B44
:10638000019308BD2802030008B5024B1B681B6C73
:10639000019308BD2802030008B5024B1B681B6D62
:1063A000019308BD2802030008B5024B1B685B6916
:1063B000019308BD6C02030008B5024B1B685B69C2
:1063C000019308BD6402030008B5024B1B681B6AF9
:1063D000019308BD6402030008B5024B1B689B6A69
:1063E000019308BD6402030008B5024B1B689B685B
:1063F000019308BD6802030008B5024B1B68DB6807
:10640000019308BD6802030008B5024B1B689B6935
:10641000019308BD3802030008B5024B1B68DB6915
:10642000019308BD3802030008B5024B1B681B6AC4
:10643000019308BD3802030008B5024B1B689B6A34
:10644000019308BD3802030008B5024B1B681B6BA3
:10645000019308BD3802030008B5024B1B689B6B13
:10646000019308BD3802030008B5024B1B681B6886
:10647000019308BD3002030008B5024B1B689B68FE
:10648000019308BD3002030008B5024B1B68DB68AE
:10649000019308BD3002030008B5024B1B681B695D
:1064A000019308BD3002030008B5024B1B685B690D
:1064B000019308BD3002030008B5024B1B68DB697D
:1064C000019308BD3002030008B5024B1B681B6A2C
:1064D000019308BD3002030008B5024B1B685B6ADC
:1064E000019308BD3002030008B5024B1B681B6C0A
:1064F000019308BD3002030008B5024B1B685B6CBA
:10650000019308BD3002030008B5024B1B681B68ED
:10651000019308BD3C02030008B5024B1B68DB6811
:10652000019308BD3C02030008B5024B1B681B69C0
:10653000019308BD3C02030008B5024B1B685B6970
:10654000019308BD3C02030008B5024B1B689B6920
:10655000019308BD3C02030008B5024B1B68DB69D0
:10656000019308BD3C02030008B5024B1B681B6A7F
:10657000019308BD3C02030008B5024B1B689B6AEF
:10658000019308BD3C02030008B5024B1B681B6861
:10659000019308BD4C02030008B5024B1B685B6801
:1065A000019308BD4C02030008B5024B1B681B6930
:1065B000019308BD4C02030008B5024B1B685B69E0
:1065C000019308BD4C02030008B5024B1B689B6990
:1065D000019308BD4C02030008B5024B1B68DB6940
:1065E000019308BD4C02030008B5024B1B681B6AEF
:1065F000019308BD4C02030008B5024B1B681B6EDB
:10660000019308BD7402030008B5024B1B685B6B65
:10661000019308BD6002030008B5024B1B681B6DA7
:10662000019308BD6002030008B5024B1B681B689C
:10663000019308BD2002030008B5024B1B685B688C
:10664000019308BD2002030008B5024B1B685B697B
:10665000019308BD2002030008B5024B1B68DB6AEA
:10666000019308BD2002030008B5024B1B685B6B59
:10667000019308BD2002030008B5024B1B689B6B09
:10668000019308BD2002030008B5024B1B68DB6BB9
:10669000019308BD2002030008B5024B1B689B6DE7
:1066A000019308BD2002030008B5034B1B68D3F813
:1066B0008830019308BD00002002030008B5034B99
:1066C0001B68D3F89430019308BD0000200203003A
:1066D00008B5034B1B68D3F8A830019308BD000030
:1066E0002002030008B5034B1B68D3F8AC300193BC
:1066F00008BD00002002030008B5024B1B689B6820
:10670000019308BD4402030008B5024B1B68DB6817
:10671000019308BD4402030008B5024B1B685B6986
:10672000019308BD4402030008B5024B1B68DB6AF5
:10673000019308BD4402030008B5024B1B681B6BA4
:10674000019308BD4402030008B5024B1B68DB6BD4
:10675000019308BD4402030008B5024B1B685B6847
:10676000019308BD4002030008B5024B1B689B68FB
:10677000019308BD4002030008B5024B1B68DB68AB
:10678000019308BD4002030008B5024B1B681B695A
:10679000019308BD4002030008B5024B1B685B690A
:1067A000019308BD4002030008B5024B1B689B69BA
:1067B000019308BD4002030008B5024B1B68DB696A
:1067C000019308BD4002030008B5024B1B681B6A19
:1067D000019308BD4002030008B5024B1B685B6AC9
:1067E000019308BD4002030008B5024B1B689B6A79
:1067F000019308BD4002030008B5024B1B68DB6A29
:10680000019308BD4002030008B5024B1B681B6BD7
:10681000019308BD4002030008B5024B1B685B6B87
:10682000019308BD4002030008B5024B1B681B6CB6
:10683000019308BD4002030008B5024B1B685B6C66
:10684000019308BD4002030008B5024B1B681B689A
:10685000019308BD1C02030008B5024B1B685B686E
:10686000019308BD1C02030008B5024B1B689B681E
:10687000019308BD1C02030008B5024B1B681B698D
:10688000019308BD1C02030008B5024B1B685B6A3C
:10689000019308BD1C02030008B5024B1B68DB6AAC
:1068A000019308BD1C02030008B5024B1B68DB6B9B
:1068B000019308BD1C02030008B5024B1B681B6C4A
:1068C000019308BD1C02030008B5024B1B685B6CFA
:1068D000019308BD1C02030008B5024B1B68DB6C6A
:1068E000019308BD1C0203000021FFF7ADBE7047F5
:1068F0007047704770470000064B994210B500F191
:106900000C0405D0084602F09BFE002808BF0024B6
:10691000204610BDBCA90B00064B994210B500F1F2
:106920000C0405D0084602F08BFE002808BF0024A6
:10693000204610BDBCA90B00064B994210B500F1D2
:106940000C0405D0084602F07BFE002808BF002496
:10695000204610BDBCA90B0010B56821044602F00A
:1069600066FE204610BD10B52821044602F05FFEE9
:10697000204610BD10B53021044602F058FE2046D6
:1069800010BD682102F053BE282102F050BE302114
:1069900002F04DBE10B50446006808B1FFF734FCA4
:1069A000204610BDF0B50025EC1C8C420DD86E1CA5
:1069B000445D875D974205D12644B14205D31D60F1
:1069C000601CF0BD01342544EEE70020F9E72DE915
:1069D000F34704469DF828701E46894601AB904651
:1069E0000A46016AFFF7DEFF256AB31C0FBB00B33E
:1069F0005F193F1A1F2F18D8DDF8049009F1020A19
:106A0000A5EB090206EB0A03121A4844211892B2B8
:106A1000E01803F0D5F9731C04F8093032464146FA
:106A200004EB0A0003F0BEF92762206A02B0BDE859
:106A3000F0872B441F2BF8D8731C6355A81C2544E2
:106A40002062324685F801904146204403F0AAF9BD
:106A5000236A33442362E8E7024A00210A20FFF751
:106A6000D3BD00BF49620B00034608461B68D3E94B
:106A70000021104730B40D4611461A4603680968D4
:106A80002868D3E90043A44630BC6047012A38B5E2
:106A9000044602D10B68236003E0022A03D0032AD4
:106AA0000DD0002038BD08200D68FDF7F4FA03462C
:106AB0000028F0D095E8030083E80300EBE70068C6
:106AC0000028EED0082102F0B2FDEAE7012A38B52D
:106AD000044602D10B68236003E0022A03D0032A94
:106AE0000DD0002038BD08200D68FDF7D4FA03460C
:106AF0000028F0D095E8030083E80300EBE7006886
:106B00000028EED0082102F092FDEAE710B5836874
:106B1000044613B1032201469847204610BD10B524
:106B200004465830FFF7F2FF04F14800BDE810407A
:106B300001F072BC10B54368013B0446436063B981
:106B400003689B689847A368013BA3602BB923683F
:106B50002046DB68BDE81040184710BDA0F13003A7
:106B6000DAB2092A01D818467047A0F16103052B53
:106B700001D857387047A0F14103052B94BF37382F
:106B80004FF0FF307047000010B500230370044B36
:106B900004461868FFF740FB01232370204610BD10
:106BA00038E6032010B5037804461BB1024B186881
:106BB000FFF73AFB204610BD38E6032082B00346BB
:106BC000086849686A4603C26A4603CA18601846DC
:106BD000596002B0704708B582798B799A4206D124
:106BE000062203F0CFF8B0FA80F0400908BD00207B
:106BF000FCE74FF0FF33036083800020704708B547
:106C00000246002101604160FFF7F3FF91711046D9
:106C100008BD000010B501230361054B024603F1D6
:106C2000100153F8044B42F8044B8B42F9D110BDCC
:106C3000CAA90B0010B50B69036101F110020346EC
:106C400051F8044B43F8044B9142F9D110BD10B5F3
:106C50000B460446B1B1012A01F110020AD10146E6
:106C600053F8040B41F8040B9342F9D1012323613B
:106C7000204610BD411E12F8010D01F8010F9A4285
:106C8000F9D1F3E7102203F0B5F8F1E738B504467F
:106C900015461A46FFF7DBFFA581204638BD0000E8
:106CA00008B5026922B98089003818BF012008BDE3
:106CB0000249102203F066F8F6E700BFEAA90B00CC
:106CC0000069704738B50C4614220021054603F0D0
:106CD00091F823691BB9A3892B80284638BD01236D
:106CE0002B7421462B4604F1100251F8040B43F893
:106CF000040B9142F9D1F0E780897047704708B5DD
:106D000002690B699A4206D1102203F03BF8B0FAEF
:106D100080F0400908BD0020FCE7000001232DE9B8
:106D2000F3410361344B0C460646024603F1100161
:106D300053F8040B42F8040B8B42F9D144B32421DD
:106D4000204603F0BAF804284FF0000523D1ADF82F
:106D5000045001AFA51C063415F8020CFFF7FEFE27
:106D6000B0F1000812DB15F8010CFFF7F7FE002860
:106D70000CDB023540EA0810A54207F8010BEBD105
:106D80009DF8053033739DF804307373002333612D
:106D900002B0BDE8F0814FF010082421204603F036
:106DA0008CF8A84207D842460021304602B0BDE820
:106DB000F04103F01FB8B8F1000FE9D0605DFFF7B4
:106DC000CDFE030615D4000108F1FF38C7B206F85E
:106DD00008702421204603F070F80135A84208D934
:106DE000605DFFF7BBFE40B20028A4BF384306F841
:106DF00008000135D1E700BFCAA90B0013B504464E
:106E00000191FFF707FF20460199FFF787FF204612
:106E100002B010BD30B49DF808501AB1029530BCD4
:106E2000FFF7D5BD006A30BC70471FB504461F226E
:106E3000002102F0DFFF00232362009306220123DA
:106E40008DF80F2019460DF10F022046FFF7E2FFE3
:106E5000204604B010BD73B50A460E4601AB016A68
:106E60000446FFF79FFD054678B10198226A411953
:106E7000121A2144521B204402F094FF206A401B46
:106E8000206231462046FFF7E6FF02B070BD0000E9
:106E900038B54FF6FF730025044643800E2229467D
:106EA00005700571063002F0A5FF04F11400FFF72C
:106EB000B1FE04F12800FFF7ADFE044904F13C00E7
:106EC00001F0F5FA6565204638BD00BFB7A30B0099
:106ED00010B5D0E9063203EBC2029342184606D041
:106EE000046824888C4203F10803F6D110BD002009
:106EF000FCE70000F0B5064685B01F460D460029A8
:106F000050D0002A4ED004682378F42A28BFF422F7
:106F100043B32379980709D5A08903920023FFF78B
:106F2000FDF80028039A03DA05B0F0BD6FF0770092
:106F300034682379D90609D5012F07D0A089002309
:106F4000294605B0BDE8F040FFF71AB99B06EBD51E
:106F5000022FE9D0A0890023294605B0BDE8F04002
:106F6000FFF718B960884FF6FF7188421CD021796D
:106F70004E0701D5012F04D10B0709D46FF077001C
:106F8000D2E7A189009313462A46FFF7DBF8CBE747
:106F9000022FF3D00023A189009313462A46FFF75E
:106FA000C7F8C1E70248BFE76FF0D100BCE700BFF8
:106FB000F2FEFFFF13468A680968FFF79BBF37B5EB
:106FC0000C460546F4212046019202F076FF019B13
:106FD00002462146284603B0BDE83040FFF78ABF8D
:106FE0002DE9F04100260660074628200C46FDF7F3
:106FF00052F8051E05F10C080FD00123C5E9013335
:10700000084B2B604046FFF705FE0FCC2E6285F83B
:10701000246046460FC623683360C7E900853846BA
:10702000BDE8F0818CA90B0070B50025056006460F
:107030003020FDF730F8044688B10123C0E9013360
:10704000094B03604FF6FF7383810E30FFF7D7FDC6
:10705000C4E90655C4E90855C4E90A55A575746024
:107060000C343460304670BDA8A90B0013B504463B
:1070700001A8FFF789FD23681C884FF6FF73E41A07
:1070800001A818BF0124FFF78DFD204602B010BDF6
:1070900037B50D46044601A8FFF776FD2A68D2F8F9
:1070A00002302360D2F80630636001A8FFF77AFD52
:1070B000204603B030BD30B5054687B00C4601A868
:1070C000FFF762FD2A68236812881B889A420DD157
:1070D000294602A8FFF7DCFF214604A8FFF7D8FFE6
:1070E00004A902A8FFF777FD044600B9002401A80F
:1070F000FFF758FD204607B030BD000010B504462C
:107100005420FCF7C8FF014660B10023C0E90033FA
:10711000C0E90233C0E90433C0E906330362C36245
:10712000C363C364216019B9094A0A20FFF76CFAE6
:107130000020FEF7B7FF20B1054A00210A20FFF723
:1071400063FA216803480022FFF710F8204610BDBB
:1071500049620B0071750B0010B50B4C2378BFF31F
:107160005B8FDB070ED42046FCF79BFF50B107482E
:10717000FFF7C4FF2046FCF799FF054A054903487D
:1071800002F050FA014810BD30E603203CE603202F
:1071900030DA032095730B0030B50368093B012BEF
:1071A0008DB004460D4611D8FFF7D6FFA1880068C0
:1071B000FFF78EFE034658B92022CDE904200B4A82
:1071C00000920B4904AA3220FFF726FA0DB030BD19
:1071D0006A6D002AFAD0D4E9032105F14C00CDE90B
:1071E0000312AC6D04AA03A9A047EFE799A80B000E
:1071F00072A80B0008B50020FEF754FF00EAE0700B
:1072000008BD084611B90A46FEF75CBF096A0022AC
:10721000FAE707B5084629B90A4603B05DF804EB5A
:10722000FEF758BF01210190FFF715FE01980022DB
:10723000016AF2E738B504461546FFF7E2FF002879
:107240000ADB29462046FFF7E4FF002804DBBDE8FF
:1072500038400020FEF746BF38BD0368D8690028D3
:10726000D4BF00200120704738B500230446836056
:1072700008200D46FCF70FFF18B12B6803606B6800
:107280004360034BE360034B2060A360204638BD9E
:10729000756A0B00CD6A0B0038B500230446836085
:1072A00008200D46FCF7F7FE18B12B6803606B68E9
:1072B0004360034BE360034B2060A360204638BD6E
:1072C000696A0B008D6A0B000B68036013B15A6882
:1072D00001325A60704710B551F8043B044640F83B
:1072E000043BFFF7F1FF23680BB9FFF7B5FB20461E
:1072F00010BD10B551F8043B044640F8043BFFF7BD
:10730000E3FF204610BD10B551F8043B044640F899
:10731000043BFFF7D9FF204610BD10B504460068B6
:1073200008B1FFF707FC204610BD10B50446043035
:10733000FFF7F3FF204610BD70B5D0E900530446B7
:1073400005EBC306AE4204D0281DFFF7E6FF083563
:10735000F8E72068FFF780FA204670BD70B5D0E9E5
:107360000053044605EBC306AE4204D0281DFFF7C8
:10737000D4FF0835F8E72068FFF76EFA204670BDA5
:1073800010B504462430FFF7E9FF04F11800FFF7B9
:10739000D3FF10BDF8B50468064624B304F14400D9
:1073A000FFF7B4FB04F13400FFF7B0FB04F1240055
:1073B000FFF7ACFBD4E9065305EBC307AF4204D09B
:1073C000281DFFF7AAFF0835F8E7A069FFF744FA80
:1073D00004F10C00FFF7C2FF2046FFF7ADFF542178
:1073E000204602F024F93046F8BD13B50023D1E958
:1073F0000042C1E9003303680093046043684260BF
:1074000001A80193FFF789FF02B010BD826810B593
:107410000AB902F012F9BDE81040C368184770B508
:10742000D0E90053044605EBC306AE4204D0281D44
:10743000FFF773FF0835F8E70023636070BD13B5ED
:1074400004460020FEF736FE00280ADB01A8FFF7FD
:107450009BFB20681830FFF7E2FF01A8FFF7A2FBB3
:10746000002002B010BD8842F8B504460D4616460D
:1074700014D9904213D2A2F10806751AA1F1080797
:107480002C44B74218D01CB131462046FFF73BFFD1
:10749000301DFFF742FF083E083CF2E70CD0B54232
:1074A0000AD01CB129462046FFF72DFF281DFFF703
:1074B00034FF08350834F2E7F8BDF7B504464668EE
:1074C0006846FFF720FFD4E901739F4212DB0137C2
:1074D000002F29DDF800FFF7B7F90546F0B1D4E930
:1074E000001201EBC202FFF7BEFF2068FFF7B4F9FC
:1074F0002560A7602368626803EBC60603EBC2023F
:10750000314606F10800FFF7AEFF1EB1694630466E
:10751000FFF7F9FE636801336360012501A8FFF7F7
:10752000FCFE284603B0F0BD0025DEE7F8B5D0E943
:10753000004305460F4604EBC306A64205D0394674
:107540002046FFF7B8FD08B114B9F8BD0834F4E7D8
:10755000201DFFF7E2FED5E9003204F1080103EB3C
:10756000C2022046FFF77FFF6B68013B6B60ECE7D0
:107570002DE9F04105468EB003A80C46FFF704FB49
:107580002E68042E6DD007D8032E2AD003A8FFF74B
:1075900009FB0EB0BDE8F081A6F10C03042BF5D871
:1075A000A9892046FFF794FC07460028EED0E36C3B
:1075B000002BEBD01022002107A802F01BFC0D2E9F
:1075C00006978DF81C6002D0102E40F092806B68F8
:1075D000099306230893236D06A904F144009847F4
:1075E000D4E704A8FFF720FD049BAA891A806968E4
:1075F000049808310230FFF7E1FA04A906A8FFF762
:1076000082FE06A904F11800FFF757FF054607A8F8
:10761000FFF783FE202306938DB93E4B3E4900932E
:1076200032202B4606AA0795FEF7F6FF049B294653
:107630001888FEF75FFD05A8FFF76FFEA6E7374A3B
:10764000009200233449079306AA0120FEF7E4FFC5
:10765000E36A002BEFD004A904F12400FFF7D6FE63
:10766000E9E7A9892046FFF733FC064600288DD0BC
:107670000568D5E906324FF6FF71298003EBC20297
:107680009A4203D053F8080B4180F9E7D5E9037318
:1076900007EBC308B84504D0381DFFF73EFE083796
:1076A000F8E700232B61D5E9067307EBC308B8455B
:1076B00004D0381DFFF731FE0837F8E70023EB61EF
:1076C000AB72E36B23B1314604F13400FFF79EFE49
:1076D00000232022CDE90623114A00920E4906AA72
:1076E0000120FEF799FF314604F11800FFF71EFF55
:1076F0004CE70F2E7FF46FAF6B6809932B7A03F082
:107700000102C3F340038DF829308DF828200823A7
:1077100060E700BFB1A80B0072A80B00D7A80B0050
:10772000F4A80B0013B50446FFF7A0FCD0B1236802
:1077300000211888FEF7DEFC002811DB01A8FFF706
:1077400023FAFFF709FD006821461830FFF7EEFE27
:1077500023684FF6FF721A8001A8FFF723FA002072
:1077600002B010BD6FF0D100FAE700002DE9F3413F
:10777000044601A8FFF708FA2368104ED3E906452E
:107780004FF0000804EBC5050127AC420ED030686D
:10779000FEF74AFD20468DF80480FFF7C3FF3068EE
:1077A000FEF73AFD08348DF80470EEE701A8FFF704
:1077B000F9F9002002B0BDE8F08100BF38E60320EF
:1077C00013B50B460246D0E900016C4684E803007D
:1077D00093E8030082E8030094E8030083E80300D1
:1077E00002B010BD38B505460C46FFF7E9FFAB689F
:1077F000A268AA60A360EB68E268EA60E36038BD53
:1078000070B50E468CB0044601921D46FFF740FB52
:1078100033780199237104F13C0000F076FE04F105
:107820004C06CDB1109B029502A904A80393FFF763
:107830001BFD002308A904A80A93FFF7D3FF3146D4
:1078400008A8FFF7CFFF08A8FFF760F904A8FFF723
:107850005DF920460CB070BD0695EAE72DE9F04FC2
:1078600089B01D46DDE9124380468A469346149945
:1078700003930022682002910692FCF70CFC061E7E
:1078800006F10C091CD001223746C6E90122174A2D
:1078900047F8202B02999BF80020039B8DF81420B9
:1078A0000091524605A94846FFF7AAFF0FCD0FC722
:1078B0002B683B600FCC06F134050FC523682B60A5
:1078C00006A94046CDE90696FFF78FFD07A8FFF70A
:1078D00024FDD8F8001031B9054A0A2009B0BDE8E6
:1078E000F04FFEF791BE09B0BDE8F08F70A90B0014
:1078F00049620B0038B505460C46FFF761FFAB68DF
:10790000A268AA60A360EB68E268EA60E36038BD41
:1079100010B504688AB03434B9B1CDE9001202A8B8
:107920006946FFF7B9FC002306A902A80893FFF7F0
:10793000E1FF214606A8FFF7DDFF06A8FFF7E6F8FE
:1079400002A8FFF7E3F80AB010BD0491EBE710B509
:1079500004688AB02434B9B1CDE9001202A869469E
:10796000FFF79AFC002306A902A80893FFF7C2FFBD
:10797000214606A8FFF7BEFF06A8FFF7C7F802A832
:10798000FFF7C4F80AB010BD0491EBE78842F8B5E0
:1079900004460D46164614D9904213D2A2F10806A9
:1079A000751AA1F108072C44B74218D01CB1314612
:1079B0002046FFF79EFC301DFFF7AFFC083E083C59
:1079C000F2E70CD0B5420AD01CB129462046FFF799
:1079D00090FC281DFFF7A1FC08350834F2E7F8BD3C
:1079E00070B50E1E054611DDF000FEF72DFF0446B2
:1079F00058B1D5E9001201EBC202FFF7C7FF2868B2
:107A0000FEF72AFF2C60AE60012070BD0024F6E76F
:107A100073B5044645686846FFF76BFCD4E901136B
:107A2000994210DA2368626803EBC50503EBC202D2
:107A3000294605F10800FFF7A9FF8DB963680133F6
:107A40006360012606E001312046FFF7C9FF0646C4
:107A50000028E7D101A8FFF760FC304602B070BDF6
:107A600069462846FFF745FCE8E78842F8B5044632
:107A70000D46164614D9904213D2A2F10806751A83
:107A8000A1F108072C44B74218D01CB1314620465A
:107A9000FFF721FC301DFFF740FC083E083CF2E7F1
:107AA0000CD0B5420AD01CB129462046FFF713FC82
:107AB000281DFFF732FC08350834F2E7F8BD70B531
:107AC0000E1E054611DDF000FEF7BEFE044658B15D
:107AD000D5E9001201EBC202FFF7C7FF2868FEF7E5
:107AE000BBFE2C60AE60012070BD0024F6E773B5CC
:107AF000044645686846FFF7EEFBD4E90113994256
:107B000010DA2368626803EBC50503EBC20229465D
:107B100005F10800FFF7A9FF8DB9636801336360C1
:107B2000012606E001312046FFF7C9FF064600287E
:107B3000E7D101A8FFF7F1FB304602B070BD6946FE
:107B40002846FFF7C8FBE8E72DE9F04F1746A1B03C
:107B500080460AA80E46FFF717F83C68237953B908
:107B600039464046FFF7B7FB0AA8FFF71BF8404627
:107B700021B0BDE8F08F3368D3E9035305EBC303AD
:107B8000039304F1280A04F1140B039B9D4221D0B6
:107B9000D5F80090584609F11401FFF7B0F8B8B1D4
:107BA00009F128015046FFF7AAF888B12368D9F8EF
:107BB0000020534033F47F430AD12022CDE915231E
:107BC0005E4A009215AA5E493220FEF725FDC7E7FE
:107BD0000835DAE75046FFF763F860B959490122E2
:107BE00015A815ADFFF733F80FCDD446ACE80F005C
:107BF0002B68CCF800303368D3E9005305EBC30B96
:107C00005D45A94651466ED055F8080BFFF777F849
:107C10000028F5D004F1140A5046FFF741F888B95E
:107C2000494B48491A88013292B21A8015A801239B
:107C300015ADFFF72BF80FCDD446ACE80F002B683D
:107C4000CCF80030414B15932822002116A802F0F1
:107C5000D1F8514604A8FFF735F804AB18AA0DF186
:107C6000200C18685968154603C5083363452A4631
:107C7000F7D11868286023798DF85830D9F800308A
:107C80009B8AADF87430E36B1793314B0022A11D32
:107C900015A8CDE91E34FEF75FFA00287FF460AF27
:107CA00001232370346839460C340DA8FFF713FB09
:107CB00020460DA9FFF71BFF04460EA8FFF72DFB7A
:107CC000002C7FF44DAF2023CDE90D34214B0093E0
:107CD0000DAA234677E739464046FFF7FCFA0CA881
:107CE000FFF71BFB40E70BA8FFF77AF9514615A8F1
:107CF000FEF7E8FF0B9A0023143215A90120FEF7C6
:107D000003FA0028E7D135680BA90DA8FFF7F1FAAF
:107D100028460DA9FFF77CFE05460EA8FFF7FDFAE1
:107D2000002DD8D032685368126803F10053013B2C
:107D30000CA802EBC309FFF7F0FA6BE713A90B00DD
:107D400072A80B00DAA90B0034E6032003002C0014
:107D500099710B003EA90B0010B5064C002320467C
:107D60002360FEF749FA2046034A0449BDE8104063
:107D700001F058BC38E6032030DA032095690B0087
:107D8000002240681146FEF71FBD002240681146E0
:107D9000FEF742BD40680022FEF736BD4068002273
:107DA00081F00101FEF708BD002340681A4619461C
:107DB000FEF7FABC002340681A461946FEF7ECBCF1
:107DC000002240681146FEF7DFBC002240681146E1
:107DD000FEF7CABC406800220221FEF7CDBC00239A
:107DE00040681A46FEF7B8BC024B03225A60024AAA
:107DF0001A60704740E6032004AA0B007047F8B5EC
:107E0000064615460C468F18BC4206D0336814F857
:107E1000011B9B6830469847F6E72846F8BD007C72
:107E20000022FEF781BA007C0021FEF785BA007CB3
:107E30000021FEF789BA007C0021FEF78DBA007C94
:107E40000021FEF791BA10B51421044601F0EFFBB2
:107E5000204610BD10B54FF47A7304460846002141
:107E6000C4E90113034B236020741146FEF78CFA1A
:107E7000204610BD40AA0B000023007C1A4619467C
:107E8000FEF73ABA7FB500221423CDE90122ADF8FE
:107E900004300B788DF808304B680393CB6804935B
:107EA000007C0B7A059301A9FEF776FA07B05DF81E
:107EB00004FB1FB5003B8DF800104FF064010391E7
:107EC00018BF0123694601928DF80830FFF7DAFFE9
:107ED00005B05DF804FB0123FFF7EBBF007C002237
:107EE000FEF712BAC9B2FFF7F9BF007C0022FEF715
:107EF00013BA0121FFF7F9BF704710B518210446E6
:107F000001F095FB204610BDF0B5037D062B8DB02A
:107F10000E4600F104074FF0000412D000F10805EE
:107F200015F8011D0A22304600F079F9AF420444E9
:107F300019D0002CF4D02E21304600F051F9044421
:107F4000EEE72F236A4639460A208DF80040FEF7F7
:107F500033FA684601F096FF33680246DB686946EB
:107F600030469847044620460DB0F0BD10B5054B8D
:107F70000446112240F8043B002101F03BFF20465B
:107F800010BD00BF68AA0B000346074A10B543F8AE
:107F9000042B01F1100251F8044B43F8044B9142B9
:107FA000F9D10A781A7010BD68AA0B00037D042B62
:107FB00004D14068003818BF01207047062B07D154
:107FC00043683BB983682BB9C3681BB90069F1E703
:107FD000002070470120704710B59DF8084044EA22
:107FE000032343EA024242EA01610423416003752C
:107FF00010BD000007B5064B0360CB7800938B786B
:108000004A780978FFF7E8FF03B05DF804FB00BF8A
:1080100068AA0B00014B024A1A60704748E6032029
:1080200074AA0B00002340681A46FEF795BB40680F
:1080300000220221FEF7A0BB002240681146FEF795
:1080400093BB002240681146FEF79EBB00234068A8
:108050001A461946FEF7A0BB002340681A46194687
:10806000FEF7A2BB40680021FEF7DEBB406800219E
:10807000FEF7E2BB4068002281F00101FEF79CBBE5
:1080800040680022FEF7C0BB002240681146FEF7A0
:10809000C3BB002240681146FEF796BB2DE9F043B2
:1080A00095B014460D460746FFF760FF00211C22DD
:1080B0000DA8009101F09EFE40230C9320466B46D4
:1080C0000CAA0021FEF798F9044600284BD102467D
:1080D00001216868FEF758FB022180462246686845
:1080E000FEF752FB009E81462146002E3BD0002920
:1080F00039D17368022B03D00A2B11D0F669F4E74B
:10810000B8F1000FFAD0716906A8043107ADFFF786
:1081100071FF0FCD3C1D0FC42B6823704146EDE766
:10812000B9F1000FEAD07469102201A801F062FED3
:1081300006238DF8143001AD04F1080318341868D3
:1081400059682A4603C20833A3421546F7D101A94C
:1081500006A807ADFFF718FF0FCD3C1D0FC42B6815
:1081600023704946CAE70098FEF73EF9384615B035
:10817000BDE8F083024B034A1A6000225A60704740
:108180004CE6032080AA0B00F8B506460D468F1872
:108190000024BD420CD0336815F8011B9B683046A3
:1081A0009847031E01DB1C44F3E7002C08BF1C4664
:1081B0002046F8BD13B50446084659B1019101F0B7
:1081C00061FE23680199DB680246204602B0BDE8E3
:1081D0001040184702B010BD08B5FFF7EBFF08BD0F
:1081E00003689B6818470A680B46126801461846E0
:1081F000104738B50D210546FFF7F2FF0A21044666
:108200002846FFF7EDFF204438BD38B50546FFF797
:10821000D1FF04462846FFF7ECFF204438BD30B5B7
:108220008BB00023012A8DF8243098BF0A2209ACB4
:108230000D46B1FBF2F101FB125303F0FF03092BD2
:1082400094BF30333733DBB2AA4204F8013DEFD993
:108250002146FFF7AFFF0BB030BD2DE9F04186B0EE
:1082600000AF05460E46381D142114463B60FEF74C
:108270000BFB13280ED8391D2846FFF79BFF044639
:108280001EB12846FFF7B5FF044420461837BD4607
:10829000BDE8F08100F1080323F00703E846ADEBE9
:1082A000030D2246411C3B686846FEF7EDFA69461D
:1082B0002846FFF77FFF0446C546E1E710B50446B0
:1082C000FEF724FC204610BD0348044A044900235D
:1082D000836001F0A7B900BF54E6032030DA032021
:1082E000BD820B000021FEF707B90021FEF7FCB8A4
:1082F00010B5044608462170FEF7DEF800236360DF
:10830000204610BD13B504460078FFF7EEFF58B9BC
:10831000207801904FF6FF71FEF7A6F8019802B0A1
:10832000BDE81040FFF7DEBF02B010BD13B5044634
:1083300000780191FFF7D9FF019948B920780190A1
:10834000FEF79AF8019802B0BDE81040FFF7CABFE7
:1083500002B010BD13B5044600780191FFF7C5FFC8
:10836000019948B920780190FEF78EF8019802B083
:10837000BDE81040FFF7B6BF02B010BD400830B5F1
:108380001860002418688842E5B206D90134082C28
:1083900002D040081860F5E70725024B5B5D1370BB
:1083A00030BD00BFB4AA0B002DE9F04188B0002316
:1083B0000446007802930E461746FFF796FF0546DF
:1083C00000BB94F800800146142203A801F012FDBE
:1083D0000B232A4603A94046ADF80C30FEF77CF883
:1083E00004988DF8075002AB0DF1070207FB06F168
:1083F000FFF7C4FF20789DF80710FEF74DF82078AE
:10840000FFF770FF029808B0BDE8F08108B500786A
:10841000FEF74AF8C0B208BD10B504460068FEF782
:108420001BFA204610BD10B50446006808B1FEF7DF
:1084300013FA0023C4E90133236010BD38B50446A4
:108440000D4600680131FEF70FFA10B1C4E90005CE
:10845000012038BD10B50368044623B143688B4240
:1084600001D3012010BD2046FFF7E8FF0028F9D016
:10847000A368002BF5D122681370F2E737B50D46DB
:10848000114601920446FFF7E5FF019A28B92046FC
:10849000FFF7C9FF204603B030BDA260294620681F
:1084A00001F080FC2268A3680021D154F2E7002388
:1084B00013B5C0E9003304468360037341B1084635
:1084C000019101F0DFFC019902462046FFF7D6FF3B
:1084D000204602B010BD884210B5044605D00B6896
:1084E0002BB18A681946FFF7C9FF204610BDFFF778
:1084F0009AFFFAE710B500230446C0E90033836011
:108500000373FFF7E8FF204610BD13B5044659B1C9
:108510000846019101F0B6FC019902462046FFF79A
:10852000ADFF204602B010BDFFF77DFFF9E710B5A3
:1085300004468AB00023C4E90033A36023730846CD
:1085400001A900F0EDFE01A92046FFF7DEFF20465D
:108550000AB010BD10B504468AB00023C4E9003348
:10856000A3602373084601A900F071FE01A920460B
:10857000FFF7CBFF20460AB010BD70B505460E468A
:1085800009B9002070BD6AB1846814442146FFF720
:1085900061FF0028F5D02868AB683146184401F027
:1085A00069FCAC600120EDE78A680968FFF7E5BF68
:1085B00007B500238DF80410012201A98DF80530BC
:1085C000FFF7DBFF03B05DF804FB13B50A22044696
:1085D000084601A900F0A4FE01A801F053FC01A97E
:1085E00002462046FFF7C9FF02B010BD10B58A68E9
:1085F00009680446FFF7C1FF10B92046FFF713FFD3
:10860000204610BD13B5044629B92046FFF70BFFDD
:10861000204602B010BD0846019101F033FC0199DB
:1086200002462046FFF7A9FF0028EED0F0E710B57C
:108630000446FFF7CAFF10B92046FFF7F4FE2046B4
:1086400010BD08B582683AB921B10878B0FA80F057
:10865000400900E0012008BD006809B90078F5E78D
:1086600001F0FEFBF2E710B58368934207D9046876
:108670000968A01801F02DFC08B1001B10BD4FF0D7
:10868000FF30FBE70022FFF7EEBF0000F8B59A428B
:108690000F461D460C4988BF13461446064684BF44
:1086A0002C461D46FFF703FFBB68A3420AD3396877
:1086B000AB4294BFC4EB0302C4EB05022144304635
:1086C000FFF7DCFE3046F8BDB7A30B0010B504463B
:1086D0008B68FFF7DBFF204610BD38B5044608461F
:1086E000A3688B4211D982B111448B4238BF1A1A48
:1086F0002568991A1318A1600A1AE918284401F08C
:108700005FFB2268A3680021D154204638BD8268EF
:10871000521AFFF7E2BF10B50446006818B1FEF721
:108720009BF80023236010BD38B50C460546FFF7C3
:10873000F2FF54B12088FEF787F8286028B122881C
:108740002146BDE8384001F02DBB38BD38B5B1F940
:1087500004308380D1F80630C0F806304B8943815D
:108760000C460546FFF7D7FF236813B12B600023A3
:10877000236038BD07B50B46002102460091012059
:108780008C21FDF7AFFF03B05DF804FB014600202C
:10879000FFF7F0BF0020FFF7F9BF0000F0B52B4D49
:1087A0000B7D04468BB00846AF1D002B36D00B68FE
:1087B0001B79002B32D0264B0493002202A90430EF
:1087C000CDE90222FDF784FFDDF80E30C5F8063052
:1087D00000B2BDF81230ADF80C00A8800299BB8041
:1087E0002846FFF7A1FF02A8FFF795FF00232360AB
:1087F000A380A37123814FF6FF736381B5F9043021
:10880000A380D5F80630C4F80630BB882968638198
:108810002046FFF789FF20460BB0F0BD002620233D
:10882000CDE902360B4B009302AA33460A493220A7
:10883000FDF7F2FE064B054802964FF6F26202A9DA
:10884000CDE90323FFF782FFCDE700BF64E60320F5
:108850000000FFFFC3AA0B00BCAA0B0010B5094B18
:10886000094C02221A600020084BA360C4E90000F2
:10887000FDF7E2FE2046064A0649BDE8104000F03A
:10888000D1BE00BF70E6032064E603200000FFFFB6
:1088900030DA0320DF400B0013B503688DF80710B2
:1088A000DC6B01224FF0FF330DF10701A04702B04E
:1088B00010BD10B40368DC6B4FF0FF33A4465DF8C5
:1088C000044B604713B5134602688DF80710D46B4C
:1088D0000DF107010122A04702B010BD10B5436998
:1088E000B3F88620B3F884309A42044608D063690E
:1088F000B3F88420511CA3F884101344187910BDD8
:1089000003681B6998470028F1D14FF0FF30F6E764
:10891000704743691868C043C00F70477047000034
:10892000064B994210B500F10C0405D0084600F042
:1089300087FE002808BF0024204610BDBCA90B00FC
:1089400010B5AC21044600F072FE204610BDAC21EB
:1089500000F06DBE2DE9F0414FF0000886B01C46D6
:10896000C0F8048005460E4617464146102202A86C
:1089700001F040FA631C09D04FF47A73B4FBF3F2B0
:1089800003FB1244CDE902285C4304946869102378
:108990000093006802AB41F2050240F6FF71FDF75B
:1089A00033FD002807DAFDF77FFF03686B600020C6
:1089B00006B0BDE8F0816869002300683A46314698
:1089C000FDF742FD031EEEDB1846F1E738B584697A
:1089D0000A4B036005467CB16368013B63605BB989
:1089E000236820469B689847A368013BA3601BB996
:1089F00023682046DB689847284638BD20AB0B002B
:108A000010B50446FFF7E2FF20461C2100F00FFEE0
:108A1000204610BD30B587B0044601AD6846FFF76B
:108A2000E9FA0FCD04340FC42B68237007B030BDB2
:108A300070B54D69054B04468C3544F8043B064639
:108A40000FCD0FC42B682370304670BD68AA0B0091
:108A50002DE9F0439846036893B00D460024DB6A85
:108A600006461746984728466B46224621460094FC
:108A7000FDF7C2FC0546002863D1009B002B4BD0BC
:108A80005B69002B48D006A8FFF770FA009B5C6971
:108A90006378022B04D1211D06A8FFF7BBFF26E057
:108AA0000A2B24D11122294601A801F0A3F9A368B9
:108AB000002B38D004F108030DF1040C18341868A9
:108AC0005968624603C20833A3429446F7D106238D
:108AD00001A90CA88DF81430FFF756FA0DF1340CEB
:108AE000BCE80F0007AC0FC4DCF80030237006A808
:108AF000FFF75CFA80B1336807ADD3F82090124BD2
:108B00000C930FCD0DAC0FC42B6823703A4643462F
:108B10000CA93046C84705460098FDF765FC284675
:108B200013B0BDE8F083E368002BC3D14FF6FF70AC
:108B3000D4F81090FDF748FC8145BBD104F1140135
:108B4000AAE72546E8E700BF68AA0B0038B54369E5
:108B50001A68002A054610DAB3F88620B3F8843084
:108B60009A420AD103681B699847044628B92B68C2
:108B70002846DB6A9847204638BD0120FCE710B53F
:108B80004369B3F88620B3F884309A42044605D08E
:108B90006369B3F884201344187910BD03681B6916
:108BA00098470028F4D14FF0FF30F6E7F8B5436955
:108BB0001746B3F88620B3F884309A4205460E462D
:108BC00016D06969B1F88430B1F88640E41ABC4225
:108BD00028BF3C46043322461944304601F0E2F8EF
:108BE0006A69B2F884302344A2F884302046F8BD84
:108BF00003681B6998470028E3D14FF0FF34F5E77D
:108C000042690023A2F884304269A2F88630704796
:108C10002DE9F0411F4603680C46DB6A8AB0054621
:108C200016469847237DD5F81480042B0CBF0220EC
:108C30000A2006220121FDF70FFCC8F800006B692D
:108C40001B68002B08DA2B682846DB6A002498474B
:108C500020460AB0BDE8F0812846FFF7D1FFB7B142
:108C6000002303A9F8B20393ADF81030FDF79CFB85
:108C70000028E8D1686906230093006803AB41F23D
:108C80000B0240F6FF71FDF7BFFB0028DBD11C2271
:108C9000002103A801F0AEF8237D042B1DD14FF471
:108CA00007733046ADF80C30FDF796FBADF80E00BB
:108CB0006068FDF789FB04906B691C22186803A9A2
:108CC000FDF7B2FB0028BED104340FCC6D698C35A2
:108CD0000FC523682B700124BAE740F61C233046E9
:108CE000ADF80C30FDF778FB05AEADF80E00231D96
:108CF00004F1140718685968324603C20833BB42AE
:108D00001646F7D1D8E7000030B54269B2F8863090
:108D10008BB004462BB1B2F884209A4201D1FFF700
:108D20006FFF61690868002818DBB1F886507F2D55
:108D300014D804310823C5F180022944FDF77CFBD7
:108D4000002813DD6369B3F886200AB9A3F88420EC
:108D50006369B3F886201044A3F886006369B3F80A
:108D60008600B3F88430C01A0BB030BDFDF79CFD0F
:108D700003680B2BF2D0FDF797FD03680B2BEDD0AA
:108D800020230025CDE90235FDF78EFD0368019310
:108D9000084B0949009302AA2B463220FDF73CFC00
:108DA00063691868FDF738FB63694FF0FF321A609A
:108DB000D4E700BFEAAA0B00BCAA0B0010B54369B8
:108DC00004461868002801DBFDF726FB63694FF0B5
:108DD000FF321A606069112200218C3001F00AF81C
:108DE0002046BDE81040FFF70BBF10B50023044636
:108DF0000160C0F884308830FFF7B8F8204610BD15
:108E000073B500234FF47A72C0E901320E4A036150
:108E1000026043610446AC200191FBF73CF9051E5A
:108E200005F10C0608D00123C5E90133074B019970
:108E30002B603046FFF7D9FF2046C4E90565FFF7F0
:108E4000DFFE02B070BD00BF20AB0B0004AB0B0017
:108E500010B54FF0FF310446FFF7D2FF204610BD9A
:108E600010B504460068002801DBFDF7D5FA20465E
:108E700010BD0C30FFF7F4BF08B50020FDF75CFC17
:108E800028B1FDF749FC80F00100C0B208BD012007
:108E9000FCE7000030B593B0CDE90023194B044640
:108EA000D3E90010019B521843EB00031648D0E9A8
:108EB0000010521843EB0003CDE9002324220DEBF0
:108EC0000200002100F096FF002509A96846FDF781
:108ED00003FD1622294603A8029500F08BFF02A984
:108EE00009A800F003FF02A800F0CCFF12AB184461
:108EF00002A900F8415C2046FFF7D9FA204613B0DA
:108F000030BD00BF80E6032078E6032010B50020C6
:108F1000FDF7C2F90446A0B9FDF786FB012810D180
:108F20002046FDF7B9FB60B9FFF7A6FF10B9FDF7C2
:108F3000E3FBF9E7FFF7A0FFBDE810400020FDF7D5
:108F4000ABB9204610BD1FB5FFF7E0FF102200218E
:108F5000684600F04FFF00216846FDF7A5F900982C
:108F600005B05DF804FB0000024B1A68024B1A6062
:108F7000704700BFC4D9032074E6032070474174D2
:108F8000704708B5007CFDF7F7FA20EAE07008BDED
:108F900008B5007CFDF7C8FA20EAE07008BD08B506
:108FA000007CFDF7D1FA40EAE07008BD08B5007C0E
:108FB000FDF7C2FA40EAE07008BD007CFDF7CCBACC
:108FC00037B5457C04462DB1207C03B0BDE8304068
:108FD000FDF7A2BA007C0191FDF7CEFA00280199B5
:108FE000F2DC284603B030BD10B51421044600F071
:108FF0001EFB204610BD000010B54FF0000C0446CB
:10900000084611464FF47A72C4E901C2044A22604C
:109010000122207462741A46FDF776FA204610BDCC
:1090200088AB0B0013B50E4C2178BFF35B8F11F0AA
:10903000010112D120460191FBF733F8019960B18B
:10904000084A094B0948FFF7D7FF2046FBF72EF8DF
:10905000074A0849054800F0E5FA044802B010BD87
:1090600088E603208CE6032010E7032094E7032022
:1090700030DA03207D8F0B0041747047704708B5CC
:109080000021007CFDF7A0FA40EAE07008BD08B5B9
:109090000121007CFDF798FA40EAE07008BD08B5B0
:1090A000007CFDF789FA20EAE07008BD08B5007C75
:1090B000FDF77AFA20EAE07008BD13B50446007C9B
:1090C0000191FDF779FA0028019901DC607C20B15B
:1090D000207CFDF781FA20EAE07002B010BD007C30
:1090E000FDF782BA10B51421044600F0A0FA20461C
:1090F00010BD000010B54FF47A73044608460021F5
:10910000C4E90113044B23600123207463741146E6
:10911000FDF73AFA204610BDB8AB0B00007C0022E8
:10912000FDF73ABA10B514220446002100F062FEA1
:10913000204610BD10B5104C88B003A8FFF7F2FF11
:109140002178BFF35B8F11F0010111D1204601910D
:10915000FAF7A7FF019958B103AA0848FFF7CAFF19
:109160002046FAF7A3FF064A0649044800F05AFAD7
:10917000024808B010BD00BFA8E70320ACE70320F9
:1091800030DA03207D900B0030B5D1E901329342F3
:1091900010DA0D685A1C4A600446382202FB035557
:1091A0000FCC0FC50FCC0FC50FCC0FC594E8030033
:1091B00085E8030030BD002240681146FDF704BB7E
:1091C000002240681146FDF727BB40680022FDF7EA
:1091D0001BBB4068002281F00101FDF7EDBA0022BF
:1091E00040681146FDF7C0BA406800220221FDF731
:1091F000C3BA00001FB5002301910648029301A9DC
:109200000392FDF7F9F9039B9842A8BF184605B0F1
:109210005DF804FB89910B00024B04225A60024A5C
:109220001A607047C0E70320E8AB0B0010B5044696
:1092300000F028FE013823182046834206D9027820
:10924000197800F8011B03F80129F6E710BD2DE994
:10925000F041931E8CB0222B4FF000030D461446B4
:109260008DF82C3027D900282ADA2E462D2306F82F
:10927000013B40420A240DF12B074FF00108224622
:10928000014601A800F06AFD029B0198092BCCBFA2
:109290003722302252FA83F307F8013908F1010826
:1092A0000028ECD14246791C304600F07BFD284670
:1092B0000CB0BDE8F0810A2AD5D018B12E46DAE705
:1092C0000A24FAE730238DF82B302E460DF12A07B9
:1092D0004FF00208E6E770B50C46911E22291DD812
:1092E000254630B9234430229D4210D205F8012B87
:1092F000FAE7B0FBF2F602FB1600C1B2092894BFF0
:1093000030315731C9B205F8011B3046E9E7002377
:1093100020462B70FFF78AFF204670BD0020FCE737
:1093200038B5031E0C4615460EDAB3F1004F4FF068
:109330002D0214BF5842184601230A702A461944C8
:10934000FFF7C9FF204638BD0123F9E7014B18603C
:10935000704700BFC8D9032008B50B4B43B1FFF7D6
:10936000E9FE03681B699847002801DDAFF3008020
:10937000064B43B1FFF756FE03681B699847002868
:1093800001DDAFF3008008BD000000000000000018
:1093900008B5FFF7E1FFFCF75FFF014B186008BD60
:1093A000D0E703200548064A064908B5121A00F01E
:1093B000F9FC054B054A1A6008BD00BF00F4032004
:1093C00004F4032000AF0B0000F403201E1C279AB6
:1093D00007B5002300931A466FF07701FDF76EF989
:1093E00003B05DF804FB000007B543880A2B08D0E2
:1093F000502B0BD1094B1B684BB103B05DF804EB4C
:109400001847FFF7E5FF03B05DF804FB0023009366
:109410001A466FF07701FDF751F9F4E7CCE7032026
:1094200010B512480021FDF74FFA114B1A68114B85
:109430009A42114B0CBF012200221A7001D0FFF793
:10944000B1FFFCF7F9FE044600F0DCFC0B4B13B156
:109450002046AFF3008000210848FDF775F9BDE80C
:10946000104007480021FDF71FB900BF4D930B00C6
:1094700000F403201E1C279AC8E703200000000008
:10948000E9930B00232813B502D9002002B010BDC8
:10949000A0F10B03022B1AD8174C2178BFF35B8F76
:1094A00011F001010BD120460191FAF7FAFD019963
:1094B00028B11248FEF71CFF2046FAF7F7FD0F4BC4
:1094C0001878FDF701F80028DFD10120DEE7012838
:1094D00009D800F07FF80021007CFCF74DFF80F0F8
:1094E0000100C0B2D2E709380128EED8FFF79AFD93
:1094F000007CFDF739F8F2E724E6032028E6032094
:10950000232838B504460D460AD8FF2908D0FFF7AE
:10951000B9FF28B129462046BDE83840FCF7CCBE4B
:1095200038BD38B504460D46FCF7CEFEFF2810D0F6
:10953000062804D84D2323FA00F0C30709D4204697
:10954000FFF7A0FF28B129462046BDE83840FCF7C8
:10955000C3BE38BD10B50446FCF7B6FE031FDBB230
:10956000012B08D92046FFF78DFF20B12046BDE82A
:109570001040FCF7B9BE002010BD000010B5084C2B
:109580002378BFF35B8FDB0708D42046FAF789FD09
:1095900020B1FCF769FE2046FAF788FD014810BDAE
:1095A000D4E70320D8E7032038B520251423044648
:1095B0000360856005610649284600F03CF80449CF
:1095C0006060284600F037F8E060204638BD00BFF4
:1095D0001CAC0B0030B50F4D2978BFF35B8F11F039
:1095E000010487B013D12846FAF75BFD78B101A8D2
:1095F000FFF7DAFF01AA21460748FEF72BFC2846B1
:10960000FAF754FD054A0649034800F00BF80248F2
:1096100007B030BDDCE70320E0E7032030DA0320A9
:10962000FD7D0B000B460146184600F089BBFAF79A
:1096300036BDFAF730BDFAF730BD08B5FDF72CF9A5
:10964000014900F0F9B800BF38AC0B007FB5002429
:109650001023CDE90234036815469E6912686B46F3
:10966000CDE90044B0479DF8043003F00603062B13
:1096700003BF009B2B600120204604B070BD009802
:10968000904214BF012006207047000010B5034B24
:109690000360044600F0CDF8204610BD78AC0B0006
:1096A00010B50446FFF7F2FF20460821FFF7BFFF81
:1096B000204610BD2DE9F0411F46DDE90834DDF8F4
:1096C000188098450646154607D1079900F0B4F86A
:1096D00018B165710020BDE8F0813946304600F0D0
:1096E000ABF80028F6D00123C4F800802571A371DF
:1096F000F0E738B515461C4600F09EF820B1082367
:10970000E36006232560237138BD73B505460C461A
:1097100001921E4600F090F850B9032E08D8236835
:10972000019A5B692946204602B0BDE8704018479F
:1097300002B070BD10B5034B03600446FFF7A6FFEF
:10974000204610BDD8AC0B0010B50446FFF7F2FF61
:1097500020460C21FFF76BFF204610BDF7B5089F90
:10976000974205460E4614460AD0A8680268089734
:10977000156A31462246AC4603B0BDE8F04060476A
:109780001946019300F058F8019B0028EDD00620FF
:1097900003B0F0BD2DE9F14F0D461946DDE90A4B46
:1097A000DDE90CA681461746984600F045F890B1D1
:1097B000002D3460377109DB61198A450CBF062121
:1097C0000121B171002001B0BDE8F08F0235F9D15F
:1097D0000123B371F6E7544506D15946484600F0D7
:1097E0002BF808B17771EDE7D9F808000368CDE9E7
:1097F0000CA6CDE90A4BDC693A4643462946A44605
:1098000001B0BDE8F04F60472DE9F04107460C4636
:1098100015461E46FFF76DFF48B9B86803689F6993
:109820002A4633462146BC46BDE8F0416047BDE8C4
:10983000F081704700207047814208B50ED0406823
:1098400003782A2B0CD049680B782A2B08BF0131EA
:1098500000F006FBB0FA80F0400908BD0120FCE7EB
:109860000020FAE781F0004102E000BF83F00043EE
:1098700030B54FEA41044FEA430594EA050F08BFAB
:1098800090EA020F1FBF54EA000C55EA020C7FEA6F
:10989000645C7FEA655C00F0E2804FEA5454D4EBEC
:1098A0005555B8BF6D420CDD2C4480EA020281EAB6
:1098B000030382EA000083EA010180EA020281EAEE
:1098C0000303362D88BF30BD11F0004F4FEA013140
:1098D0004FF4801C4CEA113102D0404261EB41014F
:1098E00013F0004F4FEA03334CEA133302D05242D5
:1098F00063EB430394EA050F00F0A780A4F1010491
:10990000D5F1200E0DDB02FA0EFC22FA05F28018CA
:1099100041F1000103FA0EF2801843FA05F35941B0
:109920000EE0A5F120050EF1200E012A03FA0EFC2F
:1099300028BF4CF0020C43FA05F3C01851EBE37159
:1099400001F0004507D54FF0000EDCF1000C7EEB76
:1099500000006EEB0101B1F5801F1BD3B1F5001FB4
:109960000CD349085FEA30004FEA3C0C04F10104D3
:109970004FEA445212F5800F80F09A80BCF1004FFC
:1099800008BF5FEA500C50F1000041EB045141EA7E
:10999000050130BD5FEA4C0C404141EB0101013C47
:1099A00028BFB1F5801FE9D291F0000F04BF014636
:1099B0000020B1FA81F308BF2033A3F10B03B3F108
:1099C00020020CDA0C3208DD02F1140CC2F10C0298
:1099D00001FA0CF021FA02F10CE002F11402D8BFF6
:1099E000C2F1200C01FA02F120FA0CFCDCBF41EAC2
:1099F0000C019040E41AA2BF01EB0451294330BD91
:109A00006FEA04041F3C1CDA0C340EDC04F114046D
:109A1000C4F1200220FA04F001FA02F340EA030044
:109A200021FA04F345EA030130BDC4F10C04C4F18A
:109A3000200220FA02F001FA04F340EA030029466A
:109A400030BD21FA04F0294630BD94F0000F83F4B4
:109A5000801306BF81F480110134013D4EE77FEA97
:109A6000645C18BF7FEA655C29D094EA050F08BFE3
:109A700090EA020F05D054EA000C04BF19461046C4
:109A800030BD91EA030F1EBF0021002030BD5FEA08
:109A9000545C05D14000494128BF41F0004130BD30
:109AA00014F580043CBF01F5801130BD01F0004584
:109AB00045F0FE4141F470014FF0000030BD7FEAF7
:109AC000645C1ABF194610467FEA655C1CBF0B46F2
:109AD000024650EA013406BF52EA033591EA030F09
