:02000002D0002C
:1040000000400D00A0770D00000006000C00050127
:084010000401BD0B00000000DB
:04401800B06F0D0078
:10401C0009480A49884208B505D0094A824202D0AB
:10402C00121A02F0A3FE0748074A0021121A02F0E6
:10403C00C5FE014808BD00BF80E00320F4760D00EA
:10404C0004E1032004E10320F0E7032070B5074EE0
:10405C00074C01F07BFEA41BA4080025A54200D14F
:10406C0070BD56F8043B98470135F7E7C8760D004C
:10407C00EC760D0000F05CB808B500F0BDF8BDE8BA
:10408C00084001F025BE01F049BA01F047BA01F031
:10409C004DBA01F04BBA0078B0FA80F04009704785
:1040AC000123037070477047704710B50446043005
:1040BC0001F0F7FB204610BD10B504463C3001F072
:1040CC00F0FB04F1280001F0ECFB204601F0E9FBC9
:1040DC00204610BD38B50446006928B185680C210E
:1040EC0002F019FD2846F8E7204638BD38B584693A
:1040FC000A4B036005467CB16368013B63605BB9A6
:10410C00236820469B689847A368013BA3601BB9B2
:10411C0023682046DB689847284638BD14740D0088
:10412C0010B50446006808B101F000FA204610BD35
:10413C0038B501F03BFF4FF4165101F02BFF19215C
:10414C002548264D00F087FB2348002100F05AFB40
:10415C002148072100F06EFB0121082002F058FCD9
:10416C000121082002F065FC2B7DEBB102232B72A0
:10417C002B68DB6823B19A88042A28D09B68F9E75E
:10418C001749102002F0C9FC0446F0B1102200219E
:10419C0002F014FE134B23600423A3802B69A3604D
:1041AC004FF47A73E3602C610F4C1049204601F0F8
:1041BC00E6FB50230E49A36304F1280001F0DFFB5A
:1041CC000C4B42F210721A6038BD2875ECE74FF4B4
:1041DC007A72DA60E8E700BFA8E5032074E10320F7
:1041EC00D0740D0010000300E4E50320C46F0D0033
:1041FC00E16F0D0098E0032070B5344886B000F0F4
:10420C00C1FB3349334801F0E7FB10212F4800F084
:10421C0073FB02A8304901F0B3FA029808B101F01F
:10422C0085F92E4C2368002B4ADC2D4E00231A46B0
:10423C001946706801F01AF9002370681A4619467D
:10424C0001F0F4F800227068114601F007F900281B
:10425C00F8D0204D01F04AF9A9682846013901F03F
:10426C0052FC204902A801F067FB294602A801F084
:10427C00C4FB1D4901F0CDFB01461C4801F070FB4D
:10428C0002A801F00EFB1A4B1A4A1B491B4800935B
:10429C001B4B00F0CFFC1B49284601F070FB00259E
:1042AC0042F2107302A82360CDE902558DF810502C
:1042BC0001F07EFD70682B462A46294601F0DEF897
:1042CC002368A3F57A73236006B070BDA8E50320BC
:1042DC00F46F0D00D4E5032074E1032098E0032073
:1042EC00C4E703200F700D0019700D0020E60320A9
:1042FC001C700D0030E60320E4E503208CE1032064
:10430C0080E0032075720D0010B52C21044602F0DC
:10431C0002FC204610BD0000F7B5394E394B3A4D22
:10432C00B36000243460B480B471032001F050F801
:10433C00364F37493046374E2A4602F0E7FB3146B6
:10434C00384601F0F9FA3846334F34492A4602F020
:10435C00DDFB384600F060F93846314F31492A46CA
:10436C0002F0D4FB304B0094304940F25B7238467B
:10437C0000F0B6F82A462E49384602F0C7FB2D4805
:10438C002D49A0F809400346021D43F8092B9C70E7
:10439C000123C0E9034403750472284B284C436085
:1043AC002A4602F0B3FB204600F0CBFB2046254CFE
:1043BC0025492A4602F0AAFB3146204601F0BCFAF8
:1043CC0004F1100001F042FD314604F1280001F027
:1043DC00B3FA314604F13C0001F0AEFA20461B4C16
:1043EC001B492A4602F092FB3146201D01F0A4FA2B
:1043FC0018492A46204603B0BDE8F04002F086BBBF
:10440C0008E103200000FFFF04E10320D4E50320B2
:10441C002D410D0075720D00A8E50320AF580D005D
:10442C0014E10320B5400D00B3400D0021700D00C8
:10443C0091450D0074E10320E1400D0010000300D4
:10444C008CE10320E4E50320F9400D0030E6032065
:10445C00C5400D00B7400D0091F85C3010B5044616
:10446C00016013B1886D00F023FE204610BD10B51D
:10447C00036893F85C20044612B1986D00F020FE9E
:10448C00204610BDF8B51F469DF8243004460D4655
:10449C0016462BB1012380F85C30583000F000FE3A
:1044AC00089B23630023636306B1A66425B12946E8
:1044BC0004F1380001F063FA069B2365079BE06961
:1044CC00A4F84C70FF2BB8BFFF23A4F8543008B1EC
:1044DC00FFF7DFFDB4F85400FFF7D7FDE061F8BD3E
:1044EC002DE9FF4104460025174698460E4602F07A
:1044FC00D1F80D49E56104F1380001F01DFA9DF881
:10450C002830A564CDE90283FF220F23CDE90032C8
:10451C00204684F85C503B462A463146FFF7B2FFF2
:10452C00204604B0BDE8F08175720D0013B5044649
:10453C00014601A8FFF790FFE369E0221A70E369D6
:10454C0000225A70E1690222204601F062FE2046E8
:10455C0002F056F800F09CFDC4E9090001A8FFF731
:10456C0086FF02B010BD38B5044601F068FE002885
:10457C0014BF0125002502D1204602F041F828463F
:10458C0038BD000038B50546FFF7EDFF10B12846E1
:10459C00FFF7CCFFE86908B1FFF77BFD05F13800A8
:1045AC0001F07FF9AC690A4B2B607CB16368013B6D
:1045BC0063605BB9236820469B689847A368013BFE
:1045CC00A3601BB923682046DB689847284638BD92
:1045DC0014740D00704700000B4610B528220446D9
:1045EC000021184602F0EAFB08490B2202F02CFCD1
:1045FC0000220121C272C1600346A0695A62C3E95C
:10460C00040100229A61DA611A6210BD74700D0007
:10461C000368C9B29B681847064A02604FF0FF3224
:10462C0082614277C283FF2280F8202008224262F6
:10463C00704700BF84700D0013B50B4C2178BFF38D
:10464C005B8F11F001010BD120460191FFF723FD87
:10465C00019928B1054800F0CDFF2046FFF720FD59
:10466C00024802B010BD00BF44E6032048E6032018
:10467C002DE9F04190F92030013305460F4606D163
:10468C00FFF7DAFF3946BDE8F04101F03DB80024F0
:10469C0007264FF0010895F92000002180B202F0A6
:1046AC00C8F995F91E0008FA06F1394080B202F0FB
:1046BC00C0F995F92000012180B202F0BAF995F900
:1046CC001F00640080B2E4B202F0CCF908B144F0EF
:1046DC000104013EDFD22046BDE8F08108B5FFF7AA
:1046EC00ABFF012100F0A1FFFFF7A6FF0549012256
:1046FC0000F0D8FFFFF7A0FFBDE80840002100F054
:10470C00A7BF00BF20A1070070B590F91D30013381
:10471C0004460E46154616D102F0D0F9217F01F061
:10472C005DFD02F0CBF9036831469B68984702F0B7
:10473C00C5F9036829469B68984702F0BFF9BDE8A4
:10474C00704001F056BD90F92030013301D1FFF7D4
:10475C00C5FF94F91D00002180B202F06AF906F041
:10476C007F012046FFF784FF29462046FFF780FF94
:10477C0094F91D000121BDE8704080B202F059B9D6
:10478C0038B590F91D30013304460D461DD102F0A9
:10479C0095F994F91C1001F025FD02F08FF90368CE
:1047AC0029469B68984702F089F901F022FD02F036
:1047BC0085F9217F012201F00EFD02F07FF90368DB
:1047CC005B699847C5B2284638BD90F92030013353
:1047DC0001D1FFF783FF94F91D00002180B202F094
:1047EC0028F945F080012046FFF742FF00212046C2
:1047FC00FFF73EFF054694F91D00012180B202F03F
:10480C0018F9E0E738B50D4623210446FFF7B8FF49
:10481C0020F0300242EA05122046D2B2BDE8384000
:10482C002321FFF771BF08B52321FFF7A9FFC0F3C0
:10483C00011008BD38B50D4620210446FFF7A0FF36
:10484C0000F00F0242EA05122046D2B2BDE8384011
:10485C002021FFF759BF10B50446017790F91D00D0
:10486C00421C23D102F02AF901F086FC0F212046CC
:10487C00FFF786FF33283DD1072220212046FFF782
:10488C0043FF07212046FFF7D5FF8822232120462E
:10489C00FFF73AFF102222212046FFF735FF204672
:1048AC0080221F21FFF730FF012010BD012180B2B3
:1048BC0002F0BFF894F91D00012180B202F0A8F8B3
:1048CC0094F92000431C04D1FFF7B6FE00F09CFEC7
:1048DC00CCE7012180B202F09BF894F91E00012173
:1048EC0080B202F095F894F91F00002180B202F01A
:1048FC008FF8BBE70020D8E738B52F2204460D46C9
:10490C002021FFF701FF002221212046FFF7FCFEAA
:10491C00402222212046FFF7F7FE002223212046C9
:10492C00FFF7F2FE082224212046FFF7EDFE0022BD
:10493C0025212046FFF7E8FE26212046FFF720FF21
:10494C002A4632212046FFF7DFFE00223321204683
:10495C00FFF7DAFE636A002B0CDB0A2230212046BB
:10496C0084F82820FFF7D0FE31212046FFF708FFFE
:10497C00012038BD002284F8282030212046FFF782
:10498C00C3FEF5E738B590F91D300133044676D1F6
:10499C0002F094F894F91C105C4D01F023FC02F029
:1049AC008DF8A821FFF734FE02F088F801F021FC05
:1049BC0002F084F8217F062201F00DFC02F07EF853
:1049CC0003685B699847E08002F078F803685B69DC
:1049DC009847E38805EA00201843E08002F06EF85F
:1049EC0003685B699847208102F068F803685B698B
:1049FC009847238905EA00201843208102F05EF8CD
:104A0C0003685B699847608102F058F803685B693A
:104A1C00984705EA00206589284360812046FFF706
:104A2C0002FF032869D002286AD001286BD0002825
:104A3C0043F6FC7318BF012307EE903AB4F9063025
:104A4C0007EE103AF8EEE77AB8EEC77AB4F9083008
:104A5C00C7EE276A07EE103AB8EEC77AC4ED036AC0
:104A6C00C7EE276AB4F90A3007EE103AB8EEC77AE7
:104A7C00C4ED046AC7EE276AC4ED056A38BD90F927
:104A8C002030013301D1FFF729FE94F91D000021DC
:104A9C0080B201F0CEFFE8212046FFF7E9FDFF21AF
:104AAC002046FFF7E5FDFF21E0802046FFF7E0FD03
:104ABC00E38843EA0020E080FF212046FFF7D8FD81
:104ACC00FF2120812046FFF7D3FD238943EA0020F4
:104ADC002081FF212046FFF7CBFDFF21608120467E
:104AEC00FFF7C6FD638943EA0020608194F91D003D
:104AFC00012180B201F09DFF90E74FF400639BE72A
:104B0C004FF4805398E741F6FE7395E700FFFF00E2
:104B1C000C46054608B520220021201D02F04EF956
:104B2C0024232360AB6963600123A360002323610A
:104B3C002846FFF727FFEB6863612B69A3616B695C
:104B4C00E36110B5044601F0A5FD204610BD000040
:104B5C00F8B50F4F054614460E4601F025F83946B8
:104B6C00284601F021F82146284601F036F801F0DC
:104B7C001DFA314601F018F801F018FA394601F027
:104B8C0013F801F013FA2146BDE8F84001F025B8FE
:104B9C00D0700D0010B50C4601F01FF801F006FAAC
:104BAC002146BDE8104001F018B8F8B505460C4692
:104BBC0016464AB90368C9B29B6898470746284607
:104BCC0000F0FFFF3844F8BD00290CDA0A2A0AD19C
:104BDC002D2100F0EDFF61420746F2B2284601F0AC
:104BEC0006F80744EBE721460027F6E7F8B5104F27
:104BFC00054614460E4600F0D7FF3946284600F00D
:104C0C00D3FF0A2221462846FFF7CFFF01F0CEF949
:104C1C00314600F0C9FF01F0C9F9394600F0C4FF74
:104C2C0001F0C4F90A222146FFF7BFFFF8BD00BF0F
:104C3C00D0700D002DE9F04F0E4691B01F464FF08D
:104C4C00FF331360044600213046DDF8688091463E
:104C5C0000F0F4FED6F838E0034600286ED1BEF121
:104C6C00000F14BF72465022316892B2204601F0F8
:104C7C0025FD051E18BF0125002D7ED000213046D4
:104C8C0000F0DCFE00286CD101F090F9BB4900F07B
:104C9C008BFF01F08BF9316800F086FF01F086F98B
:104CAC00B74900F081FF01F081F90A22B16BFFF7DF
:104CBC007CFF4146204600F077FFB249204600F0C9
:104CCC0073FFB16A204600F06FFFAF49204600F039
:104CDC006BFF01F06BF9AD4900F07FFF01F066F955
:104CEC00414600F061FF01F061F9A64900F05CFF5C
:104CFC0001F05CF9B16A00F057FF01F057F9A249D5
:104D0C0000F052FFA249A34A2046FFF721FF0021E1
:104D1C00304600F093FE20B932689F492046FFF7D9
:104D2C0017FF06F13C0A0021504600F087FE78BBC5
:104D3C00726C9A492046FFF759FF30E0984B0A9362
:104D4C0006F1140CBCE80F000BAD0FC5DCF80030FD
:104D5C002B701FFA8EF200230AA9204601F07BFB70
:104D6C0087E701F023F98F4900F01EFF01F01EF9CF
:104D7C0006F1100100F01FFF90E701F017F98A49C6
:104D8C0000F02BFF204601F03BFC11B0BDE8F08F8A
:104D9C008649404602F03EF802460028C9D05FB171
:104DAC00396849B17A6820461AB1FFF7D1FE083745
:104DBC00F6E7FFF7EFFEFAE7204600F002FF204689
:104DCC0001F03CFA0021504600F038FE40B9F16B7E
:104DDC00204600F002FF01F0E9F8F16B00F0FDFE57
:104DEC0001F0E4F804F11C0A714900F0F6FE4FF4EE
:104DFC0080620021504601F0E1FF00F049F900907B
:104E0C0000F046F900270190204601F09FFB064672
:104E1C00B0B101F0CBF8674900F0C6FE01F0C6F85E
:104E2C00002E834627DA2D2100F0C2FE71420A22A1
:104E3C00584600F0DCFE01F0B9F85F4900F0CDFEF9
:104E4C004FF0000B204601F081FB38B3204601F0F7
:104E5C00B6FA5FFA80F801F0A9F8414600F0A8FE16
:104E6C0000F016F940F2FE339F42009005D80AF884
:104E7C0007800137E6E73146D9E740F2FF339F421E
:104E8C00F7D1002384F81B34204601F0B9FB01F064
:104E9C008DF84A4900F0A1FEAB46EAE7E319187712
:104EAC0026B101F083F8464900F07EFE00F0F0F8E0
:104EBC00009BC61ABBF1000F06D141F288339E420B
:104ECC0002D8C82000F0CAFE204601F0B8F941F221
:104EDC00883300284AD09E424AD8BBF1000F93D0A9
:104EEC0001F064F8374900F05FFE01F05FF8054609
:104EFC0000F0CEF8019B0A22C11A284600F077FE7A
:104F0C0001F054F8304900F068FE204601F078FBBF
:104F1C00514602A800F010FD0C23092202A906A894
:104F2C0000F0B0FD01F042F8284900F03DFE01F020
:104F3C003DF8069900F051FE25490AA800F0FCFC4A
:104F4C000AA902A800F09BFD04460AA800F0A9FCDF
:104F5C00631C43D101F02AF81E4900F03EFE06A85E
:104F6C0000F09FFC02A800F09CFC0EE79E42B7D913
:104F7C0001F01CF8184900F030FEB1E798700D00F4
:104F8C00D3700D00D1700D00D5700D00E1700D00C7
:104F9C000A710D0004710D0034710D0039710D0092
:104FAC004C730D00B4700D0015710D001C700D00CC
:104FBC0048710D0069710D0095710D009D710D000A
:104FCC00D2710D002D720D0052720D0057720D0032
:104FDC0071720D0076720D00F8710D0009F1040567
:104FEC000A49284600F0CBFC221D02A90AA800F0B1
:104FFC0069FD0AA9284600F0EBFC0AA800F051FC58
:10500C00069801F0A1FEC9F80000A8E775720D0022
:10501C0008B5024B1B689B68019308BD680203002E
:10502C0008B5024B1B68DB68019308BD68020300DE
:10503C0008B5024B1B689B68019308BD2C0203004A
:10504C0008B5024B1B68DB68019308BD2C020300FA
:10505C0008B5024B1B681B69019308BD2C020300A9
:10506C0008B5024B1B685B69019308BD2C02030059
:10507C0008B5024B1B685B69019308BD6C02030009
:10508C0008B5024B1B685B68019308BD180203004E
:10509C0008B5024B1B685B69019308BD180203003D
:1050AC0008B5024B1B681B6B019308BD480203003B
:1050BC0008B5024B1B689B6B019308BD48020300AB
:1050CC0008B5024B1B681B6C019308BD480203001A
:1050DC0008B5024B1B685B6C019308BD48020300CA
:1050EC0008B5024B1B689B6C019308BD480203007A
:1050FC0008B5024B1B685B69019308BD6402030091
:10510C0008B5024B1B681B6A019308BD64020300BF
:10511C0008B5024B1B689B6A019308BD640203002F
:10512C0008B5024B1B681B68019308BD3C020300C9
:10513C0008B5024B1B68DB68019308BD3C020300F9
:10514C0008B5024B1B681B69019308BD3C020300A8
:10515C0008B5024B1B685B69019308BD3C02030058
:10516C0008B5024B1B689B69019308BD3C02030008
:10517C0008B5024B1B68DB69019308BD3C020300B8
:10518C0008B5024B1B681B6A019308BD3C02030067
:10519C0008B5024B1B689B6A019308BD3C020300D7
:1051AC0008B5024B1B68DB68019308BD280203009D
:1051BC0008B5024B1B689B69019308BD28020300CC
:1051CC0008B5024B1B68DB69019308BD280203007C
:1051DC0008B5024B1B681B6A019308BD280203002B
:1051EC0008B5024B1B685B6A019308BD28020300DB
:1051FC0008B5024B1B689B6A019308BD280203008B
:10520C0008B5024B1B68DB6A019308BD280203003A
:10521C0008B5024B1B681B6B019308BD28020300E9
:10522C0008B5024B1B685B6B019308BD2802030099
:10523C0008B5024B1B681B6C019308BD28020300C8
:10524C0008B5024B1B681B6D019308BD28020300B7
:10525C0008B5024B1B689B69019308BD380203001B
:10526C0008B5024B1B68DB69019308BD38020300CB
:10527C0008B5024B1B681B6A019308BD380203007A
:10528C0008B5024B1B689B6A019308BD38020300EA
:10529C0008B5024B1B681B6B019308BD3802030059
:1052AC0008B5024B1B689B6B019308BD38020300C9
:1052BC0008B5024B1B681B68019308BD3002030044
:1052CC0008B5024B1B689B68019308BD30020300B4
:1052DC0008B5024B1B68DB68019308BD3002030064
:1052EC0008B5024B1B681B69019308BD3002030013
:1052FC0008B5024B1B685B69019308BD30020300C3
:10530C0008B5024B1B68DB69019308BD3002030032
:10531C0008B5024B1B681B6A019308BD30020300E1
:10532C0008B5024B1B685B6A019308BD3002030091
:10533C0008B5024B1B681B6C019308BD30020300BF
:10534C0008B5024B1B685B6C019308BD300203006F
:10535C0008B5024B1B681B68019308BD4C02030087
:10536C0008B5024B1B685B68019308BD4C02030037
:10537C0008B5024B1B681B69019308BD4C02030066
:10538C0008B5024B1B685B69019308BD4C02030016
:10539C0008B5024B1B689B69019308BD4C020300C6
:1053AC0008B5024B1B68DB69019308BD4C02030076
:1053BC0008B5024B1B681B6A019308BD4C02030025
:1053CC0008B5024B1B681B6D019308BD60020300FE
:1053DC0008B5024B1B685B68019308BD20020300F3
:1053EC0008B5024B1B685B69019308BD20020300E2
:1053FC0008B5034B1B68D3F88830019308BD000037
:10540C002002030008B5034B1B68D3F894300193BA
:10541C0008BD00002002030008B5034B1B68D3F83D
:10542C00A830019308BD00002002030008B5024B10
:10543C001B685B68019308BD4002030008B5024B72
:10544C001B689B68019308BD4002030008B5024B22
:10545C001B68DB68019308BD4002030008B5024BD2
:10546C001B681B69019308BD4002030008B5024B81
:10547C001B685B69019308BD4002030008B5024B31
:10548C001B689B69019308BD4002030008B5024BE1
:10549C001B68DB69019308BD4002030008B5024B91
:1054AC001B681B6A019308BD4002030008B5024B40
:1054BC001B681B6B019308BD4002030008B5024B2F
:1054CC001B685B6B019308BD4002030008B5024BDF
:1054DC001B681B6C019308BD4002030008B5024B0E
:1054EC001B685B6C019308BD4002030008B5024BBE
:1054FC001B68DB68019308BD4402030008B5024B2E
:10550C001B68DB6B019308BD4402030008B5024B1A
:10551C001B685B6C019308BD4402030008B5024B89
:10552C001B681B68019308BD1C02030008B5024BE5
:10553C001B685B68019308BD1C02030008B5024B95
:10554C001B689B68019308BD1C02030008B5024B45
:10555C001B68DB6B019308BD1C02030008B5024BF2
:10556C001B685B6C019308BD1C02030000224068A1
:10557C001146FFF793BF002240681146FFF79EBF0C
:10558C0040680022FFF792BF4068002281F00101C1
:10559C00FFF77CBF002340681A461946FFF76EBF21
:1055AC00002340681A461946FFF760BF0022406886
:1055BC001146FFF753BF002240681146FFF73EBF6C
:1055CC00406800220221FFF741BF002340681A46C1
:1055DC00FFF72CBF024B03225A60024A1A60704735
:1055EC0050E60320B0720D000021FFF7A1BE002190
:1055FC00FFF7A6BE10B5044608462170FFF780FEE3
:10560C0000236360204610BD10B504460078FFF7F8
:10561C00EBFF48B920784FF6FF71FFF749FE207871
:10562C00BDE81040FFF7E3BF10BD13B5044600788A
:10563C000191FFF7D9FF019940B92078FFF740FE9F
:10564C00207802B0BDE81040FFF7D1BF02B010BD0A
:10565C0013B5044600780191FFF7C6FF019940B9D4
:10566C002078FFF735FE207802B0BDE81040FFF738
:10567C00BEBF02B010BD0000400830B51860002459
:10568C0018688842E5B206D90134082C02D04008CB
:10569C001860F5E70725024B5B5D137030BD00BF4A
:1056AC00E4720D002DE9F04188B000230446007827
:1056BC0002930E461746FFF797FF054600BB94F87A
:1056CC0000800146142203A801F078FB0B232A4624
:1056DC0003A94046ADF80C30FFF722FE04988DF874
:1056EC00075002AB0DF1070207FB06F1FFF7C4FFF1
:1056FC0020789DF80710FFF7F3FD2078FFF777FF70
:10570C00029808B0BDE8F08108B50078FFF7F0FD0D
:10571C00C0B208BD10B50446006818B1FFF706FF0B
:10572C000023236010BD38B5B1F9043083800B46DB
:10573C000D4653F8062FC0F806209B88438104467B
:10574C00FFF7E8FF2B6813B1236000232B60204682
:10575C0038BD000038B50C460546FFF7DBFF44B1F9
:10576C002088FFF7DBFE286028B12288214601F053
:10577C00FDFA002038BD0148FCE700BFFCFEFFFF2E
:10578C00F0B52D4D0B7D04468BB00846AF1D002B9C
:10579C0038D00B681B79002B34D00022274B049394
:1057AC0002A904300292ADF80C208DF80E20FFF700
:1057BC0033FEDDF80E30C5F8063000B2BDF81230FD
:1057CC00ADF80C00A8800299BB802846FFF7C2FFF9
:1057DC0002A8FFF79FFF00232360A380A3712381FE
:1057EC004FF6FF736381B5F90430A3803B68C4F8AE
:1057FC000630BB88296863812046FFF7ABFF204643
:10580C000BB0F0BD00262023CDE902360C4B0093E3
:10581C000C49334602AA3220FFF7D2FD074B049302
:10582C0002A94FF6F263044802968DF80E60ADF8AB
:10583C000C30FFF778FFCBE758E603200000FFFFA2
:10584C00F3720D00EC720D0010B5094B094C0222DD
:10585C0000201A60084B2060A080A071A360FFF7A5
:10586C00B7FD2046054A0649BDE8104001F04EB987
:10587C0064E6032058E603200000FFFF04E1032048
:10588C002D410D0070B586B0064601AD684600F09E
:10589C0021FB0FCD341D0FC42B682370304606B08E
:1058AC0070BD10B504460068FFF740FE204610BDE1
:1058BC0010B50446006808B1FFF738FE0023C4E9B0
:1058CC000133236010BD38B504460D460068013124
:1058DC00FFF734FE10B1C4E90005012038BD10B546
:1058EC000368044623B143688B4201D3012010BDE9
:1058FC002046FFF7E8FF0028F9D0A368002BF5D16C
:10590C0022681370F2E737B50D4611460192044632
:10591C00FFF7E5FF019A28B92046FFF7C9FF20469B
:10592C0003B030BDA2602946206801F01FFA22683E
:10593C00A3680021D154F2E7002313B5C0E900336A
:10594C0004468360037341B10846019101F074FA77
:10595C00019902462046FFF7D6FF204602B010BD43
:10596C00884210B5044605D00B682BB18A681946DD
:10597C00FFF7C9FF204610BDFFF79AFFFAE713B5F2
:10598C00044659B10846019101F056FA01990246B4
:10599C002046FFF7B8FF204602B010BDFFF788FF86
:1059AC00F9E770B505460E4609B9002070BD6AB11D
:1059BC00846814442146FFF792FF0028F5D028682C
:1059CC00AB683146184401F02FFAAC600120EDE7CA
:1059DC008A680968FFF7E5BF13B50446084651B15C
:1059EC00019101F029FA01990246204602B0BDE866
:1059FC001040FFF7D6BF02B010BD10B58A68096819
:105A0C000446FFF7CEFF10B92046FFF751FF2046A2
:105A1C0010BD13B5044629B92046FFF749FF2046AF
:105A2C0002B010BD0846019101F006FA0199024638
:105A3C002046FFF7B6FF0028EED0F0E708B58268E5
:105A4C003AB921B10878B0FA80F0400900E00120A1
:105A5C0008BD006809B90078F5E701F0DBF9F2E759
:105A6C0010B58368934207D904680968A01801F03F
:105A7C00FEF908B1001B10BD4FF0FF30FBE7002210
:105A8C00FFF7EEBFF8B59A420F461D460C4988BF8A
:105A9C0013461446064684BF2C461D46FFF74CFFA2
:105AAC00BA68A2420AD33968AA4294BFC4EB020274
:105ABC00C4EB050221443046FFF725FF3046F8BD04
:105ACC0075720D0010B504468B68FFF7DBFF20469E
:105ADC0010BD38B504460846A3688B4211D982B173
:105AEC0011448B4238BF1A1A2568991A1318A160F1
:105AFC000A1AE918284401F047F92268A368002122
:105B0C00D154204638BD8268521AFFF7E2BF10B557
:105B1C000446006808B1FFF7E3FA204610BD10B543
:105B2C008368044613B1032201469847204610BDF2
:105B3C0010B5064C002320462360FFF7C9FA204617
:105B4C00034A0449BDE8104000F0E0BF68E60320BA
:105B5C0004E103201B5B0D00F8B506460D468F18BB
:105B6C000024BD420CD0336815F8011B9B683046ED
:105B7C009847031E01DB1C44F3E7002C08BF1C46AE
:105B8C002046F8BD13B50446084659B1019101F001
:105B9C0053F923680199DB680246204602B0BDE840
:105BAC001040184702B010BD08B5FFF7EBFF08BD59
:105BBC0003689B6818470A680B461268014618462A
:105BCC00104738B50D210546FFF7F2FF0A210446B0
:105BDC002846FFF7EDFF204438BD38B50546FFF7E2
:105BEC00D1FF04462846FFF7ECFF204438BD30B502
:105BFC008BB000238DF82430012A98BF0A2209ACFF
:105C0C000D46B1FBF2F101FB125303F0FF03092B1C
:105C1C0094BF30333733DBB2AA4204F8013DEFD9DD
:105C2C002146FFF7AFFF0BB030BD002340681A468A
:105C3C001946FFF71BBC0000014B024A1A60704763
:105C4C006CE6032024730D00024B1A68024B1A6099
:105C5C00704700BF9CE0032070E603200021FFF793
:105C6C00BFBB10B50446FFF75AFF204610BD00001D
:105C7C000348044A04490023836000F047BF00BF77
:105C8C0074E6032004E103206F5C0D00014B1860E7
:105C9C00704700BFA0E0032008B50B4B43B100F0E8
:105CAC0085F903681B699847002801DDAFF3008074
:105CBC00064B43B100F0F8F903681B6998470028BC
:105CCC0001DDAFF3008008BD000000000000000003
:105CDC0008B5FFF7E1FFFFF7DBF9014B186008BDD2
:105CEC00D4E703200248034A0349121A01F03EB8D4
:105CFC0000F4032004F40320F0760D0007B5002314
:105D0C0000931A466FF07701FFF77CFB03B05DF848
:105D1C0004FB000007B543880A2B08D0502B0BD18D
:105D2C00094B1B684BB103B05DF804EB1847FFF748
:105D3C00E5FF03B05DF804FB002300931A466FF0F7
:105D4C007701FFF75FFBF4E788E6032038B5124CC8
:105D5C001248134D0021FFF701FC2368AB42114B95
:105D6C000CBF012200221A7002D0FFF7BBFF256086
:105D7C00FFF786F9044601F029F80B4B13B12046C6
:105D8C00AFF3008000210848FFF7B8FBBDE83840AE
:105D9C0006480021FFF72CBB00F40320995C0D0092
:105DAC001E1C279A84E6032000000000215D0D00D4
:105DBC0007B50823ADF8003003688DF80230037A7C
:105DCC008DF803300021436801936846FFF79EFB72
:105DDC0003B05DF804FB704710B51821044600F0C1
:105DEC009AFE204610BDF0B5037D062B8DB00E46F5
:105DFC0000F104074FF0000412D000F1080515F86B
:105E0C00011D0A223046FFF7F2FEAF42044419D0BE
:105E1C00002CF4D02E213046FFF7CAFE0444EEE7E6
:105E2C002F236A4639460A208DF80040FFF760F9A7
:105E3C00684601F001F833680246DB686946304673
:105E4C009847044620460DB0F0BD000010B5054B38
:105E5C000446112240F8043B002100F0AFFF20461D
:105E6C0010BD00BF4C730D000346074A10B543F834
:105E7C00042B01F1100251F8044B43F8044B9142EE
:105E8C00F9D10A781A7010BD4C730D00037D042BE8
:105E9C0004D14068003818BF01207047062B07D189
:105EAC0043683BB983682BB9C3681BB90069F1E738
:105EBC00002070470120704710B59DF8084044EA57
:105ECC00032343EA024242EA016104234160037561
:105EDC0010BD000013B5054B0360CB7800938B7895
:105EEC004A780978FFF7E8FF02B010BD4C730D003B
:105EFC0041747047704708B50021007CFFF748FAE1
:105F0C0040EAE07008BD08B50121007CFFF740FABB
:105F1C0040EAE07008BD08B5007CFFF731FA20EAD2
:105F2C00E07008BD08B5007CFFF722FA20EAE070AB
:105F3C0008BD13B50446007C0191FFF721FA002837
:105F4C00019901DC607C20B1207CFFF729FA20EA62
:105F5C00E07002B010BD007CFFF72ABA10B5142116
:105F6C00044600F0D8FD204610BD000010B54FF4DB
:105F7C007A73044608460021C4E90113044B2360DC
:105F8C000123207463741146FFF7E2F9204610BD1B
:105F9C0060730D00007C0022FFF7E2B910B51422EB
:105FAC000446002100F00AFF204610BD10B5104C2D
:105FBC0088B003A8FFF7F2FF2178BFF35B8F11F0D5
:105FCC00010111D120460191FEF765F8019958B1F4
:105FDC0003AA0848FFF7CAFF2046FEF761F8064AF5
:105FEC000649044800F092FD024808B010BD00BFFD
:105FFC008CE6032090E6032004E10320015F0D00F2
:10600C0070474174704708B5007CFFF7C1F820EA6F
:10601C00E07008BD08B5007CFFF792F820EAE0704C
:10602C0008BD08B5007CFFF79BF840EAE07008BD9E
:10603C0008B5007CFFF78CF840EAE07008BD007CE6
:10604C00FFF796B837B5457C04462DB1207C03B0DC
:10605C00BDE83040FFF76CB8007C0191FFF798F871
:10606C0000280199F2DC284603B030BD10B514218C
:10607C00044600F050FD204610BD000010B54FF056
:10608C00000C0446084611464FF47A72C4E901C26A
:10609C00044A22600122207462741A46FFF740F809
:1060AC00204610BD90730D0013B50E4C2178BFF334
:1060BC005B8F11F0010112D120460191FDF7EBFF2E
:1060CC00019960B1084A094B0948FFF7D7FF2046F0
:1060DC00FDF7E6FF074A0849054800F017FD04489C
:1060EC0002B010BDA4E60320A8E603202CE7032091
:1060FC00B0E7032004E103200D600D007047F8B5F4
:10610C00064615460C468F18BC4206D0336814F868
:10611C00011B9B6830469847F6E72846F8BD007C83
:10612C000022FFF755B8007C0021FFF759B8007C1E
:10613C000021FFF75DB8007C0021FFF761B8007CFF
:10614C000021FFF765B810B51421044600F0E3FCFC
:10615C00204610BD10B54FF47A7304460846002152
:10616C00C4E90113034B236020741146FFF760F858
:10617C00204610BDC0730D000023007C1A46194642
:10618C00FFF70EB87FB500221423CDE90122ADF83C
:10619C0004300B788DF808304B680393CB6804936C
:1061AC00007C0B7A059301A9FFF74AF807B05DF85C
:1061BC0004FB1FB5003B8DF800104FF064010391F8
:1061CC0018BF0123694601928DF80830FFF7DAFFFA
:1061DC0005B05DF804FB0123FFF7EBBF007C002248
:1061EC00FEF7E6BFC9B2FFF7F9BF007C0022FEF74D
:1061FC00E7BF0121FFF7F9BF13B503688DF807104E
:10620C00DC6B01224FF0FF330DF10701A04702B008
:10621C0010BD10B40368DC6B4FF0FF33A4465DF87F
:10622C00044B604713B5134602688DF80710D46B06
:10623C000DF107010122A04702B010BD704738B51F
:10624C0043691A68002A054610DAB3F88620B3F8B9
:10625C0084309A420AD103681B699847044628B9CE
:10626C002B682846DB6A9847204638BD0120FCE79E
:10627C0043691868C043C00F70477047064B99427A
:10628C0010B500F10C0405D0084600F04BFC0028BA
:10629C0008BF0024204610BD1C730D0010B5AC21A6
:1062AC00044600F038FC204610BDFDF7F0BE2DE989
:1062BC00F0414FF0000886B01D46C0F8048004463B
:1062CC000E4617464146102202A800F077FD6B1CC3
:1062DC0009D04FF47A70B5FBF0F3CDE9023800FB2E
:1062EC00135358430490606910230093006802AB69
:1062FC0041F2050240F6FF71FEF7AAFF002807DA0B
:10630C00FFF724F903686360002006B0BDE8F08154
:10631C006069002300683A463146FEF7B9FF031E58
:10632C00EEDB1846F1E7000038B584690A4B0360D0
:10633C0005467CB16368013B63605BB9236820460A
:10634C009B689847A368013BA3601BB92368204650
:10635C00DB689847284638BD14740D0010B5044608
:10636C00FFF7E2FF20461C2100F0D5FB204610BDB4
:10637C0070B54D69054B04468C3544F8043B064614
:10638C000FCD0FC42B682370304670BD4C730D00BD
:10639C0010B54369B3F88620B3F884309A420446AA
:1063AC0005D06369B3F884201344187910BD0368D1
:1063BC001B6998470028F4D14FF0FF30F6E710B571
:1063CC004369B3F88620B3F884309A42044608D067
:1063DC006369B3F88420511CA3F884101344187912
:1063EC0010BD03681B6998470028F1D14FF0FF30AE
:1063FC00F6E7F8B543691746B3F88620B3F884304E
:10640C009A4205460E4616D06969B1F88430B1F847
:10641C008640E41ABC4228BF3C4604332246194449
:10642C00304600F0A3FC6A69B2F884302344A2F829
:10643C0084302046F8BD03681B6998470028E3D1D7
:10644C004FF0FF34F5E742690023A2F8843042692B
:10645C00A2F8863070472DE9F0411F4603680C46C0
:10646C00DB6A8AB0054616469847237DD5F814801A
:10647C00042B0CBF02200A2006220121FEF710FF7C
:10648C00C8F800006B691B68002B08DA2B682846DB
:10649C00DB6A0024984720460AB0BDE8F081284604
:1064AC00FFF7D1FFB7B1002303A9F8B20393ADF8FE
:1064BC001030FEF7DDFD0028E8D168690623009353
:1064CC00006803AB41F20B0240F6FF71FEF7C0FE11
:1064DC000028DBD11C22002103A800F06FFC237DD7
:1064EC00042B1DD14FF407733046ADF80C30FEF77A
:1064FC000FFEADF80E006068FEF702FE04906B69AB
:10650C001C22186803A9FEF7B3FE0028BED1043480
:10651C000FCC6D698C350FC523682B700124BAE73D
:10652C0040F61C233046ADF80C30FEF7F1FD05AEFD
:10653C00ADF80E00231D04F1140718685968324693
:10654C0003C20833BB421646F7D1D8E730B54269CF
:10655C00B2F886308BB004462BB1B2F884209A4244
:10656C0001D1FFF770FF61690868002818DBB1F8EA
:10657C0086507F2D14D804310823C5F1800229449C
:10658C00FEF77EFE002813DD6369B3F886200AB996
:10659C00A3F884206369B3F886201044A3F886001E
:1065AC006369B3F88600B3F88430C01A0BB030BD01
:1065BC00FEF7CCFF03680B2BF2D0FEF7C7FF036886
:1065CC000B2BEDD020230025CDE90235FEF7BEFFC5
:1065DC0003680193084B0949009302AA2B46322009
:1065EC00FEF7EEFE63691868FEF73AFE63694FF03A
:1065FC00FF321A60D4E700BFE0730D00EC720D009F
:10660C0010B5436904461868002801DBFEF728FE24
:10661C0063694FF0FF321A606069112200218C30DF
:10662C0000F0CCFB2046BDE81040FFF70CBF10B5C6
:10663C00002304460160C0F884308830FFF706FC64
:10664C00204610BD73B500234FF47A72C0E90132B5
:10665C000E4A0361026043610446AC200191FDF7D0
:10666C0012FD051E05F10C0608D00123C5E9013306
:10667C00074B01992B603046FFF7D9FF2046C4E940
:10668C000565FFF7E0FE02B070BD00BF14740D008D
:10669C00F8730D0010B54FF0FF310446FFF7D2FF31
:1066AC00204610BD10B504460068002801DBFEF73B
:1066BC00D7FD204610BD0C30FFF7F4BF2DE9F04399
:1066CC009846036893B00D460024DB6A06461746CD
:1066DC00984728466B46224621460094FEF7A0FCBC
:1066EC000546002863D1009B002B4BD05B69002B27
:1066FC0048D006A8FFF7AAFB009B5C696378022BC5
:10670C0004D1211D06A8FFF7BDF826E00A2B24D1E1
:10671C001122294601A800F051FBA368002B38D0A8
:10672C0004F108030DF1040C18341868596862461A
:10673C0003C20833A3429446F7D1062301A90CA83F
:10674C008DF81430FFF790FB0DF1340CBCE80F0002
:10675C0007AC0FC4DCF80030237006A8FFF796FBDB
:10676C0080B1336807ADD3F82090124B0C930FCD4A
:10677C000DAC0FC42B6823703A4643460CA9304627
:10678C00C84705460098FEF743FC284613B0BDE801
:10679C00F083E368002BC3D14FF6FF70D4F8109050
:1067AC00FEF7AEFC8145BBD104F11401AAE72546E6
:1067BC00E8E700BF4C730D00002240681146FEF75D
:1067CC004DBE002240681146FEF768BE00224068AC
:1067DC001146FEF773BE40680022FEF767BE4068A4
:1067EC00002281F00101FEF751BE002340681A46D9
:1067FC001946FEF743BE002240681146FEF71EBE46
:10680C00406800220221FEF721BE002340681A4690
:10681C00FEF70CBE024B04225A60024A1A60704703
:10682C00C4E7032060740D00002340681A46FEF78D
:10683C00FDBD406800220221FEF708BE0022406820
:10684C001146FEF7FBBD002240681146FEF706BE5E
:10685C00002340681A461946FEF708BE002340681C
:10686C001A461946FEF70ABE40680021FEF72EBEF6
:10687C0040680021FEF732BE4068002281F0010121
:10688C00FEF704BE40680022FEF710BE00224068EE
:10689C001146FEF713BE002240681146FEF7FEBDFE
:1068AC002DE9F043002495B016460D460746FFF738
:1068BC00CDFA214618220EA8009400F07FFA40234E
:1068CC00CDE90C3421466B460CAA3046FEF7A8FBEA
:1068DC00044600284CD1024601216868FEF7BEFD33
:1068EC000221804622466868FEF7B8FD009E81466C
:1068FC002146002E3CD000293AD17368022B03D0DC
:10690C000A2B11D0F669F4E7B8F1000F0AD07169BF
:10691C0006A8043107ADFFF7DDFA0FCD3C1D0FC4FF
:10692C002B6823704146EDE7B9F1000F01D14946C0
:10693C00E8E77469102201A800F040FA06238DF8EC
:10694C00143001AD04F108031834186859682A464C
:10695C0003C20833A3421546F7D101A906A807AD17
:10696C00FFF782FA0FCD3C1D0FC42B682370DEE7B6
:10697C000098FEF74DFB384615B0BDE8F0830000DB
:10698C00024B034A1A6000225A607047CCE703207E
:10699C009C740D00232813B502D9002002B010BD41
:1069AC00A0F10B03022B1AD8174C2178BFF35B8F85
:1069BC0011F001010BD120460191FDF76CFB0199FF
:1069CC0028B11248FEF716FE2046FDF769FB0F4B67
:1069DC001878FEF79DFC0028DFD10120DEE70128A6
:1069EC0009D800F06BF80021007CFEF719FC80F050
:1069FC000100C0B2D2E709380128EED8FFF754FBEA
:106A0C00007CFEF7BDFBF2E744E6032048E60320DA
:106A1C00232838B504460D460AD8FF2908D0FFF7BD
:106A2C00B9FF28B129462046BDE83840FEF700BB27
:106A3C0038BD38B504460D46FEF702FBFF2810D0D2
:106A4C00062804D84D2323FA00F0C30709D42046A6
:106A5C00FFF7A0FF28B129462046BDE83840FEF7D5
:106A6C00F7BA38BD10B50446FEF7EAFA031FDBB2DD
:106A7C00012B08D92046FFF78DFF20B12046BDE839
:106A8C001040FEF7EDBA002010BD000038B5002311
:106A9C002025438014230446038085600561064944
:106AAC00284600F03CF804496060284600F037F8AE
:106ABC00E060204638BD00BFD0740D0030B50F4DDE
:106ACC002978BFF35B8F11F0010487B013D12846EE
:106ADC00FDF7E1FA78B101A8FFF7D8FF01AA21462A
:106AEC000748FFF737FB2846FDF7DAFA054A06494F
:106AFC00034800F00BF8024807B030BDD8E703207C
:106B0C00DCE7032004E1032009610D000B4601467C
:106B1C00184600F01DB9FDF7BABAFDF7B4BAFDF787
:106B2C00B4BA0000014900F0F9B800BFEC740D00D4
:106B3C007FB500241023CDE90234036800949E69CC
:106B4C008DF8044015466B461268B0479DF804302A
:106B5C0003F00603062B03BF009B2B60012020468D
:106B6C0004B070BD0098904214BF012006207047FD
:106B7C0010B5034B0360044600F0CDF8204610BD61
:106B8C002C750D0010B50446FFF7F2FF20460821C6
:106B9C00FFF7C1FF204610BD2DE9F0411F46DDE98E
:106BAC000834DDF8188098450646154607D1079934
:106BBC0000F0B4F818B165710020BDE8F0813946D9
:106BCC00304600F0ABF80028F6D00123C4F8008062
:106BDC002571A371F0E738B515461C4600F09EF8F8
:106BEC0020B10823E36006232560237138BD73B5FB
:106BFC0005460C4601921E4600F090F850B9032E43
:106C0C0008D82368019A5B692946204602B0BDE882
:106C1C007040184702B070BD10B5034B03600446BA
:106C2C00FFF7A6FF204610BD8C750D0010B504466D
:106C3C00FFF7F2FF20460C21FFF76DFF204610BD39
:106C4C00F7B5089F974205460E4614460AD0A86829
:106C5C0002680897156A31462246AC4603B0BDE877
:106C6C00F04060471946019300F058F8019B00284A
:106C7C00EDD0062003B0F0BD2DE9F14F0D461946BD
:106C8C00DDE90A4BDDE90CA681461746984600F073
:106C9C0045F890B1002D3460377109DB61198A45D4
:106CAC000CBF06210121B171002001B0BDE8F08FAD
:106CBC000235F9D10123B371F6E7544506D1594693
:106CCC00484600F02BF808B17771EDE7D9F80800C9
:106CDC000368CDE90CA6CDE90A4BDC693A4643467C
:106CEC002946A44601B0BDE8F04F60472DE9F041BC
:106CFC0007460C4615461E46FFF76DFF48B9B868A7
:106D0C0003689F692A4633462146BC46BDE8F041DC
:106D1C006047BDE8F081704700207047814208B59C
:106D2C000ED0406803782A2B0CD049680B782A2B9C
:106D3C0008BF013100F06EF8B0FA80F0400908BDD0
:106D4C000120FCE70020FAE70A22002100F020B91C
:106D5C0010B5054C13462CB10A4601460220AFF380
:106D6C00008010BD2046FCE7000000000A44914260
:106D7C0000F1FF3300D1704710B511F8014B03F847
:106D8C00014F9142F9D110BD884210B501EB0204BC
:106D9C0002D98442234607D8431EA14208D011F8D9
:106DAC00012B03F8012FF8E7024401468A4200D177
:106DBC0010BD13F8014D02F8014DF7E702440346EC
:106DCC00934200D1704703F8011BF9E738B50D4B1E
:106DDC001D68AB6B04467BB91820FEF79FFB0A4A73
:106DEC000A4BA863C0E90023094B83600B23838102
:106DFC0001220023C0E90423AB6B00221C615A6101
:106E0C0038BD00BFA0E003200E33CDAB34126DE6CD
:106E1C00ECDE050010F8012B11F8013B012A28BF0C
:106E2C009A42F7D0D01A7047034611F8012B03F899
:106E3C00012B002AF9D17047034613F8012B002AC5
:106E4C00FBD1181A0138704710B50139034632B11D
:106E5C0011F8014F03F8014B013A002CF7D11A44F9
:106E6C000021934200D110BD03F8011BF9E7F0B5E6
:106E7C000C7864B103461A7818465E1C0AB91046A1
:106E8C0005E0944208D10D4615F8012F02B9F0BD6A
:106E9C0013F8017F9742F7D03346ECE72DE9F04722
:106EAC003A4E86468C4660461CF8014BA55D15F0A3
:106EBC000805F8D12D2C33D19CF800404FF0010877
:106ECC0000F1020C002B5CD0102B0CD1302C0AD111
:106EDC009CF8000000F0DF0058284DD19CF80140D0
:106EEC0010230CF1020C08F10047013F0026B7FB00
:106EFC00F3F9304603FB197AA4F13005092D18D8A3
:106F0C002C46A34224DD751C07D081451DD301D12D
:106F1C00A2451ADB00FB034001261CF8014BEBE7F2
:106F2C002B2C08BF9CF80040A84608BF00F1020CAF
:106F3C00C8E7A4F14105192D01D8373CE1E7A4F1CC
:106F4C006105192D04D8573CDBE74FF0FF36E4E719
:106F5C00731C06D12223CEF80030384642B9BDE866
:106F6C00F087B8F1000F00D04042002AF7D00EB1E4
:106F7C000CF1FF311160F2E73024002BB3D1082360
:106F8C00B1E7302CA4D00A23ADE700BFC6750D00C5
:106F9C0013460A46014602480068FFF77FBF00BF50
:106FAC00A0E003201D400D0059400D0081400D0054
:106FBC0085400D000000000068747470733A2F2F28
:106FCC006170692E6765747368696674776F72781F
:106FDC002E636F6D0076312F64617461736F7572FF
:106FEC0063652F64617461007B2264736964223A67
:106FFC0035303938332C202276616C7565223A3362
:10700C007D2C007B2264617461223A5B005D7D0003
:10701C00504F5354006C61622E74686577636C2E0C
:10702C00636F6D00436F6E74656E742D547970656B
:10703C00006170706C69636174696F6E2F6A736F35
:10704C006E006170692D746F6B656E004150492D37
:10705C0065616665652D63646235362D333534356F
:10706C00642D3338663764004C4953334448000070
:10707C000000000000000000B5400D0015430D009D
:10708C00E1450D001D4B0D00E5450D004874747075
:10709C00436C69656E743E09436F6E6E656374690B
:1070AC006E6720746F3A200048747470436C696585
:1070BC006E743E09436F6E6E656374696E672074FF
:1070CC006F2049503A20003A0020485454502F3138
:1070DC002E300D0A0048747470436C69656E743EF2
:1070EC00095374617274206F6620485454502052B6
:1070FC006571756573742E00636C6F736500436FF7
:10710C006E6E656374696F6E0048747470436C695D
:10711C00656E743E09436F6E6E656374696F6E20A5
:10712C006661696C65642E00484F535400436F6E62
:10713C0074656E742D4C656E677468004874747059
:10714C00436C69656E743E09456E64206F66204819
:10715C0054545020526571756573742E000D0A4895
:10716C00747470436C69656E743E0952656365692D
:10717C0076696E6720544350207472616E7361633C
:10718C0074696F6E206F6620002062797465732EAF
:10719C000048747470436C69656E743E0945727274
:1071AC006F723A20526573706F6E736520626F64F4
:1071BC0079206C6172676572207468616E206275EB
:1071CC00666665722E000D0A48747470436C6965AE
:1071DC006E743E09456E64206F66205443502074D3
:1071EC0072616E73616374696F6E2E000D0A487460
:1071FC007470436C69656E743E094572726F723AB5
:10720C002054696D656F7574207768696C652072A0
:10721C00656164696E6720726573706F6E73652E3D
:10722C00000D0A48747470436C69656E743E0945B0
:10723C006E64206F66204854545020526573706FF2
:10724C006E73652028006D73292E0048747470438A
:10725C006C69656E743E0953746174757320436F69
:10726C0064653A20000D0A0D0A0048747470436C72
:10727C0069656E743E094572726F723A2043616E95
:10728C0027742066696E64204854545020726573CC
:10729C00706F6E736520626F64792E0000000000C1
:1072AC0000000000D7550D00CD550D00C3550D0045
:1072BC00B9550D00AD550D00A1550D0075680D00AB
:1072CC007D680D0095550D008D550D0083550D00F5
:1072DC0079550D00AD680D000008101820283038C5
:1072EC00776972696E670053797374656D20736C7E
:1072FC0065657020636F6E66696775726174696F1E
:10730C006E20697320696E76616C69642E000000D2
:10731C0000000000000000006170700025592D2550
:10732C006D2D25645425483A254D3A2553257A0070
:10733C0061736374696D650000000000000000005B
:10734C00F35D0D00E35D0D00E55D0D000000000038
:10735C0000000000015F0D00695F0D003F5F0D0034
:10736C00655B0D00315F0D00035F0D00135F0D00B9
:10737C00635F0D00235F0D00FD5E0D00000000003B
:10738C00000000000D600D0079600D0051600D00D3
:10739C00655B0D0021600D003D600D002F600D0040
:1073AC004B600D000F600D0013600D00000000001D
:1073BC000000000009610D0053610D002B610D00F0
:1073CC000B610D0033610D003B610D0043610D003D
:1073DC004B610D0072656376206572726F72203D91
:1073EC0020256400000000000000000087620D00F2
:1073FC00A9620D00C3660D00B7620D0089620D0015
:10740C00000000000000000035630D0069630D00F2
:10741C0005620D001F620D0059650D00CB630D0058
:10742C009D630D0049620D0063640D00C9660D007B
:10743C00FF630D000D660D004B620D007D620D00AB
:10744C0031620D00BB620D007D630D000000000079
:10745C000000000017680D000D680D0003680D009A
:10746C00C5670D00375C0D00F7670D0075680D00E2
:10747C007D680D00EB670D00E3670D00D9670D000B
:10748C00CF670D00AD680D0000000000000000008B
:10749C0035680D003F680D0049680D0053680D00FC
:1074AC005D680D0069680D0075680D007D680D0044
:1074BC0085680D0091680D0099680D00A3680D009A
:1074CC00AD680D0000537431395F53705F6D616BA3
:1074DC00655F7368617265645F74616700000000CA
:1074EC002C750D00D1740D008C750D0000750D0000
:1074FC00B0750D004E31305F5F63787861626976EC
:10750C003131375F5F636C6173735F747970655F82
:10751C00696E666F4500000000000000F4740D00F9
:10752C007D6B0D00916B0D00256D0D00256D0D0013
:10753C00FB6B0D003D6B0D00E36B0D00A56B0D009F
:10754C00716B0D008C750D005C750D00F4740D00E5
:10755C004E31305F5F637878616269763132305FCB
:10756C005F73695F636C6173735F747970655F6976
:10757C006E666F45000000000000000050750D00A5
:10758C00256C0D00396C0D00256D0D00256D0D0061
:10759C00FB6B0D003D6B0D00F96C0D00856C0D0047
:1075AC004D6C0D002C750D00B8750D0053743974AD
:1075BC007970655F696E666F0000202020202020A6
:1075CC002020202828282828202020202020202087
:1075DC002020202020202020202088101010101087
:1075EC0010101010101010101010040404040404D7
:1075FC0004040404101010101010104141414141BA
:10760C00410101010101010101010101010101011E
:10761C0001010101011010101010104242424242AF
:10762C0042020202020202020202020202020202EE
:10763C0002020202021010101020000000000000D4
:10764C00000000000000000000000000000000002E
:10765C00000000000000000000000000000000001E
:10766C00000000000000000000000000000000000E
:10767C0000000000000000000000000000000000FE
:10768C0000000000000000000000000000000000EE
:10769C0000000000000000000000000000000000DE
:1076AC0000000000000000000000000000000000CE
:1076BC0000000000000000000000000025430D0049
:1076CC00E1550D0055580D003D5B0D00455C0D005E
:1076DC00555C0D007D5C0D0021680D008D690D0061
:0476EC00000000009A
:0476F0000000000096
:1076F40030700D003D700D004E700D0058700D007F
:107704000000000000000000102700003C730D0082
:10771400A4E00320000000000000000000000000BE
:107724000000000000000000000000000000000055
:107734000000000000000000000000000000000045
:107744000000000000000000000000000000000035
:107754000000000000000000000000000000000025
:107764000000000000000000000000000000000015
:047774000000000011
:10777800FFFFFFFF00000102030405060708090ACE
:107788000B0C0D0E0F101112131415161718191AC9
:087798001B1C1D1E1F20280010
:0477A00078563412D1
:04000003D000401CCD
:00000001FF
