:02000002D0002C
:1040000000400D0090AC0D00000006000C00050102
:084010000401BD0B00000000DB
:0440180014A00D00E3
:1040200009480A49884208B505D0094A824202D0A7
:10403000121A05F0C5FE0748074A0021121A05F0BA
:10404000E7FE014808BD00BFCCDE0320D4AB0D0065
:1040500060DF032060DF0320F0E7032070B5074E28
:10406000074C04F037F9A41BA4080025A54200D191
:1040700070BD56F8043B98470135F7E7A4AB0D0037
:10408000C8AB0D0000F0BAB808B500F0B5F9BDE84E
:10409000084004F0E1B802F0F3B802F0F1B802F021
:1040A000F7B80078B0FA80F0400970470123037038
:1040B0007047704710B50446043002F042FB2046BA
:1040C00010BD10B504463C3002F03BFB04F1280063
:1040D00002F037FB204602F034FB204610BD000002
:1040E00008B5074B00221A6004F024FA054903F0D2
:1040F00022FFBDE808400121072004F086BF00BF71
:10410000C8DF03202BA00D0008B504F013FA044902
:1041100003F011FFBDE808400021072004F075BF3F
:1041200028A00D0038B50446006928B185680C2127
:1041300004F0F3FF2846F8E7204638BD10B5042206
:104140000C4601F063FD204610BD000038B58469BF
:104150000A4B036005467CB16368013B63605BB951
:10416000236820469B689847A368013BA3601BB95E
:1041700023682046DB689847284638BDF0A80D0024
:1041800010B50446006808B102F082F8204610BD60
:10419000002340681A46194601F0EABF0023406830
:1041A0001A46194601F0ECBF70B5037D05460E4670
:1041B000CBB10368DB6823B19A88042A17D09B68C7
:1041C000F9E70C49102004F0AAFF044668B1102258
:1041D000002105F01DFE084B23600423A3802B69FA
:1041E0002C61C4E90236284670BD2875FBE7DE6005
:1041F000F9E700BFACA90D001000030010B596B0A0
:1042000004F030FF4C49C820FFF798FF4B4B1A7D54
:104210000AB102221A7240F2A2314848484CFFF714
:10422000C3FF04F087F94FF4165104F077F9182111
:10423000444801F01CF904F043FF04F067FA192127
:10424000404801F014F93F48002101F0E7F83D48EB
:10425000072101F0FBF80121082004F0C5FE01212F
:10426000082004F0D2FE3849204602F0FDFA40F65C
:10427000B8333649A36304F1280002F0F5FA03F0DD
:104280000BF803F057F803F007F8314A01460DA880
:1042900003F0F4FC0DA803F0ECF802F0FDFF2D4A4A
:1042A00001460DA803F0EAFC0DA803F0E2F80DA802
:1042B00002F06DFE284903A802F06CFD03A908A8CE
:1042C00002F068FD08A802F0ABFD044608A854BB44
:1042D00002F0C5FD0094ADF80A0002230DF10A02B8
:1042E00003210DA802F048FE02F0D6FF0DA900221E
:1042F00003F040F802F0D0FF1849002203F0B4FBAD
:1043000002F0CAFF0022164903F0C4FB0121072076
:1043100004F06AFE134B00221A6001F067FC124B96
:10432000186016B010BD02F09FFD002300930246F6
:1043300010230721D5E700BF20E60320B0DF0320CC
:1043400078E5032000E4032035A00D0045A00D0012
:1043500008E60320D8E5032070DF0320E1400D00CC
:1043600009410D00C8DF032000E60320F0B5164622
:1043700091B00022C0E9002204460D460BAF194659
:1043800006A802F007FD1699384602F003FD3378BF
:104390008DF81430189B0293179B2046CDE90073CB
:1043A00005AA06AB294603F0FBFA204611B0F0BD82
:1043B000F8B505460C4616464AB90368C9B29B686B
:1043C00098470746284603F0AAFD3844F8BD00295F
:1043D0000CDA0A2A0AD12D2103F098FD6142074622
:1043E000F2B2284603F0B1FD0744EBE7214600276F
:1043F000F6E70000000000002DE9F04F2DED048BE2
:1044000093B001F0F3FB524C206001F0EFFB514BF5
:1044100004941860504BA0F5EA401B682F3898426E
:104420007CDC4E4B1B78002B00F00F8204F01AFE50
:104430004B490020FFF782FE04F014FE4949642036
:10444000FFF77CFE04F00EFE4749C820FFF776FE1A
:10445000464B1A7D0AB102221A72DFF80881444CD9
:10446000D8F800104148434DDFF81CB14639FFF73A
:104470009BFE204601F04CF803F09AFE0A2201460A
:104480000EA802F016FA0EA93B4802F0E5F90EA8B4
:1044900002F057F9D4ED038A00232B6018EE900A3E
:1044A00005F0BAF826A3D3E9002306460F4605F027
:1044B00091FBA246CDF80C800595B7EE008A002846
:1044C00064D02E4B4FF033323046394605F078FB3E
:1044D00000285BD078EEC87A2569646917EE900AE7
:1044E00005F09AF818A3D3E9002305F0EDF805F0DC
:1044F000E3FBCBF80000284605F08EF812A3D3E9C1
:10450000002305F0E1F805F0D7FB1D4B18602046AD
:1045100005F082F80CA3D3E900237AE0194B0022BE
:104520005868114601F044FE00283FF47AAF02F0CB
:10453000B3FE02F032FF00287FF473AF76E700BFCE
:104540009A9999999999E93F3EE8D9ACFA9C234008
:10455000F0E5032004E6032000E60320ACDF03209F
:10456000CCDF0320ECDE0320F0DE0320B0DF0320ED
:1045700000E40320FCE3032010E603203333F33F81
:1045800028E60320BCE7032024E603209AED049AE2
:1045900019EE100A05F040F8DAED058A044618EE27
:1045A000900A0D4605F038F8C5A3D3E900238046EC
:1045B00089462046294605F00DFB002800F04A8177
:1045C000C14B4FF033322046294605F0F9FA002856
:1045D00000F04081B8A3D3E900233046394605F006
:1045E00073F805F069FB79EE487ACBF8000017EE16
:1045F000900A05F011F8B0A3D3E9002305F064F8A0
:1046000005F05AFBB14B1860ABA3D3E90023404639
:10461000494605F059F805F04FFBAD4B186003F023
:1046200089FF9AED030A022103F081FD03F082FF66
:104630009AED040A022103F07AFD03F07BFF9AED64
:10464000050A022103F073FDA24BD3ED007AF5EECB
:10465000C07AF1EE10FAD8BFF1EE677AF4EEC87ABC
:10466000F1EE10FA1DDC994BD3ED007AF5EEC07A2D
:10467000F1EE10FAD8BFF1EE677AF4EEC87AF1EEF7
:1046800010FA0EDC924BD3ED007AF5EEC07AF1EE23
:1046900010FAD8BFF1EE677AF4EEC87AF1EE10FAAC
:1046A00002DD8D4B01221A608C4E8D498D4D06A87E
:1046B00002F092F80A2231680AA802F0E7F80AA983
:1046C00006A802F031F9884902F03AF9059B0A225E
:1046D000196804460EA802F0D9F80EA9204602F087
:1046E00023F98249824C02F02BF9824902F01CF92D
:1046F000814902F025F90146284602F004F90EA886
:1047000002F01FF80AA802F01CF806A802F019F837
:1047100003F010FF296803F00EFC03F00BFF316873
:10472000764E0A22FFF744FE03F004FF039B0A22A1
:104730001968FFF73DFE03F0FDFE31680A22FFF71E
:1047400037FE03F0F7FE21680A22FFF731FE02F080
:10475000A3FD02F06DFF02F09FFD02F003FF0EA823
:10476000674901F0C7FE0E9808B101F091FD01F014
:104770003DFA644B1860049B1B68C01A2060624CB1
:104780002368002B5CDC614F3846FFF701FD0023F6
:1047900078681A46194601F0CBFC00227868114669
:1047A00001F0DEFC0028F8D001F042FDA9684D4878
:1047B000574F013902F03FF956490EA802F00CF8A4
:1047C00048490EA802F0B0F8534902F0B9F8014682
:1047D000524802F032F80EA801F0B3FF504B514995
:1047E000514800933A46514B00F0CAFF03F0A2FE35
:1047F0003B684F49194403F09EFB03F09BFE4D4973
:1048000005460EA801F0E8FF391D0EA802F08CF84D
:104810000168284603F08FFB0EA801F092FF46497D
:10482000304802F021F8336823600EA80023CDE958
:104830000E338DF8403003F07FFD3448FFF7AEFCB7
:10484000039A236812689B1A236013B0BDEC048B93
:10485000BDE8F08F1AA3D3E900234046494605F08E
:10486000B9F900283FF4DBAE174B4FF03332404626
:10487000494605F0A5F900283FF4D1AE0EA3D3E9CF
:1048800000233046394604F01FFF05F015FA0AA34D
:10489000D3E90023CBF800002946204604F014FF9A
:1048A00005F00AFA094B78EEC87A186017EE900AFC
:1048B0002EE600BFAFF300803EE8D9ACFA9C23405F
:1048C0009A9999999999E93F3333F33F28E6032060
:1048D0002CE6032024E60320FCE30320CCDF0320A6
:1048E00047A00D0068E5032050A00D005BA00D005F
:1048F000F8E5032010E603206AA00D00F0DE032097
:10490000B0DF0320F4E5032020E60320BCE703200A
:10491000C4E503206DA00D0077A00D00B4E50320D1
:104920007AA00D0078E50320D0DF0320CCDE032041
:104930007FA00D0088A00D0085A10D0038B50546AB
:104940004AB90268C9B2926890470446284603F003
:10495000E6FA204438BDD2B203F0F7FAF5E738B5ED
:10496000054642B903689B6898470446284603F009
:10497000D6FA204438BDD2B203F0E7FAF5E70000DA
:104980002DE9F04F0E4695B0C74D044603F0D2FD19
:104990000A223146FFF7D2FFC449C54801F064FF3F
:1049A0002B68062B00F2B580DFE813F0FA008400D4
:1049B0006B0058003E0024000700BE4FDFF8F08275
:1049C00026440134A64200F08D8203F0B3FD0A2292
:1049D00014F8011CFFF7C3FF14F8011CB44801F0E0
:1049E00096FFD8F8000005F0B7F94FF47A735843F2
:1049F0003860E6E7B04FDFF8B88226440134A642BB
:104A000000F0268203F096FD0A2214F8011CFFF73D
:104A1000A6FF14F8011CA64801F079FFD8F80000A1
:104A200005F09AF93860E9E7A44FDFF8848226445C
:104A30000134B44200F0CF8103F07CFD0A2214F867
:104A4000011CFFF78CFF14F8011C994801F05FFF6F
:104A5000D8F8000005F080F93860E9E7944F264463
:104A60000134A64200F0548103F064FD14F8011CE7
:104A70000A22FFF774FF14F8011C384601F047FFC3
:104A8000EEE78B4FDFF8688226440134A64200F03F
:104A9000BA8003F04FFD14F8011C0A22FFF75FFFF4
:104AA00014F8011C384601F032FF3946404601F047
:104AB000C4FEEAE77E4FDFF8148226440134A642A2
:104AC0002DD014F8011C384601F021FF394640462C
:104AD00001F0B3FE03F02EFD14F8011C0A22FFF7CB
:104AE0003EFFEBE7382101FB03A10431744801F0DC
:104AF000BBFE03F01FFDA1680A22FFF71FFF7049EC
:104B00007048002202F00AFB6F4900226D4802F053
:104B10000AFB2B6801332B6015B0BDE8F08F6B4E9C
:104B200003F008FD316803F006FA03F003FDB168F5
:104B30000A22FFF703FF5D49304601F016FF0446E5
:104B4000F8B103232B605D4C04F08CFA2146002061
:104B5000FFF7F4FA5E495B48002202F0E4FA2168AC
:104B60004C1C0BD00A2201A801F090FE55480022EF
:104B700001A902F0D3FA01A801F0E3FD5549002292
:104B8000C4E75549304601F0F0FE0246002838D00F
:104B90005248234640682246214601F019FB2C600A
:104BA0004F4948484F4E464CDFF81881DFF8549182
:104BB000002202F0B8FA4C494848052204F004F9F2
:104BC0004949306000278A463368013BBB4201F106
:104BD000380B87DD0431204601F046FE03F0AAFCC5
:104BE000A1680A22FFF7AAFE00222146404602F0F1
:104BF00095FA49460022404602F095FA0137594697
:104C0000E2E73A4982E73A4C03F094FC216803F06A
:104C100092F903F08FFCA1680A22FFF78FFE2B4B5D
:104C20002668D3F80080B8F1000F6DD0404605F03B
:104C30002DF90746002E69D0304605F027F90446C5
:104C40003822002106A805F0E3F84C23CDE901380D
:104C5000224805940323ADF81830002301AA194611
:104C60004068CDE9037601F0ABFA03F063FC21491B
:104C7000044601A801F0B0FD144901A801F054FE5A
:104C80001D4901F05DFE1A4901F04EFE1B4901F07D
:104C900057FE0168204603F04EF901A801F051FDCE
:104CA0001749002232E700BFC8DF032085A10D00AD
:104CB000ECE30320F0DE0320ECDE0320CCDF032056
:104CC0002CE4032008E60320BBA00D00E0E5032050
:104CD00000A10D0013A10D0039A10D00BCE70320B8
:104CE0008FA00D003CE4032040E403203FA10D0011
:104CF00058E5032059A10D0077A10D0083A10D00F7
:104D000086A10D00B8A00D00474693E7344697E70B
:104D100089498A4801F029FE00283FF414AF884CE5
:104D200000226068114601F043FA00283FF40BAFFF
:104D300000F05CFF834E30602046FFF729FA002325
:104D400060681A46194601F0F3F947F2305700221D
:104D50001146606801F0F4F9024608B300F046FF1E
:104D600033683B448342F2D8774B00221A7003F039
:104D7000E1FB764903F0DFF803F0DCFB044600F0CA
:104D800035FF0A220146204603F0DFF8204603F0F3
:104D9000C6F803F0CFFB31680A22FFF709FB05E0F4
:104DA0000146606801F0DCF90028D7D0664E6448FF
:104DB000FFF7F4F934782CB165496648002202F017
:104DC000B2F9C0E664496348224602F0ACF9012317
:104DD0002C603370E4E66149584801F0C6FD044692
:104DE00058B904F03FF95E490422204600F016FF4E
:104DF00003F0A0FB5B4903F09EF804F033F9584937
:104E0000594C0020FFF79AF903F094FB3B6857498F
:104E1000194403F090F804F025F921466420FFF7C7
:104E20008DF953494B48002202F07DF92168481C56
:104E30000BD00A2201A801F029FD4648002201A951
:104E400002F06CF901A801F07CFC4A4900225DE601
:104E500042493A4801F089FD28B104F003F942497A
:104E60006420FFF76BF904F0FDF804223E4964204A
:104E700000F0D4FE04F0F6F83B496420FFF75EF939
:104E80003D4B1A7D0AB102221A7239683B4C3A48EE
:104E90004639FFF789F903F04DFB0A223968FFF71D
:104EA00087FA04F0DFF82146C820FFF747F900220F
:104EB0003349284802F037F923685A1C0FD00A22D8
:104EC0004FF47A7101A893FBF1F101F0DFFC214866
:104ED000002201A902F022F901A801F032FC2949BF
:104EE000002213E61D49154801F03FFD28B104F0EA
:104EF000B9F82249C820FFF721F904F0B3F80422D9
:104F00001E49C82000F08AFE04F0ACF81B49C820F6
:104F1000FFF714F91C4B3A681A6003F00BFB396871
:104F20000A22FFF745FA194B0122002107201A70C7
:104F300004F06BF8EDE500BFBAA10D00ECE303202F
:104F4000BCE70320FCE50320F4DE0320BFA10D0035
:104F5000C7A10D0008E60320D1A10D0085A10D0019
:104F6000CCDF0320F1A10D00ECDE0320FEA10D003B
:104F700005A20D0036A20D00B0DF0320F0DE0320F5
:104F80008BA20D00BCA20D0020E60320ACDF0320A5
:104F900010B52C21044604F0C0F8204610BD0000D6
:104FA00070B56A4D6A4BAB60002490B02C60AC8049
:104FB000AC71032001F086F8664A6749284604F080
:104FC000A7F866496648674D01F006FC614A6649E4
:104FD000634804F09DF86149644801F0FDFB5D4AB7
:104FE0006149624804F094F85C49614801F0F4FBBF
:104FF000584A5D495E4804F08BF858495D4801F015
:10500000EBFB544A58495B4804F082F85A4800F0D8
:105010000FF9504A5949584804F07AF85848594904
:10502000A0F809400346021D43F8092B9C70012398
:105030000375554B4360474A0472C0E9034404F0CA
:1050400067F8524800F043FB424A51494F4804F088
:105050005FF842494F4801F0BFFB4F4803F0BAF9EF
:105060003E494E4801F0B8FB3C494D4801F0B4FBC5
:10507000384A4C49474804F04BF838494A4801F04F
:10508000ABFB344A49494A4804F042F849494A4886
:1050900001F066FF49494A4801F062FF49494A4820
:1050A00001F05EFF102348498DF8143006A801F086
:1050B00071FE41490BA801F06DFE0BABCDE9014437
:1050C0004249009305AA06AB4148FFF74FF9214A30
:1050D00040493F4804F01CF8042339498DF8143046
:1050E00006A801F057FE34490BA801F053FE3A4BD5
:1050F00001930BAB39490294009305AA06AB3848DB
:10510000FFF734F9134A3349354804F001F81349DD
:10511000344801F061FB0F4A1349324803F0F8FFAD
:1051200005243826281D3422002104F071FE013C9C
:1051300045F8386BF6D109492B4801F04DFB054A7B
:105140000949294803F0E4FF10B070BD64DF032073
:105150000000FFFF60DF032081410D0085A10D00ED
:1051600068E5032040E4032043670D0010E60320B8
:10517000E0E5032058E5032000E40320B3400D00E0
:10518000B0DF032025410D0010000300D0DF032015
:105190004D410D0078E5032088E50320A0E50320BC
:1051A000B4E50320C3400D00C8E50320B5400D0061
:1051B000C4E503200DA30D0070DF032032A30D0012
:1051C00084DF032057A30D0098DF03207CA30D008C
:1051D00008E6032073740D0081490D007FA30D00C4
:1051E000D8E50320ECE303202CE403207047000003
:1051F0000B4610B5282204460021184604F008FE8C
:1052000008490B2204F04AFE00220121C272C1604B
:105210000346A0695A62C3E9040100229A61DA6177
:105220001A6210BDCDA30D000368C9B29B68184770
:10523000064A02604FF0FF3282614277C283FF224A
:1052400080F8202008224262704700BFDCA30D00D6
:1052500013B50B4C2178BFF35B8F11F001010BD11B
:1052600020460191FEF71DFF019928B1054801F084
:105270007BF82046FEF71AFF024802B010BD00BFBF
:1052800030E6032034E603202DE9F04190F9203088
:10529000013305460F4606D1FFF7DAFF3946BDE870
:1052A000F04101F0EBB8002407264FF0010895F912
:1052B0002000002180B203F0A8FE95F91E0008FA34
:1052C00006F1394080B203F0A0FE95F920000121DB
:1052D00080B203F09AFE95F91F00640080B2E4B238
:1052E00003F0ACFE08B144F00104013EDFD22046D9
:1052F000BDE8F08108B5FFF7ABFF012101F04FF8E1
:10530000FFF7A6FF0549012201F086F8FFF7A0FF8D
:10531000BDE80840002101F055B800BF20A10700FA
:1053200070B590F91D30013304460E46154616D16E
:1053300003F0C6FE217F03F019FA03F0C1FE0368F3
:1053400031469B68984703F0BBFE036829469B687B
:10535000984703F0B5FEBDE8704003F012BA90F92B
:105360002030013301D1FFF7C5FF94F91D00002162
:1053700080B203F04AFE06F07F012046FFF784FF6B
:1053800029462046FFF780FF94F91D000121BDE862
:10539000704080B203F039BE38B590F91D3001334A
:1053A00004460D461DD103F08BFE94F91C1003F04A
:1053B000E1F903F085FE036829469B68984703F0EE
:1053C0007FFE03F0DEF903F07BFE217F012203F074
:1053D000CAF903F075FE03685B699847C5B22846B1
:1053E00038BD90F92030013301D1FFF783FF94F9E4
:1053F0001D00002180B203F008FE45F08001204628
:10540000FFF742FF00212046FFF73EFF054694F9D3
:105410001D00012180B203F0F8FDE0E738B50D462C
:1054200023210446FFF7B8FF20F0300242EA0512BC
:105430002046D2B2BDE838402321FFF771BF08B53E
:105440002321FFF7A9FFC0F3011008BD38B50D46B1
:1054500020210446FFF7A0FF00F00F0242EA0512E8
:105460002046D2B2BDE838402021FFF759BF10B521
:105470000446017790F91D00421C23D103F020FE61
:1054800003F03EF90F212046FFF786FF33283DD178
:10549000072220212046FFF743FF07212046FFF780
:1054A000D5FF882223212046FFF73AFF1022222130
:1054B0002046FFF735FF204680221F21FFF730FFEF
:1054C000012010BD012180B203F09FFD94F91D0061
:1054D000012180B203F088FD94F92000431C04D11F
:1054E000FFF7B6FE00F04AFFCCE7012180B203F0DF
:1054F0007BFD94F91E00012180B203F075FD94F943
:105500001F00002180B203F06FFDBBE70020D8E749
:1055100038B590F91D300133044676D103F0D0FD43
:1055200094F91C105C4D03F025F903F0C9FDA82186
:10553000FFF77AFE03F0C4FD03F023F903F0C0FD8A
:10554000217F062203F00FF903F0BAFD03685B69BF
:105550009847E08003F0B4FD03685B699847E388EF
:1055600005EA00201843E08003F0AAFD03685B69A8
:105570009847208103F0A4FD03685B69984723895D
:1055800005EA00201843208103F09AFD03685B6957
:105590009847608103F094FD03685B69984705EACA
:1055A00000206589284360812046FFF748FF0328D3
:1055B00069D002286AD001286BD0002843F6FC731A
:1055C00018BF012307EE903AB4F9063007EE103AFF
:1055D000F8EEE77AB8EEC77AB4F90830C7EE276A72
:1055E00007EE103AB8EEC77AC4ED036AC7EE276A31
:1055F000B4F90A3007EE103AB8EEC77AC4ED046A7F
:10560000C7EE276AC4ED056A38BD90F92030013332
:1056100001D1FFF76FFE94F91D00002180B203F065
:10562000F4FCE8212046FFF72FFEFF212046FFF77C
:105630002BFEFF21E0802046FFF726FEE38843EAA9
:105640000020E080FF212046FFF71EFEFF21208181
:105650002046FFF719FE238943EA00202081FF211D
:105660002046FFF711FEFF2160812046FFF70CFE68
:10567000638943EA0020608194F91D00012180B212
:1056800003F0C3FC90E74FF400639BE74FF48053B3
:1056900098E741F6FE7395E700FFFF000C460546CC
:1056A00008B520220021201D04F0B2FB2423236032
:1056B000AB6963600123A360002323612846FFF7E1
:1056C00027FFEB6863612B69A3616B69E36110B528
:1056D000044603F0A7FA204610BD0000F8B50F4FAE
:1056E000054614460E4602F00DFC3946284602F0E7
:1056F00009FC2146284602F01EFC02F01BFF314641
:1057000002F000FC02F016FF394602F0FBFB02F04B
:1057100011FF2146BDE8F84002F00DBC36A10D0096
:1057200010B50C4602F007FC02F004FF2146BDE86C
:10573000104002F000BC0000F8B5104F05461446BA
:105740000E4602F0DFFB3946284602F0DBFB0A2258
:1057500021462846FEF72CFE02F0ECFE314602F010
:10576000D1FB02F0E7FE394602F0CCFB02F0E2FE8C
:105770000A222146FEF71CFEF8BD00BF36A10D002F
:105780002DE9F04F0E4691B01F464FF0FF331360E6
:10579000044600213046DDF86880914601F0E5F8C6
:1057A000D6F838E0034600286ED1BEF1000F14BFD2
:1057B00072465022316892B2204603F047FA051E25
:1057C00018BF0125002D7ED00021304601F0CDF814
:1057D00000286CD102F0AEFEBB4902F093FB02F050
:1057E000A9FE316802F08EFB02F0A4FEB74902F078
:1057F00089FB02F09FFE0A22B16BFEF7D9FD4146FC
:10580000204602F07FFBB249204602F07BFBB16AE2
:10581000204602F077FBAF49204602F073FB02F00E
:1058200089FEAD4902F087FB02F084FE414602F09A
:1058300069FB02F07FFEA64902F064FB02F07AFEEB
:10584000B16A02F05FFB02F075FEA24902F05AFB5A
:10585000A249A34A2046FFF741FF0021304601F04C
:1058600084F820B932689F492046FFF737FF06F1D8
:105870003C0A0021504601F078F878BB726C9A49D6
:105880002046FFF759FF30E0984B0A9306F1140CBD
:10589000BCE80F000BAD0FC5DCF800302B701FFA11
:1058A0008EF200230AA9204603F09DF887E702F054
:1058B00041FE8F4902F026FB02F03CFE06F110018A
:1058C00002F027FB90E702F035FE8A4902F033FB35
:1058D000204603F05DF911B0BDE8F08F86494046DF
:1058E00004F0C2FA02460028C9D05FB1396849B154
:1058F0007A6820461AB1FFF7F1FE0837F6E7FFF79E
:105900000FFFFAE7204602F00AFB204602F05EFF96
:105910000021504601F029F840B9F16B204602F011
:105920000AFB02F007FEF16B02F005FB02F002FE3B
:1059300004F11C0A714902F0FEFA4FF48062002162
:10594000504604F065FA00F051F9009000F04EF96D
:1059500000270190204603F0C1F80646B0B102F0DE
:10596000E9FD674902F0CEFA02F0E4FD002E83461D
:1059700027DA2D2102F0CAFA71420A22584602F0B3
:10598000E4FA02F0D7FD5F4902F0D5FA4FF0000BC0
:10599000204603F0A3F838B3204602F0D8FF5FFAA0
:1059A00080F802F0C7FD414602F0B0FA00F01EF99F
:1059B00040F2FE339F42009005D80AF80780013775
:1059C000E6E73146D9E740F2FF339F42F7D10023A3
:1059D00084F81B34204603F0DBF802F0ABFD4A49A3
:1059E00002F0A9FAAB46EAE7E319187726B102F00C
:1059F000A1FD464902F086FA00F0F8F8009BC61AAD
:105A0000BBF1000F06D141F288339E4202D8C82074
:105A100002F0E8FB204602F0DAFE41F2883300286B
:105A20004AD09E424AD8BBF1000F93D002F082FDCB
:105A3000374902F067FA02F07DFD054600F0D6F81E
:105A4000019B0A22C11A284602F07FFA02F072FD79
:105A5000304902F070FA204603F09AF8514602A845
:105A600000F0BAFE0C23092202A906A800F0A2FF4A
:105A700002F060FD284902F045FA02F05BFD06994C
:105A800002F059FA25490AA800F0A6FE0AA902A8C0
:105A900000F08CFF04460AA800F053FE631C43D1BB
:105AA00002F048FD1E4902F046FA06A800F049FE41
:105AB00002A800F046FE0EE79E42B7D902F03AFD7A
:105AC000184902F038FAB1E7F0A30D004EA00D001E
:105AD00037A10D002BA40D0037A40D0060A40D000C
:105AE0005AA40D008AA40D008FA40D0028A80D0053
:105AF0000CA40D006BA40D007AA00D009EA40D0057
:105B0000BFA40D00EBA40D00F3A40D0028A50D000B
:105B100083A50D00A8A50D00ADA50D00C7A50D001E
:105B2000CCA50D004EA50D0009F104050A49284633
:105B300000F09AFE221D02A90AA800F05BFF0AA944
:105B4000284600F0E0FE0AA800F0FBFD069804F0ED
:105B500003F9C9F80000A8E785A10D0008B5024BBC
:105B60001B689B68019308BD6802030008B5024BDF
:105B70001B68DB68019308BD6802030008B5024B8F
:105B80001B689B68019308BD2C02030008B5024BFB
:105B90001B68DB68019308BD2C02030008B5024BAB
:105BA0001B681B69019308BD2C02030008B5024B5A
:105BB0001B685B69019308BD2C02030008B5024B0A
:105BC0001B685B69019308BD6C02030008B5024BBA
:105BD0001B685B68019308BD1802030008B5024BFF
:105BE0001B68DB68019308BD1802030008B5024B6F
:105BF0001B685B69019308BD1802030008B5024BDE
:105C00001B689B6A019308BD1802030008B5024B8C
:105C10001B685B6C019308BD1802030008B5024BBA
:105C20001B689B6C019308BD1802030008B5024B6A
:105C30001B689B6D019308BD1802030008B5024B59
:105C40001B685B6E019308BD1802030008B5024B88
:105C50001B689B68019308BD7802030008B5024BDE
:105C60001B68DB68019308BD7802030008B5024B8E
:105C70001B681B6D019308BD7802030008B5024B39
:105C80001B689B6D019308BD7802030008B5024BA9
:105C90001B681B6E019308BD7802030008B5034B17
:105CA0001B68D3F89830019308BD00007802030008
:105CB00008B5034B1B68D3F8A830019308BD00005A
:105CC0007802030008B5034B1B68D3F8B430019386
:105CD00008BD00007802030008B5034B1B68D3F829
:105CE000D830019308BD00007802030008B5034BCB
:105CF0001B68D3F8DC30019308BD00007802030074
:105D000008B5034B1B68D3F8E830019308BD0000C9
:105D10007802030008B5034B1B68D3F8EC300193FD
:105D200008BD00007802030008B5034B1B68D3F8D8
:105D3000F030019308BD00007802030008B5034B62
:105D40001B68D3F80031019308BD000078020300FE
:105D500008B5034B1B68D3F80431019308BD00005C
:105D60007802030008B5024B1B685B6C019308BD09
:105D70004802030008B5024B1B689B6C019308BDE9
:105D80004802030008B5024B1B68DB6C019308BD99
:105D90004802030008B5024B1B685B6D019308BD08
:105DA0004802030008B5024B1B685B69019308BDFC
:105DB0006402030008B5024B1B681B6A019308BD0F
:105DC0006402030008B5024B1B689B6A019308BD7F
:105DD0006402030008B5024B1B681B68019308BDF1
:105DE0003C02030008B5024B1B68DB68019308BD49
:105DF0003C02030008B5024B1B681B69019308BDF8
:105E00003C02030008B5024B1B685B69019308BDA7
:105E10003C02030008B5024B1B689B69019308BD57
:105E20003C02030008B5024B1B68DB69019308BD07
:105E30003C02030008B5024B1B681B6A019308BDB6
:105E40003C02030008B5024B1B689B6A019308BD26
:105E50003C02030008B5024B1B68DB68019308BDD8
:105E60002802030008B5024B1B681B69019308BD9B
:105E70002802030008B5024B1B689B69019308BD0B
:105E80002802030008B5024B1B68DB69019308BDBB
:105E90002802030008B5024B1B681B6A019308BD6A
:105EA0002802030008B5024B1B685B6A019308BD1A
:105EB0002802030008B5024B1B689B6A019308BDCA
:105EC0002802030008B5024B1B68DB6A019308BD7A
:105ED0002802030008B5024B1B681B6B019308BD29
:105EE0002802030008B5024B1B685B6B019308BDD9
:105EF0002802030008B5024B1B681B6C019308BD08
:105F00002802030008B5024B1B681B6D019308BDF6
:105F10002802030008B5024B1B689B69019308BD6A
:105F20003802030008B5024B1B68DB69019308BD0A
:105F30003802030008B5024B1B681B6A019308BDB9
:105F40003802030008B5024B1B689B6A019308BD29
:105F50003802030008B5024B1B681B6B019308BD98
:105F60003802030008B5024B1B689B6B019308BD08
:105F70003802030008B5024B1B681B68019308BD7B
:105F80003002030008B5024B1B689B68019308BDF3
:105F90003002030008B5024B1B68DB68019308BDA3
:105FA0003002030008B5024B1B681B69019308BD52
:105FB0003002030008B5024B1B685B69019308BD02
:105FC0003002030008B5024B1B68DB69019308BD72
:105FD0003002030008B5024B1B681B6A019308BD21
:105FE0003002030008B5024B1B685B6A019308BDD1
:105FF0003002030008B5024B1B681B6C019308BDFF
:106000003002030008B5024B1B685B6C019308BDAE
:106010003002030008B5024B1B681B68019308BDE2
:106020004C02030008B5024B1B685B68019308BD76
:106030004C02030008B5024B1B681B69019308BDA5
:106040004C02030008B5024B1B685B69019308BD55
:106050004C02030008B5024B1B689B69019308BD05
:106060004C02030008B5024B1B68DB69019308BDB5
:106070004C02030008B5024B1B681B6A019308BD64
:106080004C02030008B5024B1B681B6E019308BD50
:106090007402030008B5024B1B685B6B019308BDDB
:1060A0006002030008B5024B1B681B6D019308BD1D
:1060B0006002030008B5024B1B681B68019308BD12
:1060C0002002030008B5024B1B685B68019308BD02
:1060D0002002030008B5024B1B685B69019308BDF1
:1060E0002002030008B5024B1B689B6D019308BD9D
:1060F0002002030008B5034B1B68D3F888300193D6
:1061000008BD00002002030008B5034B1B68D3F84C
:106110009430019308BD00002002030008B5034B32
:106120001B68D3F8A830019308BD000020020300CB
:1061300008B5024B1B685B68019308BD4002030071
:1061400008B5024B1B689B68019308BD4002030021
:1061500008B5024B1B68DB68019308BD40020300D1
:1061600008B5024B1B681B69019308BD4002030080
:1061700008B5024B1B685B69019308BD4002030030
:1061800008B5024B1B689B69019308BD40020300E0
:1061900008B5024B1B68DB69019308BD4002030090
:1061A00008B5024B1B681B6A019308BD400203003F
:1061B00008B5024B1B685B6A019308BD40020300EF
:1061C00008B5024B1B689B6A019308BD400203009F
:1061D00008B5024B1B68DB6A019308BD400203004F
:1061E00008B5024B1B681B6B019308BD40020300FE
:1061F00008B5024B1B685B6B019308BD40020300AE
:1062000008B5024B1B681B6C019308BD40020300DC
:1062100008B5024B1B685B6C019308BD400203008C
:1062200008B5024B1B689B68019308BD440203003C
:1062300008B5024B1B68DB68019308BD44020300EC
:1062400008B5024B1B685B69019308BD440203005B
:1062500008B5024B1B681B6B019308BD4402030089
:1062600008B5024B1B68DB6B019308BD44020300B9
:1062700008B5024B1B685B6C019308BD4402030028
:1062800008B5024B1B681B68019308BD1C02030084
:1062900008B5024B1B685B68019308BD1C02030034
:1062A00008B5024B1B689B68019308BD1C020300E4
:1062B00008B5024B1B68DB6A019308BD1C02030092
:1062C00008B5024B1B68DB6B019308BD1C02030081
:1062D00008B5024B1B685B6C019308BD1C020300F0
:1062E000002240681146FFF75BBF0022406811465C
:1062F000FFF77EBF40680022FFF772BF40680022B0
:1063000081F00101FFF744BF002340681A46194697
:10631000FFF736BF002340681A461946FFF728BF2B
:10632000002240681146FFF71BBF0022406811465B
:10633000FFF706BF406800220221FFF709BF0023D4
:1063400040681A46FFF7F4BE024B03225A60024A25
:106350001A6070473CE6032008A60D000021FFF7F5
:1063600049BE0021FFF74EBE10B504460846217015
:10637000FFF728FE00236360204610BD10B50446D9
:106380000078FFF7EBFF48B920784FF6FF71FFF771
:10639000F1FD2078BDE81040FFF7E3BF10BD13B555
:1063A000044600780191FFF7D9FF019940B92078A0
:1063B000FFF7E8FD207802B0BDE81040FFF7D1BF3D
:1063C00002B010BD13B5044600780191FFF7C6FF77
:1063D000019940B92078FFF7DDFD207802B0BDE8D3
:1063E0001040FFF7BEBF02B010BD0000400830B53E
:1063F0001860002418688842E5B206D90134082CD8
:1064000002D040081860F5E70725024B5B5D13706A
:1064100030BD00BF3CA60D002DE9F04188B000233F
:106420000446007802930E461746FFF797FF05468D
:1064300000BB94F800800146142203A803F0E8FC96
:106440000B232A4603A94046ADF80C30FFF7CAFDDE
:1064500004988DF8075002AB0DF1070207FB06F117
:10646000FFF7C4FF20789DF80710FFF79BFD207809
:10647000FFF777FF029808B0BDE8F08108B5007813
:10648000FFF798FDC0B208BD10B50446006818B10A
:10649000FFF7FEFE0023236010BD38B5B1F90430CC
:1064A00083800B460D4653F8062FC0F806209B88C4
:1064B00043810446FFF7E8FF2B6813B123600023F4
:1064C0002B60204638BD000038B50C460546FFF766
:1064D000DBFF44B12088FFF7D3FE286028B1228873
:1064E000214603F06DFC002038BD0148FCE700BFE9
:1064F000FCFEFFFFF0B52D4D0B7D04468BB008462A
:10650000AF1D002B38D00B681B79002B34D0002234
:10651000274B049302A904300292ADF80C208DF8A9
:106520000E20FFF7FBFDDDF80E30C5F8063000B297
:10653000BDF81230ADF80C00A8800299BB80284647
:10654000FFF7C2FF02A8FFF79FFF00232360A3808D
:10655000A37123814FF6FF736381B5F90430A380E3
:106560003B68C4F80630BB88296863812046FFF782
:10657000ABFF20460BB0F0BD00262023CDE902364C
:106580000C4B00930C49334602AA3220FFF78AFDD8
:10659000074B049302A94FF6F263044802968DF864
:1065A0000E60ADF80C30FFF778FFCBE744E6032030
:1065B0000000FFFF4BA60D0044A60D0010B5094BCF
:1065C000094C022200201A60084B2060A080A071B4
:1065D000A360FFF777FD2046054A0649BDE8104055
:1065E00002F096BD50E6032044E603200000FFFFC2
:1065F00060DF032081410D0010B5044603F046FC26
:10660000013823182046834206D90278197800F809
:10661000011B03F80129F6E710BD2DE9F041931E97
:106620008CB0222B4FF000030D4614468DF82C3011
:1066300027D900282ADA2E462D2306F8013B4042AE
:106640000A240DF12B074FF001082246014601A84C
:1066500003F094FB029B0198092BCCBF3722302218
:1066600052FA83F307F8013908F101080028ECD148
:106670004246791C304603F0A3FB28460CB0BDE827
:10668000F0810A2AD5D018B12E46DAE70A24FAE7B3
:1066900030238DF82B302E460DF12A074FF00208DB
:1066A000E6E770B50C46911E2229054622D8204601
:1066B0006DB1B5FBF2F602FB1655E9B2092D94BF98
:1066C00030315731C9B200F8011B3546F0E70246B8
:1066D00023443021934202D902F8011BFAE71A1A27
:1066E000834238BF0022002383542046FFF784FFF3
:1066F000204670BD0020FCE738B5031E0C46154649
:106700000EDAB3F1004F4FF02D0214BF5842184675
:1067100001230A702A461944FFF7C3FF204638BDFB
:106720000123F9E770B586B0064601AD684601F071
:1067300095FE0FCD341D0FC42B682370304606B074
:1067400070BD10B504460068FFF7A2FD204610BDDD
:1067500010B50446006808B1FFF79AFD0023C4E9AC
:106760000133236010BD38B504460D460068013181
:10677000FFF796FD10B1C4E90005012038BD10B542
:106780000368044623B143688B4201D3012010BD46
:106790002046FFF7E8FF0028F9D0A368002BF5D1C9
:1067A00022681370F2E737B50D4611460192044690
:1067B000FFF7E5FF019A28B92046FFF7C9FF2046F9
:1067C00003B030BDA2602946206803F0F9FA2268C0
:1067D000A3680021D154F2E7002313B5C0E90033C8
:1067E00004468360037341B10846019103F04EFBF8
:1067F000019902462046FFF7D6FF204602B010BDA1
:1068000038B5054600680C4668B16A688B689A42DC
:1068100007D3096803F032FBA368AB600023A360D1
:1068200038BDFFF735FD23682B6063686B60A36894
:10683000AB600023C4E90033F1E7884210B5044699
:1068400005D00B682BB18A681946FFF7ACFF2046CC
:1068500010BDFFF77DFFFAE7884210B5044601D06E
:10686000FFF7CEFF204610BD13B5044659B10846C8
:10687000019103F00BFB019902462046FFF793FFBD
:10688000204602B010BDFFF763FFF9E710B50446DC
:106890008AB00023C4E90033A3602373084601A92A
:1068A000FFF72AFF01A92046FFF7DEFF20460AB0C6
:1068B00010BD10B504468AB00023C4E90033A360BC
:1068C0002373084601A9FFF7A8FE01A92046FFF798
:1068D000CBFF20460AB010BD70B505460E4609B97B
:1068E000002070BD6AB1846814442146FFF747FF59
:1068F0000028F5D02868AB683146184403F0BEFA8A
:10690000AC600120EDE78A680968FFF7E5BF07B5CD
:1069100000238DF80410012201A98DF80530FFF73E
:10692000DBFF03B05DF804FB10B58A680968044614
:10693000FFF7D2FF10B92046FFF70AFF204610BD2F
:1069400013B5044629B92046FFF702FF204602B0DE
:1069500010BD0846019103F099FA019902462046BC
:10696000FFF7BAFF0028EED0F0E708B582683AB921
:1069700021B10878B0FA80F0400900E0012008BD9C
:10698000006809B90078F5E703F06EFAF2E710B590
:106990008368934207D904680968A01803F09EFA37
:1069A00008B1001B10BD4FF0FF30FBE70022FFF7DE
:1069B000EEBF0000F8B59A420F461D460C4988BF4D
:1069C00013461446064684BF2C461D46FFF704FFB7
:1069D000BA68A2420AD33968AA4294BFC4EB020241
:1069E000C4EB050221443046FFF7DDFE3046F8BD1A
:1069F00085A10D0010B504468B68FFF7DBFF20462C
:106A000010BD38B504460846A3688B4211D982B13F
:106A100011448B4238BF1A1A2568991A1318A160BD
:106A20000A1AE918284403F0D9F92268A36800215A
:106A3000D154204638BD8268521AFFF7E2BF704732
:106A40007047704770470000064B994210B500F13F
:106A50000C0405D0084602F069FB002808BF00249A
:106A6000204610BDBCA70D00064B994210B500F1A1
:106A70000C0405D0084602F059FB002808BF00248A
:106A8000204610BDBCA70D00064B994210B500F181
:106A90000C0405D0084602F049FB002808BF00247A
:106AA000204610BDBCA70D0010B56821044602F0B9
:106AB00034FB204610BD10B52821044602F02DFB02
:106AC000204610BD10B53021044602F026FB2046BA
:106AD00010BDFDF7E4BAFDF7E2BAFDF7E0BA10B574
:106AE000036804469B689847A368013BA3602BB9E1
:106AF00023682046DB68BDE81040184710BD10B57C
:106B00000446006808B1FFF735F9204610BD0000C3
:106B100010B5044B04461868FFF734F901232370BD
:106B200010BD00BF5CE6032010B5044B0446186896
:106B3000FFF730F90023237010BD00BF5CE603208F
:106B4000F0B50025EC1C8C420DD86E1C445D875DB1
:106B5000974205D12644B14205D31D60601CF0BDAB
:106B600001342544EEE70020F9E72DE9F347044618
:106B70009DF828701E46894601AB90460A46016A78
:106B8000FFF7DEFF256AB31C17BB08B35F193F1A76
:106B90001F2F19D8DDF8049009F1020AA5EB0902AC
:106BA000121A00EB090106EB0A0092B221442044BC
:106BB00003F014F9731C04F809303246414604EB23
:106BC0000A0003F0FDF82762206A02B0BDE8F087F2
:106BD0002B441F2BF8D8731C6355A81C2544206236
:106BE000324685F801904146204403F0E9F8236AD3
:106BF00033442362E8E70000024A00210A20FFF73D
:106C000049BA00BFDD5B0D00022A38B5044607D043
:106C1000032A11D0012A01D10B682360002038BD5E
:106C200008200D68FDF737FA03460028F5D095E8EF
:106C3000030083E80300F0E700680028EED0082195
:106C400002F06BFAEAE7022A38B5044607D0032AB5
:106C500011D0012A01D10B682360002038BD082023
:106C60000D68FDF718FA03460028F5D095E80300F3
:106C700083E80300F0E700680028EED0082102F066
:106C80004CFAEAE730B40D4611461A460368096823
:106C90002868D3E90043A44630BC60470346084651
:106CA0001B68D3E90021104710B58368044613B16F
:106CB000032201469847204610BD10B504465830BF
:106CC000FFF7F2FF04F14800BDE81040FFF739BDBF
:106CD000A0F13003DAB2092A01D818467047A0F1B2
:106CE0006103052B01D857387047A0F14103052BEC
:106CF00094BF37384FF0FF30704710B5002304467B
:106D00000370FFF705FF204610BD10B50378044659
:106D10000BB1FFF709FF204610BD82B0034608689B
:106D200049686A4603C26A4603CA18601846596031
:106D300002B0704708B582798B799A4206D1062253
:106D400003F030F8B0FA80F0400908BD0020FCE7FD
:106D50004FF0FF330360838000207047002108B5A7
:106D6000016041600246FFF7F3FF9171104608BDD4
:106D700001220261064A116801605168416011896F
:106D8000927A827200220181C0F80B20C273704790
:106D9000C4A70D0010B50B69036101F11002034691
:106DA00051F8044B43F8044B9142F9D110BD10B592
:106DB0000B460446B1B1012A01F110020AD1014685
:106DC00053F8040B41F8040B9342F9D101232361DA
:106DD000204610BD411E12F8010D01F8010F9A4224
:106DE000F9D1F3E7102203F013F8F1E738B50446C0
:106DF00015461A46FFF7DBFFA581204638BD000087
:106E000008B5026922B98089003818BF012008BD81
:106E10000249102202F0C6FFF6E700BFE4A70D000A
:106E20000069704738B50C4614220021054602F06F
:106E3000EFFF23693BB9627B2B74237B43EA022378
:106E40002B80284638BD01232B7404F110022B46F9
:106E500054F8041B43F8041B9442F9D1F1E7427B38
:106E6000007B40EA02207047704708B502690B6951
:106E70009A4206D1102202F095FFB0FA80F0400944
:106E800008BD0020FCE7000001232DE9F341036168
:106E9000324B1A6802605A68426000251A899B7A50
:106EA000028104468372C0F80B50C5730E4621B3AD
:106EB0002421304603F005F8042821D1ADF8045010
:106EC00001AFB51C063615F8020CFFF701FFB0F153
:106ED000000810DB15F8010CFFF7FAFE00280ADBAA
:106EE000023540EA0810AE4207F8010BEBD1BDF8BD
:106EF00004305BBAA3810023236102B0BDE8F081B6
:106F000010272421304602F0DCFFA84206D827448F
:106F10000023BC42F1D007F8013DFAE7002FECD086
:106F2000705DFFF7D5FE030615D40001013F5FFA3F
:106F300080F804F807802421304602F0C2FF0135B2
:106F4000A84208D9705DFFF7C3FE40B20028A4BF75
:106F500040EA0800E0550135D3E700BFC4A70D00A3
:106F600013B504460191FFF703FF20460199FFF78F
:106F70008BFF204602B010BD30B49DF8085012B906
:106F8000006A30BC7047029530BCFFF7EEBD1FB5FC
:106F90000446024600F11F01002302F8013B914222
:106FA000FBD123620093062201238DF80F2019469E
:106FB0000DF10F022046FFF7DFFF204604B010BDA1
:106FC00073B50A460E4601AB016A0446FFF7B8FDE9
:106FD000054678B10198226A4119121A2144521BC0
:106FE000204402F0EDFE206A401B2062314620461C
:106FF000FFF7E6FF02B070BD38B54FF6FF7300250E
:10700000044643800E22294605700571063002F0C1
:10701000FFFE04F11400FFF7ABFE04F12800FFF7B8
:10702000A7FE044904F13C00FFF7D6FB6565204646
:1070300038BD00BF85A10D0010B5D0E9063203EBC5
:10704000C2029342184606D0046824888C4203F199
:107050000803F6D110BD0020FCE70000F0B506469D
:1070600085B01F460D46002950D0002A4ED0046836
:107070002378F42A28BFF42243B32379980709D54B
:10708000A08903920023FEF71DFE0028039A03DA6D
:1070900005B0F0BD6FF0770034682379D90609D5C3
:1070A000012F07D0A0890023294605B0BDE8F04094
:1070B000FEF744BE9B06EBD5022FE9D0A089002342
:1070C000294605B0BDE8F040FEF742BE60884FF6A5
:1070D000FF7188421CD021794E0701D5012F04D1C0
:1070E0000B0709D46FF07700D2E7A189009313460C
:1070F0002A46FEF7FBFDCBE7022FF3D00023A18940
:10710000009313462A46FEF7E7FDC1E70248BFE7B2
:107110006FF0D100BCE700BFF2FEFFFF13468A68A4
:107120000968FFF79BBF37B50C460546F42120469A
:10713000019202F0C6FE019B02462146284603B09A
:10714000BDE83040FFF78ABF2DE9F0410026066018
:10715000074628200C46FCF79EFF051E05F10C088B
:107160000FD00123C5E90133084B2B604046FFF7E0
:10717000FFFD0FCC2E6285F8246046460FC62368BB
:107180003360C7E900853846BDE8F0818CA70D0063
:1071900070B50025056006463020FCF77CFF0446EC
:1071A00088B10123C0E90133094B03604FF6FF7337
:1071B00083810E30FFF7D2FDC4E90655C4E90855B6
:1071C000C4E90A55A57574600C343460304670BD4E
:1071D000A8A70D0037B50D46044601A8FFF78DFDA1
:1071E0002A6852F8023F23605368636001A8FFF7E2
:1071F0008CFD204603B030BD30B5054687B00C4647
:1072000001A8FFF77AFD2A68236812881B889A4232
:107210000DD1294602A8FFF7DDFF214604A8FFF79C
:10722000D9FF04A902A8FFF785FD044600B9002490
:1072300001A8FFF76AFD204607B030BD10B504462F
:107240005420FCF728FF014660B10023C0E9003359
:10725000C0E90233C0E90433C0E906330362C36204
:10726000C363C364216019B9094A0A20FEF712FFFB
:107270000020FEF7EBFC20B1054A00210A20FEF7B2
:1072800009FF216803480022FEF74EFD204610BD8D
:10729000DD5B0D001D770D0010B50B4C2378BFF39F
:1072A0005B8FDB070ED42046FCF7FBFE50B107488E
:1072B000FFF7C4FF2046FCF7F9FE054A05490348DD
:1072C00001F026FF014810BD54E6032060E60320CC
:1072D00060DF0320DD740D0030B50368093B012B2E
:1072E0008DB004460D4611D8FFF7D6FFA18800687F
:1072F000FFF7A2FE034658B92022CDE904200B4A2D
:1073000000920B4904AA3220FEF7CCFE0DB030BD2E
:107310006A6D002AFAD0D4E9032105F14C00CDE9C9
:107320000312AC6D04AA03A9A047EFE799A60D00CC
:1073300072A60D0008B50020FEF788FC00EAE07098
:1073400008BD084611B90A46FEF790BC096A00223A
:10735000FAE707B5084629B90A4603B05DF804EB19
:10736000FEF78CBC01210190FFF72AFE0198002254
:10737000016AF2E738B504461546FFF7E2FF002838
:107380000ADB29462046FFF7E4FF002804DBBDE8BE
:1073900038400020FEF77ABC38BD0368D869002861
:1073A000D4BF00200120704738B500230446836015
:1073B00008200D46FCF76FFE18B12B6803606B6860
:1073C0004360034BE360034B2060A360204638BD5D
:1073D000856C0D00096C0D0038B5002304468360F0
:1073E00008200D46FCF757FE18B12B6803606B6848
:1073F0004360034BE360034B2060A360204638BD2D
:107400009D6C0D00476C0D000B68036013B15A684A
:1074100001325A60704710B551F8043B044640F8F9
:10742000043BFFF7F1FF23680BB9FFF7E5FB2046AC
:1074300010BD10B551F8043B044640F8043BFFF77B
:10744000E3FF204610BD10B551F8043B044640F858
:10745000043BFFF7D9FF204610BD10B50446006875
:1074600028B14368013B43600BB9FFF738FB204666
:1074700010BD10B504460430FFF7EFFF204610BDE5
:1074800070B5D0E90053044605EBC306AE4204D004
:10749000281DFFF7E2FF0835F8E72068FEF7F8FE41
:1074A000204670BD70B5D0E90053044605EBC30615
:1074B000AE4204D0281DFFF7D0FF0835F8E720685A
:1074C000FEF7E6FE204670BD10B504462430FFF7F7
:1074D000E9FF04F11800FFF7D3FF10BDF8B5046809
:1074E000064624B304F14400FFF7DEFB04F1340048
:1074F000FFF7DAFB04F12400FFF7D6FBD4E90653CB
:1075000005EBC307AF4204D0281DFFF7A6FF0835DF
:10751000F8E7A069FEF7BCFE04F10C00FFF7C2FF1C
:107520002046FFF7ADFF5421204601F0F6FD30461E
:10753000F8BD826810B50AB901F0F5FDBDE810404C
:10754000C368184770B5D0E90053044605EBC3067D
:10755000AE4204D0281DFFF780FF0835F8E700236E
:10756000636070BD13B504460020FEF777FB00286A
:107570000ADB01A8FFF7C1FB20681830FFF7E2FF24
:1075800001A8FFF7C2FB002002B010BD8842F8B589
:1075900004460D46164614D9904213D2A2F10806AD
:1075A000751AA1F108072C44B74218D01CB1314616
:1075B0002046FFF748FF301DFFF74FFF083E083C0D
:1075C000F2E70CD0B5420AD01CB129462046FFF79D
:1075D0003AFF281DFFF741FF08350834F2E7F8BDF0
:1075E0002DE9F041D0E900430546884604EBC30786
:1075F000A74203D100263046BDE8F081414620462F
:10760000FFF7FAFD064608B90834F1E7002CF1D07F
:10761000201DFFF722FFD5E9003204F1080103EB3A
:10762000C2022046FFF7B2FF6B68013B6B60E2E7E6
:10763000F0B507468BB06846FFF75FFB3B68D3E9C0
:10764000064504EBC505AC422BD02422002101A83D
:1076500002F0DEFB23680022188801A9FEF750FB28
:10766000064608B10834EEE79DF80830012BF9D141
:107670006846FFF759FA236831461888FEF70EFB73
:10768000051E08DB6846FFF743FA386821461830C4
:10769000FFF7A6FF35466846FFF737FB28460BB0D5
:1076A000F0BD6FF0A905F6E7F7B5044646686846F1
:1076B000FFF7C9FED4E901739F4212DB0137002FA7
:1076C00029DDF800FEF7DCFD0546F0B1D4E9001233
:1076D00001EBC202FFF75AFF2068FEF7D9FD2560D3
:1076E000A7602368626803EBC60603EBC20231465B
:1076F00006F10800FFF74AFF1EB169463046FFF762
:10770000A2FE636801336360012501A8FFF7A5FEAF
:10771000284603B0F0BD0025DEE700002DE9F0416A
:1077200005468EB003A80C46FFF7E7FA2E68042E34
:107730006BD007D8032E28D003A8FFF7E6FA0EB0C7
:10774000BDE8F081A6F10C03032BF5D8A9892046EA
:10775000FFF772FC07460028EED0E36C002BEBD05D
:107760001022002107A802F053FB0D2E06978DF87A
:107770001C6040F092806B68099306230893236D88
:1077800006A904F144009847D6E704A8FFF700FDD6
:10779000049BAA891A806968049808310230FFF7AF
:1077A000BCFA04A906A8FFF74EFE06A904F11800CA
:1077B000FFF77AFF054607A8FFF74FFE2023069341
:1077C0008DB93E4B3E49009332202B4606AA0795C1
:1077D000FEF768FC049B29461888FEF75FFA05A8A7
:1077E000FFF73BFEA8E7374A00920023344907938E
:1077F00006AA0120FEF756FCE36A002BEFD004A98D
:1078000004F12400FFF795FEE9E7A9892046FFF778
:1078100013FC064600288FD00568D5E906314FF6DF
:10782000FF722A8003EBC101994203D053F8080B81
:107830004280F9E7D5E9037307EBC308B84504D0E4
:10784000381DFFF70AFE0837F8E700232B61D5E95A
:10785000067307EBC308B84504D0381DFFF7FDFDDC
:107860000837F8E70023EB61AB72E36B23B13146D5
:1078700004F13400FFF75DFE00232022CDE906234A
:10788000114A00920E4906AA0120FEF70BFC314670
:1078900004F11800FFF7A4FE4EE70F2E7FF46FAF40
:1078A0006B6809932B7A03F00102C3F340038DF850
:1078B00029308DF82820082360E700BFB1A60D000D
:1078C00072A60D00D7A60D00F4A60D0013B5002377
:1078D0000446D1E90002C1E9003323680093206027
:1078E0006368626001A80193FFF7B7FD204602B00C
:1078F00010BD13B50B460246D0E900016C4684E882
:10790000030093E8030082E8030094E8030083E89F
:10791000030002B010BD38B505460C46FFF7E9FF7D
:10792000AB68A268AA60A360EB68E268EA60E36003
:1079300038BD1FB500230446084669460293FFF789
:10794000EAFF21466846FFF7E6FF6846FFF7ACF915
:10795000204604B010BD70B50E4688B004460192B2
:107960001D46FFF749FB33780199237104F13C0070
:10797000FEF77AFF04F14C0685B10C9B029502A933
:1079800004A80393FFF710FD04A93046FFF7D1FFC9
:1079900004A8FFF789F9204608B070BD0695F3E703
:1079A0002DE9F04786B007461D466820002389462A
:1079B00092460493FCF76FFB061E06F10C081DD0DF
:1079C00001233446C6E90133154B44F8203B9AF8AD
:1079D00000308DF80C30109B00934A460F9B03A992
:1079E0004046FFF7B8FF0FCD0FC42B680E9D2360F4
:1079F0000FCD06F134040FC42B68236004A9384668
:107A0000CDE90486FFF762FF05A8FFF726FD396878
:107A100019B9044A0A20FEF73DFB06B0BDE8F0871D
:107A200070A70D00DD5B0D0038B505460C46FFF76D
:107A300060FFAB68A268AA60A360EB68E268EA60D6
:107A4000E36038BD1FB5002304460846694602932B
:107A5000FFF7EAFF21466846FFF7E6FF6846FFF7B3
:107A600023F9204604B010BD10B5046886B0243454
:107A700071B1CDE9001202A86946FFF7ADFC02A979
:107A80002046FFF7DFFF02A8FFF70EF906B010BD92
:107A90000491F4E710B5046886B0343471B1CDE9CF
:107AA000001202A86946FFF797FC02A92046FFF7DB
:107AB000C9FF02A8FFF7F8F806B010BD0491F4E77B
:107AC0008842F8B504460D46164614D9904213D2A2
:107AD000A2F10806751AA1F108072C44B74218D084
:107AE0001CB131462046FFF7A4FC301DFFF7B5FC62
:107AF000083E083CF2E70CD0B5420AD01CB129463A
:107B00002046FFF796FC281DFFF7A7FC0835083430
:107B1000F2E7F8BD70B50E1E054611DDF000FEF768
:107B2000AFFB044658B1D5E9001201EBC202FFF7E2
:107B3000C7FF2868FEF7ACFB2C60AE60012070BD6B
:107B40000024F6E773B5044645686846FFF771FC04
:107B5000D4E90113994210DA2368626803EBC50582
:107B600003EBC202294605F10800FFF7A9FF8DB912
:107B7000636801336360012606E001312046FFF7A8
:107B8000C9FF06460028E7D101A8FFF766FC30468A
:107B900002B070BD69462846FFF74BFCE8E7884213
:107BA000F8B504460D46164614D9904213D2A2F1F8
:107BB0000806751AA1F108072C44B74218D01CB169
:107BC00031462046FFF727FC301DFFF746FC083EF4
:107BD000083CF2E70CD0B5420AD01CB12946204639
:107BE000FFF719FC281DFFF738FC08350834F2E7C9
:107BF000F8BD70B50E1E054611DDF000FEF740FB26
:107C0000044658B1D5E9001201EBC202FFF7C7FFE5
:107C10002868FEF73DFB2C60AE60012070BD00249B
:107C2000F6E773B5044645686846FFF7F4FBD4E908
:107C30000113994210DA2368626803EBC50503EB70
:107C4000C202294605F10800FFF7A9FF8DB9636854
:107C500001336360012606E001312046FFF7C9FFCA
:107C600006460028E7D101A8FFF7F7FB304602B02F
:107C700070BD69462846FFF7CEFBE8E72DE9F04FD7
:107C80001746A1B080460AA80E46FFF736F83C68B2
:107C9000237953B939464046FFF7BDFB0AA8FFF7E1
:107CA00034F8404621B0BDE8F08F3368D3E9035380
:107CB00005EBC303039304F1280A04F1140B039B9F
:107CC0009D4221D0D5F80090584609F11401FFF7E4
:107CD000CCF8B8B109F128015046FFF7C6F888B1D1
:107CE0002368D9F80020534033F47F430AD120227F
:107CF000CDE915235E4A009215AA5E493220FEF7AF
:107D0000D1F9C7E70835DAE75046FFF779F860B9E7
:107D10005949012215A815ADFFF749F80FCDD446F2
:107D2000ACE80F002B68CCF800303368D3E900537F
:107D300005EBC30B5D45A94651466ED055F8080BBF
:107D4000FFF793F80028F5D004F1140A5046FFF726
:107D500057F888B9494B48491A88013292B21A80BB
:107D600015A8012315ADFFF741F80FCDD446ACE8B7
:107D70000F002B68CCF800302822002116A802F052
:107D800047F83F4B1593514604A8FFF74BF804AB57
:107D900018AA0DF1200C18685968154603C5083358
:107DA00063452A46F7D11868286023798DF8583042
:107DB000D9F800309B8AADF87430E36B1793314BE0
:107DC0000022A11D15A8CDE91E34FDF7A3FF002850
:107DD0007FF460AF01232370346839460C340DA85A
:107DE000FFF719FB20460DA9FFF71BFF04460EA85D
:107DF000FFF733FB002C7FF44DAF2023CDE90D348A
:107E0000214B00930DAA234677E739464046FFF7FA
:107E100002FB0CA8FFF721FB40E70BA8FFF794F942
:107E2000514615A8FEF7FEFF0B9A0023143215A940
:107E30000120FDF73DFF0028E7D135680BA90DA80B
:107E4000FFF7F7FA28460DA9FFF77CFE05460EA8B6
:107E5000FFF703FB002DD8D032685368126803F196
:107E60000053013B0CA802EBC309FFF7F6FA6BE7DE
:107E700013A70D0072A60D00D4A70D0058E603202D
:107E800001002C00D9720D003EA70D0010B5064C64
:107E9000002320462360FDF765FF2046034A04497E
:107EA000BDE8104001F034B95CE6032060DF032038
:107EB000FF6A0D00F8B506460D468F180024BD4236
:107EC0000CD0336815F8011B9B6830469847031E99
:107ED00001DB1C44F3E7002C08BF1C462046F8BD1C
:107EE00013B50446084659B1019101F0CFFF23684C
:107EF0000199DB680246204602B0BDE810401847F1
:107F000002B010BD08B5FFF7EBFF08BD03689B6822
:107F100018470A680B46126801461846104738B5DC
:107F20000D210546FFF7F2FF0A2104462846FFF718
:107F3000EDFF204438BD38B50546FFF7D1FF0446B4
:107F40002846FFF7ECFF204438BD30B58BB0002346
:107F50008DF82430012A98BF0A2209AC0D46B1FBE6
:107F6000F2F101FB125303F0FF03092B94BF3033EE
:107F70003733DBB2AA4204F8013DEFD92146FFF7BF
:107F8000AFFF0BB030BD00002DE9F74F55EC104BA3
:107F900006460F4610EE102A10EE100A2B46294610
:107FA00001F02CFE40B153493046FFF799FF82465D
:107FB000504603B0BDE8F08F25F000494E4B4FF01E
:107FC000FF322046494601F019FE48B94A4B4FF0AE
:107FD000FF322046494601F0F3FD08B94749E3E77F
:107FE000474B4FF060422046294601F0FDFD08B1A5
:107FF0004449D9E7444B4FF060422046294601F0FE
:10800000D5FD0028F4D1002200232046294601F0A6
:10801000CDFDD0B12D213046FFF778FF05F10043AB
:1080200082461D463949DFF8EC904FF0000B0020E6
:108030004FF000085FFA8BF39F4208D942464B4647
:1080400001F06CFC0BF1010BF4E78246EAE72246F3
:108050002B4601F083F90D46044601F00DFE8046E3
:1080600001F0B8FA02460B462046294601F074F9A1
:108070000A2204460D4630464146FFF766FF824419
:1080800027B123493046FFF72BFF8244DFF8849065
:108090004FF00008013FFFB2FF2F89D042464B4608
:1080A0002046294601F010FB04460D4601F0BCFDB8
:1080B000B0F1000B1ADA2D213046FFF727FFCBF184
:1080C000000103460A2230460193FFF73EFF019B61
:1080D00018448244584601F08DFA02460B46204669
:1080E000294601F039F904460D46D3E759460023E5
:1080F000E8E700BFF4A70D00FFFFEF7FF8A70D0032
:10810000FFFFEF41FCA70D00FFFFEFC10000E03FC4
:10811000ABA50D000000244038B5C9B20546FFF7F5
:1081200033FF04462846FFF7FAFE204438BD38B531
:10813000044610EE100A0D4601F06EFA41EC100BE9
:1081400029462046BDE83840FFF7E6BF014B024A0A
:108150001A60704764E6032000A80D0008B50020EF
:10816000FEF776F828B1FEF76BF880F00100C0B298
:1081700008BD0120FCE710B50020FDF757FD0446BF
:10818000A0B9FDF797FF012810D12046FDF7AAFFFF
:1081900060B9FFF7E3FF10B9FEF742F8F9E7FFF720
:1081A000DDFFBDE810400020FDF740BD204610BDBA
:1081B0001FB5FFF7E0FF10220021684601F028FEFE
:1081C00000216846FDF73AFD009805B05DF804FB14
:1081D000024B1A68024B1A60704700BFF8DE03209A
:1081E00068E603200021FDF775BF10B50446FEF7D1
:1081F0005BFD204610BD00000348044A04490023EB
:10820000836000F085BF00BF6CE6032060DF0320C1
:10821000EB810D00014B1860704700BFFCDE0320AE
:1082200008B50B4B43B100F085F903681B6998470B
:10823000002801DDAFF30080064B43B100F0F8F9F0
:1082400003681B699847002801DDAFF3008008BD73
:10825000000000000000000008B5FFF7E1FFFDF797
:10826000C5FC014B186008BDCCE703200248034A57
:108270000349121A01F0A4BD00F4032004F4032002
:10828000D0AB0D0007B5002300931A466FF07701BD
:10829000FDF73AFF03B05DF804FB000007B5438823
:1082A0000A2B08D0502B0BD1094B1B684BB103B0E4
:1082B0005DF804EB1847FFF7E5FF03B05DF804FB3A
:1082C000002300931A466FF07701FDF71DFFF4E7D6
:1082D00080E6032038B5124C1248134D0021FDF7FB
:1082E000F7FF2368AB42114B0CBF012200221A702A
:1082F00002D0FFF7BBFF2560FDF768FC044601F0E4
:108300008FFD0B4B13B12046AFF3008000210848CE
:10831000FDF7A6FFBDE8384006480021FDF7EABE9C
:1083200000F4032015820D001E1C279A7CE6032012
:10833000000000009D820D0007B50823ADF8003055
:1083400003688DF80230037A8DF80330002143680A
:1083500001936846FDF78CFF03B05DF804FB70479E
:1083600010B51821044600F0D8FE204610BDF0B527
:10837000037D062B8DB00E4600F104074FF000047C
:1083800012D000F1080515F8011D0A223046FFF74A
:10839000DCFDAF42044419D0002CF4D02E2130462D
:1083A000FFF7B4FD0444EEE72F236A4639460A205E
:1083B0008DF80040FDF7F6FC684601F067FD336874
:1083C0000246DB68694630469847044620460DB0B1
:1083D000F0BD000010B5054B0446112240F8043BE7
:1083E000002101F015FD204610BD00BF28A80D009A
:1083F0000346074A10B543F8042B01F1100251F867
:10840000044B43F8044B9142F9D10A781A7010BD1D
:1084100028A80D00037D042B04D14068003818BF44
:1084200001207047062B07D143683BB983682BB9FD
:10843000C3681BB90069F1E700207047012070474D
:1084400010B59DF8084044EA032343EA024242EA99
:10845000016104234160037510BD000013B5054B95
:108460000360CB7800938B784A780978FFF7E8FFB0
:1084700002B010BD28A80D0041747047704708B5C0
:108480000021007CFDF7E6FD40EAE07008BD08B57C
:108490000121007CFDF7DEFD40EAE07008BD08B573
:1084A000007CFDF7CFFD20EAE07008BD08B5007C38
:1084B000FDF7C0FD20EAE07008BD13B50446007C5E
:1084C0000191FDF7BFFD0028019901DC607C20B11E
:1084D000207CFDF7C7FD20EAE07002B010BD007CF3
:1084E000FDF7C8BD10B51421044600F016FE204665
:1084F00010BD000010B54FF47A7304460846002101
:10850000C4E90113044B23600123207463741146F2
:10851000FDF780FD204610BD3CA80D00007C002228
:10852000FDF780BD10B514220446002101F070FC57
:10853000204610BD10B5104C88B003A8FFF7F2FF1D
:108540002178BFF35B8F11F0010111D12046019119
:10855000FBF7A7FD019958B103AA0848FFF7CAFF26
:108560002046FBF7A3FD064A0649044800F0D0FD6B
:10857000024808B010BD00BF84E6032088E603204F
:1085800060DF03207D840D0070474174704708B59B
:10859000007CFDF757FC20EAE07008BD08B5007CC0
:1085A000FDF728FC20EAE07008BD08B5007CFDF767
:1085B00031FC40EAE07008BD08B5007CFDF722FC04
:1085C00040EAE07008BD007CFDF72CBC37B5457C67
:1085D00004462DB1207C03B0BDE83040FDF702BC5D
:1085E000007C0191FDF72EFC00280199F2DC284661
:1085F00003B030BD10B51421044600F08EFD2046B6
:1086000010BD000010B54FF0000C0446084611469E
:108610004FF47A72C4E901C2044A22600122207434
:1086200062741A46FDF7D6FB204610BD6CA80D00FB
:1086300013B50E4C2178BFF35B8F11F0010112D1FD
:1086400020460191FBF72DFD019960B1084A094BC5
:108650000948FFF7D7FF2046FBF728FD074A0849DE
:10866000054800F055FD044802B010BD9CE603200B
:10867000A0E6032024E70320A8E7032060DF03200F
:1086800089850D007047F8B5064615460C468F18CB
:10869000BC4206D0336814F8011B9B6830469847EB
:1086A000F6E72846F8BD007C0022FDF7F3BB007C0E
:1086B0000021FDF7F7BB007C0021FDF7FBBB007C30
:1086C0000021FDF7FFBB007C0021FDF703BC10B5C6
:1086D0001421044600F021FD204610BD10B54FF4D2
:1086E0007A73044608460021C4E90113034B236052
:1086F00020741146FDF7FEFB204610BD9CA80D001E
:108700000023007C1A461946FDF7A4BB007C00211B
:10871000FDF7A8BB7FB500221423CDE90122ADF8F7
:1087200004300B788DF808304B680393CB680493C2
:10873000007C0B7A059301A9FDF7E4FB07B05DF817
:1087400004FB1FB5003B8DF800104FF0640103914E
:1087500018BF0123694601928DF80830FFF7DAFF50
:1087600005B05DF804FB0123FFF7EBBF007C00229E
:10877000FDF780BBC9B2FFF7F9BF007C0022FDF70F
:1087800081BB0121FFF7F9BF13B503688DF807100E
:10879000DC6B01224FF0FF330DF10701A04702B05F
:1087A00010BD10B40368DC6B4FF0FF33A4465DF8D6
:1087B000044B604713B5134602688DF80710D46B5D
:1087C0000DF107010122A04702B010BD704738B576
:1087D00043691A68002A054610DAB3F88620B3F810
:1087E00084309A420AD103681B699847044628B925
:1087F0002B682846DB6A9847204638BD0120FCE7F5
:1088000043691868C043C00F70477047064B9942D0
:1088100010B500F10C0405D0084600F087FC0028D4
:1088200008BF0024204610BDBCA70D0010B5AC2128
:10883000044600F072FC204610BDFBF730BC2DE969
:10884000F0414FF0000886B01D46C0F80480044691
:108850000E4617464146102202A801F0D9FA6B1CB9
:1088600009D04FF47A70B5FBF0F3CDE9023800FB84
:10887000135358430490606910230093006802ABBF
:1088800041F2050240F6FF71FDF744FB002807DACC
:10889000FDF716FD03686360002006B0BDE8F081B7
:1088A0006069002300683A463146FDF753FB031E1A
:1088B000EEDB1846F1E7000038B584690A4B036027
:1088C00005467CB16368013B63605BB92368204661
:1088D0009B689847A368013BA3601BB923682046A7
:1088E000DB689847284638BDF0A80D0010B504464F
:1088F000FFF7E2FF20461C2100F00FFC204610BDD0
:1089000070B54D69054B04468C3544F8043B06466A
:108910000FCD0FC42B682370304670BD28A80D0002
:1089200010B54369B3F88620B3F884309A42044600
:1089300005D06369B3F884201344187910BD036827
:108940001B6998470028F4D14FF0FF30F6E710B5C7
:108950004369B3F88620B3F884309A42044608D0BD
:108960006369B3F88420511CA3F884101344187968
:1089700010BD03681B6998470028F1D14FF0FF3004
:10898000F6E7F8B543691746B3F88620B3F88430A4
:108990009A4205460E4616D06969B1F88430B1F89E
:1089A0008640E41ABC4228BF3C46043322461944A0
:1089B000304601F005FA6A69B2F884302344A2F81F
:1089C00084302046F8BD03681B6998470028E3D12E
:1089D0004FF0FF34F5E742690023A2F88430426982
:1089E000A2F8863070472DE9F0411F4603680C4617
:1089F000DB6A8AB0054616469847237DD5F8148071
:108A0000042B0CBF02200A2006220121FDF7AAFA3E
:108A1000C8F800006B691B68002B08DA2B68284631
:108A2000DB6A0024984720460AB0BDE8F08128465A
:108A3000FFF7D1FFB7B1002303A9F8B20393ADF854
:108A40001030FDF7BBF80028E8D1686906230093D1
:108A5000006803AB41F20B0240F6FF71FDF75AFAD2
:108A60000028DBD11C22002103A801F0D1F9237DCD
:108A7000042B1DD14FF407733046ADF80C30FDF7D1
:108A8000A1F9ADF80E006068FDF794F904906B69E8
:108A90001C22186803A9FDF74DFA0028BED1043442
:108AA0000FCC6D698C350FC523682B700124BAE794
:108AB00040F61C233046ADF80C30FDF783F905AEC7
:108AC000ADF80E00231D04F11407186859683246EA
:108AD00003C20833BB421646F7D1D8E730B5426926
:108AE000B2F886308BB004462BB1B2F884209A429B
:108AF00001D1FFF770FF61690868002818DBB1F841
:108B000086507F2D14D804310823C5F180022944F2
:108B1000FDF718FA002813DD6369B3F886200AB957
:108B2000A3F884206369B3F886201044A3F8860074
:108B30006369B3F88600B3F88430C01A0BB030BD57
:108B4000FDF7BEFB03680B2BF2D0FDF7B9FB036802
:108B50000B2BEDD020230025CDE90235FDF7B0FB2E
:108B600003680193084B0949009302AA2B4632205F
:108B7000FDF798FA63691868FDF7D4F963694FF057
:108B8000FF321A60D4E700BFBCA80D0044A60D0058
:108B900010B5436904461868002801DBFDF7C2F9E7
:108BA00063694FF0FF321A606069112200218C3036
:108BB00001F02EF92046BDE81040FFF70CBF10B5BC
:108BC000002304460160C0F884308830FFF702FCBF
:108BD000204610BD73B500234FF47A72C0E901320C
:108BE0000E4A0361026043610446AC200191FBF729
:108BF00052FA051E05F10C0608D00123C5E9013320
:108C0000074B01992B603046FFF7D9FF2046C4E996
:108C10000565FFF7E0FE02B070BD00BFF0A80D00D3
:108C2000D4A80D0010B54FF0FF310446FFF7D2FF76
:108C3000204610BD10B504460068002801DBFDF792
:108C400071F9204610BD0C30FFF7F4BF2DE9F04359
:108C50009846036893B00D460024DB6A0646174623
:108C6000984728466B46224621460094FCF77EFF33
:108C70000546002863D1009B002B4BD05B69002B7D
:108C800048D006A8FFF7A6FB009B5C696378022B1F
:108C900004D1211D06A8FDF745FD26E00A2B24D1AD
:108CA0001122294601A801F0B3F8A368002B38D09F
:108CB00004F108030DF1040C183418685968624671
:108CC00003C20833A3429446F7D1062301A90CA896
:108CD0008DF81430FFF78CFB0DF1340CBCE80F005D
:108CE00007AC0FC4DCF80030237006A8FFF792FB36
:108CF00080B1336807ADD3F82090124B0C930FCDA1
:108D00000DAC0FC42B6823703A4643460CA930467D
:108D1000C84705460098FCF721FF284613B0BDE878
:108D2000F083E368002BC3D14FF6FF70D4F81090A6
:108D3000FDF740F88145BBD104F11401AAE72546AF
:108D4000E8E700BF28A80D0030B5D1E901439C42F7
:108D500010DA0B68621C4A600546382202FB0434B4
:108D60000FCD0FC40FCD0FC40FCD0FC495E8030076
:108D700084E8030030BD002240681146FDF7F0B9D9
:108D8000002240681146FDF70BBA002240681146E8
:108D9000FDF72EBA40680022FDF722BA4068002293
:108DA00081F00101FDF7F4B9002240681146FDF79A
:108DB000C7B9406800220221FDF7CAB90023406804
:108DC0001A46FDF7B5B900001FB50023019106480A
:108DD000029301A90392FDF755F9039B9842A8BF9E
:108DE000184605B05DF804FB498D0D00024B0422C6
:108DF0005A60024A1A607047BCE703203CA90D0084
:108E0000002340681A46FDF793B94068002202210A
:108E1000FDF79EB9002240681146FDF791B9002286
:108E200040681146FDF79CB9002340681A46194670
:108E3000FDF79EB9002340681A461946FDF7A0B910
:108E400040680021FDF7DCB940680021FDF7E0B97A
:108E50004068002281F00101FDF79AB940680022C4
:108E6000FDF7BEB9002240681146FDF7C1B90022E6
:108E700040681146FDF794B92DE9F043002495B000
:108E800016460D460746FFF7A5FA214618220EA8FA
:108E9000009400F0BDFF4023CDE90C3421466B4621
:108EA0000CAA3046FCF762FE044600284CD102466C
:108EB00001216868FDF754F902218046224668685E
:108EC000FDF74EF9009E81462146002E3CD0002938
:108ED0003AD17368022B03D00A2B11D0F669F4E75C
:108EE000B8F1000F0AD0716906A8043107ADFFF789
:108EF000B5FA0FCD3C1D0FC42B6823704146EDE73A
:108F0000B9F1000F01D14946E8E77469102201A8C0
:108F100000F07EFF06238DF8143001AD04F1080344
:108F20001834186859682A4603C20833A342154604
:108F3000F7D101A906A807ADFFF75AFA0FCD3C1DDE
:108F40000FC42B682370DEE70098FCF707FE384655
:108F500015B0BDE8F0830000024B034A1A600022FE
:108F60005A607047C4E7032078A90D00232813B581
:108F700002D9002002B010BDA0F10B03022B1AD8B9
:108F8000174C2178BFF35B8F11F001010BD1204604
:108F90000191FBF786F8019928B11248FDF7E4F931
:108FA0002046FBF783F80F4B1878FDF713F80028DD
:108FB000DFD10120DEE7012809D800F081F8002187
:108FC000007CFCF78FFF80F00100C0B2D2E70938C7
:108FD0000128EED8FFF72CFB007CFCF72BFFF2E713
:108FE00030E6032034E60320232838B504460D4636
:108FF0000AD8FF2908D0FFF7B9FF28B12946204633
:10900000BDE83840FCF7BABD38BD38B504460D465A
:10901000FCF7BCFDFF2810D0062804D84D2323FA06
:1090200000F0C30709D42046FFF7A0FF28B1294666
:109030002046BDE83840FCF7B1BD38BD10B5044648
:10904000FCF7A4FD031FDBB2012B08D92046FFF774
:109050008DFF20B12046BDE81040FCF7A7BD0020E1
:1090600010BD000010B5084C2378BFF35B8FDB0701
:1090700008D42046FBF715F820B1FCF7BFFD2046C9
:10908000FBF714F8014810BDD0E70320D4E7032014
:1090900038B50023202543801423044603808560CF
:1090A00005610649284600F03CF8044960602846FE
:1090B00000F037F8E060204638BD00BFACA90D00D5
:1090C00030B50F4D2978BFF35B8F11F0010487B0E5
:1090D00013D12846FAF7E5FF78B101A8FFF7D8FFCA
:1090E00001AA21460748FFF7F9FA2846FAF7DEFFFA
:1090F000054A0649034800F00BF8024807B030BDA6
:10910000D8E70320DCE7032060DF032085860D001D
:109110000B460146184600F023BEFAF7C0BFFAF727
:10912000BABFFAF7BABF08B5FDF7C2F8014900F0B7
:10913000F9B800BFC8A90D007FB500241023CDE900
:109140000234036800949E698DF8044015466B460E
:109150001268B0479DF8043003F00603062B03BFE6
:10916000009B2B600120204604B070BD0098904207
:1091700014BF01200620704710B5034B036004465E
:1091800000F0CDF8204610BD08AA0D0010B5044629
:10919000FFF7F2FF20460821FFF7BFFF204610BD72
:1091A0002DE9F0411F46DDE90834DDF818809845C7
:1091B0000646154607D1079900F0B4F818B1657155
:1091C0000020BDE8F0813946304600F0ABF80028B9
:1091D000F6D00123C4F800802571A371F0E738B5FB
:1091E00015461C4600F09EF820B10823E3600623D4
:1091F0002560237138BD73B505460C4601921E46A5
:1092000000F090F850B9032E08D82368019A5B69E2
:109210002946204602B0BDE87040184702B070BD34
:1092200010B5034B03600446FFF7A6FF204610BDB0
:1092300068AA0D0010B50446FFF7F2FF20460C2186
:10924000FFF76BFF204610BDF7B5089F9742054614
:109250000E4614460AD0A86802680897156A314677
:109260002246AC4603B0BDE8F04060471946019382
:1092700000F058F8019B0028EDD0062003B0F0BDA7
:109280002DE9F14F0D461946DDE90A4BDDE90CA643
:1092900081461746984600F045F890B1002D34609D
:1092A000377109DB61198A450CBF06210121B171B3
:1092B000002001B0BDE8F08F0235F9D10123B37170
:1092C000F6E7544506D15946484600F02BF808B158
:1092D0007771EDE7D9F808000368CDE90CA6CDE970
:1092E0000A4BDC693A4643462946A44601B0BDE82C
:1092F000F04F60472DE9F04107460C4615461E46E3
:10930000FFF76DFF48B9B86803689F692A4633467E
:109310002146BC46BDE8F0416047BDE8F08170479A
:1093200000207047814208B50ED0406803782A2B90
:109330000CD049680B782A2B08BF013100F094FD4E
:10934000B0FA80F0400908BD0120FCE70020FAE7F0
:1093500081F0004102E000BF83F0004330B54FEAE6
:1093600041044FEA430594EA050F08BF90EA020F53
:109370001FBF54EA000C55EA020C7FEA645C7FEAE6
:10938000655C00F0E2804FEA5454D4EB5555B8BF09
:109390006D420CDD2C4480EA020281EA030382EA7A
:1093A000000083EA010180EA020281EA0303362D0C
:1093B00088BF30BD11F0004F4FEA01314FF4801CDF
:1093C0004CEA113102D0404261EB410113F0004FF1
:1093D0004FEA03334CEA133302D0524263EB4303A8
:1093E00094EA050F00F0A780A4F10104D5F1200E46
:1093F0000DDB02FA0EFC22FA05F2801841F10001A1
:1094000003FA0EF2801843FA05F359410EE0A5F174
:1094100020050EF1200E012A03FA0EFC28BF4CF0A5
:10942000020C43FA05F3C01851EBE37101F000455B
:1094300007D54FF0000EDCF1000C7EEB00006EEB68
:109440000101B1F5801F1BD3B1F5001F0CD34908F2
:109450005FEA30004FEA3C0C04F101044FEA445249
:1094600012F5800F80F09A80BCF1004F08BF5FEAD0
:10947000500C50F1000041EB045141EA050130BDB0
:109480005FEA4C0C404141EB0101013C28BFB1F5C2
:10949000801FE9D291F0000F04BF01460020B1FA0D
:1094A00081F308BF2033A3F10B03B3F120020CDAE0
:1094B0000C3208DD02F1140CC2F10C0201FA0CF0BE
:1094C00021FA02F10CE002F11402D8BFC2F1200C23
:1094D00001FA02F120FA0CFCDCBF41EA0C019040D9
:1094E000E41AA2BF01EB0451294330BD6FEA040422
:1094F0001F3C1CDA0C340EDC04F11404C4F120020D
:1095000020FA04F001FA02F340EA030021FA04F31E
:1095100045EA030130BDC4F10C04C4F1200220FA75
:1095200002F001FA04F340EA0300294630BD21FAB3
:1095300004F0294630BD94F0000F83F4801306BF79
:1095400081F480110134013D4EE77FEA645C18BF6D
:109550007FEA655C29D094EA050F08BF90EA020F04
:1095600005D054EA000C04BF1946104630BD91EAFC
:10957000030F1EBF0021002030BD5FEA545C05D1FF
:109580004000494128BF41F0004130BD14F580043E
:109590003CBF01F5801130BD01F0004545F0FE41B2
:1095A00041F470014FF0000030BD7FEA645C1ABFE7
:1095B000194610467FEA655C1CBF0B46024650EA1E
:1095C000013406BF52EA033591EA030F41F400214A
:1095D00030BD00BF90F0000F04BF0021704730B5D0
:1095E0004FF4806404F132044FF000054FF00001A5
:1095F00050E700BF90F0000F04BF0021704730B566
:109600004FF4806404F1320410F0004548BF40423A
:109610004FF000013EE700BF42004FEAE2014FEA8F
:1096200031014FEA02701FBF12F07F4393F07F4F6A
:1096300081F06051704732F07F4208BF704793F06D
:109640007F4F04BF41F40021704730B54FF4607480
:1096500001F0004521F000411CE700BF50EA010283
:1096600008BF704730B54FF000050AE050EA01022C
:1096700008BF704730B511F0004502D5404261EB9C
:1096800041014FF4806404F132045FEA915C3FF4DD
:10969000D8AE4FF003025FEADC0C18BF03325FEA7A
:1096A000DC0C18BF033202EBDC02C2F1200300FA2B
:1096B00003FC20FA02F001FA03FE40EA0E0021FA50
:1096C00002F11444BDE600BF70B54FF0FF0C4CF43E
:1096D000E06C1CEA11541DBF1CEA135594EA0C0FF0
:1096E00095EA0C0F00F0DEF82C4481EA030621EA2B
:1096F0004C5123EA4C5350EA013518BF52EA033566
:1097000041F4801143F4801338D0A0FB02CE4FF017
:109710000005E1FB02E506F00042E0FB03E54FF047
:109720000006E1FB03569CF0000F18BF4EF0010E3F
:10973000A4F1FF04B6F5007F64F5407404D25FEA3B
:109740004E0E6D4146EB060642EAC62141EA5551EE
:109750004FEAC52040EA5E504FEACE2EB4F1FD0C30
:1097600088BFBCF5E06F1ED8BEF1004F08BF5FEAAE
:10977000500E50F1000041EB045170BD06F0004660
:1097800046EA010140EA020081EA0301B4EB5C040D
:10979000C2BFD4EB0C0541EA045170BD41F4801105
:1097A0004FF0000E013C00F3AB8014F1360FDEBF2A
:1097B000002001F0004170BDC4F10004203C35DA06
:1097C0000C341BDC04F11404C4F1200500FA05F389
:1097D00020FA04F001FA05F240EA020001F000422A
:1097E00021F0004110EBD37021FA04F642EB0601A0
:1097F0005EEA430E08BF20EAD37070BDC4F10C04CA
:10980000C4F1200500FA04F320FA05F001FA04F28D
:1098100040EA020001F0004110EBD37041F1000179
:109820005EEA430E08BF20EAD37070BDC4F1200584
:1098300000FA05F24EEA020E20FA04F301FA05F2EC
:1098400043EA020321FA04F001F0004121FA04F294
:1098500020EA020000EBD3705EEA430E08BF20EA64
:10986000D37070BD94F0000F0FD101F0004640009E
:1098700041EB010111F4801F08BF013CF7D041EA20
:10988000060195F0000F18BF704703F00046520024
:1098900043EB030313F4801F08BF013DF7D043EAF5
:1098A0000603704794EA0C0F0CEA135518BF95EAAB
:1098B0000C0F0CD050EA410618BF52EA4306D1D132
:1098C00081EA030101F000414FF0000070BD50EA51
:1098D000410606BF1046194652EA430619D094EADB
:1098E0000C0F02D150EA013613D195EA0C0F05D1C5
:1098F00052EA03361CBF104619460AD181EA030119
:1099000001F0004141F0FE4141F470014FF00000D0
:1099100070BD41F0FE4141F4780170BD70B54FF06B
:10992000FF0C4CF4E06C1CEA11541DBF1CEA1355EB
:1099300094EA0C0F95EA0C0F00F0A7F8A4EB0504CD
:1099400081EA030E52EA03354FEA013100F08880C4
:109950004FEA03334FF0805545EA131343EA12638D
:109960004FEA022245EA111545EA10654FEA002642
:109970000EF000419D4208BF964244F1FD0404F5FB
:10998000407402D25B084FEA3202B61A65EB030557
:109990005B084FEA32024FF480104FF4002CB6EB14
:1099A000020E75EB030E22BFB61A754640EA0C0094
:1099B0005B084FEA3202B6EB020E75EB030E22BFD4
:1099C000B61A754640EA5C005B084FEA3202B6EB15
:1099D000020E75EB030E22BFB61A754640EA9C00D4
:1099E0005B084FEA3202B6EB020E75EB030E22BFA4
:1099F000B61A754640EADC0055EA060E18D04FEA62
:109A0000051545EA16754FEA06164FEAC30343EA01
:109A100052734FEAC2025FEA1C1CC0D111F4801FCE
:109A20000BD141EA00014FF000004FF0004CB6E7C7
:109A300011F4801F04BF01430020B4F1FD0C88BF66
:109A4000BCF5E06F3FF6AFAEB5EB030C04BFB6EB71
:109A5000020C5FEA500C50F1000041EB045170BD64
:109A60000EF0004E4EEA113114EB5C04C2BFD4EB91
:109A70000C0541EA045170BD41F480114FF0000E15
:109A8000013C90E645EA060E8DE60CEA135594EA91
:109A90000C0F08BF95EA0C0F3FF43BAF94EA0C0F94
:109AA0000AD150EA01347FF434AF95EA0C0F7FF409
:109AB00025AF104619462CE795EA0C0F06D152EA5D
:109AC00003353FF4FDAE1046194622E750EA410641
:109AD00018BF52EA43067FF4C5AE50EA41047FF452
