:02000002D0002C
:1040000000400D009C800D00000006000C00050122
:084010000401BD0B00000000DB
:044018003C7C0D00DF
:1040200009480A49884208B505D0094A824202D0A7
:10403000121A03F09BFD0748074A0021121A03F0E9
:10404000A3FD014808BD00BF20E503200C800D0042
:1040500088E5032088E50320F0E7032070B5074ECC
:10406000074C01F07BFFA41BA4080025A54200D14A
:1040700070BD56F8043B98470135F7E7D47F0D0033
:10408000F87F0D0000F026B808B500F085F8BDE80F
:10409000084001F025BF01F025BB01F023BB01F072
:1040A00029BB01F027BB0078B0FA80F040097047C7
:1040B0000123037070477047704738B504460069A4
:1040C00028B185680C2102F01AFE2846F8E7204640
:1040D00038BD000030B587B002F05CF84FF41651DF
:1040E00002F04CF818212748274D00F0E5FA254842
:1040F000002100F0B8FA1423FF22CDE9003201219B
:104100000A233C221F4800F06DFA02A801F0DAFAF7
:1041100002991E4800F040FE02A801F047FD002170
:10412000052002F069FD2B7D9BB102232B722B68C9
:10413000DB6883B19A88012A06D09B68F9E79B68FF
:104140004BB19A88012AFAD19A89052AF7D101221E
:104150009A7307B030BD0E49102002F0D2FD04461C
:1041600070B11022002103F00FFD2A69094B236072
:10417000A26001230522A380A281A3732C61E8E73A
:104180002875E6E708E60320ECE503208CE503202C
:10419000DC7E0D001000030070B54F4C236890B01A
:1041A000C83B236001F0F6FF2568002D064680F22B
:1041B00081802D2101F014FE69420A22304601F06F
:1041C0001EFE304601F00FFE2368002B0ADC41F290
:1041D00088330CA84149236001F0BCFB0C9808B15E
:1041E00001F088FA3E4C204600F0B8FA3D4904A898
:1041F00001F027FDE06802F0FFFF35A3D3E90023BB
:1042000003F052F841EC100B0621684601F04EFD18
:10421000694604A801F075FD334901F07EFD0546AD
:10422000206902F0E9FF2AA3D3E9002303F03CF858
:1042300041EC100B062108A801F038FD08A928461A
:1042400001F05FFD294901F068FD0546606902F053
:10425000D3FF1FA3D3E9002303F026F841EC100B92
:1042600006210CA801F022FD0CA9284601F049FD09
:1042700001461F4801F0F9FC0CA801F097FC08A8C2
:1042800001F094FC684601F091FC04A801F08EFC5A
:10429000184800F090FC78B1164800F064FE144B0A
:1042A00015491A68134800F002FEC82001F0DEFD2F
:1042B00010B070BD294680E70CA801F003FA0C99F4
:1042C0000C4800F069FD0CA801F070FCE7E700BFA6
:1042D0003EE8D9ACFA9C234004E60320ECE5032039
:1042E00008E60320507C0D00547C0D00597C0D0025
:1042F00034E603208CE503205E7C0D0010B52C21F4
:10430000044602F0FCFC204610BD000073B51C4CB6
:104310001C4D1D491D4E204601F093FC20461C4CAF
:104320001C492A4602F0E6FC204600F065F82A46C1
:1043300019492046002402F0DDFC184B184900946E
:1043400040F25B72304600F02DFB2A46154930469C
:1043500002F0D0FC14481549A0F809400346021D9C
:1043600043F8092B9C7001230375114B43602A46C7
:10437000C0E90344047202B0BDE8704002F0BABC68
:1043800034E6032088E50320537C0D008CE50320F0
:1043900008E60320AD5B0D00B9400D00B7400D00ED
:1043A000707C0D0099510D00ECE50320BB400D0021
:1043B00010000300704700000B4610B52822044689
:1043C0000021184603F0E0FB08490B2203F022FC11
:1043D00000220121C272C1600346A0695A62C3E98A
:1043E000040100229A61DA611A6210BD7F7C0D001F
:1043F0000368C9B29B681847064A02604FF0FF3253
:1044000082614277C283FF2280F820200822426224
:10441000704700BF907C0D0013B50B4C2178BFF3A3
:104420005B8F11F001010BD120460191FFF73BFE9C
:10443000019928B1054801F0C1F92046FFF738FE7F
:10444000024802B010BD00BF44E6032048E6032046
:104450002DE9F04190F92030013305460F4606D191
:10446000FFF7DAFF3946BDE8F04101F031BA002428
:1044700007264FF0010895F92000002180B202F0D4
:10448000CCFB95F91E0008FA06F1394080B202F023
:10449000C4FB95F92000012180B202F0BEFB95F922
:1044A0001F00640080B2E4B202F0D0FB08B144F017
:1044B0000104013EDFD22046BDE8F08108B5FFF7D8
:1044C000ABFF012101F095F9FFF7A6FF0549012295
:1044D00001F0CCF9FFF7A0FFBDE80840002101F092
:1044E0009BB900BF20A1070070B590F91D300133C2
:1044F00004460E46154616D102F0D4FB217F01F08A
:1045000061FF02F0CFFB036831469B68984702F0D9
:10451000C9FB036829469B68984702F0C3FBBDE8C6
:10452000704001F05ABF90F92030013301D1FFF7FC
:10453000C5FF94F91D00002180B202F06EFB06F069
:104540007F012046FFF784FF29462046FFF780FFC2
:1045500094F91D000121BDE8704080B202F05DBBFE
:1045600038B590F91D30013304460D461DD102F0D7
:1045700099FB94F91C1001F029FF02F093FB0368EA
:1045800029469B68984702F08DFB01F026FF02F058
:1045900089FB217F012201F012FF02F083FB0368F7
:1045A0005B699847C5B2284638BD90F92030013381
:1045B00001D1FFF783FF94F91D00002180B202F0C2
:1045C0002CFB45F080012046FFF742FF00212046EA
:1045D000FFF73EFF054694F91D00012180B202F06D
:1045E0001CFBE0E72DE9F84304469DF820909DF878
:1045F000248017461E460D4679B92221FFF7B0FFE9
:10460000222100F07F022046FFF76EFF2A46382164
:104610002046BDE8F843FFF767BF80222221FFF75D
:1046200063FF082224212046FFF75EFF012D16D1EB
:10463000152238212046FFF757FF3A463A212046F7
:10464000FFF752FF32463B212046FFF74DFF4A4617
:104650003C212046FFF748FF42463D21D8E7022D86
:10466000EBD12A22E5E738B50D4623210446FFF7B2
:1046700077FF20F0300242EA05122046D2B2BDE8B0
:1046800038402321FFF730BF08B52321FFF768FF2B
:10469000C0F3011008BD38B50D4620210446FFF7D0
:1046A0005FFF00F00F0242EA05122046D2B2BDE8D9
:1046B00038402021FFF718BF10B50446017790F964
:1046C0001D00421C23D102F0EDFA01F049FE0F213A
:1046D0002046FFF745FF33283DD107222021204601
:1046E000FFF702FF07212046FFF7D5FF882223218D
:1046F0002046FFF7F9FE102222212046FFF7F4FEA4
:10470000204680221F21FFF7EFFE012010BD01216E
:1047100080B202F082FA94F91D00012180B202F009
:104720006BFA94F92000431C04D1FFF775FE01F0E9
:104730004FF8CCE7012180B202F05EFA94F91E0036
:10474000012180B202F058FA94F91F00002180B2D2
:1047500002F052FABBE70020D8E7000038B590F924
:104760001D300133044676D102F09CFA94F91C10F6
:104770005C4D01F02BFE02F095FAA821FFF738FE00
:1047800002F090FA01F029FE02F08CFA217F062255
:1047900001F015FE02F086FA03685B699847E08035
:1047A00002F080FA03685B699847E38805EA002015
:1047B0001843E08002F076FA03685B69984720812D
:1047C00002F070FA03685B699847238905EA0020C4
:1047D0001843208102F066FA03685B69984760819C
:1047E00002F060FA03685B69984705EA0020658972
:1047F000284360812046FFF747FF032869D002283D
:104800006AD001286BD0002843F6FC7318BF01233F
:1048100007EE903AB4F9063007EE103AF8EEE77A70
:10482000B8EEC77AB4F90830C7EE276A07EE103A37
:10483000B8EEC77AC4ED036AC7EE276AB4F90A3046
:1048400007EE103AB8EEC77AC4ED046AC7EE276ADD
:10485000C4ED056A38BD90F92030013301D1FFF76E
:104860002DFE94F91D00002180B202F0D6F9E82156
:104870002046FFF7EDFDFF212046FFF7E9FDFF2170
:10488000E0802046FFF7E4FDE38843EA0020E08073
:10489000FF212046FFF7DCFDFF2120812046FFF7A6
:1048A000D7FD238943EA00202081FF212046FFF71E
:1048B000CFFDFF2160812046FFF7CAFD638943EAEF
:1048C0000020608194F91D00012180B202F0A5F959
:1048D00090E74FF400639BE74FF4805398E741F66D
:1048E000FE7395E700FFFF000C46054608B5202241
:1048F0000021201D03F048F924232360AB69636085
:104900000123A360002323612846FFF727FFEB68FC
:1049100063612B69A3616B69E36191F85C3010B549
:104920000446016013B1886D00F0AEFC204610BD56
:1049300010B5036893F85C20044612B1986D00F03E
:10494000ABFC204610BDF8B51F469DF82430044648
:104950000D4616462BB1012380F85C30583000F02C
:104960008BFC089B23630023636306B1A66425B117
:10497000294604F1380001F087F9069B2365079B5F
:10498000E069A4F84C70FF2BB8BFFF23A4F85430A3
:1049900008B1FFF786FBB4F85400FFF77EFBE06137
:1049A000F8BD00002DE9FF41044600251746984652
:1049B0000E4601F063FF0D49E56104F1380001F096
:1049C00040F99DF82830A564CDE90283FF220F232A
:1049D000CDE90032204684F85C503B462A463146F9
:1049E000FFF7B1FF204604B0BDE8F081537C0D0015
:1049F00010B50446204601F09DFE0028FAD020465E
:104A000001F0D1FDC0B210BD2DE9F0470546C469E3
:104A10000F46FFF7EDFF2070EB6993F800A04FF011
:104A200001090AF0F00A4FF000084C462846FFF74B
:104A3000DFFF2646EB69985500F07F0313FB09F36F
:104A4000984401340306A4B21FFA88F84FEAC91942
:104A5000ECD4631EBAF1300F3B7024D12846EF69C5
:104A6000FFF7C6FF38552846EF69F41CFFF7C0FF73
:104A70000236B6B2A4B2B8550226B6B2B14627463F
:104A8000C14512D22846FFF7B3FFB5F85430BB42F8
:104A900088BFEB6909F1010988BFD8550137BFB25A
:104AA0001FFA89F9ECE70026E7E7A8EB0600B04516
:104AB0002CBF064600263444B5F85400A4B2A042E8
:104AC0002CBF20460020BDE8F087F7B58C461E4677
:104AD0001D4607460023AE4602A805F07F01BEF141
:104AE0007F0F03F10104034488BF41F08001BEF150
:104AF0007F0F4FEAD515E4B203F8041C10D8C4F1B7
:104B00000403D11802F803C0C4F10503134401A83B
:104B10000532934206D010F8015B03F8015BF8E719
:104B20002346D8E7721C2244384601F066FC05464D
:104B300000F09AFB621C78623244A8B2131A584201
:104B4000584103B0F0BD13B50446014601A8FFF774
:104B5000E4FEE369E0221A70E36900225A70E16919
:104B60000222204601F049FC204601F03DFE00F003
:104B70007BFBC4E9090001A8FFF7DAFE02B010BD13
:104B80000233F0B5044698B20023CD5C55B1B4F8B9
:104B90005460864203F1010704D9461C15543B4674
:104BA000B0B2F2E799B2441A2244091202F8021C88
:104BB00002F8013CF0BD38B5044601F034FC002891
:104BC00014BF0125002502D1204601F00DFE284624
:104BD00038BD00002DE9F04788B00446DDF840807C
:104BE0009DF850A0894617461E46FFF7E4FF05468C
:104BF000002840F0CB80214601A8FFF78EFEA16C73
:104C0000002940F08780B4F84C20A16B2B46204649
:104C100001F048FE002879D0012323849DF8543008
:104C2000E269042B40F08180594B186899889B7980
:104C3000ADF80C108DF80E300290C2F805009DF80A
:104C40000E30BDF80C10A2F80910D3720C23B8F185
:104C5000000F7FD09DF848009DF84420400140EAB5
:104C6000C20040F00600C0B2BAF1000F01D100F05E
:104C7000FD001FB1002E6FD140F08000E269D054DA
:104C8000226DE169581C12120A549A1CE169206DC8
:104C900088540333E26949462046FFF771FF034613
:104CA000B8F1000F0BD0E26941462046FFF768FFDC
:104CB000E269139903462046FFF762FF034667B196
:104CC000E26939462046FFF75BFF03462EB1E269F1
:104CD00031462046FFF754FF0346053BE2699BB28D
:104CE00010212046FFF7F1FE00F0BEFAC4E90900EA
:104CF0004FF47A76204601F01DFD80BB00F0B4FA37
:104D0000A36AC01A236D73439842F3D9204601F079
:104D10006BFD34E002A801F0D1F9B4F84C202B4629
:104D200002A9204601F08BFC74E71A4B18685968F9
:104D30001B7A0DF1080CACE803008CF8003002ABD4
:104D400003CBC2F80500C2F809109CF80030537379
:104D50000E237CE7022087E740F0C0008EE702A91F
:104D60002046FFF751FE0428D0D1E369DE78002EFB
:104D7000CCD100F079FA0125A06284F82C6001A85A
:104D8000FFF7D6FD284608B0BDE8F0870025F9E713
:104D9000A47C0D00AB7C0D007FB501230422CDE97E
:104DA00004320023CDE90233CDE900331A46FFF780
:104DB00011FF07B05DF804FB2DE9F74FDDF83C80EB
:104DC0009DF834509DF8389004468B4616461F4691
:104DD000FFF7F1FE8246002851D0214601A8FFF7D7
:104DE0009CFDB4F85420E069002102F0CDFE0523BB
:104DF000E26959462046FFF7C3FE6B1E012B15D80A
:104E0000218CE369013189B2218409121954421CB1
:104E1000E369218C92B20230995480B2B8F1000F4C
:104E200004D0238C5A1C2284A8F8003000210B18CF
:104E30008F42E2699BB20AD9B4F854C09C4506D9A6
:104E400016F801C002F803C0013189B2EFE79DF8FE
:104E5000301000290CBF30213121B9F1000F01D0F1
:104E600041F00801022D0ED141F00401053B9BB237
:104E70002046FFF72AFE824601A8FFF759FD50465B
:104E800003B0BDE8F08F012D08BF41F00201EDE74E
:104E90001FB5089C0394002402949DF81C400194C3
:104EA0009DF818400094FFF787FF04B010BD30B59F
:104EB00087B0044610460591049202F0A3FE002537
:104EC0000346CDE90155DDE9042100952046FFF7B1
:104ED000DFFF07B030BD73B504460E46FFF76BFE2B
:104EE0000546C8B1214601A8FFF717FDE369622214
:104EF0001A70E36902225A70E36932129A70E36908
:104F0000DE70E1690422204601F077FA051E01A84F
:104F100018BF0125FFF70CFD284602B070BD73B520
:104F200004460E46FFF747FE0546C8B1214601A8D4
:104F3000FFF7F3FCE36972221A70E36902225A70E8
:104F4000E36932129A70E369DE70E1690422204657
:104F500001F053FA051E01A818BF0125FFF7E8FC70
:104F6000284602B070BD2DE9F04F2DED028B87B0C1
:104F700000AF0446FFF71FFE8146F8B1214607F156
:104F80001400FFF7CAFC00F06FF9226D4FF47A733A
:104F90005343A26A821A9A42064603D8626A821A68
:104FA000934221D294F82C307BB1204601F01CFCB6
:104FB0004FF0000907F11400FFF7BAFC48461C3710
:104FC000BD46BDEC028BBDE8F08FE269C0211170D7
:104FD000E2695370E1690222204601F00EFAC4E949
:104FE0000966012384F82C30204601F0A3FB002839
:104FF000E0D007F113012046FFF706FD83460028A5
:10500000D8D0E369A662197801F0F002302A7FD186
:10501000D4F830A0BAF1000FCCD097F813C06A468C
:1050200008EE102A03EB0C025578917801EB05216C
:105030008DB205F108026946D208A1EBC20295467D
:105040000CF10302FA6003EB020E0DEB0502684659
:10505000C7F808D07A60D7E901218A4206D00A460B
:105060001EF8018B02F8018BBA60F4E7002242556A
:1050700093F80080F96808F00608ABEB0C02033ADD
:10508000B8F1020FA2EB0502294425D113F801E083
:105090001944023A91F801B00CF105012944194470
:1050A0000BEB0E2BD047E36940221A70E3691FFA1D
:1050B0008BFB83F80180E3694FEA2B229A70E36946
:1050C00083F803B0E1690422204601F096F9666294
:1050D00018EE103A9D466DE7B8F1040F15D113F89C
:1050E00001E01944023A91F801B00CF1050129449C
:1050F00019440BEB0E2BD047E36950221A70E36979
:1051000002221FFA8BFB5A70D5E71944D047DFE71C
:10511000502A08D19A78D97801EB022189B2204629
:10512000FFF7D9FE46E7402A12D1626B002A3FF40E
:1051300041AFBBF1040F7FF43DAF11F0060F7FF4D8
:1051400039AF9978D87800EB012080B2904731E7E9
:10515000602A08D19A78D97801EB022189B22046D9
:10516000FFF7DDFE26E7702ADFD0902A3FF422AF5A
:10517000C02A0AD1D0221A70E36900225A70E1696C
:105180000222204601F039F914E7D02A04BF002397
:1051900084F82C300EE7000038B50546FFF70BFD0C
:1051A00010B12846FFF7CFFCE86908B1FEF779FF98
:1051B00005F1380000F0FAFCAC690A4B2B607CB1B9
:1051C0006368013B63605BB9236820469B6898472E
:1051D000A368013BA3601BB923682046DB6898479E
:1051E000284638BD207E0D0008B5024B1B689B6821
:1051F000019308BD6802030008B5024B1B68DB6819
:10520000019308BD6802030008B5024B1B689B6848
:10521000019308BD2C02030008B5024B1B68DB6834
:10522000019308BD2C02030008B5024B1B681B69E3
:10523000019308BD2C02030008B5024B1B685B6993
:10524000019308BD2C02030008B5024B1B685B6983
:10525000019308BD6C02030008B5024B1B685B6834
:10526000019308BD1802030008B5024B1B685B6977
:10527000019308BD1802030008B5024B1B681B6BA5
:10528000019308BD4802030008B5024B1B689B6BE5
:10529000019308BD4802030008B5024B1B681B6C54
:1052A000019308BD4802030008B5024B1B685B6C04
:1052B000019308BD4802030008B5024B1B689B6CB4
:1052C000019308BD4802030008B5024B1B685B69E7
:1052D000019308BD6402030008B5024B1B681B6AFA
:1052E000019308BD6402030008B5024B1B689B6A6A
:1052F000019308BD6402030008B5024B1B681B68DC
:10530000019308BD3C02030008B5024B1B68DB6833
:10531000019308BD3C02030008B5024B1B681B69E2
:10532000019308BD3C02030008B5024B1B685B6992
:10533000019308BD3C02030008B5024B1B689B6942
:10534000019308BD3C02030008B5024B1B68DB69F2
:10535000019308BD3C02030008B5024B1B681B6AA1
:10536000019308BD3C02030008B5024B1B689B6A11
:10537000019308BD3C02030008B5024B1B68DB68C3
:10538000019308BD2802030008B5024B1B689B6906
:10539000019308BD2802030008B5024B1B68DB69B6
:1053A000019308BD2802030008B5024B1B681B6A65
:1053B000019308BD2802030008B5024B1B685B6A15
:1053C000019308BD2802030008B5024B1B689B6AC5
:1053D000019308BD2802030008B5024B1B68DB6A75
:1053E000019308BD2802030008B5024B1B681B6B24
:1053F000019308BD2802030008B5024B1B685B6BD4
:10540000019308BD2802030008B5024B1B681B6C02
:10541000019308BD2802030008B5024B1B681B6DF1
:10542000019308BD2802030008B5024B1B689B6965
:10543000019308BD3802030008B5024B1B68DB6905
:10544000019308BD3802030008B5024B1B681B6AB4
:10545000019308BD3802030008B5024B1B689B6A24
:10546000019308BD3802030008B5024B1B681B6B93
:10547000019308BD3802030008B5024B1B689B6B03
:10548000019308BD3802030008B5024B1B681B6876
:10549000019308BD3002030008B5024B1B689B68EE
:1054A000019308BD3002030008B5024B1B68DB689E
:1054B000019308BD3002030008B5024B1B681B694D
:1054C000019308BD3002030008B5024B1B685B69FD
:1054D000019308BD3002030008B5024B1B68DB696D
:1054E000019308BD3002030008B5024B1B681B6A1C
:1054F000019308BD3002030008B5024B1B685B6ACC
:10550000019308BD3002030008B5024B1B681B6CF9
:10551000019308BD3002030008B5024B1B685B6CA9
:10552000019308BD3002030008B5024B1B681B68DD
:10553000019308BD4C02030008B5024B1B685B6871
:10554000019308BD4C02030008B5024B1B681B69A0
:10555000019308BD4C02030008B5024B1B685B6950
:10556000019308BD4C02030008B5024B1B689B6900
:10557000019308BD4C02030008B5024B1B68DB69B0
:10558000019308BD4C02030008B5024B1B681B6A5F
:10559000019308BD4C02030008B5024B1B681B6D4C
:1055A000019308BD6002030008B5024B1B685B68ED
:1055B000019308BD2002030008B5024B1B685B691C
:1055C000019308BD2002030008B5034B1B68D3F804
:1055D0008830019308BD00002002030008B5034B8A
:1055E0001B68D3F89430019308BD0000200203002B
:1055F00008B5034B1B68D3F8A830019308BD000021
:105600002002030008B5024B1B685B68019308BDCC
:105610004002030008B5024B1B689B68019308BD5C
:105620004002030008B5024B1B68DB68019308BD0C
:105630004002030008B5024B1B681B69019308BDBB
:105640004002030008B5024B1B685B69019308BD6B
:105650004002030008B5024B1B689B69019308BD1B
:105660004002030008B5024B1B68DB69019308BDCB
:105670004002030008B5024B1B681B6A019308BD7A
:105680004002030008B5024B1B681B6B019308BD69
:105690004002030008B5024B1B685B6B019308BD19
:1056A0004002030008B5024B1B681B6C019308BD48
:1056B0004002030008B5024B1B685B6C019308BDF8
:1056C0004002030008B5024B1B68DB69019308BD6B
:1056D0004402030008B5024B1B68DB6B019308BD55
:1056E0004402030008B5024B1B681B68019308BD08
:1056F0001C02030008B5024B1B685B68019308BDE0
:105700001C02030008B5024B1B689B68019308BD8F
:105710001C02030008B5024B1B68DB6B019308BD3C
:105720001C02030008B5024B1B685B6C019308BDAB
:105730001C020300002240681146FFF79BBF0022B5
:1057400040681146FFF7A6BF40680022FFF79ABFE6
:105750004068002281F00101FFF784BF0023406808
:105760001A461946FFF776BF002340681A461946C5
:10577000FFF768BF002240681146FFF75BBF0022B9
:1057800040681146FFF746BF406800220221FFF73C
:1057900049BF002340681A46FFF734BF024B03227B
:1057A0005A60024A1A60704750E60320BC7C0D0024
:1057B0000021FFF7A9BE0021FFF7AEBE10B50446D9
:1057C00008462170FFF788FE00236360204610BD65
:1057D00010B504460078FFF7EBFF48B920784FF684
:1057E000FF71FFF751FE2078BDE81040FFF7E3BFDF
:1057F00010BD13B5044600780191FFF7D9FF019958
:1058000040B92078FFF748FE207802B0BDE810408C
:10581000FFF7D1BF02B010BD13B504460078019167
:10582000FFF7C6FF019940B92078FFF73DFE2078C9
:1058300002B0BDE81040FFF7BEBF02B010BD0000CF
:10584000400830B51860002418688842E5B206D9CF
:105850000134082C02D040081860F5E70725024BF8
:105860005B5D137030BD00BFF07C0D002DE9F04191
:1058700088B000230446007802930E461746FFF7CF
:1058800097FF054600BB94F800800146142203A848
:1058900002F07AF90B232A4603A94046ADF80C30F2
:1058A000FFF72AFE04988DF8075002AB0DF10702AE
:1058B00007FB06F1FFF7C4FF20789DF80710FFF7FC
:1058C000FBFD2078FFF777FF029808B0BDE8F08174
:1058D00008B50078FFF7F8FDC0B208BD10B5044662
:1058E000006818B1FFF706FF0023236010BD10B554
:1058F0000446FFF7F3FF204610BD38B5B1F9043078
:1059000083800B460D4653F8062FC0F806209B886F
:1059100043810446FFF7E2FF2B6813B123600023A5
:105920002B60204638BD000038B50C460546FFF711
:10593000D5FF44B12088FFF7D5FE286028B1228822
:10594000214602F013F9002038BD0148FCE700BFF2
:10595000FCFEFFFFF0B52D4D0B7D04468BB00846D5
:10596000AF1D002B38D00B681B79002B34D00022E0
:10597000274B049302A904300292ADF80C208DF855
:105980000E20FFF735FEDDF80E30C5F8063000B208
:10599000BDF81230ADF80C00A8800299BB802846F3
:1059A000FFF7C2FF02A8FFF799FF00232360A3803F
:1059B000A37123814FF6FF736381B5F90430A3808F
:1059C0003B68C4F80630BB88296863812046FFF72E
:1059D000ABFF20460BB0F0BD00262023CDE90236F8
:1059E0000C4B00930C49334602AA3220FFF7D4FD3A
:1059F000074B049302A94FF6F263044802968DF810
:105A00000E60ADF80C30FFF778FFCBE758E60320C7
:105A10000000FFFFFF7C0D00F87C0D0010B5094B66
:105A2000094C022200201A60084B2060A080A0715F
:105A3000A360FFF7B9FD2046054A0649BDE81040BE
:105A400001F058B964E6032058E603200000FFFF88
:105A500088E50320EF580D0010B5044602F0D2F897
:105A6000013823182046834206D90278197800F8B5
:105A7000011B03F80129F6E710BD70B50C46911E15
:105A80002229054622D820466DB1B5FBF2F602FB6D
:105A90001655E9B2092D94BF30315731C9B200F81B
:105AA000011B3546F0E7024623443021934202D9D8
:105AB00002F8011BFAE71A1A834238BF00220023BA
:105AC00083542046FFF7C8FF204670BD0020FCE746
:105AD00070B586B0064601AD684600F0EFFA0FCD0E
:105AE000341D0FC42B682370304606B070BD000013
:105AF0002DE9F04757EC106B80460C4610EE100A6B
:105B000000220023394601F041FE28B107F100438D
:105B10001F462D2304F8013B00234FF001090A2200
:105B2000D9B2884503D902FB09F90133F8E74846A1
:105B300001F050FB32463B4601F0B6FB06460F46ED
:105B400001F084FE05468A4601F078FB02460B46CA
:105B50003046394601F0F0F9134B002201F02AFEDD
:105B600010B101354AF1000A4A462846D31751467A
:105B700001F054FE0123154621460A22FFF77DFF5E
:105B8000B8F1000F0DD0204602F03CF82E2321186A
:105B900023540A22434628460131BDE8F047FFF767
:105BA0006CBFBDE8F08700BF0000E03F10B50446C1
:105BB0000068FFF79FFD204610BD10B50446006841
:105BC00008B1FFF797FD0023C4E90133236010BD3E
:105BD00038B504460D4600680131FFF793FD10B15A
:105BE000C4E90005012038BD10B50368044623B19F
:105BF00043688B4201D3012010BD2046FFF7E8FF28
:105C00000028F9D0A368002BF5D122681370F2E7C1
:105C100037B50D46114601920446FFF7E5FF019A9C
:105C200028B92046FFF7C9FF204603B030BDA26067
:105C30002946206801F09AFF2268A3680021D15408
:105C4000F2E7002313B5C0E9003304468360037311
:105C500041B10846019101F0D5FF01990246204665
:105C6000FFF7D6FF204602B010BD884210B50446AB
:105C700005D00B682BB18A681946FFF7C9FF20468B
:105C800010BDFFF79AFFFAE713B5044659B108466D
:105C9000019101F0B7FF019902462046FFF7B8FFD6
:105CA000204602B010BDFFF788FFF9E710B50446A3
:105CB0008AB000230846C4E90033A360237301A916
:105CC000C0B2FFF715FF01A92046FFF7DDFF204610
:105CD0000AB010BD70B505460E4609B9002070BD6A
:105CE0006AB1846814442146FFF77EFF0028F5D08E
:105CF0002868AB683146184401F07CFFAC60012095
:105D0000EDE710B58A6809680446FFF7E3FF10B9AC
:105D10002046FFF752FF204610BD13B5044629B9AF
:105D20002046FFF74AFF204602B010BD0846019109
:105D300001F068FF019902462046FFF7CBFF0028DB
:105D4000EED0F0E710B50446006808B1FFF7B4FAEA
:105D5000204610BD10B58368044613B103220146E6
:105D60009847204610BD000010B5064C0023204681
:105D70002360FFF799FA2046034A0449BDE8104022
:105D800000F0B8BF68E6032088E50320455D0D00FC
:105D9000F8B506460D468F180024BD420CD0336876
:105DA00015F8011B9B6830469847031E01DB1C4415
:105DB000F3E7002C08BF1C462046F8BD13B5044687
:105DC000084659B1019101F01DFF23680199DB6874
:105DD0000246204602B0BDE81040184702B010BD90
:105DE00003689B68184738B50D210546FFF7F8FF93
:105DF0000A2104462846FFF7F3FF204438BD30B59A
:105E00008BB000238DF82430012A98BF0A2209ACF8
:105E10000D46B1FBF2F101FB125303F0FF03092B16
:105E200094BF30333733DBB2AA4204F8013DEFD9D7
:105E30002146FFF7C3FF0BB030BD002340681A4670
:105E40001946FFF7FFBB0000014B024A1A6070477A
:105E50006CE60320307D0D00024B1A68024B1A607D
:105E6000704700BF20E5032070E603200021FFF704
:105E7000A3BB10B50446FFF76DFF204610BD000020
:105E80000348044A04490023836000F033BF00BF85
:105E900074E6032088E50320735E0D00014B186053
:105EA000704700BF24E5032008B50B4B43B100F059
:105EB00071F903681B699847002801DDAFF3008082
:105EC000064B43B100F0E4F903681B6998470028CA
:105ED00001DDAFF3008008BD0000000000000000FD
:105EE00008B5FFF7E1FFFFF7BFF9014B186008BDE8
:105EF000D4E703200248034A0349121A01F036BED0
:105F000000F4032004F4032008800D0007B50023EB
:105F100000931A466FF07701FFF760FB03B05DF85E
:105F200004FB000007B543880A2B08D0502B0BD187
:105F3000094B1B684BB103B05DF804EB1847FFF742
:105F4000E5FF03B05DF804FB002300931A466FF0F1
:105F50007701FFF743FBF4E788E6032038B5124CDE
:105F60001248134D0021FFF7DDFB2368AB42114BB4
:105F70000CBF012200221A7002D0FFF7BBFF256080
:105F8000FFF76AF9044601F007FE0B4B13B12046F8
:105F9000AFF3008000210848FFF79CFBBDE83840C4
:105FA00006480021FFF710BB00F403209D5E0D00A2
:105FB0001E1C279A84E6032000000000255F0D00C8
:105FC000704710B51821044600F099FE204610BD18
:105FD000F0B5037D062B8DB00E4600F104074FF09F
:105FE000000412D000F1080515F8011D0A22304600
:105FF000FFF705FFAF42044419D0002CF4D02E2146
:106000003046FFF7EDFE0444EEE72F236A4639469B
:106010000A208DF80040FFF757F9684601F0F2FDBD
:1060200033680246DB686946304698470446204696
:106030000DB0F0BD10B5054B0446112240F8043BED
:10604000002101F0A1FD204610BD00BF587D0D00CC
:106050000346074A10B543F8042B01F1100251F82A
:10606000044B43F8044B9142F9D10A781A7010BDE1
:10607000587D0D00037D042B04D14068003818BF03
:1060800001207047062B07D143683BB983682BB9C1
:10609000C3681BB90069F1E7002070470120704711
:1060A00010B59DF8084044EA032343EA024242EA5D
:1060B000016104234160037510BD000013B5054B59
:1060C0000360CB7800938B784A780978FFF7E8FF74
:1060D00002B010BD587D0D0041747047704708B57F
:1060E0000021007CFFF740FA40EAE07008BD08B5E7
:1060F0000121007CFFF738FA40EAE07008BD08B5DE
:10610000007CFFF729FA20EAE07008BD08B5007CA2
:10611000FFF71AFA20EAE07008BD13B50446007CC8
:106120000191FFF719FA0028019901DC607C20B188
:10613000207CFFF721FA20EAE07002B010BD007C5D
:10614000FFF722BA10B51421044600F0D8FD20460E
:1061500010BD000010B54FF47A73044608460021C4
:10616000C4E90113044B23600123207463741146B6
:10617000FFF7DAF9204610BD6C7D0D00007C00228F
:10618000FFF7DAB910B514220446002101F0FCFC37
:10619000204610BD10B5104C88B003A8FFF7F2FFE1
:1061A0002178BFF35B8F11F0010111D120460191DD
:1061B000FDF779FF019958B103AA0848FFF7CAFF14
:1061C0002046FDF775FF064A0649044800F092FD97
:1061D000024808B010BD00BF8CE6032090E6032003
:1061E00088E50320DD600D0070474174704708B5F5
:1061F000007CFFF7B9F820EAE07008BD08B5007C24
:10620000FFF78AF820EAE07008BD08B5007CFFF7C8
:1062100093F840EAE07008BD08B5007CFFF784F809
:1062200040EAE07008BD007CFFF78EB837B5457CCA
:1062300004462DB1207C03B0BDE83040FFF764B8C0
:10624000007C0191FFF790F800280199F2DC2846C4
:1062500003B030BD10B51421044600F050FD2046B7
:1062600010BD000010B54FF0000C04460846114662
:106270004FF47A72C4E901C2044A226001222074F8
:1062800062741A46FFF738F8204610BD9C7D0D0059
:1062900013B50E4C2178BFF35B8F11F0010112D1C1
:1062A00020460191FDF7FFFE019960B1084A094BB4
:1062B0000948FFF7D7FF2046FDF7FAFE074A0849CD
:1062C000054800F017FD044802B010BDA4E6032005
:1062D000A8E603202CE70320B0E7032088E503208D
:1062E000E9610D007047F8B5064615460C468F1853
:1062F000BC4206D0336814F8011B9B6830469847AF
:10630000F6E72846F8BD007C0022FFF74DB8007C78
:106310000021FFF751B8007C0021FFF755B8007C41
:106320000021FFF759B8007C0021FFF75DB810B5D8
:106330001421044600F0E3FC204610BD10B54FF4D4
:106340007A73044608460021C4E90113034B236015
:1063500020741146FFF758F8204610BDCC7D0D0083
:106360000023007C1A461946FFF706B87FB50022C5
:106370001423CDE90122ADF804300B788DF80830F4
:106380004B680393CB680493007C0B7A059301A9B7
:10639000FFF742F807B05DF804FB1FB5003B8DF82E
:1063A00000104FF06401039118BF01236946019268
:1063B0008DF80830FFF7DAFF05B05DF804FB012324
:1063C000FFF7EBBF007C0022FEF7DEBFC9B2FFF78C
:1063D000F9BF007C0022FEF7DFBF0121FFF7F9BF04
:1063E00013B503688DF80710DC6B01224FF0FF3303
:1063F0000DF10701A04702B010BD10B40368DC6BBB
:106400004FF0FF33A4465DF8044B604713B51346C5
:1064100002688DF80710D46B0DF107010122A04727
:1064200002B010BD704738B543691A68002A0546A6
:1064300010DAB3F88620B3F884309A420AD10368A0
:106440001B699847044628B92B682846DB6A984799
:10645000204638BD0120FCE743691868C043C00FDF
:1064600070477047064B994210B500F10C0405D0F7
:10647000084600F04BFC002808BF0024204610BD51
:10648000287D0D0010B5AC21044600F038FC2046F4
:1064900010BDFDF704BE2DE9F0414FF0000886B0B5
:1064A0001D46C0F8048004460E4617464146102299
:1064B00002A801F069FB6B1C09D04FF47A70B5FBA0
:1064C000F0F3CDE9023800FB1353584304906069A0
:1064D00010230093006802AB41F2050240F6FF7101
:1064E000FEF7A2FF002807DAFFF714F903686360DC
:1064F000002006B0BDE8F0816069002300683A46DC
:106500003146FEF7B1FF031EEEDB1846F1E700004F
:1065100038B584690A4B036005467CB16368013B6A
:1065200063605BB9236820469B689847A368013B7A
:10653000A3601BB923682046DB689847284638BD0E
:10654000207E0D0010B50446FFF7E2FF20461C2117
:1065500000F0D5FB204610BD70B54D69054B0446D3
:106560008C3544F8043B06460FCD0FC42B682370CE
:10657000304670BD587D0D0010B54369B3F88620D4
:10658000B3F884309A42044605D06369B3F8842096
:106590001344187910BD03681B6998470028F4D18B
:1065A0004FF0FF30F6E710B54369B3F88620B3F833
:1065B00084309A42044608D06369B3F88420511CA1
:1065C000A3F884101344187910BD03681B69984719
:1065D0000028F1D14FF0FF30F6E7F8B543691746D0
:1065E000B3F88620B3F884309A4205460E4616D09A
:1065F0006969B1F88430B1F88640E41ABC4228BF1A
:106600003C46043322461944304601F0AFFA6A6929
:10661000B2F884302344A2F884302046F8BD0368E1
:106620001B6998470028E3D14FF0FF34F5E7426932
:106630000023A2F884304269A2F8863070472DE921
:10664000F0411F4603680C46DB6A8AB005461646D1
:106650009847237DD5F81480042B0CBF02200A2014
:1066600006220121FEF708FFC8F800006B691B68CD
:10667000002B08DA2B682846DB6A0024984720465E
:106680000AB0BDE8F0812846FFF7D1FFB7B100237B
:1066900003A9F8B20393ADF81030FEF7D5FD00283A
:1066A000E8D1686906230093006803AB41F20B024E
:1066B00040F6FF71FEF7B8FE0028DBD11C22002156
:1066C00003A801F061FA237D042B1DD14FF4077359
:1066D0003046ADF80C30FEF707FEADF80E006068EE
:1066E000FEF7FAFD04906B691C22186803A9FEF7F7
:1066F000ABFE0028BED104340FCC6D698C350FC5BC
:1067000023682B700124BAE740F61C233046ADF80D
:106710000C30FEF7E9FD05AEADF80E00231D04F1C7
:10672000140718685968324603C20833BB4216463C
:10673000F7D1D8E730B54269B2F886308BB004465D
:106740002BB1B2F884209A4201D1FFF770FF616942
:106750000868002818DBB1F886507F2D14D8043162
:106760000823C5F180022944FEF776FE002813DDD8
:106770006369B3F886200AB9A3F884206369B3F883
:1067800086201044A3F886006369B3F88600B3F846
:106790008430C01A0BB030BDFEF7BCFF03680B2B72
:1067A000F2D0FEF7B7FF03680B2BEDD020230025B6
:1067B000CDE90235FEF7AEFF03680193084B0949A6
:1067C000009302AA2B463220FEF7E6FE63691868A2
:1067D000FEF732FE63694FF0FF321A60D4E700BF64
:1067E000EC7D0D00F87C0D0010B543690446186877
:1067F000002801DBFEF720FE63694FF0FF321A60CC
:106800006069112200218C3001F0BEF92046BDE8FC
:106810001040FFF70CBF10B5002304460160C0F81C
:1068200084308830FFF706FC204610BD73B5002386
:106830004FF47A72C0E901320E4A0361026043618B
:106840000446AC200191FDF726FC051E05F10C065F
:1068500008D00123C5E90133074B01992B6030466D
:10686000FFF7D9FF2046C4E90565FFF7E0FE02B057
:1068700070BD00BF207E0D00047E0D0010B54FF0EE
:10688000FF310446FFF7D2FF204610BD10B5044685
:106890000068002801DBFEF7CFFD204610BD0C305C
:1068A000FFF7F4BF2DE9F0439846036893B00D4617
:1068B0000024DB6A06461746984728466B46224660
:1068C00021460094FEF798FC0546002863D1009B02
:1068D000002B4BD05B69002B48D006A8FFF7AAFB22
:1068E000009B5C696378022B04D1211D06A8FFF789
:1068F000EFF826E00A2B24D11122294601A801F045
:1069000043F9A368002B38D004F108030DF1040CFF
:10691000183418685968624603C20833A342944683
:10692000F7D1062301A90CA88DF81430FFF790FBCE
:106930000DF1340CBCE80F0007AC0FC4DCF80030DC
:10694000237006A8FFF796FB80B1336807ADD3F834
:106950002090124B0C930FCD0DAC0FC42B682370FD
:106960003A4643460CA93046C84705460098FEF70C
:106970003BFC284613B0BDE8F083E368002BC3D18D
:106980004FF6FF70D4F81090FEF7A6FC8145BBD1FE
:1069900004F11401AAE72546E8E700BF587D0D0081
:1069A000002240681146FEF745BE002240681146AD
:1069B000FEF760BE002240681146FEF76BBE4068DD
:1069C0000022FEF75FBE4068002281F00101FEF761
:1069D00049BE002340681A461946FEF73BBE002216
:1069E00040681146FEF716BE406800220221FEF7FD
:1069F00019BE002340681A46FEF704BE024B04226B
:106A00005A60024A1A607047C4E703206C7E0D008A
:106A1000002340681A46FEF7F5BD406800220221B7
:106A2000FEF700BE002240681146FEF7F3BD0022CB
:106A300040681146FEF7FEBD002340681A4619461D
:106A4000FEF700BE002340681A461946FEF702BE54
:106A500040680021FEF726BE40680021FEF72ABEEE
:106A60004068002281F00101FEF7FCBD4068002271
:106A7000FEF708BE002240681146FEF70BBE00225A
:106A800040681146FEF7F6BD2DE9F043002495B0AD
:106A900016460D460746FFF7CDFA214618220EA8E6
:106AA000009401F071F84023CDE90C3421466B4687
:106AB0000CAA3046FEF7A0FB044600284CD1024643
:106AC00001216868FEF7B6FD02218046224668680B
:106AD000FEF7B0FD009E81462146002E3CD00029E5
:106AE0003AD17368022B03D00A2B11D0F669F4E770
:106AF000B8F1000F0AD0716906A8043107ADFFF79D
:106B0000DDFA0FCD3C1D0FC42B6823704146EDE725
:106B1000B9F1000F01D14946E8E77469102201A8D4
:106B200001F032F806238DF8143001AD04F10803AA
:106B30001834186859682A4603C20833A342154618
:106B4000F7D101A906A807ADFFF782FA0FCD3C1DCA
:106B50000FC42B682370DEE70098FEF745FB38462C
:106B600015B0BDE8F0830000024B034A1A60002212
:106B70005A607047CCE70320A87E0D00232813B588
:106B800002D9002002B010BDA0F10B03022B1AD8CD
:106B9000174C2178BFF35B8F11F001010BD1204618
:106BA0000191FDF780FA019928B11248FEF706FE1F
:106BB0002046FDF77DFA0F4B1878FEF795FC00286C
:106BC000DFD10120DEE7012809D800F06BF80021B1
:106BD000007CFEF711FC80F00100C0B2D2E709385A
:106BE0000128EED8FFF754FB007CFEF7B5FBF2E777
:106BF00044E6032048E60320232838B504460D4622
:106C00000AD8FF2908D0FFF7B9FF28B12946204646
:106C1000BDE83840FEF7F8BA38BD38B504460D4631
:106C2000FEF7FAFAFF2810D0062804D84D2323FADD
:106C300000F0C30709D42046FFF7A0FF28B129467A
:106C40002046BDE83840FEF7EFBA38BD10B504461F
:106C5000FEF7E2FA031FDBB2012B08D92046FFF74B
:106C60008DFF20B12046BDE81040FEF7E5BA0020B8
:106C700010BD000038B500232025438014230446AE
:106C80000380856005610649284600F03CF8044908
:106C90006060284600F037F8E060204638BD00BF4D
:106CA000DC7E0D0030B50F4D2978BFF35B8F11F0FE
:106CB000010487B013D12846FDF7F5F978B101A892
:106CC000FFF7D8FF01AA21460748FFF737FB284600
:106CD000FDF7EEF9054A0649034800F00BF80248B3
:106CE00007B030BDD8E70320DCE7032088E50320A8
:106CF000E5620D000B460146184600F029BFFDF77E
:106D0000CEB9FDF7C8B9FDF7C8B90000014900F0D8
:106D1000F9B800BFF87E0D007FB500241023CDE93F
:106D20000234036800949E698DF8044015466B4652
:106D30001268B0479DF8043003F00603062B03BF2A
:106D4000009B2B600120204604B070BD009890424B
:106D500014BF01200620704710B5034B03600446A2
:106D600000F0CDF8204610BD387F0D0010B5044668
:106D7000FFF7F2FF20460821FFF7C1FF204610BDB4
:106D80002DE9F0411F46DDE90834DDF8188098450B
:106D90000646154607D1079900F0B4F818B1657199
:106DA0000020BDE8F0813946304600F0ABF80028FD
:106DB000F6D00123C4F800802571A371F0E738B53F
:106DC00015461C4600F09EF820B10823E360062318
:106DD0002560237138BD73B505460C4601921E46E9
:106DE00000F090F850B9032E08D82368019A5B6927
:106DF0002946204602B0BDE87040184702B070BD79
:106E000010B5034B03600446FFF7A6FF204610BDF4
:106E1000987F0D0010B50446FFF7F2FF20460C21C5
:106E2000FFF76DFF204610BDF7B5089F9742054656
:106E30000E4614460AD0A86802680897156A3146BB
:106E40002246AC4603B0BDE8F040604719460193C6
:106E500000F058F8019B0028EDD0062003B0F0BDEB
:106E60002DE9F14F0D461946DDE90A4BDDE90CA687
:106E700081461746984600F045F890B1002D3460E1
:106E8000377109DB61198A450CBF06210121B171F7
:106E9000002001B0BDE8F08F0235F9D10123B371B4
:106EA000F6E7544506D15946484600F02BF808B19C
:106EB0007771EDE7D9F808000368CDE90CA6CDE9B4
:106EC0000A4BDC693A4643462946A44601B0BDE870
:106ED000F04F60472DE9F04107460C4615461E4627
:106EE000FFF76DFF48B9B86803689F692A463346C3
:106EF0002146BC46BDE8F0416047BDE8F0817047DF
:106F000000207047814208B50ED0406803782A2BD4
:106F10000CD049680B782A2B08BF013100F060FEC5
:106F2000B0FA80F0400908BD0120FCE70020FAE734
:106F300081F0004102E000BF83F0004330B54FEA2A
:106F400041044FEA430594EA050F08BF90EA020F97
:106F50001FBF54EA000C55EA020C7FEA645C7FEA2A
:106F6000655C00F0E2804FEA5454D4EB5555B8BF4D
:106F70006D420CDD2C4480EA020281EA030382EABE
:106F8000000083EA010180EA020281EA0303362D50
:106F900088BF30BD11F0004F4FEA01314FF4801C23
:106FA0004CEA113102D0404261EB410113F0004F35
:106FB0004FEA03334CEA133302D0524263EB4303EC
:106FC00094EA050F00F0A780A4F10104D5F1200E8A
:106FD0000DDB02FA0EFC22FA05F2801841F10001E5
:106FE00003FA0EF2801843FA05F359410EE0A5F1B9
:106FF00020050EF1200E012A03FA0EFC28BF4CF0EA
:10700000020C43FA05F3C01851EBE37101F000459F
:1070100007D54FF0000EDCF1000C7EEB00006EEBAC
:107020000101B1F5801F1BD3B1F5001F0CD3490836
:107030005FEA30004FEA3C0C04F101044FEA44528D
:1070400012F5800F80F09A80BCF1004F08BF5FEA14
:10705000500C50F1000041EB045141EA050130BDF4
:107060005FEA4C0C404141EB0101013C28BFB1F506
:10707000801FE9D291F0000F04BF01460020B1FA51
:1070800081F308BF2033A3F10B03B3F120020CDA24
:107090000C3208DD02F1140CC2F10C0201FA0CF002
:1070A00021FA02F10CE002F11402D8BFC2F1200C67
:1070B00001FA02F120FA0CFCDCBF41EA0C0190401D
:1070C000E41AA2BF01EB0451294330BD6FEA040466
:1070D0001F3C1CDA0C340EDC04F11404C4F1200251
:1070E00020FA04F001FA02F340EA030021FA04F363
:1070F00045EA030130BDC4F10C04C4F1200220FABA
:1071000002F001FA04F340EA0300294630BD21FAF7
:1071100004F0294630BD94F0000F83F4801306BFBD
:1071200081F480110134013D4EE77FEA645C18BFB1
:107130007FEA655C29D094EA050F08BF90EA020F48
:1071400005D054EA000C04BF1946104630BD91EA40
:10715000030F1EBF0021002030BD5FEA545C05D143
:107160004000494128BF41F0004130BD14F5800482
:107170003CBF01F5801130BD01F0004545F0FE41F6
:1071800041F470014FF0000030BD7FEA645C1ABF2B
:10719000194610467FEA655C1CBF0B46024650EA62
:1071A000013406BF52EA033591EA030F41F400218E
:1071B00030BD00BF90F0000F04BF0021704730B514
:1071C0004FF4806404F132044FF000054FF00001E9
:1071D00050E700BF90F0000F04BF0021704730B5AA
:1071E0004FF4806404F1320410F0004548BF40427F
:1071F0004FF000013EE700BF42004FEAE2014FEAD4
:1072000031014FEA02701FBF12F07F4393F07F4FAE
:1072100081F06051704732F07F4208BF704793F0B1
:107220007F4F04BF41F40021704730B54FF46074C4
:1072300001F0004521F000411CE700BF50EA0102C7
:1072400008BF704730B54FF000050AE050EA010270
:1072500008BF704730B511F0004502D5404261EBE0
:1072600041014FF4806404F132045FEA915C3FF421
:10727000D8AE4FF003025FEADC0C18BF03325FEABE
:10728000DC0C18BF033202EBDC02C2F1200300FA6F
:1072900003FC20FA02F001FA03FE40EA0E0021FA94
:1072A00002F11444BDE600BF70B54FF0FF0C4CF482
:1072B000E06C1CEA11541DBF1CEA135594EA0C0F34
:1072C00095EA0C0F00F0DEF82C4481EA030621EA6F
:1072D0004C5123EA4C5350EA013518BF52EA0335AA
:1072E00041F4801143F4801338D0A0FB02CE4FF05C
:1072F0000005E1FB02E506F00042E0FB03E54FF08C
:107300000006E1FB03569CF0000F18BF4EF0010E83
:10731000A4F1FF04B6F5007F64F5407404D25FEA7F
:107320004E0E6D4146EB060642EAC62141EA555132
:107330004FEAC52040EA5E504FEACE2EB4F1FD0C74
:1073400088BFBCF5E06F1ED8BEF1004F08BF5FEAF2
:10735000500E50F1000041EB045170BD06F00046A4
:1073600046EA010140EA020081EA0301B4EB5C0451
:10737000C2BFD4EB0C0541EA045170BD41F4801149
:107380004FF0000E013C00F3AB8014F1360FDEBF6E
:10739000002001F0004170BDC4F10004203C35DA4A
:1073A0000C341BDC04F11404C4F1200500FA05F3CD
:1073B00020FA04F001FA05F240EA020001F000426E
:1073C00021F0004110EBD37021FA04F642EB0601E4
:1073D0005EEA430E08BF20EAD37070BDC4F10C040E
:1073E000C4F1200500FA04F320FA05F001FA04F2D2
:1073F00040EA020001F0004110EBD37041F10001BE
:107400005EEA430E08BF20EAD37070BDC4F12005C8
:1074100000FA05F24EEA020E20FA04F301FA05F230
:1074200043EA020321FA04F001F0004121FA04F2D8
:1074300020EA020000EBD3705EEA430E08BF20EAA8
:10744000D37070BD94F0000F0FD101F000464000E2
:1074500041EB010111F4801F08BF013CF7D041EA64
:10746000060195F0000F18BF704703F00046520068
:1074700043EB030313F4801F08BF013DF7D043EA39
:107480000603704794EA0C0F0CEA135518BF95EAEF
:107490000C0F0CD050EA410618BF52EA4306D1D176
:1074A00081EA030101F000414FF0000070BD50EA95
:1074B000410606BF1046194652EA430619D094EA1F
:1074C0000C0F02D150EA013613D195EA0C0F05D109
:1074D00052EA03361CBF104619460AD181EA03015D
:1074E00001F0004141F0FE4141F470014FF0000015
:1074F00070BD41F0FE4141F4780170BD70B54FF0B0
:10750000FF0C4CF4E06C1CEA11541DBF1CEA13552F
:1075100094EA0C0F95EA0C0F00F0A7F8A4EB050411
:1075200081EA030E52EA03354FEA013100F0888008
:107530004FEA03334FF0805545EA131343EA1263D1
:107540004FEA022245EA111545EA10654FEA002686
:107550000EF000419D4208BF964244F1FD0404F53F
:10756000407402D25B084FEA3202B61A65EB03059B
:107570005B084FEA32024FF480104FF4002CB6EB58
:10758000020E75EB030E22BFB61A754640EA0C00D8
:107590005B084FEA3202B6EB020E75EB030E22BF18
:1075A000B61A754640EA5C005B084FEA3202B6EB59
:1075B000020E75EB030E22BFB61A754640EA9C0018
:1075C0005B084FEA3202B6EB020E75EB030E22BFE8
:1075D000B61A754640EADC0055EA060E18D04FEAA6
:1075E000051545EA16754FEA06164FEAC30343EA46
:1075F00052734FEAC2025FEA1C1CC0D111F4801F13
:107600000BD141EA00014FF000004FF0004CB6E70B
:1076100011F4801F04BF01430020B4F1FD0C88BFAA
:10762000BCF5E06F3FF6AFAEB5EB030C04BFB6EBB5
:10763000020C5FEA500C50F1000041EB045170BDA8
:107640000EF0004E4EEA113114EB5C04C2BFD4EBD5
:107650000C0541EA045170BD41F480114FF0000E59
:10766000013C90E645EA060E8DE60CEA135594EAD5
:107670000C0F08BF95EA0C0F3FF43BAF94EA0C0FD8
:107680000AD150EA01347FF434AF95EA0C0F7FF44D
:1076900025AF104619462CE795EA0C0F06D152EAA1
:1076A00003353FF4FDAE1046194622E750EA410685
:1076B00018BF52EA43067FF4C5AE50EA41047FF496
:1076C0000DAF52EA43057FF4EBAE12E74FF0FF3CFB
:1076D00006E000BF4FF0010C02E000BF4FF0010CCC
:1076E0004DF804CD4FEA410C7FEA6C5C4FEA430C45
:1076F00018BF7FEA6C5C1BD001B050EA410C0CBF94
:1077000052EA430C91EA030F02BF90EA020F0020F5
:10771000704710F1000F91EA030F58BF994208BF5C
:1077200090422CBFD8176FEAE37040F00100704719
:107730004FEA410C7FEA6C5C02D150EA013C07D170
:107740004FEA430C7FEA6C5CD6D152EA033CD3D0BB
:107750005DF8040B704700BF8446104662468C46B5
:107760001946634600E000BF01B5FFF7B7FF0028E8
:1077700048BF10F1000F01BD4DF808EDFFF7F4FF11
:107780000CBF012000205DF808FB00BF4DF808ED9C
:10779000FFF7EAFF34BF012000205DF808FB00BFBF
:1077A0004DF808EDFFF7E0FF94BF012000205DF8E1
:1077B00008FB00BF4DF808EDFFF7CEFF94BF012096
:1077C00000205DF808FB00BF4DF808EDFFF7C4FF8F
:1077D00034BF012000205DF808FB00BF4A0011D231
:1077E00012F5001211D20DD56FF47873B3EB62521B
:1077F0000ED44FEAC12343F0004343EA505323FA27
:1078000002F070474FF00000704750EA013002D19B
:107810004FF0FF3070474FF00000704753B94AB93E
:10782000002908BF00281CBF4FF0FF314FF0FF3088
:1078300000F08CB9ADF1080C6DE904CE00F024F82D
:10784000DDF804E0DDE9022304B07047D0B50C4B4D
:10785000002206460F46FFF727FDFFF7BFFF04464D
:10786000FFF7A8FC074B0022FFF71EFD02460B4660
:1078700030463946FFF760FBFFF7B0FF2146D0BD29
:107880000000F03D0000F0412DE9F047089D04465E
:107890008C46002B40F083808A42174647D9B2FAC3
:1078A00082F242B1C2F1200024FA00F091409740E8
:1078B00040EA010C94404FEA1748230CBCFBF8F651
:1078C0001FFA87FE08FB16C143EA014306FB0EF1CF
:1078D000994209D9FB1806F1FF3080F019819942CD
:1078E00040F21681023E3B445B1AA4B2B3FBF8F0AF
:1078F00008FB103344EA034400FB0EFEA64509D9F9
:107900003C1900F1FF3380F00581A64540F2028169
:1079100002383C4440EA0640A4EB0E0400261DB1A8
:10792000D4400023C5E900433146BDE8F08702B9E1
:10793000FFDEB2FA82F2002A50D1CB1B4FEA174E7B
:107940001FFA87F80126B3FBFEFC210C0EFB1C334B
:1079500041EA034108FB0CF38B4207D979180CF17B
:10796000FF3002D28B4200F2E9808446C91AA3B2EA
:10797000B1FBFEF00EFB101143EA014408FB00F8D6
:10798000A04507D93C1900F1FF3302D2A04500F20F
:10799000D9801846A4EB080440EA0C40BFE78B42AC
:1079A00009D9002D00F0B1800026C5E9000130465C
:1079B0003146BDE8F087B3FA83F6002E4AD18B42F8
:1079C00002D3824200F2B880841A61EB03010120E5
:1079D0008C46002DA8D0C5E9004CA5E7C2F12003D4
:1079E00020FA03F6974001FA02F04FEA174ED94009
:1079F0003043030CB1FBFEF61FFA87F80EFB16119D
:107A000043EA014306FB08F1994204FA02F409D95A
:107A1000FB1806F1FF3C80F08D80994240F28A808D
:107A2000023E3B445B1A81B2B3FBFEF00EFB103307
:107A300041EA034100FB08F38B4207D9791800F1B2
:107A4000FF3C73D28B4271D902383944CB1A40EAD9
:107A5000064678E7C6F1200C03FA06F422FA0CF386
:107A60001C4320FA0CF701FA06F34FEA144E21FAF0
:107A70000CF11F433B0CB1FBFEF91FFA84F80EFB1F
:107A8000191143EA014109FB08FA8A4502FA06F294
:107A900000FA06F308D9611809F1FF3048D28A4587
:107AA00046D9A9F102092144A1EB0A01BFB2B1FBF9
:107AB000FEF00EFB101147EA014700FB08F8B8453D
:107AC00007D9E71900F1FF312ED2B8452CD9023879
:107AD000274440EA0940A7EB0807A0FB02894F456D
:107AE000C64649461AD317D05DB1B3EB0E0267EB19
:107AF000010707FA0CFCF2404CEA0202F740C5E924
:107B0000002700263146BDE8F0872E4628460BE7C1
:107B10000646E9E61846FDE64345E5D2B8EB020E17
:107B200069EB04010138DFE70846D2E760468DE7DC
:107B30008146B9E7664675E730464AE7ACF1020C84
:107B4000394413E702383C4424E700BF704700BFC4
:107B500010B5054C13462CB10A4601460220AFF37E
:107B6000008010BD2046FCE7000000000A4491425E
:107B700000F1FF3300D1704710B511F8014B03F845
:107B8000014F9142F9D110BD02440346934200D106
:107B9000704703F8011BF9E738B50D4B1D68AB6B57
:107BA00004467BB91820FDF79DFD0A4A0A4BA863DD
:107BB000C0E90023094B83600B238381012200234A
:107BC000C0E90423AB6B00221C615A6138BD00BFC1
:107BD00024E503200E33CDAB34126DE6ECDE050058
:107BE00010F8012B11F8013B012A28BF9A42F7D067
:107BF000D01A7047034611F8012B03F8012B002A15
:107C0000F9D17047034613F8012B002AFBD1181A4B
:107C10000138704710B50139034632B111F8014FF0
:107C200003F8014B013A002CF7D11A44002193428A
:107C300000D110BD03F8011BF9E7000021400D0041
:107C40005D400D0085400D0089400D0000000000E2
:107C5000583A200009593A2000095A3A2000746520
:107C600073742F6D6F74696F6E616C7973697300D3
:107C70006C61622E74686577636C2E636F6D004C67
:107C80004953334448000000000000000000000099
:107C9000B9400D00FD420D00B5430D00E9480D004F
:107CA000B9430D0000044D5154540400064D514990
:107CB00073647003000000000000000093570D0083
:107CC00089570D007F570D0075570D0069570D003E
:107CD0005D570D00516A0D00596A0D0051570D0096
:107CE00049570D003F570D0035570D00896A0D00AB
:107CF0000008101820283038776972696E670053C1
:107D0000797374656D20736C65657020636F6E6642
:107D1000696775726174696F6E20697320696E7628
:107D2000616C69642E00000000000000000000008B
:107D30006170700025592D256D2D25645425483A14
:107D4000254D3A2553257A0061736374696D65008A
:107D50000000000000000000D15F0D00C15F0D00B9
:107D6000C35F0D000000000000000000DD600D009A
:107D700045610D001B610D00915D0D000D610D0051
:107D8000DF600D00EF600D003F610D00FF600D0032
:107D9000D9600D000000000000000000E9610D0046
:107DA00055620D002D620D00915D0D00FD610D000D
:107DB00019620D000B620D0027620D00EB610D00D2
:107DC000EF610D000000000000000000E5620D0002
:107DD0002F630D0007630D00E7620D000F630D00B8
:107DE00017630D001F630D0027630D007265637636
:107DF000206572726F72203D202564000000000033
:107E00000000000063640D0085640D009F680D0094
:107E100093640D0065640D00000000000000000088
:107E200011650D0045650D00E1630D00FB630D005C
:107E300035670D00A7650D0079650D0025640D00FF
:107E40003F660D00A5680D00DB650D00E9670D00BC
:107E500027640D0059640D000D640D0097640D003A
:107E600059650D000000000000000000F3690D00DE
:107E7000E9690D00DF690D00A1690D003B5E0D0091
:107E8000D3690D00516A0D00596A0D00C7690D00D4
:107E9000BF690D00B5690D00AB690D00896A0D0061
:107EA0000000000000000000116A0D001B6A0D00B8
:107EB000256A0D002F6A0D00396A0D00456A0D0014
:107EC000516A0D00596A0D00616A0D006D6A0D005E
:107ED000756A0D007F6A0D00896A0D0000537431C8
:107EE000395F53705F6D616B655F73686172656464
:107EF0005F74616700000000387F0D00DD7E0D00BB
:107F0000987F0D000C7F0D00BC7F0D004E31305F5F
:107F10005F637878616269763131375F5F636C6186
:107F200073735F747970655F696E666F45000000FA
:107F300000000000007F0D00596D0D006D6D0D00FB
:107F4000016F0D00016F0D00D76D0D00196D0D0053
:107F5000BF6D0D00816D0D004D6D0D00987F0D0002
:107F6000687F0D00007F0D004E31305F5F637878D1
:107F7000616269763132305F5F73695F636C617330
:107F8000735F747970655F696E666F45000000000D
:107F9000000000005C7F0D00016E0D00156E0D00ED
:107FA000016F0D00016F0D00D76D0D00196D0D00F3
:107FB000D56E0D00616E0D00296E0D00387F0D002D
:107FC000C47F0D00537439747970655F696E666F94
:107FD000000000000D430D009D570D001D5A0D00BF
:107FE000695D0D00495E0D00595E0D00815E0D005A
:107FF000FD690D00696B0D0000000000000000002D
:0880000088F8FF7F0100000079
:048008000000000074
:10800C00487D0D0028E50320000000000000000062
:10801C000000000000000000000000000000000054
:10802C000000000000000000000000000000000044
:10803C000000000000000000000000000000000034
:10804C000000000000000000000000000000000024
:10805C000000000000000000000000000000000014
:08806C0000000000000000000C
:10807400FFFFFFFF00000102030405060708090AC9
:108084000B0C0D0E0F101112131415161718191AC4
:088094001B1C1D1E1F2028000B
:04809C0078563412CC
:04000003D0004020C9
:00000001FF
