:02000002D0002C
:1040000000400D00DCB10D00000006000C000501B1
:084010000401BD0B00000000DB
:0440180008A50D00EA
:10401C0009480A49884208B505D0094A824202D0AB
:10402C00121A06F041F90748074A0021121A06F045
:10403C0063F9014808BD00BFB4DE03201CB10D00BC
:10404C0048DF032048DF0320F0E7032070B5074E5C
:10405C00074C04F05BFAA41BA4080025A54200D170
:10406C0070BD56F8043B98470135F7E7E8B00D00F2
:10407C000CB10D0000F0EAB808B500F0E5F9BDE8A8
:10408C00084004F005BA02F09FB902F09DB902F0A5
:10409C00A3B90078B0FA80F040097047012303708F
:1040AC007047704710B50446043002F04DFC2046B2
:1040BC0010BD10B504463C3002F046FC04F128005B
:1040CC0002F042FC204602F03FFC204610BD0000EE
:1040DC0008B5074B00221A6004F048FB054904F0B0
:1040EC0046F8BDE808400121072005F0B8B800BF2C
:1040FC00B0DF03201FA50D0008B504F037FB044901
:10410C0004F035F8BDE808400021072005F0A7B8F9
:10411C001CA50D0038B50446006928B185680C2132
:10412C0005F025F92846F8E7204638BD07B50022EA
:10413C000DF1070101208DF8072002F05FF89DF8C2
:10414C000700003818BF012003B05DF804FB08B568
:10415C0002F00AF920B1BDE80840002002F00CB9C9
:10416C0008BD10B504220C4601F0DCFD204610BD44
:10417C0038B584690A4B036005467CB16368013B22
:10418C0063605BB9236820469B689847A368013B32
:10419C00A3601BB923682046DB689847284638BDC6
:1041AC0034AE0D0010B50446006808B102F014F9E5
:1041BC00204610BD002340681A46194602F06CB820
:1041CC00002340681A46194602F06EB80023406876
:1041DC001A4602F041B800224068114602F054B869
:1041EC0070B5037D05460E46CBB10368DB6823B181
:1041FC009A88042A17D09B68F9E70C49102005F01F
:10420C00B8F8044668B11022002106F075F8084B86
:10421C0023600423A3802B692C61C4E90236284651
:10422C0070BD2875FBE7DE60F9E700BFF0AE0D004E
:10423C001000030008B501F065FD034B1860BDE8E4
:10424C00084002F081B800BFCCE7032010B596B04F
:10425C00FFF76CFF05F030F84C49C820FFF781FFE1
:10426C004B4B1A7D0AB102221A7240F2A231484815
:10427C00484CFFF7B5FF04F079FA4FF4165104F0EF
:10428C0069FA1821444801F07EF905F043F804F06E
:10429C0059FB1921404801F076F93F48032101F000
:1042AC0049F93D48052101F05DF90121082004F090
:1042BC00C5FF0121082004F0D2FF3849204602F046
:1042CC00D6FB40F6B8333649A36304F1280002F05C
:1042DC00CEFB03F0FDF803F049F903F0F9F8314A8D
:1042EC0001460DA803F0E6FD0DA803F0DEF903F07E
:1042FC00EFF82D4A01460DA803F0DCFD0DA803F0E4
:10430C00D4F90DA802F05FFF284903A802F05EFE65
:10431C0003A908A802F05AFE08A802F09DFE044664
:10432C0008A854BB02F0B7FE0094ADF80A000223B3
:10433C000DF10A0203210DA802F03AFF03F0C8F8B0
:10434C000DA9002203F032F903F0C2F8184900223B
:10435C0003F0A6FC03F0BCF80022164903F0B6FCEF
:10436C000121072004F06AFF134B00221A6001F0B0
:10437C00C9FC124B186016B010BD02F091FE002360
:10438C000093024610230721D5E700BF2CE603203B
:10439C0098DF03207CE50320E4E3032029A50D002E
:1043AC0039A50D0010E60320DCE5032058DF0320BF
:1043BC00DD400D0005410D00B0DF032004E60320B5
:1043CC00F0B5164691B00022C0E9002204460D4615
:1043DC000BAF194606A802F0F9FD1699384602F003
:1043EC00F5FD33788DF81430189B0293179B2046FB
:1043FC00CDE9007305AA06AB294603F0EDFB204678
:10440C0011B0F0BDF8B505460C4616464AB903681E
:10441C00C9B29B6898470746284603F09CFE38446F
:10442C00F8BD00290CDA0A2A0AD12D2103F08AFEE4
:10443C0061420746F2B2284603F0A3FE0744EBE7BD
:10444C0021460027F6E700002DE9F043094C97B010
:10445C00FFF7F0FE25787DB101F086FF20B9FFF75C
:10446C00E9FE01F079FFF7E700232370FFF7E2FE86
:10447C00FCE700BF3CE5032001F044FCBE4B186098
:10448C00BE4BA0F5EA401B682F38984200F33482EB
:10449C00BB4B1B78002B00F02C82BA4C25782DBB23
:1044AC00FFF7C8FEB848FFF785FE2946B648B64D5B
:1044BC00FFF78CFE2846FFF78EFE0028FAD001F09D
:1044CC004BFFFFF744FE41F2883003F0A7FFFFF7E4
:1044DC00B1FE002312A8CDE912338DF8503004F050
:1044EC0047F8A948FFF76CFE0123237004F0E4FEA3
:1044FC00A6490020FFF735FE04F0DEFEA449642037
:10450C00FFF72FFE04F0D8FEA249C820FFF729FEC2
:10451C00A14B1A7D0AB102221A729D4D9F4C29683B
:10452C009D489F4EDFF8B8829E4F4639FFF758FEE4
:10453C00204601F079F803F057FF0A22014612A831
:10454C0002F0BAFA12A9984802F089FA12A802F0FD
:10455C00FBF904F00BF994ED030A022103F003FFBD
:10456C0004F004F994ED040A022103F0FCFE04F0BB
:10457C00FDF894ED050A022103F0F5FE94ED036AB3
:10458C00D6ED007AD4ED046A76EE677AB6EE007A50
:10459C00F5EEC07AF1EE10FAD8BFF1EE677AF4EED0
:1045AC00C77AF1EE10FA22DCD8ED007A76EEE77AD3
:1045BC00F5EEC07AF1EE10FAD8BFF1EE677AF4EEB0
:1045CC00C77AF1EE10FA12DCD4ED057AD7ED005A69
:1045DC0077EEE57AF5EEC07AF1EE10FAD8BFF1EE8F
:1045EC00677AF4EEC77AF1EE10FA40F396816F4BCE
:1045FC006F4986ED006A01221A7002A86369C8ED42
:10460C00006A3B6002F0EBF9604B0A22196806A8BD
:10461C0002F03FFA06A902A802F0A3FA654902F0DB
:10462C00ACFA94ED030A814606210AA802F057FA67
:10463C000AA9484602F095FA5F4902F09EFA94EDF9
:10464C00040A814606210EA802F049FA0EA9484632
:10465C0002F087FA584902F090FA0621814694ED4F
:10466C00050A12A802F03BFA12A9484602F079FAA0
:10467C005249534C02F081FA4B4902F072FA5149FB
:10468C0002F07BFA0146504802F05AFA12A802F0E6
:10469C005BF90EA802F058F90AA802F055F906A821
:1046AC0002F052F902A802F04FF904F05FF8474902
:1046BC0003F05DFD04F05AF896ED000A354E022128
:1046CC0003F051FE04F052F898ED000A022103F0B9
:1046DC004AFE04F04BF897ED000A3B4F022103F021
:1046EC0042FE04F043F8396803F041FD04F03EF853
:1046FC00374B196803F03BFD04F038F8234B0A22C2
:10470C001968FFF77FFE04F031F829680A22FFF7D9
:10471C0079FE04F02BF831680A22FFF773FE04F0DF
:10472C0025F821680A22FFF76DFE02F0D1FE03F096
:10473C009BF802F0CDFE03F031F812A8164901F0F7
:10474C007DFF129808B101F047FE01F0DBFA214B16
:10475C001860214B1B68C01A204B20601A68002A75
:10476C00984600F3C0800848074CFFF723FD064825
:10477C000021FFF72BFD35E008E6032004E60320BB
:10478C0094DF03200CE60320BCE70320B4DF0320F6
:10479C00D4DE0320D8DE032098DF0320E4E30320DB
:1047AC0070E5032078E5032018E6032028E60320B3
:1047BC003BA50D0044A50D0061A50D0050A50D00F5
:1047CC00FCE5032060A50D0050E5032063A50D005A
:1047DC0060E50320F8E50320F4E503202CE6032034
:1047EC0074E503202046FFF7F6FC0028FAD001F010
:1047FC00B3FDFFF7ACFC4FF47A7003F00FFEFFF73C
:10480C0019FD03F0B3FF00230446002212A9002077
:10481C00CDE9122301F0C0FD0A220146204603F027
:10482C00B0FC204603F097FC03F0A0FF814603F098
:10483C00DBFD041E80F2A8802D21484603F082FC8B
:10484C0061420A22484603F09CFC484603F083FC74
:10485C00B9684E484E4F013902F009FA4D4912A879
:10486C0002F0BDF8494912A802F07BF94A4902F05E
:10487C0084F90146494802F0E3F812A802F064F802
:10488C00474B4849484800933A46484B01F004F8D6
:10489C0003F06CFF3B684649194403F068FC03F0D5
:1048AC0065FF4449044612A802F099F8391D12A874
:1048BC0002F057F90168204603F059FC12A802F0E7
:1048CC0043F83D49314802F0D2F83368C8F800305B
:1048DC0012A80023CDE912338DF8503003F048FEB6
:1048EC003648FFF76DFCD8F800302A689B1AC8F8D8
:1048FC00003017B0BDE8F083304B2A465868294683
:10490C0001F0EAFC00283FF4C3AD02F0E1FD02F037
:10491C0060FE00287FF4BCADBFE5294902A802F077
:10492C005EF8284B0A22196806A802F0B2F806A90C
:10493C0002A802F016F9244902F01FF996ED000ABC
:10494C00044606210AA802F0CAF80AA9204602F079
:10495C0008F91E4902F011F998ED000A04460621E7
:10496C000EA802F0BCF80EA9204602F0FAF817497E
:10497C0002F003F90621044697ED000A12A802F092
:10498C00AEF812A9204671E621465AE750E50320FD
:10499C00C8E5032075A50D007FA50D00B8E5032023
:1049AC0082A50D007CE50320B8DF0320B4DE0320D4
:1049BC0087A50D0090A50D008DA60D00BCE703206A
:1049CC003BA50D00B4DF032044A50D0061A50D002F
:1049DC0038B505464AB90268C9B292689047044690
:1049EC00284603F0B8FB204438BDD2B203F0C9FB13
:1049FC00F5E738B5054642B903689B689847044605
:104A0C00284603F0A8FB204438BDD2B203F0B9FB12
:104A1C00F5E700002DE9F04F0E4695B0A94D044680
:104A2C0003F0A4FE0A223146FFF7D2FFA649A7489D
:104A3C0002F01DF82B68072B00F2C980DFE813F099
:104A4C000E0198007F006C00520038001B0008001B
:104A5C009E4F26440134B44200F0BB8203F086FE24
:104A6C0014F8011C0A22FFF7C4FF14F8011C384685
:104A7C0002F06AF8EEE7964FDFF8508226440134D4
:104A8C00B44200F0828203F071FE0A2214F8011C79
:104A9C00FFF7AFFF14F8011C8C4802F055F8D8F85A
:104AAC00000005F0CDFB4FF47A7358433860E6E70D
:104ABC00884FDFF8188226440134B44200F01B8280
:104ACC0003F054FE0A2214F8011CFFF792FF14F8AD
:104ADC00011C7E4802F038F8D8F8000005F0B0FB55
:104AEC003860E9E77C4FDFF8E48126440134B442B6
:104AFC0000F0C48103F03AFE0A2214F8011CFFF7FF
:104B0C0078FF14F8011C714802F01EF8D8F8000068
:104B1C0005F096FB3860E9E76C4F26440134A64259
:104B2C0000F04C8103F022FE14F8011C0A22FFF75E
:104B3C0060FF14F8011C384602F006F8EEE7634FEC
:104B4C00DFF8C88126440134A64200F0E38003F06C
:104B5C000DFE14F8011C0A22FFF74BFF14F8011C80
:104B6C00384601F0F1FF3946404601F069FFEAE7AB
:104B7C00564FDFF8748126440134A6422DD014F828
:104B8C00011C384601F0E0FF3946404601F058FF61
:104B9C0003F0ECFD14F8011C0A22FFF72AFFEBE7E7
:104BAC00382101FB03A104314C4801F060FF03F0F4
:104BBC00DDFDA1680A22FFF70BFF48494848002297
:104BCC0002F0C8FB47490022454802F0C8FB2B689D
:104BDC0001332B6015B0BDE8F08F434E03F0C6FDDA
:104BEC00316803F0C4FA03F0C1FDB1680A22FFF783
:104BFC00EFFE3549304601F0D5FF0446F8B10323EA
:104C0C002B60354C04F058FB21460020FFF7A9FA25
:104C1C0036493348002202F0A2FB21684C1C0BD011
:104C2C000A2201A801F035FF2D48002201A902F04B
:104C3C0091FB01A801F088FE2D490022C4E72D4903
:104C4C00304601F0AFFF0246002838D02A482346F0
:104C5C0040682246214601F04FFB2C602749204832
:104C6C00274E1E4CDFF87880DFF8A490002202F06B
:104C7C0076FB24492048052204F0B8F9214930601C
:104C8C0000278A463368013BBB4201F1380B87DDB4
:104C9C000431204601F0EBFE03F068FDA1680A2206
:104CAC00FFF796FE00222146404602F053FB494690
:104CBC000022404602F053FB01375946E2E7124905
:104CCC0082E700BFB0DF03208DA60D00D4E30320E4
:104CDC00D8DE0320D4DE0320B4DF032010E403204D
:104CEC0010E60320C3A50D00E4E5032008A60D0083
:104CFC001BA60D0041A60D00BCE7032097A50D00D7
:104D0C0020E4032024E4032047A60D0040E5032003
:104D1C00C0A50D00B84C03F029FD216803F027FA5B
:104D2C0003F024FDA1680A22FFF752FEB34B26685C
:104D3C00D3F80080B8F1000F3CD0404605F01AFBC8
:104D4C000746002E38D0304605F014FB04463822B6
:104D5C00002106A805F0D0FA4C23CDE90138A8486B
:104D6C0005940323ADF81830002301AA19464068B6
:104D7C00CDE9037601F0B8FA03F0F8FCA14904463A
:104D8C0001A801F02CFE9D4901A801F0EAFE9E4904
:104D9C0001F0F3FE984901F0E4FE9C4901F0EDFEB0
:104DAC000168204603F0E3F901A801F0CDFD984914
:104DBC00002209E74746C4E73446C8E795499648B8
:104DCC0001F0F0FE00283FF41CAF8D4C002260680F
:104DDC00114601F081FA00283FF413AF00F092FF66
:104DEC008E4E30602046FFF7E5F900212046FFF794
:104DFC00EDF9274647F2305800226068114601F061
:104E0C0033FA08B300F07EFF336843448342F3D88F
:104E1C00834B00221A7003F0A9FC824903F0A7F916
:104E2C0003F0A4FC044600F06DFF0A220146204664
:104E3C0003F0A7F9204603F08EF903F097FC3168D4
:104E4C000A22FFF7DFFA04E03846FFF7C4F900281E
:104E5C00D8D0734E6A48FFF7B3F934782CB1724945
:104E6C007248002202F07BFACBE671496F48224669
:104E7C0002F075FA01232C603370EFE66D49664839
:104E8C0001F090FE044658B904F016FA6A4904225F
:104E9C00204600F04FFF03F069FC684903F067F906
:104EAC0004F00AFA6449664C0020FFF75AF903F043
:104EBC005DFC3B686349194403F059F904F0FCF9B3
:104ECC0021466420FFF74DF95F495848002202F053
:104EDC0046FA2168481C0BD00A2201A801F0D9FD22
:104EEC005248002201A902F035FA01A801F02CFD6C
:104EFC005649002268E64F49474801F053FE28B155
:104F0C0004F0DAF94E496420FFF72BF904F0D4F9D8
:104F1C0004224B49642000F00DFF04F0CDF9484900
:104F2C006420FFF71EF94A4B1A7D0AB102221A724D
:104F3C003968484C46484639FFF752F903F016FCDD
:104F4C000A223968FFF75EFA04F0B6F92146C82048
:104F5C00FFF707F900224049344802F000FA2368B1
:104F6C005A1C0FD00A224FF47A7101A893FBF1F16D
:104F7C0001F08FFD2D48002201A902F0EBF901A8E8
:104F8C0001F0E2FC354900221EE62A49224801F0D4
:104F9C0009FE28B104F090F92E49C820FFF7E1F87A
:104FAC0004F08AF904222B49C82000F0C3FE04F057
:104FBC0083F92849C820FFF7D4F8294B3A681A60BE
:104FCC0003F0D4FB39680A22FFF71CFA25490022AA
:104FDC00FAE52549104801F0E5FD20B1FFF7A6F8E8
:104FEC00224B01221A70224B0122002107201A7039
:104FFC0004F035F9EBE500BF40E50320E4E50320C0
:10500C00BCE7032061A60D007FA60D008BA60D004A
:10501C008EA60D00C2A60D00D4E3032000E60320EB
:10502C00DCDE0320C7A60D00CFA60D0010E6032082
:10503C00D9A60D008DA60D00B4DF0320F9A60D0036
:10504C00D4DE032006A70D000DA70D003EA70D0012
:10505C0098DF0320D8DE032093A70D00C4A70D0012
:10506C002CE6032015A80D004BA80D003CE50320F1
:10507C0094DF032010B52C21044604F078F9204667
:10508C0010BD000070B5764D764BAB60002490B02F
:10509C002C60AC80AC71032001F0A0F8724A73490B
:1050AC00284604F05FF904F073F82346224643F6D1
:1050BC00393104F075F804F06BF8234622460221CE
:1050CC0004F076F86A496B486B4D01F088FC664A2F
:1050DC006A49684804F046F96549694801F07FFC63
:1050EC00614A6649664804F03DF96149654801F03A
:1050FC0076FC5D4A6149634804F034F95C496248C6
:10510C0001F06DFC584A5D495F4804F02BF9584991
:10511C005E4801F064FC544A58495C4804F022F99A
:10512C005B4800F011F9504A5A49594804F01AF9F1
:10513C0059485A49A0F809400346021D43F8092B67
:10514C009C7001230375564B4360474A0472C0E9B7
:10515C00034404F007F9534800F045FB424A524916
:10516C00504804F0FFF84249504801F038FC5048D0
:10517C0003F04CFA3E494F4801F031FC3C494E4893
:10518C0001F02DFC384A4D49484804F0EBF83849F9
:10519C004B4801F024FC344A4A494B4804F0E2F8ED
:1051AC004A494B4801F0F8FF4A494B4801F0F4FFDB
:1051BC004A494B4801F0F0FF102349498DF814304F
:1051CC0006A801F003FF42490BA801F0FFFE0BAB50
:1051DC00CDE901444349009305AA06AB4248FFF7C9
:1051EC00EFF8214A4149404804F0BCF804233A49FD
:1051FC008DF8143006A801F0E9FE35490BA801F032
:10520C00E5FE3B4B01930BAB3A490294009305AA84
:10521C0006AB3948FFF7D4F8134A3449364804F042
:10522C00A1F81349354801F0DAFB0F4A134933480A
:10523C0004F098F805243826281D3422002105F0A6
:10524C005BF8013C45F8386BF6D109492C4801F064
:10525C00C6FB054A09492A4804F084F810B070BD11
:10526C004CDF03200000FFFF48DF0320B1410D009D
:10527C008DA60D0050E5032024E4032055690D0094
:10528C0060E5032018E60320E4E5032040E5032055
:10529C00E4E30320AF400D0098DF032021410D0013
:1052AC0010000300B8DF03207D410D007CE50320D6
:1052BC008CE50320A4E50320B8E50320BF400D00D6
:1052CC00CCE50320B1400D00C8E503204FA80D002C
:1052DC0058DF032074A80D006CDF032099A80D0083
:1052EC0080DF0320BEA80D0010E60320B7760D006A
:1052FC00214A0D00C1A80D00DCE50320D4E30320F6
:10530C0010E40320704700000B4610B52822044619
:10531C000021184604F0F0FF08490B2205F032F882
:10532C0000220121C272C1600346A0695A62C3E91E
:10533C00040100229A61DA611A6210BD0FA90D00F6
:10534C000368C9B29B681847064A02604FF0FF32E7
:10535C0082614277C283FF2280F8202008224262B9
:10536C00704700BF20A90D0013B50B4C2178BFF37B
:10537C005B8F11F001010BD120460191FEF789FEE4
:10538C00019928B1054801F093F82046FEF786FEF6
:10539C00024802B010BD00BF30E6032034E6032003
:1053AC002DE9F04190F92030013305460F4606D126
:1053BC00FFF7DAFF3946BDE8F04101F003B90024EC
:1053CC0007264FF0010895F92000002180B203F068
:1053DC0046FF95F91E0008FA06F1394080B203F039
:1053EC003EFF95F92000012180B203F038FF95F9BA
:1053FC001F00640080B2E4B203F04AFF08B144F02D
:10540C000104013EDFD22046BDE8F08108B5FFF76C
:10541C00ABFF012101F067F8FFF7A6FF0549012258
:10542C0001F09EF8FFF7A0FFBDE80840002101F055
:10543C006DB800BF20A1070070B590F91D30013385
:10544C0004460E46154616D103F064FF217F03F087
:10545C00A9FA03F05FFF036831469B68984703F095
:10546C0059FF036829469B68984703F053FFBDE832
:10547C00704003F0A2BA90F92030013301D1FFF74C
:10548C00C5FF94F91D00002180B203F0E8FE06F080
:10549C007F012046FFF784FF29462046FFF780FF57
:1054AC0094F91D000121BDE8704080B203F0D7BE15
:1054BC0038B590F91D30013304460D461DD103F06B
:1054CC0029FF94F91C1003F071FA03F023FF036811
:1054DC0029469B68984703F01DFF03F06EFA03F012
:1054EC0019FF217F012203F05AFA03F013FF03681E
:1054FC005B699847C5B2284638BD90F92030013316
:10550C0001D1FFF783FF94F91D00002180B203F055
:10551C00A6FE45F080012046FFF742FF0021204601
:10552C00FFF73EFF054694F91D00012180B203F000
:10553C0096FEE0E738B50D4623210446FFF7B8FF89
:10554C0020F0300242EA05122046D2B2BDE83840C3
:10555C002321FFF771BF08B52321FFF7A9FFC0F383
:10556C00011008BD38B50D4620210446FFF7A0FFF9
:10557C0000F00F0242EA05122046D2B2BDE83840D4
:10558C002021FFF759BF10B50446017790F91D0093
:10559C00421C23D103F0BEFE03F0CEF90F212046AE
:1055AC00FFF786FF33283DD1072220212046FFF745
:1055BC0043FF07212046FFF7D5FF882223212046F1
:1055CC00FFF73AFF102222212046FFF735FF204635
:1055DC0080221F21FFF730FF012010BD012180B276
:1055EC0003F03DFE94F91D00012180B203F026FE6C
:1055FC0094F92000431C04D1FFF7B6FE00F062FFC3
:10560C00CCE7012180B203F019FE94F91E000121B0
:10561C0080B203F013FE94F91F00002180B203F056
:10562C000DFEBBE70020D8E738B590F91D300133EB
:10563C00044676D103F06EFE94F91C105C4D03F019
:10564C00B5F903F067FEA821FFF77AFE03F062FEBE
:10565C0003F0B3F903F05EFE217F062203F09FF9FD
:10566C0003F058FE03685B699847E08003F052FE34
:10567C0003685B699847E38805EA00201843E080DB
:10568C0003F048FE03685B699847208103F042FEF3
:10569C0003685B699847238905EA00201843208139
:1056AC0003F038FE03685B699847608103F032FEB3
:1056BC0003685B69984705EA002065892843608187
:1056CC002046FFF748FF032869D002286AD001283A
:1056DC006BD0002843F6FC7318BF012307EE903AF9
:1056EC00B4F9063007EE103AF8EEE77AB8EEC77A5E
:1056FC00B4F90830C7EE276A07EE103AB8EEC77A4D
:10570C00C4ED036AC7EE276AB4F90A3007EE103A03
:10571C00B8EEC77AC4ED046AC7EE276AC4ED056A11
:10572C0038BD90F92030013301D1FFF76FFE94F9A9
:10573C001D00002180B203F092FDE8212046FFF706
:10574C002FFEFF212046FFF72BFEFF21E080204695
:10575C00FFF726FEE38843EA0020E080FF21204685
:10576C00FFF71EFEFF2120812046FFF719FE23893B
:10577C0043EA00202081FF212046FFF711FEFF2184
:10578C0060812046FFF70CFE638943EA00206081AC
:10579C0094F91D00012180B203F061FD90E74FF4F4
:1057AC0000639BE74FF4805398E741F6FE7395E74F
:1057BC0000FFFF000C46054608B520220021201DE5
:1057CC0004F09AFD24232360AB6963600123A3607A
:1057DC00002323612846FFF727FFEB6863612B69E1
:1057EC00A3616B69E36110B5044603F037FB2046F7
:1057FC0010BD0000F8B50F4F054614460E4602F0DA
:10580C009DFC3946284602F099FC2146284602F0B8
:10581C00AEFC02F0ABFF314602F090FC02F0A6FFAA
:10582C00394602F08BFC02F0A1FF2146BDE8F8409E
:10583C0002F09DBC3EA60D0010B50C4602F097FC84
:10584C0002F094FF2146BDE8104002F090BC00002D
:10585C00F8B5104F054614460E4602F06FFC39465B
:10586C00284602F06BFC0A2221462846FEF7CAFDA8
:10587C0002F07CFF314602F061FC02F077FF394602
:10588C0002F05CFC02F072FF0A222146FEF7BAFD20
:10589C00F8BD00BF3EA60D002DE9F04F0E4691B0AD
:1058AC001F464FF0FF331360044600213046DDF8ED
:1058BC006880914601F076F9D6F838E00346002866
:1058CC006ED1BEF1000F14BF72465022316892B2F5
:1058DC00204603F0D7FA051E18BF0125002D7ED0F7
:1058EC000021304601F05EF900286CD102F03EFF39
:1058FC00BB4902F023FC02F039FF316802F01EFCB8
:10590C0002F034FFB74902F019FC02F02FFF0A2213
:10591C00B16BFEF777FD4146204602F00FFCB24911
:10592C00204602F00BFCB16A204602F007FCAF499E
:10593C00204602F003FC02F019FFAD4902F017FCFF
:10594C0002F014FF414602F0F9FB02F00FFFA649EA
:10595C0002F0F4FB02F00AFFB16A02F0EFFB02F076
:10596C0005FFA24902F0EAFBA249A34A2046FFF731
:10597C0041FF0021304601F015F920B932689F49EA
:10598C002046FFF737FF06F13C0A0021504601F094
:10599C0009F978BB726C9A492046FFF759FF30E041
:1059AC00984B0A9306F1140CBCE80F000BAD0FC515
:1059BC00DCF800302B701FFA8EF200230AA9204667
:1059CC0003F02DF987E702F0D1FE8F4902F0B6FB08
:1059DC0002F0CCFE06F1100102F0B7FB90E702F0EA
:1059EC00C5FE8A4902F0C3FB204603F0EDF911B065
:1059FC00BDE8F08F8649404604F0AAFC0246002818
:105A0C00C9D05FB1396849B17A6820461AB1FFF73D
:105A1C00F1FE0837F6E7FFF70FFFFAE7204602F032
:105A2C009AFB204602F0EEFF0021504601F0BAF836
:105A3C0040B9F16B204602F09AFB02F097FEF16B35
:105A4C0002F095FB02F092FE04F11C0A714902F07F
:105A5C008EFB4FF480620021504604F04DFC00F0A8
:105A6C0051F9009000F04EF900270190204603F008
:105A7C0051F90646B0B102F079FE674902F05EFBBF
:105A8C0002F074FE002E834627DA2D2102F05AFB19
:105A9C0071420A22584602F074FB02F067FE5F491D
:105AAC0002F065FB4FF0000B204603F033F938B3DE
:105ABC00204603F068F85FFA80F802F057FE414682
:105ACC0002F040FB00F01EF940F2FE339F420090C2
:105ADC0005D80AF807800137E6E73146D9E740F2E6
:105AEC00FF339F42F7D1002384F81B34204603F088
:105AFC006BF902F03BFE4A4902F039FBAB46EAE790
:105B0C00E319187726B102F031FE464902F016FB74
:105B1C0000F0F8F8009BC61ABBF1000F06D141F259
:105B2C0088339E4202D8C82002F078FC204602F04E
:105B3C006AFF41F2883300284AD09E424AD8BBF112
:105B4C00000F93D002F012FE374902F0F7FA02F080
:105B5C000DFE054600F0D6F8019B0A22C11A284614
:105B6C0002F00FFB02F002FE304902F000FB20466F
:105B7C0003F02AF9514602A800F031FF0C23092248
:105B8C0002A906A801F032F802F0F0FD284902F053
:105B9C00D5FA02F0EBFD069902F0E9FA25490AA8BC
:105BAC0000F01DFF0AA902A801F01DF804460AA87E
:105BBC0000F0CAFE631C43D102F0D8FD1E4902F06E
:105BCC00D6FA06A800F0C0FE02A800F0BDFE0EE753
:105BDC009E42B7D902F0CAFD184902F0C8FAB1E7E3
:105BEC0034A90D0042A50D003FA60D006FA90D00B4
:105BFC007BA90D00A4A90D009EA90D00CEA90D0036
:105C0C00D3A90D006CAD0D0050A90D00AFA90D006E
:105C1C0082A50D00E2A90D0003AA0D002FAA0D000C
:105C2C0037AA0D006CAA0D00C7AA0D00ECAA0D0036
:105C3C00F1AA0D000BAB0D0010AB0D0092AA0D00DC
:105C4C0009F104050A49284600F011FF221D02A99A
:105C5C000AA800F0EBFF0AA9284600F071FF0AA879
:105C6C0000F072FE069804F0EBFAC9F80000A8E701
:105C7C008DA60D0008B5024B1B689B68019308BDEF
:105C8C006802030008B5024B1B68DB68019308BD72
:105C9C006802030008B5024B1B689B68019308BDA2
:105CAC002C02030008B5024B1B68DB68019308BD8E
:105CBC002C02030008B5024B1B681B69019308BD3D
:105CCC002C02030008B5024B1B685B69019308BDED
:105CDC002C02030008B5024B1B685B69019308BDDD
:105CEC006C02030008B5024B1B685B68019308BD8E
:105CFC001802030008B5024B1B68DB68019308BD52
:105D0C001802030008B5024B1B685B69019308BDC0
:105D1C001802030008B5024B1B689B6A019308BD6F
:105D2C001802030008B5024B1B685B6C019308BD9D
:105D3C001802030008B5024B1B689B6C019308BD4D
:105D4C001802030008B5024B1B689B6D019308BD3C
:105D5C001802030008B5024B1B685B6E019308BD6B
:105D6C001802030008B5024B1B689B68019308BD21
:105D7C007802030008B5024B1B68DB68019308BD71
:105D8C007802030008B5024B1B681B6D019308BD1C
:105D9C007802030008B5024B1B689B6D019308BD8C
:105DAC007802030008B5024B1B681B6E019308BDFB
:105DBC007802030008B5034B1B68D3F898300193A5
:105DCC0008BD00007802030008B5034B1B68D3F82C
:105DDC00A830019308BD00007802030008B5034BFE
:105DEC001B68D3F8B430019308BD0000780203009F
:105DFC0008B5034B1B68D3F8D830019308BD0000DD
:105E0C007802030008B5034B1B68D3F8DC30019310
:105E1C0008BD00007802030008B5034B1B68D3F8DB
:105E2C00E830019308BD00007802030008B5034B6D
:105E3C001B68D3F8EC30019308BD00007802030016
:105E4C0008B5034B1B68D3F8F030019308BD000074
:105E5C007802030008B5034B1B68D3F8003101939B
:105E6C0008BD00007802030008B5034B1B68D3F88B
:105E7C000431019308BD00007802030008B5024B01
:105E8C001B685B6C019308BD4802030008B5024B0C
:105E9C001B689B6C019308BD4802030008B5024BBC
:105EAC001B68DB6C019308BD4802030008B5024B6C
:105EBC001B685B6D019308BD4802030008B5024BDB
:105ECC001B685B69019308BD6402030008B5024BB3
:105EDC001B681B6A019308BD6402030008B5024BE2
:105EEC001B689B6A019308BD6402030008B5024B52
:105EFC001B681B68019308BD3C02030008B5024BEC
:105F0C001B68DB68019308BD3C02030008B5024B1B
:105F1C001B681B69019308BD3C02030008B5024BCA
:105F2C001B685B69019308BD3C02030008B5024B7A
:105F3C001B689B69019308BD3C02030008B5024B2A
:105F4C001B68DB69019308BD3C02030008B5024BDA
:105F5C001B681B6A019308BD3C02030008B5024B89
:105F6C001B689B6A019308BD3C02030008B5024BF9
:105F7C001B68DB68019308BD2802030008B5024BBF
:105F8C001B681B69019308BD2802030008B5024B6E
:105F9C001B689B69019308BD2802030008B5024BDE
:105FAC001B68DB69019308BD2802030008B5024B8E
:105FBC001B681B6A019308BD2802030008B5024B3D
:105FCC001B685B6A019308BD2802030008B5024BED
:105FDC001B689B6A019308BD2802030008B5024B9D
:105FEC001B68DB6A019308BD2802030008B5024B4D
:105FFC001B681B6B019308BD2802030008B5024BFC
:10600C001B685B6B019308BD2802030008B5024BAB
:10601C001B681B6C019308BD2802030008B5024BDA
:10602C001B681B6D019308BD2802030008B5024BC9
:10603C001B689B69019308BD3802030008B5024B2D
:10604C001B68DB69019308BD3802030008B5024BDD
:10605C001B681B6A019308BD3802030008B5024B8C
:10606C001B689B6A019308BD3802030008B5024BFC
:10607C001B681B6B019308BD3802030008B5024B6B
:10608C001B689B6B019308BD3802030008B5024BDB
:10609C001B681B68019308BD3002030008B5024B56
:1060AC001B689B68019308BD3002030008B5024BC6
:1060BC001B68DB68019308BD3002030008B5024B76
:1060CC001B681B69019308BD3002030008B5024B25
:1060DC001B685B69019308BD3002030008B5024BD5
:1060EC001B68DB69019308BD3002030008B5024B45
:1060FC001B681B6A019308BD3002030008B5024BF4
:10610C001B685B6A019308BD3002030008B5024BA3
:10611C001B681B6C019308BD3002030008B5024BD1
:10612C001B685B6C019308BD3002030008B5024B81
:10613C001B681B68019308BD4C02030008B5024B99
:10614C001B685B68019308BD4C02030008B5024B49
:10615C001B681B69019308BD4C02030008B5024B78
:10616C001B685B69019308BD4C02030008B5024B28
:10617C001B689B69019308BD4C02030008B5024BD8
:10618C001B68DB69019308BD4C02030008B5024B88
:10619C001B681B6A019308BD4C02030008B5024B37
:1061AC001B681B6E019308BD7402030008B5024BFB
:1061BC001B685B6B019308BD6002030008B5024BC2
:1061CC001B681B6D019308BD6002030008B5024BF0
:1061DC001B681B68019308BD2002030008B5024B25
:1061EC001B685B68019308BD2002030008B5024BD5
:1061FC001B685B69019308BD2002030008B5024BC4
:10620C001B68DB6B019308BD2002030008B5024B31
:10621C001B689B6D019308BD2002030008B5034B5E
:10622C001B68D3F88830019308BD000020020300DE
:10623C0008B5034B1B68D3F89430019308BD0000DC
:10624C002002030008B5034B1B68D3F8A830019358
:10625C0008BD00002002030008B5024B1B685B68F8
:10626C00019308BD4002030008B5024B1B689B68F4
:10627C00019308BD4002030008B5024B1B68DB68A4
:10628C00019308BD4002030008B5024B1B681B6953
:10629C00019308BD4002030008B5024B1B685B6903
:1062AC00019308BD4002030008B5024B1B689B69B3
:1062BC00019308BD4002030008B5024B1B68DB6963
:1062CC00019308BD4002030008B5024B1B681B6A12
:1062DC00019308BD4002030008B5024B1B685B6AC2
:1062EC00019308BD4002030008B5024B1B689B6A72
:1062FC00019308BD4002030008B5024B1B68DB6A22
:10630C00019308BD4002030008B5024B1B681B6BD0
:10631C00019308BD4002030008B5024B1B685B6B80
:10632C00019308BD4002030008B5024B1B681B6CAF
:10633C00019308BD4002030008B5024B1B685B6C5F
:10634C00019308BD4002030008B5024B1B689B6813
:10635C00019308BD4402030008B5024B1B68DB68BF
:10636C00019308BD4402030008B5024B1B685B692E
:10637C00019308BD4402030008B5024B1B68DB6A9D
:10638C00019308BD4402030008B5024B1B681B6B4C
:10639C00019308BD4402030008B5024B1B685B6BFC
:1063AC00019308BD4402030008B5024B1B68DB6B6C
:1063BC00019308BD4402030008B5024B1B685B6CDB
:1063CC00019308BD4402030008B5024B1B681B680F
:1063DC00019308BD1C02030008B5024B1B685B68E7
:1063EC00019308BD1C02030008B5024B1B689B6897
:1063FC00019308BD1C02030008B5024B1B68DB6A45
:10640C00019308BD1C02030008B5024B1B68DB6B33
:10641C00019308BD1C02030008B5024B1B685B6CA2
:10642C00019308BD1C020300002240681146FFF7CF
:10643C004BBF002240681146FFF76EBF4068002238
:10644C00FFF762BF4068002281F00101FFF734BF03
:10645C00002340681A461946FFF726BF0023406800
:10646C001A461946FFF718BF002240681146FFF77D
:10647C000BBF002240681146FFF7F6BE40680022B1
:10648C000221FFF7F9BE002340681A46FFF7E4BE6D
:10649C00024B03225A60024A1A6070473CE6032002
:1064AC004CAB0D000021FFF731BE0021FFF736BECB
:1064BC0010B5044608462170FFF710FE00236360F8
:1064CC00204610BD10B504460078FFF7EBFF48B925
:1064DC0020784FF6FF71FFF7D9FD2078BDE810400A
:1064EC00FFF7E3BF10BD13B5044600780191FFF729
:1064FC00D9FF019940B92078FFF7D0FD207802B080
:10650C00BDE81040FFF7D1BF02B010BD13B5044673
:10651C0000780191FFF7C6FF019940B92078FFF789
:10652C00C5FD207802B0BDE81040FFF7BEBF02B039
:10653C0010BD0000400830B518600024186888426F
:10654C00E5B206D90134082C02D040081860F5E7F2
:10655C000725024B5B5D137030BD00BF80AB0D0097
:10656C002DE9F04188B000230446007802930E46D2
:10657C001746FFF797FF054600BB94F800800146CD
:10658C00142203A803F0B8FE0B232A4603A94046A5
:10659C00ADF80C30FFF7B2FD04988DF8075002AB44
:1065AC000DF1070207FB06F1FFF7C4FF20789DF8F9
:1065BC000710FFF783FD2078FFF777FF029808B0EC
:1065CC00BDE8F08108B50078FFF780FDC0B208BDCA
:1065DC0010B50446006818B1FFF7FEFE00232360D7
:1065EC0010BD38B5B1F9043083800B460D4653F815
:1065FC00062FC0F806209B8843810446FFF7E8FF6E
:10660C002B6813B1236000232B60204638BD00009B
:10661C0038B50C460546FFF7DBFF44B12088FFF781
:10662C00D3FE286028B12288214603F03DFE0020CD
:10663C0038BD0148FCE700BFFCFEFFFFF0B52D4D57
:10664C000B7D04468BB00846AF1D002B38D00B6871
:10665C001B79002B34D00022274B049302A9043061
:10666C000292ADF80C208DF80E20FFF7EBFDDDF853
:10667C000E30C5F8063000B2BDF81230ADF80C0083
:10668C00A8800299BB802846FFF7C2FF02A8FFF73B
:10669C009FFF00232360A380A37123814FF6FF7318
:1066AC006381B5F90430A3803B68C4F80630BB881D
:1066BC00296863812046FFF7ABFF20460BB0F0BD85
:1066CC0000262023CDE902360C4B00930C493346AF
:1066DC0002AA3220FFF772FD074B049302A94FF672
:1066EC00F263044802968DF80E60ADF80C30FFF79B
:1066FC0078FFCBE744E603200000FFFF8FAB0D00D3
:10670C0088AB0D0010B5094B094C022200201A6011
:10671C00084B2060A080A071A360FFF75FFD2046AE
:10672C00054A0649BDE8104002F01CBE50E60320A5
:10673C0044E603200000FFFF48DF0320B1410D00B9
:10674C0010B5044603F016FE013823182046834288
:10675C0006D90278197800F8011B03F80129F6E72D
:10676C0010BD2DE9F041931E8CB0222B4FF000038D
:10677C000D4614468DF82C3027D900282ADA2E46DF
:10678C002D2306F8013B40420A240DF12B074FF054
:10679C0001082246014601A803F064FD029B019802
:1067AC00092BCCBF3722302252FA83F307F8013978
:1067BC0008F101080028ECD14246791C304603F060
:1067CC0073FD28460CB0BDE8F0810A2AD5D018B16B
:1067DC002E46DAE70A24FAE730238DF82B302E46C2
:1067EC000DF12A074FF00208E6E770B50C46911E32
:1067FC002229054622D820466DB1B5FBF2F602FBE4
:10680C001655E9B2092D94BF30315731C9B200F891
:10681C00011B3546F0E7024623443021934202D94E
:10682C0002F8011BFAE71A1A834238BF0022002330
:10683C0083542046FFF784FF204670BD0020FCE700
:10684C0038B5031E0C4615460EDAB3F1004F4FF067
:10685C002D0214BF5842184601230A702A461944C7
:10686C00FFF7C3FF204638BD0123F9E770B586B0AA
:10687C00064601AD684601F00DFF0FCD341D0FC467
:10688C002B682370304606B070BD00002DE9F04730
:10689C0057EC106B80460C4610EE100A00220023B9
:1068AC00394603F0ADFA28B107F100431F462D23FA
:1068BC0004F8013B00234FF001090A22D9B28845A4
:1068CC0003D902FB09F90133F8E7484602F0BCFF93
:1068DC0032463B4603F022F806460F4603F02EFBE9
:1068EC0005468A4602F0E4FF02460B46304639461E
:1068FC0002F05CFE134B002203F096FA10B1013546
:10690C004AF1000A4A462846D317514603F0FEFACC
:10691C000123154621460A22FFF767FFB8F1000F45
:10692C000DD0204603F026FD2E23211823540A22D5
:10693C00434628460131BDE8F047FFF756BFBDE896
:10694C00F08700BF0000E03F10B504460068FFF779
:10695C0043FD204610BD10B50446006808B1FFF792
:10696C003BFD0023C4E90133236010BD38B5044658
:10697C000D4600680131FFF737FD10B1C4E9000581
:10698C00012038BD10B50368044623B143688B421F
:10699C0001D3012010BD2046FFF7E8FF0028F9D0F5
:1069AC00A368002BF5D122681370F2E737B50D46BA
:1069BC00114601920446FFF7E5FF019A28B92046DB
:1069CC00FFF7C9FF204603B030BDA26029462068FE
:1069DC0003F06AFC2268A3680021D154F2E700237B
:1069EC0013B5C0E9003304468360037341B1084614
:1069FC00019103F0BFFC019902462046FFF7D6FF38
:106A0C00204602B010BD38B5054600680C4668B18A
:106A1C006A688B689A4207D3096803F0A3FCA368E1
:106A2C00AB600023A36038BDFFF7D6FC23682B6056
:106A3C0063686B60A368AB600023C4E90033F1E7C3
:106A4C00884210B5044605D00B682BB18A681946EC
:106A5C00FFF7ACFF204610BDFFF77DFFFAE7884239
:106A6C0010B5044601D0FFF7CEFF204610BD13B57C
:106A7C00044659B10846019103F07CFC0199024689
:106A8C002046FFF793FF204602B010BDFFF763FFCF
:106A9C00F9E710B504468AB00023C4E90033A360BB
:106AAC002373084601A9FFF7CBFE01A92046FFF787
:106ABC00DEFF20460AB010BD10B504468AB0002394
:106ACC00C4E90033A3602373084601A9FFF749FE0C
:106ADC0001A92046FFF7CBFF20460AB010BD30B508
:106AEC00044600238BB0C4E90033A360237310EE7B
:106AFC00100ACDB202F0BAFE41EC100B01A92846E7
:106B0C00FFF7C4FE01A92046FFF7B1FF20460BB0EA
:106B1C0030BD70B505460E4609B9002070BD6AB18E
:106B2C00846814442146FFF72DFF0028F5D028680F
:106B3C00AB683146184403F015FCAC600120EDE75E
:106B4C008A680968FFF7E5BF07B500238DF80410C4
:106B5C00012201A98DF80530FFF7DBFF03B05DF8CA
:106B6C0004FB10B58A6809680446FFF7D2FF10B918
:106B7C002046FFF7F0FE204610BD13B5044629B998
:106B8C002046FFF7E8FE204602B010BD08460191F2
:106B9C0003F0F0FB019902462046FFF7BAFF0028EC
:106BAC00EED0F0E708B582683AB921B10878B0FAAE
:106BBC0080F0400900E0012008BD006809B90078A8
:106BCC00F5E703F0C5FBF2E710B58368934207D9EC
:106BDC0004680968A01803F0F5FB08B1001B10BD90
:106BEC004FF0FF30FBE70022FFF7EEBFF8B59A42FB
:106BFC000F461D460C4988BF13461446064684BFF3
:106C0C002C461D46FFF7EBFEBA68A2420AD3396840
:106C1C00AA4294BFC4EB0202C4EB050221443046E5
:106C2C00FFF7C4FE3046F8BD8DA60D0010B5044626
:106C3C008B68FFF7DBFF204610BD38B504460846CD
:106C4C00A3688B4211D982B111448B4238BF1A1AF6
:106C5C002568991A1318A1600A1AE918284403F038
:106C6C0031FB2268A3680021D154204638BD8268CC
:106C7C00521AFFF7E2BF7047704770477047000029
:106C8C00064B994210B500F10C0405D0084602F0F1
:106C9C0077FB002808BF0024204610BD00AD0D0076
:106CAC00064B994210B500F10C0405D0084602F0D1
:106CBC0067FB002808BF0024204610BD00AD0D0066
:106CCC00064B994210B500F10C0405D0084602F0B1
:106CDC0057FB002808BF0024204610BD00AD0D0056
:106CEC0010B56821044602F042FB204610BD10B5D9
:106CFC002821044602F03BFB204610BD10B5302184
:106D0C00044602F034FB204610BDFDF7C0B9FDF778
:106D1C00BEB9FDF7BCB910B5036804469B6898472B
:106D2C00A368013BA3602BB923682046DB68BDE850
:106D3C001040184710BD10B50446006808B1FFF7A5
:106D4C00A5F8204610BD000010B5044B0446186889
:106D5C00FFF7A4F80123237010BD00BF5CE60320ED
:106D6C0010B5044B04461868FFF7A0F800232370F5
:106D7C0010BD00BF5CE60320F0B50025EC1C8C4276
:106D8C000DD86E1C445D875D974205D12644B142F7
:106D9C0005D31D60601CF0BD01342544EEE70020D6
:106DAC00F9E72DE9F34704469DF828701E468946FD
:106DBC0001AB90460A46016AFFF7DEFF256AB31C59
:106DCC0017BB08B35F193F1A1F2F19D8DDF80490B1
:106DDC0009F1020AA5EB0902121A00EB090106EBF4
:106DEC000A0092B22144204403F06CFA731C04F89C
:106DFC0009303246414604EB0A0003F055FA27628B
:106E0C00206A02B0BDE8F0872B441F2BF8D8731C06
:106E1C006355A81C25442062324685F801904146F2
:106E2C00204403F041FA236A33442362E8E700006C
:106E3C00024A00210A20FFF7B9B900BF015D0D001D
:106E4C00022A38B5044607D0032A11D0012A01D1F1
:106E5C000B682360002038BD08200D68FDF713F97E
:106E6C0003460028F5D095E8030083E80300F0E71B
:106E7C0000680028EED0082102F079FAEAE7022A2D
:106E8C0038B5044607D0032A11D0012A01D10B686A
:106E9C002360002038BD08200D68FDF7F4F8034688
:106EAC000028F5D095E8030083E80300F0E70068BC
:106EBC000028EED0082102F05AFAEAE730B40D4669
:106ECC0011461A46036809682868D3E90043A446AA
:106EDC0030BC6047034608461B68D3E900211047C5
:106EEC0010B58368044613B1032201469847204627
:106EFC0010BD10B504465830FFF7F2FF04F14800FE
:106F0C00BDE81040FFF720BDA0F13003DAB2092A2A
:106F1C0001D818467047A0F16103052B01D85738EA
:106F2C007047A0F14103052B94BF37384FF0FF3069
:106F3C00704710B5002304460370FFF705FF204689
:106F4C0010BD10B5037804460BB1FFF709FF2046BE
:106F5C0010BD82B00346086849686A4603C26A4697
:106F6C0003CA18601846596002B0704708B5827998
:106F7C008B799A4206D1062203F088F9B0FA80F098
:106F8C00400908BD0020FCE74FF0FF33036083800D
:106F9C0000207047002108B5016041600246FFF7F0
:106FAC00F3FF9171104608BD01220261064A116877
:106FBC000160516841601189927A827200220181CC
:106FCC00C0F80B20C273704708AD0D0010B50B69EB
:106FDC00036101F11002034651F8044B43F8044BD2
:106FEC009142F9D110BD10B50B460446B1B1012A3E
:106FFC0001F110020AD1014653F8040B41F8040BBD
:10700C009342F9D101232361204610BD411E12F891
:10701C00010D01F8010F9A42F9D1F3E7102203F0A8
:10702C006BF9F1E738B5044615461A46FFF7DBFF56
:10703C00A581204638BD000008B5026922B98089B7
:10704C00003818BF012008BD0249102203F01EF9B8
:10705C00F6E700BF28AD0D000069704738B50C4647
:10706C0014220021054603F047F923693BB9627BE2
:10707C002B74237B43EA02232B80284638BD012343
:10708C002B7404F110022B4654F8041B43F8041B18
:10709C009442F9D1F1E7427B007B40EA0220704731
:1070AC00704708B502690B699A4206D1102203F0A9
:1070BC00EDF8B0FA80F0400908BD0020FCE70000B4
:1070CC0001232DE9F3410361324B1A6802605A68BF
:1070DC00426000251A899B7A028104468372C0F8AB
:1070EC000B50C5730E4621B32421304603F05DF9D5
:1070FC00042821D1ADF8045001AFB51C063615F8A3
:10710C00020CFFF701FFB0F1000810DB15F8010CC1
:10711C00FFF7FAFE00280ADB023540EA0810AE42FF
:10712C0007F8010BEBD1BDF804305BBAA381002347
:10713C00236102B0BDE8F08110272421304603F012
:10714C0034F9A84206D827440023BC42F1D007F8F2
:10715C00013DFAE7002FECD0705DFFF7D5FE03067A
:10716C0015D40001013F5FFA80F804F80780242150
:10717C00304603F01AF90135A84208D9705DFFF7C3
:10718C00C3FE40B20028A4BF40EA0800E055013518
:10719C00D3E700BF08AD0D0013B504460191FFF70E
:1071AC0003FF20460199FFF78BFF204602B010BD6C
:1071BC0030B49DF8085012B9006A30BC7047029583
:1071CC0030BCFFF7EEBD1FB50446024600F11F01AF
:1071DC00002302F8013B9142FBD12362009306226B
:1071EC0001238DF80F2019460DF10F022046FFF7F1
:1071FC00DFFF204604B010BD73B50A460E4601AB46
:10720C00016A0446FFF7B8FD054678B10198226A79
:10721C004119121A2144521B204403F045F8206AEC
:10722C00401B206231462046FFF7E6FF02B070BDDE
:10723C0038B54FF6FF730025044643800E222946CD
:10724C0005700571063003F057F804F11400FFF7D0
:10725C00ABFE04F12800FFF7A7FE044904F13C0043
:10726C00FFF7BDFB6565204638BD00BF8DA60D0040
:10727C0010B5D0E9063203EBC2029342184606D091
:10728C00046824888C4203F10803F6D110BD002059
:10729C00FCE70000F0B5064685B01F460D460029F8
:1072AC0050D0002A4ED004682378F42A28BFF42248
:1072BC0043B32379980709D5A08903920023FEF7DD
:1072CC008DFD0028039A03DA05B0F0BD6FF077004E
:1072DC0034682379D90609D5012F07D0A08900235A
:1072EC00294605B0BDE8F040FEF7B4BD9B06EBD5D2
:1072FC00022FE9D0A0890023294605B0BDE8F04053
:10730C00FEF7B2BD60884FF6FF7188421CD0217920
:10731C004E0701D5012F04D10B0709D46FF077006C
:10732C00D2E7A189009313462A46FEF76BFDCBE703
:10733C00022FF3D00023A189009313462A46FEF7AF
:10734C0057FDC1E70248BFE76FF0D100BCE700BFB3
:10735C00F2FEFFFF13468A680968FFF79BBF37B53B
:10736C000C460546F4212046019203F01EF8019BC1
:10737C0002462146284603B0BDE83040FFF78ABFDD
:10738C002DE9F04100260660074628200C46FCF744
:10739C007AFE051E05F10C080FD00123C5E9013357
:1073AC00084B2B604046FFF7FFFD0FCC2E6285F893
:1073BC00246046460FC623683360C7E9008538460B
:1073CC00BDE8F081D0AC0D0070B500250560064617
:1073DC003020FCF758FE044688B10123C0E9013384
:1073EC00094B03604FF6FF7383810E30FFF7D2FD1C
:1073FC00C4E90655C4E90855C4E90A55A575746075
:10740C000C343460304670BDECAC0D0037B50D4615
:10741C00044601A8FFF78DFD2A6852F8023F23604D
:10742C005368636001A8FFF78CFD204603B030BDA4
:10743C0030B5054687B00C4601A8FFF77AFD2A68DF
:10744C00236812881B889A420DD1294602A8FFF79F
:10745C00DDFF214604A8FFF7D9FF04A902A8FFF716
:10746C0085FD044600B9002401A8FFF76AFD2046FB
:10747C0007B030BD10B504465420FCF704FE01469D
:10748C0060B10023C0E90033C0E90233C0E9043322
:10749C00C0E906330362C362C363C364216019B9D4
:1074AC00094A0A20FEF782FE0020FEF75BFC20B1A1
:1074BC00054A00210A20FEF779FE216803480022C4
:1074CC00FEF7BEFC204610BD015D0D0061790D007C
:1074DC0010B50B4C2378BFF35B8FDB070ED4204623
:1074EC00FCF7D7FD50B10748FFF7C4FF2046FCF767
:1074FC00D5FD054A0549034801F034FF014810BD8C
:10750C0054E6032060E6032048DF032021770D00BA
:10751C0030B50368093B012B8DB004460D4611D8DC
:10752C00FFF7D6FFA1880068FFF7A2FE034658B903
:10753C002022CDE904200B4A00920B4904AA3220E8
:10754C00FEF73CFE0DB030BD6A6D002AFAD0D4E9CE
:10755C00032105F14C00CDE90312AC6D04AA03A97B
:10756C00A047EFE7DDAB0D00B6AB0D0008B5002072
:10757C00FEF7F8FB00EAE07008BD084611B90A46B0
:10758C00FEF700BC096A0022FAE707B5084629B9DC
:10759C000A4603B05DF804EBFEF7FCBB0121019039
:1075AC00FFF72AFE01980022016AF2E738B504467B
:1075BC001546FFF7E2FF00280ADB29462046FFF7B5
:1075CC00E4FF002804DBBDE838400020FEF7EABBEE
:1075DC0038BD0368D8690028D4BF0020012070474B
:1075EC0038B500230446836008200D46FCF74BFD9C
:1075FC0018B12B6803606B684360034BE360034B6B
:10760C002060A360204638BDC96E0D004D6E0D0084
:10761C0038B500230446836008200D46FCF733FD83
:10762C0018B12B6803606B684360034BE360034B3A
:10763C002060A360204638BDE16E0D008B6E0D00FE
:10764C000B68036013B15A6801325A60704710B569
:10765C0051F8043B044640F8043BFFF7F1FF236864
:10766C000BB9FFF7E5FB204610BD10B551F8043BF4
:10767C00044640F8043BFFF7E3FF204610BD10B56D
:10768C0051F8043B044640F8043BFFF7D9FF204671
:10769C0010BD10B50446006828B14368013B436037
:1076AC000BB9FFF738FB204610BD10B5044604306B
:1076BC00FFF7EFFF204610BD70B5D0E9005304462C
:1076CC0005EBC306AE4204D0281DFFF7E2FF0835D8
:1076DC00F8E72068FEF780FE204670BD70B5D0E953
:1076EC000053044605EBC306AE4204D0281DFFF739
:1076FC00D0FF0835F8E72068FEF76EFE204670BD17
:10770C0010B504462430FFF7E9FF04F11800FFF729
:10771C00D3FF10BDF8B50468064624B304F1440049
:10772C00FFF7DEFB04F13400FFF7DAFB04F1240071
:10773C00FFF7D6FBD4E9065305EBC307AF4204D0E1
:10774C00281DFFF7A6FF0835F8E7A069FEF744FEF1
:10775C0004F10C00FFF7C2FF2046FFF7ADFF5421E8
:10776C00204601F004FE3046F8BD826810B50AB917
:10777C0001F003FEBDE81040C368184770B5D0E9AE
:10778C000053044605EBC306AE4204D0281DFFF798
:10779C0080FF0835F8E70023636070BD13B504461D
:1077AC000020FEF7E7FA00280ADB01A8FFF7C1FB6F
:1077BC0020681830FFF7E2FF01A8FFF7C2FB00209A
:1077CC0002B010BD8842F8B504460D46164614D9D1
:1077DC00904213D2A2F10806751AA1F108072C44A5
:1077EC00B74218D01CB131462046FFF748FF301D78
:1077FC00FFF74FFF083E083CF2E70CD0B5420AD029
:10780C001CB129462046FFF73AFF281DFFF741FF20
:10781C0008350834F2E7F8BD2DE9F041D0E9004312
:10782C000546884604EBC307A74203D10026304621
:10783C00BDE8F08141462046FFF7FAFD064608B93F
:10784C000834F1E7002CF1D0201DFFF722FFD5E919
:10785C00003204F1080103EBC2022046FFF7B2FF2D
:10786C006B68013B6B60E2E7F0B507468BB068468E
:10787C00FFF75FFB3B68D3E9064504EBC505AC425B
:10788C002BD02422002101A802F036FD236800220F
:10789C00188801A9FEF7C0FA064608B10834EEE7CD
:1078AC009DF80830012BF9D16846FFF759FA236887
:1078BC0031461888FEF77EFA051E08DB6846FFF78E
:1078CC0043FA386821461830FFF7A6FF354668465C
:1078DC00FFF737FB28460BB0F0BD6FF0A905F6E7B4
:1078EC00F7B5044646686846FFF7C9FED4E901734C
:1078FC009F4212DB0137002F29DDF800FEF764FDF3
:10790C000546F0B1D4E9001201EBC202FFF75AFFB1
:10791C002068FEF761FD2560A7602368626803EBB1
:10792C00C60603EBC202314606F10800FFF74AFF18
:10793C001EB169463046FFF7A2FE636801336360EF
:10794C00012501A8FFF7A5FE284603B0F0BD0025D0
:10795C00DEE700002DE9F04105468EB003A80C4689
:10796C00FFF7E7FA2E68042E6BD007D8032E28D029
:10797C0003A8FFF7E6FA0EB0BDE8F081A6F10C0300
:10798C00032BF5D8A9892046FFF772FC074600287F
:10799C00EED0E36C002BEBD01022002107A802F0F4
:1079AC00ABFC0D2E06978DF81C6040F092806B6836
:1079BC00099306230893236D06A904F14400984704
:1079CC00D6E704A8FFF700FD049BAA891A80696812
:1079DC00049808310230FFF7BCFA04A906A8FFF797
:1079EC004EFE06A904F11800FFF77AFF054607A81A
:1079FC00FFF74FFE202306938DB93E4B3E49009373
:107A0C0032202B4606AA0795FEF7D8FB049B294685
:107A1C001888FEF7CFF905A8FFF73BFEA8E7374A11
:107A2C00009200233449079306AA0120FEF7C6FBF7
:107A3C00E36A002BEFD004A904F12400FFF795FEB4
:107A4C00E9E7A9892046FFF713FC064600288FD0EA
:107A5C000568D5E906314FF6FF722A8003EBC101A8
:107A6C00994203D053F8080B4280F9E7D5E9037328
:107A7C0007EBC308B84504D0381DFFF70AFE0837DA
:107A8C00F8E700232B61D5E9067307EBC308B8456B
:107A9C0004D0381DFFF7FDFD0837F8E70023EB6134
:107AAC00AB72E36B23B1314604F13400FFF75DFE9A
:107ABC0000232022CDE90623114A00920E4906AA82
:107ACC000120FEF77BFB314604F11800FFF7A4FE02
:107ADC004EE70F2E7FF46FAF6B6809932B7A03F090
:107AEC000102C3F340038DF829308DF828200823B8
:107AFC0060E700BFF5AB0D00B6AB0D001BAC0D0085
:107B0C0038AC0D0013B500230446D1E90002C1E9DD
:107B1C0000332368009320606368626001A80193BE
:107B2C00FFF7B7FD204602B010BD13B50B46024659
:107B3C00D0E900016C4684E8030093E8030082E876
:107B4C00030094E8030083E8030002B010BD38B5CD
:107B5C0005460C46FFF7E9FFAB68A268AA60A36074
:107B6C00EB68E268EA60E36038BD1FB500230446A9
:107B7C00084669460293FFF7EAFF21466846FFF77D
:107B8C00E6FF6846FFF7ACF9204604B010BD70B5AF
:107B9C000E4688B0044601921D46FFF749FB337828
:107BAC000199237104F13C00FEF761FF04F14C06CE
:107BBC0085B10C9B029502A904A80393FFF710FD55
:107BCC0004A93046FFF7D1FF04A8FFF789F9204636
:107BDC0008B070BD0695F3E72DE9F04786B007466F
:107BEC001D4668200023894692460493FCF74BFA05
:107BFC00061E06F10C081DD001233446C6E90133DC
:107C0C00154B44F8203B9AF800308DF80C30109B43
:107C1C0000934A460F9B03A94046FFF7B8FF0FCDD0
:107C2C000FC42B680E9D23600FCD06F134040FC4D6
:107C3C002B68236004A93846CDE90486FFF762FF60
:107C4C0005A8FFF726FD396819B9044A0A20FEF782
:107C5C00ADFA06B0BDE8F087B4AC0D00015D0D00C7
:107C6C0038B505460C46FFF760FFAB68A268AA6002
:107C7C00A360EB68E268EA60E36038BD1FB50023DF
:107C8C000446084669460293FFF7EAFF2146684618
:107C9C00FFF7E6FF6846FFF723F9204604B010BD56
:107CAC0010B5046886B0243471B1CDE9001202A875
:107CBC006946FFF7ADFC02A92046FFF7DFFF02A8DB
:107CCC00FFF70EF906B010BD0491F4E710B5046887
:107CDC0086B0343471B1CDE9001202A86946FFF7C1
:107CEC0097FC02A92046FFF7C9FF02A8FFF7F8F896
:107CFC0006B010BD0491F4E78842F8B504460D4671
:107D0C00164614D9904213D2A2F10806751AA1F1A5
:107D1C0008072C44B74218D01CB131462046FFF757
:107D2C00A4FC301DFFF7B5FC083E083CF2E70CD074
:107D3C00B5420AD01CB129462046FFF796FC281DF7
:107D4C00FFF7A7FC08350834F2E7F8BD70B50E1E36
:107D5C00054611DDF000FEF737FB044658B1D5E9B6
:107D6C00001201EBC202FFF7C7FF2868FEF734FBD5
:107D7C002C60AE60012070BD0024F6E773B504469C
:107D8C0045686846FFF771FCD4E90113994210DA93
:107D9C002368626803EBC50503EBC202294605F1B3
:107DAC000800FFF7A9FF8DB96368013363600126F2
:107DBC0006E001312046FFF7C9FF06460028E7D14F
:107DCC0001A8FFF766FC304602B070BD6946284634
:107DDC00FFF74BFCE8E78842F8B504460D4616461B
:107DEC0014D9904213D2A2F10806751AA1F1080712
:107DFC002C44B74218D01CB131462046FFF727FC63
:107E0C00301DFFF746FC083E083CF2E70CD0B542AB
:107E1C000AD01CB129462046FFF719FC281DFFF794
:107E2C0038FC08350834F2E7F8BD70B50E1E05466F
:107E3C0011DDF000FEF7C8FA044658B1D5E900127E
:107E4C0001EBC202FFF7C7FF2868FEF7C5FA2C60EA
:107E5C00AE60012070BD0024F6E773B5044645689A
:107E6C006846FFF7F4FBD4E90113994210DA236852
:107E7C00626803EBC50503EBC202294605F1080055
:107E8C00FFF7A9FF8DB9636801336360012606E033
:107E9C0001312046FFF7C9FF06460028E7D101A8AB
:107EAC00FFF7F7FB304602B070BD69462846FFF776
:107EBC00CEFBE8E72DE9F04F1746A1B080460AA8A3
:107ECC000E46FFF736F83C68237953B939464046DD
:107EDC00FFF7BDFB0AA8FFF734F8404621B0BDE818
:107EEC00F08F3368D3E9035305EBC303039304F119
:107EFC00280A04F1140B039B9D4221D0D5F8009065
:107F0C00584609F11401FFF7CCF8B8B109F1280172
:107F1C005046FFF7C6F888B12368D9F800205340C3
:107F2C0033F47F430AD12022CDE915235E4A009217
:107F3C0015AA5E493220FEF741F9C7E70835DAE7A2
:107F4C005046FFF779F860B95949012215A815ADCB
:107F5C00FFF749F80FCDD446ACE80F002B68CCF8EE
:107F6C0000303368D3E9005305EBC30B5D45A946DC
:107F7C0051466ED055F8080BFFF793F80028F5D052
:107F8C0004F1140A5046FFF757F888B9494B484991
:107F9C001A88013292B21A8015A8012315ADFFF789
:107FAC0041F80FCDD446ACE80F002B68CCF800306C
:107FBC002822002116A802F09FF93F4B1593514639
:107FCC0004A8FFF74BF804AB18AA0DF1200C1868A5
:107FDC005968154603C5083363452A46F7D1186816
:107FEC00286023798DF85830D9F800309B8AADF889
:107FFC007430E36B1793314B0022A11D15A8CDE90A
:10800C001E34FDF713FF00287FF460AF01232370AB
:10801C00346839460C340DA8FFF719FB20460DA91E
:10802C00FFF71BFF04460EA8FFF733FB002C7FF471
:10803C004DAF2023CDE90D34214B00930DAA2346DF
:10804C0077E739464046FFF702FB0CA8FFF721FB08
:10805C0040E70BA8FFF794F9514615A8FEF7FEFF71
:10806C000B9A0023143215A90120FDF7ADFE002850
:10807C00E7D135680BA90DA8FFF7F7FA28460DA92B
:10808C00FFF77CFE05460EA8FFF703FB002DD8D0AA
:10809C0032685368126803F10053013B0CA802EBE1
:1080AC00C309FFF7F6FA6BE757AC0D00B6AB0D0042
:1080BC0018AD0D0058E6032001002C001D750D00B5
:1080CC0082AC0D0010B5064C002320462360FDF752
:1080DC00D5FE2046034A0449BDE8104001F042B9E0
:1080EC005CE6032048DF0320436D0D00F8B506461F
:1080FC000D468F180024BD420CD0336815F8011BB7
:10810C009B6830469847031E01DB1C44F3E7002CA8
:10811C0008BF1C462046F8BD13B50446084659B1A5
:10812C00019102F027F923680199DB680246204689
:10813C0002B0BDE81040184702B010BD08B5FFF7FB
:10814C00EBFF08BD03689B6818470A680B4612686A
:10815C0001461846104738B50D210546FFF7F2FFCA
:10816C000A2104462846FFF7EDFF204438BD38B5F8
:10817C000546FFF7D1FF04462846FFF7ECFF2044E5
:10818C0038BD30B58BB000238DF82430012A98BF50
:10819C000A2209AC0D46B1FBF2F101FB125303F0BC
:1081AC00FF03092B94BF30333733DBB2AA4204F8F8
:1081BC00013DEFD92146FFF7AFFF0BB030BD0000FA
:1081CC002DE9F74F55EC104B06460F4610EE102AD2
:1081DC0010EE100A2B46294601F03AFE40B15349E5
:1081EC003046FFF799FF8246504603B0BDE8F08F4A
:1081FC0025F000494E4B4FF0FF322046494601F026
:10820C0027FE48B94A4B4FF0FF322046494601F051
:10821C0001FE08B94749E3E7474B4FF0604220465F
:10822C00294601F00BFE08B14449D9E7444B4FF005
:10823C0060422046294601F0E3FD0028F4D10022DB
:10824C0000232046294601F0DBFDD0B12D2130461C
:10825C00FFF778FF05F1004382461D463949DFF8E8
:10826C00EC904FF0000B00204FF000085FFA8BF3FE
:10827C009F4208D942464B4601F07AFC0BF1010BA8
:10828C00F4E78246EAE722462B4601F091F90D46C7
:10829C00044601F01BFE804601F0C6FA02460B466E
:1082AC002046294601F082F90A2204460D46304642
:1082BC004146FFF766FF824427B123493046FFF75A
:1082CC002BFF8244DFF884904FF00008013FFFB28F
:1082DC00FF2F89D042464B462046294601F01EFB13
:1082EC0004460D4601F0CAFDB0F1000B1ADA2D213F
:1082FC003046FFF727FFCBF1000103460A22304638
:10830C000193FFF73EFF019B18448244584601F04D
:10831C009BFA02460B462046294601F047F90446D3
:10832C000D46D3E759460023E8E700BF38AD0D00F2
:10833C00FFFFEF7F3CAD0D00FFFFEF4140AD0D00A7
:10834C00FFFFEFC10000E03FEFAA0D00000024404A
:10835C0038B5C9B20546FFF733FF04462846FFF788
:10836C00FAFE204438BD38B5044610EE100A0D460E
:10837C0001F07CFA41EC100B29462046BDE8384050
:10838C00FFF7E6BF014B024A1A60704764E6032010
:10839C0044AD0D0008B50020FDF7F6FF28B1FDF740
:1083AC00E3FF80F00100C0B208BD0120FCE710B56E
:1083BC000020FDF7C7FC0446A0B9FDF707FF012814
:1083CC0010D12046FDF722FF60B9FFF7E3FF10B98B
:1083DC00FDF7BAFFF9E7FFF7DDFFBDE8104000201D
:1083EC00FDF7B0BC204610BD1FB5FFF7E0FF102213
:1083FC000021684601F080FF00216846FDF7AAFCC9
:10840C00009805B05DF804FB024B1A68024B1A6029
:10841C00704700BFE0DE032068E603200021FDF773
:10842C00E5BE10B50446FEF75BFD204610BD00000E
:10843C000348044A04490023836000F093BF00BF43
:10844C006CE6032048DF03202F840D00014B1860DD
:10845C00704700BFE4DE032008B50B4B43B100F0BE
:10846C0085F903681B699847002801DDAFF300808C
:10847C00064B43B100F0F8F903681B6998470028D4
:10848C0001DDAFF3008008BD00000000000000001B
:10849C0008B5FFF7E1FFFDF735FC014B186008BD8F
:1084AC00CCE703200248034A0349121A01F0FCBE30
:1084BC0000F4032004F4032018B10D0007B50023C9
:1084CC0000931A466FF07701FDF7B2FE03B05DF82A
:1084DC0004FB000007B543880A2B08D0502B0BD1A6
:1084EC00094B1B684BB103B05DF804EB1847FFF761
:1084FC00E5FF03B05DF804FB002300931A466FF010
:10850C007701FDF795FEF4E780E6032038B5124CB1
:10851C001248134D0021FDF77FFF2368AB42114B2E
:10852C000CBF012200221A7002D0FFF7BBFF25609E
:10853C00FDF7D8FB044601F0E7FE0B4B13B12046C8
:10854C00AFF3008000210848FDF72EFFBDE838404E
:10855C0006480021FDF762BE00F4032059840D008B
:10856C001E1C279A7CE6032000000000E1840D000D
:10857C0007B50823ADF8003003688DF80230037A94
:10858C008DF803300021436801936846FDF714FF12
:10859C0003B05DF804FB704710B51821044600F0D9
:1085AC00E6FE204610BDF0B5037D062B8DB00E46C1
:1085BC0000F104074FF0000412D000F1080515F883
:1085CC00011D0A223046FFF7DCFDAF42044419D0EE
:1085DC00002CF4D02E213046FFF7B4FD0444EEE716
:1085EC002F236A4639460A208DF80040FDF766FCB9
:1085FC00684601F0BFFE33680246DB6869463046C8
:10860C009847044620460DB0F0BD000010B5054B50
:10861C000446112240F8043B002101F06DFE204677
:10862C0010BD00BF6CAD0D000346074A10B543F8F2
:10863C00042B01F1100251F8044B43F8044B914206
:10864C00F9D10A781A7010BD6CAD0D00037D042BA6
:10865C0004D14068003818BF01207047062B07D1A1
:10866C0043683BB983682BB9C3681BB90069F1E750
:10867C00002070470120704710B59DF8084044EA6F
:10868C00032343EA024242EA016104234160037579
:10869C0010BD000013B5054B0360CB7800938B78AD
:1086AC004A780978FFF7E8FF02B010BD6CAD0D00F9
:1086BC0041747047704708B50021007CFDF756FDEA
:1086CC0040EAE07008BD08B50121007CFDF74EFDC5
:1086DC0040EAE07008BD08B5007CFDF73FFD20EADC
:1086EC00E07008BD08B5007CFDF730FD20EAE070B5
:1086FC0008BD13B50446007C0191FDF72FFD002841
:10870C00019901DC607C20B1207CFDF737FD20EA6B
:10871C00E07002B010BD007CFDF738BD10B514211F
:10872C00044600F024FE204610BD000010B54FF4A6
:10873C007A73044608460021C4E90113044B2360F4
:10874C000123207463741146FDF7F0FC204610BD24
:10875C0080AD0D00007C0022FDF7F0BC10B514229A
:10876C000446002101F0C8FD204610BD10B5104C88
:10877C0088B003A8FFF7F2FF2178BFF35B8F11F0ED
:10878C00010111D120460191FBF783FC019958B1ED
:10879C0003AA0848FFF7CAFF2046FBF77FFC064AEE
:1087AC000649044800F0DEFD024808B010BD00BFC9
:1087BC0084E6032088E6032048DF0320C1860D00F1
:1087CC0070474174704708B5007CFDF7C7FB20EA81
:1087DC00E07008BD08B5007CFDF798FB20EAE0705E
:1087EC0008BD08B5007CFDF7A1FB40EAE07008BDB0
:1087FC0008B5007CFDF792FB40EAE07008BD007CF8
:10880C00FDF79CBB37B5457C04462DB1207C03B0ED
:10881C00BDE83040FDF772BB007C0191FDF79EFB7B
:10882C0000280199F2DC284603B030BD10B51421A4
:10883C00044600F09CFD204610BD000010B54FF022
:10884C00000C0446084611464FF47A72C4E901C282
:10885C00044A22600122207462741A46FDF746FB1A
:10886C00204610BDB0AD0D0013B50E4C2178BFF3F2
:10887C005B8F11F0010112D120460191FBF709FC2D
:10888C00019960B1084A094B0948FFF7D7FF204608
:10889C00FBF704FC074A0849054800F063FD04484F
:1088AC0002B010BD9CE60320A0E6032024E70320C1
:1088BC00A8E7032048DF0320CD870D007047F8B5EB
:1088CC00064615460C468F18BC4206D0336814F881
:1088DC00011B9B6830469847F6E72846F8BD007C9C
:1088EC000022FDF763BB007C0021FDF767BB007C19
:1088FC000021FDF76BBB007C0021FDF76FBB007CFA
:10890C000021FDF773BB10B51421044600F02FFDB8
:10891C00204610BD10B54FF47A730446084600216A
:10892C00C4E90113034B236020741146FDF76EFB61
:10893C00204610BDE0AD0D000023007C1A46194600
:10894C00FDF714BB007C0021FDF718BB7FB500229E
:10895C001423CDE90122ADF804300B788DF80830E2
:10896C004B680393CB680493007C0B7A059301A9A5
:10897C00FDF754FB07B05DF804FB1FB5003B8DF809
:10898C0000104FF06401039118BF01236946019256
:10899C008DF80830FFF7DAFF05B05DF804FB012312
:1089AC00FFF7EBBF007C0022FDF7F0BAC9B2FFF76E
:1089BC00F9BF007C0022FDF7F1BA0121FFF7F9BFE6
:1089CC0013B503688DF80710DC6B01224FF0FF33F1
:1089DC000DF10701A04702B010BD10B40368DC6BA9
:1089EC004FF0FF33A4465DF8044B604713B51346B4
:1089FC0002688DF80710D46B0DF107010122A04716
:108A0C0002B010BD704738B543691A68002A054694
:108A1C0010DAB3F88620B3F884309A420AD103688E
:108A2C001B699847044628B92B682846DB6A984787
:108A3C00204638BD0120FCE743691868C043C00FCD
:108A4C0070477047064B994210B500F10C0405D0E5
:108A5C00084600F095FC002808BF0024204610BDF5
:108A6C0000AD0D0010B5AC21044600F080FC204692
:108A7C0010BDFBF70CBB2DE9F0414FF0000886B0A0
:108A8C001D46C0F8048004460E4617464146102287
:108A9C0002A801F031FC6B1C09D04FF47A70B5FBC5
:108AAC00F0F3CDE9023800FB13535843049060698E
:108ABC0010230093006802AB41F2050240F6FF71EF
:108ACC00FDF7B4FA002807DAFDF79EFC0368636033
:108ADC00002006B0BDE8F0816069002300683A46CA
:108AEC003146FDF7C3FA031EEEDB1846F1E7000032
:108AFC0038B584690A4B036005467CB16368013B59
:108B0C0063605BB9236820469B689847A368013B68
:108B1C00A3601BB923682046DB689847284638BDFC
:108B2C0034AE0D0010B50446FFF7E2FF20461C21C1
:108B3C0000F01DFC204610BD70B54D69054B044678
:108B4C008C3544F8043B06460FCD0FC42B682370BC
:108B5C00304670BD6CAD0D0010B54369B3F886207E
:108B6C00B3F884309A42044605D06369B3F8842084
:108B7C001344187910BD03681B6998470028F4D179
:108B8C004FF0FF30F6E710B54369B3F88620B3F821
:108B9C0084309A42044608D06369B3F88420511C8F
:108BAC00A3F884101344187910BD03681B69984707
:108BBC000028F1D14FF0FF30F6E7F8B543691746BE
:108BCC00B3F88620B3F884309A4205460E4616D088
:108BDC006969B1F88430B1F88640E41ABC4228BF08
:108BEC003C46043322461944304601F05DFB6A6969
:108BFC00B2F884302344A2F884302046F8BD0368D0
:108C0C001B6998470028E3D14FF0FF34F5E7426920
:108C1C000023A2F884304269A2F8863070472DE90F
:108C2C00F0411F4603680C46DB6A8AB005461646BF
:108C3C009847237DD5F81480042B0CBF02200A2002
:108C4C0006220121FDF71AFAC8F800006B691B68AF
:108C5C00002B08DA2B682846DB6A0024984720464C
:108C6C000AB0BDE8F0812846FFF7D1FFB7B1002369
:108C7C0003A9F8B20393ADF81030FDF72BF80028D8
:108C8C00E8D1686906230093006803AB41F20B023C
:108C9C0040F6FF71FDF7CAF90028DBD11C22002138
:108CAC0003A801F029FB237D042B1DD14FF407737E
:108CBC003046ADF80C30FDF711F9ADF80E006068D8
:108CCC00FDF704F904906B691C22186803A9FDF7E1
:108CDC00BDF90028BED104340FCC6D698C350FC59D
:108CEC0023682B700124BAE740F61C233046ADF8FC
:108CFC000C30FDF7F3F805AEADF80E00231D04F1B2
:108D0C00140718685968324603C20833BB4216462A
:108D1C00F7D1D8E730B54269B2F886308BB004464B
:108D2C002BB1B2F884209A4201D1FFF770FF616930
:108D3C000868002818DBB1F886507F2D14D8043150
:108D4C000823C5F180022944FDF788F9002813DDBA
:108D5C006369B3F886200AB9A3F884206369B3F871
:108D6C0086201044A3F886006369B3F88600B3F834
:108D7C008430C01A0BB030BDFDF746FB03680B2BDB
:108D8C00F2D0FDF741FB03680B2BEDD0202300251F
:108D9C00CDE90235FDF738FB03680193084B09490F
:108DAC00009302AA2B463220FDF708FA6369186873
:108DBC00FDF744F963694FF0FF321A60D4E700BF46
:108DCC0000AE0D0088AB0D0010B543690446186861
:108DDC00002801DBFDF732F963694FF0FF321A60AE
:108DEC006069112200218C3001F086FA2046BDE822
:108DFC001040FFF70CBF10B5002304460160C0F80B
:108E0C0084308830FFF702FC204610BD73B5002378
:108E1C004FF47A72C0E901320E4A03610260436179
:108E2C000446AC200191FBF72EF9051E05F10C064A
:108E3C0008D00123C5E90133074B01992B6030465B
:108E4C00FFF7D9FF2046C4E90565FFF7E0FE02B045
:108E5C0070BD00BF34AE0D0018AE0D0010B54FF054
:108E6C00FF310446FFF7D2FF204610BD10B5044673
:108E7C000068002801DBFDF7E1F8204610BD0C303E
:108E8C00FFF7F4BF2DE9F0439846036893B00D4605
:108E9C000024DB6A06461746984728466B4622464E
:108EAC0021460094FCF7EEFE0546002863D1009B9A
:108EBC00002B4BD05B69002B48D006A8FFF7A6FB14
:108ECC00009B5C696378022B04D1211D06A8FDF779
:108EDC00CDFC26E00A2B24D11122294601A801F051
:108EEC000BFAA368002B38D004F108030DF1040C25
:108EFC00183418685968624603C20833A342944672
:108F0C00F7D1062301A90CA88DF81430FFF78CFBC0
:108F1C000DF1340CBCE80F0007AC0FC4DCF80030CA
:108F2C00237006A8FFF792FB80B1336807ADD3F826
:108F3C002090124B0C930FCD0DAC0FC42B682370EB
:108F4C003A4643460CA93046C84705460098FCF7FC
:108F5C0091FE284613B0BDE8F083E368002BC3D123
:108F6C004FF6FF70D4F81090FCF7B0FF8145BBD1E1
:108F7C0004F11401AAE72546E8E700BF6CAD0D002B
:108F8C0030B5D1E901439C4210DA0B68621C4A608F
:108F9C000546382202FB04340FCD0FC40FCD0FC48D
:108FAC000FCD0FC495E8030084E8030030BD002208
:108FBC0040681146FDF788B9002240681146FDF75C
:108FCC00ABB940680022FDF79FB94068002281F0E0
:108FDC000101FDF771B9002240681146FDF744B953
:108FEC00406800220221FDF747B900001FB500239D
:108FFC0001910648029301A90392FDF7CFF8039B58
:10900C009842A8BF184605B05DF804FB8D8F0D0083
:10901C00024B04225A60024A1A607047BCE70320D4
:10902C0080AE0D00002340681A46FDF715B9406864
:10903C0000220221FDF720B9002240681146FDF7FD
:10904C0013B9002240681146FDF71EB90023406891
:10905C001A461946FDF720B9002340681A461946EE
:10906C00FDF722B940680021FDF75EB94068002188
:10907C00FDF762B94068002281F00101FDF71CB9CF
:10908C0040680022FDF740B9002240681146FDF708
:10909C0043B9002240681146FDF716B92DE9F0439B
:1090AC00002495B016460D460746FFF7AFFA214649
:1090BC0018220EA8009401F01FF94023CDE90C34BE
:1090CC0021466B460CAA3046FCF7DCFD0446002812
:1090DC004CD1024601216868FDF7D6F80221804682
:1090EC0022466868FDF7D0F8009E81462146002E86
:1090FC003CD000293AD17368022B03D00A2B11D033
:10910C00F669F4E7B8F1000F0AD0716906A80431CA
:10911C0007ADFFF7BFFA0FCD3C1D0FC42B682370B2
:10912C004146EDE7B9F1000F01D14946E8E7746912
:10913C00102201A801F0E0F806238DF8143001ADDF
:10914C0004F108031834186859682A4603C2083316
:10915C00A3421546F7D101A906A807ADFFF764FA9B
:10916C000FCD3C1D0FC42B682370DEE70098FCF775
:10917C0081FD384615B0BDE8F0830000024B034A70
:10918C001A6000225A607047C4E70320BCAE0D0081
:10919C0008B5024B1B681B68019308BD5C020300F9
:1091AC0008B5024B1B685B68019308BD5C020300A9
:1091BC0008B5024B1B689B68019308BD5C02030059
:1091CC00232813B502D9002002B010BDA0F10B0367
:1091DC00022B1AD8174C2178BFF35B8F11F00101C9
:1091EC000BD120460191FAF754FF019928B112488E
:1091FC00FDF75EF92046FAF751FF0F4B1878FCF794
:10920C0075FF0028DFD10120DEE7012809D800F026
:10921C0081F80021007CFCF7F1FE80F00100C0B267
:10922C00D2E709380128EED8FFF71EFB007CFCF7CB
:10923C008DFEF2E730E6032034E60320232838B510
:10924C0004460D460AD8FF2908D0FFF7B9FF28B10C
:10925C0029462046BDE83840FCF71CBD38BD38B562
:10926C0004460D46FCF71EFDFF2810D0062804D836
:10927C004D2323FA00F0C30709D42046FFF7A0FFC3
:10928C0028B129462046BDE83840FCF713BD38BD4F
:10929C0010B50446FCF706FD031FDBB2012B08D901
:1092AC002046FFF78DFF20B12046BDE81040FCF7AB
:1092BC0009BD002010BD000010B5084C2378BFF389
:1092CC005B8FDB0708D42046FAF7E3FE20B1FCF7EE
:1092DC0021FD2046FAF7E2FE014810BDD0E703203D
:1092EC00D4E7032038B500232025438014230446FB
:1092FC000380856005610649284600F03CF8044966
:10930C006060284600F037F8E060204638BD00BFAA
:10931C00F0AE0D0030B50F4D2978BFF35B8F11F017
:10932C00010487B013D12846FAF7B3FE78B101A82F
:10933C00FFF7D8FF01AA21460748FFF7EBFA2846AA
:10934C00FAF7ACFE054A0649034800F00BF8024850
:10935C0007B030BDD8E70320DCE7032048DF03204B
:10936C00C9880D000B460146184600F06DBFFAF790
:10937C008EBEFAF788BEFAF788BE08B5FDF73CF842
:10938C00014900F0F9B800BF0CAF0D007FB5002407
:10939C001023CDE90234036800949E698DF80440D3
:1093AC0015466B461268B0479DF8043003F006036F
:1093BC00062B03BF009B2B600120204604B070BD20
:1093CC000098904214BF01200620704710B5034B43
:1093DC000360044600F0CDF8204610BD4CAF0D00E4
:1093EC0010B50446FFF7F2FF20460821FFF7BFFF38
:1093FC00204610BD2DE9F0411F46DDE90834DDF8AB
:10940C00188098450646154607D1079900F0B4F820
:10941C0018B165710020BDE8F0813946304600F086
:10942C00ABF80028F6D00123C4F800802571A37195
:10943C00F0E738B515461C4600F09EF820B108231D
:10944C00E36006232560237138BD73B505460C46D1
:10945C0001921E4600F090F850B9032E08D82368EC
:10946C00019A5B692946204602B0BDE87040184756
:10947C0002B070BD10B5034B03600446FFF7A6FFA6
:10948C00204610BDACAF0D0010B50446FFF7F2FF3F
:10949C0020460C21FFF76BFF204610BDF7B5089F47
:1094AC00974205460E4614460AD0A86802680897EB
:1094BC00156A31462246AC4603B0BDE8F040604721
:1094CC001946019300F058F8019B0028EDD00620B6
:1094DC0003B0F0BD2DE9F14F0D461946DDE90A4BFD
:1094EC00DDE90CA681461746984600F045F890B188
:1094FC00002D3460377109DB61198A450CBF0621D8
:10950C000121B171002001B0BDE8F08F0235F9D115
:10951C000123B371F6E7544506D15946484600F08D
:10952C002BF808B17771EDE7D9F808000368CDE99D
:10953C000CA6CDE90A4BDC693A4643462946A446BB
:10954C0001B0BDE8F04F60472DE9F04107460C46ED
:10955C0015461E46FFF76DFF48B9B86803689F694A
:10956C002A4633462146BC46BDE8F0416047BDE87B
:10957C00F081704700207047814208B50ED04068DA
:10958C0003782A2B0CD049680B782A2B08BF0131A1
:10959C0000F0DEFEB0FA80F0400908BD0120FCE7C7
:1095AC000020FAE781F0004102E000BF83F00043A5
:1095BC0030B54FEA41044FEA430594EA050F08BF62
:1095CC0090EA020F1FBF54EA000C55EA020C7FEA26
:1095DC00645C7FEA655C00F0E2804FEA5454D4EBA3
:1095EC005555B8BF6D420CDD2C4480EA020281EA6D
:1095FC00030382EA000083EA010180EA020281EAA5
:10960C000303362D88BF30BD11F0004F4FEA0131F6
:10961C004FF4801C4CEA113102D0404261EB410105
:10962C0013F0004F4FEA03334CEA133302D052428B
:10963C0063EB430394EA050F00F0A780A4F1010447
:10964C00D5F1200E0DDB02FA0EFC22FA05F2801881
:10965C0041F1000103FA0EF2801843FA05F3594167
:10966C000EE0A5F120050EF1200E012A03FA0EFCE6
:10967C0028BF4CF0020C43FA05F3C01851EBE37110
:10968C0001F0004507D54FF0000EDCF1000C7EEB2D
:10969C0000006EEB0101B1F5801F1BD3B1F5001F6B
:1096AC000CD349085FEA30004FEA3C0C04F101048A
:1096BC004FEA445212F5800F80F09A80BCF1004FB3
:1096CC0008BF5FEA500C50F1000041EB045141EA35
:1096DC00050130BD5FEA4C0C404141EB0101013CFE
:1096EC0028BFB1F5801FE9D291F0000F04BF0146ED
:1096FC000020B1FA81F308BF2033A3F10B03B3F1BF
:10970C0020020CDA0C3208DD02F1140CC2F10C024E
:10971C0001FA0CF021FA02F10CE002F11402D8BFAC
:10972C00C2F1200C01FA02F120FA0CFCDCBF41EA78
:10973C000C019040E41AA2BF01EB0451294330BD47
:10974C006FEA04041F3C1CDA0C340EDC04F1140424
:10975C00C4F1200220FA04F001FA02F340EA0300FB
:10976C0021FA04F345EA030130BDC4F10C04C4F141
:10977C00200220FA02F001FA04F340EA0300294621
:10978C0030BD21FA04F0294630BD94F0000F83F46B
:10979C00801306BF81F480110134013D4EE77FEA4E
:1097AC00645C18BF7FEA655C29D094EA050F08BF9A
:1097BC0090EA020F05D054EA000C04BF194610467B
:1097CC0030BD91EA030F1EBF0021002030BD5FEABF
:1097DC00545C05D14000494128BF41F0004130BDE7
:1097EC0014F580043CBF01F5801130BD01F000453B
:1097FC0045F0FE4141F470014FF0000030BD7FEAAE
:10980C00645C1ABF194610467FEA655C1CBF0B46A8
:10981C00024650EA013406BF52EA033591EA030FBF
:10982C0041F4002130BD00BF90F0000F04BF0021B7
:10983C00704730B54FF4806404F132044FF00005EA
:10984C004FF0000150E700BF90F0000F04BF002163
:10985C00704730B54FF4806404F1320410F00045C9
:10986C0048BF40424FF000013EE700BF42004FEAC4
:10987C00E2014FEA31014FEA02701FBF12F07F4341
:10988C0093F07F4F81F06051704732F07F4208BFF8
:10989C00704793F07F4F04BF41F40021704730B5FF
:1098AC004FF4607401F0004521F000411CE700BF4B
:1098BC0050EA010208BF704730B54FF000050AE0CE
:1098CC0050EA010208BF704730B511F0004502D5CF
:1098DC00404261EB41014FF4806404F132045FEAD1
:1098EC00915C3FF4D8AE4FF003025FEADC0C18BF7A
:1098FC0003325FEADC0C18BF033202EBDC02C2F16C
:10990C00200300FA03FC20FA02F001FA03FE40EAFD
:10991C000E0021FA02F11444BDE600BF70B54FF001
:10992C00FF0C4CF4E06C1CEA11541DBF1CEA1355DF
:10993C0094EA0C0F95EA0C0F00F0DEF82C4481EA47
:10994C00030621EA4C5123EA4C5350EA013518BF67
:10995C0052EA033541F4801143F4801338D0A0FB54
:10996C0002CE4FF00005E1FB02E506F00042E0FB01
:10997C0003E54FF00006E1FB03569CF0000F18BF07
:10998C004EF0010EA4F1FF04B6F5007F64F54074AF
:10999C0004D25FEA4E0E6D4146EB060642EAC62142
:1099AC0041EA55514FEAC52040EA5E504FEACE2EAF
:1099BC00B4F1FD0C88BFBCF5E06F1ED8BEF1004FB2
:1099CC0008BF5FEA500E50F1000041EB045170BD2E
:1099DC0006F0004646EA010140EA020081EA030172
:1099EC00B4EB5C04C2BFD4EB0C0541EA045170BD6E
:1099FC0041F480114FF0000E013C00F3AB8014F1E8
:109A0C00360FDEBF002001F0004170BDC4F1000430
:109A1C00203C35DA0C341BDC04F11404C4F12005B1
:109A2C0000FA05F320FA04F001FA05F240EA02000C
:109A3C0001F0004221F0004110EBD37021FA04F642
:109A4C0042EB06015EEA430E08BF20EAD37070BDFC
:109A5C00C4F10C04C4F1200500FA04F320FA05F05B
:109A6C0001FA04F240EA020001F0004110EBD3705D
:109A7C0041F100015EEA430E08BF20EAD37070BDCD
:109A8C00C4F1200500FA05F24EEA020E20FA04F3A6
:109A9C0001FA05F243EA020321FA04F001F0004155
:109AAC0021FA04F220EA020000EBD3705EEA430EC6
:109ABC0008BF20EAD37070BD94F0000F0FD101F0F5
:109ACC000046400041EB010111F4801F08BF013C2E
