:02000002D0002C
:1040000000400D0098B00D00000006000C000501F6
:084010000401BD0B00000000DB
:04401800CCA30D0028
:10401C0009480A49884208B505D0094A824202D0AB
:10402C00121A06F0A3F80748074A0021121A06F0E4
:10403C00C5F8014808BD00BFD4DE0320DCAF0D007D
:10404C0068DF032068DF0320F0E7032070B5074E1C
:10405C00074C04F0AFF9A41BA4080025A54200D11D
:10406C0070BD56F8043B98470135F7E7A0AF0D003B
:10407C00C4AF0D0000F0DAB808B500F0D3F9BDE814
:10408C00084004F059B902F0F3B802F0F1B802F0AC
:10409C00F7B80078B0FA80F040097047012303703C
:1040AC007047704710B50446043002F0A1FB20465F
:1040BC0010BD10B504463C3002F09AFB04F1280008
:1040CC0002F096FB204602F093FB204610BD000048
:1040DC0008B5074B00221A6004F09CFA054903F05E
:1040EC009AFFBDE808400121072004F0F4BF00BF8F
:1040FC00D0DF0320E3A30D0008B504F08BFA0449CC
:10410C0003F089FFBDE808400021072004F0E3BF5D
:10411C00E0A30D0038B50446006928B185680C2170
:10412C0005F061F82846F8E7204638BD08B502F0DE
:10413C006FF820B1BDE80840002002F071B808BD4E
:10414C0010B504220C4601F041FD204610BD0000C4
:10415C0038B584690A4B036005467CB16368013B42
:10416C0063605BB9236820469B689847A368013B52
:10417C00A3601BB923682046DB689847284638BDE6
:10418C00ECAC0D0010B50446006808B102F078F8EC
:10419C00204610BD002340681A46194601F0D0BFD6
:1041AC00002340681A46194601F0D2BF002340682C
:1041BC001A4601F0A5BF00224068114601F0B8BFB5
:1041CC0070B5037D05460E46CBB10368DB6823B1A1
:1041DC009A88042A17D09B68F9E70C49102005F03F
:1041EC0004F8044668B11022002105F0E7FF084BE3
:1041FC0023600423A3802B692C61C4E90236284672
:10420C0070BD2875FBE7DE60F9E700BFA8AD0D00B7
:10421C001000030008B501F0C9FC034B1860BDE8A1
:10422C00084001F0E5BF00BFCCE7032010B596B005
:10423C0004F07EFF4C49C820FFF782FF4B4B1A7DE0
:10424C000AB102221A7240F2A2314848484CFFF7D8
:10425C00B7FF04F0DFF94FF4165104F0CFF9182131
:10426C00444801F0E4F804F091FF04F0BFFA19217E
:10427C00404801F0DCF83F48002101F0AFF83D4820
:10428C00072101F0C3F80121082004F013FF0121DC
:10429C00082004F020FF3849204602F03CFB40F691
:1042AC00B8333649A36304F1280002F034FB03F061
:1042BC0063F803F0AFF803F05FF8314A01460DA83C
:1042CC0003F04CFD0DA803F044F903F055F82D4A0A
:1042DC0001460DA803F042FD0DA803F03AF90DA814
:1042EC0002F0C5FE284903A802F0C4FD03A908A8E2
:1042FC0002F0C0FD08A802F003FE044608A854BB57
:10430C0002F01DFE0094ADF80A0002230DF10A0222
:10431C0003210DA802F0A0FE03F02EF80DA9002237
:10432C0003F098F803F028F81849002203F00CFC6D
:10433C0003F022F80022164903F01CFC012107208F
:10434C0004F0B8FE134B00221A6001F02FFC124B44
:10435C00186016B010BD02F0F7FD00230093024662
:10436C0010230721D5E700BF2CE60320B8DF03207C
:10437C0080E5032004E40320EDA30D00FDA30D0054
:10438C0014E60320E0E5032078DF0320DD400D0078
:10439C0005410D00D0DF032008E60320F0B51646DA
:1043AC0091B00022C0E9002204460D460BAF19461D
:1043BC0006A802F05FFD1699384602F05BFD3378D3
:1043CC008DF81430189B0293179B2046CDE900738F
:1043DC0005AA06AB294603F053FB204611B0F0BDED
:1043EC00F8B505460C4616464AB90368C9B29B682F
:1043FC0098470746284603F002FE3844F8BD0029CA
:10440C000CDA0A2A0AD12D2103F0F0FD614207468D
:10441C00F2B2284603F009FE0744EBE721460027D9
:10442C00F6E700002DE9F0432DED028B094C97B017
:10443C00FFF7F0FE25787DB101F0EAFE20B9FFF719
:10444C00E9FE01F0DDFEF7E700232370FFF7E2FE43
:10445C00FCE700BF5CE5032001F0A8FBC94B18602A
:10446C00C94BA0F59C501B680738984200F3EE81AD
:10447C00C64B1B78002B00F0E481C54C25782DBB76
:10448C00FFF7C8FEC348FFF785FE2946C148C14D5A
:10449C00FFF78CFE2846FFF78EFE0028FAD001F0BD
:1044AC00AFFEFFF743FE41F2883003F00BFFFFF73E
:1044BC00B1FE002312A8CDE912338DF8503003F071
:1044CC00ABFFB448FFF76CFE0123237004F030FE01
:1044DC00B1490020FFF734FE04F02AFEAF496420F6
:1044EC00FFF72EFE04F024FEAD49C820FFF728FE8E
:1044FC00AC4B1A7D0AB102221A72A84EAA4C316832
:10450C00A848DFF894829FEDA98AA94F4639FFF796
:10451C0057FE204600F0DCFF03F0BAFE0A220146EB
:10452C0012A802F01DFA12A9A24802F0ECF912A886
:10453C0002F05EF904F06EF894ED030A022103F028
:10454C0066FE04F067F894ED040A022103F05FFEA6
:10455C0004F060F894ED050A022103F058FE964928
:10456C0002A802F090F90A22D8F8001006A802F06E
:10457C00E4F906A902A802F048FA904902F051FAAF
:10458C0094ED030A20EE080A054604F047FF0621C5
:10459C0080EE080A0AA802F0F6F90AA9284602F0E9
:1045AC0034FA874902F03DFA94ED040A20EE080A29
:1045BC00054604F033FF062180EE080A0EA802F02F
:1045CC00E2F90EA9284602F020FA7D4902F029FAF8
:1045DC0094ED050A7B4C20EE080A054604F01EFFFC
:1045EC00062180EE080A12A802F0CDF912A928467D
:1045FC0002F00BFA74496A4D02F013FA6D4902F09D
:10460C0004FA724902F00DFA0146384602F0ECF950
:10461C0012A802F0EDF80EA802F0EAF80AA802F0CF
:10462C00E7F806A802F0E4F802A802F0E1F803F0BB
:10463C00F1FF396803F0EFFC03F0ECFFD8F8001041
:10464C000A22FFF7CDFE03F0E5FF31680A22FFF7DF
:10465C00C7FE03F0DFFF29680A22FFF7C1FE03F053
:10466C00D9FF21680A22FFF7BBFE02F085FE03F09A
:10467C004FF802F081FE02F0E5FF12A8494901F063
:10468C0031FF1298A84608B101F0FAFD01F08EFA3C
:10469C004F4B504D1860504B1B68C01A2B68206054
:1046AC00002B00F3CA803B483A4CFFF773FD3948A6
:1046BC000021FFF77BFD2046FFF77DFD0028FAD097
:1046CC0001F09EFDFFF732FD4FF47A7003F0FAFD16
:1046DC00FFF7A0FD03F09EFF00230446002212A961
:1046EC000020CDE9122301F0ABFD0A220146204641
:1046FC0003F09BFC204603F082FC03F08BFF814609
:10470C0003F0C6FD041E80F2B2802D21484603F052
:10471C006DFC61420A22484603F087FC484603F0D0
:10472C006EFCB96822482D4F013902F0F4F92C497E
:10473C0012A802F0A8F81E4912A802F066F929493D
:10474C0002F06FF90146284802F0CEF812A802F0E8
:10475C004FF8264B2649274800933A46264B00F043
:10476C00EFFF03F057FF3B682449194403F053FC57
:10477C0003F050FF2249044612A802F084F8391DB8
:10478C0012A83FE00CE6032008E60320B4DF032068
:10479C0010E60320BCE70320D4DF0320F4DE032063
:1047AC00F8DE0320B8DF032004E403200000C84235
:1047BC0070E503201CE60320FFA30D0008A40D00E8
:1047CC0025A40D0000E6032014A40D0024A40D0064
:1047DC00FCE503202CE60320F8E50320CCE50320C0
:1047EC0027A40D0031A40D00BCE5032034A40D005A
:1047FC0080E50320D8DF0320D4DE032039A40D008C
:10480C0042A40D0002F001F90168204603F003FCFC
:10481C0012A801F0EDFF1749174802F07CF8D8F800
:10482C0000302B6012A80023CDE912338DF85030E4
:10483C0003F0F2FD1148FFF7B3FC2B6832689B1AAA
:10484C002B6017B0BDEC028BBDE8F0830B4B2A46F6
:10485C005868294601F094FC00283FF409AE02F098
:10486C008BFD02F00AFE00287FF402AE05E621461D
:10487C0050E700BF3FA50D0070E50320BCE7032007
:10488C0038B505464AB90268C9B2926890470446E1
:10489C00284603F0B4FB204438BDD2B203F0C5FB6C
:1048AC00F5E738B5054642B903689B689847044656
:1048BC00284603F0A4FB204438BDD2B203F0B5FB6C
:1048CC00F5E700002DE9F04F0E4695B0A94D0446D2
:1048DC0003F0A0FE0A223146FFF7D2FFA649A748F3
:1048EC0002F019F82B68072B00F2C980DFE813F0EF
:1048FC000E0198007F006C00520038001B0008006D
:10490C009E4F26440134B44200F0F48203F082FE40
:10491C0014F8011C0A22FFF7C4FF14F8011C3846D6
:10492C0002F066F8EEE7964FDFF850822644013429
:10493C00B44200F0828203F06DFE0A2214F8011CCE
:10494C00FFF7AFFF14F8011C8C4802F051F8D8F8AF
:10495C00000005F0D7FB4FF47A7358433860E6E754
:10496C00884FDFF8188226440134A64200F01B82DF
:10497C0003F050FE0A2214F8011CFFF792FF14F802
:10498C00011C7E4802F034F8D8F8000005F0BAFBA0
:10499C003860E9E77C4FDFF8E48126440134B44207
:1049AC0000F0C48103F036FE0A2214F8011CFFF754
:1049BC0078FF14F8011C714802F01AF8D8F80000BE
:1049CC0005F0A0FB3860E9E76C4F26440134A642A1
:1049DC0000F04C8103F01EFE14F8011C0A22FFF7B4
:1049EC0060FF14F8011C384602F002F8EEE7634F42
:1049FC00DFF8C88126440134A64200F0E38003F0BE
:104A0C0009FE14F8011C0A22FFF74BFF14F8011CD5
:104A1C00384601F0EDFF3946404601F065FFEAE704
:104A2C00564FDFF8748126440134A6422DD014F879
:104A3C00011C384601F0DCFF3946404601F054FFBA
:104A4C0003F0E8FD14F8011C0A22FFF72AFFEBE73C
:104A5C00382101FB03A104314C4801F05CFF03F049
:104A6C00D9FDA1680A22FFF70BFF484948480022EC
:104A7C0002F0C4FB47490022454802F0C4FB2B68F6
:104A8C0001332B6015B0BDE8F08F434E03F0C2FD2F
:104A9C00316803F0C0FA03F0BDFDB1680A22FFF7DC
:104AAC00EFFE3549304601F0D1FF0446F8B103233F
:104ABC002B60354C04F03CFB21460020FFF740FBFB
:104ACC0036493348002202F09EFB21684C1C0BD067
:104ADC000A2201A801F031FF2D48002201A902F0A1
:104AEC008DFB01A801F084FE2D490022C4E72D495D
:104AFC00304601F0ABFF0246002838D02A48234646
:104B0C0040682246214601F04BFB2C602749204887
:104B1C00274E1E4CDFF87880DFF8A490002202F0BC
:104B2C0072FB24492048052204F0B4F92149306075
:104B3C0000278A463368013BBB4201F1380B87DD05
:104B4C000431204601F0E7FE03F064FDA1680A225F
:104B5C00FFF796FE00222146404602F04FFB4946E5
:104B6C000022404602F04FFB01375946E2E712495A
:104B7C0082E700BFD0DF03203FA50D00F4E3032044
:104B8C00F8DE0320F4DE0320D4DF032030E403201E
:104B9C0014E6032075A40D00E8E50320BAA40D006B
:104BAC00CDA40D00F3A40D00BCE7032049A40D0017
:104BBC0040E4032044E40320F9A40D0060E5032045
:104BCC0072A40D00AF4C03F025FD216803F023FA0D
:104BDC0003F020FDA1680A22FFF752FEAA4B2668BB
:104BEC00D3F80080B8F1000F3CD0404605F024FB10
:104BFC000746002E38D0304605F01EFB04463822FE
:104C0C00002106A805F0DAFA4C23CDE901389F48BB
:104C1C0005940323ADF81830002301AA1946406807
:104C2C00CDE9037601F0B4FA03F0F4FC984904469C
:104C3C0001A801F028FE944901A801F0E6FE95496F
:104C4C0001F0EFFE8F4901F0E0FE934901F0E9FE1F
:104C5C000168204603F0DFF901A801F0C9FD8F4976
:104C6C00002209E74746C4E73446C8E78C498D481B
:104C7C0001F0ECFE00283FF41CAF844C002260686D
:104C8C00114601F07DFA00283FF413AF00F08EFFBF
:104C9C00854E30602046FFF77DFA00212046FFF755
:104CAC0085FA274647F2305800226068114601F019
:104CBC002FFA08B300F07AFF336843448342F3D8E9
:104CCC007A4B00221A7003F0A5FC794903F0A3F982
:104CDC0003F0A0FC044600F069FF0A2201462046BE
:104CEC0003F0A3F9204603F08AF903F093FC316832
:104CFC000A22FFF775FB04E03846FFF75CFA002840
:104D0C00D8D06A4E6148FFF74BFA34782CB1694918
:104D1C006948002202F077FACBE6684966482246D9
:104D2C0002F071FA01232C603370EFE664495D48A0
:104D3C0001F08CFE044658B904F0FAF961490422DA
:104D4C00204600F04BFF03F065FC5F4903F063F96C
:104D5C0004F0EEF95B495D4C0020FFF7F1F903F02C
:104D6C0059FC3B685A49194403F055F904F0E0F931
:104D7C0021466420FFF7E4F956494F48002202F01F
:104D8C0042FA2168481C0BD00A2201A801F0D5FD7B
:104D9C004948002201A902F031FA01A801F028FDCE
:104DAC004D49002268E646493E4801F04FFE28B1C5
:104DBC0004F0BEF945496420FFF7C2F904F0B8F9D4
:104DCC0004224249642000F009FF04F0B1F93F4984
:104DDC006420FFF7B5F9414B1A7D0AB102221A7211
:104DEC0039683F4C3D484639FFF7EAF903F012FCAD
:104DFC000A223968FFF7F4FA04F09AF92146C82020
:104E0C00FFF79EF9002237492B4802F0FCF9236882
:104E1C005A1C0FD00A224FF47A7101A893FBF1F1BE
:104E2C0001F08BFD2448002201A902F0E7F901A84A
:104E3C0001F0DEFC2C4900221EE62149194801F044
:104E4C0005FE28B104F074F92549C820FFF778F95C
:104E5C0004F06EF904222249C82000F0BFFE04F0D1
:104E6C0067F91F49C820FFF76BF9204B3A681A60A5
:104E7C0003F0D0FB39680A22FFF7B2FA1C49002272
:104E8C00FAE500BF60E50320E8E50320BCE703205A
:104E9C0013A50D0031A50D003DA50D0040A50D007D
:104EAC0074A50D00F4E3032004E60320FCDE0320CC
:104EBC0079A50D0081A50D0014E603208BA50D002E
:104ECC003FA50D00D4DF0320ABA50D00F4DE0320BD
:104EDC00B8A50D00BFA50D00F0A50D00B8DF03208F
:104EEC00F8DE032045A60D0076A60D002CE6032067
:104EFC00C7A60D001049114801F0A8FD98B103F0A8
:104F0C0089FB0F4903F087F8002201A901208DF8D5
:104F1C00042001F0C7F803F07DFB0A4903F07BF88D
:104F2C00094B01221A70094B0122002107201A702B
:104F3C0004F0D1F8A3E500BFFDA60D00F4E30320B7
:104F4C0001A70D0005A70D005CE50320B4DF0320CD
:104F5C0010B52C21044604F046F9204610BD000083
:104F6C0070B56A4D6A4BAB60002490B02C60AC807D
:104F7C00AC71032001F086F8664A6749284604F0B4
:104F8C002DF966496648674D01F07DFC614A66491A
:104F9C00634804F023F96149644801F074FC5D4AEC
:104FAC006149624804F01AF95C49614801F06BFCF4
:104FBC00584A5D495E4804F011F958495D4801F0C2
:104FCC0062FC544A58495B4804F008F95A4800F00E
:104FDC000FF9504A5949584804F000F958485949B2
:104FEC00A0F809400346021D43F8092B9C700123CD
:104FFC000375554B4360474A0472C0E9034404F0FF
:10500C00EDF8524800F043FB424A51494F4804F036
:10501C00E5F842494F4801F036FC4F4803F04AFA94
:10502C003E494E4801F02FFC3C494D4801F02BFC09
:10503C00384A4C49474804F0D1F838494A4801F0FD
:10504C0022FC344A49494A4804F0C8F849494A48BC
:10505C0001F0F6FF49494A4801F0F2FF49494A4834
:10506C0001F0EEFF102348498DF8143006A801F02A
:10507C0001FF41490BA801F0FDFE0BABCDE901444A
:10508C004249009305AA06AB4148FFF787F9214A2C
:10509C0040493F4804F0A2F8042339498DF81430F4
:1050AC0006A801F0E7FE34490BA801F0E3FE3A4BE9
:1050BC0001930BAB39490294009305AA06AB38480F
:1050CC00FFF76CF9134A3349354804F087F8134954
:1050DC00344801F0D8FB0F4A1349324804F07EF8EB
:1050EC0005243826281D3422002105F067F8013CE0
:1050FC0045F8386BF6D109492B4801F0C4FB054A39
:10510C000949294804F06AF810B070BD6CDF03201F
:10511C000000FFFF68DF032091410D003FA50D004B
:10512C0070E5032044E40320FD670D001CE603201A
:10513C00E8E5032060E5032004E40320AF400D0004
:10514C00B8DF032021410D0010000300D8DF03203D
:10515C005D410D0080E5032090E50320A8E50320C8
:10516C00BCE50320BF400D00D0E50320B1400D008D
:10517C00CCE5032009A70D0078DF03202EA70D0036
:10518C008CDF032053A70D00A0DF032078A70D00B0
:10519C0014E603205F750D00D1480D007BA70D00B0
:1051AC00E0E50320F4E3032030E403207047000023
:1051BC000B4610B5282204460021184604F0FEFFC9
:1051CC0008490B2205F040F800220121C272C1608F
:1051DC000346A0695A62C3E9040100229A61DA61AC
:1051EC001A6210BDC9A70D000368C9B29B681847A5
:1051FC00064A02604FF0FF3282614277C283FF227F
:10520C0080F8202008224262704700BFD8A70D000A
:10521C0013B50B4C2178BFF35B8F11F001010BD14F
:10522C0020460191FEF735FF019928B1054801F0A0
:10523C0093F82046FEF732FF024802B010BD00BFC3
:10524C0030E6032034E603202DE9F04190F92030BC
:10525C00013305460F4606D1FFF7DAFF3946BDE8A4
:10526C00F04101F003B9002407264FF0010895F92D
:10527C002000002180B203F02EFF95F91E0008FAE1
:10528C0006F1394080B203F026FF95F92000012188
:10529C0080B203F020FF95F91F00640080B2E4B2E5
:1052AC0003F032FF08B144F00104013EDFD2204686
:1052BC00BDE8F08108B5FFF7ABFF012101F067F8FD
:1052CC00FFF7A6FF0549012201F09EF8FFF7A0FFAA
:1052DC00BDE80840002101F06DB800BF20A1070017
:1052EC0070B590F91D30013304460E46154616D1A3
:1052FC0003F04CFF217F03F0A9FA03F047FF03688A
:10530C0031469B68984703F041FF036829469B6828
:10531C00984703F03BFFBDE8704003F0A2BA90F948
:10532C002030013301D1FFF7C5FF94F91D00002196
:10533C0080B203F0D0FE06F07F012046FFF784FF19
:10534C0029462046FFF780FF94F91D000121BDE896
:10535C00704080B203F0BFBE38B590F91D300133F8
:10536C0004460D461DD103F011FF94F91C1003F0F7
:10537C0071FA03F00BFF036829469B68984703F00A
:10538C0005FF03F06EFA03F001FF217F012203F009
:10539C005AFA03F0FBFE03685B699847C5B22846CE
:1053AC0038BD90F92030013301D1FFF783FF94F918
:1053BC001D00002180B203F08EFE45F080012046D6
:1053CC00FFF742FF00212046FFF73EFF054694F908
:1053DC001D00012180B203F07EFEE0E738B50D46DA
:1053EC0023210446FFF7B8FF20F0300242EA0512F1
:1053FC002046D2B2BDE838402321FFF771BF08B573
:10540C002321FFF7A9FFC0F3011008BD38B50D46E5
:10541C0020210446FFF7A0FF00F00F0242EA05121C
:10542C002046D2B2BDE838402021FFF759BF10B555
:10543C000446017790F91D00421C23D103F0A6FE0F
:10544C0003F0CEF90F212046FFF786FF33283DD11C
:10545C00072220212046FFF743FF07212046FFF7B4
:10546C00D5FF882223212046FFF73AFF1022222164
:10547C002046FFF735FF204680221F21FFF730FF23
:10548C00012010BD012180B203F025FE94F91D000E
:10549C00012180B203F00EFE94F92000431C04D1CC
:1054AC00FFF7B6FE00F062FFCCE7012180B203F0FB
:1054BC0001FE94F91E00012180B203F0FBFD94F96A
:1054CC001F00002180B203F0F5FDBBE70020D8E7F8
:1054DC0038B590F91D300133044676D103F056FEF1
:1054EC0094F91C105C4D03F0B5F903F04FFEA821A4
:1054FC00FFF77AFE03F04AFE03F0B3F903F046FE21
:10550C00217F062203F09FF903F040FE03685B69DC
:10551C009847E08003F03AFE03685B699847E3889C
:10552C0005EA00201843E08003F030FE03685B6955
:10553C009847208103F02AFE03685B69984723890A
:10554C0005EA00201843208103F020FE03685B6904
:10555C009847608103F01AFE03685B69984705EA77
:10556C0000206589284360812046FFF748FF032807
:10557C0069D002286AD001286BD0002843F6FC734E
:10558C0018BF012307EE903AB4F9063007EE103A33
:10559C00F8EEE77AB8EEC77AB4F90830C7EE276AA6
:1055AC0007EE103AB8EEC77AC4ED036AC7EE276A65
:1055BC00B4F90A3007EE103AB8EEC77AC4ED046AB3
:1055CC00C7EE276AC4ED056A38BD90F92030013367
:1055DC0001D1FFF76FFE94F91D00002180B203F09A
:1055EC007AFDE8212046FFF72FFEFF212046FFF72A
:1055FC002BFEFF21E0802046FFF726FEE38843EADE
:10560C000020E080FF212046FFF71EFEFF212081B5
:10561C002046FFF719FE238943EA00202081FF2151
:10562C002046FFF711FEFF2160812046FFF70CFE9C
:10563C00638943EA0020608194F91D00012180B246
:10564C0003F049FD90E74FF400639BE74FF4805360
:10565C0098E741F6FE7395E700FFFF000C46054600
:10566C0008B520220021201D04F0A8FD242323606E
:10567C00AB6963600123A360002323612846FFF715
:10568C0027FFEB6863612B69A3616B69E36110B55C
:10569C00044603F037FB204610BD0000F8B50F4F51
:1056AC00054614460E4602F09DFC3946284602F08B
:1056BC0099FC2146284602F0AEFC02F0ABFF3146C5
:1056CC0002F090FC02F0A6FF394602F08BFC02F0CF
:1056DC00A1FF2146BDE8F84002F09DBCF0A40D00EE
:1056EC0010B50C4602F097FC02F094FF2146BDE881
:1056FC00104002F090BC0000F8B5104F054614465F
:10570C000E4602F06FFC3946284602F06BFC0A226A
:10571C0021462846FEF764FE02F07CFF314602F07B
:10572C0061FC02F077FF394602F05CFC02F072FF7C
:10573C000A222146FEF754FEF8BD00BFF0A40D006E
:10574C002DE9F04F0E4691B01F464FF0FF3313601A
:10575C00044600213046DDF86880914601F076F968
:10576C00D6F838E0034600286ED1BEF1000F14BF06
:10577C0072465022316892B2204603F0D7FA051EC9
:10578C0018BF0125002D7ED00021304601F05EF9B6
:10579C0000286CD102F03EFFBB4902F023FC02F062
:1057AC0039FF316802F01EFC02F034FFB74902F0F9
:1057BC0019FC02F02FFF0A22B16BFEF711FE4146D5
:1057CC00204602F00FFCB249204602F00BFCB16AF5
:1057DC00204602F007FCAF49204602F003FC02F021
:1057EC0019FFAD4902F017FC02F014FF414602F01C
:1057FC00F9FB02F00FFFA64902F0F4FB02F00AFFDE
:10580C00B16A02F0EFFB02F005FFA24902F0EAFBDD
:10581C00A249A34A2046FFF741FF0021304601F080
:10582C0015F920B932689F492046FFF737FF06F17A
:10583C003C0A0021504601F009F978BB726C9A4978
:10584C002046FFF759FF30E0984B0A9306F1140CF1
:10585C00BCE80F000BAD0FC5DCF800302B701FFA45
:10586C008EF200230AA9204603F02DF987E702F0F7
:10587C00D1FE8F4902F0B6FB02F0CCFE06F110010E
:10588C0002F0B7FB90E702F0C5FE8A4902F0C3FBB9
:10589C00204603F0EDF911B0BDE8F08F8649404683
:1058AC0004F0B8FC02460028C9D05FB1396849B190
:1058BC007A6820461AB1FFF7F1FE0837F6E7FFF7D2
:1058CC000FFFFAE7204602F09AFB204602F0EEFFAB
:1058DC000021504601F0BAF840B9F16B204602F0B5
:1058EC009AFB02F097FEF16B02F095FB02F092FE30
:1058FC0004F11C0A714902F08EFB4FF48062002106
:10590C00504604F05BFC00F051F9009000F04EF9A9
:10591C0000270190204603F051F90646B0B102F081
:10592C0079FE674902F05EFB02F074FE002E83469E
:10593C0027DA2D2102F05AFB71420A22584602F056
:10594C0074FB02F067FE5F4902F065FB4FF0000B41
:10595C00204603F033F938B3204603F068F85FFAB9
:10596C0080F802F057FE414602F040FB00F01EF9B1
:10597C0040F2FE339F42009005D80AF807800137A9
:10598C00E6E73146D9E740F2FF339F42F7D10023D7
:10599C0084F81B34204603F06BF902F03BFE4A49B5
:1059AC0002F039FBAB46EAE7E319187726B102F0AF
:1059BC0031FE464902F016FB00F0F8F8009BC61ABF
:1059CC00BBF1000F06D141F288339E4202D8C820A9
:1059DC0002F078FC204602F06AFF41F2883300287E
:1059EC004AD09E424AD8BBF1000F93D002F012FE6F
:1059FC00374902F0F7FA02F00DFE054600F0D6F832
:105A0C00019B0A22C11A284602F00FFB02F002FE8B
:105A1C00304902F000FB204603F02AF9514602A857
:105A2C0000F031FF0C23092202A906A801F032F87C
:105A3C0002F0F0FD284902F0D5FA02F0EBFD0699D0
:105A4C0002F0E9FA25490AA800F01DFF0AA902A8EC
:105A5C0001F01DF804460AA800F0CAFE631C43D1ED
:105A6C0002F0D8FD1E4902F0D6FA06A800F0C0FEDE
:105A7C0002A800F0BDFE0EE79E42B7D902F0CAFDA7
:105A8C00184902F0C8FAB1E7ECA70D0006A40D0006
:105A9C00F1A40D0027A80D0033A80D005CA80D0083
:105AAC0056A80D0086A80D008BA80D0024AC0D0087
:105ABC0008A80D0067A80D0034A40D009AA80D00CD
:105ACC00BBA80D00E7A80D00EFA80D0024A90D0040
:105ADC007FA90D00A4A90D00A9A90D00C3A90D0053
:105AEC00C8A90D004AA90D0009F104050A49284668
:105AFC0000F011FF221D02A90AA800F0EBFF0AA971
:105B0C00284600F071FF0AA800F072FE069804F017
:105B1C00F9FAC9F80000A8E73FA50D0008B5024B3B
:105B2C001B689B68019308BD6802030008B5024B13
:105B3C001B68DB68019308BD6802030008B5024BC3
:105B4C001B689B68019308BD2C02030008B5024B2F
:105B5C001B68DB68019308BD2C02030008B5024BDF
:105B6C001B681B69019308BD2C02030008B5024B8E
:105B7C001B685B69019308BD2C02030008B5024B3E
:105B8C001B685B69019308BD6C02030008B5024BEE
:105B9C001B685B68019308BD1802030008B5024B33
:105BAC001B68DB68019308BD1802030008B5024BA3
:105BBC001B685B69019308BD1802030008B5024B12
:105BCC001B689B6A019308BD1802030008B5024BC1
:105BDC001B685B6C019308BD1802030008B5024BEF
:105BEC001B689B6C019308BD1802030008B5024B9F
:105BFC001B689B6D019308BD1802030008B5024B8E
:105C0C001B685B6E019308BD1802030008B5024BBC
:105C1C001B689B68019308BD7802030008B5024B12
:105C2C001B68DB68019308BD7802030008B5024BC2
:105C3C001B681B6D019308BD7802030008B5024B6D
:105C4C001B689B6D019308BD7802030008B5024BDD
:105C5C001B681B6E019308BD7802030008B5034B4B
:105C6C001B68D3F89830019308BD0000780203003C
:105C7C0008B5034B1B68D3F8A830019308BD00008E
:105C8C007802030008B5034B1B68D3F8B4300193BA
:105C9C0008BD00007802030008B5034B1B68D3F85D
:105CAC00D830019308BD00007802030008B5034BFF
:105CBC001B68D3F8DC30019308BD000078020300A8
:105CCC0008B5034B1B68D3F8E830019308BD0000FE
:105CDC007802030008B5034B1B68D3F8EC30019332
:105CEC0008BD00007802030008B5034B1B68D3F80D
:105CFC00F030019308BD00007802030008B5034B97
:105D0C001B68D3F80031019308BD00007802030032
:105D1C0008B5034B1B68D3F80431019308BD000090
:105D2C007802030008B5024B1B685B6C019308BD3D
:105D3C004802030008B5024B1B689B6C019308BD1D
:105D4C004802030008B5024B1B68DB6C019308BDCD
:105D5C004802030008B5024B1B685B6D019308BD3C
:105D6C004802030008B5024B1B685B69019308BD30
:105D7C006402030008B5024B1B681B6A019308BD43
:105D8C006402030008B5024B1B689B6A019308BDB3
:105D9C006402030008B5024B1B681B68019308BD25
:105DAC003C02030008B5024B1B68DB68019308BD7D
:105DBC003C02030008B5024B1B681B69019308BD2C
:105DCC003C02030008B5024B1B685B69019308BDDC
:105DDC003C02030008B5024B1B689B69019308BD8C
:105DEC003C02030008B5024B1B68DB69019308BD3C
:105DFC003C02030008B5024B1B681B6A019308BDEB
:105E0C003C02030008B5024B1B689B6A019308BD5A
:105E1C003C02030008B5024B1B68DB68019308BD0C
:105E2C002802030008B5024B1B681B69019308BDCF
:105E3C002802030008B5024B1B689B69019308BD3F
:105E4C002802030008B5024B1B68DB69019308BDEF
:105E5C002802030008B5024B1B681B6A019308BD9E
:105E6C002802030008B5024B1B685B6A019308BD4E
:105E7C002802030008B5024B1B689B6A019308BDFE
:105E8C002802030008B5024B1B68DB6A019308BDAE
:105E9C002802030008B5024B1B681B6B019308BD5D
:105EAC002802030008B5024B1B685B6B019308BD0D
:105EBC002802030008B5024B1B681B6C019308BD3C
:105ECC002802030008B5024B1B681B6D019308BD2B
:105EDC002802030008B5024B1B689B69019308BD9F
:105EEC003802030008B5024B1B68DB69019308BD3F
:105EFC003802030008B5024B1B681B6A019308BDEE
:105F0C003802030008B5024B1B689B6A019308BD5D
:105F1C003802030008B5024B1B681B6B019308BDCC
:105F2C003802030008B5024B1B689B6B019308BD3C
:105F3C003802030008B5024B1B681B68019308BDAF
:105F4C003002030008B5024B1B689B68019308BD27
:105F5C003002030008B5024B1B68DB68019308BDD7
:105F6C003002030008B5024B1B681B69019308BD86
:105F7C003002030008B5024B1B685B69019308BD36
:105F8C003002030008B5024B1B68DB69019308BDA6
:105F9C003002030008B5024B1B681B6A019308BD55
:105FAC003002030008B5024B1B685B6A019308BD05
:105FBC003002030008B5024B1B681B6C019308BD33
:105FCC003002030008B5024B1B685B6C019308BDE3
:105FDC003002030008B5024B1B681B68019308BD17
:105FEC004C02030008B5024B1B685B68019308BDAB
:105FFC004C02030008B5024B1B681B69019308BDDA
:10600C004C02030008B5024B1B685B69019308BD89
:10601C004C02030008B5024B1B689B69019308BD39
:10602C004C02030008B5024B1B68DB69019308BDE9
:10603C004C02030008B5024B1B681B6A019308BD98
:10604C004C02030008B5024B1B681B6E019308BD84
:10605C007402030008B5024B1B685B6B019308BD0F
:10606C006002030008B5024B1B681B6D019308BD51
:10607C006002030008B5024B1B681B68019308BD46
:10608C002002030008B5024B1B685B68019308BD36
:10609C002002030008B5024B1B685B69019308BD25
:1060AC002002030008B5024B1B68DB6B019308BD93
:1060BC002002030008B5024B1B689B6D019308BDC1
:1060CC002002030008B5034B1B68D3F888300193FA
:1060DC0008BD00002002030008B5034B1B68D3F871
:1060EC009430019308BD00002002030008B5034B57
:1060FC001B68D3F8A830019308BD000020020300F0
:10610C0008B5024B1B685B68019308BD4002030095
:10611C0008B5024B1B689B68019308BD4002030045
:10612C0008B5024B1B68DB68019308BD40020300F5
:10613C0008B5024B1B681B69019308BD40020300A4
:10614C0008B5024B1B685B69019308BD4002030054
:10615C0008B5024B1B689B69019308BD4002030004
:10616C0008B5024B1B68DB69019308BD40020300B4
:10617C0008B5024B1B681B6A019308BD4002030063
:10618C0008B5024B1B685B6A019308BD4002030013
:10619C0008B5024B1B689B6A019308BD40020300C3
:1061AC0008B5024B1B68DB6A019308BD4002030073
:1061BC0008B5024B1B681B6B019308BD4002030022
:1061CC0008B5024B1B685B6B019308BD40020300D2
:1061DC0008B5024B1B681B6C019308BD4002030001
:1061EC0008B5024B1B685B6C019308BD40020300B1
:1061FC0008B5024B1B689B68019308BD4402030061
:10620C0008B5024B1B68DB68019308BD4402030010
:10621C0008B5024B1B685B69019308BD440203007F
:10622C0008B5024B1B68DB6A019308BD44020300EE
:10623C0008B5024B1B681B6B019308BD440203009D
:10624C0008B5024B1B685B6B019308BD440203004D
:10625C0008B5024B1B68DB6B019308BD44020300BD
:10626C0008B5024B1B685B6C019308BD440203002C
:10627C0008B5024B1B681B68019308BD1C02030088
:10628C0008B5024B1B685B68019308BD1C02030038
:10629C0008B5024B1B689B68019308BD1C020300E8
:1062AC0008B5024B1B68DB6A019308BD1C02030096
:1062BC0008B5024B1B68DB6B019308BD1C02030085
:1062CC0008B5024B1B685B6C019308BD1C020300F4
:1062DC00002240681146FFF74BBF00224068114670
:1062EC00FFF76EBF40680022FFF762BF40680022D4
:1062FC0081F00101FFF734BF002340681A461946AC
:10630C00FFF726BF002340681A461946FFF718BF4F
:10631C00002240681146FFF70BBF0022406811466F
:10632C00FFF7F6BE406800220221FFF7F9BE0023FA
:10633C0040681A46FFF7E4BE024B03225A60024A39
:10634C001A6070473CE6032004AA0D000021FFF7F9
:10635C0031BE0021FFF736BE10B504460846217049
:10636C00FFF710FE00236360204610BD10B50446F5
:10637C000078FFF7EBFF48B920784FF6FF71FFF775
:10638C00D9FD2078BDE81040FFF7E3BF10BD13B571
:10639C00044600780191FFF7D9FF019940B92078A4
:1063AC00FFF7D0FD207802B0BDE81040FFF7D1BF59
:1063BC0002B010BD13B5044600780191FFF7C6FF7B
:1063CC00019940B92078FFF7C5FD207802B0BDE8EF
:1063DC001040FFF7BEBF02B010BD0000400830B542
:1063EC001860002418688842E5B206D90134082CDC
:1063FC0002D040081860F5E70725024B5B5D13706F
:10640C0030BD00BF38AA0D002DE9F04188B0002343
:10641C000446007802930E461746FFF797FF054691
:10642C0000BB94F800800146142203A803F0C6FEBA
:10643C000B232A4603A94046ADF80C30FFF7B2FDFA
:10644C0004988DF8075002AB0DF1070207FB06F11B
:10645C00FFF7C4FF20789DF80710FFF783FD207825
:10646C00FFF777FF029808B0BDE8F08108B5007817
:10647C00FFF780FDC0B208BD10B50446006818B126
:10648C00FFF7FEFE0023236010BD38B5B1F90430D0
:10649C0083800B460D4653F8062FC0F806209B88C8
:1064AC0043810446FFF7E8FF2B6813B123600023F8
:1064BC002B60204638BD000038B50C460546FFF76A
:1064CC00DBFF44B12088FFF7D3FE286028B1228877
:1064DC00214603F04BFE002038BD0148FCE700BF0D
:1064EC00FCFEFFFFF0B52D4D0B7D04468BB008462E
:1064FC00AF1D002B38D00B681B79002B34D0002239
:10650C00274B049302A904300292ADF80C208DF8AD
:10651C000E20FFF7EBFDDDF80E30C5F8063000B2AB
:10652C00BDF81230ADF80C00A8800299BB8028464B
:10653C00FFF7C2FF02A8FFF79FFF00232360A38091
:10654C00A37123814FF6FF736381B5F90430A380E7
:10655C003B68C4F80630BB88296863812046FFF786
:10656C00ABFF20460BB0F0BD00262023CDE9023650
:10657C000C4B00930C49334602AA3220FFF772FDF4
:10658C00074B049302A94FF6F263044802968DF868
:10659C000E60ADF80C30FFF778FFCBE744E6032034
:1065AC000000FFFF47AA0D0040AA0D0010B5094BD3
:1065BC00094C022200201A60084B2060A080A071B8
:1065CC00A360FFF75FFD2046054A0649BDE8104071
:1065DC0002F004BE50E6032044E603200000FFFF57
:1065EC0068DF032091410D0010B5044603F024FE32
:1065FC00013823182046834206D90278197800F80E
:10660C00011B03F80129F6E710BD2DE9F041931E9B
:10661C008CB0222B4FF000030D4614468DF82C3015
:10662C0027D900282ADA2E462D2306F8013B4042B2
:10663C000A240DF12B074FF001082246014601A850
:10664C0003F072FD029B0198092BCCBF372230223C
:10665C0052FA83F307F8013908F101080028ECD14C
:10666C004246791C304603F081FD28460CB0BDE84B
:10667C00F0810A2AD5D018B12E46DAE70A24FAE7B7
:10668C0030238DF82B302E460DF12A074FF00208DF
:10669C00E6E770B50C46911E2229054622D8204605
:1066AC006DB1B5FBF2F602FB1655E9B2092D94BF9C
:1066BC0030315731C9B200F8011B3546F0E70246BC
:1066CC0023443021934202D902F8011BFAE71A1A2B
:1066DC00834238BF0022002383542046FFF784FFF7
:1066EC00204670BD0020FCE738B5031E0C4615464D
:1066FC000EDAB3F1004F4FF02D0214BF584218467A
:10670C0001230A702A461944FFF7C3FF204638BDFF
:10671C000123F9E770B586B0064601AD684601F075
:10672C000DFF0FCD341D0FC42B682370304606B0FF
:10673C0070BD00002DE9F04757EC106B80460C46FD
:10674C0010EE100A00220023394603F0BBFA28B1E0
:10675C0007F100431F462D2304F8013B00234FF0A3
:10676C0001090A22D9B2884503D902FB09F9013380
:10677C00F8E7484602F0CAFF32463B4603F030F8D1
:10678C0006460F4603F03CFB05468A4602F0F2FF34
:10679C0002460B463046394602F06AFE134B002285
:1067AC0003F0A4FA10B101354AF1000A4A46284612
:1067BC00D317514603F00CFB0123154621460A2240
:1067CC00FFF767FFB8F1000F0DD0204603F034FD42
:1067DC002E23211823540A22434628460131BDE8B2
:1067EC00F047FFF756BFBDE8F08700BF0000E03F61
:1067FC0010B504460068FFF743FD204610BD10B5E8
:10680C000446006808B1FFF73BFD0023C4E90133DF
:10681C00236010BD38B504460D4600680131FFF702
:10682C0037FD10B1C4E90005012038BD10B503686F
:10683C00044623B143688B4201D3012010BD20468E
:10684C00FFF7E8FF0028F9D0A368002BF5D12268E8
:10685C001370F2E737B50D46114601920446FFF767
:10686C00E5FF019A28B92046FFF7C9FF204603B07F
:10687C0030BDA2602946206803F078FC2268A3682A
:10688C000021D154F2E7002313B5C0E900330446CC
:10689C008360037341B10846019103F0CDFC01996B
:1068AC0002462046FFF7D6FF204602B010BD38B591
:1068BC00054600680C4668B16A688B689A4207D333
:1068CC00096803F0B1FCA368AB600023A36038BD7A
:1068DC00FFF7D6FC23682B6063686B60A368AB6022
:1068EC000023C4E90033F1E7884210B5044605D013
:1068FC000B682BB18A681946FFF7ACFF204610BD18
:10690C00FFF77DFFFAE7884210B5044601D0FFF788
:10691C00CEFF204610BD13B5044659B1084601916F
:10692C0003F08AFC019902462046FFF793FF2046AC
:10693C0002B010BDFFF763FFF9E710B504468AB04B
:10694C000023C4E90033A3602373084601A9FFF7B1
:10695C00CBFE01A92046FFF7DEFF20460AB010BD92
:10696C0010B504468AB00023C4E90033A360237336
:10697C00084601A9FFF749FE01A92046FFF7CBFF06
:10698C0020460AB010BD30B5044600238BB0C4E9D4
:10699C000033A360237310EE100ACDB202F0C8FED0
:1069AC0041EC100B01A92846FFF7C4FE01A92046B3
:1069BC00FFF7B1FF20460BB030BD70B505460E4653
:1069CC0009B9002070BD6AB1846814442146FFF7F0
:1069DC002DFF0028F5D02868AB683146184403F029
:1069EC0023FCAC600120EDE78A680968FFF7E5BF7E
:1069FC0007B500238DF80410012201A98DF805308C
:106A0C00FFF7DBFF03B05DF804FB10B58A6809687B
:106A1C000446FFF7D2FF10B92046FFF7F0FE2046E0
:106A2C0010BD13B5044629B92046FFF7E8FE2046F1
:106A3C0002B010BD0846019103F0FEFB019902461D
:106A4C002046FFF7BAFF0028EED0F0E708B58268C1
:106A5C003AB921B10878B0FA80F0400900E0012081
:106A6C0008BD006809B90078F5E703F0D3FBF2E73D
:106A7C0010B58368934207D904680968A01803F01D
:106A8C0003FC08B1001B10BD4FF0FF30FBE70022E8
:106A9C00FFF7EEBFF8B59A420F461D460C4988BF6A
:106AAC0013461446064684BF2C461D46FFF7EBFEE4
:106ABC00BA68A2420AD33968AA4294BFC4EB020254
:106ACC00C4EB050221443046FFF7C4FE3046F8BD46
:106ADC003FA50D0010B504468B68FFF7DBFF204681
:106AEC0010BD38B504460846A3688B4211D982B153
:106AFC0011448B4238BF1A1A2568991A1318A160D1
:106B0C000A1AE918284403F03FFB2268A368002105
:106B1C00D154204638BD8268521AFFF7E2BF704745
:106B2C007047704770470000064B994210B500F152
:106B3C000C0405D0084602F05FFB002808BF0024B7
:106B4C00204610BDB8AB0D00064B994210B500F1B4
:106B5C000C0405D0084602F04FFB002808BF0024A7
:106B6C00204610BDB8AB0D00064B994210B500F194
:106B7C000C0405D0084602F03FFB002808BF002497
:106B8C00204610BDB8AB0D0010B56821044602F0CC
:106B9C002AFB204610BD10B52821044602F023FB29
:106BAC00204610BD10B53021044602F01CFB2046D7
:106BBC0010BDFDF76CBAFDF76ABAFDF768BA10B5EF
:106BCC00036804469B689847A368013BA3602BB9F4
:106BDC0023682046DB68BDE81040184710BD10B58F
:106BEC000446006808B1FFF7A5F8204610BD000068
:106BFC0010B5044B04461868FFF7A4F80123237062
:106C0C0010BD00BF5CE6032010B5044B04461868A9
:106C1C00FFF7A0F80023237010BD00BF5CE6032033
:106C2C00F0B50025EC1C8C420DD86E1C445D875DC4
:106C3C00974205D12644B14205D31D60601CF0BDBE
:106C4C0001342544EEE70020F9E72DE9F34704462B
:106C5C009DF828701E46894601AB90460A46016A8B
:106C6C00FFF7DEFF256AB31C17BB08B35F193F1A89
:106C7C001F2F19D8DDF8049009F1020AA5EB0902BF
:106C8C00121A00EB090106EB0A0092B221442044CF
:106C9C0003F07AFA731C04F809303246414604EBCF
:106CAC000A0003F063FA2762206A02B0BDE8F0879D
:106CBC002B441F2BF8D8731C6355A81C2544206249
:106CCC00324685F801904146204403F04FFA236A7E
:106CDC0033442362E8E70000024A00210A20FFF750
:106CEC00B9B900BFA95B0D00022A38B5044607D01C
:106CFC00032A11D0012A01D10B682360002038BD72
:106D0C0008200D68FDF7BFF903460028F5D095E87B
:106D1C00030083E80300F0E700680028EED00821A8
:106D2C0002F061FAEAE7022A38B5044607D0032AD2
:106D3C0011D0012A01D10B682360002038BD082036
:106D4C000D68FDF7A0F903460028F5D095E803007F
:106D5C0083E80300F0E700680028EED0082102F079
:106D6C0042FAEAE730B40D4611461A460368096840
:106D7C002868D3E90043A44630BC60470346084664
:106D8C001B68D3E90021104710B58368044613B182
:106D9C00032201469847204610BD10B504465830D2
:106DAC00FFF7F2FF04F14800BDE81040FFF720BDEB
:106DBC00A0F13003DAB2092A01D818467047A0F1C5
:106DCC006103052B01D857387047A0F14103052BFF
:106DDC0094BF37384FF0FF30704710B5002304468E
:106DEC000370FFF705FF204610BD10B5037804466D
:106DFC000BB1FFF709FF204610BD82B003460868AF
:106E0C0049686A4603C26A4603CA18601846596044
:106E1C0002B0704708B582798B799A4206D1062266
:106E2C0003F096F9B0FA80F0400908BD0020FCE7A9
:106E3C004FF0FF330360838000207047002108B5BA
:106E4C00016041600246FFF7F3FF9171104608BDE7
:106E5C0001220261064A1168016051684160118982
:106E6C00927A827200220181C0F80B20C2737047A3
:106E7C00C0AB0D0010B50B69036101F110020346A4
:106E8C0051F8044B43F8044B9142F9D110BD10B5A5
:106E9C000B460446B1B1012A01F110020AD1014698
:106EAC0053F8040B41F8040B9342F9D101232361ED
:106EBC00204610BD411E12F8010D01F8010F9A4237
:106ECC00F9D1F3E7102203F079F9F1E738B504466C
:106EDC0015461A46FFF7DBFFA581204638BD00009A
:106EEC0008B5026922B98089003818BF012008BD95
:106EFC000249102203F02CF9F6E700BFE0AB0D00BD
:106F0C000069704738B50C4614220021054603F081
:106F1C0055F923693BB9627B2B74237B43EA02232B
:106F2C002B80284638BD01232B7404F110022B460C
:106F3C0054F8041B43F8041B9442F9D1F1E7427B4B
:106F4C00007B40EA02207047704708B502690B6964
:106F5C009A4206D1102203F0FBF8B0FA80F04009F7
:106F6C0008BD0020FCE7000001232DE9F34103617B
:106F7C00324B1A6802605A68426000251A899B7A63
:106F8C00028104468372C0F80B50C5730E4621B3C0
:106F9C002421304603F06BF9042821D1ADF80450BC
:106FAC0001AFB51C063615F8020CFFF701FFB0F166
:106FBC00000810DB15F8010CFFF7FAFE00280ADBBD
:106FCC00023540EA0810AE4207F8010BEBD1BDF8D0
:106FDC0004305BBAA3810023236102B0BDE8F081C9
:106FEC0010272421304603F042F9A84206D8274442
:106FFC000023BC42F1D007F8013DFAE7002FECD09A
:10700C00705DFFF7D5FE030615D40001013F5FFA52
:10701C0080F804F807802421304603F028F9013564
:10702C00A84208D9705DFFF7C3FE40B20028A4BF88
:10703C0040EA0800E0550135D3E700BFC0AB0D00B6
:10704C0013B504460191FFF703FF20460199FFF7A2
:10705C008BFF204602B010BD30B49DF8085012B919
:10706C00006A30BC7047029530BCFFF7EEBD1FB50F
:10707C000446024600F11F01002302F8013B914235
:10708C00FBD123620093062201238DF80F201946B1
:10709C000DF10F022046FFF7DFFF204604B010BDB4
:1070AC0073B50A460E4601AB016A0446FFF7B8FDFC
:1070BC00054678B10198226A4119121A2144521BD3
:1070CC00204403F053F8206A401B206231462046CE
:1070DC00FFF7E6FF02B070BD38B54FF6FF73002521
:1070EC00044643800E22294605700571063003F0D4
:1070FC0065F804F11400FFF7ABFE04F12800FFF76C
:10710C00A7FE044904F13C00FFF7BDFB6565204672
:10711C0038BD00BF3FA50D0010B5D0E9063203EB1A
:10712C00C2029342184606D0046824888C4203F1AC
:10713C000803F6D110BD0020FCE70000F0B50646B0
:10714C0085B01F460D46002950D0002A4ED0046849
:10715C002378F42A28BFF42243B32379980709D55E
:10716C00A08903920023FEF78DFD0028039A03DA11
:10717C0005B0F0BD6FF0770034682379D90609D5D6
:10718C00012F07D0A0890023294605B0BDE8F040A7
:10719C00FEF7B4BD9B06EBD5022FE9D0A0890023E6
:1071AC00294605B0BDE8F040FEF7B2BD60884FF649
:1071BC00FF7188421CD021794E0701D5012F04D1D3
:1071CC000B0709D46FF07700D2E7A189009313461F
:1071DC002A46FEF76BFDCBE7022FF3D00023A189E3
:1071EC00009313462A46FEF757FDC1E70248BFE756
:1071FC006FF0D100BCE700BFF2FEFFFF13468A68B8
:10720C000968FFF79BBF37B50C460546F4212046AD
:10721C00019203F02CF8019B02462146284603B04C
:10722C00BDE83040FFF78ABF2DE9F041002606602B
:10723C00074628200C46FCF726FF051E05F10C0816
:10724C000FD00123C5E90133084B2B604046FFF7F3
:10725C00FFFD0FCC2E6285F8246046460FC62368CE
:10726C003360C7E900853846BDE8F08188AB0D0076
:10727C0070B50025056006463020FCF704FF044677
:10728C0088B10123C0E90133094B03604FF6FF734A
:10729C0083810E30FFF7D2FDC4E90655C4E90855C9
:1072AC00C4E90A55A57574600C343460304670BD61
:1072BC00A4AB0D0037B50D46044601A8FFF78DFDB4
:1072CC002A6852F8023F23605368636001A8FFF7F5
:1072DC008CFD204603B030BD30B5054687B00C465A
:1072EC0001A8FFF77AFD2A68236812881B889A4246
:1072FC000DD1294602A8FFF7DDFF214604A8FFF7B0
:10730C00D9FF04A902A8FFF785FD044600B90024A3
:10731C0001A8FFF76AFD204607B030BD10B5044642
:10732C005420FCF7B0FE014660B10023C0E90033E5
:10733C00C0E90233C0E90433C0E906330362C36217
:10734C00C363C364216019B9094A0A20FEF782FE9F
:10735C000020FEF75BFC20B1054A00210A20FEF755
:10736C0079FE216803480022FEF7BEFC204610BDC2
:10737C00A95B0D0009780D0010B50B4C2378BFF3F9
:10738C005B8FDB070ED42046FCF783FE50B1074819
:10739C00FFF7C4FF2046FCF781FE054A0549034868
:1073AC0001F01CFF014810BD54E6032060E60320E9
:1073BC0068DF0320C9750D0030B50368093B012B4C
:1073CC008DB004460D4611D8FFF7D6FFA188006892
:1073DC00FFF7A2FE034658B92022CDE904200B4A40
:1073EC0000920B4904AA3220FEF73CFE0DB030BDD2
:1073FC006A6D002AFAD0D4E9032105F14C00CDE9DD
:10740C000312AC6D04AA03A9A047EFE795AA0D00DF
:10741C006EAA0D0008B50020FEF7F8FB00EAE0703C
:10742C0008BD084611B90A46FEF700BC096A0022DD
:10743C00FAE707B5084629B90A4603B05DF804EB2C
:10744C00FEF7FCBB01210190FFF72AFE01980022F8
:10745C00016AF2E738B504461546FFF7E2FF00284B
:10746C000ADB29462046FFF7E4FF002804DBBDE8D1
:10747C0038400020FEF7EABB38BD0368D869002805
:10748C00D4BF00200120704738B500230446836028
:10749C0008200D46FCF7F7FD18B12B6803606B68EC
:1074AC004360034BE360034B2060A360204638BD70
:1074BC00716D0D00F56C0D0038B50023044683602A
:1074CC0008200D46FCF7DFFD18B12B6803606B68D4
:1074DC004360034BE360034B2060A360204638BD40
:1074EC00896D0D00336D0D000B68036013B15A6884
:1074FC0001325A60704710B551F8043B044640F80D
:10750C00043BFFF7F1FF23680BB9FFF7E5FB2046BF
:10751C0010BD10B551F8043B044640F8043BFFF78E
:10752C00E3FF204610BD10B551F8043B044640F86B
:10753C00043BFFF7D9FF204610BD10B50446006888
:10754C0028B14368013B43600BB9FFF738FB204679
:10755C0010BD10B504460430FFF7EFFF204610BDF8
:10756C0070B5D0E90053044605EBC306AE4204D017
:10757C00281DFFF7E2FF0835F8E72068FEF780FECC
:10758C00204670BD70B5D0E90053044605EBC30628
:10759C00AE4204D0281DFFF7D0FF0835F8E720686D
:1075AC00FEF76EFE204670BD10B504462430FFF782
:1075BC00E9FF04F11800FFF7D3FF10BDF8B504681C
:1075CC00064624B304F14400FFF7DEFB04F134005B
:1075DC00FFF7DAFB04F12400FFF7D6FBD4E90653DE
:1075EC0005EBC307AF4204D0281DFFF7A6FF0835F3
:1075FC00F8E7A069FEF744FE04F10C00FFF7C2FFA8
:10760C002046FFF7ADFF5421204601F0ECFD30463B
:10761C00F8BD826810B50AB901F0EBFDBDE8104069
:10762C00C368184770B5D0E90053044605EBC30690
:10763C00AE4204D0281DFFF780FF0835F8E7002381
:10764C00636070BD13B504460020FEF7E7FA00280E
:10765C000ADB01A8FFF7C1FB20681830FFF7E2FF37
:10766C0001A8FFF7C2FB002002B010BD8842F8B59C
:10767C0004460D46164614D9904213D2A2F10806C0
:10768C00751AA1F108072C44B74218D01CB1314629
:10769C002046FFF748FF301DFFF74FFF083E083C20
:1076AC00F2E70CD0B5420AD01CB129462046FFF7B0
:1076BC003AFF281DFFF741FF08350834F2E7F8BD03
:1076CC002DE9F041D0E900430546884604EBC30799
:1076DC00A74203D100263046BDE8F0814146204642
:1076EC00FFF7FAFD064608B90834F1E7002CF1D093
:1076FC00201DFFF722FFD5E9003204F1080103EB4E
:10770C00C2022046FFF7B2FF6B68013B6B60E2E7F9
:10771C00F0B507468BB06846FFF75FFB3B68D3E9D3
:10772C00064504EBC505AC422BD02422002101A850
:10773C0002F044FD23680022188801A9FEF7C0FA64
:10774C00064608B10834EEE79DF80830012BF9D154
:10775C006846FFF759FA236831461888FEF77EFA17
:10776C00051E08DB6846FFF743FA386821461830D7
:10777C00FFF7A6FF35466846FFF737FB28460BB0E8
:10778C00F0BD6FF0A905F6E7F7B504464668684604
:10779C00FFF7C9FED4E901739F4212DB0137002FBA
:1077AC0029DDF800FEF764FD0546F0B1D4E90012BE
:1077BC0001EBC202FFF75AFF2068FEF761FD25605E
:1077CC00A7602368626803EBC60603EBC20231466E
:1077DC0006F10800FFF74AFF1EB169463046FFF775
:1077EC00A2FE636801336360012501A8FFF7A5FEC3
:1077FC00284603B0F0BD0025DEE700002DE9F0417E
:10780C0005468EB003A80C46FFF7E7FA2E68042E47
:10781C006BD007D8032E28D003A8FFF7E6FA0EB0DA
:10782C00BDE8F081A6F10C03032BF5D8A9892046FD
:10783C00FFF772FC07460028EED0E36C002BEBD070
:10784C001022002107A802F0B9FC0D2E06978DF826
:10785C001C6040F092806B68099306230893236D9B
:10786C0006A904F144009847D6E704A8FFF700FDE9
:10787C00049BAA891A806968049808310230FFF7C2
:10788C00BCFA04A906A8FFF74EFE06A904F11800DD
:10789C00FFF77AFF054607A8FFF74FFE2023069354
:1078AC008DB93E4B3E49009332202B4606AA0795D4
:1078BC00FEF7D8FB049B29461888FEF7CFF905A8DC
:1078CC00FFF73BFEA8E7374A0092002334490793A1
:1078DC0006AA0120FEF7C6FBE36A002BEFD004A931
:1078EC0004F12400FFF795FEE9E7A9892046FFF78C
:1078FC0013FC064600288FD00568D5E906314FF6F3
:10790C00FF722A8003EBC101994203D053F8080B94
:10791C004280F9E7D5E9037307EBC308B84504D0F7
:10792C00381DFFF70AFE0837F8E700232B61D5E96D
:10793C00067307EBC308B84504D0381DFFF7FDFDEF
:10794C000837F8E70023EB61AB72E36B23B13146E8
:10795C0004F13400FFF75DFE00232022CDE906235D
:10796C00114A00920E4906AA0120FEF77BFB314614
:10797C0004F11800FFF7A4FE4EE70F2E7FF46FAF53
:10798C006B6809932B7A03F00102C3F340038DF863
:10799C0029308DF82820082360E700BFADAA0D0020
:1079AC006EAA0D00D3AA0D00F0AA0D0013B500238A
:1079BC000446D1E90002C1E900332368009320603A
:1079CC006368626001A80193FFF7B7FD204602B01F
:1079DC0010BD13B50B460246D0E900016C4684E895
:1079EC00030093E8030082E8030094E8030083E8B3
:1079FC00030002B010BD38B505460C46FFF7E9FF91
:107A0C00AB68A268AA60A360EB68E268EA60E36016
:107A1C0038BD1FB500230446084669460293FFF79C
:107A2C00EAFF21466846FFF7E6FF6846FFF7ACF928
:107A3C00204604B010BD70B50E4688B004460192C5
:107A4C001D46FFF749FB33780199237104F13C0083
:107A5C00FEF761FF04F14C0685B10C9B029502A95F
:107A6C0004A80393FFF710FD04A93046FFF7D1FFDC
:107A7C0004A8FFF789F9204608B070BD0695F3E716
:107A8C002DE9F04786B007461D466820002389463D
:107A9C0092460493FCF7F7FA061E06F10C081DD06B
:107AAC0001233446C6E90133154B44F8203B9AF8C0
:107ABC0000308DF80C30109B00934A460F9B03A9A5
:107ACC004046FFF7B8FF0FCD0FC42B680E9D236007
:107ADC000FCD06F134040FC42B68236004A938467B
:107AEC00CDE90486FFF762FF05A8FFF726FD39688C
:107AFC0019B9044A0A20FEF7ADFA06B0BDE8F087C2
:107B0C006CAB0D00A95B0D0038B505460C46FFF7B4
:107B1C0060FFAB68A268AA60A360EB68E268EA60E9
:107B2C00E36038BD1FB5002304460846694602933E
:107B3C00FFF7EAFF21466846FFF7E6FF6846FFF7C6
:107B4C0023F9204604B010BD10B5046886B0243467
:107B5C0071B1CDE9001202A86946FFF7ADFC02A98C
:107B6C002046FFF7DFFF02A8FFF70EF906B010BDA5
:107B7C000491F4E710B5046886B0343471B1CDE9E2
:107B8C00001202A86946FFF797FC02A92046FFF7EE
:107B9C00C9FF02A8FFF7F8F806B010BD0491F4E78E
:107BAC008842F8B504460D46164614D9904213D2B5
:107BBC00A2F10806751AA1F108072C44B74218D097
:107BCC001CB131462046FFF7A4FC301DFFF7B5FC75
:107BDC00083E083CF2E70CD0B5420AD01CB129464D
:107BEC002046FFF796FC281DFFF7A7FC0835083444
:107BFC00F2E7F8BD70B50E1E054611DDF000FEF77C
:107C0C0037FB044658B1D5E9001201EBC202FFF76D
:107C1C00C7FF2868FEF734FB2C60AE60012070BDF6
:107C2C000024F6E773B5044645686846FFF771FC17
:107C3C00D4E90113994210DA2368626803EBC50595
:107C4C0003EBC202294605F10800FFF7A9FF8DB925
:107C5C00636801336360012606E001312046FFF7BB
:107C6C00C9FF06460028E7D101A8FFF766FC30469D
:107C7C0002B070BD69462846FFF74BFCE8E7884226
:107C8C00F8B504460D46164614D9904213D2A2F10B
:107C9C000806751AA1F108072C44B74218D01CB17C
:107CAC0031462046FFF727FC301DFFF746FC083E07
:107CBC00083CF2E70CD0B5420AD01CB1294620464C
:107CCC00FFF719FC281DFFF738FC08350834F2E7DC
:107CDC00F8BD70B50E1E054611DDF000FEF7C8FAB2
:107CEC00044658B1D5E9001201EBC202FFF7C7FFF9
:107CFC002868FEF7C5FA2C60AE60012070BD002428
:107D0C00F6E773B5044645686846FFF7F4FBD4E91B
:107D1C000113994210DA2368626803EBC50503EB83
:107D2C00C202294605F10800FFF7A9FF8DB9636867
:107D3C0001336360012606E001312046FFF7C9FFDD
:107D4C0006460028E7D101A8FFF7F7FB304602B042
:107D5C0070BD69462846FFF7CEFBE8E72DE9F04FEA
:107D6C001746A1B080460AA80E46FFF736F83C68C5
:107D7C00237953B939464046FFF7BDFB0AA8FFF7F4
:107D8C0034F8404621B0BDE8F08F3368D3E9035393
:107D9C0005EBC303039304F1280A04F1140B039BB2
:107DAC009D4221D0D5F80090584609F11401FFF7F7
:107DBC00CCF8B8B109F128015046FFF7C6F888B1E4
:107DCC002368D9F80020534033F47F430AD1202292
:107DDC00CDE915235E4A009215AA5E493220FEF7C2
:107DEC0041F9C7E70835DAE75046FFF779F860B98B
:107DFC005949012215A815ADFFF749F80FCDD44606
:107E0C00ACE80F002B68CCF800303368D3E9005392
:107E1C0005EBC30B5D45A94651466ED055F8080BD2
:107E2C00FFF793F80028F5D004F1140A5046FFF739
:107E3C0057F888B9494B48491A88013292B21A80CE
:107E4C0015A8012315ADFFF741F80FCDD446ACE8CA
:107E5C000F002B68CCF800302822002116A802F065
:107E6C00ADF93F4B1593514604A8FFF74BF804AB03
:107E7C0018AA0DF1200C18685968154603C508336B
:107E8C0063452A46F7D11868286023798DF8583055
:107E9C00D9F800309B8AADF87430E36B1793314BF3
:107EAC000022A11D15A8CDE91E34FDF713FF0028F3
:107EBC007FF460AF01232370346839460C340DA86D
:107ECC00FFF719FB20460DA9FFF71BFF04460EA870
:107EDC00FFF733FB002C7FF44DAF2023CDE90D349D
:107EEC00214B00930DAA234677E739464046FFF70E
:107EFC0002FB0CA8FFF721FB40E70BA8FFF794F956
:107F0C00514615A8FEF7FEFF0B9A0023143215A953
:107F1C000120FDF7ADFE0028E7D135680BA90DA8AF
:107F2C00FFF7F7FA28460DA9FFF77CFE05460EA8C9
:107F3C00FFF703FB002DD8D032685368126803F1A9
:107F4C000053013B0CA802EBC309FFF7F6FA6BE7F1
:107F5C000FAB0D006EAA0D00D0AB0D0058E6032040
:107F6C0001002C00C5730D003AAB0D0010B5064C8A
:107F7C00002320462360FDF7D5FE2046034A044922
:107F8C00BDE8104001F02AB95CE6032068DF03204D
:107F9C00EB6B0D00F8B506460D468F180024BD425C
:107FAC000CD0336815F8011B9B6830469847031EAC
:107FBC0001DB1C44F3E7002C08BF1C462046F8BD2F
:107FCC0013B50446084659B1019102F035F92368FE
:107FDC000199DB680246204602B0BDE81040184704
:107FEC0002B010BD08B5FFF7EBFF08BD03689B6836
:107FFC0018470A680B46126801461846104738B5F0
:10800C000D210546FFF7F2FF0A2104462846FFF72B
:10801C00EDFF204438BD38B50546FFF7D1FF0446C7
:10802C002846FFF7ECFF204438BD30B58BB0002359
:10803C008DF82430012A98BF0A2209AC0D46B1FBF9
:10804C00F2F101FB125303F0FF03092B94BF303301
:10805C003733DBB2AA4204F8013DEFD92146FFF7D2
:10806C00AFFF0BB030BD00002DE9F74F55EC104BB6
:10807C0006460F4610EE102A10EE100A2B46294623
:10808C0001F048FE40B153493046FFF799FF824654
:10809C00504603B0BDE8F08F25F000494E4B4FF031
:1080AC00FF322046494601F035FE48B94A4B4FF0A5
:1080BC00FF322046494601F00FFE08B94749E3E775
:1080CC00474B4FF060422046294601F019FE08B19B
:1080DC004449D9E7444B4FF060422046294601F011
:1080EC00F1FD0028F4D1002200232046294601F09E
:1080FC00E9FDD0B12D213046FFF778FF05F10043A3
:10810C0082461D463949DFF8EC904FF0000B0020F9
:10811C004FF000085FFA8BF39F4208D942464B465A
:10812C0001F088FC0BF1010BF4E78246EAE72246EA
:10813C002B4601F09FF90D46044601F029FE8046BE
:10814C0001F0D4FA02460B462046294601F090F97C
:10815C000A2204460D4630464146FFF766FF82442C
:10816C0027B123493046FFF72BFF8244DFF8849078
:10817C004FF00008013FFFB2FF2F89D042464B461B
:10818C002046294601F02CFB04460D4601F0D8FD93
:10819C00B0F1000B1ADA2D213046FFF727FFCBF197
:1081AC00000103460A2230460193FFF73EFF019B74
:1081BC0018448244584601F0A9FA02460B46204660
:1081CC00294601F055F904460D46D3E759460023DC
:1081DC00E8E700BFF0AB0D00FFFFEF7FF4AB0D0045
:1081EC00FFFFEF41F8AB0D00FFFFEFC10000E03FD8
:1081FC00A7A90D000000244038B5C9B20546FFF709
:10820C0033FF04462846FFF7FAFE204438BD38B544
:10821C00044610EE100A0D4601F08AFA41EC100BE0
:10822C0029462046BDE83840FFF7E6BF014B024A1D
:10823C001A60704764E60320FCAB0D0008B5002003
:10824C00FDF7F6FF28B1FDF7E3FF80F00100C0B2A7
:10825C0008BD0120FCE710B50020FDF7C7FC044663
:10826C00A0B9FDF707FF012810D12046FDF722FF2A
:10827C0060B9FFF7E3FF10B9FDF7BAFFF9E7FFF7B5
:10828C00DDFFBDE810400020FDF7B0BC204610BD5E
:10829C001FB5FFF7E0FF10220021684601F08EFFAA
:1082AC0000216846FDF7AAFC009805B05DF804FBB8
:1082BC00024B1A68024B1A60704700BF00DF0320A4
:1082CC0068E603200021FDF7E5BE10B50446FEF775
:1082DC005BFD204610BD00000348044A04490023FE
:1082EC00836000F07BBF00BF6CE6032068DF0320D7
:1082FC00D7820D00014B1860704700BF04DF0320CC
:10830C0008B50B4B43B100F085F903681B6998471E
:10831C00002801DDAFF30080064B43B100F0F8F903
:10832C0003681B699847002801DDAFF3008008BD86
:10833C00000000000000000008B5FFF7E1FFFDF7AA
:10834C0035FC014B186008BDCCE703200248034AFA
:10835C000349121A01F00ABF00F4032004F40320AD
:10836C00D8AF0D0007B5002300931A466FF07701C4
:10837C00FDF7B2FE03B05DF804FB000007B54388BF
:10838C000A2B08D0502B0BD1094B1B684BB103B0F7
:10839C005DF804EB1847FFF7E5FF03B05DF804FB4D
:1083AC00002300931A466FF07701FDF795FEF4E772
:1083BC0080E6032038B5124C1248134D0021FDF70E
:1083CC007FFF2368AB42114B0CBF012200221A70B5
:1083DC0002D0FFF7BBFF2560FDF7D8FB044601F088
:1083EC00F5FE0B4B13B12046AFF30080002108487B
:1083FC00FDF72EFFBDE8384006480021FDF762BEB0
:10840C0000F4032001830D001E1C279A7CE6032038
:10841C000000000089830D0007B50823ADF800307B
:10842C0003688DF80230037A8DF80330002143681D
:10843C0001936846FDF714FF03B05DF804FB704729
:10844C0010B51821044600F0CEFE204610BDF0B544
:10845C00037D062B8DB00E4600F104074FF000048F
:10846C0012D000F1080515F8011D0A223046FFF75D
:10847C00DCFDAF42044419D0002CF4D02E21304640
:10848C00FFF7B4FD0444EEE72F236A4639460A2071
:10849C008DF80040FDF766FC684601F0CDFE3368B0
:1084AC000246DB68694630469847044620460DB0C4
:1084BC00F0BD000010B5054B0446112240F8043BFA
:1084CC00002101F07BFE204610BD00BF24AC0D0046
:1084DC000346074A10B543F8042B01F1100251F87A
:1084EC00044B43F8044B9142F9D10A781A7010BD31
:1084FC0024AC0D00037D042B04D14068003818BF58
:10850C0001207047062B07D143683BB983682BB910
:10851C00C3681BB90069F1E7002070470120704760
:10852C0010B59DF8084044EA032343EA024242EAAC
:10853C00016104234160037510BD000013B5054BA8
:10854C000360CB7800938B784A780978FFF7E8FFC3
:10855C0002B010BD24AC0D0041747047704708B5D3
:10856C000021007CFDF756FD40EAE07008BD08B51F
:10857C000121007CFDF74EFD40EAE07008BD08B516
:10858C00007CFDF73FFD20EAE07008BD08B5007CDB
:10859C00FDF730FD20EAE07008BD13B50446007C01
:1085AC000191FDF72FFD0028019901DC607C20B1C1
:1085BC00207CFDF737FD20EAE07002B010BD007C96
:1085CC00FDF738BD10B51421044600F00CFE204612
:1085DC0010BD000010B54FF47A7304460846002114
:1085EC00C4E90113044B2360012320746374114606
:1085FC00FDF7F0FC204610BD38AC0D00007C0022CD
:10860C00FDF7F0BC10B514220446002101F0D6FD94
:10861C00204610BD10B5104C88B003A8FFF7F2FF30
:10862C002178BFF35B8F11F0010111D1204601912C
:10863C00FBF72FFD019958B103AA0848FFF7CAFFB1
:10864C002046FBF72BFD064A0649044800F0C6FD00
:10865C00024808B010BD00BF84E6032088E6032062
:10866C0068DF032069850D0070474174704708B5B9
:10867C00007CFDF7C7FB20EAE07008BD08B5007C64
:10868C00FDF798FB20EAE07008BD08B5007CFDF70B
:10869C00A1FB40EAE07008BD08B5007CFDF792FB39
:1086AC0040EAE07008BD007CFDF79CBB37B5457C0B
:1086BC0004462DB1207C03B0BDE83040FDF772BB01
:1086CC00007C0191FDF79EFB00280199F2DC284605
:1086DC0003B030BD10B51421044600F084FD2046D3
:1086EC0010BD000010B54FF0000C044608461146B2
:1086FC004FF47A72C4E901C2044A22600122207448
:10870C0062741A46FDF746FB204610BD68AC0D009E
:10871C0013B50E4C2178BFF35B8F11F0010112D110
:10872C0020460191FBF7B5FC019960B1084A094B51
:10873C000948FFF7D7FF2046FBF7B0FC074A08496A
:10874C00054800F04BFD044802B010BD9CE6032028
:10875C00A0E6032024E70320A8E7032068DF03201A
:10876C0075860D007047F8B5064615460C468F18F1
:10877C00BC4206D0336814F8011B9B6830469847FE
:10878C00F6E72846F8BD007C0022FDF763BB007CB1
:10879C000021FDF767BB007C0021FDF76BBB007C63
:1087AC000021FDF76FBB007C0021FDF773BB10B5FA
:1087BC001421044600F017FD204610BD10B54FF4EF
:1087CC007A73044608460021C4E90113034B236065
:1087DC0020741146FDF76EFB204610BD98AC0D00C1
:1087EC000023007C1A461946FDF714BB007C0021BF
:1087FC00FDF718BB7FB500221423CDE90122ADF89B
:10880C0004300B788DF808304B680393CB680493D5
:10881C00007C0B7A059301A9FDF754FB07B05DF8BA
:10882C0004FB1FB5003B8DF800104FF06401039161
:10883C0018BF0123694601928DF80830FFF7DAFF63
:10884C0005B05DF804FB0123FFF7EBBF007C0022B1
:10885C00FDF7F0BAC9B2FFF7F9BF007C0022FDF7B3
:10886C00F1BA0121FFF7F9BF13B503688DF80710B2
:10887C00DC6B01224FF0FF330DF10701A04702B072
:10888C0010BD10B40368DC6B4FF0FF33A4465DF8E9
:10889C00044B604713B5134602688DF80710D46B70
:1088AC000DF107010122A04702B010BD704738B589
:1088BC0043691A68002A054610DAB3F88620B3F823
:1088CC0084309A420AD103681B699847044628B938
:1088DC002B682846DB6A9847204638BD0120FCE708
:1088EC0043691868C043C00F70477047064B9942E4
:1088FC0010B500F10C0405D0084600F07DFC0028F2
:10890C0008BF0024204610BDB8AB0D0010B5AC213B
:10891C00044600F068FC204610BDFBF7B8BB2DE9FF
:10892C00F0414FF0000886B01D46C0F804800446A4
:10893C000E4617464146102202A801F03FFC6B1C64
:10894C0009D04FF47A70B5FBF0F3CDE9023800FB97
:10895C00135358430490606910230093006802ABD2
:10896C0041F2050240F6FF71FDF7B4FA002807DA70
:10897C00FDF79EFC03686360002006B0BDE8F08143
:10898C006069002300683A463146FDF7C3FA031EBE
:10899C00EEDB1846F1E7000038B584690A4B03603A
:1089AC0005467CB16368013B63605BB92368204674
:1089BC009B689847A368013BA3601BB923682046BA
:1089CC00DB689847284638BDECAC0D0010B5044662
:1089DC00FFF7E2FF20461C2100F005FC204610BDED
:1089EC0070B54D69054B04468C3544F8043B06467E
:1089FC000FCD0FC42B682370304670BD24AC0D0016
:108A0C0010B54369B3F88620B3F884309A42044613
:108A1C0005D06369B3F884201344187910BD03683A
:108A2C001B6998470028F4D14FF0FF30F6E710B5DA
:108A3C004369B3F88620B3F884309A42044608D0D0
:108A4C006369B3F88420511CA3F88410134418797B
:108A5C0010BD03681B6998470028F1D14FF0FF3017
:108A6C00F6E7F8B543691746B3F88620B3F88430B7
:108A7C009A4205460E4616D06969B1F88430B1F8B1
:108A8C008640E41ABC4228BF3C46043322461944B3
:108A9C00304601F06BFB6A69B2F884302344A2F8CB
:108AAC0084302046F8BD03681B6998470028E3D141
:108ABC004FF0FF34F5E742690023A2F88430426995
:108ACC00A2F8863070472DE9F0411F4603680C462A
:108ADC00DB6A8AB0054616469847237DD5F8148084
:108AEC00042B0CBF02200A2006220121FDF71AFAE2
:108AFC00C8F800006B691B68002B08DA2B68284645
:108B0C00DB6A0024984720460AB0BDE8F08128466D
:108B1C00FFF7D1FFB7B1002303A9F8B20393ADF867
:108B2C001030FDF72BF80028E8D168690623009374
:108B3C00006803AB41F20B0240F6FF71FDF7CAF976
:108B4C000028DBD11C22002103A801F037FB237D78
:108B5C00042B1DD14FF407733046ADF80C30FDF7E4
:108B6C0011F9ADF80E006068FDF704F904906B691B
:108B7C001C22186803A9FDF7BDF90028BED10434E6
:108B8C000FCC6D698C350FC523682B700124BAE7A7
:108B9C0040F61C233046ADF80C30FDF7F3F805AE6B
:108BAC00ADF80E00231D04F11407186859683246FD
:108BBC0003C20833BB421646F7D1D8E730B5426939
:108BCC00B2F886308BB004462BB1B2F884209A42AE
:108BDC0001D1FFF770FF61690868002818DBB1F854
:108BEC0086507F2D14D804310823C5F18002294406
:108BFC00FDF788F9002813DD6369B3F886200AB9FC
:108C0C00A3F884206369B3F886201044A3F8860087
:108C1C006369B3F88600B3F88430C01A0BB030BD6A
:108C2C00FDF746FB03680B2BF2D0FDF741FB036805
:108C3C000B2BEDD020230025CDE90235FDF738FBB9
:108C4C0003680193084B0949009302AA2B46322072
:108C5C00FDF708FA63691868FDF744F963694FF08A
:108C6C00FF321A60D4E700BFB8AC0D0040AA0D006B
:108C7C0010B5436904461868002801DBFDF732F98A
:108C8C0063694FF0FF321A606069112200218C3049
:108C9C0001F094FA2046BDE81040FFF70CBF10B568
:108CAC00002304460160C0F884308830FFF702FCD2
:108CBC00204610BD73B500234FF47A72C0E901321F
:108CCC000E4A0361026043610446AC200191FBF73C
:108CDC00DAF9051E05F10C0608D00123C5E90133AC
:108CEC00074B01992B603046FFF7D9FF2046C4E9AA
:108CFC000565FFF7E0FE02B070BD00BFECAC0D00E7
:108D0C00D0AC0D0010B54FF0FF310446FFF7D2FF89
:108D1C00204610BD10B504460068002801DBFDF7A5
:108D2C00E1F8204610BD0C30FFF7F4BF2DE9F043FD
:108D3C009846036893B00D460024DB6A0646174636
:108D4C00984728466B46224621460094FCF7EEFED7
:108D5C000546002863D1009B002B4BD05B69002B90
:108D6C0048D006A8FFF7A6FB009B5C696378022B32
:108D7C0004D1211D06A8FDF7CDFC26E00A2B24D139
:108D8C001122294601A801F019FAA368002B38D04A
:108D9C0004F108030DF1040C183418685968624684
:108DAC0003C20833A3429446F7D1062301A90CA8A9
:108DBC008DF81430FFF78CFB0DF1340CBCE80F0070
:108DCC0007AC0FC4DCF80030237006A8FFF792FB49
:108DDC0080B1336807ADD3F82090124B0C930FCDB4
:108DEC000DAC0FC42B6823703A4643460CA9304691
:108DFC00C84705460098FCF791FE284613B0BDE81D
:108E0C00F083E368002BC3D14FF6FF70D4F81090B9
:108E1C00FCF7B0FF8145BBD104F11401AAE725464C
:108E2C00E8E700BF24AC0D0030B5D1E901439C420A
:108E3C0010DA0B68621C4A600546382202FB0434C7
:108E4C000FCD0FC40FCD0FC40FCD0FC495E8030089
:108E5C0084E8030030BD002240681146FDF788B954
:108E6C00002240681146FDF7ABB940680022FDF7BF
:108E7C009FB94068002281F00101FDF771B9002211
:108E8C0040681146FDF744B9406800220221FDF705
:108E9C0047B900001FB5002301910648029301A9B0
:108EAC000392FDF7CFF8039B9842A8BF184605B074
:108EBC005DF804FB358E0D00024B04225A60024A09
:108ECC001A607047BCE7032038AD0D0000234068E2
:108EDC001A46FDF715B9406800220221FDF720B9AA
:108EEC00002240681146FDF713B900224068114674
:108EFC00FDF71EB9002340681A461946FDF720B944
:108F0C00002340681A461946FDF722B94068002133
:108F1C00FDF75EB940680021FDF762B94068002298
:108F2C0081F00101FDF71CB940680022FDF740B942
:108F3C00002240681146FDF743B9002240681146F3
:108F4C00FDF716B92DE9F043002495B016460D46F1
:108F5C000746FFF7AFFA214618220EA8009401F03D
:108F6C002DF94023CDE90C3421466B460CAA304632
:108F7C00FCF7DCFD044600284CD102460121686850
:108F8C00FDF7D6F80221804622466868FDF7D0F836
:108F9C00009E81462146002E3CD000293AD17368B0
:108FAC00022B03D00A2B11D0F669F4E7B8F1000FAD
:108FBC000AD0716906A8043107ADFFF7BFFA0FCDCF
:108FCC003C1D0FC42B6823704146EDE7B9F1000F2F
:108FDC0001D14946E8E77469102201A801F0EEF8C6
:108FEC0006238DF8143001AD04F108031834186809
:108FFC0059682A4603C20833A3421546F7D101A982
:10900C0006A807ADFFF764FA0FCD3C1D0FC42B6803
:10901C002370DEE70098FCF781FD384615B0BDE8FB
:10902C00F0830000024B034A1A6000225A6070471A
:10903C00C4E7032074AD0D00232813B502D900201A
:10904C0002B010BDA0F10B03022B1AD8174C2178DB
:10905C00BFF35B8F11F001010BD120460191FBF79F
:10906C0018F8019928B11248FDF776F92046FBF75C
:10907C0015F80F4B1878FCF78DFF0028DFD1012075
:10908C00DEE7012809D800F081F80021007CFCF70C
:10909C0009FF80F00100C0B2D2E709380128EED8F0
:1090AC00FFF736FB007CFCF7A5FEF2E730E6032069
:1090BC0034E60320232838B504460D460AD8FF2988
:1090CC0008D0FFF7B9FF28B129462046BDE8384043
:1090DC00FCF734BD38BD38B504460D46FCF736FDFB
:1090EC00FF2810D0062804D84D2323FA00F0C3071C
:1090FC0009D42046FFF7A0FF28B129462046BDE839
:10910C003840FCF72BBD38BD10B50446FCF71EFDEE
:10911C00031FDBB2012B08D92046FFF78DFF20B1CE
:10912C002046BDE81040FCF721BD002010BD00001A
:10913C0010B5084C2378BFF35B8FDB0708D42046AF
:10914C00FAF7A7FF20B1FCF739FD2046FAF7A6FF86
:10915C00014810BDD0E70320D4E7032038B5002325
:10916C00202543801423044603808560056106494D
:10917C00284600F03CF804496060284600F037F8B7
:10918C00E060204638BD00BFA8AD0D0030B50F4DD6
:10919C002978BFF35B8F11F0010487B013D12846F7
:1091AC00FAF777FF78B101A8FFF7D8FF01AA21469B
:1091BC000748FFF703FB2846FAF770FF054A0649F4
:1091CC00034800F00BF8024807B030BDD8E7032085
:1091DC00DCE7032068DF032071870D000B46014696
:1091EC00184600F093BFFAF752BFFAF74CBFFAF7E4
:1091FC004CBF08B5FDF754F8014900F0F9B800BFB1
:10920C00C4AD0D007FB500241023CDE902340368F2
:10921C0000949E698DF8044015466B461268B04761
:10922C009DF8043003F00603062B03BF009B2B6054
:10923C000120204604B070BD0098904214BF01205C
:10924C000620704710B5034B0360044600F0CDF8C0
:10925C00204610BD04AE0D0010B50446FFF7F2FF1A
:10926C0020460821FFF7BFFF204610BD2DE9F04135
:10927C001F46DDE90834DDF818809845064615468A
:10928C0007D1079900F0B4F818B165710020BDE85A
:10929C00F0813946304600F0ABF80028F6D00123B7
:1092AC00C4F800802571A371F0E738B515461C464B
:1092BC0000F09EF820B10823E3600623256023719B
:1092CC0038BD73B505460C4601921E4600F090F869
:1092DC0050B9032E08D82368019A5B6929462046A9
:1092EC0002B0BDE87040184702B070BD10B5034B1A
:1092FC0003600446FFF7A6FF204610BD64AE0D00C8
:10930C0010B50446FFF7F2FF20460C21FFF76BFF68
:10931C00204610BDF7B5089F974205460E461446E9
:10932C000AD0A86802680897156A31462246AC46EE
:10933C0003B0BDE8F04060471946019300F058F8BF
:10934C00019B0028EDD0062003B0F0BD2DE9F14FB4
:10935C000D461946DDE90A4BDDE90CA68146174698
:10936C00984600F045F890B1002D3460377109DB58
:10937C0061198A450CBF06210121B171002001B091
:10938C00BDE8F08F0235F9D10123B371F6E75445EE
:10939C0006D15946484600F02BF808B17771EDE735
:1093AC00D9F808000368CDE90CA6CDE90A4BDC69B5
:1093BC003A4643462946A44601B0BDE8F04F604703
:1093CC002DE9F04107460C4615461E46FFF76DFF8A
:1093DC0048B9B86803689F692A4633462146BC469B
:1093EC00BDE8F0416047BDE8F08170470020704750
:1093FC00814208B50ED0406803782A2B0CD04968FE
:10940C000B782A2B08BF013100F004FFB0FA80F072
:10941C00400908BD0120FCE70020FAE710EE103AE5
:10942C00C3F3C7527F3A162A10EE101A0EDC002A2C
:10943C0011DB0C481041034205D04FF4800313415B
:10944C000B4423EA000300EE103A7047802AFAD14D
:10945C0030EE000A7047013203F00043F3D143F0C1
:10946C007E53F0E7FFFF7F0081F0004102E000BF78
:10947C0083F0004330B54FEA41044FEA430594EAC8
:10948C00050F08BF90EA020F1FBF54EA000C55EA03
:10949C00020C7FEA645C7FEA655C00F0E2804FEAD4
:1094AC005454D4EB5555B8BF6D420CDD2C4480EAB6
:1094BC00020281EA030382EA000083EA010180EAE6
:1094CC00020281EA0303362D88BF30BD11F0004F34
:1094DC004FEA01314FF4801C4CEA113102D040426A
:1094EC0061EB410113F0004F4FEA03334CEA1333A5
:1094FC0002D0524263EB430394EA050F00F0A780BD
:10950C00A4F10104D5F1200E0DDB02FA0EFC22FAB7
:10951C0005F2801841F1000103FA0EF2801843FAAB
:10952C0005F359410EE0A5F120050EF1200E012A9C
:10953C0003FA0EFC28BF4CF0020C43FA05F3C018DA
:10954C0051EBE37101F0004507D54FF0000EDCF153
:10955C00000C7EEB00006EEB0101B1F5801F1BD3FC
:10956C00B1F5001F0CD349085FEA30004FEA3C0C00
:10957C0004F101044FEA445212F5800F80F09A80F6
:10958C00BCF1004F08BF5FEA500C50F1000041EBFA
:10959C00045141EA050130BD5FEA4C0C404141EBFE
:1095AC000101013C28BFB1F5801FE9D291F0000FF9
:1095BC0004BF01460020B1FA81F308BF2033A3F1A8
:1095CC000B03B3F120020CDA0C3208DD02F1140C9F
:1095DC00C2F10C0201FA0CF021FA02F10CE002F1DA
:1095EC001402D8BFC2F1200C01FA02F120FA0CFCD3
:1095FC00DCBF41EA0C019040E41AA2BF01EB04511C
:10960C00294330BD6FEA04041F3C1CDA0C340EDC19
:10961C0004F11404C4F1200220FA04F001FA02F35C
:10962C0040EA030021FA04F345EA030130BDC4F11A
:10963C000C04C4F1200220FA02F001FA04F340EA0F
:10964C000300294630BD21FA04F0294630BD94F0C0
:10965C00000F83F4801306BF81F480110134013DA7
:10966C004EE77FEA645C18BF7FEA655C29D094EA18
:10967C00050F08BF90EA020F05D054EA000C04BF96
:10968C001946104630BD91EA030F1EBF0021002081
:10969C0030BD5FEA545C05D14000494128BF41F020
:1096AC00004130BD14F580043CBF01F5801130BD84
:1096BC0001F0004545F0FE4141F470014FF000000F
:1096CC0030BD7FEA645C1ABF194610467FEA655CC0
:1096DC001CBF0B46024650EA013406BF52EA033562
:1096EC0091EA030F41F4002130BD00BF90F0000F50
:1096FC0004BF0021704730B54FF4806404F132048C
:10970C004FF000054FF0000150E700BF90F0000F44
:10971C0004BF0021704730B54FF4806404F132046B
:10972C0010F0004548BF40424FF000013EE700BF3B
:10973C0042004FEAE2014FEA31014FEA02701FBFCB
:10974C0012F07F4393F07F4F81F06051704732F0FD
:10975C007F4208BF704793F07F4F04BF41F4002154
:10976C00704730B54FF4607401F0004521F00041B2
:10977C001CE700BF50EA010208BF704730B54FF03C
:10978C0000050AE050EA010208BF704730B511F03D
:10979C00004502D5404261EB41014FF4806404F175
:1097AC0032045FEA915C3FF4D8AE4FF003025FEAFB
:1097BC00DC0C18BF03325FEADC0C18BF033202EB7F
:1097CC00DC02C2F1200300FA03FC20FA02F001FAD9
:1097DC0003FE40EA0E0021FA02F11444BDE600BF7C
:1097EC0070B54FF0FF0C4CF4E06C1CEA11541DBF2B
:1097FC001CEA135594EA0C0F95EA0C0F00F0DEF8F6
:10980C002C4481EA030621EA4C5123EA4C5350EADA
:10981C00013518BF52EA033541F4801143F480132B
:10982C0038D0A0FB02CE4FF00005E1FB02E506F0BC
:10983C000042E0FB03E54FF00006E1FB03569CF011
:10984C00000F18BF4EF0010EA4F1FF04B6F5007F17
:10985C0064F5407404D25FEA4E0E6D4146EB060689
:10986C0042EAC62141EA55514FEAC52040EA5E5012
:10987C004FEACE2EB4F1FD0C88BFBCF5E06F1ED8BC
:10988C00BEF1004F08BF5FEA500E50F1000041EBF3
:10989C00045170BD06F0004646EA010140EA0200A0
:1098AC0081EA0301B4EB5C04C2BFD4EB0C0541EAC2
:1098BC00045170BD41F480114FF0000E013C00F3D7
:1098CC00AB8014F1360FDEBF002001F0004170BDFB
:1098DC00C4F10004203C35DA0C341BDC04F1140414
:1098EC00C4F1200500FA05F320FA04F001FA05F2A0
:1098FC0040EA020001F0004221F0004110EBD3706D
:10990C0021FA04F642EB06015EEA430E08BF20EA98
:10991C00D37070BDC4F10C04C4F1200500FA04F33B
:10992C0020FA05F001FA04F240EA020001F00041CD
:10993C0010EBD37041F100015EEA430E08BF20EA40
:10994C00D37070BDC4F1200500FA05F24EEA020E88
:10995C0020FA04F301FA05F243EA020321FA04F0B7
:10996C0001F0004121FA04F220EA020000EBD3706E
:10997C005EEA430E08BF20EAD37070BD94F0000F6E
:10998C000FD101F00046400041EB010111F4801FA2
:10999C0008BF013CF7D041EA060195F0000F18BF53
:1099AC00704703F00046520043EB030313F4801F8F
:1099BC0008BF013DF7D043EA0603704794EA0C0F49
:1099CC000CEA135518BF95EA0C0F0CD050EA41065F
:1099DC0018BF52EA4306D1D181EA030101F00041DC
:1099EC004FF0000070BD50EA410606BF1046194604
:1099FC0052EA430619D094EA0C0F02D150EA013610
:109A0C0013D195EA0C0F05D152EA03361CBF104650
:109A1C0019460AD181EA030101F0004141F0FE41EF
:109A2C0041F470014FF0000070BD41F0FE4141F473
:109A3C00780170BD70B54FF0FF0C4CF4E06C1CEA73
:109A4C0011541DBF1CEA135594EA0C0F95EA0C0F28
:109A5C0000F0A7F8A4EB050481EA030E52EA0335E3
:109A6C004FEA013100F088804FEA03334FF0805504
:109A7C0045EA131343EA12634FEA022245EA111531
:109A8C0045EA10654FEA00260EF000419D4208BFE2
:109A9C00964244F1FD0404F5407402D25B084FEA8F
:109AAC003202B61A65EB03055B084FEA32024FF43B
:109ABC0080104FF4002CB6EB020E75EB030E22BF98
:109ACC00B61A754640EA0C005B084FEA3202B6EB58
