:02000002D0002C
:1040000000400D004C7E0D00000006000C00050174
:084010000401BD0B00000000DB
:04401800107A0D000D
:10401C0009480A49884208B505D0094A824202D0AB
:10402C00121A03F087FC0748074A0021121A03F002
:10403C008FFC014808BD00BF38E50320BC7D0D0096
:10404C00A0E50320A0E50320F0E7032070B5074EA0
:10405C00074C01F069FEA41BA4080025A54200D161
:10406C0070BD56F8043B98470135F7E7807D0D008D
:10407C00A47D0D0000F01AB808B500F043F8BDE8B7
:10408C00084001F013BE01F09DBA01F09BBA01F09B
:10409C00A1BA01F09FBA0078B0FA80F040097047DD
:1040AC0001230370704770477047000010B5134C24
:1040BC0086B001F055FF4FF4165101F045FF182161
:1040CC00204600F074FA2046022100F047FA14232F
:1040DC00FF22CDE9003201210A230F22204600F0F5
:1040EC00F9F902A801F05EFA0299054800F0CEFD3C
:1040FC0002A801F03BFC06B010BD00BF08E603208F
:10410C00A4E5032070B53D483D4D90B000F023FA76
:10411C00002855D042F210732B60384C204600F02A
:10412C0097FA01F01DFF0646204600F014FA0A2209
:10413C000146304601F049FD304601F03AFD314967
:10414C0004A801F05EFC94ED030A0621684601F018
:10415C008DFC694604A801F0BAFC2B4901F0C3FCA4
:10416C0094ED040A0646062108A801F07FFC08A974
:10417C00304601F0ACFC254901F0B5FC94ED050A84
:10418C00234C064606210CA801F070FC0CA9304605
:10419C0001F09DFC0146204601F047FC0CA801F003
:1041AC00E5FB08A801F0E2FB684601F0DFFB04A880
:1041BC0001F0DCFB22681749174800F0F2FD02E021
:1041CC002B68002BA9DC144800F06FFC50B112488E
:1041DC0000F043FE2B68C820C83B2B6001F02CFD7F
:1041EC0010B070BD0CA801F0DDF90C990A4800F074
:1041FC004DFD0CA801F0BAFBECE700BF08E603206C
:10420C0004E60320247A0D00287A0D002D7A0D0087
:10421C0034E60320327A0D00A4E5032010B52C21DE
:10422C00044602F052FC204610BD000037B5134D79
:10423C00134C1449284601F0E4FB2846124D13494F
:10424C00224602F03DFC284600F04EF8224610496A
:10425C002846104D02F034FC002300930E490F4BFE
:10426C0040F25B72284600F017FB0D4922462846A7
:10427C0003B0BDE8304002F023BC00BF34E603209D
:10428C00A0E50320277A0D0008E6032079590D00DC
:10429C00B5400D00A4E50320447A0D00B3400D0099
:1042AC0099500D00704700000B4610B528220446AB
:1042BC000021184603F04CFB08490B2203F08EFB3F
:1042CC0000220121C272C1600346A0695A62C3E98F
:1042DC00040100229A61DA611A6210BD537A0D0052
:1042EC000368C9B29B681847064A02604FF0FF3258
:1042FC0082614277C283FF2280F82020082242622A
:10430C00704700BF647A0D0013B50B4C2178BFF3D6
:10431C005B8F11F001010BD120460191FFF7BBFE21
:10432C00019928B1054801F0B9F92046FFF7B8FE0C
:10433C00024802B010BD00BF44E6032048E603204B
:10434C002DE9F04190F92030013305460F4606D196
:10435C00FFF7DAFF3946BDE8F04101F029BA002435
:10436C0007264FF0010895F92000002180B202F0D9
:10437C003AFB95F91E0008FA06F1394080B202F0BA
:10438C0032FB95F92000012180B202F02CFB95F94B
:10439C001F00640080B2E4B202F03EFB08B144F0AE
:1043AC000104013EDFD22046BDE8F08108B5FFF7DD
:1043BC00ABFF012101F08DF9FFF7A6FF05490122A2
:1043CC0001F0C4F9FFF7A0FFBDE80840002101F09F
:1043DC0093B900BF20A1070070B590F91D300133CF
:1043EC0004460E46154616D102F042FB217F01F021
:1043FC00CFFE02F03DFB036831469B68984702F004
:10440C0037FB036829469B68984702F031FBBDE8EF
:10441C00704001F0C8BE90F92030013301D1FFF794
:10442C00C5FF94F91D00002180B202F0DCFA06F001
:10443C007F012046FFF784FF29462046FFF780FFC7
:10444C0094F91D000121BDE8704080B202F0CBBA96
:10445C0038B590F91D30013304460D461DD102F0DC
:10446C0007FB94F91C1001F097FE02F001FB0368A6
:10447C0029469B68984702F0FBFA01F094FE02F083
:10448C00F7FA217F012201F080FE02F0F1FA0368B5
:10449C005B699847C5B2284638BD90F92030013386
:1044AC0001D1FFF783FF94F91D00002180B202F0C7
:1044BC009AFA45F080012046FFF742FF0021204682
:1044CC00FFF73EFF054694F91D00012180B202F072
:1044DC008AFAE0E72DE9F84304469DF820909DF810
:1044EC00248017461E460D4679B92221FFF7B0FFEE
:1044FC00222100F07F022046FFF76EFF2A4638216A
:10450C002046BDE8F843FFF767BF80222221FFF762
:10451C0063FF082224212046FFF75EFF012D16D1F0
:10452C00152238212046FFF757FF3A463A212046FC
:10453C00FFF752FF32463B212046FFF74DFF4A461C
:10454C003C212046FFF748FF42463D21D8E7022D8B
:10455C00EBD12A22E5E73921FFF77ABF38B50D46B2
:10456C0023210446FFF774FF20F0300242EA0512C3
:10457C002046D2B2BDE838402321FFF72DBF08B545
:10458C002321FFF765FFC0F3011008BD38B50D46B8
:10459C0020210446FFF75CFF00F00F0242EA0512EF
:1045AC002046D2B2BDE838402021FFF715BF10B528
:1045BC000446017790F91D00421C23D102F058FAF1
:1045CC0001F0B4FD0F212046FFF742FF33283DD107
:1045DC00072220212046FFF7FFFE07212046FFF788
:1045EC00D5FF882223212046FFF7F6FE1022222138
:1045FC002046FFF7F1FE204680221F21FFF7ECFE3C
:10460C00012010BD012180B202F0EDF994F91D00DA
:10461C00012180B202F0D6F994F92000431C04D198
:10462C00FFF772FE01F044F8CCE7012180B202F0F2
:10463C00C9F994F91E00012180B202F0C3F994F972
:10464C001F00002180B202F0BDF9BBE70020D8E7C3
:10465C0038B590F91D300133044676D102F008FAD2
:10466C0094F91C105C4D01F097FD02F001FAA821A1
:10467C00FFF736FE02F0FCF901F095FD02F0F8F9B7
:10468C00217F062201F081FD02F0F2F903685B69DB
:10469C009847E08002F0ECF903685B699847E3887F
:1046AC0005EA00201843E08002F0E2F903685B6938
:1046BC009847208102F0DCF903685B6998472389ED
:1046CC0005EA00201843208102F0D2F903685B69E7
:1046DC009847608102F0CCF903685B69984705EA5A
:1046EC0000206589284360812046FFF748FF032896
:1046FC0069D002286AD001286BD0002843F6FC73DD
:10470C0018BF012307EE903AB4F9063007EE103AC1
:10471C00F8EEE77AB8EEC77AB4F90830C7EE276A34
:10472C0007EE103AB8EEC77AC4ED036AC7EE276AF3
:10473C00B4F90A3007EE103AB8EEC77AC4ED046A41
:10474C00C7EE276AC4ED056A38BD90F920300133F5
:10475C0001D1FFF72BFE94F91D00002180B202F06D
:10476C0042F9E8212046FFF7EBFDFF212046FFF739
:10477C00E7FDFF21E0802046FFF7E2FDE38843EAF6
:10478C000020E080FF212046FFF7DAFDFF21208189
:10479C002046FFF7D5FD238943EA00202081FF2125
:1047AC002046FFF7CDFDFF2160812046FFF7C8FDB5
:1047BC00638943EA0020608194F91D00012180B2D5
:1047CC0002F011F990E74FF400639BE74FF480532C
:1047DC0098E741F6FE7395E700FFFF000C4605468F
:1047EC0008B520220021201D03F0B2F824232360F9
:1047FC00AB6963600123A360002323612846FFF7A4
:10480C0027FFEB6863612B69A3616B69E36191F826
:10481C005C3010B50446016013B1886D00F0AEFC3D
:10482C00204610BD10B5036893F85C20044612B105
:10483C00986D00F0ABFC204610BDF8B51F469DF8F6
:10484C00243004460D4616462BB1012380F85C300B
:10485C00583000F08BFC089B23630023636306B184
:10486C00A66425B1294604F1380001F0EDF8069B49
:10487C002365079BE069A4F84C70FF2BB8BFFF239E
:10488C00A4F8543008B1FFF704FCB4F85400FFF757
:10489C00FCFBE061F8BD00002DE9FF41044600255A
:1048AC00174698460E4601F0CFFE0D49E56104F11E
:1048BC00380001F0A6F89DF82830A564CDE90283F4
:1048CC00FF220F23CDE90032204684F85C503B4692
:1048DC002A463146FFF7B1FF204604B0BDE8F0810F
:1048EC00277A0D0010B50446204601F009FE002879
:1048FC00FAD0204601F03DFDC0B210BD2DE9F047C5
:10490C000546C4690F46FFF7EDFF2070EB6993F87D
:10491C0000A04FF001090AF0F00A4FF000084C46D5
:10492C002846FFF7DFFF2646EB69985500F07F031A
:10493C0013FB09F3984401340306A4B21FFA88F858
:10494C004FEAC919ECD4631EBAF1300F3B7024D175
:10495C002846EF69FFF7C6FF38552846EF69F41C67
:10496C00FFF7C0FF0236B6B2A4B2B8550226B6B2F3
:10497C00B1462746C14512D22846FFF7B3FFB5F81A
:10498C005430BB4288BFEB6909F1010988BFD85587
:10499C000137BFB21FFA89F9ECE70026E7E7A8EB6D
:1049AC000600B0452CBF064600263444B5F854002A
:1049BC00A4B2A0422CBF20460020BDE8F087F7B57A
:1049CC008C461E461D4607460023AE4602A805F03F
:1049DC007F01BEF17F0F03F10104034488BF41F056
:1049EC008001BEF17F0F4FEAD515E4B203F8041C29
:1049FC0010D8C4F10403D11802F803C0C4F10503A4
:104A0C00134401A80532934206D010F8015B03F859
:104A1C00015BF8E72346D8E7721C2244384601F0C4
:104A2C00D2FB054600F09AFB621C78623244A8B2B5
:104A3C00131A5842584103B0F0BD13B50446014651
:104A4C0001A8FFF7E4FEE369E0221A70E369002293
:104A5C005A70E1690222204601F0B5FB204601F0B4
:104A6C00A9FD00F07BFBC4E9090001A8FFF7DAFE01
:104A7C0002B010BD0233F0B5044698B20023CD5CF1
:104A8C0055B1B4F85460864203F1010704D9461CB1
:104A9C0015543B46B0B2F2E799B2441A22440912BB
:104AAC0002F8021C02F8013CF0BD38B5044601F0D6
:104ABC00A0FB002814BF0125002502D1204601F0DF
:104ACC0079FD284638BD00002DE9F04788B0044632
:104ADC00DDF840809DF850A0894617461E46FFF72A
:104AEC00E4FF0546002840F0CB80214601A8FFF7E3
:104AFC008EFEA16C002940F08780B4F84C20A16B8D
:104B0C002B46204601F0B4FD002879D001232384E4
:104B1C009DF85430E269042B40F08180594B1868A1
:104B2C0099889B79ADF80C108DF80E300290C2F874
:104B3C0005009DF80E30BDF80C10A2F80910D372C8
:104B4C000C23B8F1000F7FD09DF848009DF844204D
:104B5C00400140EAC20040F00600C0B2BAF1000FBA
:104B6C0001D100F0FD001FB1002E6FD140F080008C
:104B7C00E269D054226DE169581C12120A549A1C35
:104B8C00E169206D88540333E26949462046FFF7FA
:104B9C0071FF0346B8F1000F0BD0E2694146204685
:104BAC00FFF768FFE269139903462046FFF762FF9F
:104BBC00034667B1E26939462046FFF75BFF0346BF
:104BCC002EB1E26931462046FFF754FF0346053B00
:104BDC00E2699BB210212046FFF7F1FE00F0BEFA0D
:104BEC00C4E909004FF47A76204601F089FC80BBB9
:104BFC0000F0B4FAA36AC01A236D73439842F3D938
:104C0C00204601F0D7FC34E002A801F03DF9B4F8DD
:104C1C004C202B4602A9204601F0F7FB74E71A4BF7
:104C2C00186859681B7A0DF1080CACE803008CF875
:104C3C00003002AB03CBC2F80500C2F809109CF897
:104C4C00003053730E237CE7022087E740F0C0004E
:104C5C008EE702A92046FFF751FE0428D0D1E36964
:104C6C00DE78002ECCD100F079FA0125A06284F810
:104C7C002C6001A8FFF7D6FD284608B0BDE8F087E8
:104C8C000025F9E7787A0D007F7A0D007FB50123B6
:104C9C000422CDE904320023CDE90233CDE90033FF
:104CAC001A46FFF711FF07B05DF804FB2DE9F74F2B
:104CBC00DDF83C809DF834509DF8389004468B46C6
:104CCC0016461F46FFF7F1FE8246002851D02146BA
:104CDC0001A8FFF79CFDB4F85420E069002102F014
:104CEC0037FE0523E26959462046FFF7C3FE6B1ECB
:104CFC00012B15D8218CE369013189B22184091269
:104D0C001954421CE369218C92B20230995480B23E
:104D1C00B8F1000F04D0238C5A1C2284A8F8003060
:104D2C0000210B188F42E2699BB20AD9B4F854C027
:104D3C009C4506D916F801C002F803C0013189B2AE
:104D4C00EFE79DF8301000290CBF30213121B9F16B
:104D5C00000F01D041F00801022D0ED141F00401E9
:104D6C00053B9BB22046FFF72AFE824601A8FFF7BF
:104D7C0059FD504603B0BDE8F08F012D08BF41F03E
:104D8C000201EDE71FB5089C0394002402949DF8E2
:104D9C001C4001949DF818400094FFF787FF04B065
:104DAC0010BD30B587B0044610460591049202F050
:104DBC000DFE00250346CDE90155DDE904210095E2
:104DCC002046FFF7DFFF07B030BD73B504460E4633
:104DDC00FFF76BFE0546C8B1214601A8FFF717FD8A
:104DEC00E36962221A70E36902225A70E369321293
:104DFC009A70E369DE70E1690422204601F0E3F960
:104E0C00051E01A818BF0125FFF70CFD284602B0AE
:104E1C0070BD73B504460E46FFF747FE0546C8B194
:104E2C00214601A8FFF7F3FCE36972221A70E369CB
:104E3C0002225A70E36932129A70E369DE70E169FA
:104E4C000422204601F0BFF9051E01A818BF012558
:104E5C00FFF7E8FC284602B070BD2DE9F04F2DEDB0
:104E6C00028B87B000AF0446FFF71FFE8146F8B1F6
:104E7C00214607F11400FFF7CAFC00F06FF9226D10
:104E8C004FF47A735343A26A821A9A42064603D8A5
:104E9C00626A821A934221D294F82C307BB120465C
:104EAC0001F088FB4FF0000907F11400FFF7BAFC82
:104EBC0048461C37BD46BDEC028BBDE8F08FE2695D
:104ECC00C0211170E2695370E1690222204601F0A1
:104EDC007AF9C4E90966012384F82C30204601F0E4
:104EEC000FFB0028E0D007F113012046FFF706FD69
:104EFC0083460028D8D0E369A662197801F0F00245
:104F0C00302A7FD1D4F830A0BAF1000FCCD097F86A
:104F1C0013C06A4608EE102A03EB0C025578917800
:104F2C0001EB05218DB205F108026946D208A1EB0F
:104F3C00C20295460CF10302FA6003EB020E0DEB74
:104F4C0005026846C7F808D07A60D7E901218A4281
:104F5C0006D00A461EF8018B02F8018BBA60F4E702
:104F6C000022425593F80080F96808F00608ABEB74
:104F7C000C02033AB8F1020FA2EB0502294425D129
:104F8C0013F801E01944023A91F801B00CF1050153
:104F9C00294419440BEB0E2BD047E36940221A70BD
:104FAC00E3691FFA8BFB83F80180E3694FEA2B223C
:104FBC009A70E36983F803B0E1690422204601F09A
:104FCC0002F9666218EE103A9D466DE7B8F1040FCF
:104FDC0015D113F801E01944023A91F801B00CF123
:104FEC000501294419440BEB0E2BD047E3695022E1
:104FFC001A70E36902221FFA8BFB5A70D5E7194429
:10500C00D047DFE7502A08D19A78D97801EB0221F2
:10501C0089B22046FFF7D9FE46E7402A12D1626BCF
:10502C00002A3FF441AFBBF1040F7FF43DAF11F008
:10503C00060F7FF439AF9978D87800EB012080B255
:10504C00904731E7602A08D19A78D97801EB022190
:10505C0089B22046FFF7DDFE26E7702ADFD0902AC2
:10506C003FF422AFC02A0AD1D0221A70E369002281
:10507C005A70E1690222204601F0A5F814E7D02A03
:10508C0004BF002384F82C300EE7000038B5054629
:10509C00FFF70BFD10B12846FFF7CFFCE86908B10C
:1050AC00FEF7F7FF05F1380000F060FCAC690A4B25
:1050BC002B607CB16368013B63605BB9236820465D
:1050CC009B689847A368013BA3601BB923682046E3
:1050DC00DB689847284638BDCC7B0D0008B5024BE1
:1050EC001B689B68019308BD6802030008B5024B5E
:1050FC001B68DB68019308BD6802030008B5024B0E
:10510C001B689B68019308BD2C02030008B5024B79
:10511C001B68DB68019308BD2C02030008B5024B29
:10512C001B681B69019308BD2C02030008B5024BD8
:10513C001B685B69019308BD2C02030008B5024B88
:10514C001B685B69019308BD6C02030008B5024B38
:10515C001B685B68019308BD1802030008B5024B7D
:10516C001B685B69019308BD1802030008B5024B6C
:10517C001B681B6B019308BD4802030008B5024B6A
:10518C001B689B6B019308BD4802030008B5024BDA
:10519C001B681B6C019308BD4802030008B5024B49
:1051AC001B685B6C019308BD4802030008B5024BF9
:1051BC001B689B6C019308BD4802030008B5024BA9
:1051CC001B685B69019308BD6402030008B5024BC0
:1051DC001B681B6A019308BD6402030008B5024BEF
:1051EC001B689B6A019308BD6402030008B5024B5F
:1051FC001B681B68019308BD3C02030008B5024BF9
:10520C001B68DB68019308BD3C02030008B5024B28
:10521C001B681B69019308BD3C02030008B5024BD7
:10522C001B685B69019308BD3C02030008B5024B87
:10523C001B689B69019308BD3C02030008B5024B37
:10524C001B68DB69019308BD3C02030008B5024BE7
:10525C001B681B6A019308BD3C02030008B5024B96
:10526C001B689B6A019308BD3C02030008B5024B06
:10527C001B68DB68019308BD2802030008B5024BCC
:10528C001B689B69019308BD2802030008B5024BFB
:10529C001B68DB69019308BD2802030008B5024BAB
:1052AC001B681B6A019308BD2802030008B5024B5A
:1052BC001B685B6A019308BD2802030008B5024B0A
:1052CC001B689B6A019308BD2802030008B5024BBA
:1052DC001B68DB6A019308BD2802030008B5024B6A
:1052EC001B681B6B019308BD2802030008B5024B19
:1052FC001B685B6B019308BD2802030008B5024BC9
:10530C001B681B6C019308BD2802030008B5024BF7
:10531C001B681B6D019308BD2802030008B5024BE6
:10532C001B689B69019308BD3802030008B5024B4A
:10533C001B68DB69019308BD3802030008B5024BFA
:10534C001B681B6A019308BD3802030008B5024BA9
:10535C001B689B6A019308BD3802030008B5024B19
:10536C001B681B6B019308BD3802030008B5024B88
:10537C001B689B6B019308BD3802030008B5024BF8
:10538C001B681B68019308BD3002030008B5024B73
:10539C001B689B68019308BD3002030008B5024BE3
:1053AC001B68DB68019308BD3002030008B5024B93
:1053BC001B681B69019308BD3002030008B5024B42
:1053CC001B685B69019308BD3002030008B5024BF2
:1053DC001B68DB69019308BD3002030008B5024B62
:1053EC001B681B6A019308BD3002030008B5024B11
:1053FC001B685B6A019308BD3002030008B5024BC1
:10540C001B681B6C019308BD3002030008B5024BEE
:10541C001B685B6C019308BD3002030008B5024B9E
:10542C001B681B68019308BD4C02030008B5024BB6
:10543C001B685B68019308BD4C02030008B5024B66
:10544C001B681B69019308BD4C02030008B5024B95
:10545C001B685B69019308BD4C02030008B5024B45
:10546C001B689B69019308BD4C02030008B5024BF5
:10547C001B68DB69019308BD4C02030008B5024BA5
:10548C001B681B6A019308BD4C02030008B5024B54
:10549C001B681B6D019308BD6002030008B5024B2D
:1054AC001B685B68019308BD2002030008B5024B22
:1054BC001B685B69019308BD2002030008B5034B10
:1054CC001B68D3F88830019308BD0000200203004C
:1054DC0008B5034B1B68D3F89430019308BD00004A
:1054EC002002030008B5024B1B685B68019308BDE2
:1054FC004002030008B5024B1B689B68019308BD72
:10550C004002030008B5024B1B68DB68019308BD21
:10551C004002030008B5024B1B681B69019308BDD0
:10552C004002030008B5024B1B685B69019308BD80
:10553C004002030008B5024B1B689B69019308BD30
:10554C004002030008B5024B1B68DB69019308BDE0
:10555C004002030008B5024B1B681B6A019308BD8F
:10556C004002030008B5024B1B681B6B019308BD7E
:10557C004002030008B5024B1B685B6B019308BD2E
:10558C004002030008B5024B1B681B6C019308BD5D
:10559C004002030008B5024B1B685B6C019308BD0D
:1055AC004002030008B5024B1B68DB69019308BD80
:1055BC004402030008B5024B1B68DB6B019308BD6A
:1055CC004402030008B5024B1B681B68019308BD1D
:1055DC001C02030008B5024B1B685B68019308BDF5
:1055EC001C02030008B5024B1B689B68019308BDA5
:1055FC001C02030008B5024B1B68DB6B019308BD52
:10560C001C02030008B5024B1B685B6C019308BDC0
:10561C001C020300002240681146FFF79BBF0022CA
:10562C0040681146FFF7A6BF40680022FFF79ABFFB
:10563C004068002281F00101FFF784BF002340681D
:10564C001A461946FFF776BF002340681A461946DA
:10565C00FFF768BF002240681146FFF75BBF0022CE
:10566C0040681146FFF746BF406800220221FFF751
:10567C0049BF002340681A46FFF734BF024B032290
:10568C005A60024A1A60704750E60320907A0D0067
:10569C000021FFF7B3BE0021FFF7B8BE10B50446DA
:1056AC0008462170FFF792FE00236360204610BD70
:1056BC0010B504460078FFF7EBFF48B920784FF699
:1056CC00FF71FFF75BFE2078BDE81040FFF7E3BFEA
:1056DC0010BD13B5044600780191FFF7D9FF01996D
:1056EC0040B92078FFF752FE207802B0BDE8104098
:1056FC00FFF7D1BF02B010BD13B50446007801917D
:10570C00FFF7C6FF019940B92078FFF747FE2078D4
:10571C0002B0BDE81040FFF7BEBF02B010BD0000E4
:10572C00400830B51860002418688842E5B206D9E4
:10573C000134082C02D040081860F5E70725024B0D
:10574C005B5D137030BD00BFC47A0D002DE9F041D4
:10575C0088B000230446007802930E461746FFF7E4
:10576C0097FF054600BB94F800800146142203A85D
:10577C0002F0EEF80B232A4603A94046ADF80C3094
:10578C00FFF734FE04988DF8075002AB0DF10702B9
:10579C0007FB06F1FFF7C4FF20789DF80710FFF711
:1057AC0005FE2078FFF777FF029808B0BDE8F0817E
:1057BC0008B50078FFF702FEC0B208BD10B504466C
:1057CC00006818B1FFF706FF0023236010BD10B569
:1057DC000446FFF7F3FF204610BD000010B5094B3F
:1057EC00094C022200201A60084B2060A080A07196
:1057FC00A360FFF753FE2046054A0649BDE810405A
:10580C0001F05EB964E6032058E603200000FFFFB8
:10581C00A0E50320DB570D0010B5044602F0D6F8C6
:10582C00013823182046834206D90278197800F8EB
:10583C00011B03F80129F6E710BD70B50C46911E4B
:10584C002229054622D820466DB1B5FBF2F602FBA3
:10585C001655E9B2092D94BF30315731C9B200F851
:10586C00011B3546F0E7024623443021934202D90E
:10587C0002F8011BFAE71A1A834238BF00220023F0
:10588C0083542046FFF7C8FF204670BD0020FCE77C
:10589C0070B586B0064601AD684600F0F5FA0FCD3E
:1058AC00341D0FC42B682370304606B070BD000049
:1058BC002DE9F04757EC106B80460C4610EE100AA1
:1058CC0000220023394601F045FE28B107F10043C0
:1058DC001F462D2304F8013B00234FF001090A2237
:1058EC00D9B2884503D902FB09F90133F8E74846D8
:1058FC0001F054FB32463B4601F0BAFB06460F461C
:10590C0001F088FE05468A4601F07CFB02460B46F8
:10591C003046394601F0F4F9134B002201F02EFE0B
:10592C0010B101354AF1000A4A462846D3175146B0
:10593C0001F058FE0123154621460A22FFF77DFF90
:10594C00B8F1000F0DD0204602F040F82E2321189C
:10595C0023540A22434628460131BDE8F047FFF79D
:10596C006CBFBDE8F08700BF0000E03F10B50446F7
:10597C000068FFF72FFE204610BD10B504460068E6
:10598C0008B1FFF727FE0023C4E90133236010BDE3
:10599C0038B504460D4600680131FFF723FE10B1FF
:1059AC00C4E90005012038BD10B50368044623B1D5
:1059BC0043688B4201D3012010BD2046FFF7E8FF5E
:1059CC000028F9D0A368002BF5D122681370F2E7F8
:1059DC0037B50D46114601920446FFF7E5FF019AD3
:1059EC0028B92046FFF7C9FF204603B030BDA2609E
:1059FC002946206801F09EFF2268A3680021D1543B
:105A0C00F2E7002313B5C0E9003304468360037347
:105A1C0041B10846019101F0D9FF01990246204697
:105A2C00FFF7D6FF204602B010BD884210B50446E1
:105A3C0005D00B682BB18A681946FFF7C9FF2046C1
:105A4C0010BDFFF79AFFFAE713B5044659B10846A3
:105A5C00019101F0BBFF019902462046FFF7B8FF08
:105A6C00204602B010BDFFF788FFF9E730B50446B9
:105A7C0000238BB0C4E90033A360237310EE100A2B
:105A8C00CDB201F09DFA41EC100B01A92846FFF7AD
:105A9C000FFF01A92046FFF7D7FF20460BB030BD02
:105AAC0070B505460E4609B9002070BD6AB1846810
:105ABC0014442146FFF778FF0028F5D02868AB681E
:105ACC003146184401F07AFFAC600120EDE710B5C7
:105ADC008A6809680446FFF7E3FF10B92046FFF710
:105AEC004CFF204610BD13B5044629B92046FFF7DC
:105AFC0044FF204602B010BD0846019101F066FF3C
:105B0C00019902462046FFF7CBFF0028EED0F0E7C4
:105B1C0010B50446006808B1FFF748FB204610BDDD
:105B2C0010B58368044613B10322014698472046FA
:105B3C0010BD000010B5064C002320462360FFF773
:105B4C002DFB2046034A0449BDE8104000F0B8BFC5
:105B5C0068E60320A0E503201D5B0D00F8B50646A2
:105B6C000D468F180024BD420CD0336815F8011B6C
:105B7C009B6830469847031E01DB1C44F3E7002C5E
:105B8C0008BF1C462046F8BD13B50446084659B15B
:105B9C00019101F01BFF23680199DB680246204646
:105BAC0002B0BDE81040184702B010BD03689B68F6
:105BBC00184738B50D210546FFF7F8FF0A210446B2
:105BCC002846FFF7F3FF204438BD30B58BB00023D7
:105BDC008DF82430012A98BF0A2209AC0D46B1FB7E
:105BEC00F2F101FB125303F0FF03092B94BF303386
:105BFC003733DBB2AA4204F8013DEFD92146FFF757
:105C0C00C3FF0BB030BD002340681A461946FFF79E
:105C1C0089BC0000014B024A1A6070476CE60320F5
:105C2C00D47A0D00024B1A68024B1A60704700BF01
:105C3C0038E5032070E603200021FFF737BC10B5D0
:105C4C000446FFF76DFF204610BD00000348044AD0
:105C5C0004490023836000F033BF00BF74E60320C7
:105C6C00A0E503204B5C0D00014B1860704700BF92
:105C7C003CE5032008B50B4B43B100F071F9036808
:105C8C001B699847002801DDAFF30080064B43B138
:105C9C0000F0E4F903681B699847002801DDAFF3B5
:105CAC00008008BD000000000000000008B5FFF7F0
:105CBC00E1FFFFF753FA014B186008BDD4E703204E
:105CCC000248034A0349121A01F034BE00F40320BF
:105CDC0004F40320B87D0D0007B5002300931A4689
:105CEC006FF07701FFF7F4FB03B05DF804FB0000E5
:105CFC0007B543880A2B08D0502B0BD1094B1B68D6
:105D0C004BB103B05DF804EB1847FFF7E5FF03B0A8
:105D1C005DF804FB002300931A466FF07701FFF740
:105D2C00D7FBF4E788E6032038B5124C1248134D24
:105D3C000021FFF767FC2368AB42114B0CBF01221B
:105D4C0000221A7002D0FFF7BBFF2560FFF7FEF9A7
:105D5C00044601F005FE0B4B13B12046AFF3008057
:105D6C0000210848FFF726FCBDE838400648002112
:105D7C00FFF7A4BB00F40320755C0D001E1C279AD2
:105D8C0084E6032000000000FD5C0D00704710B598
:105D9C001821044600F099FE204610BDF0B5037D95
:105DAC00062B8DB00E4600F104074FF0000412D004
:105DBC0000F1080515F8011D0A223046FFF705FF12
:105DCC00AF42044419D0002CF4D02E213046FFF7FA
:105DDC00EDFE0444EEE72F236A4639460A208DF87F
:105DEC000040FFF7EBF9684601F0F0FD336802461E
:105DFC00DB68694630469847044620460DB0F0BD36
:105E0C0010B5054B0446112240F8043B002101F06B
:105E1C009FFD204610BD00BFFC7A0D000346074ACB
:105E2C0010B543F8042B01F1100251F8044B43F860
:105E3C00044B9142F9D10A781A7010BDFC7A0D000E
:105E4C00037D042B04D14068003818BF0120704733
:105E5C00062B07D143683BB983682BB9C3681BB9C0
:105E6C000069F1E7002070470120704710B59DF8DC
:105E7C00084044EA032343EA024242EA0161042354
:105E8C004160037510BD000013B5054B0360CB7862
:105E9C0000938B784A780978FFF7E8FF02B010BDC1
:105EAC00FC7A0D0041747047704708B50021007CE6
:105EBC00FFF7D4FA40EAE07008BD08B50121007C78
:105ECC00FFF7CCFA40EAE07008BD08B5007CFFF79C
:105EDC00BDFA20EAE07008BD08B5007CFFF7AEFA09
:105EEC0020EAE07008BD13B50446007C0191FFF771
:105EFC00ADFA0028019901DC607C20B1207CFFF711
:105F0C00B5FA20EAE07002B010BD007CFFF7B6BA1B
:105F1C0010B51421044600F0D8FD204610BD000039
:105F2C0010B54FF47A73044608460021C4E90113F6
:105F3C00044B23600123207463741146FFF76EFA3F
:105F4C00204610BD107B0D00007C0022FFF76EBABE
:105F5C0010B514220446002101F0FAFC204610BDB5
:105F6C0010B5104C88B003A8FFF7F2FF2178BFF3EF
:105F7C005B8F11F0010111D120460191FEF78BF8D6
:105F8C00019958B103AA0848FFF7CAFF2046FEF74B
:105F9C0087F8064A0649044800F092FD024808B00A
:105FAC0010BD00BF8CE6032090E60320A0E5032083
:105FBC00B55E0D0070474174704708B5007CFFF763
:105FCC004DF920EAE07008BD08B5007CFFF71EF91A
:105FDC0020EAE07008BD08B5007CFFF727F940EA1D
:105FEC00E07008BD08B5007CFFF718F940EAE070D6
:105FFC0008BD007CFFF722B937B5457C04462DB1AE
:10600C00207C03B0BDE83040FFF7F8B8007C01916C
:10601C00FFF724F900280199F2DC284603B030BDC3
:10602C0010B51421044600F050FD204610BD0000B0
:10603C0010B54FF0000C0446084611464FF47A7226
:10604C00C4E901C2044A22600122207462741A4617
:10605C00FFF7CCF8204610BD407B0D0013B50E4C5D
:10606C002178BFF35B8F11F0010112D12046019111
:10607C00FEF711F8019960B1084A094B0948FFF77E
:10608C00D7FF2046FEF70CF8074A0849054800F0F0
:10609C0017FD044802B010BDA4E60320A8E60320B7
:1060AC002CE70320B0E70320A0E50320C15F0D001F
:1060BC007047F8B5064615460C468F18BC4206D0FC
:1060CC00336814F8011B9B6830469847F6E728465E
:1060DC00F8BD007C0022FFF7E1B8007C0021FFF73F
:1060EC00E5B8007C0021FFF7E9B8007C0021FFF740
:1060FC00EDB8007C0021FFF7F1B810B5142104466F
:10610C0000F0E3FC204610BD10B54FF47A73044642
:10611C0008460021C4E90113034B23602074114687
:10612C00FFF7ECF8204610BD707B0D000023007CBF
:10613C001A461946FFF79AB87FB500221423CDE909
:10614C000122ADF804300B788DF808304B680393BE
:10615C00CB680493007C0B7A059301A9FFF7D6F862
:10616C0007B05DF804FB1FB5003B8DF800104FF035
:10617C006401039118BF0123694601928DF8083020
:10618C00FFF7DAFF05B05DF804FB0123FFF7EBBF67
:10619C00007C0022FFF772B8C9B2FFF7F9BF007C90
:1061AC000022FFF773B80121FFF7F9BF13B503689D
:1061BC008DF80710DC6B01224FF0FF330DF1070156
:1061CC00A04702B010BD10B40368DC6B4FF0FF3376
:1061DC00A4465DF8044B604713B5134602688DF86E
:1061EC000710D46B0DF107010122A04702B010BDBE
:1061FC00704738B543691A68002A054610DAB3F8B7
:10620C008620B3F884309A420AD103681B699847F8
:10621C00044628B92B682846DB6A9847204638BDC7
:10622C000120FCE743691868C043C00F70477047F2
:10623C00064B994210B500F10C0405D0084600F04D
:10624C0049FC002808BF0024204610BDCC7A0D0064
:10625C0010B5AC21044600F038FC204610BDFDF70B
:10626C0016BF2DE9F0414FF0000886B01D46C0F86E
:10627C00048004460E4617464146102202A801F03F
:10628C0067FB6B1C09D04FF47A70B5FBF0F3CDE9CA
:10629C00023800FB13535843049060691023009399
:1062AC00006802AB41F2050240F6FF71FFF736F8C9
:1062BC00002807DAFFF79EF903686360002006B038
:1062CC00BDE8F0816069002300683A463146FFF76B
:1062DC0045F8031EEEDB1846F1E7000038B584697B
:1062EC000A4B036005467CB16368013B63605BB994
:1062FC00236820469B689847A368013BA3601BB9A1
:10630C0023682046DB689847284638BDCC7B0D00B7
:10631C0010B50446FFF7E2FF20461C2100F0D5FB28
:10632C00204610BD70B54D69054B04468C3544F8BC
:10633C00043B06460FCD0FC42B682370304670BD4E
:10634C00FC7A0D0010B54369B3F88620B3F884309D
:10635C009A42044605D06369B3F884201344187933
:10636C0010BD03681B6998470028F4D14FF0FF302B
:10637C00F6E710B54369B3F88620B3F884309A4237
:10638C00044608D06369B3F88420511CA3F8841028
:10639C001344187910BD03681B6998470028F1D184
:1063AC004FF0FF30F6E7F8B543691746B3F886208F
:1063BC00B3F884309A4205460E4616D06969B1F896
:1063CC008430B1F88640E41ABC4228BF3C46043302
:1063DC0022461944304601F0ADFA6A69B2F88430AD
:1063EC002344A2F884302046F8BD03681B69984703
:1063FC000028E3D14FF0FF34F5E742690023A2F8FF
:10640C0084304269A2F8863070472DE9F0411F466E
:10641C0003680C46DB6A8AB0054616469847237D0E
:10642C00D5F81480042B0CBF02200A20062201216F
:10643C00FEF79CFFC8F800006B691B68002B08DA9C
:10644C002B682846DB6A0024984720460AB0BDE832
:10645C00F0812846FFF7D1FFB7B1002303A9F8B2AA
:10646C000393ADF81030FEF769FE0028E8D1686997
:10647C0006230093006803AB41F20B0240F6FF7158
:10648C00FEF74CFF0028DBD11C22002103A801F0F1
:10649C005FFA237D042B1DD14FF407733046ADF802
:1064AC000C30FEF79BFEADF80E006068FEF78EFE1A
:1064BC0004906B691C22186803A9FEF73FFF0028A3
:1064CC00BED104340FCC6D698C350FC523682B708D
:1064DC000124BAE740F61C233046ADF80C30FEF729
:1064EC007DFE05AEADF80E00231D04F114071868EF
:1064FC005968324603C20833BB421646F7D1D8E777
:10650C0030B54269B2F886308BB004462BB1B2F884
:10651C0084209A4201D1FFF770FF61690868002856
:10652C0018DBB1F886507F2D14D804310823C5F13F
:10653C0080022944FEF70AFF002813DD6369B3F8D3
:10654C0086200AB9A3F884206369B3F88620104426
:10655C00A3F886006369B3F88600B3F88430C01AD8
:10656C000BB030BDFFF746F803680B2BF2D0FFF7EA
:10657C0041F803680B2BEDD020230025CDE9023523
:10658C00FFF738F803680193084B0949009302AAF6
:10659C002B463220FEF77AFF63691868FEF7C6FEB9
:1065AC0063694FF0FF321A60D4E700BF977B0D0090
:1065BC00907B0D0010B5436904461868002801DB78
:1065CC00FEF7B4FE63694FF0FF321A606069112266
:1065DC0000218C3001F0BCF92046BDE81040FFF7DB
:1065EC000CBF10B5002304460160C0F8843088301D
:1065FC00FFF706FC204610BD73B500234FF47A72EA
:10660C00C0E901320E4A0361026043610446AC20CA
:10661C000191FDF738FD051E05F10C0608D001238C
:10662C00C5E90133074B01992B603046FFF7D9FFC1
:10663C002046C4E90565FFF7E0FE02B070BD00BF5F
:10664C00CC7B0D00B07B0D0010B54FF0FF31044634
:10665C00FFF7D2FF204610BD10B504460068002895
:10666C0001DBFEF763FE204610BD0C30FFF7F4BFD4
:10667C002DE9F0439846036893B00D460024DB6A7D
:10668C0006461746984728466B46224621460094F4
:10669C00FEF72CFD0546002863D1009B002B4BD048
:1066AC005B69002B48D006A8FFF7AAFB009B5C692E
:1066BC006378022B04D1211D06A8FFF7E9F826E028
:1066CC000A2B24D11122294601A801F041F9A36813
:1066DC00002B38D004F108030DF1040C18341868A1
:1066EC005968624603C20833A3429446F7D1062385
:1066FC0001A90CA88DF81430FFF790FB0DF1340CA8
:10670C00BCE80F0007AC0FC4DCF80030237006A8FF
:10671C00FFF796FB80B1336807ADD3F82090124B8E
:10672C000C930FCD0DAC0FC42B6823703A46434627
:10673C000CA93046C84705460098FEF7CFFC284602
:10674C0013B0BDE8F083E368002BC3D14FF6FF70A4
:10675C00D4F81090FEF73AFD8145BBD104F1140139
:10676C00AAE72546E8E700BFFC7A0D000022406846
:10677C001146FEF7CFBE002240681146FEF7EABE76
:10678C00002240681146FEF7F5BE40680022FEF775
:10679C00E9BE4068002281F00101FEF7D3BE002360
:1067AC0040681A461946FEF7C5BE002240681146DD
:1067BC00FEF7A0BE406800220221FEF7A3BE002314
:1067CC0040681A46FEF78EBE024B04225A60024AFB
:1067DC001A607047C4E70320187C0D000023406842
:1067EC001A46FEF77FBE406800220221FEF78ABEE1
:1067FC00002240681146FEF77DBE0022406811461B
:10680C00FEF788BE002340681A461946FEF78ABE7A
:10681C00002340681A461946FEF78CBE40680021DA
:10682C00FEF7B0BE40680021FEF7B4BE40680022FF
:10683C0081F00101FEF786BE40680022FEF792BE91
:10684C00002240681146FEF795BE002240681146B2
:10685C00FEF780BE2DE9F043002495B016460D4698
:10686C000746FFF7CDFA214618220EA8009401F036
:10687C006FF84023CDE90C3421466B460CAA304608
:10688C00FEF734FC044600284CD10246012168680E
:10689C00FEF740FE0221804622466868FEF73AFE6B
:1068AC00009E81462146002E3CD000293AD17368C7
:1068BC00022B03D00A2B11D0F669F4E7B8F1000FC4
:1068CC000AD0716906A8043107ADFFF7DDFA0FCDC8
:1068DC003C1D0FC42B6823704146EDE7B9F1000F46
:1068EC0001D14946E8E77469102201A801F030F89B
:1068FC0006238DF8143001AD04F108031834186820
:10690C0059682A4603C20833A3421546F7D101A998
:10691C0006A807ADFFF782FA0FCD3C1D0FC42B68FC
:10692C002370DEE70098FEF7D9FB384615B0BDE8BA
:10693C00F0830000024B034A1A6000225A60704731
:10694C00CCE70320547C0D00232813B502D900207A
:10695C0002B010BDA0F10B03022B1AD8174C2178F2
:10696C00BFF35B8F11F001010BD120460191FDF7B4
:10697C0092FB019928B11248FEF790FE2046FDF7D4
:10698C008FFB0F4B1878FEF729FD0028DFD1012073
:10699C00DEE7012809D800F06BF80021007CFEF737
:1069AC00A5FC80F00100C0B2D2E709380128EED86E
:1069BC00FFF754FB007CFEF749FCF2E744E60320AA
:1069CC0048E60320232838B504460D460AD8FF298B
:1069DC0008D0FFF7B9FF28B129462046BDE838405A
:1069EC00FEF78CBB38BD38B504460D46FEF78EFB62
:1069FC00FF2810D0062804D84D2323FA00F0C30733
:106A0C0009D42046FFF7A0FF28B129462046BDE84F
:106A1C003840FEF783BB38BD10B50446FEF776FB55
:106A2C00031FDBB2012B08D92046FFF78DFF20B1E5
:106A3C002046BDE81040FEF779BB002010BD0000D9
:106A4C0038B5002320254380142304460380856039
:106A5C0005610649284600F03AF80449606028466A
:106A6C0000F035F8E060204638BD00BF887C0D0092
:106A7C0030B50F4D2978BFF35B8F11F0010487B04F
:106A8C0013D12846FDF707FB78B101A8FFF7D8FF13
:106A9C0001AA21460748FFF737FB2846FDF700FB04
:106AAC00054A0649034800F00BF8024807B030BD10
:106ABC00D8E70320DCE70320A0E50320BD600D0030
:106ACC000B460146184600F027BFFDF7E0BAFDF76C
:106ADC00DCBA0000014900F0F9B800BFA47C0D003D
:106AEC007FB500241023CDE90234036800949E691D
:106AFC008DF8044015466B461268B0479DF804307B
:106B0C0003F00603062B03BF009B2B6001202046DD
:106B1C0004B070BD0098904214BF0120062070474D
:106B2C0010B5034B0360044600F0CDF8204610BDB1
:106B3C00E47C0D0010B50446FFF7F2FF2046082157
:106B4C00FFF7C3FF204610BD2DE9F0411F46DDE9DC
:106B5C000834DDF8188098450646154607D1079984
:106B6C0000F0B4F818B165710020BDE8F081394629
:106B7C00304600F0ABF80028F6D00123C4F80080B2
:106B8C002571A371F0E738B515461C4600F09EF848
:106B9C0020B10823E36006232560237138BD73B54B
:106BAC0005460C4601921E4600F090F850B9032E93
:106BBC0008D82368019A5B692946204602B0BDE8D3
:106BCC007040184702B070BD10B5034B036004460B
:106BDC00FFF7A6FF204610BD447D0D0010B50446FE
:106BEC00FFF7F2FF20460C21FFF76FFF204610BD88
:106BFC00F7B5089F974205460E4614460AD0A8687A
:106C0C0002680897156A31462246AC4603B0BDE8C7
:106C1C00F04060471946019300F058F8019B00289A
:106C2C00EDD0062003B0F0BD2DE9F14F0D4619460D
:106C3C00DDE90A4BDDE90CA681461746984600F0C3
:106C4C0045F890B1002D3460377109DB61198A4524
:106C5C000CBF06210121B171002001B0BDE8F08FFD
:106C6C000235F9D10123B371F6E7544506D15946E3
:106C7C00484600F02BF808B17771EDE7D9F8080019
:106C8C000368CDE90CA6CDE90A4BDC693A464346CC
:106C9C002946A44601B0BDE8F04F60472DE9F0410C
:106CAC0007460C4615461E46FFF76DFF48B9B868F7
:106CBC0003689F692A4633462146BC46BDE8F0412D
:106CCC006047BDE8F081704700207047814208B5ED
:106CDC000ED0406803782A2B0CD049680B782A2BED
:106CEC0008BF013100F060FEB0FA80F0400908BD29
:106CFC000120FCE70020FAE781F0004102E000BF30
:106D0C0083F0004330B54FEA41044FEA430594EA5F
:106D1C00050F08BF90EA020F1FBF54EA000C55EA9A
:106D2C00020C7FEA645C7FEA655C00F0E2804FEA6B
:106D3C005454D4EB5555B8BF6D420CDD2C4480EA4D
:106D4C00020281EA030382EA000083EA010180EA7D
:106D5C00020281EA0303362D88BF30BD11F0004FCB
:106D6C004FEA01314FF4801C4CEA113102D0404201
:106D7C0061EB410113F0004F4FEA03334CEA13333C
:106D8C0002D0524263EB430394EA050F00F0A78054
:106D9C00A4F10104D5F1200E0DDB02FA0EFC22FA4F
:106DAC0005F2801841F1000103FA0EF2801843FA43
:106DBC0005F359410EE0A5F120050EF1200E012A34
:106DCC0003FA0EFC28BF4CF0020C43FA05F3C01872
:106DDC0051EBE37101F0004507D54FF0000EDCF1EB
:106DEC00000C7EEB00006EEB0101B1F5801F1BD394
:106DFC00B1F5001F0CD349085FEA30004FEA3C0C98
:106E0C0004F101044FEA445212F5800F80F09A808D
:106E1C00BCF1004F08BF5FEA500C50F1000041EB91
:106E2C00045141EA050130BD5FEA4C0C404141EB95
:106E3C000101013C28BFB1F5801FE9D291F0000F90
:106E4C0004BF01460020B1FA81F308BF2033A3F13F
:106E5C000B03B3F120020CDA0C3208DD02F1140C36
:106E6C00C2F10C0201FA0CF021FA02F10CE002F171
:106E7C001402D8BFC2F1200C01FA02F120FA0CFC6A
:106E8C00DCBF41EA0C019040E41AA2BF01EB0451B3
:106E9C00294330BD6FEA04041F3C1CDA0C340EDCB1
:106EAC0004F11404C4F1200220FA04F001FA02F3F4
:106EBC0040EA030021FA04F345EA030130BDC4F1B2
:106ECC000C04C4F1200220FA02F001FA04F340EAA7
:106EDC000300294630BD21FA04F0294630BD94F058
:106EEC00000F83F4801306BF81F480110134013D3F
:106EFC004EE77FEA645C18BF7FEA655C29D094EAB0
:106F0C00050F08BF90EA020F05D054EA000C04BF2D
:106F1C001946104630BD91EA030F1EBF0021002018
:106F2C0030BD5FEA545C05D14000494128BF41F0B7
:106F3C00004130BD14F580043CBF01F5801130BD1B
:106F4C0001F0004545F0FE4141F470014FF00000A6
:106F5C0030BD7FEA645C1ABF194610467FEA655C57
:106F6C001CBF0B46024650EA013406BF52EA0335F9
:106F7C0091EA030F41F4002130BD00BF90F0000FE7
:106F8C0004BF0021704730B54FF4806404F1320423
:106F9C004FF000054FF0000150E700BF90F0000FDC
:106FAC0004BF0021704730B54FF4806404F1320403
:106FBC0010F0004548BF40424FF000013EE700BFD3
:106FCC0042004FEAE2014FEA31014FEA02701FBF63
:106FDC0012F07F4393F07F4F81F06051704732F095
:106FEC007F4208BF704793F07F4F04BF41F40021EC
:106FFC00704730B54FF4607401F0004521F000414A
:10700C001CE700BF50EA010208BF704730B54FF0D3
:10701C0000050AE050EA010208BF704730B511F0D4
:10702C00004502D5404261EB41014FF4806404F10C
:10703C0032045FEA915C3FF4D8AE4FF003025FEA92
:10704C00DC0C18BF03325FEADC0C18BF033202EB16
:10705C00DC02C2F1200300FA03FC20FA02F001FA70
:10706C0003FE40EA0E0021FA02F11444BDE600BF13
:10707C0070B54FF0FF0C4CF4E06C1CEA11541DBFC2
:10708C001CEA135594EA0C0F95EA0C0F00F0DEF88D
:10709C002C4481EA030621EA4C5123EA4C5350EA72
:1070AC00013518BF52EA033541F4801143F48013C3
:1070BC0038D0A0FB02CE4FF00005E1FB02E506F054
:1070CC000042E0FB03E54FF00006E1FB03569CF0A9
:1070DC00000F18BF4EF0010EA4F1FF04B6F5007FAF
:1070EC0064F5407404D25FEA4E0E6D4146EB060621
:1070FC0042EAC62141EA55514FEAC52040EA5E50AA
:10710C004FEACE2EB4F1FD0C88BFBCF5E06F1ED853
:10711C00BEF1004F08BF5FEA500E50F1000041EB8A
:10712C00045170BD06F0004646EA010140EA020037
:10713C0081EA0301B4EB5C04C2BFD4EB0C0541EA59
:10714C00045170BD41F480114FF0000E013C00F36E
:10715C00AB8014F1360FDEBF002001F0004170BD92
:10716C00C4F10004203C35DA0C341BDC04F11404AB
:10717C00C4F1200500FA05F320FA04F001FA05F237
:10718C0040EA020001F0004221F0004110EBD37004
:10719C0021FA04F642EB06015EEA430E08BF20EA30
:1071AC00D37070BDC4F10C04C4F1200500FA04F3D3
:1071BC0020FA05F001FA04F240EA020001F0004165
:1071CC0010EBD37041F100015EEA430E08BF20EAD8
:1071DC00D37070BDC4F1200500FA05F24EEA020E20
:1071EC0020FA04F301FA05F243EA020321FA04F04F
:1071FC0001F0004121FA04F220EA020000EBD37006
:10720C005EEA430E08BF20EAD37070BD94F0000F05
:10721C000FD101F00046400041EB010111F4801F39
:10722C0008BF013CF7D041EA060195F0000F18BFEA
:10723C00704703F00046520043EB030313F4801F26
:10724C0008BF013DF7D043EA0603704794EA0C0FE0
:10725C000CEA135518BF95EA0C0F0CD050EA4106F6
:10726C0018BF52EA4306D1D181EA030101F0004173
:10727C004FF0000070BD50EA410606BF104619469B
:10728C0052EA430619D094EA0C0F02D150EA0136A7
:10729C0013D195EA0C0F05D152EA03361CBF1046E8
:1072AC0019460AD181EA030101F0004141F0FE4187
:1072BC0041F470014FF0000070BD41F0FE4141F40B
:1072CC00780170BD70B54FF0FF0C4CF4E06C1CEA0B
:1072DC0011541DBF1CEA135594EA0C0F95EA0C0FC0
:1072EC0000F0A7F8A4EB050481EA030E52EA03357B
:1072FC004FEA013100F088804FEA03334FF080559C
:10730C0045EA131343EA12634FEA022245EA1115C8
:10731C0045EA10654FEA00260EF000419D4208BF79
:10732C00964244F1FD0404F5407402D25B084FEA26
:10733C003202B61A65EB03055B084FEA32024FF4D2
:10734C0080104FF4002CB6EB020E75EB030E22BF2F
:10735C00B61A754640EA0C005B084FEA3202B6EBEF
:10736C00020E75EB030E22BFB61A754640EA5C009E
:10737C005B084FEA3202B6EB020E75EB030E22BF2E
:10738C00B61A754640EA9C005B084FEA3202B6EB2F
:10739C00020E75EB030E22BFB61A754640EADC00EE
:1073AC0055EA060E18D04FEA051545EA16754FEA50
:1073BC0006164FEAC30343EA52734FEAC2025FEA6E
:1073CC001C1CC0D111F4801F0BD141EA00014FF0FD
:1073DC0000004FF0004CB6E711F4801F04BF0143CE
:1073EC000020B4F1FD0C88BFBCF5E06F3FF6AFAEEA
:1073FC00B5EB030C04BFB6EB020C5FEA500C50F17A
:10740C00000041EB045170BD0EF0004E4EEA1131FC
:10741C0014EB5C04C2BFD4EB0C0541EA045170BD03
:10742C0041F480114FF0000E013C90E645EA060E47
:10743C008DE60CEA135594EA0C0F08BF95EA0C0F75
:10744C003FF43BAF94EA0C0F0AD150EA01347FF4BD
:10745C0034AF95EA0C0F7FF425AF104619462CE794
:10746C0095EA0C0F06D152EA03353FF4FDAE1046F7
:10747C00194622E750EA410618BF52EA43067FF448
:10748C00C5AE50EA41047FF40DAF52EA43057FF4D8
:10749C00EBAE12E74FF0FF3C06E000BF4FF0010CE3
:1074AC0002E000BF4FF0010C4DF804CD4FEA410C47
:1074BC007FEA6C5C4FEA430C18BF7FEA6C5C1BD014
:1074CC0001B050EA410C0CBF52EA430C91EA030F95
:1074DC0002BF90EA020F0020704710F1000F91EAF2
:1074EC00030F58BF994208BF90422CBFD8176FEAC0
:1074FC00E37040F0010070474FEA410C7FEA6C5C8E
:10750C0002D150EA013C07D14FEA430C7FEA6C5C94
:10751C00D6D152EA033CD3D05DF8040B704700BFC0
:10752C008446104662468C461946634600E000BF0E
:10753C0001B5FFF7B7FF002848BF10F1000F01BDE0
:10754C004DF808EDFFF7F4FF0CBF012000205DF8AB
:10755C0008FB00BF4DF808EDFFF7EAFF34BF012030
:10756C0000205DF808FB00BF4DF808EDFFF7E0FFC9
:10757C0094BF012000205DF808FB00BF4DF808ED1A
:10758C00FFF7CEFF94BF012000205DF808FB00BF81
:10759C004DF808EDFFF7C4FF34BF012000205DF863
:1075AC0008FB00BF4A0011D212F5001211D20DD502
:1075BC006FF47873B3EB62520ED44FEAC12343F0ED
:1075CC00004343EA505323FA02F070474FF0000097
:1075DC00704750EA013002D14FF0FF3070474FF046
:1075EC000000704753B94AB9002908BF00281CBFD6
:1075FC004FF0FF314FF0FF3000F08CB9ADF1080CBB
:10760C006DE904CE00F024F8DDF804E0DDE9022396
:10761C0004B07047D0B50C4B002206460F46FFF75E
:10762C0027FDFFF7BFFF0446FFF7A8FC074B00221E
:10763C00FFF71EFD02460B4630463946FFF760FB4E
:10764C00FFF7B0FF2146D0BD0000F03D0000F04137
:10765C002DE9F047089D04468C46002B40F08380B2
:10766C008A42174647D9B2FA82F242B1C2F12000DF
:10767C0024FA00F09140974040EA010C94404FEA04
:10768C001748230CBCFBF8F61FFA87FE08FB16C143
:10769C0043EA014306FB0EF1994209D9FB1806F1A6
:1076AC00FF3080F01981994240F21681023E3B4432
:1076BC005B1AA4B2B3FBF8F008FB103344EA0344A2
:1076CC0000FB0EFEA64509D93C1900F1FF3380F0F2
:1076DC000581A64540F2028102383C4440EA06404E
:1076EC00A4EB0E0400261DB1D4400023C5E90043D1
:1076FC003146BDE8F08702B9FFDEB2FA82F2002A09
:10770C0050D1CB1B4FEA174E1FFA87F80126B3FB5B
:10771C00FEFC210C0EFB1C3341EA034108FB0CF36D
:10772C008B4207D979180CF1FF3002D28B4200F250
:10773C00E9808446C91AA3B2B1FBFEF00EFB10110E
:10774C0043EA014408FB00F8A04507D93C1900F1B5
:10775C00FF3302D2A04500F2D9801846A4EB0804EE
:10776C0040EA0C40BFE78B4209D9002D00F0B180F4
:10777C000026C5E9000130463146BDE8F087B3FA72
:10778C0083F6002E4AD18B4202D3824200F2B8809B
:10779C00841A61EB030101208C46002DA8D0C5E9A9
:1077AC00004CA5E7C2F1200320FA03F6974001FA3A
:1077BC0002F04FEA174ED9403043030CB1FBFEF6F2
:1077CC001FFA87F80EFB161143EA014306FB08F17A
:1077DC00994204FA02F409D9FB1806F1FF3C80F037
:1077EC008D80994240F28A80023E3B445B1A81B202
:1077FC00B3FBFEF00EFB103341EA034100FB08F330
:10780C008B4207D9791800F1FF3C73D28B4271D9A6
:10781C0002383944CB1A40EA064678E7C6F1200C08
:10782C0003FA06F422FA0CF31C4320FA0CF701FAC3
:10783C0006F34FEA144E21FA0CF11F433B0CB1FB3B
:10784C00FEF91FFA84F80EFB191143EA014109FBFA
:10785C0008FA8A4502FA06F200FA06F308D961180A
:10786C0009F1FF3048D28A4546D9A9F102092144D1
:10787C00A1EB0A01BFB2B1FBFEF00EFB101147EAFF
:10788C00014700FB08F8B84507D9E71900F1FF31AB
:10789C002ED2B8452CD90238274440EA0940A7EB30
:1078AC000807A0FB02894F45C64649461AD317D094
:1078BC005DB1B3EB0E0267EB010707FA0CFCF2406B
:1078CC004CEA0202F740C5E9002700263146BDE824
:1078DC00F0872E4628460BE70646E9E61846FDE6F5
:1078EC004345E5D2B8EB020E69EB04010138DFE742
:1078FC000846D2E760468DE78146B9E7664675E7EC
:10790C0030464AE7ACF1020C394413E702383C44E8
:10791C0024E700BF704700BF10B5054C13462CB1CF
:10792C000A4601460220AFF3008010BD2046FCE75A
:10793C00000000000A44914200F1FF3300D170476F
:10794C0010B511F8014B03F8014F9142F9D110BD5C
:10795C0002440346934200D1704703F8011BF9E738
:10796C0038B50D4B1D68AB6B04467BB91820FDF781
:10797C0029FE0A4A0A4BA863C0E90023094B83601D
:10798C000B23838101220023C0E90423AB6B00226B
:10799C001C615A6138BD00BF3CE503200E33CDABF2
:1079AC0034126DE6ECDE050010F8012B11F8013BEA
:1079BC00012A28BF9A42F7D0D01A7047034611F813
:1079CC00012B03F8012B002AF9D17047034613F859
:1079DC00012B002AFBD1181A0138704710B5013958
:1079EC00034632B111F8014F03F8014B013A002C58
:1079FC00F7D11A440021934200D110BD03F8011BAA
:107A0C00F9E700001D400D0059400D0081400D00AC
:107A1C0085400D0000000000583A200009593A201A
:107A2C0000095A3A2000746573742F6D6F74696F76
:107A3C006E616C79736973006C61622E7468657722
:107A4C00636C2E636F6D004C495333444800000047
:107A5C000000000000000000B5400D0029420D00A0
:107A6C00B1420D00E9470D00B5420D0000044D5127
:107A7C0054540400064D5149736470030000000017
:107A8C00000000007F560D0075560D006B560D0062
:107A9C0061560D0055560D0049560D0029680D0014
:107AAC0031680D003D560D0035560D002B560D005E
:107ABC0021560D0061680D00000810182028303880
:107ACC0000000000000000006170700025592D2599
:107ADC006D2D25645425483A254D3A2553257A00B9
:107AEC0061736374696D65000000000000000000A4
:107AFC00A95D0D00995D0D009B5D0D00000000005F
:107B0C0000000000B55E0D001D5F0D00F35E0D0062
:107B1C00695B0D00E55E0D00B75E0D00C75E0D00E4
:107B2C00175F0D00D75E0D00B15E0D000000000068
:107B3C0000000000C15F0D002D600D0005600D0000
:107B4C00695B0D00D55F0D00F15F0D00E35F0D006B
:107B5C00FF5F0D00C35F0D00C75F0D00000000004C
:107B6C0000000000BD600D0007610D00DF600D001E
:107B7C00BF600D00E7600D00EF600D00F7600D00B9
:107B8C00FF600D00776972696E670072656376201D
:107B9C006572726F72203D202564000000000000A9
:107BAC00000000003B620D005D620D0077660D0069
:107BBC006B620D003D620D00000000000000000033
:107BCC00E9620D001D630D00B9610D00D3610D005C
:107BDC000D650D007F630D0051630D00FD610D00FF
:107BEC0017640D007D660D00B3630D00C1650D00BB
:107BFC00FF610D0031620D00E5610D006F620D003B
:107C0C0031630D000000000000000000CB670D0088
:107C1C00C1670D00B7670D0079670D00135C0D008F
:107C2C00AB670D0029680D0031680D009F670D00D2
:107C3C0097670D008D670D0083670D0061680D005F
:107C4C000000000000000000E9670D00F3670D0064
:107C5C00FD670D0007680D0011680D001D680D0013
:107C6C0029680D0031680D0039680D0045680D005C
:107C7C004D680D0057680D0061680D00005374319C
:107C8C00395F53705F6D616B655F736861726564BA
:107C9C005F74616700000000E47C0D00897C0D00BE
:107CAC00447D0D00B87C0D00687D0D004E31305FB9
:107CBC005F637878616269763131375F5F636C61DD
:107CCC0073735F747970655F696E666F4500000051
:107CDC0000000000AC7C0D002D6B0D00416B0D0005
:107CEC00D56C0D00D56C0D00AB6B0D00ED6A0D0065
:107CFC00936B0D00556B0D00216B0D00447D0D0039
:107D0C00147D0D00AC7C0D004E31305F5F637878D4
:107D1C00616269763132305F5F73695F636C617386
:107D2C00735F747970655F696E666F450000000063
:107D3C0000000000087D0D00D56B0D00E96B0D00F7
:107D4C00D56C0D00D56C0D00AB6B0D00ED6A0D0004
:107D5C00A96C0D00356C0D00FD6B0D00E47C0D0065
:107D6C00707D0D00537439747970655F696E666F40
:107D7C000000000039420D0089560D00E9570D0036
:107D8C00415B0D00215C0D00315C0D00595C0D0058
:107D9C00D5670D0041690D000000000000000000D7
:047DAC0000000000D3
:087DB000ACF8FF7F01000000A8
:047DB80000000000C7
:107DBC00EC7A0D0040E503200000000000000000FC
:107DCC0000000000000000000000000000000000A7
:107DDC000000000000000000000000000000000097
:107DEC000000000000000000000000000000000087
:107DFC000000000000000000000000000000000077
:107E0C000000000000000000000000000000000066
:087E1C0000000000000000005E
:107E2400FFFFFFFF00000102030405060708090A1B
:107E34000B0C0D0E0F101112131415161718191A16
:087E44001B1C1D1E1F2028005D
:047E4C00785634121E
:04000003D000401CCD
:00000001FF
