:02000002D0002C
:1040000000400D002CA60D00000006000C0005016C
:084010000401BD0B00000000DB
:044018004C9B0D00B0
:1040200009480A49884208B505D0094A824202D0A7
:10403000121A05F061FC0748074A0021121A05F020
:1040400083FC014808BD00BF1CE0032074A50D00DF
:10405000ACE00320ACE00320F0E7032070B5074E8E
:10406000074C03F0F7FEA41BA4080025A54200D1CD
:1040700070BD56F8043B98470135F7E74CA50D0095
:1040800070A50D0000F0A6B808B500F0A1F9BDE8D4
:10409000084003F0A1BE01F0B7BE01F0B5BE01F0CB
:1040A000BBBE0078B0FA80F040097047012303706E
:1040B0007047704710B50446043002F006F92046F8
:1040C00010BD10B504463C3002F0FFF804F12800A2
:1040D00002F0FBF8204602F0F8F8204610BD000080
:1040E00008B5074B00221A6003F0E4FF054903F00E
:1040F000DCFCBDE808400121072004F022BD00BF20
:1041000014E10320639B0D0008B503F0D3FF0449BD
:1041100003F0CBFCBDE808400021072004F011BDEE
:10412000609B0D0038B50446006928B185680C21F4
:1041300004F08FFD2846F8E7204638BD38B584697D
:104140000A4B036005467CB16368013B63605BB961
:10415000236820469B689847A368013BA3601BB96E
:1041600023682046DB689847284638BD98A20D0092
:1041700010B50446006808B101F04EFE204610BD9F
:1041800070B5037D05460E46CBB10368DB6823B1ED
:104190009A88042A17D09B68F9E70C49102004F08C
:1041A0005AFD044668B11022002105F0CDFB084BF2
:1041B00023600423A3802B692C61C4E902362846BE
:1041C00070BD2875FBE7DE60F9E700BF54A30D0062
:1041D0001000030010B596B004F0E0FC04224C4936
:1041E000C82001F0E7FA4B4B1A7D0AB102221A727D
:1041F0004FF47A714748484CFFF7C2FF03F05AFF6B
:104200004FF4165103F04AFF1821444801F049F9D0
:1042100004F0F2FC04F03AF81921404801F041F9A9
:104220003E48002101F014F93C48072101F028F92B
:104230000121082004F074FC0121082004F081FC15
:104240003749204602F0DCF840F6B8333549A3631D
:1042500004F1280002F0D4F802F0D8FD02F024FEA8
:1042600002F0D4FD304A01460DA803F0C1FA0DA8B2
:1042700002F0B9FE02F0CAFD2C4A01460DA803F077
:10428000B7FA0DA802F0AFFE0DA802F03EFC2849D7
:1042900003A802F03DFB03A908A802F039FB08A817
:1042A00002F07CFB044608A854BB02F096FB009485
:1042B000ADF80A0002230DF10A0203210DA802F055
:1042C00019FC02F0A3FD0DA9002202F00DFE02F080
:1042D0009DFD1849002203F081F902F097FD0022AC
:1042E000154903F091F90121072004F019FC134B43
:1042F00000221A6001F04EFA114B186016B010BD82
:1043000002F070FB00230093024610230721D5E73B
:1043100020E60320FCE0032088E503203CE50320A1
:104320006D9B0D007D9B0D0008E60320E8E5032052
:10433000BCE00320E1400D0009410D0014E1032021
:1043400000E60320F0B5164691B00022C0E9002235
:1043500004460D460BAF194606A802F0D9FA169985
:10436000384602F0D5FA33788DF81430189B029352
:10437000179B2046CDE9007305AA06AB294603F03A
:10438000C9F8204611B0F0BDF8B505460C461646F2
:104390004AB90368C9B29B6898470746284603F0A4
:1043A00078FB3844F8BD00290CDA0A2A0AD12D21FD
:1043B00003F066FB61420746F2B2284603F07FFB3A
:1043C0000744EBE721460027F6E700000000000065
:1043D0002DE9F04F2DED048B91B001F0DBF9504B3E
:1043E0001860504BA0F5EA401B682F3898427EDCDD
:1043F0004D4B1B78002B00F0078204F0CFFB4B499C
:104400000422002001F0D6F904F0C8FB4849042238
:10441000642001F0CFF904F0C1FB04224549C82013
:1044200001F0C8F9444B1A7D0AB102221A72DFF872
:104430000081424CD8F800103F48414DDFF814B1DC
:10444000FFF79EFE204601F07DF803F071FC0A2282
:1044500001460CA801F0F9FF0CA93A4801F0C8FF89
:104460000CA801F032FFD4ED038A00232B6018EE74
:10447000900A04F06DFE26A3D3E9002306460F46FA
:1044800005F044F9A246CDF808800395B7EE008AFE
:10449000002861D02C4B4FF033323046394605F0BE
:1044A0002BF9002858D078EEC87A2569646917EE90
:1044B000900A04F04DFE18A3D3E9002304F0A0FEF7
:1044C00005F096F9CBF80000284604F041FE12A34F
:1044D000D3E9002304F094FE05F08AF91B4B186021
:1044E000204604F035FE0CA3D3E9002377E0184BF7
:1044F00000225868114601F027FC00283FF478AFED
:1045000002F084FC02F003FD00287FF471AF74E731
:104510009A9999999999E93F3EE8D9ACFA9C234038
:1045200004E6032000E60320F8E0032018E103205E
:104530003CE0032040E00320FCE003203CE50320B6
:1045400038E5032010E603203333F33F28E6032049
:10455000BCE7032024E603209AED049A19EE100A22
:1045600004F0F6FDDAED058A044618EE900A0D46D1
:1045700004F0EEFDC0A3D3E900238046894620461F
:10458000294605F0C3F8002800F04381BC4B4FF0EA
:1045900033322046294605F0AFF8002800F0398173
:1045A000B3A3D3E900233046394604F029FE05F0D1
:1045B0001FF979EE487ACBF8000017EE900A04F064
:1045C000C7FDABA3D3E9002304F01AFE05F010F9F0
:1045D000AC4B1860A6A3D3E900234046494604F03B
:1045E0000FFE05F005F9A84B186003F063FD9AED86
:1045F000030A022103F055FB03F05CFD9AED040A67
:10460000022103F04EFB03F055FD9AED050A02214D
:1046100003F047FB9D4BD3ED007AF5EEC07AF1EE47
:1046200010FAD8BFF1EE677AF4EEC87AF1EE10FA1C
:104630001DDC944BD3ED007AF5EEC07AF1EE10FA62
:10464000D8BFF1EE677AF4EEC87AF1EE10FA0EDC1C
:104650008D4BD3ED007AF5EEC07AF1EE10FAD8BFAB
:10466000F1EE677AF4EEC87AF1EE10FA02DD039A01
:1046700001231360864D8749874E04A801F070FE20
:104680000A22296808A801F0CDFE08A904A801F0B3
:104690000AFF824901F013FF039B0A2219680446AE
:1046A0000CA801F0BFFE0CA9204601F0FCFE7C49DD
:1046B00001F005FF7B4901F0F6FE7B4901F0FFFEAA
:1046C0000146304601F0EBFE0CA801F0FEFD08A803
:1046D00001F0FBFD04A801F0F8FD03F0EBFC3168EC
:1046E00003F0E3F903F0E6FC2968704D0A22FFF7B6
:1046F0004BFE03F0DFFC029B0A221968FFF744FE21
:1047000003F0D8FC29680A22FFF73EFE02F07EFB88
:1047100002F048FD02F07AFB02F0DEFC0CA86449CE
:1047200001F0ACFC0C98A84608B101F075FB614C97
:104730002368002B63DC604F00231A461946786813
:1047400001F0E2FA002378681A46194601F0BCFA33
:1047500000227868114601F0CFFA0028F8D001F065
:104760002BFBB1684C48554E013901F022FF5449EA
:104770000CA801F0F5FD48490CA801F094FE514940
:1047800001F09DFE0146504801F01BFE0CA801F00F
:104790009CFD4E4B4E494F48009332464E4B00F025
:1047A00051FB03F087FC33684C49194403F07DF951
:1047B00003F080FC4A4905460CA801F0D1FD311DEB
:1047C0000CA801F070FE0168284603F06EF90CA8F1
:1047D00001F07BFD4349304801F012FE0025D8F876
:1047E000003023600CA8CDE90C558DF8385003F04B
:1047F00063FB78682B462A46294601F08DFA029A17
:10480000236812689B1A236011B0BDEC048BBDE8CD
:10481000F08F19A3D3E900234046494604F076FF00
:1048200000283FF4E2AE164B4FF033324046494683
:1048300004F062FF00283FF4D8AE0DA3D3E90023B3
:104840003046394604F0DCFC04F0D2FF08A3D3E97B
:104850000023CBF800002946204604F0D1FC04F0E8
:10486000C7FF084B78EEC87A186017EE900A38E652
:104870003EE8D9ACFA9C23409A9999999999E93FD5
:104880003333F33F28E603202CE6032024E60320FD
:1048900018E103207F9B0D0078E50320889B0D0025
:1048A000939B0D0010E60320A29B0D0040E0032027
:1048B000FCE0032020E60320BCE70320D4E503202E
:1048C000A59B0D00AF9B0D00C4E50320B29B0D001E
:1048D00088E503201CE103201CE00320B79B0D00AA
:1048E000C09B0D004F9F0D002DE9F041854E3468AF
:1048F00096B0014654B984492246844802F0CCF966
:1049000033680133336016B0BDE8F081012C2DD13E
:104910007F4C204601F074FDA3680022013B214634
:1049200003A801F005FE03A9204601F059FD03A8E4
:1049300001F0CBFC03F0BEFB216803F0B6F803F0F6
:10494000B9FB0A22A168054603F0B9F8284603F02E
:10495000A0F87049204601F0C7FD024620B10223AD
:1049600033606D490022C8E76C49C6E7022C54D178
:104970006B4C204601F044FDA3680022013B214618
:1049800003A801F0D5FD03A9204601F029FD03A8E5
:1049900001F09BFC5E4B2568D3F80080B8F1000F56
:1049A00037D0404605F00EF80746002D33D0284694
:1049B00005F008F804463822002108A804F0C4FFD6
:1049C0004C23CDE90338574807940323ADF8203032
:1049D0000023194603AA4068CDE9057501F0BCF92A
:1049E00003F068FB5049044603A801F0B9FC4849AC
:1049F00003A801F058FD4D4901F061FD484901F05F
:104A000052FD0168204603F050F803A801F05DFC58
:104A1000A7E74746C9E72C46CDE7032C26D10190EE
:104A200004F036FF80B104F0B9F80199084604F0AB
:104A30002FFF03A903900422002000F0C3FE03F01F
:104A400039FB3B4903F031F83A4C04F0A7F8042253
:104A50002146002000F0AEFE03F02CFB236836490F
:104A6000194403F022F83549002246E7042C23D1EB
:104A700004F00EFF324D286004F090F822462946DB
:104A8000642000F09FFE04F089F822462946642045
:104A900000F090FE2B4B1A7D0AB102221A7229688F
:104AA0002848FFF76DFB03F005FB29680A22FFF792
:104AB0006BFC2549002220E7052C7FF421AF04F090
:104AC000E7FE224C206004F069F821460422C82049
:104AD00000F078FE04F062F821460422C82000F0BD
:104AE00069FE1B4B22681A6003F0E4FA21680A226F
:104AF000FFF74AFC174B0122002107201A7004F02F
:104B000020F8FDE614E10320C79B0D0008E6032012
:104B1000F0E50320E89B0D00EA9B0D000A9C0D00C8
:104B200068E50320BCE70320239C0D003F9C0D009B
:104B30004C9C0D0018E10320599C0D00609C0D0059
:104B40003CE00320FCE003208A9C0D0040E00320B1
:104B500020E60320F8E0032010B52C21044604F0E1
:104B600078F8204610BD00002DE9F043684E694BEF
:104B7000B360002591B0684C3560B580B5710320F5
:104B800001F06CF8DFF8F4816449654FDFF8F091CB
:104B90003046644E224604F057F83146404601F054
:104BA000DFFB4046DFF8DC812246394604F04CF852
:104BB0003146404601F0D4FB4046DFF8CC81224626
:104BC000394604F041F83146404601F0C9FB404601
:104BD000DFF8B8812246394604F036F831464046BF
:104BE00001F0BEFB3946504F2246404604F02CF8F7
:104BF000384600F037FB22464C49DFF894813846AE
:104C000004F022F84A484B4FA0F809500346021D11
:104C100043F8092B9D7001230375474B43602246DF
:104C200046490572C0E9035504F00EF8384600F015
:104C3000B1F83846424F4349224604F005F8314660
:104C4000384601F08DFB07F1100003F083F931467F
:104C500007F1280001F084FB314607F13C0001F028
:104C60007FFB3846384F3949224603F0EDFF314685
:104C7000381D374E01F074FB22463649384603F0A2
:104C8000E3FF354F3549304601F028FF34494046AF
:104C900001F024FF3349384601F020FF1023394644
:104CA00006A88DF8143001F033FE31460BA801F050
:104CB0002FFE2D4F2D490BAB009305AA06ABCDE976
:104CC00001554846FFF73EFB22463946484603F069
:104CD000BBFF0423414606A88DF8143001F018FEEE
:104CE00031460BA801F014FE214E224B01930BAB71
:104CF000009305AA06AB204902953046FFF722FB38
:104D000022463946304603F09FFF11B0BDE8F083DC
:104D1000B0E003200000FFFFACE0032071410D0074
:104D2000CB620D004F9F0D003CE50320B3400D000A
:104D3000FCE003201CE103201000030025410D00CE
:104D400088E503203D410D00D4E50320C3400D005C
:104D5000BCE00320B5400D00E4E00320B49C0D004E
:104D6000D99C0D00FE9C0D00E76F0D00239D0D00EA
:104D7000E8E50320E9480D00269D0D0078E50320B5
:104D800008E6032010E60320F0E5032068E5032091
:104D9000D0E0032010B5044603F004FD204610BD0A
:104DA000F8B50F4F054614460E4602F065FE39462B
:104DB000284602F061FE2146284602F076FE03F006
:104DC00079F9314602F058FE03F074F9394602F0E1
:104DD00053FE03F06FF92146BDE8F84002F065BECE
:104DE000079C0D0010B50C4602F05FFE03F062F95F
:104DF0002146BDE8104002F058BE0000F8B5104F43
:104E0000054614460E4602F037FE3946284602F0A3
:104E100033FE0A2221462846FFF7B6FA03F04AF984
:104E2000314602F029FE03F045F9394602F024FE2E
:104E300003F040F90A222146FFF7A6FAF8BD00BFA9
:104E4000079C0D002DE9F04F0E4691B01F464FF024
:104E5000FF331360044600213046DDF86880914638
:104E600001F042FBD6F838E0034600286ED1BEF1CF
:104E7000000F14BF72465022316892B2204603F0F0
:104E8000A5FC051E18BF0125002D7ED0002130464F
:104E900001F02AFB00286CD103F00CF9BB4902F0A9
:104EA000EBFD03F007F9316802F0E6FD03F002F9CB
:104EB000B74902F0E1FD03F0FDF80A22B16BFFF7FC
:104EC00063FA4146204602F0D7FDB249204602F07F
:104ED000D3FDB16A204602F0CFFDAF49204602F073
:104EE000CBFD03F0E7F8AD4902F0DFFD03F0E2F897
:104EF000414602F0C1FD03F0DDF8A64902F0BCFD19
:104F000003F0D8F8B16A02F0B7FD03F0D3F8A24974
:104F100002F0B2FDA249A34A2046FFF741FF00215B
:104F2000304601F0E1FA20B932689F492046FFF788
:104F300037FF06F13C0A0021504601F0D5FA78BB54
:104F4000726C9A492046FFF759FF30E0984B0A935C
:104F500006F1140CBCE80F000BAD0FC5DCF80030F7
:104F60002B701FFA8EF200230AA9204603F0FBFAE9
:104F700087E703F09FF88F4902F07EFD03F09AF86F
:104F800006F1100102F07FFD90E703F093F88A49E3
:104F900002F08BFD204603F0BBFB11B0BDE8F08FA3
:104FA0008649404604F0FCFC02460028C9D05FB1A7
:104FB000396849B17A6820461AB1FFF7F1FE08371F
:104FC000F6E7FFF70FFFFAE7204602F062FD204602
:104FD00003F0BCF90021504601F086FA40B9F16BAC
:104FE000204602F062FD03F065F8F16B02F05DFD12
:104FF00003F060F804F11C0A714902F056FD4FF409
:1050000080620021504604F09FFC00F0C3FB00903A
:1050100000F0C0FB00270190204603F01FFB06466E
:10502000B0B103F047F8674902F026FD03F042F8FB
:10503000002E834627DA2D2102F022FD71420A223A
:10504000584602F03CFD03F035F85F4902F02DFDB3
:105050004FF0000B204603F001FB38B3204603F06D
:1050600036FA5FFA80F803F025F8414602F008FDB1
:1050700000F090FB40F2FE339F42009005D80AF802
:1050800007800137E6E73146D9E740F2FF339F4218
:10509000F7D1002384F81B34204603F039FB03F0DA
:1050A00009F84A4902F001FDAB46EAE7E31918772F
:1050B00026B102F0FFFF464902F0DEFC00F06AFB79
:1050C000009BC61ABBF1000F06D141F288339E4205
:1050D00002D8C82002F046FE204603F038F941F21B
:1050E000883300284AD09E424AD8BBF1000F93D0A3
:1050F00002F0E0FF374902F0BFFC02F0DBFF05469B
:1051000000F048FB019B0A22C11A284602F0D7FC96
:1051100002F0D0FF304902F0C8FC204603F0F8FA54
:10512000514602A801F01CF90C23092202A906A885
:1051300001F0FEF902F0BEFF284902F09DFC02F0EA
:10514000B9FF069902F0B1FC25490AA801F008F957
:105150000AA902A801F0E9F904460AA801F0B5F885
:10516000631C43D102F0A6FF1E4902F09EFC06A874
:1051700001F0ABF802A801F0A8F80EE79E42B7D9FB
:1051800002F098FF184902F090FCB1E7749D0D0001
:10519000869B0D00089C0D00AF9D0D00BB9D0D0072
:1051A000E49D0D00DE9D0D000E9E0D00139E0D0072
:1051B000D0A10D00909D0D00EF9D0D00B29B0D0044
:1051C000229E0D00439E0D006F9E0D00779E0D00E8
:1051D000AC9E0D00079F0D002C9F0D00319F0D0010
:1051E0004B9F0D00509F0D00D29E0D0009F104054C
:1051F0000A49284601F004F9221D02A90AA801F073
:10520000B7F90AA9284601F04AF90AA801F05DF8A1
:10521000069804F03DFBC9F80000A8E74F9F0D0079
:10522000704700000B4610B528220446002118469E
:1052300004F08AFB08490B2204F0CCFB0022012178
:10524000C272C1600346A0695A62C3E90401002228
:105250009A61DA611A6210BD829F0D000368C9B2BB
:105260009B681847064A02604FF0FF32826142771E
:10527000C283FF2280F8202008224262704700BFCC
:10528000949F0D0013B50B4C2178BFF35B8F11F089
:1052900001010BD120460191FEF703FF019928B1CE
:1052A000054800F025FE2046FEF700FF024802B048
:1052B00010BD00BF30E6032034E603202DE9F041A5
:1052C00090F92030013305460F4606D1FFF7DAFF8B
:1052D0003946BDE8F04100F095BE002407264FF0A6
:1052E000010895F92000002180B203F02AFC95F90D
:1052F0001E0008FA06F1394080B203F022FC95F94D
:105300002000012180B203F01CFC95F91F0064000D
:1053100080B2E4B203F02EFC08B144F00104013E77
:10532000DFD22046BDE8F08108B5FFF7ABFF0121D1
:1053300000F0F9FDFFF7A6FF0549012200F030FE5D
:10534000FFF7A0FFBDE80840002100F0FFBD00BF4F
:1053500020A1070070B590F91D30013304460E46B8
:10536000154616D103F048FC217F02F0BFFF03F081
:1053700043FC036831469B68984703F03DFC036893
:1053800029469B68984703F037FCBDE8704002F05F
:10539000B8BF90F92030013301D1FFF7C5FF94F970
:1053A0001D00002180B203F0CCFB06F07F012046F7
:1053B000FFF784FF29462046FFF780FF94F91D0080
:1053C0000121BDE8704080B203F0BBBB38B590F955
:1053D0001D30013304460D461DD103F00DFC94F938
:1053E0001C1002F087FF03F007FC036829469B6846
:1053F000984703F001FC02F084FF03F0FDFB217FDE
:10540000012202F070FF03F0F7FB03685B69984725
:10541000C5B2284638BD90F92030013301D1FFF7DD
:1054200083FF94F91D00002180B203F08AFB45F050
:1054300080012046FFF742FF00212046FFF73EFF94
:10544000054694F91D00012180B203F07AFBE0E7E4
:1054500038B50D4623210446FFF7B8FF20F030028F
:1054600042EA05122046D2B2BDE838402321FFF7B8
:1054700071BF08B52321FFF7A9FFC0F3011008BDD4
:1054800038B50D4620210446FFF7A0FF00F00F02BB
:1054900042EA05122046D2B2BDE838402021FFF78B
:1054A00059BF10B50446017790F91D00421C23D165
:1054B00003F0A2FB02F0E4FE0F212046FFF786FF77
:1054C00033283DD1072220212046FFF743FF072143
:1054D0002046FFF7D5FF882223212046FFF73AFF19
:1054E000102222212046FFF735FF204680221F216F
:1054F000FFF730FF012010BD012180B203F021FB36
:1055000094F91D00012180B203F00AFB94F92000F8
:10551000431C04D1FFF7B6FE00F0F4FCCCE70121F8
:1055200080B203F0FDFA94F91E00012180B203F06D
:10553000F7FA94F91F00002180B203F0F1FABBE7FB
:105540000020D8E738B590F91D300133044676D1F4
:1055500003F052FB94F91C105C4D02F0CBFE03F0FB
:105560004BFBA821FFF77AFE03F046FB02F0C9FED1
:1055700003F042FB217F062202F0B5FE03F03CFB64
:1055800003685B699847E08003F036FB03685B695A
:105590009847E38805EA00201843E08003F02CFBDD
:1055A00003685B699847208103F026FB03685B6909
:1055B0009847238905EA00201843208103F01CFB4B
:1055C00003685B699847608103F016FB03685B69B9
:1055D000984705EA00206589284360812046FFF747
:1055E00048FF032869D002286AD001286BD0002820
:1055F00043F6FC7318BF012307EE903AB4F9063066
:1056000007EE103AF8EEE77AB8EEC77AB4F9083048
:10561000C7EE276A07EE103AB8EEC77AC4ED036A00
:10562000C7EE276AB4F90A3007EE103AB8EEC77A27
:10563000C4ED046AC7EE276AC4ED056A38BD90F967
:105640002030013301D1FFF76FFE94F91D000021D6
:1056500080B203F076FAE8212046FFF72FFEFF2103
:105660002046FFF72BFEFF21E0802046FFF726FEB5
:10567000E38843EA0020E080FF212046FFF71EFE7A
:10568000FF2120812046FFF719FE238943EA0020ED
:105690002081FF212046FFF711FEFF216081204677
:1056A000FFF70CFE638943EA0020608194F91D0036
:1056B000012180B203F045FA90E74FF400639BE7C5
:1056C0004FF4805398E741F6FE7395E700FFFF0023
:1056D0000C46054608B520220021201D04F034F9AF
:1056E00024232360AB6963600123A360002323614B
:1056F0002846FFF727FFEB6863612B69A3616B699D
:10570000E361000008B5024B1B689B68019308BD6C
:105710006802030008B5024B1B68DB68019308BDF3
:105720006802030008B5024B1B689B68019308BD23
:105730002C02030008B5024B1B68DB68019308BD0F
:105740002C02030008B5024B1B681B69019308BDBE
:105750002C02030008B5024B1B685B69019308BD6E
:105760002C02030008B5024B1B685B69019308BD5E
:105770006C02030008B5024B1B685B68019308BD0F
:105780001802030008B5024B1B68DB68019308BDD3
:105790001802030008B5024B1B685B69019308BD42
:1057A0001802030008B5024B1B689B6A019308BDF1
:1057B0001802030008B5024B1B685B6C019308BD1F
:1057C0001802030008B5024B1B689B6C019308BDCF
:1057D0001802030008B5024B1B689B6D019308BDBE
:1057E0001802030008B5024B1B685B6E019308BDED
:1057F0001802030008B5024B1B689B68019308BDA3
:105800007802030008B5024B1B68DB68019308BDF2
:105810007802030008B5024B1B681B6D019308BD9D
:105820007802030008B5024B1B689B6D019308BD0D
:105830007802030008B5024B1B681B6E019308BD7C
:105840007802030008B5034B1B68D3F89830019326
:1058500008BD00007802030008B5034B1B68D3F8AD
:10586000A830019308BD00007802030008B5034B7F
:105870001B68D3F8B430019308BD00007802030020
:1058800008B5034B1B68D3F8D830019308BD00005E
:105890007802030008B5034B1B68D3F8DC30019392
:1058A00008BD00007802030008B5034B1B68D3F85D
:1058B000E830019308BD00007802030008B5034BEF
:1058C0001B68D3F8EC30019308BD00007802030098
:1058D00008B5034B1B68D3F8F030019308BD0000F6
:1058E0007802030008B5034B1B68D3F8003101931D
:1058F00008BD00007802030008B5034B1B68D3F80D
:105900000431019308BD00007802030008B5024B82
:105910001B685B6C019308BD4802030008B5024B8D
:105920001B689B6C019308BD4802030008B5024B3D
:105930001B68DB6C019308BD4802030008B5024BED
:105940001B685B6D019308BD4802030008B5024B5C
:105950001B685B69019308BD6402030008B5024B34
:105960001B681B6A019308BD6402030008B5024B63
:105970001B689B6A019308BD6402030008B5024BD3
:105980001B681B68019308BD3C02030008B5024B6D
:105990001B68DB68019308BD3C02030008B5024B9D
:1059A0001B681B69019308BD3C02030008B5024B4C
:1059B0001B685B69019308BD3C02030008B5024BFC
:1059C0001B689B69019308BD3C02030008B5024BAC
:1059D0001B68DB69019308BD3C02030008B5024B5C
:1059E0001B681B6A019308BD3C02030008B5024B0B
:1059F0001B689B6A019308BD3C02030008B5024B7B
:105A00001B68DB68019308BD2802030008B5024B40
:105A10001B681B69019308BD2802030008B5024BEF
:105A20001B689B69019308BD2802030008B5024B5F
:105A30001B68DB69019308BD2802030008B5024B0F
:105A40001B681B6A019308BD2802030008B5024BBE
:105A50001B685B6A019308BD2802030008B5024B6E
:105A60001B689B6A019308BD2802030008B5024B1E
:105A70001B68DB6A019308BD2802030008B5024BCE
:105A80001B681B6B019308BD2802030008B5024B7D
:105A90001B685B6B019308BD2802030008B5024B2D
:105AA0001B681B6C019308BD2802030008B5024B5C
:105AB0001B681B6D019308BD2802030008B5024B4B
:105AC0001B689B69019308BD3802030008B5024BAF
:105AD0001B68DB69019308BD3802030008B5024B5F
:105AE0001B681B6A019308BD3802030008B5024B0E
:105AF0001B689B6A019308BD3802030008B5024B7E
:105B00001B681B6B019308BD3802030008B5024BEC
:105B10001B689B6B019308BD3802030008B5024B5C
:105B20001B681B68019308BD3002030008B5024BD7
:105B30001B689B68019308BD3002030008B5024B47
:105B40001B68DB68019308BD3002030008B5024BF7
:105B50001B681B69019308BD3002030008B5024BA6
:105B60001B685B69019308BD3002030008B5024B56
:105B70001B68DB69019308BD3002030008B5024BC6
:105B80001B681B6A019308BD3002030008B5024B75
:105B90001B685B6A019308BD3002030008B5024B25
:105BA0001B681B6C019308BD3002030008B5024B53
:105BB0001B685B6C019308BD3002030008B5024B03
:105BC0001B681B68019308BD4C02030008B5024B1B
:105BD0001B685B68019308BD4C02030008B5024BCB
:105BE0001B681B69019308BD4C02030008B5024BFA
:105BF0001B685B69019308BD4C02030008B5024BAA
:105C00001B689B69019308BD4C02030008B5024B59
:105C10001B68DB69019308BD4C02030008B5024B09
:105C20001B681B6A019308BD4C02030008B5024BB8
:105C30001B685B6B019308BD6002030008B5024B53
:105C40001B681B6D019308BD6002030008B5024B81
:105C50001B681B68019308BD2002030008B5024BB6
:105C60001B685B68019308BD2002030008B5024B66
:105C70001B685B69019308BD2002030008B5024B55
:105C80001B689B6D019308BD2002030008B5034B00
:105C90001B68D3F88830019308BD00002002030080
:105CA00008B5034B1B68D3F89430019308BD00007E
:105CB0002002030008B5034B1B68D3F8A8300193FA
:105CC00008BD00002002030008B5024B1B685B689A
:105CD000019308BD4002030008B5024B1B689B6896
:105CE000019308BD4002030008B5024B1B68DB6846
:105CF000019308BD4002030008B5024B1B681B69F5
:105D0000019308BD4002030008B5024B1B685B69A4
:105D1000019308BD4002030008B5024B1B689B6954
:105D2000019308BD4002030008B5024B1B68DB6904
:105D3000019308BD4002030008B5024B1B681B6AB3
:105D4000019308BD4002030008B5024B1B685B6A63
:105D5000019308BD4002030008B5024B1B689B6A13
:105D6000019308BD4002030008B5024B1B681B6B82
:105D7000019308BD4002030008B5024B1B685B6B32
:105D8000019308BD4002030008B5024B1B681B6C61
:105D9000019308BD4002030008B5024B1B685B6C11
:105DA000019308BD4002030008B5024B1B689B68C5
:105DB000019308BD4402030008B5024B1B68DB6871
:105DC000019308BD4402030008B5024B1B685B69E0
:105DD000019308BD4402030008B5024B1B681B6B0E
:105DE000019308BD4402030008B5024B1B68DB6B3E
:105DF000019308BD4402030008B5024B1B685B6CAD
:105E0000019308BD4402030008B5024B1B681B68E0
:105E1000019308BD1C02030008B5024B1B685B68B8
:105E2000019308BD1C02030008B5024B1B689B6868
:105E3000019308BD1C02030008B5024B1B68DB6A16
:105E4000019308BD1C02030008B5024B1B68DB6B05
:105E5000019308BD1C02030008B5024B1B685B6C74
:105E6000019308BD1C020300002240681146FFF7A1
:105E700063BF002240681146FFF77EBF40680022E2
:105E8000FFF772BF4068002281F00101FFF74CBFAD
:105E9000002340681A461946FFF73EBF00234068BA
:105EA0001A461946FFF730BF002240681146FFF737
:105EB00023BF002240681146FFF70EBF4068002252
:105EC0000221FFF711BF002340681A46FFF7FCBE0E
:105ED000024B03225A60024A1A6070473CE60320D4
:105EE000B09F0D000021FFF759BE0021FFF75EBEF5
:105EF00010B5044608462170FFF738FE00236360A2
:105F0000204610BD10B504460078FFF7EBFF48B9F6
:105F100020784FF6FF71FFF701FE2078BDE81040B2
:105F2000FFF7E3BF10BD13B5044600780191FFF7FA
:105F3000D9FF019940B92078FFF7F8FD207802B029
:105F4000BDE81040FFF7D1BF02B010BD13B5044645
:105F500000780191FFF7C6FF019940B92078FFF75B
:105F6000EDFD207802B0BDE81040FFF7BEBF02B0E3
:105F700010BD0000400830B5186000241868884241
:105F8000E5B206D90134082C02D040081860F5E7C4
:105F90000725024B5B5D137030BD00BFE49F0D0011
:105FA0002DE9F04188B000230446007802930E46A4
:105FB0001746FFF797FF054600BB94F8008001469F
:105FC000142203A803F0C0FC0B232A4603A9404671
:105FD000ADF80C30FFF7DAFD04988DF8075002ABEE
:105FE0000DF1070207FB06F1FFF7C4FF20789DF8CB
:105FF0000710FFF7ABFD2078FFF777FF029808B096
:10600000BDE8F08108B50078FFF7A8FDC0B208BD73
:1060100010B50446006818B1FFF7FEFE00232360A8
:1060200010BD38B5B1F9043083800B460D4653F8E6
:10603000062FC0F806209B8843810446FFF7E8FF3F
:106040002B6813B1236000232B60204638BD00006D
:1060500038B50C460546FFF7DBFF44B12088FFF753
:10606000D3FE286028B12288214603F045FC002099
:1060700038BD0148FCE700BFFCFEFFFFF0B52D4D29
:106080000B7D04468BB00846AF1D002B38D00B6843
:106090001B79002B34D00022274B049302A9043033
:1060A0000292ADF80C208DF80E20FFF703FEDDF80C
:1060B0000E30C5F8063000B2BDF81230ADF80C0055
:1060C000A8800299BB802846FFF7C2FF02A8FFF70D
:1060D0009FFF00232360A380A37123814FF6FF73EA
:1060E0006381B5F90430A3803B68C4F80630BB88EF
:1060F000296863812046FFF7ABFF20460BB0F0BD57
:1061000000262023CDE902360C4B00930C49334680
:1061100002AA3220FFF792FD074B049302A94FF623
:10612000F263044802968DF80E60ADF80C30FFF76C
:1061300078FFCBE744E603200000FFFFF39F0D004C
:10614000EC9F0D0010B5094B094C022200201A608B
:10615000084B2060A080A071A360FFF77FFD204660
:10616000054A0649BDE8104002F06EBD50E6032026
:1061700044E603200000FFFFACE0032071410D0066
:1061800010B5044603F01EFC013823182046834254
:1061900006D90278197800F8011B03F80129F6E7FF
:1061A00010BD2DE9F041931E8CB0222B4FF000035F
:1061B0000D4614468DF82C3027D900282ADA2E46B1
:1061C0002D2306F8013B40420A240DF12B074FF026
:1061D00001082246014601A803F06CFB029B0198CE
:1061E000092BCCBF3722302252FA83F307F801394A
:1061F00008F101080028ECD14246791C304603F032
:106200007BFB28460CB0BDE8F0810A2AD5D018B136
:106210002E46DAE70A24FAE730238DF82B302E4693
:106220000DF12A074FF00208E6E770B50C46911E03
:106230002229054622D820466DB1B5FBF2F602FBB5
:106240001655E9B2092D94BF30315731C9B200F863
:10625000011B3546F0E7024623443021934202D920
:1062600002F8011BFAE71A1A834238BF0022002302
:1062700083542046FFF784FF204670BD0020FCE7D2
:1062800038B5031E0C4615460EDAB3F1004F4FF039
:106290002D0214BF5842184601230A702A46194499
:1062A000FFF7C3FF204638BD0123F9E770B586B07C
:1062B000064601AD684601F091FE0FCD341D0FC4B6
:1062C0002B682370304606B070BD10B504460068D8
:1062D000FFF7A2FD204610BD10B50446006808B1C6
:1062E000FFF79AFD0023C4E90133236010BD38B5E0
:1062F00004460D4600680131FFF796FD10B1C4E970
:106300000005012038BD10B50368044623B1436879
:106310008B4201D3012010BD2046FFF7E8FF002883
:10632000F9D0A368002BF5D122681370F2E737B5D6
:106330000D46114601920446FFF7E5FF019A28B980
:106340002046FFF7C9FF204603B030BDA2602946B2
:10635000206803F0D1FA2268A3680021D154F2E743
:10636000002313B5C0E9003304468360037341B1D1
:106370000846019103F026FB019902462046FFF7EB
:10638000D6FF204602B010BD38B5054600680C4661
:1063900068B16A688B689A4207D3096803F00AFB00
:1063A000A368AB600023A36038BDFFF735FD236809
:1063B0002B6063686B60A368AB600023C4E90033A3
:1063C000F1E7884210B5044605D00B682BB18A6806
:1063D0001946FFF7ACFF204610BDFFF77DFFFAE737
:1063E000884210B5044601D0FFF7CEFF204610BD0D
:1063F000884210B5044601D0FFF7C6FF204610BD05
:1064000013B5044659B10846019103F0DBFA01992E
:1064100002462046FFF78BFF204602B010BDFFF773
:106420005BFFF9E710B504468AB00023C4E90033E6
:10643000A3602373084601A9FFF722FF01A92046A4
:10644000FFF7DEFF20460AB010BD10B504468AB043
:106450000023C4E90033A3602373084601A9FFF7B2
:10646000A0FE01A92046FFF7CBFF20460AB010BDD1
:1064700070B505460E4609B9002070BD6AB1846842
:1064800014442146FFF73FFF0028F5D02868AB6889
:106490003146184403F08EFAAC600120EDE78A68BB
:1064A0000968FFF7E5BF10B58A6809680446FFF779
:1064B000DFFF10B92046FFF70FFF204610BD13B5D0
:1064C000044629B92046FFF707FF204602B010BD59
:1064D0000846019103F076FA019902462046FFF73B
:1064E000C7FF0028EED0F0E708B582683AB921B1BD
:1064F0000878B0FA80F0400900E0012008BD00688B
:1065000009B90078F5E703F04BFAF2E710B58368B4
:10651000934207D904680968A01803F07BFA08B110
:10652000001B10BD4FF0FF30FBE70022FFF7EEBF6E
:10653000F8B59A420F461D460C4988BF13461446CB
:10654000064684BF2C461D46FFF70AFFBA68A242E2
:106550000AD33968AA4294BFC4EB0202C4EB050215
:1065600021443046FFF7E3FE3046F8BD4F9F0D0053
:1065700010B504468B68FFF7DBFF204610BD38B529
:1065800004460846A3688B4211D982B111448B425C
:1065900038BF1A1A2568991A1318A1600A1AE9183F
:1065A000284403F0B7F92268A3680021D15420469B
:1065B00038BD8268521AFFF7E2BF704770477047D4
:1065C00070470000064B994210B500F10C0405D04D
:1065D000084602F047FB002808BF0024204610BDF3
:1065E00064A10D00064B994210B500F10C0405D0D2
:1065F000084602F037FB002808BF0024204610BDE3
:1066000064A10D00064B994210B500F10C0405D0B1
:10661000084602F027FB002808BF0024204610BDD2
:1066200064A10D0010B56821044602F012FB20465B
:1066300010BD10B52821044602F00BFB204610BD0A
:1066400010B53021044602F004FB204610BDFDF7D2
:1066500026BDFDF724BDFDF722BD10B50368044635
:106660009B689847A368013BA3602BB92368204629
:10667000DB68BDE81040184710BD10B5044600683F
:1066800008B1FFF74BF9204610BD000010B5044BD0
:1066900004461868FFF74AF90123237010BD00BFB4
:1066A0005CE6032010B5044B04461868FFF746F972
:1066B0000023237010BD00BF5CE60320F0B5002569
:1066C000EC1C8C420DD86E1C445D875D974205D151
:1066D0002644B14205D31D60601CF0BD0134254441
:1066E000EEE70020F9E72DE9F34704469DF828700E
:1066F0001E46894601AB90460A46016AFFF7DEFF57
:10670000256AB31C17BB08B35F193F1A1F2F19D88E
:10671000DDF8049009F1020AA5EB0902121A00EB58
:10672000090106EB0A0092B22144204403F0F2F87A
:10673000731C04F809303246414604EB0A0003F0AA
:10674000DBF82762206A02B0BDE8F0872B441F2BDC
:10675000F8D8731C6355A81C25442062324685F87E
:1067600001904146204403F0C7F8236A3344236272
:10677000E8E70000024A00210A20FFF757BA00BFED
:1067800085570D00022A38B5044607D0032A11D0D8
:10679000012A01D10B682360002038BD08200D6854
:1067A000FDF779FC03460028F5D095E8030083E85F
:1067B0000300F0E700680028EED0082102F049FA53
:1067C000EAE7022A38B5044607D0032A11D0012A85
:1067D00001D10B682360002038BD08200D68FDF74B
:1067E0005AFC03460028F5D095E8030083E803002F
:1067F000F0E700680028EED0082102F02AFAEAE764
:1068000030B40D4611461A46036809682868D3E972
:106810000043A44630BC6047034608461B68D3E9E2
:106820000021104710B58368044613B103220146C6
:106830009847204610BD10B504465830FFF7F2FFC8
:1068400004F14800BDE81040FFF73FBDA0F1300360
:10685000DAB2092A01D818467047A0F16103052B66
:1068600001D857387047A0F14103052B94BF373842
:106870004FF0FF30704710B5002304460370FFF758
:1068800005FF204610BD10B5037804460BB1FFF795
:1068900009FF204610BD82B00346086849686A4671
:1068A00003C26A4603CA18601846596002B07047AE
:1068B00008B582798B799A4206D1062203F00EF848
:1068C000B0FA80F0400908BD0020FCE74FF0FF332C
:1068D0000360838000207047002108B5016041609B
:1068E0000246FFF7F3FF9171104608BD01220261D5
:1068F000064A11680160516841601189927A82727A
:1069000000220181C0F80B20C27370476CA10D00FA
:1069100010B50B69036101F11002034651F8044BF5
:1069200043F8044B9142F9D110BD10B50B46044613
:10693000B1B1012A01F110020AD1014653F8040B4A
:1069400041F8040B9342F9D101232361204610BD85
:10695000411E12F8010D01F8010F9A42F9D1F3E737
:10696000102202F0F1FFF1E738B5044615461A4649
:10697000FFF7DBFFA581204638BD000008B502699E
:1069800022B98089003818BF012008BD02491022B1
:1069900002F0A4FFF6E700BF8CA10D00006970476C
:1069A00038B50C4614220021054602F0CDFF2369BC
:1069B0003BB9627B2B74237B43EA02232B8028465E
:1069C00038BD01232B7404F110022B4654F8041B2C
:1069D00043F8041B9442F9D1F1E7427B007B40EA83
:1069E00002207047704708B502690B699A4206D1C8
:1069F000102202F073FFB0FA80F0400908BD0020B9
:106A0000FCE7000001232DE9F3410361324B1A68D2
:106A100002605A68426000251A899B7A0281044606
:106A20008372C0F80B50C5730E4621B32421304643
:106A300002F0E3FF042821D1ADF8045001AFB51CEA
:106A4000063615F8020CFFF701FFB0F1000810DB65
:106A500015F8010CFFF7FAFE00280ADB023540EAC0
:106A60000810AE4207F8010BEBD1BDF804305BBA59
:106A7000A3810023236102B0BDE8F0811027242107
:106A8000304602F0BAFFA84206D827440023BC4291
:106A9000F1D007F8013DFAE7002FECD0705DFFF769
:106AA000D5FE030615D40001013F5FFA80F804F813
:106AB00007802421304602F0A0FF0135A84208D902
:106AC000705DFFF7C3FE40B20028A4BF40EA080093
:106AD000E0550135D3E700BF6CA10D0013B50446A6
:106AE0000191FFF703FF20460199FFF78BFF204636
:106AF00002B010BD30B49DF8085012B9006A30BC25
:106B00007047029530BCFFF7EEBD1FB50446024644
:106B100000F11F01002302F8013B9142FBD12362E7
:106B20000093062201238DF80F2019460DF10F0264
:106B30002046FFF7DFFF204604B010BD73B50A46BC
:106B40000E4601AB016A0446FFF7B8FD054678B171
:106B50000198226A4119121A2144521B204402F062
:106B6000CBFE206A401B206231462046FFF7E6FF3D
:106B700002B070BD38B54FF6FF7300250446438060
:106B80000E22294605700571063002F0DDFE04F183
:106B90001400FFF7ABFE04F12800FFF7A7FE04493D
:106BA00004F13C00FFF7DCFB6565204638BD00BF03
:106BB0004F9F0D0010B5D0E9063203EBC20293429D
:106BC000184606D0046824888C4203F10803F6D1E5
:106BD00010BD0020FCE70000F0B5064685B01F465A
:106BE0000D46002950D0002A4ED004682378F42A9C
:106BF00028BFF42243B32379980709D5A0890392CB
:106C00000023FEF733FE0028039A03DA05B0F0BD37
:106C10006FF0770034682379D90609D5012F07D0A2
:106C2000A0890023294605B0BDE8F040FEF75ABE12
:106C30009B06EBD5022FE9D0A0890023294605B099
:106C4000BDE8F040FEF758BE60884FF6FF718842FD
:106C50001CD021794E0701D5012F04D10B0709D48F
:106C60006FF07700D2E7A189009313462A46FEF71A
:106C700011FECBE7022FF3D00023A1890093134626
:106C80002A46FEF7FDFDC1E70248BFE76FF0D100DD
:106C9000BCE700BFF2FEFFFF37B50C460546F42106
:106CA0002046019202F0A9FE019B02462146284699
:106CB00003B0BDE83040FFF78FBF00002DE9F04181
:106CC00000260660074628200C46FDF7E4F9051E5D
:106CD00005F10C080FD00123C5E90133084B2B60E7
:106CE0004046FFF703FE0FCC2E6285F8246046462F
:106CF0000FC623683360C7E900853846BDE8F081D8
:106D000034A10D0070B50025056006463020FDF762
:106D1000C2F9044688B10123C0E90133094B03607D
:106D20004FF6FF7383810E30FFF7D6FDC4E9065599
:106D3000C4E90855C4E90A55A57574600C3434607B
:106D4000304670BD50A10D0037B50D46044601A870
:106D5000FFF791FD2A6852F8023F23605368636091
:106D600001A8FFF790FD204603B030BD30B50546C1
:106D700087B00C4601A8FFF77EFD2A6823681288B9
:106D80001B889A420DD1294602A8FFF7DDFF214654
:106D900004A8FFF7D9FF04A902A8FFF789FD04465C
:106DA00000B9002401A8FFF76EFD204607B030BDF2
:106DB00010B504465420FDF76EF9014660B100237A
:106DC000C0E90033C0E90233C0E90433C0E9063347
:106DD0000362C362C363C364216019B9094A0A200C
:106DE000FEF724FF0020FEF705FD20B1054A002133
:106DF0000A20FEF71BFF216803480022FEF768FD0A
:106E0000204610BD85570D0091720D0010B50B4C3A
:106E10002378BFF35B8FDB070ED42046FDF741F9E3
:106E200050B10748FFF7C4FF2046FDF73FF9054A78
:106E30000549034801F008FF014810BD54E603204E
:106E400060E60320ACE0032051700D0030B503680C
:106E5000093B012B8DB004460D4611D8FFF7D6FF34
:106E6000A1880068FFF7A6FE034658B92022CDE9A5
:106E700004200B4A00920B4904AA3220FEF7DEFEE2
:106E80000DB030BD6A6D002AFAD0D4E9032105F1B6
:106E90004C00CDE90312AC6D04AA03A9A047EFE7AB
:106EA00041A00D001AA00D0008B50020FEF7A2FCBD
:106EB00000EAE07008BD084611B90A46FEF7AABC10
:106EC000096A0022FAE707B5084629B90A4603B05D
:106ED0005DF804EBFEF7A6BC01210190FFF72EFE42
:106EE00001980022016AF2E738B504461546FFF71B
:106EF000E2FF00280ADB29462046FFF7E4FF0028CE
:106F000004DBBDE838400020FEF794BC38BD0368C0
:106F1000D8690028D4BF00200120704738B500236D
:106F20000446836008200D46FDF7B5F818B12B68BC
:106F300003606B684360034BE360034B2060A36016
:106F4000204638BD01680D0085670D0038B5002367
:106F50000446836008200D46FDF79DF818B12B68A4
:106F600003606B684360034BE360034B2060A360E6
:106F7000204638BD19680D00C3670D000B6803601B
:106F800013B15A6801325A60704710B551F8043B8A
:106F9000044640F8043BFFF7F1FF23680BB9FFF705
:106FA000E9FB204610BD10B551F8043B044640F8FB
:106FB000043BFFF7E3FF204610BD10B551F8043B3A
:106FC000044640F8043BFFF7D9FF204610BD10B53A
:106FD0000446006828B14368013B43600BB9FFF7E2
:106FE0003CFB204610BD10B504460430FFF7EFFF10
:106FF000204610BD70B5D0E90053044605EBC3062A
:10700000AE4204D0281DFFF7E2FF0835F8E72068FC
:10701000FEF702FF204670BD70B5D0E9005304466C
:1070200005EBC306AE4204D0281DFFF7D0FF08359C
:10703000F8E72068FEF7F0FE204670BD10B5044664
:107040002430FFF7E9FF04F11800FFF7D3FF10BD6C
:10705000F8B50468064624B304F14400FFF7E2FBE8
:1070600004F13400FFF7DEFB04F12400FFF7DAFB44
:10707000D4E9065305EBC307AF4204D0281DFFF740
:10708000A6FF0835F8E7A069FEF7C6FE04F10C007C
:10709000FFF7C2FF2046FFF7ADFF5421204601F065
:1070A000D8FD3046F8BD826810B50AB901F0D7FDA9
:1070B000BDE81040C368184770B5D0E900530446D6
:1070C00005EBC306AE4204D0281DFFF780FF08354C
:1070D000F8E70023636070BD13B504460020FEF797
:1070E00091FB00280ADB01A8FFF7C5FB20681830D8
:1070F000FFF7E2FF01A8FFF7C6FB002002B010BDBA
:107100008842F8B504460D46164614D9904213D26B
:10711000A2F10806751AA1F108072C44B74218D04D
:107120001CB131462046FFF748FF301DFFF74FFFE7
:10713000083E083CF2E70CD0B5420AD01CB1294603
:107140002046FFF73AFF281DFFF741FF08350834B6
:10715000F2E7F8BD2DE9F041D0E900430546884645
:1071600004EBC307A74203D100263046BDE8F081F7
:1071700041462046FFF7FAFD064608B90834F1E714
:10718000002CF1D0201DFFF722FFD5E9003204F1D9
:10719000080103EBC2022046FFF7B2FF6B68013B18
:1071A0006B60E2E7F0B507468BB06846FFF763FB1C
:1071B0003B68D3E9064504EBC505AC422BD024223D
:1071C000002101A802F0C0FB23680022188801A951
:1071D000FEF76AFB064608B10834EEE79DF8083072
:1071E000012BF9D16846FFF75DFA2368314618880C
:1071F000FEF728FB051E08DB6846FFF747FA3868EC
:1072000021461830FFF7A6FF35466846FFF73BFBDF
:1072100028460BB0F0BD6FF0A905F6E7F7B50446B8
:1072200046686846FFF7C9FED4E901739F4212DB46
:107230000137002F29DDF800FEF7E6FD0546F0B125
:10724000D4E9001201EBC202FFF75AFF2068FEF7F3
:10725000E3FD2560A7602368626803EBC60603EBC5
:10726000C202314606F10800FFF74AFF1EB1694627
:107270003046FFF7A2FE636801336360012501A871
:10728000FFF7A5FE284603B0F0BD0025DEE70000AD
:107290002DE9F04105468EB003A80C46FFF7EBFA46
:1072A0002E68042E6BD007D8032E28D003A8FFF732
:1072B000EAFA0EB0BDE8F081A6F10C03032BF5D875
:1072C000A9892046FFF776FC07460028EED0E36C3C
:1072D000002BEBD01022002107A802F035FB0D2E69
:1072E00006978DF81C6040F092806B680993062326
:1072F0000893236D06A904F144009847D6E704A833
:10730000FFF700FD049BAA891A8069680498083178
:107310000230FFF7C0FA04A906A8FFF74EFE06A93F
:1073200004F11800FFF77AFF054607A8FFF74FFEA4
:10733000202306938DB93E4B3E49009332202B46C5
:1073400006AA0795FEF77AFC049B29461888FEF7E3
:1073500079FA05A8FFF73BFEA8E7374A0092002319
:107360003449079306AA0120FEF768FCE36A002B64
:10737000EFD004A904F12400FFF795FEE9E7A989FD
:107380002046FFF717FC064600288FD00568D5E990
:1073900006314FF6FF722A8003EBC101994203D0F8
:1073A00053F8080B4280F9E7D5E9037307EBC308EC
:1073B000B84504D0381DFFF70AFE0837F8E7002368
:1073C0002B61D5E9067307EBC308B84504D0381D17
:1073D000FFF7FDFD0837F8E70023EB61AB72E36BC5
:1073E00023B1314604F13400FFF75DFE0023202273
:1073F000CDE90623114A00920E4906AA0120FEF7A4
:107400001DFC314604F11800FFF7A4FE4EE70F2ED5
:107410007FF46FAF6B6809932B7A03F00102C3F31B
:1074200040038DF829308DF82820082360E700BF3D
:1074300059A00D001AA00D007FA00D009CA00D000A
:1074400013B500230446D1E90002C1E900332368E3
:10745000009320606368626001A80193FFF7B7FDA5
:10746000204602B010BD13B50B460246D0E900011C
:107470006C4684E8030093E8030082E8030094E884
:10748000030083E8030002B010BD38B505460C4682
:10749000FFF7E9FFAB68A268AA60A360EB68E26847
:1074A000EA60E36038BD1FB500230446084669461C
:1074B0000293FFF7EAFF21466846FFF7E6FF6846BA
:1074C000FFF7B0F9204604B010BD70B50E4688B085
:1074D000044601921D46FFF74DFB33780199237155
:1074E00004F13C00FEF78CFF04F14C0685B10C9BC7
:1074F000029502A904A80393FFF710FD04A93046E2
:10750000FFF7D1FF04A8FFF78DF9204608B070BD42
:107510000695F3E72DE9F04786B007461D4668203B
:107520000023894692460493FCF7B5FD061E06F13A
:107530000C081DD001233446C6E90133154B44F82D
:10754000203B9AF800308DF80C30109B00934A468F
:107550000F9B03A94046FFF7B8FF0FCD0FC42B6860
:107560000E9D23600FCD06F134040FC42B682360F9
:1075700004A93846CDE90486FFF762FF05A8FFF7A6
:1075800026FD396819B9044A0A20FEF74FFB06B0F8
:10759000BDE8F08718A10D0085570D0038B50546E8
:1075A0000C46FFF760FFAB68A268AA60A360EB68B7
:1075B000E268EA60E36038BD1FB500230446084670
:1075C00069460293FFF7EAFF21466846FFF7E6FFA8
:1075D0006846FFF727F9204604B010BD10B50468CF
:1075E00086B0243471B1CDE9001202A86946FFF7D4
:1075F000ADFC02A92046FFF7DFFF02A8FFF712F952
:1076000006B010BD0491F4E710B5046886B03434B8
:1076100071B1CDE9001202A86946FFF797FC02A9F3
:107620002046FFF7C9FF02A8FFF7FCF806B010BD1F
:107630000491F4E78842F8B504460D46164614D97D
:10764000904213D2A2F10806751AA1F108072C4442
:10765000B74218D01CB131462046FFF7A4FC301DBC
:10766000FFF7B5FC083E083CF2E70CD0B5420AD063
:107670001CB129462046FFF796FC281DFFF7A7FC02
:1076800008350834F2E7F8BD70B50E1E054611DD69
:10769000F000FEF7B9FB044658B1D5E9001201EB42
:1076A000C202FFF7C7FF2868FEF7B6FB2C60AE608A
:1076B000012070BD0024F6E773B5044645686846AE
:1076C000FFF771FCD4E90113994210DA236862686C
:1076D00003EBC50503EBC202294605F10800FFF7DD
:1076E000A9FF8DB9636801336360012606E00131AB
:1076F0002046FFF7C9FF06460028E7D101A8FFF79B
:1077000066FC304602B070BD69462846FFF74BFC68
:10771000E8E78842F8B504460D46164614D990426B
:1077200013D2A2F10806751AA1F108072C44B7423A
:1077300018D01CB131462046FFF727FC301DFFF75B
:1077400046FC083E083CF2E70CD0B5420AD01CB11A
:1077500029462046FFF719FC281DFFF738FC08359D
:107760000834F2E7F8BD70B50E1E054611DDF000D5
:10777000FEF74AFB044658B1D5E9001201EBC202FC
:10778000FFF7C7FF2868FEF747FB2C60AE600120BB
:1077900070BD0024F6E773B5044645686846FFF7F8
:1077A000F4FBD4E90113994210DA2368626803EB11
:1077B000C50503EBC202294605F10800FFF7A9FF42
:1077C0008DB9636801336360012606E0013120460C
:1077D000FFF7C9FF06460028E7D101A8FFF7F7FB2E
:1077E000304602B070BD69462846FFF7CEFBE8E799
:1077F0002DE9F04F1746A1B080460AA80E46FFF7C4
:107800003AF83C68237953B939464046FFF7BDFB47
:107810000AA8FFF738F8404621B0BDE8F08F33687A
:10782000D3E9035305EBC303039304F1280A04F1DE
:10783000140B039B9D4221D0D5F80090584609F1C6
:107840001401FFF7D0F8B8B109F128015046FFF74D
:10785000CAF888B12368D9F80020534033F47F4335
:107860000AD12022CDE915235E4A009215AA5E496D
:107870003220FEF7E3F9C7E70835DAE75046FFF7AD
:107880007DF860B95949012215A815ADFFF74DF8EB
:107890000FCDD446ACE80F002B68CCF8003033682D
:1078A000D3E9005305EBC30B5D45A94651466ED0A5
:1078B00055F8080BFFF797F80028F5D004F1140AE3
:1078C0005046FFF75BF888B9494B48491A8801329E
:1078D00092B21A8015A8012315ADFFF745F80FCD18
:1078E000D446ACE80F002B68CCF8003028220021E9
:1078F00016A802F029F83F4B1593514604A8FFF74C
:107900004FF804AB18AA0DF1200C186859681546F9
:1079100003C5083363452A46F7D1186828602379E0
:107920008DF85830D9F800309B8AADF87430E36B8D
:107930001793314B0022A11D15A8CDE91E34FDF788
:10794000BDFF00287FF460AF0123237034683946FF
:107950000C340DA8FFF719FB20460DA9FFF71BFFFC
:1079600004460EA8FFF733FB002C7FF44DAF202315
:10797000CDE90D34214B00930DAA234677E7394614
:107980004046FFF702FB0CA8FFF721FB40E70BA8DE
:10799000FFF794F9514615A8FFF702F80B9A002358
:1079A000143215A90120FDF757FF0028E7D13568EB
:1079B0000BA90DA8FFF7F7FA28460DA9FFF77CFEE3
:1079C00005460EA8FFF703FB002DD8D03268536898
:1079D000126803F10053013B0CA802EBC309FFF747
:1079E000F6FA6BE7BBA00D001AA00D007CA10D00FC
:1079F00058E6032001002C004D6E0D00E6A00D009E
:107A000010B5064C002320462360FDF77FFF20467B
:107A1000034A0449BDE8104001F016B95CE60320B2
:107A2000ACE003207B660D00F8B506460D468F18C6
:107A30000024BD420CD0336815F8011B9B6830460A
:107A40009847031E01DB1C44F3E7002C08BF1C46CB
:107A50002046F8BD13B50446084659B1019101F01E
:107A6000B1FF23680199DB680246204602B0BDE8F9
:107A70001040184702B010BD08B5FFF7EBFF08BD76
:107A800003689B6818470A680B4612680146184647
:107A9000104738B50D210546FFF7F2FF0A210446CD
:107AA0002846FFF7EDFF204438BD38B50546FFF7FF
:107AB000D1FF04462846FFF7ECFF204438BD30B51F
:107AC0008BB000238DF82430012A98BF0A2209AC1C
:107AD0000D46B1FBF2F101FB125303F0FF03092B3A
:107AE00094BF30333733DBB2AA4204F8013DEFD9FB
:107AF0002146FFF7AFFF0BB030BD00002DE9F74F77
:107B000055EC104B06460F4610EE102A10EE100AE8
:107B10002B46294601F00EFE40B153493046FFF78F
:107B200099FF8246504603B0BDE8F08F25F000492A
:107B30004E4B4FF0FF322046494601F0FBFD48B95D
:107B40004A4B4FF0FF322046494601F0D5FD08B9B7
:107B50004749E3E7474B4FF060422046294601F092
:107B6000DFFD08B14449D9E7444B4FF0604220465D
:107B7000294601F0B7FD0028F4D100220023204659
:107B8000294601F0AFFDD0B12D213046FFF778FF37
:107B900005F1004382461D463949DFF8EC904FF06D
:107BA000000B00204FF000085FFA8BF39F4208D9CA
:107BB00042464B4601F04EFC0BF1010BF4E78246C6
:107BC000EAE722462B4601F065F90D46044601F02E
:107BD000EFFD804601F09AFA02460B462046294600
:107BE00001F056F90A2204460D4630464146FFF799
:107BF00066FF824427B123493046FFF72BFF8244BA
:107C0000DFF884904FF00008013FFFB2FF2F89D0CA
:107C100042464B462046294601F0F2FA04460D46FC
:107C200001F09EFDB0F1000B1ADA2D213046FFF76E
:107C300027FFCBF1000103460A2230460193FFF7EC
:107C40003EFF019B18448244584601F06FFA0246F9
:107C50000B462046294601F01BF904460D46D3E7A2
:107C600059460023E8E700BF9CA10D00FFFFEF7F0E
:107C7000A0A10D00FFFFEF41A4A10D00FFFFEFC188
:107C80000000E03F2F9F0D000000244038B5C9B22E
:107C90000546FFF733FF04462846FFF7FAFE204467
:107CA00038BD38B5044610EE100A0D4601F050FA02
:107CB00041EC100B29462046BDE83840FFF7E6BFEF
:107CC000002340681A461946FEF71EB8014B024AC7
:107CD0001A60704764E60320A8A10D0008B50020D3
:107CE000FEF77AF828B1FEF76FF880F00100C0B215
:107CF00008BD0120FCE710B50020FDF76BFD044630
:107D0000A0B9FDF7A3FF012810D12046FDF7B6FF6B
:107D100060B9FFF7E3FF10B9FEF746F8F9E7FFF7A0
:107D2000DDFFBDE810400020FDF754BD204610BD2A
:107D30001FB5FFF7E0FF10220021684601F004FEA6
:107D400000216846FDF74EFD009805B05DF804FB84
:107D5000024B1A68024B1A60704700BF44E00320D0
:107D600068E603200021FDF781BF10B50446FEF749
:107D700059FD204610BD00000348044A0449002371
:107D8000836000F061BF00BF6CE60320ACE003201D
:107D90006B7D0D00014B1860704700BF48E0032069
:107DA00008B50B4B43B100F085F903681B69984790
:107DB000002801DDAFF30080064B43B100F0F8F975
:107DC00003681B699847002801DDAFF3008008BDF8
:107DD000000000000000000008B5FFF7E1FFFDF71C
:107DE000D9FC014B186008BDCCE703200248034AC8
:107DF0000349121A01F080BD00F4032004F40320AB
:107E000070A50D0007B5002300931A466FF07701A7
:107E1000FDF746FF03B05DF804FB000007B543889B
:107E20000A2B08D0502B0BD1094B1B684BB103B068
:107E30005DF804EB1847FFF7E5FF03B05DF804FBBE
:107E4000002300931A466FF07701FDF729FFF4E74E
:107E500080E6032038B5124C1248134D0021FDF77F
:107E6000FBFF2368AB42114B0CBF012200221A70AA
:107E700002D0FFF7BBFF2560FDF77CFC044601F054
:107E80006BFD0B4B13B12046AFF300800021084877
:107E9000FDF7AAFFBDE8384006480021FDF7F6BE11
:107EA00000F40320957D0D001E1C279A7CE603201C
:107EB000000000001D7E0D0007B50823ADF800305E
:107EC00003688DF80230037A8DF80330002143688F
:107ED00001936846FDF790FF03B05DF804FB70471F
:107EE00010B51821044600F0B4FE204610BDF0B5D0
:107EF000037D062B8DB00E4600F104074FF0000401
:107F000012D000F1080515F8011D0A223046FFF7CE
:107F1000D6FDAF42044419D0002CF4D02E213046B7
:107F2000FFF7AEFD0444EEE72F236A4639460A20E8
:107F30008DF80040FDF70AFD684601F043FD336807
:107F40000246DB68694630469847044620460DB035
:107F5000F0BD000010B5054B0446112240F8043B6B
:107F6000002101F0F1FC204610BD00BFD0A10D00A2
:107F70000346074A10B543F8042B01F1100251F8EB
:107F8000044B43F8044B9142F9D10A781A7010BDA2
:107F9000D0A10D00037D042B04D14068003818BF28
:107FA00001207047062B07D143683BB983682BB982
:107FB000C3681BB90069F1E70020704701207047D2
:107FC00010B59DF8084044EA032343EA024242EA1E
:107FD000016104234160037510BD000013B5054B1A
:107FE0000360CB7800938B784A780978FFF7E8FF35
:107FF00002B010BDD0A10D0041747047704708B5A4
:108000000021007CFDF7FAFD40EAE07008BD08B5EC
:108010000121007CFDF7F2FD40EAE07008BD08B5E3
:10802000007CFDF7E3FD20EAE07008BD08B5007CA8
:10803000FDF7D4FD20EAE07008BD13B50446007CCE
:108040000191FDF7D3FD0028019901DC607C20B18E
:10805000207CFDF7DBFD20EAE07002B010BD007C63
:10806000FDF7DCBD10B51421044600F0F2FD2046FA
:1080700010BD000010B54FF47A7304460846002185
:10808000C4E90113044B2360012320746374114677
:10809000FDF794FD204610BDE4A10D00007C0022F8
:1080A000FDF794BD10B514220446002101F04CFCEC
:1080B000204610BD10B5104C88B003A8FFF7F2FFA2
:1080C0002178BFF35B8F11F0010111D1204601919E
:1080D000FBF7E7FF019958B103AA0848FFF7CAFF69
:1080E0002046FBF7E3FF064A0649044800F0ACFDD2
:1080F000024808B010BD00BF84E6032088E60320D4
:10810000ACE00320FD7F0D0070474174704708B557
:10811000007CFDF76BFC20EAE07008BD08B5007C30
:10812000FDF73CFC20EAE07008BD08B5007CFDF7D7
:1081300045FC40EAE07008BD08B5007CFDF736FC60
:1081400040EAE07008BD007CFDF740BC37B5457CD7
:1081500004462DB1207C03B0BDE83040FDF716BCCD
:10816000007C0191FDF742FC00280199F2DC2846D1
:1081700003B030BD10B51421044600F06AFD20465E
:1081800010BD000010B54FF0000C04460846114623
:108190004FF47A72C4E901C2044A226001222074B9
:1081A00062741A46FDF7EAFB204610BD14A20D00CA
:1081B00013B50E4C2178BFF35B8F11F0010112D182
:1081C00020460191FBF76DFF019960B1084A094B08
:1081D0000948FFF7D7FF2046FBF768FF074A084921
:1081E000054800F031FD044802B010BD9CE60320B4
:1081F000A0E6032024E70320A8E70320ACE0032047
:1082000009810D007047F8B5064615460C468F18D3
:10821000BC4206D0336814F8011B9B68304698476F
:10822000F6E72846F8BD007C0022FDF707BC007C7D
:108230000021FDF70BBC007C0021FDF70FBC007C8A
:108240000021FDF713BC007C0021FDF717BC10B521
:108250001421044600F0FDFC204610BD10B54FF47B
:108260007A73044608460021C4E90113034B2360D6
:1082700020741146FDF712FC204610BD44A20D00EB
:108280000023007C1A461946FDF7B8BB007C00218C
:10829000FDF7BCBB7FB500221423CDE90122ADF868
:1082A00004300B788DF808304B680393CB68049347
:1082B000007C0B7A059301A9FDF7F8FB07B05DF888
:1082C00004FB1FB5003B8DF800104FF064010391D3
:1082D00018BF0123694601928DF80830FFF7DAFFD5
:1082E00005B05DF804FB0123FFF7EBBF007C002223
:1082F000FDF794BBC9B2FFF7F9BF007C0022FDF780
:1083000095BB0121FFF7F9BF13B503688DF807107E
:10831000DC6B01224FF0FF330DF10701A04702B0E3
:1083200010BD10B40368DC6B4FF0FF33A4465DF85A
:10833000044B604713B5134602688DF80710D46BE1
:108340000DF107010122A04702B010BD704738B5FA
:1083500043691A68002A054610DAB3F88620B3F894
:1083600084309A420AD103681B699847044628B9A9
:108370002B682846DB6A9847204638BD0120FCE779
:1083800043691868C043C00F70477047064B994255
:1083900010B500F10C0405D0084600F063FC00287D
:1083A00008BF0024204610BD64A10D0010B5AC210B
:1083B000044600F04EFC204610BDFBF770BE2DE9D0
:1083C000F0414FF0000886B01D46C0F80480044616
:1083D0000E4617464146102202A801F0B5FA6B1C62
:1083E00009D04FF47A70B5FBF0F3CDE9023800FB09
:1083F000135358430490606910230093006802AB44
:1084000041F2050240F6FF71FDF758FB002807DA3C
:10841000FDF71AFD03686360002006B0BDE8F08137
:108420006069002300683A463146FDF767FB031E8A
:10843000EEDB1846F1E7000038B584690A4B0360AB
:1084400005467CB16368013B63605BB923682046E5
:108450009B689847A368013BA3601BB9236820462B
:10846000DB689847284638BD98A20D0010B5044631
:10847000FFF7E2FF20461C2100F0EBFB204610BD79
:1084800070B54D69054B04468C3544F8043B0646EF
:108490000FCD0FC42B682370304670BDD0A10D00E6
:1084A00010B54369B3F88620B3F884309A42044685
:1084B00005D06369B3F884201344187910BD0368AC
:1084C0001B6998470028F4D14FF0FF30F6E710B54C
:1084D0004369B3F88620B3F884309A42044608D042
:1084E0006369B3F88420511CA3F8841013441879ED
:1084F00010BD03681B6998470028F1D14FF0FF3089
:10850000F6E7F8B543691746B3F88620B3F8843028
:108510009A4205460E4616D06969B1F88430B1F822
:108520008640E41ABC4228BF3C4604332246194424
:10853000304601F0E1F96A69B2F884302344A2F8C8
:1085400084302046F8BD03681B6998470028E3D1B2
:108550004FF0FF34F5E742690023A2F88430426906
:10856000A2F8863070472DE9F0411F4603680C469B
:10857000DB6A8AB0054616469847237DD5F81480F5
:10858000042B0CBF02200A2006220121FDF7BEFAAF
:10859000C8F800006B691B68002B08DA2B682846B6
:1085A000DB6A0024984720460AB0BDE8F0812846DF
:1085B000FFF7D1FFB7B1002303A9F8B20393ADF8D9
:1085C0001030FDF7CFF80028E8D168690623009342
:1085D000006803AB41F20B0240F6FF71FDF76EFA43
:1085E0000028DBD11C22002103A801F0ADF9237D76
:1085F000042B1DD14FF407733046ADF80C30FDF756
:10860000B5F9ADF80E006068FDF7A8F904906B6944
:108610001C22186803A9FDF761FA0028BED10434B2
:108620000FCC6D698C350FC523682B700124BAE718
:1086300040F61C233046ADF80C30FDF797F905AE37
:10864000ADF80E00231D04F114071868596832466E
:1086500003C20833BB421646F7D1D8E730B54269AA
:10866000B2F886308BB004462BB1B2F884209A421F
:1086700001D1FFF770FF61690868002818DBB1F8C5
:1086800086507F2D14D804310823C5F18002294477
:10869000FDF72CFA002813DD6369B3F886200AB9C8
:1086A000A3F884206369B3F886201044A3F88600F9
:1086B0006369B3F88600B3F88430C01A0BB030BDDC
:1086C000FDF7C2FB03680B2BF2D0FDF7BDFB03687F
:1086D0000B2BEDD020230025CDE90235FDF7B4FBAF
:1086E00003680193084B0949009302AA2B463220E4
:1086F000FDF7A4FA63691868FDF7E8F963694FF0BC
:10870000FF321A60D4E700BF64A20D00EC9F0D0099
:1087100010B5436904461868002801DBFDF7D6F957
:1087200063694FF0FF321A606069112200218C30BA
:1087300001F00AF92046BDE81040FFF70CBF10B564
:10874000002304460160C0F884308830FFF702FC43
:10875000204610BD73B500234FF47A72C0E9013290
:108760000E4A0361026043610446AC200191FBF7AD
:1087700092FC051E05F10C0608D00123C5E9013362
:10878000074B01992B603046FFF7D9FF2046C4E91B
:108790000565FFF7E0FE02B070BD00BF98A20D00B6
:1087A0007CA20D0010B54FF0FF310446FFF7D2FF59
:1087B000204610BD10B504460068002801DBFDF717
:1087C00085F9204610BD0C30FFF7F4BF2DE9F043CA
:1087D0009846036893B00D460024DB6A06461746A8
:1087E000984728466B46224621460094FCF792FFA4
:1087F0000546002863D1009B002B4BD05B69002B02
:1088000048D006A8FFF7A6FB009B5C696378022BA3
:1088100004D1211D06A8FDF749FD26E00A2B24D12D
:108820001122294601A801F08FF8A368002B38D047
:1088300004F108030DF1040C1834186859686246F5
:1088400003C20833A3429446F7D1062301A90CA81A
:108850008DF81430FFF78CFB0DF1340CBCE80F00E1
:1088600007AC0FC4DCF80030237006A8FFF792FBBA
:1088700080B1336807ADD3F82090124B0C930FCD25
:108880000DAC0FC42B6823703A4643460CA9304602
:10889000C84705460098FCF735FF284613B0BDE8E9
:1088A000F083E368002BC3D14FF6FF70D4F810902B
:1088B000FDF754F88145BBD104F11401AAE7254620
:1088C000E8E700BFD0A10D00002240681146FDF787
:1088D00013BA002240681146FDF72EBA0022406804
:1088E0001146FDF749BA40680022FDF73DBA4068DD
:1088F000002281F00101FDF717BA002340681A46F3
:108900001946FDF709BA002240681146FDF7E4B99F
:10891000406800220221FDF7E7B9002340681A46AB
:10892000FDF7D2B9024B04225A60024A1A6070471E
:10893000BCE70320E4A20D00002340681A46FDF7BF
:10894000C3B9406800220221FDF7CEB90022406879
:108950001146FDF7C1B9002240681146FDF7CCB9B8
:10896000002340681A461946FDF7CEB90023406837
:108970001A461946FDF7D0B940680021FDF704BA40
:1089800040680021FDF708BA4068002281F001012B
:10899000FDF7CAB940680022FDF7E6B90022406839
:1089A0001146FDF7E9B9002240681146FDF7C4B948
:1089B0002DE9F043002495B016460D460746FFF713
:1089C000C9FA214618220EA8009400F0BDFF4023EA
:1089D000CDE90C3421466B460CAA3046FCF79AFED2
:1089E000044600284CD1024601216868FDF784F94D
:1089F0000221804622466868FDF77EF9009E814686
:108A00002146002E3CD000293AD17368022B03D0B6
:108A10000A2B11D0F669F4E7B8F1000F0AD071699A
:108A200006A8043107ADFFF7D9FA0FCD3C1D0FC4DE
:108A30002B6823704146EDE7B9F1000F01D149469B
:108A4000E8E77469102201A800F07EFF06238DF884
:108A5000143001AD04F108031834186859682A4627
:108A600003C20833A3421546F7D101A906A807ADF2
:108A7000FFF77EFA0FCD3C1D0FC42B682370DEE795
:108A80000098FCF73FFE384615B0BDE8F0830000C3
:108A9000024B034A1A6000225A607047C4E7032061
:108AA00020A30D00232813B502D9002002B010BD69
:108AB000A0F10B03022B1AD8174C2178BFF35B8F60
:108AC00011F001010BD120460191FBF7EAFA01995F
:108AD00028B11248FDF70CFA2046FBF7E7FA0F4BD6
:108AE0001878FDF74BF80028DFD10120DEE70128D8
:108AF00009D800F081F80021007CFCF7C7FF80F066
:108B00000100C0B2D2E709380128EED8FFF750FBC8
:108B1000007CFCF763FFF2E730E6032034E6032035
:108B2000232838B504460D460AD8FF2908D0FFF798
:108B3000B9FF28B129462046BDE83840FCF7F2BD10
:108B400038BD38B504460D46FCF7F4FDFF2810D0BB
:108B5000062804D84D2323FA00F0C30709D4204681
:108B6000FFF7A0FF28B129462046BDE83840FCF7B2
:108B7000E9BD38BD10B50446FCF7DCFD031FDBB2D0
:108B8000012B08D92046FFF78DFF20B12046BDE814
:108B90001040FCF7DFBD002010BD000010B5084CF0
:108BA0002378BFF35B8FDB0708D42046FBF779FA05
:108BB00020B1FCF7F7FD2046FBF778FA014810BD1D
:108BC000D0E70320D4E7032038B5002320254380D5
:108BD000142304460380856005610649284600F099
:108BE0003CF804496060284600F037F8E060204611
:108BF00038BD00BF54A30D0030B50F4D2978BFF329
:108C00005B8F11F0010487B013D12846FBF749FAB6
:108C100078B101A8FFF7D8FF01AA21460748FFF75E
:108C20001DFB2846FBF742FA054A0649034800F0B7
:108C30000BF8024807B030BDD8E70320DCE703207B
:108C4000ACE0032005820D000B460146184600F0FB
:108C500023BEFBF724BAFBF71EBAFBF71EBA08B512
:108C6000FDF7EAF8014900F0F9B800BF70A30D0064
:108C70007FB500241023CDE90234036800949E6977
:108C80008DF8044015466B461268B0479DF80430D5
:108C900003F00603062B03BF009B2B600120204638
:108CA00004B070BD0098904214BF012006207047A8
:108CB00010B5034B0360044600F0CDF8204610BD0C
:108CC000B0A30D0010B50446FFF7F2FF20460821BF
:108CD000FFF7BFFF204610BD2DE9F0411F46DDE93B
:108CE0000834DDF8188098450646154607D10799DF
:108CF00000F0B4F818B165710020BDE8F081394684
:108D0000304600F0ABF80028F6D00123C4F800800C
:108D10002571A371F0E738B515461C4600F09EF8A2
:108D200020B10823E36006232560237138BD73B5A5
:108D300005460C4601921E4600F090F850B9032EED
:108D400008D82368019A5B692946204602B0BDE82D
:108D50007040184702B070BD10B5034B0360044665
:108D6000FFF7A6FF204610BD10A40D0010B5044665
:108D7000FFF7F2FF20460C21FFF76BFF204610BDE6
:108D8000F7B5089F974205460E4614460AD0A868D4
:108D900002680897156A31462246AC4603B0BDE822
:108DA000F04060471946019300F058F8019B0028F5
:108DB000EDD0062003B0F0BD2DE9F14F0D46194668
:108DC000DDE90A4BDDE90CA681461746984600F01E
:108DD00045F890B1002D3460377109DB61198A457F
:108DE0000CBF06210121B171002001B0BDE8F08F58
:108DF0000235F9D10123B371F6E7544506D159463E
:108E0000484600F02BF808B17771EDE7D9F8080073
:108E10000368CDE90CA6CDE90A4BDC693A46434626
:108E20002946A44601B0BDE8F04F60472DE9F04166
:108E300007460C4615461E46FFF76DFF48B9B86851
:108E400003689F692A4633462146BC46BDE8F04187
:108E50006047BDE8F081704700207047814208B547
:108E60000ED0406803782A2B0CD049680B782A2B47
:108E700008BF013100F094FDB0FA80F0400908BD50
:108E80000120FCE70020FAE781F0004102E000BF8A
:108E900083F0004330B54FEA41044FEA430594EABA
:108EA000050F08BF90EA020F1FBF54EA000C55EAF5
:108EB000020C7FEA645C7FEA655C00F0E2804FEAC6
:108EC0005454D4EB5555B8BF6D420CDD2C4480EAA8
:108ED000020281EA030382EA000083EA010180EAD8
:108EE000020281EA0303362D88BF30BD11F0004F26
:108EF0004FEA01314FF4801C4CEA113102D040425C
:108F000061EB410113F0004F4FEA03334CEA133396
:108F100002D0524263EB430394EA050F00F0A780AE
:108F2000A4F10104D5F1200E0DDB02FA0EFC22FAA9
:108F300005F2801841F1000103FA0EF2801843FA9D
:108F400005F359410EE0A5F120050EF1200E012A8E
:108F500003FA0EFC28BF4CF0020C43FA05F3C018CC
:108F600051EBE37101F0004507D54FF0000EDCF145
:108F7000000C7EEB00006EEB0101B1F5801F1BD3EE
:108F8000B1F5001F0CD349085FEA30004FEA3C0CF2
:108F900004F101044FEA445212F5800F80F09A80E8
:108FA000BCF1004F08BF5FEA500C50F1000041EBEC
:108FB000045141EA050130BD5FEA4C0C404141EBF0
:108FC0000101013C28BFB1F5801FE9D291F0000FEB
:108FD00004BF01460020B1FA81F308BF2033A3F19A
:108FE0000B03B3F120020CDA0C3208DD02F1140C91
:108FF000C2F10C0201FA0CF021FA02F10CE002F1CC
:109000001402D8BFC2F1200C01FA02F120FA0CFCC4
:10901000DCBF41EA0C019040E41AA2BF01EB04510D
:10902000294330BD6FEA04041F3C1CDA0C340EDC0B
:1090300004F11404C4F1200220FA04F001FA02F34E
:1090400040EA030021FA04F345EA030130BDC4F10C
:109050000C04C4F1200220FA02F001FA04F340EA01
:109060000300294630BD21FA04F0294630BD94F0B2
:10907000000F83F4801306BF81F480110134013D99
:109080004EE77FEA645C18BF7FEA655C29D094EA0A
:10909000050F08BF90EA020F05D054EA000C04BF88
:1090A0001946104630BD91EA030F1EBF0021002073
:1090B00030BD5FEA545C05D14000494128BF41F012
:1090C000004130BD14F580043CBF01F5801130BD76
:1090D00001F0004545F0FE4141F470014FF0000001
:1090E00030BD7FEA645C1ABF194610467FEA655CB2
:1090F0001CBF0B46024650EA013406BF52EA033554
:1091000091EA030F41F4002130BD00BF90F0000F41
:1091100004BF0021704730B54FF4806404F132047D
:109120004FF000054FF0000150E700BF90F0000F36
:1091300004BF0021704730B54FF4806404F132045D
:1091400010F0004548BF40424FF000013EE700BF2D
:1091500042004FEAE2014FEA31014FEA02701FBFBD
:1091600012F07F4393F07F4F81F06051704732F0EF
:109170007F4208BF704793F07F4F04BF41F4002146
:10918000704730B54FF4607401F0004521F00041A4
:109190001CE700BF50EA010208BF704730B54FF02E
:1091A00000050AE050EA010208BF704730B511F02F
:1091B000004502D5404261EB41014FF4806404F167
:1091C00032045FEA915C3FF4D8AE4FF003025FEAED
:1091D000DC0C18BF03325FEADC0C18BF033202EB71
:1091E000DC02C2F1200300FA03FC20FA02F001FACB
:1091F00003FE40EA0E0021FA02F11444BDE600BF6E
:1092000070B54FF0FF0C4CF4E06C1CEA11541DBF1C
:109210001CEA135594EA0C0F95EA0C0F00F0DEF8E7
:109220002C4481EA030621EA4C5123EA4C5350EACC
:10923000013518BF52EA033541F4801143F480131D
:1092400038D0A0FB02CE4FF00005E1FB02E506F0AE
:109250000042E0FB03E54FF00006E1FB03569CF003
:10926000000F18BF4EF0010EA4F1FF04B6F5007F09
:1092700064F5407404D25FEA4E0E6D4146EB06067B
:1092800042EAC62141EA55514FEAC52040EA5E5004
:109290004FEACE2EB4F1FD0C88BFBCF5E06F1ED8AE
:1092A000BEF1004F08BF5FEA500E50F1000041EBE5
:1092B000045170BD06F0004646EA010140EA020092
:1092C00081EA0301B4EB5C04C2BFD4EB0C0541EAB4
:1092D000045170BD41F480114FF0000E013C00F3C9
:1092E000AB8014F1360FDEBF002001F0004170BDED
:1092F000C4F10004203C35DA0C341BDC04F1140406
:10930000C4F1200500FA05F320FA04F001FA05F291
:1093100040EA020001F0004221F0004110EBD3705E
:1093200021FA04F642EB06015EEA430E08BF20EA8A
:10933000D37070BDC4F10C04C4F1200500FA04F32D
:1093400020FA05F001FA04F240EA020001F00041BF
:1093500010EBD37041F100015EEA430E08BF20EA32
:10936000D37070BDC4F1200500FA05F24EEA020E7A
:1093700020FA04F301FA05F243EA020321FA04F0A9
:1093800001F0004121FA04F220EA020000EBD37060
:109390005EEA430E08BF20EAD37070BD94F0000F60
:1093A0000FD101F00046400041EB010111F4801F94
:1093B00008BF013CF7D041EA060195F0000F18BF45
:1093C000704703F00046520043EB030313F4801F81
:1093D00008BF013DF7D043EA0603704794EA0C0F3B
:1093E0000CEA135518BF95EA0C0F0CD050EA410651
:1093F00018BF52EA4306D1D181EA030101F00041CE
:109400004FF0000070BD50EA410606BF10461946F5
:1094100052EA430619D094EA0C0F02D150EA013601
:1094200013D195EA0C0F05D152EA03361CBF104642
:1094300019460AD181EA030101F0004141F0FE41E1
:1094400041F470014FF0000070BD41F0FE4141F465
:10945000780170BD70B54FF0FF0C4CF4E06C1CEA65
:1094600011541DBF1CEA135594EA0C0F95EA0C0F1A
:1094700000F0A7F8A4EB050481EA030E52EA0335D5
:109480004FEA013100F088804FEA03334FF08055F6
:1094900045EA131343EA12634FEA022245EA111523
:1094A00045EA10654FEA00260EF000419D4208BFD4
:1094B000964244F1FD0404F5407402D25B084FEA81
:1094C0003202B61A65EB03055B084FEA32024FF42D
:1094D00080104FF4002CB6EB020E75EB030E22BF8A
:1094E000B61A754640EA0C005B084FEA3202B6EB4A
:1094F000020E75EB030E22BFB61A754640EA5C00F9
:109500005B084FEA3202B6EB020E75EB030E22BF88
:10951000B61A754640EA9C005B084FEA3202B6EB89
:10952000020E75EB030E22BFB61A754640EADC0048
:1095300055EA060E18D04FEA051545EA16754FEAAA
:1095400006164FEAC30343EA52734FEAC2025FEAC8
:109550001C1CC0D111F4801F0BD141EA00014FF057
:1095600000004FF0004CB6E711F4801F04BF014328
:109570000020B4F1FD0C88BFBCF5E06F3FF6AFAE44
:10958000B5EB030C04BFB6EB020C5FEA500C50F1D4
:10959000000041EB045170BD0EF0004E4EEA113157
:1095A00014EB5C04C2BFD4EB0C0541EA045170BD5E
:1095B00041F480114FF0000E013C90E645EA060EA2
:1095C0008DE60CEA135594EA0C0F08BF95EA0C0FD0
:1095D0003FF43BAF94EA0C0F0AD150EA01347FF418
:1095E00034AF95EA0C0F7FF425AF104619462CE7EF
:1095F00095EA0C0F06D152EA03353FF4FDAE104652
:10960000194622E750EA410618BF52EA43067FF4A2
:10961000C5AE50EA41047FF40DAF52EA43057FF432
:10962000EBAE12E74FF0FF3C06E000BF4FF0010C3D
:1096300002E000BF4FF0010C4DF804CD4FEA410CA1
:109640007FEA6C5C4FEA430C18BF7FEA6C5C1BD06E
:1096500001B050EA410C0CBF52EA430C91EA030FEF
:1096600002BF90EA020F0020704710F1000F91EA4C
:10967000030F58BF994208BF90422CBFD8176FEA1A
:10968000E37040F0010070474FEA410C7FEA6C5CE8
:1096900002D150EA013C07D14FEA430C7FEA6C5CEF
:1096A000D6D152EA033CD3D05DF8040B704700BF1B
:1096B0008446104662468C461946634600E000BF69
:1096C00001B5FFF7B7FF002848BF10F1000F01BD3B
:1096D0004DF808EDFFF7F4FF0CBF012000205DF806
:1096E00008FB00BF4DF808EDFFF7EAFF34BF01208B
:1096F00000205DF808FB00BF4DF808EDFFF7E0FF24
:1097000094BF012000205DF808FB00BF4DF808ED74
:10971000FFF7CEFF94BF012000205DF808FB00BFDB
:109720004DF808EDFFF7C4FF34BF012000205DF8BD
:1097300008FB00BF4FEA410C7FEA6C5C02D150EAA3
:10974000013C0AD14FEA430C7FEA6C5C02D152EA39
:10975000033C02D14FF0000070474FF0010070470A
:109760004FEA410212F5001215D211D56FF4787349
:10977000B3EB625212D94FEAC12343F0004343EAEC
:10978000505311F0004F23FA02F018BF40427047C7
:109790004FF00000704750EA013005D111F0004051
:1097A00008BF6FF0004070474FF00000704700BFE7
:1097B0004A0011D212F5001211D20DD56FF4787350
:1097C000B3EB62520ED44FEAC12343F0004343EAA5
:1097D000505323FA02F070474FF00000704750EAF0
:1097E000013002D14FF0FF3070474FF0000070475A
:1097F0004FEA4102B2F1E04324BFB3F5001CDCF1B3
:10980000FE5C0DD901F0004C4FEAC0024CEA5070EA
:10981000B2F1004F40EB830008BF20F00100704719
:1098200011F0804F21D113F13872BCBF01F000401C
:10983000704741F480114FEA5252C2F11802C2F14E
:10984000200C10FA0CF320FA02F018BF40F00100CF
:109850004FEAC1234FEAD32303FA0CFC40EA0C0081
:1098600023FA02F34FEA4303CCE77FEA625307D1BE
:1098700050EA01331EBF4FF0FE4040F440007047F5
:1098800001F0004040F0FE4040F40000704700BF8F
:109890000A22002100F050B910B5054C13462CB136
:1098A0000A4601460220AFF3008010BD2046FCE7C7
:1098B00000000000002910B591FBF2F402FB141324
:1098C00006DB002B01DA01349B1AC0E9004310BD0E
:1098D000002BC4BF04F1FF349B18F6E730B5013903
:1098E0000024A24201D1002005E0035D01340D5D9A
:1098F000AB42F6D0581B30BD0A44914200F1FF3311
:1099000000D1704710B511F8014B03F8014F914297
:10991000F9D110BD884210B501EB020402D984428E
:10992000234607D8431EA14208D011F8012B03F8A3
:10993000012FF8E7024401468A4200D110BD13F816
:10994000014D02F8014DF7E702440346934200D16E
:10995000704703F8011BF9E738B50D4B1D68AB6B79
:1099600004467BB91820FCF74FFA0A4A0A4BA86351
:10997000C0E90023094B83600B238381012200236C
:10998000C0E90423AB6B00221C615A6138BD00BFE3
:1099900048E003200E33CDAB34126DE6ECDE05005B
:1099A00010F8012B11F8013B012A28BF9A42F7D089
:1099B000D01A7047034611F8012B03F8012B002A37
:1099C000F9D17047034613F8012B002AFBD1181A6E
:1099D0000138704710B50139034632B111F8014F13
:1099E00003F8014B013A002CF7D11A4400219342AD
:1099F00000D110BD03F8011BF9E710B50246014480
:109A00008A42134601D1181A10BD1C780132002C6D
:109A1000F6D1F8E7F0B50C7864B103461A78184629
:109A20005E1C0AB9104605E0944208D10D4615F8AF
:109A3000012F02B9F0BD13F8017F9742F7D03346EA
:109A4000ECE700002DE9F0473A4E86468C4660462A
:109A50001CF8014BA55D15F00805F8D12D2C33D16C
:109A60009CF800404FF0010800F1020C002B5CD084
:109A7000102B0CD1302C0AD19CF8000000F0DF0034
:109A800058284DD19CF8014010230CF1020C08F12C
:109A90000047013F0026B7FBF3F9304603FB197A74
:109AA000A4F13005092D18D82C46A34224DD751CDD
:109AB00007D081451DD301D1A2451ADB00FB03402D
:109AC00001261CF8014BEBE72B2C08BF9CF800404B
:109AD000A84608BF00F1020CC8E7A4F14105192D02
