:02000002D0002C
:1040000000400D0038840D00000006000C00050182
:084010000401BD0B00000000DB
:044018004C7C0D00CF
:1040200009480A49884208B505D0094A824202D0A7
:10403000121A03F0EFFC0748074A0021121A03F096
:1040400011FD014808BD00BFB8E0032084830D00C6
:1040500044E1032044E10320F0E7032070B5074E5C
:10406000074C02F009F8A41BA4080025A54200D1C2
:1040700070BD56F8043B98470135F7E75C830D00A7
:1040800080830D0000F05AB808B500F0C5F8BDE80F
:10409000084001F0B3BF01F0CDBA01F0CBBA01F096
:1040A000D1BA0078B0FA80F040097047012303705C
:1040B0007047704710B50446043001F014FD2046E7
:1040C00010BD10B504463C3001F00DFD04F1280090
:1040D00001F009FD204601F006FD204610BD38B56F
:1040E0000446006928B185680C2102F0AEFE28461E
:1040F000F8E7204638BD000038B584690A4B0360F4
:1041000005467CB16368013B63605BB92368204668
:104110009B689847A368013BA3601BB923682046AE
:10412000DB689847284638BDA8800D0010B50446C6
:10413000006808B101F086FA204610BD38B502F0DB
:10414000CBF84FF4165102F0BBF8182129482A4D3C
:1041500000F02BFC02F04CFE02F0AAF919212548D0
:1041600000F023FC2348002100F0F6FB2148072142
:1041700000F00AFC0121082002F0E4FD01210820E2
:1041800002F0F1FD2B7DEBB102232B722B68DB6873
:1041900023B19A88042A29D09B68F9E7174910208F
:1041A00002F055FE0446F8B11022002103F05AFC3B
:1041B000134B23600423A3802B69A3604FF47A730D
:1041C000E3602C610F4C1049204601F01FFD40F6C2
:1041D000B8330E49A36304F1280001F017FD0C4B1E
:1041E00044F620621A6038BD2875EBE74FF47A7206
:1041F000DA60E7E78CE5032054E1032064810D00D9
:1042000010000300C8E50320607C0D00707C0D00E9
:10421000D8E00320000000002DE9F04F2DED048BC5
:10422000B94CBA4DDFF840B38BB0204600F00EFC1D
:1042300001F090FE0A22014606A801F00CFD06A935
:10424000B34801F0DBFC06A801F04DFCD4ED038A75
:1042500000232B6018EE900A03F074F8A6A3D3E9AC
:10426000002306460F4603F04BFBA046AA46B7EED6
:10427000008A58B3A74B4FF033323046394603F02B
:1042800035FB18B378EEC87A2569646917EE900A91
:1042900003F058F89AA3D3E9002303F0ABF803F036
:1042A00043FBCBF80000284603F04CF894A3D3E975
:1042B000002303F09FF803F037FB974B186020466C
:1042C00003F040F88EA3D3E9002342E098ED049A6E
:1042D00019EE100A03F036F8D8ED058A044618EEF8
:1042E000900A0D4603F02EF883A3D3E900238046FD
:1042F00089462046294603F003FB002800F036815A
:10430000844B4FF033322046294603F0EFFA002861
:1043100000F02C817AA3D3E900233046394603F01C
:1043200069F803F001FB79EE487ACBF8000017EE4C
:10433000900A03F007F872A3D3E9002303F05AF8B8
:1043400003F0F2FA744B18606DA3D3E900234046E2
:10435000494603F04FF803F0E7FA704B1860DBEDC5
:10436000007AF5EEC07AF1EE10FAD8BFF1EE677A76
:10437000F4EEC87AF1EE10FA1DDC674BD3ED007A4B
:10438000F5EEC07AF1EE10FAD8BFF1EE677AF4EEEE
:10439000C87AF1EE10FA0EDC604BD3ED007AF5EE40
:1043A000C07AF1EE10FAD8BFF1EE677AF4EEC87A6F
:1043B000F1EE10FA02DD0123CAF80030584906A8D0
:1043C00001F0DCFB0A22DAF8001002A801F030FC50
:1043D00002A906A801F06DFC524901F076FC4C4997
:1043E00001F067FC504901F070FC01464F4801F0B4
:1043F0005CFC02A801F077FB06A801F074FB06A89C
:104400004B4901F049FA069808B101F01BF9494CF3
:104410002368002B67DC484D00231A46194668685C
:1044200001F098F8002368681A46194601F072F8FE
:10443000A8460022D8F80400114601F083F80028AD
:10444000F7D03A4D3D4F01F0CDF8A9682846013923
:1044500001F0B5FC3A4906A801F090FB294606A8F0
:1044600001F027FC374901F030FC0146364801F0E5
:10447000B6FB06A801F037FB344B354935480093AD
:104480003A46354B00F03AFC01F026FF3B683349D1
:10449000194401F0FEFC01F01FFF3149064606A851
:1044A00001F06CFB391D06A801F003FC01683046E1
:1044B00001F0EFFC06A801F016FB2A49284601F09E
:1044C000A5FB002544F6206306A82360CDE9065528
:1044D0008DF8205001F002FED8F804002B462A4641
:1044E000294601F03FF82368A3F57A7323600BB0E7
:1044F000BDEC048BBDE8F08F9A9999999999E93FA1
:104500003EE8D9ACFA9C23408CE5032088E50320E3
:1045100028E603203333F33F3CE6032040E6032044
:10452000727C0D008A7C0D00997C0D00B8E503209B
:1045300054E10320D8E00320C4E7032014E603205D
:104540009C7C0D00A67C0D0004E60320A97C0D00D8
:10455000C8E503206CE10320B8E00320AE7C0D0029
:10456000B77C0D00077F0D0038E603201CA3D3E9BC
:1045700000234046494603F0C3F900283FF4EFAE5C
:10458000154B4FF033324046494603F0AFF900284F
:104590003FF4E5AE0EA3D3E900233046394602F0DE
:1045A00029FF03F0C1F90AA3D3E90023CBF80000E7
:1045B0002946204602F01EFF03F0B6F9074B78EEBD
:1045C000C87A186017EE900A7AE600BFAFF3008051
:1045D0003EE8D9ACFA9C23403333F33F3CE603205A
:1045E0009A9999999999E93F10B52C21044602F0BE
:1045F0002CFC204610BD00002DE9F041374E384B11
:10460000B3600025374C3560B580B571032000F0EC
:104610004BFF354F3549DFF80C813046344E22468A
:1046200002F00EFC3146384601F0A8FA3846314F08
:104630002246414602F004FC3146384601F09EFA1B
:1046400038462D4F2246414602F0FAFB384600F02C
:104650008DF822462949384602F0F2FB28482949BC
:10466000A0F809500346021D43F8092B9D70012351
:10467000C0E9035503750572234B244D4360224660
:1046800002F0DEFB284600F0C0FA2846204D214902
:10469000224602F0D5FB3146284601F06FFA05F1BB
:1046A000100001F069FD314605F1280001F066FABD
:1046B000314605F13C0001F061FA2846164D1749D4
:1046C000224602F0BDFB3146281D01F057FA224672
:1046D00028461349BDE8F04102F0B2BB48E103208F
:1046E0000000FFFF44E10320B8E503202D410D0049
:1046F000077F0D0028E603208CE50320B3400D0062
:1047000054E10320DF400D00100003006CE10320A2
:10471000C8E50320F9400D0014E60320C3400D0056
:10472000B5400D00E75A0D00704700000B4610B56C
:10473000282204460021184603F094F908490B2268
:1047400003F0D6F900220121C272C1600346A069BC
:104750005A62C3E9040100229A61DA611A6210BD4B
:10476000097D0D000368C9B29B681847064A0260BC
:104770004FF0FF3282614277C283FF2280F820200F
:1047800008224262704700BF187D0D0013B50B4C24
:104790002178BFF35B8F11F001010BD1204601910D
:1047A000FFF77FFC019928B1054800F0AFFF2046D4
:1047B000FFF77CFC024802B010BD00BF44E60320B6
:1047C00048E603202DE9F04190F9203001330546F9
:1047D0000F4606D1FFF7DAFF3946BDE8F04101F098
:1047E0001FB8002407264FF0010895F9200000218A
:1047F00080B202F0B8FA95F91E0008FA06F13940C5
:1048000080B202F0B0FA95F92000012180B202F0E6
:10481000AAFA95F91F00640080B2E4B202F0BCFA73
:1048200008B144F00104013EDFD22046BDE8F0812A
:1048300008B5FFF7ABFF012100F083FFFFF7A6FFEC
:104840000549012200F0BAFFFFF7A0FFBDE80840CC
:10485000002100F089BF00BF20A1070070B590F9CA
:104860001D30013304460E46154616D102F0C0FA3B
:10487000217F01F04DFE02F0BBFA036831469B68D0
:10488000984702F0B5FA036829469B68984702F0FA
:10489000AFFABDE8704001F046BE90F92030013318
:1048A00001D1FFF7C5FF94F91D00002180B202F08D
:1048B0005AFA06F07F012046FFF784FF294620467A
:1048C000FFF780FF94F91D000121BDE8704080B220
:1048D00002F049BA38B590F91D30013304460D464F
:1048E0001DD102F085FA94F91C1001F015FE02F0BA
:1048F0007FFA036829469B68984702F079FA01F02D
:1049000012FE02F075FA217F012201F0FEFD02F095
:104910006FFA03685B699847C5B2284638BD90F9BD
:104920002030013301D1FFF783FF94F91D000021EE
:1049300080B202F018FA45F080012046FFF742FFEE
:1049400000212046FFF73EFF054694F91D00012196
:1049500080B202F008FAE0E738B50D46232104469C
:10496000FFF7B8FF20F0300242EA05122046D2B22B
:10497000BDE838402321FFF771BF08B52321FFF7B9
:10498000A9FFC0F3011008BD38B50D46202104462B
:10499000FFF7A0FF00F00F0242EA05122046D2B254
:1049A000BDE838402021FFF759BF10B50446017714
:1049B00090F91D00421C23D102F01AFA01F072FD99
:1049C0000F212046FFF786FF33283DD10722202103
:1049D0002046FFF743FF07212046FFF7D5FF882237
:1049E00023212046FFF73AFF102222212046FFF71D
:1049F00035FF204680221F21FFF730FF012010BD28
:104A0000012180B202F0AFF994F91D00012180B2BA
:104A100002F098F994F92000431C04D1FFF7B6FE88
:104A200000F07EFECCE7012180B202F08BF994F910
:104A30001E00012180B202F085F994F91F000021C7
:104A400080B202F07FF9BBE70020D8E738B590F9D3
:104A50001D300133044676D102F0CAF994F91C10D6
:104A60005C4D01F059FD02F0C3F9A821FFF77AFE71
:104A700002F0BEF901F057FD02F0BAF9217F0622DB
:104A800001F043FD02F0B4F903685B699847E080E8
:104A900002F0AEF903685B699847E38805EA0020F5
:104AA0001843E08002F0A4F903685B69984720810D
:104AB00002F09EF903685B699847238905EA0020A4
:104AC0001843208102F094F903685B69984760817C
:104AD00002F08EF903685B69984705EA0020658952
:104AE000284360812046FFF748FF032869D0022849
:104AF0006AD001286BD0002843F6FC7318BF01234D
:104B000007EE903AB4F9063007EE103AF8EEE77A7D
:104B1000B8EEC77AB4F90830C7EE276A07EE103A44
:104B2000B8EEC77AC4ED036AC7EE276AB4F90A3053
:104B300007EE103AB8EEC77AC4ED046AC7EE276AEA
:104B4000C4ED056A38BD90F92030013301D1FFF77B
:104B50006FFE94F91D00002180B202F004F9E821F3
:104B60002046FFF72FFEFF212046FFF72BFEFF21F7
:104B7000E0802046FFF726FEE38843EA0020E0803D
:104B8000FF212046FFF71EFEFF2120812046FFF770
:104B900019FE238943EA00202081FF212046FFF7E8
:104BA00011FEFF2160812046FFF70CFE638943EA76
:104BB0000020608194F91D00012180B202F0D3F839
:104BC00090E74FF400639BE74FF4805398E741F67A
:104BD000FE7395E700FFFF000C46054608B520224E
:104BE0000021201D02F03EFF24232360AB69636097
:104BF0000123A360002323612846FFF727FFEB680A
:104C000063612B69A3616B69E36110B5044601F030
:104C1000DBFE204610BD0000F8B50F4F05461446D8
:104C20000E4601F01DF93946284601F019F92146D2
:104C3000284601F02EF901F04FFB314601F010F942
:104C400001F04AFB394601F00BF901F045FB214622
:104C5000BDE8F84001F01DB9647D0D0010B50C46AB
:104C600001F017F901F038FB2146BDE8104001F0D2
:104C700010B9F8B505460C4616464AB90368C9B2DC
:104C80009B6898470746284601F0F7F83844F8BD76
:104C900000290CDA0A2A0AD12D2101F0E5F8614237
:104CA0000746F2B2284601F0FEF80744EBE721463A
:104CB0000027F6E7F8B5104F054614460E4601F0FA
:104CC000CFF83946284601F0CBF80A22214628467B
:104CD000FFF7CFFF01F000FB314601F0C1F801F012
:104CE000FBFA394601F0BCF801F0F6FA0A22214637
:104CF000FFF7BFFFF8BD00BF647D0D002DE9F04F49
:104D00000E4691B01F464FF0FF331360044600215A
:104D10003046DDF86880914600F0ECFFD6F838E0C8
:104D2000034600286ED1BEF1000F14BF7246502218
:104D3000316892B2204601F05BFE051E18BF0125C6
:104D4000002D7ED00021304600F0D4FF00286CD129
:104D500001F0C2FABB4901F083F801F0BDFA3168F5
:104D600001F07EF801F0B8FAB74901F079F801F0E6
:104D7000B3FA0A22B16BFFF77CFF4146204601F0EF
:104D80006FF8B249204601F06BF8B16A204601F095
:104D900067F8AF49204601F063F801F09DFAAD498C
:104DA00001F077F801F098FA414601F059F801F066
:104DB00093FAA64901F054F801F08EFAB16A01F0B5
:104DC0004FF801F089FAA24901F04AF8A249A34A32
:104DD0002046FFF721FF0021304600F08BFF20B96D
:104DE00032689F492046FFF717FF06F13C0A002171
:104DF000504600F07FFF78BB726C9A492046FFF75F
:104E000059FF30E0984B0A9306F1140CBCE80F00F0
:104E10000BAD0FC5DCF800302B701FFA8EF20023AB
:104E20000AA9204601F0B1FC87E701F055FA8F4945
:104E300001F016F801F050FA06F1100101F017F830
:104E400090E701F049FA8A4901F023F8204601F081
:104E500071FD11B0BDE8F08F8649404602F02EFE8C
:104E600002460028C9D05FB1396849B17A68204646
:104E70001AB1FFF7D1FE0837F6E7FFF7EFFEFAE7C2
:104E8000204600F0FAFF204601F072FB0021504658
:104E900000F030FF40B9F16B204600F0FAFF01F05E
:104EA0001BFAF16B00F0F5FF01F016FA04F11C0A91
:104EB000714900F0EEFF4FF480620021504602F08D
:104EC000D1FD00F049F9009000F046F9002701906B
:104ED000204601F0D5FC0646B0B101F0FDF9674966
:104EE00000F0BEFF01F0F8F9002E834627DA2D21ED
:104EF00000F0BAFF71420A22584600F0D4FF01F0D8
:104F0000EBF95F4900F0C5FF4FF0000B204601F0C0
:104F1000B7FC38B3204601F0ECFB5FFA80F801F0F3
:104F2000DBF9414600F0A0FF00F016F940F2FE3335
:104F30009F42009005D80AF807800137E6E731461E
:104F4000D9E740F2FF339F42F7D1002384F81B34A6
:104F5000204601F0EFFC01F0BFF94A4900F099FF4B
:104F6000AB46EAE7E319187726B101F0B5F94649EF
:104F700000F076FF00F0F0F8009BC61ABBF1000FBE
:104F800006D141F288339E4202D8C82000F0FCFFCF
:104F9000204601F0EEFA41F2883300284AD09E42C2
:104FA0004AD8BBF1000F93D001F096F9374900F0D1
:104FB00057FF01F091F9054600F0CEF8019B0A2257
:104FC000C11A284600F06FFF01F086F9304900F061
:104FD00060FF204601F0AEFC514602A800F0CEFD75
:104FE0000C23092202A906A800F0A8FE01F074F91A
:104FF000284900F035FF01F06FF9069900F049FFEC
:1050000025490AA800F0BAFD0AA902A800F093FEFB
:1050100004460AA800F067FD631C43D101F05CF967
:105020001E4900F036FF06A800F05DFD02A800F062
:105030005AFD0EE79E42B7D901F04EF9184900F02B
:1050400028FFB1E72C7D0D00887C0D00657D0D00EB
:10505000677D0D00737D0D009C7D0D00967D0D001C
:10506000C67D0D00CB7D0D00E07F0D00487D0D005D
:10507000A77D0D00A97C0D00DA7D0D00FB7D0D00E4
:10508000277E0D002F7E0D00647E0D00BF7E0D007B
:10509000E47E0D00E97E0D00037F0D00087F0D000A
:1050A0008A7E0D0009F104050A49284600F0AEFD8C
:1050B000221D02A90AA800F061FE0AA9284600F0F4
:1050C000F4FD0AA800F00FFD069802F07DFCC9F877
:1050D0000000A8E7077F0D0008B5024B1B689B681E
:1050E000019308BD6802030008B5024B1B68DB682A
:1050F000019308BD6802030008B5024B1B689B685A
:10510000019308BD2C02030008B5024B1B68DB6845
:10511000019308BD2C02030008B5024B1B681B69F4
:10512000019308BD2C02030008B5024B1B685B69A4
:10513000019308BD2C02030008B5024B1B685B6994
:10514000019308BD6C02030008B5024B1B685B6845
:10515000019308BD1802030008B5024B1B685B6988
:10516000019308BD1802030008B5024B1B689B6D34
:10517000019308BD1802030008B5024B1B685B6E63
:10518000019308BD1802030008B5024B1B685B6C55
:10519000019308BD4802030008B5024B1B689B6CD5
:1051A000019308BD4802030008B5024B1B685B6908
:1051B000019308BD6402030008B5024B1B681B6A1B
:1051C000019308BD6402030008B5024B1B689B6A8B
:1051D000019308BD6402030008B5024B1B681B68FD
:1051E000019308BD3C02030008B5024B1B68DB6855
:1051F000019308BD3C02030008B5024B1B681B6904
:10520000019308BD3C02030008B5024B1B685B69B3
:10521000019308BD3C02030008B5024B1B689B6963
:10522000019308BD3C02030008B5024B1B68DB6913
:10523000019308BD3C02030008B5024B1B681B6AC2
:10524000019308BD3C02030008B5024B1B689B6A32
:10525000019308BD3C02030008B5024B1B68DB68E4
:10526000019308BD2802030008B5024B1B681B69A7
:10527000019308BD2802030008B5024B1B689B6917
:10528000019308BD2802030008B5024B1B68DB69C7
:10529000019308BD2802030008B5024B1B681B6A76
:1052A000019308BD2802030008B5024B1B685B6A26
:1052B000019308BD2802030008B5024B1B689B6AD6
:1052C000019308BD2802030008B5024B1B68DB6A86
:1052D000019308BD2802030008B5024B1B681B6B35
:1052E000019308BD2802030008B5024B1B685B6BE5
:1052F000019308BD2802030008B5024B1B681B6C14
:10530000019308BD2802030008B5024B1B681B6D02
:10531000019308BD2802030008B5024B1B689B6976
:10532000019308BD3802030008B5024B1B68DB6916
:10533000019308BD3802030008B5024B1B681B6AC5
:10534000019308BD3802030008B5024B1B689B6A35
:10535000019308BD3802030008B5024B1B681B6BA4
:10536000019308BD3802030008B5024B1B689B6B14
:10537000019308BD3802030008B5024B1B681B6887
:10538000019308BD3002030008B5024B1B689B68FF
:10539000019308BD3002030008B5024B1B68DB68AF
:1053A000019308BD3002030008B5024B1B681B695E
:1053B000019308BD3002030008B5024B1B685B690E
:1053C000019308BD3002030008B5024B1B68DB697E
:1053D000019308BD3002030008B5024B1B681B6A2D
:1053E000019308BD3002030008B5024B1B685B6ADD
:1053F000019308BD3002030008B5024B1B681B6C0B
:10540000019308BD3002030008B5024B1B685B6CBA
:10541000019308BD3002030008B5024B1B681B68EE
:10542000019308BD4C02030008B5024B1B685B6882
:10543000019308BD4C02030008B5024B1B681B69B1
:10544000019308BD4C02030008B5024B1B685B6961
:10545000019308BD4C02030008B5024B1B689B6911
:10546000019308BD4C02030008B5024B1B68DB69C1
:10547000019308BD4C02030008B5024B1B681B6A70
:10548000019308BD4C02030008B5024B1B681B6D5D
:10549000019308BD6002030008B5024B1B681B683E
:1054A000019308BD2002030008B5024B1B685B682E
:1054B000019308BD2002030008B5024B1B685B691D
:1054C000019308BD2002030008B5024B1B689B6DC9
:1054D000019308BD2002030008B5034B1B68D3F8F5
:1054E0008830019308BD00002002030008B5034B7B
:1054F0001B68D3F89430019308BD0000200203001C
:1055000008B5034B1B68D3F8A830019308BD000011
:105510002002030008B5024B1B685B68019308BDBD
:105520004002030008B5024B1B689B68019308BD4D
:105530004002030008B5024B1B68DB68019308BDFD
:105540004002030008B5024B1B681B69019308BDAC
:105550004002030008B5024B1B685B69019308BD5C
:105560004002030008B5024B1B689B69019308BD0C
:105570004002030008B5024B1B68DB69019308BDBC
:105580004002030008B5024B1B681B6A019308BD6B
:105590004002030008B5024B1B681B6B019308BD5A
:1055A0004002030008B5024B1B685B6B019308BD0A
:1055B0004002030008B5024B1B681B6C019308BD39
:1055C0004002030008B5024B1B685B6C019308BDE9
:1055D0004002030008B5024B1B689B68019308BD9D
:1055E0004402030008B5024B1B68DB68019308BD49
:1055F0004402030008B5024B1B685B69019308BDB8
:105600004402030008B5024B1B681B6B019308BDE5
:105610004402030008B5024B1B68DB6B019308BD15
:105620004402030008B5024B1B685B6C019308BD84
:105630004402030008B5024B1B681B68019308BDB8
:105640001C02030008B5024B1B685B68019308BD90
:105650001C02030008B5024B1B689B68019308BD40
:105660001C02030008B5024B1B68DB6B019308BDED
:105670001C02030008B5024B1B685B6C019308BD5C
:105680001C020300002240681146FFF77BBF002286
:1056900040681146FFF786BF40680022FFF77ABFD7
:1056A0004068002281F00101FFF764BF00234068D9
:1056B0001A461946FFF756BF002340681A46194696
:1056C000FFF748BF002240681146FFF73BBF0022AA
:1056D00040681146FFF726BF406800220221FFF70D
:1056E00029BF002340681A46FFF714BF024B03226C
:1056F0005A60024A1A60704750E60320447F0D004A
:105700000021FFF779BE0021FFF77EBE10B50446E9
:1057100008462170FFF758FE00236360204610BD45
:1057200010B504460078FFF7EBFF48B920784FF634
:10573000FF71FFF721FE2078BDE81040FFF7E3BFBF
:1057400010BD13B5044600780191FFF7D9FF019908
:1057500040B92078FFF718FE207802B0BDE810406D
:10576000FFF7D1BF02B010BD13B504460078019118
:10577000FFF7C6FF019940B92078FFF70DFE2078AA
:1057800002B0BDE81040FFF7BEBF02B010BD000080
:10579000400830B51860002418688842E5B206D980
:1057A0000134082C02D040081860F5E70725024BA9
:1057B0005B5D137030BD00BF787F0D002DE9F041B7
:1057C00088B000230446007802930E461746FFF780
:1057D00097FF054600BB94F800800146142203A8F9
:1057E00002F040F90B232A4603A94046ADF80C30DD
:1057F000FFF7FAFD04988DF8075002AB0DF1070290
:1058000007FB06F1FFF7C4FF20789DF80710FFF7AC
:10581000CBFD2078FFF777FF029808B0BDE8F08154
:1058200008B50078FFF7C8FDC0B208BD10B5044642
:10583000006818B1FFF706FF0023236010BD38B5DC
:10584000B1F9043083800B460D4653F8062FC0F89B
:1058500006209B8843810446FFF7E8FF2B6813B1BD
:10586000236000232B60204638BD000038B50C466D
:105870000546FFF7DBFF44B12088FFF7DBFE286019
:1058800028B12288214602F0C5F8002038BD014821
:10589000FCE700BFFCFEFFFFF0B52D4D0B7D04467D
:1058A0008BB00846AF1D002B38D00B681B79002B3E
:1058B00034D00022274B049302A904300292ADF8A1
:1058C0000C208DF80E20FFF71BFEDDF80E30C5F81A
:1058D000063000B2BDF81230ADF80C00A880029975
:1058E000BB802846FFF7C2FF02A8FFF79FFF0023F7
:1058F0002360A380A37123814FF6FF736381B5F901
:105900000430A3803B68C4F80630BB8829686381F3
:105910002046FFF7ABFF20460BB0F0BD002620234A
:10592000CDE902360C4B00930C49334602AA3220D3
:10593000FFF7AAFD074B049302A94FF6F263044850
:1059400002968DF80E60ADF80C30FFF778FFCBE7CC
:1059500058E603200000FFFF877F0D00807F0D00C9
:1059600010B5094B094C022200201A60084B206038
:10597000A080A071A360FFF797FD2046054A064965
:10598000BDE8104001F05CBA64E6032058E603204D
:105990000000FFFF44E103202D410D0010B5044637
:1059A00002F09EF8013823182046834206D9027877
:1059B000197800F8011B03F80129F6E710BD2DE95D
:1059C000F041931E8CB0222B4FF000030D4614467D
:1059D0008DF82C3027D900282ADA2E462D2306F8F8
:1059E000013B40420A240DF12B074FF001082246EB
:1059F000014601A801F0FAFF029B0198092BCCBFD8
:105A00003722302252FA83F307F8013908F10108EE
:105A10000028ECD14246791C304601F0FBFF2846B5
:105A20000CB0BDE8F0810A2AD5D018B12E46DAE7CD
:105A30000A24FAE730238DF82B302E460DF12A0781
:105A40004FF00208E6E770B50C46911E2229054684
:105A500022D820466DB1B5FBF2F602FB1655E9B22D
:105A6000092D94BF30315731C9B200F8011B3546BA
:105A7000F0E7024623443021934202D902F8011B89
:105A8000FAE71A1A834238BF0022002383542046C3
:105A9000FFF784FF204670BD0020FCE738B5031EE9
:105AA0000C4615460EDAB3F1004F4FF02D0214BF2D
:105AB0005842184601230A702A461944FFF7C3FFCB
:105AC000204638BD0123F9E770B586B0064601AD22
:105AD000684600F095FB0FCD341D0FC42B68237072
:105AE000304606B070BD10B504460068FFF7AAFD49
:105AF000204610BD10B50446006808B1FFF7A2FDAE
:105B00000023C4E90133236010BD38B504460D46B7
:105B100000680131FFF79EFD10B1C4E900050120C6
:105B200038BD10B50368044623B143688B4201D3E6
:105B3000012010BD2046FFF7E8FF0028F9D0A36838
:105B4000002BF5D122681370F2E737B50D461146E8
:105B500001920446FFF7E5FF019A28B92046FFF7B6
:105B6000C9FF204603B030BDA2602946206801F07D
:105B700051FF2268A3680021D154F2E7002313B536
:105B8000C0E9003304468360037341B108460191C4
:105B900001F0A6FF019902462046FFF7D6FF2046F6
:105BA00002B010BD38B5054600680C4668B16A6899
:105BB0008B689A4207D3096801F08AFFA368AB603B
:105BC0000023A36038BDFFF73DFD23682B606368A9
:105BD0006B60A368AB600023C4E90033F1E788423F
:105BE00010B5044605D00B682BB18A681946FFF73B
:105BF000ACFF204610BDFFF77DFFFAE7884210B5E5
:105C0000044601D0FFF7CEFF204610BD13B5044671
:105C100059B10846019101F063FF019902462046FF
:105C2000FFF793FF204602B010BDFFF763FFF9E7CF
:105C300010B504468AB00023C4E90033A36023737F
:105C4000084601A9FFF72AFF01A92046FFF7DEFF5A
:105C500020460AB010BD10B504468AB00023C4E93E
:105C60000033A3602373084601A9FFF7A8FE01A92A
:105C70002046FFF7CBFF20460AB010BD70B50546A1
:105C80000E4609B9002070BD6AB1846814442146EB
:105C9000FFF747FF0028F5D02868AB683146184465
:105CA00001F016FFAC600120EDE78A680968FFF794
:105CB000E5BF10B58A6809680446FFF7DFFF10B931
:105CC0002046FFF717FF204610BD13B5044629B93B
:105CD0002046FFF70FFF204602B010BD0846019195
:105CE00001F0FEFE019902462046FFF7C7FF00289B
:105CF000EED0F0E708B582683AB921B10878B0FA79
:105D000080F0400900E0012008BD006809B9007872
:105D1000F5E701F0D3FEF2E710B58368934207D9A7
:105D200004680968A01801F0F6FE08B1001B10BD58
:105D30004FF0FF30FBE70022FFF7EEBFF8B59A42C5
:105D40000F461D460C4988BF13461446064684BFBD
:105D50002C461D46FFF712FFBA68A2420AD33968E3
:105D6000AA4294BFC4EB0202C4EB050221443046B0
:105D7000FFF7EBFE3046F8BD077F0D0010B5044677
:105D80008B68FFF7DBFF204610BD38B50446084698
:105D9000A3688B4211D982B111448B4238BF1A1AC1
:105DA0002568991A1318A1600A1AE918284401F005
:105DB0003FFE2268A3680021D154204638BD826886
:105DC000521AFFF7E2BF10B50446006808B1FFF7AA
:105DD000E3F9204610BD10B58368044613B10322D1
:105DE00001469847204610BD10B5064C00232046BA
:105DF0002360FFF7C9F92046034A0449BDE8104073
:105E000001F01EB868E6032044E10320C75D0D00E1
:105E1000F8B506460D468F180024BD420CD03368F5
:105E200015F8011B9B6830469847031E01DB1C4494
:105E3000F3E7002C08BF1C462046F8BD13B5044606
:105E4000084659B1019101F04BFE23680199DB68C6
:105E50000246204602B0BDE81040184702B010BD0F
:105E600008B5FFF7EBFF08BD03689B6818470A6891
:105E70000B46126801461846104738B50D210546F5
:105E8000FFF7F2FF0A2104462846FFF7EDFF204402
:105E900038BD38B50546FFF7D1FF04462846FFF761
:105EA000ECFF204438BD30B58BB000238DF8243092
:105EB000012A98BF0A2209AC0D46B1FBF2F101FBA1
:105EC000125303F0FF03092B94BF30333733DBB297
:105ED000AA4204F8013DEFD92146FFF7AFFF0BB00E
:105EE00030BD002340681A461946FFF733BB000057
:105EF000014B024A1A6070476CE60320B87F0D0020
:105F000008B50020FFF77EFB28B1FFF773FB80F098
:105F10000100C0B208BD0120FCE710B50020FFF76A
:105F200023F90446A0B9FFF7B7FA012810D120469B
:105F3000FFF7CAFA60B9FFF7E3FF10B9FFF74AFBB2
:105F4000F9E7FFF7DDFFBDE810400020FFF70CB9CF
:105F5000204610BD1FB5FFF7E0FF10220021684664
:105F600001F080FD00216846FFF706F9009805B0B2
:105F70005DF804FB024B1A68024B1A60704700BFC1
:105F8000DCE0032070E603200021FFF795BA10B58E
:105F90000446FFF720FF204610BD00000348044AD6
:105FA00004490023836000F04BBF00BF74E6032068
:105FB00044E103208F5F0D00014B1860704700BF64
:105FC000E0E0032008B50B4B43B100F085F903680E
:105FD0001B699847002801DDAFF30080064B43B1F1
:105FE00000F0F8F903681B699847002801DDAFF35A
:105FF000008008BD000000000000000008B5FFF7A9
:10600000E1FFFFF7A9F8014B186008BDD4E70320B2
:106010000248034A0349121A01F0FCBC00F40320B1
:1060200004F4032080830D0007B5002300931A4673
:106030006FF07701FFF75AFA03B05DF804FB000038
:1060400007B543880A2B08D0502B0BD1094B1B688E
:106050004BB103B05DF804EB1847FFF7E5FF03B061
:106060005DF804FB002300931A466FF07701FFF7F9
:106070003DFAF4E788E6032038B5124C1248134D78
:106080000021FFF7F7FA2368AB42114B0CBF012246
:1060900000221A7002D0FFF7BBFF2560FFF754F80B
:1060A000044601F0E7FC0B4B13B12046AFF3008030
:1060B00000210848FFF7AEFABDE838400648002145
:1060C000FFF70ABA00F40320B95F0D001E1C279ADF
:1060D00084E603200000000041600D0007B508239E
:1060E000ADF8003003688DF80230037A8DF8033084
:1060F0000021436801936846FFF794FA03B05DF806
:1061000004FB704710B51821044600F09EFE20469F
:1061100010BDF0B5037D062B8DB00E4600F10407CF
:106120004FF0000412D000F1080515F8011D0A22F5
:106130003046FFF7B8FEAF42044419D0002CF4D02B
:106140002E213046FFF790FE0444EEE72F236A46E7
:1061500039460A208DF80040FFF726F8684601F01E
:10616000BFFC33680246DB68694630469847044600
:1061700020460DB0F0BD000010B5054B04461122BD
:1061800040F8043B002101F06DFC204610BD00BF2B
:10619000E07F0D000346074A10B543F8042B01F1D8
:1061A000100251F8044B43F8044B9142F9D10A789C
:1061B0001A7010BDE07F0D00037D042B04D14068F0
:1061C000003818BF01207047062B07D143683BB940
:1061D00083682BB9C3681BB90069F1E700207047D9
:1061E0000120704710B59DF8084044EA032343EAB4
:1061F000024242EA016104234160037510BD0000C0
:1062000013B5054B0360CB7800938B784A780978F7
:10621000FFF7E8FF02B010BDE07F0D00417470474A
:10622000704708B50021007CFFF716F940EAE070DE
:1062300008BD08B50121007CFFF70EF940EAE070C7
:1062400008BD08B5007CFFF7FFF820EAE07008BD44
:1062500008B5007CFFF7F0F820EAE07008BD13B540
:106260000446007C0191FFF7EFF80028019901DC5A
:10627000607C20B1207CFFF7F7F820EAE07002B0E4
:1062800010BD007CFFF7F8B810B51421044600F0EB
:10629000DCFD204610BD000010B54FF47A730446B3
:1062A00008460021C4E90113044B23600123207434
:1062B00063741146FFF7B0F8204610BDF47F0D005F
:1062C000007C0022FFF7B0B810B51422044600216C
:1062D00001F0C8FB204610BD10B5104C88B003A8D3
:1062E000FFF7F2FF2178BFF35B8F11F0010111D1AD
:1062F00020460191FDF7D5FE019958B103AA08483F
:10630000FFF7CAFF2046FDF7D1FE064A06490448BA
:1063100000F096FD024808B010BD00BF8CE60320D7
:1063200090E6032044E1032021620D007047417490
:10633000704708B5007CFEF787FF20EAE07008BDD3
:1063400008B5007CFEF758FF20EAE07008BD08B5EC
:10635000007CFEF761FF40EAE07008BD08B5007CF4
:10636000FEF752FF40EAE07008BD007CFEF75CBF1C
:1063700037B5457C04462DB1207C03B0BDE83040E4
:10638000FEF732BF007C0191FEF75EFF0028019905
:10639000F2DC284603B030BD10B51421044600F0ED
:1063A00054FD204610BD000010B54FF0000C04460F
:1063B000084611464FF47A72C4E901C2044A2260C9
:1063C0000122207462741A46FEF706FF204610BDB3
:1063D00024800D0013B50E4C2178BFF35B8F11F0B4
:1063E000010112D120460191FDF75BFE019960B1D8
:1063F000084A094B0948FFF7D7FF2046FDF756FE2C
:10640000074A0849054800F01BFD044802B010BDCA
:10641000A4E60320A8E603202CE70320B0E703202E
:1064200044E103202D630D007047F8B5064615467C
:106430000C468F18BC4206D0336814F8011B9B68C9
:1064400030469847F6E72846F8BD007C0022FEF764
:1064500023BF007C0021FEF727BF007C0021FEF750
:106460002BBF007C0021FEF72FBF007C0021FEF730
:1064700033BF10B51421044600F0E7FC204610BDE0
:1064800010B54FF47A73044608460021C4E901139D
:10649000034B236020741146FEF72EFF204610BDEB
:1064A00054800D000023007C1A461946FEF7D4BE26
:1064B000007C0021FEF7D8BE7FB500221423CDE971
:1064C0000122ADF804300B788DF808304B68039347
:1064D000CB680493007C0B7A059301A9FEF714FFA7
:1064E00007B05DF804FB1FB5003B8DF800104FF0BE
:1064F0006401039118BF0123694601928DF80830A9
:10650000FFF7DAFF05B05DF804FB0123FFF7EBBFEF
:10651000007C0022FEF7B0BEC9B2FFF7F9BF007CD5
:106520000022FEF7B1BE0121FFF7F9BF13B50368E2
:106530008DF80710DC6B01224FF0FF330DF10701DE
:10654000A04702B010BD10B40368DC6B4FF0FF33FE
:10655000A4465DF8044B604713B5134602688DF8F6
:106560000710D46B0DF107010122A04702B010BD46
:10657000704738B543691A68002A054610DAB3F83F
:106580008620B3F884309A420AD103681B69984781
:10659000044628B92B682846DB6A9847204638BD50
:1065A0000120FCE743691868C043C00F704770477B
:1065B000064B994210B500F10C0405D0084600F0D6
:1065C0004BFC002808BF0024204610BDB07F0D0002
:1065D00010B5AC21044600F038FC204610BDFDF794
:1065E0005EBD2DE9F0414FF0000886B01D46C0F8B1
:1065F000048004460E4617464146102202A801F0C8
:1066000031FA6B1C09D04FF47A70B5FBF0F3CDE989
:10661000023800FB13535843049060691023009321
:10662000006802AB41F2050240F6FF71FEF774FE0E
:10663000002807DAFFF716F803686360002006B049
:10664000BDE8F0816069002300683A463146FEF7F4
:1066500083FE031EEEDB1846F1E7000038B58469BF
:106660000A4B036005467CB16368013B63605BB91C
:10667000236820469B689847A368013BA3601BB929
:1066800023682046DB689847284638BDA8800D005F
:1066900010B50446FFF7E2FF20461C2100F0D5FBB1
:1066A000204610BD70B54D69054B04468C3544F845
:1066B000043B06460FCD0FC42B682370304670BDD7
:1066C000E07F0D0010B54369B3F88620B3F884303D
:1066D0009A42044605D06369B3F8842013441879BC
:1066E00010BD03681B6998470028F4D14FF0FF30B4
:1066F000F6E710B54369B3F88620B3F884309A42C0
:10670000044608D06369B3F88420511CA3F88410B0
:106710001344187910BD03681B6998470028F1D10C
:106720004FF0FF30F6E7F8B543691746B3F8862017
:10673000B3F884309A4205460E4616D06969B1F81E
:106740008430B1F88640E41ABC4228BF3C4604338A
:1067500022461944304601F05DF96A69B2F8843086
:106760002344A2F884302046F8BD03681B6998478B
:106770000028E3D14FF0FF34F5E742690023A2F887
:1067800084304269A2F8863070472DE9F0411F46F7
:1067900003680C46DB6A8AB0054616469847237D97
:1067A000D5F81480042B0CBF02200A2006220121F8
:1067B000FEF7DAFDC8F800006B691B68002B08DAE9
:1067C0002B682846DB6A0024984720460AB0BDE8BB
:1067D000F0812846FFF7D1FFB7B1002303A9F8B233
:1067E0000393ADF81030FEF7A7FC0028E8D16869E4
:1067F00006230093006803AB41F20B0240F6FF71E1
:10680000FEF78AFD0028DBD11C22002103A801F03D
:1068100029F9237D042B1DD14FF407733046ADF8C1
:106820000C30FEF7D1FCADF80E006068FEF7C4FC3A
:1068300004906B691C22186803A9FEF77DFD0028EF
:10684000BED104340FCC6D698C350FC523682B7015
:106850000124BAE740F61C233046ADF80C30FEF7B1
:10686000B3FC05AEADF80E00231D04F11407186843
:106870005968324603C20833BB421646F7D1D8E7FF
:1068800030B54269B2F886308BB004462BB1B2F80D
:1068900084209A4201D1FFF770FF616908680028DF
:1068A00018DBB1F886507F2D14D804310823C5F1C8
:1068B00080022944FEF748FD002813DD6369B3F820
:1068C00086200AB9A3F884206369B3F886201044AF
:1068D000A3F886006369B3F88600B3F88430C01A61
:1068E0000BB030BDFEF7BEFE03680B2BF2D0FEF7F7
:1068F000B9FE03680B2BEDD020230025CDE902352E
:10690000FEF7B0FE03680193084B0949009302AA01
:106910002B463220FEF7B8FD63691868FEF704FDC8
:1069200063694FF0FF321A60D4E700BF74800D0036
:10693000807F0D0010B5436904461868002801DB0C
:10694000FEF7F2FC63694FF0FF321A6060691122B2
:1069500000218C3001F086F82046BDE81040FFF79A
:106960000CBF10B5002304460160C0F884308830A5
:10697000FFF702FC204610BD73B500234FF47A7276
:10698000C0E901320E4A0361026043610446AC2053
:106990000191FDF780FB051E05F10C0608D00123CF
:1069A000C5E90133074B01992B603046FFF7D9FF4A
:1069B0002046C4E90565FFF7E0FE02B070BD00BFE8
:1069C000A8800D008C800D0010B54FF0FF310446FB
:1069D000FFF7D2FF204610BD10B50446006800281E
:1069E00001DBFEF7A1FC204610BD0C30FFF7F4BF21
:1069F0002DE9F0439846036893B00D460024DB6A06
:106A000006461746984728466B462246214600947C
:106A1000FEF76AFB0546002863D1009B002B4BD094
:106A20005B69002B48D006A8FFF7A6FB009B5C69BA
:106A30006378022B04D1211D06A8FFF745F826E054
:106A40000A2B24D11122294601A801F00BF8A368D2
:106A5000002B38D004F108030DF1040C1834186829
:106A60005968624603C20833A3429446F7D106230D
:106A700001A90CA88DF81430FFF78CFB0DF1340C34
:106A8000BCE80F0007AC0FC4DCF80030237006A888
:106A9000FFF792FB80B1336807ADD3F82090124B1B
:106AA0000C930FCD0DAC0FC42B6823703A464346B0
:106AB0000CA93046C84705460098FEF70DFB28464E
:106AC00013B0BDE8F083E368002BC3D14FF6FF702D
:106AD000D4F81090FEF770FB8145BBD104F114018E
:106AE000AAE72546E8E700BFE07F0D0000224068E6
:106AF0001146FEF727BD002240681146FEF742BD51
:106B0000002240681146FEF74DBD40680022FEF7A6
:106B100041BD4068002281F00101FEF72BBD00233A
:106B200040681A461946FEF71DBD0022406811460E
:106B3000FEF7F8BC406800220221FEF7FBBC0023F0
:106B400040681A46FEF7E6BC024B04225A60024A2D
:106B50001A607047C4E70320F4800D0000234068EA
:106B60001A46FEF7D7BC406800220221FEF7E2BCBD
:106B7000002240681146FEF7D5BC0022406811464D
:106B8000FEF7E0BC002340681A461946FEF7E2BC57
:106B9000002340681A461946FEF7E4BC406800210D
:106BA000FEF708BD40680021FEF70CBD40680022DA
:106BB00081F00101FEF7DEBC40680022FEF7EABC6E
:106BC000002240681146FEF7EDBC002240681146E5
:106BD000FEF7D8BC2DE9F043002495B016460D46CB
:106BE0000746FFF7C9FA214618220EA8009400F0C4
:106BF00039FF4023CDE90C3421466B460CAA3046C0
:106C0000FEF772FA044600284CD10246012168685A
:106C1000FEF798FC0221804622466868FEF792FC47
:106C2000009E81462146002E3CD000293AD173684F
:106C3000022B03D00A2B11D0F669F4E7B8F1000F4C
:106C40000AD0716906A8043107ADFFF7D9FA0FCD54
:106C50003C1D0FC42B6823704146EDE7B9F1000FCE
:106C600001D14946E8E77469102201A800F0FAFE54
:106C700006238DF8143001AD04F1080318341868A8
:106C800059682A4603C20833A3421546F7D101A921
:106C900006A807ADFFF77EFA0FCD3C1D0FC42B6889
:106CA0002370DEE70098FEF717FA384615B0BDE806
:106CB000F0830000024B034A1A6000225A607047BA
:106CC000CCE7032030810D00232813B502D9002022
:106CD00002B010BDA0F10B03022B1AD8174C21787B
:106CE000BFF35B8F11F001010BD120460191FDF73D
:106CF000D8F9019928B11248FEF708FD2046FDF7A2
:106D0000D5F90F4B1878FEF767FB0028DFD101207B
:106D1000DEE7012809D800F06BF80021007CFEF7BF
:106D2000E3FA80F00100C0B2D2E709380128EED8BA
:106D3000FFF750FB007CFEF77FFAF2E744E6032002
:106D400048E60320232838B504460D460AD8FF2913
:106D500008D0FFF7B9FF28B129462046BDE83840E2
:106D6000FEF7CAB938BD38B504460D46FEF7CCF972
:106D7000FF2810D0062804D84D2323FA00F0C307BB
:106D800009D42046FFF7A0FF28B129462046BDE8D8
:106D90003840FEF7C1B938BD10B50446FEF7B4F966
:106DA000031FDBB2012B08D92046FFF78DFF20B16E
:106DB0002046BDE81040FEF7B7B9002010BD000026
:106DC00038B50023202543801423044603808560C2
:106DD00005610649284600F03CF8044960602846F1
:106DE00000F037F8E060204638BD00BF64810D0038
:106DF00030B50F4D2978BFF35B8F11F0010487B0D8
:106E000013D12846FDF74DF978B101A8FFF7D8FF57
:106E100001AA21460748FFF733FB2846FDF746F94C
:106E2000054A0649034800F00BF8024807B030BD98
:106E3000D8E70320DCE7032044E1032029640D00A8
:106E40000B460146184600F0C3BDFDF728B9FDF713
:106E500022B9FDF722B90000014900F0F9B800BFDE
:106E600080810D007FB500241023CDE90234036832
:106E700000949E698DF8044015466B461268B04731
:106E80009DF8043003F00603062B03BF009B2B6024
:106E90000120204604B070BD0098904214BF01202C
:106EA0000620704710B5034B0360044600F0CDF890
:106EB000204610BDC0810D0010B50446FFF7F2FF5B
:106EC00020460821FFF7C1FF204610BD2DE9F04103
:106ED0001F46DDE90834DDF818809845064615465A
:106EE00007D1079900F0B4F818B165710020BDE82A
:106EF000F0813946304600F0ABF80028F6D0012387
:106F0000C4F800802571A371F0E738B515461C461A
:106F100000F09EF820B10823E3600623256023716A
:106F200038BD73B505460C4601921E4600F090F838
:106F300050B9032E08D82368019A5B692946204678
:106F400002B0BDE87040184702B070BD10B5034BE9
:106F500003600446FFF7A6FF204610BD20820D0007
:106F600010B50446FFF7F2FF20460C21FFF76DFF36
:106F7000204610BDF7B5089F974205460E461446B9
:106F80000AD0A86802680897156A31462246AC46BE
:106F900003B0BDE8F04060471946019300F058F88F
:106FA000019B0028EDD0062003B0F0BD2DE9F14F84
:106FB0000D461946DDE90A4BDDE90CA68146174668
:106FC000984600F045F890B1002D3460377109DB28
:106FD00061198A450CBF06210121B171002001B061
:106FE000BDE8F08F0235F9D10123B371F6E75445BE
:106FF00006D15946484600F02BF808B17771EDE705
:10700000D9F808000368CDE90CA6CDE90A4BDC6984
:107010003A4643462946A44601B0BDE8F04F6047D2
:107020002DE9F04107460C4615461E46FFF76DFF59
:1070300048B9B86803689F692A4633462146BC466A
:10704000BDE8F0416047BDE8F0817047002070471F
:10705000814208B50ED0406803782A2B0CD04968CD
:107060000B782A2B08BF013100F028FDB0FA80F020
:10707000400908BD0120FCE70020FAE781F000414B
:1070800002E000BF83F0004330B54FEA41044FEA0D
:10709000430594EA050F08BF90EA020F1FBF54EAA8
:1070A000000C55EA020C7FEA645C7FEA655C00F044
:1070B000E2804FEA5454D4EB5555B8BF6D420CDD15
:1070C0002C4480EA020281EA030382EA000083EA98
:1070D000010180EA020281EA0303362D88BF30BD38
:1070E00011F0004F4FEA01314FF4801C4CEA11318E
:1070F00002D0404261EB410113F0004F4FEA0333ED
:107100004CEA133302D0524263EB430394EA050F77
:1071100000F0A780A4F10104D5F1200E0DDB02FAE6
:107120000EFC22FA05F2801841F1000103FA0EF27A
:10713000801843FA05F359410EE0A5F120050EF140
:10714000200E012A03FA0EFC28BF4CF0020C43FA71
:1071500005F3C01851EBE37101F0004507D54FF07E
:10716000000EDCF1000C7EEB00006EEB0101B1F5CE
:10717000801F1BD3B1F5001F0CD349085FEA300014
:107180004FEA3C0C04F101044FEA445212F5800F1F
:1071900080F09A80BCF1004F08BF5FEA500C50F1BC
:1071A000000041EB045141EA050130BD5FEA4C0C9F
:1071B000404141EB0101013C28BFB1F5801FE9D2FC
:1071C00091F0000F04BF01460020B1FA81F308BF1F
:1071D0002033A3F10B03B3F120020CDA0C3208DDEB
:1071E00002F1140CC2F10C0201FA0CF021FA02F1C6
:1071F0000CE002F11402D8BFC2F1200C01FA02F136
:1072000020FA0CFCDCBF41EA0C019040E41AA2BF5A
:1072100001EB0451294330BD6FEA04041F3C1CDA22
:107220000C340EDC04F11404C4F1200220FA04F042
:1072300001FA02F340EA030021FA04F345EA0301EC
:1072400030BDC4F10C04C4F1200220FA02F001FAAE
:1072500004F340EA0300294630BD21FA04F0294630
:1072600030BD94F0000F83F4801306BF81F48011C9
:107270000134013D4EE77FEA645C18BF7FEA655C3C
:1072800029D094EA050F08BF90EA020F05D054EA0E
:10729000000C04BF1946104630BD91EA030F1EBF13
:1072A0000021002030BD5FEA545C05D14000494117
:1072B00028BF41F0004130BD14F580043CBF01F50A
:1072C000801130BD01F0004545F0FE4141F47001F0
:1072D0004FF0000030BD7FEA645C1ABF19461046CB
:1072E0007FEA655C1CBF0B46024650EA013406BFCC
:1072F00052EA033591EA030F41F4002130BD00BF8B
:1073000090F0000F04BF0021704730B54FF4806447
:1073100004F132044FF000054FF0000150E700BFC8
:1073200090F0000F04BF0021704730B54FF4806427
:1073300004F1320410F0004548BF40424FF0000114
:107340003EE700BF42004FEAE2014FEA31014FEA57
:1073500002701FBF12F07F4393F07F4F81F06051A6
:10736000704732F07F4208BF704793F07F4F04BFF1
:1073700041F40021704730B54FF4607401F00045CE
:1073800021F000411CE700BF50EA010208BF70472E
:1073900030B54FF000050AE050EA010208BF70471F
:1073A00030B511F0004502D5404261EB41014FF488
:1073B000806404F132045FEA915C3FF4D8AE4FF090
:1073C00003025FEADC0C18BF03325FEADC0C18BF73
:1073D000033202EBDC02C2F1200300FA03FC20FAC4
:1073E00002F001FA03FE40EA0E0021FA02F1144411
:1073F000BDE600BF70B54FF0FF0C4CF4E06C1CEA2A
:1074000011541DBF1CEA135594EA0C0F95EA0C0F9A
:1074100000F0DEF82C4481EA030621EA4C5123EA0D
:107420004C5350EA013518BF52EA033541F480113C
:1074300043F4801338D0A0FB02CE4FF00005E1FBEF
:1074400002E506F00042E0FB03E54FF00006E1FB39
:1074500003569CF0000F18BF4EF0010EA4F1FF047C
:10746000B6F5007F64F5407404D25FEA4E0E6D41BC
:1074700046EB060642EAC62141EA55514FEAC520CD
:1074800040EA5E504FEACE2EB4F1FD0C88BFBCF549
:10749000E06F1ED8BEF1004F08BF5FEA500E50F1FA
:1074A000000041EB045170BD06F0004646EA0101C0
:1074B00040EA020081EA0301B4EB5C04C2BFD4EBF2
:1074C0000C0541EA045170BD41F480114FF0000EEB
:1074D000013C00F3AB8014F1360FDEBF002001F059
:1074E000004170BDC4F10004203C35DA0C341BDCD3
:1074F00004F11404C4F1200500FA05F320FA04F0A5
:1075000001FA05F240EA020001F0004221F00041D8
:1075100010EBD37021FA04F642EB06015EEA430E4B
:1075200008BF20EAD37070BDC4F10C04C4F120057B
:1075300000FA04F320FA05F001FA04F240EA02002E
:1075400001F0004110EBD37041F100015EEA430EFF
:1075500008BF20EAD37070BDC4F1200500FA05F21F
:107560004EEA020E20FA04F301FA05F243EA02039E
:1075700021FA04F001F0004121FA04F220EA0200AD
:1075800000EBD3705EEA430E08BF20EAD37070BDF3
:1075900094F0000F0FD101F00046400041EB0101D3
:1075A00011F4801F08BF013CF7D041EA060195F0B5
:1075B000000F18BF704703F00046520043EB03036F
:1075C00013F4801F08BF013DF7D043EA060370475C
:1075D00094EA0C0F0CEA135518BF95EA0C0F0CD067
:1075E00050EA410618BF52EA4306D1D181EA0301AD
:1075F00001F000414FF0000070BD50EA410606BFA7
:107600001046194652EA430619D094EA0C0F02D1EB
:1076100050EA013613D195EA0C0F05D152EA033630
:107620001CBF104619460AD181EA030101F000414E
:1076300041F0FE4141F470014FF0000070BD41F097
:10764000FE4141F4780170BD70B54FF0FF0C4CF471
:10765000E06C1CEA11541DBF1CEA135594EA0C0F90
:1076600095EA0C0F00F0A7F8A4EB050481EA030EDD
:1076700052EA03354FEA013100F088804FEA0333C4
:107680004FF0805545EA131343EA12634FEA022292
:1076900045EA111545EA10654FEA00260EF0004153
:1076A0009D4208BF964244F1FD0404F5407402D2A5
:1076B0005B084FEA3202B61A65EB03055B084FEA36
:1076C00032024FF480104FF4002CB6EB020E75EB33
:1076D000030E22BFB61A754640EA0C005B084FEA5B
:1076E0003202B6EB020E75EB030E22BFB61A7546D8
:1076F00040EA5C005B084FEA3202B6EB020E75EB23
:10770000030E22BFB61A754640EA9C005B084FEA9A
:107710003202B6EB020E75EB030E22BFB61A7546A7
:1077200040EADC0055EA060E18D04FEA051545EA96
:1077300016754FEA06164FEAC30343EA52734FEA3F
:10774000C2025FEA1C1CC0D111F4801F0BD141EAB8
:1077500000014FF000004FF0004CB6E711F4801F1D
:1077600004BF01430020B4F1FD0C88BFBCF5E06FFD
:107770003FF6AFAEB5EB030C04BFB6EB020C5FEA0D
:10778000500C50F1000041EB045170BD0EF0004E62
:107790004EEA113114EB5C04C2BFD4EB0C0541EA94
:1077A000045170BD41F480114FF0000E013C90E691
:1077B00045EA060E8DE60CEA135594EA0C0F08BF55
:1077C00095EA0C0F3FF43BAF94EA0C0F0AD150EA54
:1077D00001347FF434AF95EA0C0F7FF425AF1046E7
:1077E00019462CE795EA0C0F06D152EA03353FF40F
:1077F000FDAE1046194622E750EA410618BF52EA8C
:1078000043067FF4C5AE50EA41047FF40DAF52EA5F
:1078100043057FF4EBAE12E74FF0FF3C06E000BFFC
:107820004FF0010C02E000BF4FF0010C4DF804CD09
:107830004FEA410C7FEA6C5C4FEA430C18BF7FEAC9
:107840006C5C1BD001B050EA410C0CBF52EA430CF7
:1078500091EA030F02BF90EA020F0020704710F177
:10786000000F91EA030F58BF994208BF90422CBF06
:10787000D8176FEAE37040F0010070474FEA410CFF
:107880007FEA6C5C02D150EA013C07D14FEA430C1D
:107890007FEA6C5CD6D152EA033CD3D05DF8040B8E
:1078A000704700BF8446104662468C4619466346C0
:1078B00000E000BF01B5FFF7B7FF002848BF10F197
:1078C000000F01BD4DF808EDFFF7F4FF0CBF0120DC
:1078D00000205DF808FB00BF4DF808EDFFF7EAFF58
:1078E00034BF012000205DF808FB00BF4DF808ED13
:1078F000FFF7E0FF94BF012000205DF808FB00BF08
:107900004DF808EDFFF7CEFF94BF012000205DF891
:1079100008FB00BF4DF808EDFFF7C4FF34BF01209E
:1079200000205DF808FB00BF4FEA4102B2F1E043DE
:1079300024BFB3F5001CDCF1FE5C0DD901F0004C56
:107940004FEAC0024CEA5070B2F1004F40EB8300A6
:1079500008BF20F00100704711F0804F21D113F1D2
:107960003872BCBF01F00040704741F480114FEA0B
:107970005252C2F11802C2F1200C10FA0CF320FA94
:1079800002F018BF40F001004FEAC1234FEAD323B1
:1079900003FA0CFC40EA0C0023FA02F34FEA43031B
:1079A000CCE77FEA625307D150EA01331EBF4FF0A4
:1079B000FE4040F44000704701F0004040F0FE40BF
:1079C00040F40000704700BF0A22002100F034B9E3
:1079D00010B5054C13462CB10A4601460220AFF300
:1079E000008010BD2046FCE700000000002910B513
:1079F00091FBF2F402FB141306DB002B01DA0134D5
:107A00009B1AC0E9004310BD002BC4BF04F1FF3432
:107A10009B18F6E70A44914200F1FF3300D170470A
:107A200010B511F8014B03F8014F9142F9D110BD87
:107A3000884210B501EB020402D98442234607D8DC
:107A4000431EA14208D011F8012B03F8012FF8E7DB
:107A5000024401468A4200D110BD13F8014D02F8DC
:107A6000014DF7E702440346934200D1704703F803
:107A7000011BF9E738B50D4B1D68AB6B04467BB9AC
:107A80001820FDF7D7FD0A4A0A4BA863C0E9002376
:107A9000094B83600B23838101220023C0E9042367
:107AA000AB6B00221C615A6138BD00BFE0E00320CF
:107AB0000E33CDAB34126DE6ECDE050010F8012B71
:107AC00011F8013B012A28BF9A42F7D0D01A70471B
:107AD000034611F8012B03F8012B002AF9D1704756
:107AE000034613F8012B002AFBD1181A01387047FE
:107AF00010B50139034632B111F8014F03F8014BBB
:107B0000013A002CF7D11A440021934200D110BD54
:107B100003F8011BF9E7F0B50C7864B103461A7855
:107B200018465E1C0AB9104605E0944208D10D467D
:107B300015F8012F02B9F0BD13F8017F9742F7D075
:107B40003346ECE72DE9F0473A4E86468C466046D0
:107B50001CF8014BA55D15F00805F8D12D2C33D18B
:107B60009CF800404FF0010800F1020C002B5CD0A3
:107B7000102B0CD1302C0AD19CF8000000F0DF0053
:107B800058284DD19CF8014010230CF1020C08F14B
:107B90000047013F0026B7FBF3F9304603FB197A93
:107BA000A4F13005092D18D82C46A34224DD751CFC
:107BB00007D081451DD301D1A2451ADB00FB03404C
:107BC00001261CF8014BEBE72B2C08BF9CF800406A
:107BD000A84608BF00F1020CC8E7A4F14105192D21
:107BE00001D8373CE1E7A4F16105192D04D8573CD1
:107BF000DBE74FF0FF36E4E7731C06D12223CEF813
:107C00000030384642B9BDE8F087B8F1000F00D027
:107C10004042002AF7D00EB10CF1FF311160F2E7BB
:107C20003024002BB3D10823B1E7302CA4D00A2391
:107C3000ADE700BF5A820D0013460A4601460248CE
:107C40000068FFF77FBF00BFE0E0032021400D0088
:107C50005D400D0085400D0089400D0000000000D2
:107C60007472656B2E74686577636C2E636F6D003C
:107C70002F007B2264736964223A35303938332C03
:107C8000202276616C7565223A002C202274696D81
:107C9000657374616D70223A007D2C007B226461F3
:107CA0007461223A5B005D7D00504F535400537461
:107CB000617475733A2000426F64793A2000416321
:107CC00063657074006170706C69636174696F6E74
:107CD0002F6A736F6E00436F6E74656E742D5479E6
:107CE0007065006170692D746F6B656E004150495D
:107CF0002D65616665652D63646235362D333534D7
:107D000035642D3338663764004C4953334448009A
:107D10000000000000000000B3400D00E9450D0028
:107D200029470D00D94B0D002D470D004874747084
:107D3000436C69656E743E09436F6E6E656374696A
:107D40006E6720746F3A200048747470436C6965E4
:107D50006E743E09436F6E6E656374696E6720745E
:107D60006F2049503A200020485454502F312E3073
:107D70000D0A0048747470436C69656E743E095353
:107D800074617274206F662048545450205265719B
:107D9000756573742E00636C6F736500436F6E6E50
:107DA000656374696F6E0048747470436C69656EC6
:107DB000743E09436F6E6E656374696F6E20666111
:107DC000696C65642E00484F535400436F6E7465B0
:107DD0006E742D4C656E6774680048747470436CE3
:107DE00069656E743E09456E64206F662048545480
:107DF0005020526571756573742E000D0A487474B5
:107E000070436C69656E743E095265636569766995
:107E10006E6720544350207472616E73616374699D
:107E20006F6E206F6620002062797465732E0048A3
:107E3000747470436C69656E743E094572726F723A
:107E40003A20526573706F6E736520626F6479209B
:107E50006C6172676572207468616E206275666617
:107E600065722E000D0A48747470436C69656E74F7
:107E70003E09456E64206F66205443502074726141
:107E80006E73616374696F6E2E000D0A48747470AE
:107E9000436C69656E743E094572726F723A205484
:107EA000696D656F7574207768696C6520726561AE
:107EB00064696E6720726573706F6E73652E000D56
:107EC0000A48747470436C69656E743E09456E644B
:107ED000206F66204854545020526573706F6E7343
:107EE000652028006D73292E0048747470436C69F6
:107EF000656E743E0953746174757320436F6465D5
:107F00003A20000D0A0D0A0048747470436C6965CC
:107F10006E743E094572726F723A2043616E277427
:107F20002066696E64204854545020726573706FE7
:107F30006E736520626F64792E00000000000000FF
:107F400000000000E3560D00D9560D00CF560D007D
:107F5000C5560D00B9560D00AD560D009D6B0D00B8
:107F6000A56B0D00A1560D0099560D008F560D0002
:107F700085560D00D56B0D000008101820283038EC
:107F8000776972696E670053797374656D20736CDD
:107F900065657020636F6E66696775726174696F7D
:107FA0006E20697320696E76616C69642E00000032
:107FB00000000000000000006170700025592D25B0
:107FC0006D2D25645425483A254D3A2553257A00D0
:107FD00061736374696D65000000000000000000BB
:107FE00013610D0003610D0005610D00000000002C
:107FF0000000000021620D0089620D005F620D002B
:10800000115E0D0051620D0023620D0033620D0000
:1080100083620D0043620D001D620D000000000030
:10802000000000002D630D0099630D0071630D00C9
:10803000115E0D0041630D005D630D004F630D0087
:108040006B630D002F630D0033630D000000000013
:108050000000000029640D0073640D004B640D00E6
:108060002B640D0053640D005B640D0063640D0010
:108070006B640D0072656376206572726F72203DCD
:10808000202564000000000000000000AF650D0026
:10809000D1650D00EB690D00DF650D00B1650D00C8
:1080A00000000000000000005D660D0091660D00FC
:1080B0002D650D0047650D0081680D00F3660D000C
:1080C000C5660D0071650D008B670D00F1690D002F
:1080D00027670D0035690D0073650D00A5650D005E
:1080E00059650D00E3650D00A5660D000000000058
:1080F000000000003F6B0D00356B0D002B6B0D0079
:10810000ED6A0D00E35E0D001F6B0D009D6B0D0011
:10811000A56B0D00136B0D000B6B0D00016B0D00BB
:10812000F76A0D00D56B0D00000000000000000094
:108130005D6B0D00676B0D00716B0D007B6B0D00AF
:10814000856B0D00916B0D009D6B0D00A56B0D00F7
:10815000AD6B0D00B96B0D00C16B0D00CB6B0D004D
:10816000D56B0D0000537431395F53705F6D616BD7
:10817000655F7368617265645F7461670000000029
:10818000C0810D0065810D0020820D0094810D00DD
:1081900044820D004E31305F5F63787861626976AA
:1081A0003131375F5F636C6173735F747970655FE2
:1081B000696E666F450000000000000088810D00B8
:1081C000A56E0D00B96E0D004D700D004D700D00C7
:1081D000236F0D00656E0D000B6F0D00CD6E0D0051
:1081E000996E0D0020820D00F0810D0088810D0038
:1081F0004E31305F5F637878616269763132305F2B
:108200005F73695F636C6173735F747970655F69D5
:108210006E666F450000000000000000E4810D0064
:108220004D6F0D00616F0D004D700D004D700D0014
:10823000236F0D00656E0D0021700D00AD6F0D00F8
:10824000756F0D00C0810D004C820D0053743974A0
:108250007970655F696E666F000020202020202005
:1082600020202028282828282020202020202020E6
:1082700020202020202020202020881010101010E6
:108280001010101010101010101004040404040436
:108290000404040410101010101010414141414119
:1082A000410101010101010101010101010101017E
:1082B000010101010110101010101042424242420F
:1082C000420202020202020202020202020202024E
:1082D0000202020202101010102000000000000034
:1082E000000000000000000000000000000000008E
:1082F000000000000000000000000000000000007E
:10830000000000000000000000000000000000006D
:10831000000000000000000000000000000000005D
:10832000000000000000000000000000000000004D
:10833000000000000000000000000000000000003D
:10834000000000000000000000000000000000002D
:10835000000000000000000000000000F9450D00D2
:10836000ED560D0061590D00E95D0D00F15E0D0047
:10837000755F0D009D5F0D00496B0D00B56C0D0024
:0483800000000000F9
:10838400BE7C0D00C57C0D00D67C0D00C57C0D00A7
:10839400E37C0D00ED7C0D000000000000000000F7
:1083A400204E0000D07F0D00E4E003200000000018
:1083B40000000000000000000000000000000000B9
:1083C40000000000000000000000000000000000A9
:1083D4000000000000000000000000000000000099
:1083E4000000000000000000000000000000000089
:1083F4000000000000000000000000000000000079
:0C8404000000000000000000000000006C
:10841000FFFFFFFF00000102030405060708090A29
:108420000B0C0D0E0F101112131415161718191A24
:088430001B1C1D1E1F2028006B
:04843800785634122C
:04000003D0004020C9
:00000001FF
